:100000000C94BF0C0C94DC0C0C94DC0C0C94DC0CED
:100010000C94DC0C0C94DC0C0C94DC0C0C94DC0CC0
:100020000C94DC0C0C94DC0C0C94DC0C0C94DC0CB0
:100030000C9474100C94DC0C0C94DC0C0C94E910F3
:100040000C94990F0C94DC0C0C94DC0C0C94DC0CD0
:100050000C94DC0C0C94DC0C0C942F650C94DC0CD4
:100060000C94DC0C0C94B80F0C94DC0C0C94DC0C91
:100070000C94DC0C0C94DC0C0C94DC0C0C94DC0C60
:100080000C94DC0C0C94DC0C0C94DC0C8040000018
:1000900000000000000000000000000000F0080464
:1000A0000484444444444444444444444444444410
:1000B00044C4040488700000000000000000000038
:1000C000000000000404FC040400E050506000FE46
:1000D00000E050506000F01010E01010E000E05020
:1000E000506000FC1000F020100010E000E0100054
:1000F00000000018242424C400E050506000F020C8
:100100001000F400E05050600030509000000000FB
:1001100000000000000080808080808080BF8080A0
:1001200080BF808080800000304848484848484868
:100130004888090908F000000000000000000000E5
:1001400000000000000001000000000101010001AA
:1001500000000101010081F01819F0800100000188
:1001600001212020212021202020202423202020A4
:1001700020202021E12121202020212121202120B7
:1001800020202120202121212081C1010000000008
:1001900000F8FEFFFFFF0F0707070707073747872E
:1001A00087879797075FDFDFDFDED880101010109A
:1001B000100F0080403F80C0E0E0E06020000000C1
:1001C0000000000000000000000000007058484CD3
:1001D0004C474744464243FF0000FF4342464447E2
:1001E000474C4C48587000000000000000E0B01878
:1001F0000C0406878FBFEEFEF67E3C1C0C0C0C0C2C
:100200000C0C0C0C0C0C0C0C0E1F39608000000048
:10021000000107070F0F0F0E1E1E1E1E1E1E0E0EC4
:100220000E0E0E8ECEEEFCF973270F1F3F7EFCF9EB
:10023000F1F1F9FC3E1F0F07030100000000000070
:1002400000000000000000000000000000000000AE
:10025000000000008080407F00007F408080000020
:100260000000008080C0C040C0C0808810101D17F2
:1002700011111313131311171D101010000000009B
:10028000000000C0000000000000000000000000AE
:100290000000000000040C1C1C1C1C1C1E1E1E0E5A
:1002A0000E0F070703030180C0E0F0F87C3E1F0F2C
:1002B00007070F1F3F7EFCF8F0E0C0800000000041
:1002C000C020202020002020E0202000E0008040EE
:1002D0002000000302020202040402020202C140E2
:1002E00040FC3F7BB1E0AEA8EAEEA17B7FFC404042
:1002F000C0000000000000000000000080C0E0F02E
:10030000F8FCFFFF0000FEF8C00000000000000045
:1003100000000000000000000000000000000000DD
:10032000000000000C0E0F0F0F070301000000007B
:10033000000000000000000103070F0F0F0E0C006B
:1003400008090909060000000F0000000F0102045F
:1003500008000000000000000000000000000F384E
:1003600038FF9580B282FAAAFA82F29095FF383867
:100370000F00000000008010B074F67777F777F771
:1003800077F777F774F677F777F634B01000000058
:10039000000000000000000000000000000000005D
:1003A000000000000000000000000000000000004D
:1003B000000000E000000000E0000000000000007D
:1003C000000000000000000000000000000000002D
:1003D0000000000000000000000000000030282C99
:1003E000242F3F3607361F0E1F3607363F2F242C8B
:1003F000283000000000000100C1C0414140C1C0E0
:10040000414041C0C140C1C1C1C041C0C1000000A4
:10041000007F11110E000E11110E0007180C030EB3
:100420001807000E151516001F02010E15151600EF
:100430000E11111F000000001F11110E00014E309F
:100440000E01000000000E11110E007F11110E00B0
:100450000E151516001F01011E00000000131519CE
:10046000000E11110E000F10101F001F02010E11BF
:1004700011000E1515160000003F302F2F2B323FB4
:10048000203B3B3C3F202F2F3F262B2C3F00005290
:10049000554420454C45205448522041494C205257
:1004A00055442054485220454C452041494C204158
:1004B000494C20454C452054485220525544204137
:1004C000494C2054485220454C4520525544200068
:1004D00001020304010204030103020401030402F4
:1004E00001040203010403020201030402010403E4
:1004F00002030104020304010204010302040301D4
:1005000003010204030104020302010403020401C3
:1005100003040102030402010401020304010302B3
:1005200004020103040203010403010204030201A3
:100530000102030401030204040203010403020193
:1005400000000000000001081E640101081E640193
:10055000010F32960A0A1E329603010200040506B4
:1005600007707265737320616E79204B6579004165
:100570004C455254004D45535341474500506C651E
:10058000617365207265736574207468656D0053CE
:1005900077697463686573206E6F74206F66660098
:1005A000416C61726D732044697361626C656400B3
:1005B0005265736574207468726F74746C6500544E
:1005C00068726F74746C65206E6F742069646C65FA
:1005D00000507265737320616E79206B65792074A9
:1005E0006F20736B697000414C4552540045455073
:1005F000524F4D206C6F77206D656D005F2D2E2C56
:1006000000564552533A2056312E322D6772757678
:10061000696E00444154453A20323031312D313237
:100620002D31330054494D453A2031343A30323A75
:100630003532002053564E3A206672736B792D7214
:10064000313333310020424C443A2032383100708B
:10065000756C736520746162206F766572666C6F6D
:1006600077006D656E75537461636B206F7665728C
:10067000666C6F77006D656E75537461636B207582
:100680006E646572666C6F77002D2D2D494E560095
:100690004F46464F4E20006F44AA40C83D0C3B07D2
:1006A0003B0E2F5F2EC92C742B2A2CEB2A434C4572
:1006B0004152204D49584553205B4D454E555D00F4
:1006C00053696D706C6520342D434820542D43755B
:1006D0007420202020202020562D5461696C202079
:1006E00020202020456C65766F6E5C44656C7461DB
:1006F000654343504D2020202020202048656C6910
:100700002053657475702020536572766F20546590
:10071000737420200054454D504C415445530053B0
:1007200041464554592053574954434845530000C6
:10073000012D2D2D2D202020202020202020205470
:100740007261696E65722020202020202054726121
:10075000696E657220525544202020547261696E82
:10076000657220454C45202020547261696E657287
:1007700020544852202020547261696E65722041D5
:10078000494C202020496E7374616E742054726944
:100790006D20205472696D73324F66667365747391
:1007A000200046554E432053574954434845530073
:1007B00000012D2D2D2D202020763E6F66732020E8
:1007C000763C6F667320207C767C3E6F66737C7609
:1007D0007C3C6F6673414E44202020204F522020E5
:1007E000202020584F522020202076313D3D763267
:1007F000207631213D76322076313E7632202076C9
:10080000313C7632202076313E3D76322076313CC6
:100810003D76322000535700435553544F4D2053DB
:10082000574954434845530000024356004355522C
:10083000564553002D2D2D494E5600434F505920FB
:100840005452494D205B4D454E555D004C494D4934
:1008500054530000030303030303030303030303CD
:10086000030303032F3332002F3134004D49584521
:10087000520044522F4558504F002B3D2A3D3A3DDF
:1008800000536C6F772020557000536C6F772020D9
:10089000446F776E0044656C617920557000446543
:1008A0006C617920446F776E0041646420202020C1
:1008B000204D756C7469706C795265706C616365FC
:1008C00020004D756C747078004F46460057617279
:1008D0006E696E6700462E506861736500537769D4
:1008E00074636800437572766573004F4E204F46FF
:1008F00046005472696D004F6666736574005765F3
:100900006967687400536F757263650045444954A4
:10091000204D49582000494E53455254204D4958C6
:1009200020005765696768744578706F20205068AB
:10093000617365205377746368205768656E202063
:100940004375727665202020202020200044522FFD
:100950004558504F002D2D2D783E30783C30004EBC
:100960006F2066726565206D6978657221004E6F33
:100970002066726565206578706F21004544495492
:10098000205052534554004D4F4445004355525654
:100990004500436865636B20202020205472696DF8
:1009A00073002864656661756C742900464C49477C
:1009B0004854205048415345530046616465204FD8
:1009C0007574004661646520496E005472696D73E8
:1009D00000537769746368004E616D6500464C4949
:1009E00047485420504841534500060003504F5398
:1009F0004E45470053686966742053656C00755313
:100A0000656300344348203643482038434820314A
:100A1000304348313243483134434831364348004B
:100A200050504D20202053494C565F4153494C565D
:100A30005F4253494C565F43545241433039005052
:100A4000726F746F00524554413132330042656514
:100A5000702043747200452E205472696D730045F6
:100A60002E204C696D6974730045787020202045F4
:100A70007846696E6546696E6520204D65646975C6
:100A80006D436F61727365005472696D20496E63C6
:100A900000542D4578706F00542D5472696D0043D9
:100AA0006F756E7420446F776E436F756E7420554A
:100AB0007020200054696D65722000547269676768
:100AC00065720054696D6572004E616D6500534535
:100AD000545550000009010000000000000006020B
:100AE0004C6F6164696E67206D6F64656C2E2E2E8D
:100AF000004D6F76696E67206D6F64656C2E2E2ECB
:100B000000436F7079696E67206D6F64656C2E2E7F
:100B10002E0044454C455445204D4F44454C0066FD
:100B2000726565004D4F44454C53454C005B4D4547
:100B30004E555D202020205B455849545D005B45A3
:100B40005849545D0012081200081C0808081C08C7
:100B50000000082200490022080000000000227F57
:100B6000220000000822004900220800000822009C
:100B700049002208000000227F2200000000000837
:100B80002200490022080000081C0808081C080070
:100B9000474BDA499749FA4881486B47205B4D45F6
:100BA0004E555D205748454E20444F4E452000206D
:100BB0004D4F564520535449434B532F504F545398
:100BC0002000202020534554204D4944504F494E89
:100BD0005420202000205B4D454E555D20544F2071
:100BE000535441525420200043414C4942524154F5
:100BF000494F4E0041314132413341344135413654
:100C00004137413800414E41005472696D2D202B0F
:100C100000204D656E75204578697420446F776EAD
:100C200020202055705269676874204C65667400F6
:100C30004449414700454550524F4D2076005645A6
:100C40005253494F4E0043616C004D756C7469708E
:100C50006C69657200636831636832636833636826
:100C600034006F6666202B3D203A3D006D6F646551
:100C7000202020252073726300536C617665005438
:100C80005241494E4552000002020202004D6F647B
:100C900065005278204368616E6E656C204F726407
:100CA000004E4F204441544120416C61726D00411F
:100CB0006C61726D205761726E696E67004D656D73
:100CC0006F7279205761726E696E6700446F776E3C
:100CD0004F46462055702020005377697463682082
:100CE0005761726E696E67005468726F74746C65D8
:100CF000205761726E696E670053706C6173682073
:100D000073637265656E004F4646004C6967687490
:100D1000206F6666206166746572004C696768744E
:100D20002073776974636800466C617368206F6E26
:100D30002062656570004265657020636F756E7432
:100D4000646F776E004D696E7574652062656570BD
:100D5000005468726F74746C652072657665727386
:100D6000650053494E474F534D5046494C54004639
:100D7000696C7465722041444300496E6163746913
:100D80007669747920616C61726D0042617474657A
:100D90007279207761726E696E6700436F6E74724C
:100DA0006173740051756965744E6F4B65794E6F50
:100DB000726D204C6F6E6720784C6F6E67004265D5
:100DC0006570657200524144494F20534554555057
:100DD000005B4D454E555D20746F207265736574E0
:100DE000004672656520537461636B206D696E20E7
:100DF00020202062007431306D73202020202020BC
:100E000020202020757300746D61696E206D6178FB
:100E10002020202020206D7300746D7231204A69DB
:100E20007474657220202020757300746D72314CCB
:100E30006174206D696E20202020757300746D72BE
:100E4000314C6174206D617820202020757300532F
:100E50005441543200544F54005354250053544BC2
:100E60000054535700544D450053544154004545D8
:100E700050524F4D20466F726D617474696E6700F9
:100E800042616420454570726F6D20446174610059
:100E9000454550524F4D20436F6E76657274696EB2
:100EA0006700454570726F6D204461746120457222
:100EB000397800454570726F6D2044617461207609
:100EC0003300454550524F4D206F766572666C6F0A
:100ED000770050085000000000000000006F000084
:100EE00007000700147F147F14242A7F2A1223137B
:100EF00008646236495522500005030000001C2298
:100F000041000041221C0014083E081408083E0855
:100F10000800503000000808080808006060000061
:100F20002010080402003E41413E0000427F400084
:100F3000625149460041494936001814127F002782
:100F4000454539003E4949320001790503003649DB
:100F50004936000649291E00003636000000563684
:100F6000000008142241141414141441221408001F
:100F7000020151090606090906007E0909097E7F5A
:100F8000494949363E414141227F4141221C7F4926
:100F90004949417F090909013E4149497A7F0808C9
:100FA000087F00417F41002040413F017F0814221B
:100FB000417F404040407F020C027F7F0408107F49
:100FC0003E4141413E7F090909063E4151215E7F74
:100FD00009192946264949493201017F01013F404B
:100FE00040403F1F2040201F3F4030403F631408D7
:100FF000146307087008076151494543007F414168
:101000000002040810200041417F00040201020494
:101010004040404040000102040020545454787F76
:10102000484444383844444420384444487F385481
:10103000545418087E0901020C5252523E7F080493
:10104000047800447D40002040443D007F10284447
:101050000000417F40007C041804787C0804047878
:1010600038444444387C14141408081414187C7C44
:10107000080404084854545420043F4440203C4091
:1010800040207C1C2040201C3C4020403C44281038
:1010900028440C5050503C4464544C4400083641A1
:1010A0000000007F000000413608000808221C08EC
:1010B000081C220808A0608000000000000000005A
:1010C000000000000000FEFE0000000000003E7E68
:1010D00000007E3E00006060FEFE6060FEFE60601C
:1010E00060F09898FEFE989818180C1E1E0C80C090
:1010F000E070381878FC8EC6E6763C1800000000D8
:1011000066763E1E000000000000E0F0381C0E066F
:1011100000000000060E1C38F0E000006060C08097
:10112000F8F880C0606080808080F8F880808080DF
:1011300000000000000000000000808080808080AF
:10114000808080800000000000000000000000009F
:10115000000080C0E07038180000000000000000AF
:10116000000000000000717100000000000000009D
:1011700000000000000006067F7F06067F7F06064F
:10118000181819197F7F19190F06181C0E0703016B
:10119000307878301E3F716367663C3C66660000BD
:1011A00000000000000000000000070F1C38706005
:1011B000000000006070381C0F07000006060301E5
:1011C0001F1F01030606010101011F1F010101018B
:1011D000000066763E1E00000000010101010101D1
:1011E0000101010100003078783000000000181C77
:1011F0000E070301000000000000F8FC0E06060EBA
:10120000FCF80000181CFEFE000000000000181C86
:101210000E0686CEFC7800000606868686CEFC7812
:10122000000080C0E070381CFEFE00007E7E666616
:1012300066E6C6860000F8FC8E86868E1C180000C6
:10124000060686C6E6763E1E000078FCCE8686CE72
:10125000FC78000078FCCE8686CEFCF80000307862
:101260007830000000000000307878300000000086
:10127000000080C0E070381C0E0660606060606036
:1012800060606060060E1C3870E0C0800000181CB2
:101290000E06060686CEFC7800001F3F7060607068
:1012A0003F1F000060607F7F606000000000787C6E
:1012B0006E676361606000006060616161733F1E22
:1012C00000000707060606067F7F000018387060DA
:1012D00060703F1F00001F3F716161733F1E00007F
:1012E00000007F7F0000000000001E3F73616173FB
:1012F0003F1E000000006171391D0F0700000C1E29
:101300001E0C00000000000066763E1E000000007B
:1013100000000103070E1C3870600606060606066C
:10132000060606066070381C0E0703010000000068
:10133000000066670301000078FCCE8686CEFC784C
:101340000000E0F0B89C8E8E9CB8F0E0FEFE868631
:10135000868686CEFC78F8FC0E060606060E1C185D
:10136000FEFE0606060E1C38F0E0FEFE8686868629
:1013700086860606FEFE8686868686860606F8FC35
:101380000E068686868E9C98FEFE808080808080F9
:10139000FEFE00000606FEFE06060000000000003D
:1013A0000606FEFE0606FEFE80C0E070381C0E0635
:1013B000FEFE0000000000000000FEFE1C38F0F001
:1013C000381CFEFEFEFE70E0C0800000FEFEF8FC51
:1013D0000E060606060EFCF80000010101010000E1
:1013E00000007F7F0101010101017F7F7F7F61613B
:1013F000616161733F1E1F3F7060606060703818EC
:101400007F7F60606070381C0F077F7F6161616162
:10141000616160607F7F01010101010100001F3FE8
:101420007060616161717F3F7F7F01010101010196
:101430007F7F000060607F7F606000001838706010
:1014400060703F1F00007F7F0103070E1C38706033
:101450007F7F60606060606060607F7F000001018E
:1014600000007F7F7F7F00000103070E7F7F1F3F0B
:101470007060606060703F1FFEFE8686868686CE46
:10148000FC78F8FC0E060606060EFCF8FEFE8686C4
:10149000868686CEFC7878FCCE868686868E1C185C
:1014A00006060606FEFE06060606FEFE0000000014
:1014B0000000FEFEFEFE000000000000FEFEFEFE3C
:1014C000000000000000FEFE1E3E70E0C0C0E070A4
:1014D0003E1E7EFEC080000080C0FE7E0606060620
:1014E00086C6E6763E1E0000FEFE060606060000E4
:1014F000183870E0C08000000000000006060606F4
:10150000FEFE00006070381C0E0E1C38706000007B
:1015100000000000000000007F7F010101010101C7
:1015200000001F3F7060666E3C387F677F7F01015F
:10153000070F1D39706018387161616161733F1E5A
:10154000000000007F7F000000001F3F70606060AF
:1015500060703F1F070F1C387070381C0F071F3F4B
:1015600070703E3E70703F1F787C0E070303070EBD
:101570007C78000001037F7F03010000787C6E67A8
:1015800063616060606000007F7F60606060000099
:10159000000000000103070E1C180000606060607E
:1015A0007F7F00000000000000000000000060607D
:1015B00060606060606060600000060E1C387060F3
:1015C000000000006060606060E0C080FEFE80C0DF
:1015D000E06060E0C08080C0E0606060606000004B
:1015E00080C0E06060E0C080FEFE80C0E0606060BF
:1015F00060E0C0808080F8FC8E86060E1C18E0F04B
:10160000381818181818F8F8FEFE80C0E06060E07E
:10161000C08000006060E6E60000000000000000FE
:101620006060E6E60000FEFE000080C0E0600000B2
:1016300000000606FEFE00000000E0E060E0C0C022
:10164000E0E0C080E0E080C0E06060E0C08080C09A
:10165000E060606060E0C08000000000000000000A
:101660000000183C7E66666666667F7F7F7F6161EC
:10167000606060703F1F1F3F70606060607038186E
:101680001F3F7060606061617F7F1F3F76666666A6
:101690006666070701017F7F01010000000001036A
:1016A0006766666666763F1F7F7F01010000000067
:1016B0007F7F000060607F7F60600000183870608E
:1016C00060703F1F00007F7F060F1F3970600000B1
:1016D000000060607F7F606000007F7F0000070780
:1016E00000007F7F7F7F0101000000007F7F1F3FA0
:1016F0007060606060703F1FE0E06060606060E0AC
:10170000C08080C0E0606060C080E0E0E0E080C059
:10171000E06060E0C08080C0E06060606060000009
:101720006060FEFE606000000000E0E0000000007D
:101730000000E0E0E0E0000000000000E0E0E0E0A9
:10174000000000000000E0E060E0C080000080C019
:10175000E060E0E0000000000000E0E06060606049
:101760006060E0E0E060000080C0787C0E06000071
:1017700000000000FEFE000000000000060E7C7865
:10178000C0800000808080801838F0E0C08080C079
:10179000E0F03818808080807F7F06060606060706
:1017A000030101030706060607077F7F7F7F01010C
:1017B000000000000101616367666666667E3C1892
:1017C00000001F3F7060607038181F3F70606070CD
:1017D00038187F7F070F1C387070381C0F071F3FA9
:1017E0007070383870703F1F6070391F0F0F1F39CD
:1017F000706001036766666666763F1F6070787C7E
:101800006E6763616060000001031E3E706000004F
:10181000000000007F7F00000000000060703E1E9E
:101820000301000001010101181C0F07030101035E
:10183000070F1C18010101014F4646414253525502
:1018400073525525454C73454C25544873544825CF
:10185000414C73414C25503120503125503220509D
:1018600032255033205033250063002D2D2D783E36
:1018700030783C307C787C663E30663C307C667CE0
:10188000004650002D2D2D00544852525544454CD1
:101890004549443049443149443241494C47454126
:1018A00054524E535731535732535733535734537F
:1018B000573553573653573753573853573953576C
:1018C00041535742535743004F4646004F4E200066
:1018D0002D2D2D004D4F44454C00524554410043A1
:1018E000480050504D0050312020503220205033BD
:1018F00020204D41582046554C4C435943314359C3
:10190000433243594333002D2D2D2D0040800804D0
:10191000201002013B1947194D1954196119671913
:1019200072199C1432465A5A4632465AECEC003C24
:10193000649CC4003C649C0000006453696D706C3E
:101940006520342D434800542D43757400562D54A2
:1019500061696C00456C65766F6E5C44656C7461A2
:1019600000654343504D0048656C692053657475AC
:101970007000536572766F205465737400001124F3
:101980001FBECFEFD0E1DEBFCDBF11E0A0E0B1E0E0
:10199000EEE7F9ED02C005900D92A831B107D9F735
:1019A0001DE0A8E1B1E001C01D92A738B107E1F741
:1019B0000E948D240C94BD6C0C94000099E2890265
:1019C00090011124359527953595279587FD815CE4
:1019D00086FB880F880B80F9992787FD9095281B37
:1019E000390BC9010895982F803201F181548A3151
:1019F00010F48F5F0895892F81568A3120F4892F42
:101A000080958F590895892F80538A3010F4855E10
:101A10000895ECEFF5E080E02491291711F48B5D37
:101A200008953196222311F08F5FF6CF80E008955C
:101A3000E82F8823D9F087FF07C0863E1CF080E698
:101A40008E1B0895E19504C08B3114F4805C0895D9
:101A5000E5321CF48E2F8B5E0895E9323CF4FF27AB
:101A6000E7FDF095E952FA4F8491089580E20895D8
:101A70009DE0899F9001112420513C4FC901089598
:101A8000282F30E0220F331F220F331F27513D4FE5
:101A9000C901089599E0899F9001112427583E4F6C
:101AA000C901089595E0899F9001112427563D4F63
:101AB000C90108959C0140E0683008F041E070E001
:101AC000442371F0CB010897FC0163E0EE0FFF1F88
:101AD0006A95E1F7E80FF91FDF01A75BBC4F0AC069
:101AE000FB01EE0FFF1FEE0FFF1FE60FF71FDF01D9
:101AF000AF5DBC4FFD01808120503C4F37FD0EC0D3
:101B000068E02030360784F0442319F484E090E044
:101B100002C088E090E0A80FB91F8C91992787FD3B
:101B20009095582F442733C0442331F0432FB901F7
:101B30007070660F771F04C0432F4695B90171700E
:101B4000842F90E0FD01E80FF91F8181992787FD1F
:101B500090959B0135952795829FA001839F500DFD
:101B6000929F500D11242081332727FD309580E06E
:101B700092E0861B970B95958795BC01269FC00127
:101B8000279F900D369F900D1124480F591FCA01B1
:101B900069E170E00E94326CCB0108959C016330D2
:101BA00031F1643028F4613051F0623090F43CC07F
:101BB000653039F1653008F1663061F525C049308E
:101BC00029F497FD24C0205032400AC097FF2CC052
:101BD00026C0493041F41816190624F120503E4F12
:101BE000220F331F21C018161906CCF01DC097FF15
:101BF0001BC0309521953F4F17C01816190694F059
:101C00000EC097FF0CC003C0181619065CF020E048
:101C10003CEF0AC067500E945A0D9C0105C020E0AD
:101C200030E002C020E034E0C90108956F927F9255
:101C30008F929F92AF92BF92CF92DF92EF92FF92DC
:101C40000F931F933B017C0100E010E0882499244E
:101C500064E670E080E090E06619770988099909E8
:101C6000A80197010E94FF6B5B016C0182E390E089
:101C7000A0E0B0E0A80EB91ECA1EDB1EC801B70165
:101C80000E94FF6B0E94FF6BBC0188279927A4016B
:101C900093010E94FF6BE4E0969587957795679591
:101CA000EA95D1F7A60EB71EC81ED91EC601B5010A
:101CB00024E630E040E050E00E94456CC9011F91ED
:101CC0000F91FF90EF90DF90CF90BF90AF909F90DB
:101CD0008F907F906F900895FF920F931F939C01B8
:101CE000AB016115710531F1FF2497FF05C0FF2499
:101CF000F394309521953F4F57FF10C000E014E05A
:101D000066277727641B750BC801821B930B0E9403
:101D1000160E9801281B390BC90104C0C901BA016C
:101D20000E94160EFF2011F49C0104C022273327C5
:101D3000281B390BC9011F910F91FF9008951F9324
:101D4000162F0E94380DFC01A12FB0E0248133270B
:101D500027FD3095CD01880F991F02C03595279535
:101D60008A95E2F723703070AE0FBF1F8C919927D0
:101D700087FD9095880F991F880F991F280F391F8D
:101D8000C9011F910895FF920F931F93F82E162FEC
:101D900000E0112391F0812F6F2D0E949F0E21E012
:101DA000853F920754F0282F255F211708F02F5FF9
:101DB0000F5F122F053069F710E0812F1F910F91EF
:101DC000FF900895E9E5F5E0E80FF11DE491F0E0FA
:101DD000EE0FFF1FE158F84F20813181C9010895AE
:101DE000AFE7B7E0EFE8F7E060E0862F806487B9FF
:101DF000369A208931898D919C9111979695879576
:101E0000820F931F8E7F11969C938E9340815181F8
:101E1000240F351F36952795318B208B349BFECFB1
:101E2000349A84B195B1840F951F969587958193C7
:101E300091936F5F12966830C1F60895EFE7F7E06F
:101E400050E0852F806487B920E030E040E0369A8A
:101E5000349BFECF349A84B195B1280F391F4F5F60
:101E60004430A9F736952795219331935F5F583019
:101E700041F70895EFE7F7E020E0822F806487B90B
:101E8000369A349BFECF349A84B195B1880F991F4E
:101E9000819391932F5F283081F708958EE587B95C
:101EA00085E28A95F1F7369A349BFECF349A84B155
:101EB00095B19093520480935104089580914B04FE
:101EC000882341F480915904882321F480915B0494
:101ED000882311F084E105C080916907882321F0EF
:101EE00081508093690708C08091630090E09695C7
:101EF0008795817080936A0780916A070895109290
:101F000068041092610410926004109265041092AB
:101F10006404109263041092620410926704109299
:101F20006604089510926C0410926E0410926D0471
:101F300008951F920F920FB60F9211248F938091E4
:101F400068078F5F809368078F910F900FBE0F9087
:101F50001F9018954091680722B78091680748172D
:101F6000C9F7942F80E030E0282B392BC901089560
:101F70001F920F920FB60F9211242F933F934F93FE
:101F80005F936F937F938F939F93AF93BF93CF9301
:101F9000DF93EF93FF93C0918000D09181008091F7
:101FA0007D008F7D80937D00789480916B07909168
:101FB0006C079E01281B390B36952795C901815A5C
:101FC0009F408F5D9E4220F481E0809366072EC083
:101FD00040916607842F8150883040F5C9018152B5
:101FE00093408757954000F5E42FF0E0EE0FFF1F78
:101FF000EC5AF84F2C5D354080916201992787FD9E
:1020000090950A96BC01269FC001279F900D369F90
:10201000900D11246AE070E00E94326C718360833D
:102020004F5F4093660702C010926607D0936C071B
:10203000C0936B07F89480917D00806280937D004F
:10204000FF91EF91DF91CF91BF91AF919F918F91D0
:102050007F916F915F914F913F912F910F900FBEA4
:102060000F901F901895E8E8FDE001C0319680813F
:102070008535E1F39F0127583D40C9010895EF924E
:10208000FF920F931F93062F7A010E94380DDC01F7
:1020900010E0FC01E00FF11FC7019595879595951C
:1020A00087958083000F111F83E090E0002E02C00F
:1020B000880F991F0A94E2F7809514962C91149733
:1020C000822393E0E922FF2402C0EE0CFF1C0A9554
:1020D000E2F78E0D14968C9382E00E9418541F91A3
:1020E0000F91FF90EF9008951F920F920FB60F92ED
:1020F00011242F933F934F935F936F937F938F930D
:102100009F93AF93BF93EF93FF9380E09CB5992388
:1021100019F48F5F8530D1F780913F04292F9817EC
:1021200008F4282F20933F0420914004892F291779
:1021300008F4822F8093400480916E07882321F059
:10214000C09A10926E0704C0C09881E080936E0719
:10215000A0910701B0910801FD01819191919BBD72
:102160008ABDF0930801E093070112968D919C912E
:102170001397892BC1F48CEE94E09093080180931F
:102180000701809173018295817080936E07F894A6
:1021900087B78F7E87BF78940E949827F89487B777
:1021A000806187BF7894809167078160809367071B
:1021B000FF91EF91BF91AF919F918F917F916F911F
:1021C0005F914F913F912F910F900FBE0F901F90F5
:1021D000189578941F920F920FB60F9211242F9397
:1021E0003F934F935F936F937F938F939F93AF939F
:1021F000BF93CF93DF93EF93FF93F89487B78D7FCF
:1022000087BF809106018F5F80930601815090E027
:1022100083709070892B11F49DE901C09CE981B70E
:10222000980F91BF7894F894CCB5DDB578949091DF
:102230004B04992369F080915A04882329F49093E0
:102240005A0481E080935B04915090934B0421C029
:10225000309159043323B9F020915A04222399F084
:1022600090E080915B04882309F491E090935B04F3
:10227000992309F428E020934B04992351F031501D
:102280003093590406C010925A0410925B041092C5
:10229000450480915B04882381F080914504882364
:1022A00011F490E004C090916D0781E0982790931D
:1022B0006D07992311F41B9A01C01B980E94B36605
:1022C00080916707826080936707F8948CB59DB50D
:1022D00078948C1B9D0B9093440480934304F89452
:1022E00087B7826087BF7894FF91EF91DF91CF919C
:1022F000BF91AF919F918F917F916F915F914F911E
:102300003F912F910F900FBE0F901F9018950F9334
:102310001F938C010E94246582E260E045E755E04E
:1023200024E00E94BC5F80E068E1A8010E94F75FA2
:102330000E948D63809146010E9483631F910F91DB
:10234000089586B380958E77E1F70E947C650895A5
:10235000EF92FF920F931F938C017B010E942465E3
:1023600082E260E047EE55E024E00E94BC5F80E03E
:1023700060E2A8010E94F75F80E068E2A7010E9486
:10238000F75F80E060E341ED55E00E94F75F0E9457
:102390008D63809146010E9483630E94A1111F9169
:1023A0000F91FF90EF900895EF92FF920F931F937C
:1023B000CF93DF93E82E882349F4809147049091CE
:1023C0004804492F441F4427441F5FC1992787FDB4
:1023D000909597FF03C0909581959F4F863109F4A2
:1023E0004FC18A3030F490E00D960E941B66482F52
:1023F00048C18A50282F30E08901000F111F020FB9
:10240000131F0F561C4FD80112968C91882311F47C
:1024100040E03BC1F8018281853010F420E007C024
:10242000D80112968C91883008F437C122E0D80187
:10243000EC91E150E73008F449C052C08091490462
:1024400090914A0440E08C239D23892B89F127C079
:1024500080914704909148048C2B9D2B90934804C5
:1024600080934704F80180810E94D411F82ED8018E
:1024700011968C910E94D411982FF8018281853099
:1024800019F0863049F403C0FF2089F002C0FF2014
:1024900031F4992321F40BC040E0F91649F041E0F2
:1024A0008091490490914A048C2B9D2B0AC040E0F6
:1024B0002091490430914A04CE0180959095822361
:1024C000932390934A0480934904DBC0809146048F
:1024D000882391F5F0E0EE0FFF1FE954F84F29C073
:1024E000E93018F4C0E0D4E029C0E03178F4F0E03D
:1024F000EE0FFF1FDF01AE5CBE4FE25CF84FC08104
:10250000D1818D919C91C81BD90B09C0E43150F445
:10251000F0E0EE0FFF1FE25CF84FC081D181CC0FDD
:10252000DD1F0CC0E43240F4F0E0EE0FFF1FE35675
:10253000F84FC081D18102C0C0E0D0E0222389F5EC
:10254000D80111968C910E94DE0CF8012281223074
:1025500051F0233071F02130C1F440E08C179D0719
:102560000CF08FC08DC040E0C817D9070CF089C0AF
:1025700087C040E0FE01D7FF03C0F095E195FF4F13
:102580008E179F070CF07DC07BC040E0FE01D7FF97
:1025900003C0F095E195FF4FE817F9070CF071C003
:1025A0006FC0D8011196EC91E150E73050F4809162
:1025B00046048823A9F5F0E0EE0FFF1FE954F84F19
:1025C0002BC0E93018F4E0E0F4E02CC0E03180F4F6
:1025D000F0E0EE0FFF1FDF01AE5CBE4FE25CF84F94
:1025E0000190F081E02D8D919C91E81BF90B0AC0C0
:1025F000E43158F4F0E0EE0FFF1FE25CF84F019079
:10260000F081E02DEE0FFF1F0DC0E43248F4F0E042
:10261000EE0FFF1FE356F84F0190F081E02D02C04E
:10262000E0E0F0E0D80112968C91893089F08A3090
:1026300018F4883009F507C08A3079F08B3091F0B2
:102640008C30D1F414C040E0CE17DF07D1F418C0AD
:1026500040E0CE17DF07A1F414C040E0EC17FD07FF
:1026600084F40EC040E0CE17DF075CF409C040E000
:10267000CE17DF0734F004C040E0EC17FD070CF084
:1026800041E01E1414F081E04827842FDF91CF91A0
:102690001F910F91FF90EF900895C1E0D0E002C02C
:1026A000CC0FDD1F2A95E2F78091470490914804F2
:1026B0008C239D23892B09F0C1CECACE362F3795A6
:1026C0003327379520E030934804209347040E9435
:1026D000D41108950F931F93CF93DF93082F109178
:1026E0006F01110F1595812F992787FD909597FF01
:1026F00003C0909581959F4F8597F4F12091850DAA
:102700003091860D8091820D9091830D282B392B6D
:102710008091800D9091810D282B392B8091840D13
:1027200090E0282B392B80917D0D90E0282B392BC0
:10273000232B39F410927D0D17FF03C081E08093A5
:102740007D0D11161CF4812F845202C0812F8C5DE7
:1027500060E00E945E13282F882361F080917D0D38
:10276000882341F490E08091840D882309F491E05E
:102770009093840D20937D0DC091850DD091860D91
:102780002196D093860DC093850DE091820DF09136
:10279000830DE00FF11DF093830DE093820DF8940B
:1027A0008091730D9091740D78942091800D3091EB
:1027B000810D821B930B8436910508F445C12C5979
:1027C0003F4F3093810D2093800DCF01BE010E94B9
:1027D0001E6C062F862F90E09C012C9FC0012D9F20
:1027E000900D3C9F900D1124E81BF90BF093830D85
:1027F000E093820D1092860D1092850D912F915FBE
:102800009F3118F41092840D0EC0812F8C5D893495
:1028100050F4111614F4835301C0892F60E00E9414
:102820005E138093840D80915E0490915F04019605
:1028300090935F0480935E046091600470916104E2
:102840006F5F7F4F7093610460936004002349F0D1
:10285000809164049091650401969093650480933F
:1028600064048091840D882349F0809162049091E2
:1028700063040196909363048093620406954091EB
:10288000660450916704400F511D509367044093B4
:102890006604E0917001F0917101F0936A04E09395
:1028A000690480916F01880F8595992787FD909520
:1028B00097FF03C0909581959F4F882319F410923C
:1028C000680422C0813021F4CF01861B970B18C009
:1028D000803170F480FF07C0CA0174E09695879537
:1028E0007A95E1F709C0809164049091650404C071
:1028F00080916204909163049F01281B390BC901E8
:1029000090936A048093690480916804813051F047
:10291000813018F0823001F510C080916F018F77FF
:10292000D9F017C08091690490916A0418161906AD
:102930009CF0309789F082E00DC0809169049091FD
:102940006A04855C9F4F1CF483E080936804309791
:1029500019F481E0809368042091690430916A043D
:102960008091790D90917A0D8217930709F45EC0DA
:1029700090916804913009F049C080915E0182FF16
:102980002FC0309769F12E31310521F482E0809318
:1029900059040CC02431310519F49093590406C030
:1029A0002A30310519F02430310524F480914E0489
:1029B00080934B0480915E0183FF12C02E3131055C
:1029C00049F02431310531F02A30310519F0243035
:1029D000310534F482E390E09093580480935704D7
:1029E00080915E0181FF22C080916F0187FF04C04A
:1029F000CF01821B930B01C0C9016CE370E00E9400
:102A00001E6C892B99F480914E0404C0923071F4AD
:102A100080914F0480934B0480915E0183FF06C038
:102A200082E390E0909358048093570430937A0D9A
:102A30002093790D80916F0187FF06C0E21BF30B95
:102A4000F0936A04E0936904DF91CF911F910F9195
:102A5000089520916F01220F2595822F992787FDD8
:102A6000909597FF03C0909581959F4F8230910577
:102A70009CF1213F8CF120317CF5273F94F02A30E6
:102A800084F4E0915C01F0E0EE0FFF1FEE0FFF1FFA
:102A900095958795E80FF91FE15DFA4FE491F0E015
:102AA00003C0FC01F595E7953197EE0FFF1FE95440
:102AB000F84F0190F081E02D27FF05C080E094E001
:102AC0008E1B9F0B03C0CF0180509C4F26E0969534
:102AD00087952A95E1F702C080E090E00E946A1392
:102AE000E0915C01F0E0EE0FFF1FEE0FFF1FEE5CC8
:102AF000FA4FE491F0E0EE0FFF1FEB54F84F019016
:102B0000F081E02D80915E0180FF05C080E094E0BF
:102B10008E1B9F0B03C0CF0180509C4F60917E0D98
:102B200070917F0D6F5F7F4F70937F0D60937E0D6F
:102B3000AC01E6E056954795EA95E1F780917B0D6B
:102B400090917C0D480F591F50937C0D40937B0D45
:102B5000F8948091730D9091740D78942091770D75
:102B60003091780D821B930B885E934098F1F89416
:102B70008091730D9091740D78949093780D80935B
:102B8000770D10927C0D10927B0D10927F0D10929C
:102B90007E0D8091EA049091EB0401969093EB04F2
:102BA0008093EA042091E8043091E904F901E059A6
:102BB000FB4FCA010E941E6C60832F5F3F4F309312
:102BC000E9042093E8042837310520F01092E90445
:102BD0001092E8040895EF92FF920F931F93CF9302
:102BE000DF93C5EDD3E071E0E72EF12C288122239D
:102BF00009F189818823F1F090E00197870102C0F3
:102C0000000F111F8A95E2F7822F60E00E945E1389
:102C10002091540730915507882319F0202B312B30
:102C200005C0C80180959095282339233093550716
:102C300020935407229683E0CD3ED807B9F6DF9162
:102C4000CF911F910F91FF90EF900895FF920F93F6
:102C50001F938C01F62E0E94246582E260E04FE60D
:102C600055E024E00E94BC5F80E060E2A8010E9481
:102C7000F75F8CE168E341E655E00E94F75F0E9450
:102C80008D63FF2011F089E102C0809146010E940E
:102C900083638091500480934B040E94A11186B3FA
:102CA00080958E7791F48091490160E00E945E13D7
:102CB000882331F480916001882311F4FF2019F0FA
:102CC000C79AA895ECCFC798FCCF1F910F91FF90A2
:102CD000089580915B0187FD07C0887329F480EA1D
:102CE00095E060E00E942616089580915B0186FDC4
:102CF0000AC00E94CF59883C910528F48DEE95E0DA
:102D000060E00E94261608950F931F9380915B0147
:102D1000867099F18FE895E06DE775E00E94A81143
:102D200000E080915B018670823009F401E01EE0D2
:102D30000AC0113139F0812F8D5060E00E945E137E
:102D4000801729F41F5F1631A0F31631B1F086B356
:102D500080958E7791F406C080916001882351F0B0
:102D6000C79A09C08091490160E00E945E138823E0
:102D7000B9F7F2CFC7981EE0DECF1F910F910895EB
:102D80000F931F93CF93DF9380915B0180FD43C02E
:102D900080915C0190E08170907002E010E0081B6F
:102DA000190BF801EE0FFF1FE85EFE4FC181D281C3
:102DB000609687859089C81BD90B0E943A0F102F07
:102DC000802F0E94E20EC817D9072CF58FEB95E0F3
:102DD00060EB75E00E94A8110E943A0F812F0E94BB
:102DE000E20EC817D90724F486B380958E7749F090
:102DF0000E94A11110C080916001882351F0C79AF0
:102E0000EBCF8091490160E00E945E138823B9F7FF
:102E1000F2CFC798E1CFDF91CF911F910F91089525
:102E2000AF92BF92CF92DF92EF92FF920F93CF9328
:102E3000DF9380915E0184FD6EC08091490160E066
:102E40000E945E13882329F480916001882309F48D
:102E500056C0C79A0E94246580E060E04CE850E0CC
:102E600020E000E00E94A45E0E948D6380914601F4
:102E70000E9483630E94A1110E94F00E0F5F003236
:102E8000D9F7AA24BB2400E0802F0E94E20EC92FAC
:102E9000D0E0AC0EBD1E0F5F0430B1F7F894C090C7
:102EA000730DD090740D789480E991E0C80ED91E0E
:102EB0001CC00E94F00EC0E0D0E000E0802F0E9415
:102EC000E20EE92EFF24CE0DDF1D0F5F0430B1F7B7
:102ED00086B380958E77F9F4CA15DB05E1F411C04D
:102EE000809160018823A9F0C79AF8948091730DAE
:102EF0009091740D7894C816D906D9F60CC0C7986D
:102F0000A9CF8091490160E00E945E13882361F798
:102F1000E7CFC798EACFDF91CF910F91FF90EF9065
:102F2000DF90CF90BF90AF9008951F93CF93DF9322
:102F3000C2E0D4E011E08881882351F060E00E9473
:102F40005E13882329F0812FDF91CF911F9108957F
:102F50001F5F2D96153079F710E0F5CFDF92EF92D5
:102F6000FF920F931F93F82E082F0F7006501091A9
:102F700073011770083008F0ACC0E02EE5940E9491
:102F80009517682F8E2D0E94C30ED82E6E2D0E948D
:102F90009F0EBC01112389F477FF04C0882799276D
:102FA000861B970B95958795959587950196813208
:102FB000910584F080E290E00DC0212F332727FD9A
:102FC00030952150304081E090E002C0880F991F79
:102FD0002A95E2F7482F80915C0190E08170907013
:102FE00022E030E0281B390B8E2D90E0281739079E
:102FF00039F48091720183FF03C044E081E001C095
:1030000080E0552747FD509500FF06C0460F571F2B
:1030100010E023E83FEF05C09B01241B350BA901FD
:10302000F7CF2115310519F4882329F015C09FEF3A
:103030002338390749F0421753071CF0621773070A
:103040004CF02D37310541F0241735072CF02617A9
:10305000370714F4A90111E023583F4F2A3F3105E7
:1030600001F76417750724F44E37510544F40CC07A
:10307000461757074CF42FEF433852072CF4809132
:10308000730186FFAB0111E03EEF4C3053071CF497
:103090004CE05EEF06C081E0453F580714F044EF76
:1030A00051E08D2D6E2D0E943F10112341F08F2D88
:1030B0000E94A2661092450480914E0407C0F6FE5D
:1030C00003C081E08093450480914D0480934B04BC
:1030D000FF248F2D1F910F91FF90EF90DF900895A7
:1030E0004F925F926F927F928F929F92AF92BF9218
:1030F000CF92DF92EF92FF920F931F93CF93DF93C4
:103100003C01AFEAB7E0FC0198E001900D929150CC
:10311000E1F76F3F19F40E949517682F9CEEC92EB6
:1031200092E0D92E0FEFC0E0D0E082E0482E512C83
:10313000E62EFF240894E11CF11CFE01EE0FFF1F98
:10314000EE0FFF1FE751FD4F2081822F837009F49E
:10315000CEC026952695237030E0802F992787FDD5
:1031600090952817390709F4B9C08181807E99F0BC
:10317000828180FD10C0FE01EE0FFF1FEE0FFF1FCA
:10318000E651FD4F808182958695877090E0E81624
:10319000F90609F0A3C0FE01EE0FFF1FEE0FFF1F9F
:1031A000E651FD4F8081880F880F880F85958595A2
:1031B000859561E00E945E13882309F48FC0FE01AB
:1031C000EE0FFF1FEE0FFF1FE751FD4F8081182FFD
:1031D000169516951370E12FF0E0EE0FFF1FE155E5
:1031E000F84F0190F081E02D8370F7FF03C080FD60
:1031F00003C074C081FF72C0012FD6018C91282FAB
:10320000332727FD309580915C0190E081709070AC
:103210004201881A990AA12EBB24A7FCB0948A14F3
:103220009B0499F48091730183FF0FC0CF018050FC
:103230009C4F62E070E00E94326CCB01B9010E94A9
:103240006C0E9C01220F331F05C0CF01B9010E94F3
:103250006C0E9C01FE01EE0FFF1FEE0FFF1FE751EA
:10326000FD4FE0818E2F807F69F06E2F62956F7029
:10327000862F90E00B970CF06C5FC90140E00E9434
:10328000CE0D9C01B901882777FD8095982FFE010E
:10329000EE0FFF1FEE0FFF1FE551FD4F208126951A
:1032A00030E040E050E00E94FF6B24E630E040E078
:1032B00050E00E94676C8A149B0431F48091730182
:1032C00083FF02C020503440E12FFF27E7FDF09537
:1032D000EE0FFF1FE60DF71D31832083219684E05A
:1032E00090E0C80ED91ECE30D10509F026CFDF916F
:1032F000CF911F910F91FF90EF90DF90CF90BF90F3
:10330000AF909F908F907F906F905F904F900895B7
:103310003F924F925F926F927F928F929F92AF9265
:10332000BF92CF92DF92EF92FF920F931F93CF93B2
:10333000DF93382EE9E1CE2EE1E0DE2E7CED872E04
:1033400075E0972E67EBA62E67E0B62E2401EE24DB
:10335000C0E0D0E051E0652E712CFC2E8C2F0E9435
:10336000E20E9C01D6018D919C911197281B390B7F
:10337000121613062CF45C96ED91FC915D9705C036
:10338000D6011E96ED91FC911F97E436F10514F4D9
:10339000E4E6F0E0B901882777FD8095982F4AE0B0
:1033A000660F771F881F991F4A95D1F79F01442701
:1033B00037FD4095542F0E94676C8901BCEF213086
:1033C0003B071CF400E01CEF06C0E4E020303E07A1
:1033D00014F000E014E080915E0180FF0FC0809146
:1033E0005C0190E08170907022E030E0281B390B86
:1033F000C217D30719F4109501951F4FD5010D93EE
:103400001C93C8010F964F9710F5C430D105BCF43A
:10341000E0915C01F0E0EE0FFF1FEE0FFF1FEC0FDD
:10342000FD1FE05DFA4FE4918E2F90E00197F301CC
:1034300002C0EE0FFF1F8A95E2F7CF0107C0C3015C
:103440000C2E02C0880F991F0A94E2F7E82AF3E0D5
:10345000FF1508F456C080914604882309F051C036
:103460002196C3010C2E02C0880F991F0A94E2F71F
:10347000219781602091540730915507822393232F
:10348000892B09F43EC0FE01EE0FFF1FEE5AFE4FDE
:10349000F0808F2D807CA9F1EF2DEF73F0E0EE0F1F
:1034A000FF1FDF01A65BBE4FEA5AF84F60817181B2
:1034B0002D913C91621B730B882777FD8095982F87
:1034C000D601DA962C91332727FD3095432F532FC1
:1034D0000E94FF6B22E330E040E050E00E94676C06
:1034E000F294F694F694E3E0FE22EF2DF0E0E13062
:1034F000F10519F0329729F403C0020F131F01C020
:103500008901F201019311932F01219622E030E00D
:10351000C20ED31EA20EB31EC730D10509F01DCFB7
:103520008CED95E0632D0E94701874E2A72E76E072
:10353000B72E00E010E062E0462E512C612C54E0E2
:10354000752ED401CD90DC90802F632D0E94C30E88
:10355000602F0E949F0EEC0180915C0190E08170D1
:103560009070F201E81BF90BE017F10771F58091FB
:10357000720183FF2AC080915E0180FF03C0D09555
:10358000C195DF4FBE01882777FD8095982F63583E
:103590007F4F8F4F9F4F93012C193D09442737FDD3
:1035A0004095542F0E94FF6B20E038E040E050E04F
:1035B0000E94676CB901CA016030F8E07F07F0E053
:1035C0008F07F0E09F0741F406C080916F048823C5
:1035D00011F0C0E0D0E09E01220F331FD5012D93E2
:1035E0003D935D010F5F1F4FE2E0F0E08E0E9F1EE6
:1035F0000430110509F0A5CF8E2DDF91CF911F91D9
:103600000F91FF90EF90DF90CF90BF90AF909F9081
:103610008F907F906F905F904F903F9008958F9222
:103620009F92AF92BF92CF92DF92EF92FF920F9351
:103630001F93CF93DF930E949517C82EACEDEA2E0F
:10364000A5E0FA2E04E216E0C0E0D0E0F2E08F2E12
:10365000912CAA24A394BC2E80915C0190E08170EF
:1036600090709401281B390B2C173D0751F18C2FBA
:103670006C2D0E94C30ED82EA09246048C2D0E9461
:10368000881910924604F80180819181F701208108
:103690003181820F931F62E070E00E94326CAB01B7
:1036A000FEEF6C307F071CF44CE05EEF06C021E0BB
:1036B000653F720714F044EF51E08D2D6B2D0E9491
:1036C0003F10219682E090E0E80EF91E0E5F1F4F3A
:1036D000C430D10509F0BFCF82E00E941854809118
:1036E0004D0480934B04DF91CF911F910F91FF9078
:1036F000EF90DF90CF90BF90AF909F908F90089504
:103700002F923F924F925F926F927F928F929F92F1
:10371000AF92BF92CF92DF92EF92FF920F931F93DF
:10372000DF93CF93CDB7DEB729970FB6F894DEBFFE
:103730000FBECDBF9F838E83162F862F0E948819C0
:10374000409175014823242F30E08091720690E06B
:103750008227932782239323892B21F080914D0484
:1037600080934B044093720680E094E09093EB05C5
:103770008093EA059093ED058093EC0580914604D3
:10378000882379F180915C0190E08170907022E053
:1037900030E0281B390B1092DD051092DC0521303A
:1037A000310521F01092DF051092DE05223031053F
:1037B00021F01092E1051092E0051092E3051092BD
:1037C000E205E4EFF5E01192119226E0E430F20711
:1037D000D1F74CE256E05A83498324E036E0FA01FF
:1037E00046C064EF75E040E050E0FA01EA5AF84F55
:1037F000DA01A85EBE4F80819181D2962D913C91D5
:10380000D397821B930B880F991FDB018D939D9398
:10381000BD014E5F5F4F4830510539F780915E071B
:1038200090915F07880F991F9093FD058093FC0589
:103830008091600790916107880F991F9093FF0511
:103840008093FE058091620790916307880F991F0E
:10385000909301068093000680916407909165071C
:10386000880F991F9093030680930206B2CF808140
:103870009181D9018D939D939D013496B6E0EC36EC
:10388000FB07A9F780915604882311F00E9429159F
:1038900080E4ECE2F6E0DF011D928A95E9F71092F0
:1038A000530733E3432E37E0532E23EB822E26E0DB
:1038B000922E93E7692E96E0792E1D82212E3324D5
:1038C0000894211C311C8D810E944A0D6C01FC0161
:1038D00080818F7159F489E9482E82E0582E25EBBA
:1038E00033E03C832B8322243324AFC290E0419702
:1038F00094F7D60117969C91892F807FC1F0892F6C
:103900008595859585958595282F332727FD3095B5
:1039100018162CF42216330609F085C208C0882731
:103920009927821B930B2816390609F47CC2F601ED
:10393000838161E00E945E13D2019C918823C1F4CF
:10394000192F1C92F6019181892F8850823008F03E
:103950006AC287818E70843009F465C2993019F08B
:103960001986188640C020E03CEF398728873BC085
:1039700010E0992309F411E081E0D2018C93F60163
:1039800081818150A82FB0E0FD01EE0FFF1FE452AE
:10399000FA4F2081318139872887843168F03D8151
:1039A000831750F4AA0FBB1FAA0FBB1FA45DB94F0A
:1039B0004D915C9159874887D6019C91892F807ED3
:1039C00091F0929596959770892F90E00197E1E09C
:1039D000F0E002C0EE0FFF1F8A95E2F72091530737
:1039E0002E2B20935307D60118968C91882341F0F3
:1039F0000E94DE0CE885F985E80FF91FF987E88752
:103A0000D60116968C911697882329F415968C91D9
:103A1000882309F46AC1F4016081718182819381F4
:103A2000112391F420E031E040E050E00E94676C07
:103A300050954095309521953F4F4F4F5F4FA8844B
:103A4000B984A20EB31E5CC0D60117968C9117974D
:103A50008E70843049F5EC91EF71F0E0EE0FFF1FAE
:103A6000EE5FF94F60817181882777FD8095982FEF
:103A700020E034E640E050E00E94FF6BF4016083F8
:103A8000718382839383D60112962C91222361F055
:103A9000332727FD3095432F532F0E94676CF40185
:103AA0002083318342835383D4016D917D918D9125
:103AB0009C9120E031E040E050E00E94676C50951E
:103AC0004095309521953F4F4F4F5F4FA884B98463
:103AD000A20EB31EA114B10499F0F6018581B7FEC0
:103AE00082958F7090E09C0144E650E0249FC001D5
:103AF000259F900D349F900D1124D3018D939C939D
:103B0000F301208131812115310599F0809156040E
:103B1000882321F02150304031832083D3018D91BF
:103B20009C91892B31F0F4016081718182819381B4
:103B3000C3C0A114B10409F4D8C0D60116968C9163
:103B40001697882309F4C1C080915604882309F48C
:103B500078C012962C91222329F460E070E080E274
:103B600093E018C0822F992787FD909597FF03C097
:103B7000909581959F4F9C01442737FD4095542F88
:103B800060E070E080E293E00E94676CC901DA01B6
:103B9000BC01CD01F60126811A141B040CF52F700F
:103BA000422F50E041155105D9F1A4E6B0E04A9FFB
:103BB00090014B9F300D5A9F300D1124442737FD43
:103BC0004095542F0E94676C79018A01F40180812D
:103BD0009181A281B381E80EF91E0A1F1B1F2BC021
:103BE00022952F70422F50E041155105C9F0A4E6EF
:103BF000B0E04A9F90014B9F300D5A9F300D112429
:103C0000442737FD4095542F0E94676CF401E080F3
:103C1000F18002811381E21AF30A040B150B0BC029
:103C200028853985C901AA2797FDA095BA2FEE24CA
:103C3000F82E092F1A2FD401ED92FD920D931C93AB
:103C40001397F40160817181828193812885398580
:103C500079010027F7FC0095102F1A141B0464F457
:103C600020E031E040E050E00E94676CE216F3068D
:103C70000407150764F01BC020E031E040E050E08D
:103C80000E94676C2E153F054007510784F4488554
:103C90005985CA01AA2797FDA095BA2FBA2FA92F37
:103CA000982F8827F40180839183A283B383D40162
:103CB0006D917D918D919C9120E031E040E050E04C
:103CC0000E94676C3987288710C0E885F985CF0185
:103CD000AA2797FDA095BA2FBA2FA92F982F88272A
:103CE000F40180839183A283B383D60114966C91EF
:103CF0001497662341F08885998511964C910E940E
:103D0000CE0D99878887F601878180FD12C0E181F9
:103D1000EE2379F0E53068F4F0E0EE0FFF1FEE5D82
:103D2000F94F8081918128853985280F391F39877E
:103D3000288748855985BA01882777FD8095982F6F
:103D4000D60112962C91332727FD3095432F532F00
:103D50000E94FF6B9B01AC01F601878186958770FD
:103D600090E08130910571F00081029709F046C022
:103D70000F71E02FF0E0EE0FFF1FEE0FFF1FE85D69
:103D8000F94F37C0D6010C910F7110E0000F111FD1
:103D9000000F111F085D194FCA01B90124E630E078
:103DA00040E050E00E94676CCA01B901F80120812F
:103DB0003181428153810E94FF6BD8016D937D93C5
:103DC0008D939C931397F60100810F7110E0000F03
:103DD000111F000F111F085D194FD8016D917D91C2
:103DE0008D919C9120E034E040E050E00E94676CAF
:103DF000F801208331834283538315C00F71E02F74
:103E0000F0E0EE0FFF1FEE0FFF1FE85DF94F80811E
:103E10009181A281B381820F931FA41FB51F80835C
:103E20009183A283B383FD81FF5FFD830894411CCE
:103E3000511C24E030E0820E931E42E050E0640EFC
:103E4000751EF03209F03FCD46CDA981BA818D9023
:103E50009D90AD90BC90C501B40124E630E040E0F7
:103E600050E00E94676CE981FA81208331834283AC
:103E70005383F101EB53F84FC90120839183D201A1
:103E800013962D913C91149711968C911197FAE00D
:103E90008F02F0011124E851FC4FF987E8878C91DB
:103EA0004AE084023001112488E19CEF680E791EFB
:103EB000CF015E2F492F2E173F071CF4C901522F47
:103EC000492F852F942F8C01061517050CF48301BB
:103ED00081149104A104B10479F19801442737FDBC
:103EE0004095542F181419041A041B0464F4A8856F
:103EF000B985BD01882777FD8095982F621B730BCC
:103F0000840B950B0BC0C301AA2797FDA095BA2F70
:103F1000281B390B4A0B5B0BCA01B901A50194019F
:103F20000E94FF6B20EA36E841E050E00E94676C97
:103F3000C901DA014C015D01C80175E095958795CD
:103F40007A95E1F7800F911F9801232F330F330BE0
:103F50002595820F931F000F012F001F110B801B4F
:103F6000910B6C01EE24D7FCE094FE2C888599859A
:103F700045E0959587954A95E1F7E885F9858E0F97
:103F80009F1FA30135E0559547953A95E1F7B30199
:103F9000660F672F661F770B460D571D9F01232F56
:103FA000330F330B2595820F931FEE0FEF2FEE1F6C
:103FB000FF0B8E1B9F0B8C01222717FD2095322FA4
:103FC000C80CD91CEA1CFB1C0C151D052E053F0551
:103FD00014F468017901CB0195958795959587959E
:103FE000480F591F461B570BCA01AA2797FDA095DA
:103FF000BA2F87017601E816F9060A071B0714F4A1
:104000007C018D01D20112968C91882341F010958C
:104010000095F094E094E11CF11C011D111DEB8151
:10402000FC818081882381F060E00E945E138823F8
:1040300059F0AB81BC8111968C910E94DE0C7C0101
:104040000027F7FC0095102FEE81FF81E20DF31D94
:10405000F182E082E981FA813496FA83E98322E0F1
:1040600030E0220E331E45E050E0440E551E8B8199
:104070009C8102969C838B83EC56F64009F0E5CE3A
:1040800029960FB6F894DEBF0FBECDBFCF91DF915A
:104090001F910F91FF90EF90DF90CF90BF90AF9066
:1040A0009F908F907F906F905F904F903F902F9058
:1040B0000895CF92DF92EF92FF920F931F93DF93B9
:1040C000CF93CDB7DEB7A0970FB6F894DEBF0FBE83
:1040D000CDBF81E0809346040E949517682F8E0122
:1040E0000F5F1F4FC8010E94801B10924604F80109
:1040F000ACE9B2E09E012F5D3F4F808191814CEF92
:10410000883194071CF488E19CEF06C043E0883EA8
:10411000940714F088EE93E011969C938E93329658
:104120001596E217F30749F700E010E0F2E0CF2E12
:10413000D12CE02E80915C0190E08170907096010E
:10414000281B390B2017310791F0FF248F2D6E2D7E
:104150000E949F0E855F914034F48F2D6E2D40E0BC
:1041600050E00E943F10F39445E0F41679F70F5F9A
:104170001F4F04301105E9F682E00E941854809127
:104180004D0480934B04A0960FB6F894DEBF0FBE8B
:10419000CDBFCF91DF911F910F91FF90EF90DF90F6
:1041A000CF9008952F923F924F925F926F927F929D
:1041B0008F929F92AF92BF92CF92DF92EF92FF9237
:1041C0000F931F93DF93CF93CDB7DEB7C556D04083
:1041D0000FB6F894DEBF0FBECDBFF8942091730DDB
:1041E0003091740D789440E080917D0790917E0726
:1041F0002817390709F041E040935604F89480915C
:10420000730D9091740D789490937E0780937D0741
:104210000E949517A2968FAFA297E0910901E81727
:1042200009F474C0EF3F59F4E82FF0E0EE0FFF1FE0
:10423000ED58F84F8FEF9FEF9183808362C02E2F50
:1042400030E08DE090E0289FF001299FF00D389F2D
:10425000F00D1124E450FC4F808182958F704091C5
:104260007207882349F081E090E002C0880F991F0F
:104270002A95E2F7482B10C0F901EE0FFF1FED5809
:10428000F84F1182108281E090E002C0880F991FE0
:104290002A95E2F78095482340937207A2964FAD86
:1042A000A297242F30E08DE090E0289FF001299F15
:1042B000F00D389FF00D1124E450FC4F80818F7079
:1042C00040917207882349F081E090E002C0880F96
:1042D000991F2A95E2F7482B12C0F901EE0FFF1F34
:1042E000ED58F84F8FEF9FEF9183808381E090E04E
:1042F00002C0880F991F2A95E2F7809548234093C2
:104300007207A2965FADA297509309018091720740
:10431000882309F493C0FE01B19680E4DF011D9269
:104320008A95E9F7A3E72A2EA7E03A2E6624772498
:104330004301EE24FF24A396EFAFA397A496FFAF0B
:10434000A497FE01EF59FF4FA696FFAFEEAFA697D9
:104350008091720790E00E2C02C0959587950A9483
:10436000E2F780FF41C0CE0101966E2D0E94801BB6
:10437000CE0101966E2D0E94801BD1018D919C91E2
:104380005C01CC24DD24A3968FADA397A4969FADAA
:10439000A4978C012E010894411C511CF20121911B
:1043A00031912F01442737FD4095542FC601B501A7
:1043B0000E94FF6BD8012D913D914D915C91260F8C
:1043C000371F481F591FF80121933193419351938F
:1043D0008F01A6964EAD5FADA697E417F507F1F6EF
:1043E0006A0C7B1C8C1C9D1C0894E11CF11C82E057
:1043F00090E0280E391E95E0E916F10409F0A8CFE7
:104400008E010F5D1F4F7E010894E11CF11CE1E657
:10441000CE2ED12CCC0EDD1ED8016D917D918D91CB
:104420009D918D01A40193010E94676CF701219376
:1044300031937F010C151D0579F707C0CE01019658
:10444000A2966FADA2970E94801B20E030E0AE01E3
:104450004F5F5F4FF894F901E751F84FDA01A20F6F
:10446000B31F8D919C919183808378942E5F3F4FF1
:104470002032310579F78091480D882381F48091AD
:104480007408882329F08CE698E00E94DC5A07C063
:1044900080917F08882319F080E00E941E5480914B
:1044A0005604882309F41FC240917207442309F47B
:1044B00073C073E7E72E77E0F72E00E010E06DE0C1
:1044C000862E912C51E0A52EB12C66246A94762C70
:1044D000842F90E0002E02C0959587950A94E2F70C
:1044E00080FF4EC0D701CD90DC90A296BFADA297C1
:1044F000B01709F5089DF001099DF00D189DF00D0C
:104500001124E450FC4F60816F708FE892E070E0FE
:104510000E941E6C9B01C6018095909568177907D3
:1045200030F42C0D3D1DF7013183208329C0D701C4
:104530006D927C921DC0089DF001099DF00D189DA3
:10454000F00D1124E450FC4F608162956F708FE88C
:1045500092E070E00E941E6C6C157D0530F4C61A66
:10456000D70AF701D182C0820BC0D7011D921C92DD
:10457000C501002E02C0880F991F0A94E2F7481B5C
:104580000F5F1F4FE2E0F0E0EE0EFF1E0530110559
:1045900009F09ECF4093720780916B048823A1F0AD
:1045A00090916C04892F8F5F80936C04843660F047
:1045B000935690936C0480916D0490916E040196D3
:1045C00090936E0480936D040E94EB158091E70731
:1045D000882319F081508093E70780915D0188233B
:1045E00009F466C080915504823308F461C080915B
:1045F0006C0690916D06A0916E06B0916F060196C3
:10460000A11DB11D80936C0690936D06A0936E065C
:10461000B0936F0600E010E0FF248F2D0E94E20EA1
:1046200046E0969587954A95E1F7080F191FF39490
:10463000F4E0FF1691F780917006909171060817CB
:10464000190761F0109371060093700610926C06C2
:1046500010926D0610926E0610926F06E0906C0636
:10466000F0906D0600916E0610916F0660915D01ED
:1046700070E080E090E020E737E140E050E00E9409
:10468000FF6B6E157F058007910790F48FE390E034
:10469000A0E0B0E0E822F9220A231B239AE0E91601
:1046A000F1040105110521F480914F0480934B041E
:1046B00080916F04882319F0815080936F040E94C9
:1046C00024650E947F650E94AE17182F80915704C1
:1046D00090915804009729F0019790935804809383
:1046E0005704112389F08091600190E024EF31E0BC
:1046F000DC01A29FC001A39F900DB29F900D1124D9
:1047000090935804809357048091490160E00E947F
:104710005E13882339F48091570490915804892BB3
:1047200009F4DFC0C79A80915C0490915D042091E8
:10473000C3073091C407821B930B60E270E00E94B4
:10474000326C70930A08609309086115710591F045
:104750008091700790917107821B930B62E070E06B
:104760000E94326C70930A086093090830935D04CC
:1047700020935C048091C3079091C40790937107C4
:1047800080937007E0911A08F0E0EE0FFF1FE45FDE
:10479000F74F0190F081E02D812F09950E948D63E4
:1047A0000E945E0F882321F0809165008F7E03C0F8
:1047B00080916500806180936500F8948091730D0D
:1047C0009091740D78948F7190708230910521F0E2
:1047D000039709F088C06EC08091530490915404EF
:1047E000892B39F487E00E94E20E90935404809361
:1047F000530480915304909154048C0123E0000FE2
:10480000111F2A95E1F7081B190B87E00E94E20EA1
:10481000800F911F13E0969587951A95E1F77C011B
:1048200000E010E0909354048093530420914801D9
:10483000332727FD3095432F532FC801B7010E941E
:10484000FF6B28E030E040E050E00E94676CB4E08D
:10485000EE0CFF1C001F111FBA95D1F7E20EF31EDC
:10486000041F151F209151043091520440E050E084
:10487000C801B7010E94676C2093550480916F07AF
:10488000805E80936F07882371F580914701281718
:1048900050F5223340F18091500480934B04809175
:1048A0005E0183FF20C082E390E0909358048093E0
:1048B000570419C080915B0186958695869587700F
:1048C00090E0BC01660F771F660F771F680F791F96
:1048D000605C7A4F8CE494E045E050E00E94826C8A
:1048E00002C0C79820CFCB59DF4F0FB6F894DEBF78
:1048F0000FBECDBFCF91DF911F910F91FF90EF9031
:10490000DF90CF90BF90AF909F908F907F906F90EF
:104910005F904F903F902F9008951F93CF93DF9318
:104920009FEF9ABB1BBA81E887BB8EE788BB8EE3FB
:1049300084BB81EC85BB11BA92BB88E082B987EF5A
:1049400083B9109261001092620080E1809364004C
:10495000909365000E944F6380E487B985E886B92B
:1049600087E083BF8CE981BF87B7836087BF8AE018
:104970008EBD82E880938A0080917D008062809362
:104980007D00EDB7FEB7329785E502C08083319791
:104990004DE0E738F40709F0C8F785E090E590931B
:1049A0000D0880930C088FE694E490930F08809391
:1049B0000E0889E10E948363789478940E94E958F4
:1049C0001091450104B603FC0CC00E9410170E9410
:1049D00075160E943A0F0E94C0160E9484160E940B
:1049E00069160E94A1110E949517682F89EE97E021
:1049F0000E94801B809146010E9483638091600128
:104A000090E024EF31E0AC01429FC001439F900D44
:104A1000529F900D112490935804809357048091D5
:104A20004501181719F081E00E9418540E94982738
:104A300087B7806187BF2DE088E190E00FB6F894DA
:104A4000A89581BD0FBE21BD0E94AA0FEC01E09187
:104A50005F01F0E0EE0FFF1FE050FF4F0190F0818B
:104A6000E02D09950E944E0F0E94D2208091670789
:104A7000833019F4A895109267070E94AA0F20911D
:104A80004104309142048C1B9D0B8217930708F45C
:104A9000C9019093420480934104D6CFFC01A091B8
:104AA0001A08B0E0AA0FBB1FA45FB74FED93FC93A9
:104AB0008FEB099580914C0480934B0408956F927D
:104AC0007F928F929F92AF92BF92DF92EF92FF926E
:104AD0000F931F93CF93DF938091730185FD04C0E3
:104AE000A12C14E0B12E03C0A12CB5E0BB2EE091A7
:104AF0007201E595E595E595E595EE0FE85F9091F6
:104B0000740184E69802C0011124A8E5EA2EA2E00F
:104B1000FA2EE80EF91EEA3028F448EC5FEA4E1946
:104B20005F090DC08853904F2E2F30E0829FA00167
:104B3000839F500D929F500D1124405C504EC9EE42
:104B4000D7E0ACEEB4E06E2F70E0660F771F6C0F0D
:104B50007D1F882499248A189B08662477246E1860
:104B60007F0808E512E00E191F0923C0288139814A
:104B7000C501DA2CF92F2A153B051CF4C901D22EE8
:104B8000F92F8D2D9F2F881599050CF4C401805A9B
:104B9000964F9301281B390B420F531F1196FC921D
:104BA000EE92800F911F13969C938E9312972296EC
:104BB0001496C617D707D1F6EE0FAE2FB0E0AA0FA6
:104BC000BB1FA451BB4FED92FC92EF5FAE2FB0E044
:104BD000AA0FBB1FA451BB4F4D935C93EF5FF0E056
:104BE000EE0FFF1FE451FB4F11821082DF91CF9136
:104BF0001F910F91FF90EF90DF90BF90AF909F902B
:104C00008F907F906F900895A0911D08B0911E081D
:104C1000FD018193919313967C936E931297329634
:104C2000F0931E08E0931D080895882329F060E69C
:104C300079E080E699E004C060EB74E080EB94E0FA
:104C40000E94042608951F93182F82700E94152633
:104C5000812F81700E9415261F910895EF92FF9277
:104C60000F931F93CF93DF9380917201877090E031
:104C70008130910519F0029719F404C010E003C0C7
:104C800011E001C012E02091E9073091EA072050BD
:104C90003C4F220F331F8091EB079091EC0780501F
:104CA0009C4F880F991F892F232F37FD20E087FD08
:104CB00080E0022F20310CF00FE0F82E8FE08F15EE
:104CC00014F44FE0F42E2F2D332727FD3095802F3D
:104CD000992787FD909509968217930714F40F2D55
:104CE0000950C02FDD27C7FDD095275F3F4F2C17F8
:104CF0003D071CF437EFF32EF00E8CEE94E090930A
:104D00001E0880931D0880E797E160EB74E00E9425
:104D1000042680E00E94232680E699E060EB74E0A0
:104D20000E94042680E699E060EB74E00E9404266D
:104D3000812F0E9423261195CE01959587959595F3
:104D40008795E82E0E9423261E19802F0E94232675
:104D5000101B8F2D992787FD909595958795959593
:104D60008795082F0E942326101B8F2D0E94232633
:104D7000812F8F190E94232680E00E9415268091A2
:104D80001D0890911E08029790931E0880931D089D
:104D900080E69AEE60E070E00E940426DF91CF91F9
:104DA0001F910F91FF90EF900895882329F080E2E2
:104DB00093E060E476E004C080E496E060E273E0B3
:104DC0000E94042608950F931F93082F10E0802F50
:104DD00081700E94D5261F5F06951830C1F71F917C
:104DE0000F9108950F931F938CEE94E090931E08FB
:104DF00080931D0880911F0891E0892780931F08E8
:104E0000882309F44FC08091E9079091EA07885FF1
:104E10009B4F34E0969587953A95E1F78038910558
:104E200010F08FE790E0182F2091EB073091EC07FE
:104E300037FD0FC0C901409625E0969587952A95C4
:104E4000E1F78034910510F08FE390E0082F0064C3
:104E50000FC080E190E0821B930B05E0969587954B
:104E60000A95E1F78034910510F08FE390E0082F68
:104E7000812F0E94E326802F0E94E3260127802FA6
:104E800090E09C01B4E035952795BA95E1F7A4E050
:104E9000880F991FAA95E1F7822B0E94E32680E1F3
:104EA00097E22BC08091ED079091EE0780509C4FC8
:104EB000F4E096958795FA95E1F78038910510F022
:104EC0008FE790E0082F0068802F0E94E3268EE88D
:104ED0000E94E3268EE8082710E0C801E4E09595DB
:104EE0008795EA95E1F774E0000F111F7A95E1F7D5
:104EF000802B0E94E32680EB96E360EA7FE00E942D
:104F00000426E0911D08F0911E0811921192F09371
:104F10001E08E0931D08EC5EF440E03FF1052CF024
:104F20008FE496E060E00E9426161F910F9108958D
:104F300080917201877090E08430910534F4813063
:104F400091054CF4892B21F00895049749F406C08B
:104F50000E945F2508950E942E2608950E94F22641
:104F600008959C0190911A08E92FF0E0EA5EF74F4E
:104F700080911B088083E92FEF5FE0931A08E530EA
:104F800040F090931A0882E696E060E00E942616B0
:104F9000089580914C0480934B04F0E0EE0FFF1FC6
:104FA000E45FF74F318320838FEBF9010995089572
:104FB000E0911A08EE23D1F0E150E0931A088091B5
:104FC0004C0480934B0410921C08F0E0DF01AA5EB1
:104FD000B74F8C9180931B08EE0FFF1FE45FF74FD4
:104FE0000190F081E02D8EEB0995089585E796E01C
:104FF00060E00E94261608958F929F92AF92BF9212
:10500000CF92DF92EF92FF920F931F93CF93DF9394
:10501000182F7B014A015901C02E84FD04C074E0A1
:10502000D72E05E005C01F70106665E0D62E04E09F
:105030008D2D8066181761F08D2D8064181741F052
:105040009091E607992361F0133611F0133441F47F
:10505000E701219680914C0480934B04802F17C068
:10506000802F8066181761F0802F8064181741F038
:10507000992309F475C0123619F0123409F070C082
:10508000E701219780914C0480934B048D2D90E093
:105090000E941B66882351F0CC27DD27CE19DF093B
:1050A000802F0E94A2668D2D0E94A2668114910419
:1050B00091F481E0A816B10471F4103661F41092F5
:1050C000E607C0E0D0E0E114F10411F4C1E0D0E063
:1050D00080E60E94A2668091090890910A08C81B88
:1050E000D90BAC16BD0644F4812F0E94A2668091B4
:1050F0004E0480934B04E501C815D90544F4812F73
:105100000E94A26680914E0480934B04E401CE1568
:10511000DF05B1F0209739F4812F0E9493668091CA
:105120004C0480934B048C2D83700E941854EC1611
:10513000FD0614F08FEF01C081E080930B0802C0E0
:1051400010920B08CE01DF91CF911F910F91FF902C
:10515000EF90DF90CF90BF90AF909F908F90089589
:10516000E701A4CF0F93772767FD7095552747FD7B
:105170005095332727FD309501E00E94FC270F91C1
:1051800008950F93772767FD7095552747FD509534
:10519000332727FD309502E00E94FC270F910895E8
:1051A000FF920F931F93F82E162F042F80E860E0D4
:1051B000412F50E0202F0E941A621A3010F485E728
:1051C00001C08FE660E04FE2202F0E94015F1A309D
:1051D00010F485E701C08FE64F2D50E04F5F5F4F21
:1051E00060E0202F0E941A621F910F91FF90089596
:1051F000CF92DF92EF92FF920F931F93CF93DF93A3
:10520000F82ED62EEA014115510511F429E75CC0AC
:1052100080911B08882309F03EC08091E80788230D
:1052200009F039C084E6F816F9F0E5E6FE1611F04B
:1052300042E032C0662361F081E090E0861B910974
:10524000880F991FFA01E81BF90B859194911BC0F7
:1052500081E090E0821B9109880F991FFA01E81BF9
:10526000F90B859194910FC070E0822F90E0019727
:105270006817790764F4FB013196EE0FFF1FE40F06
:10528000F51F859194910E944E2580E040C1FA015E
:1052900085919491F8CF40E01092E8078D2D622F10
:1052A0000E94D0282091430D2E508D2D90E0019624
:1052B00066EF7FEF0E94326CCB01880F991F880F39
:1052C000991F860F971F280F8CE698E0622F0E9487
:1052D0007E590115110511F490E00AC080911B0858
:1052E0009E2D8E1508F4982FF801E90FF11D949169
:1052F000F0E6FF16C1F1FF15B8F083E4F81609F4E3
:10530000B6C08F1540F0E1E2FE16E1F1F2E4FF16BF
:1053100009F0DDC081C084E4F81609F44FC0E5E46B
:10532000FE1609F0D4C060C0F4E6FF1609F44BC0C5
:10533000FF1548F082E6F81609F473C0E3E6FE169E
:1053400009F0C5C098C0F1E8FF16C9F08FEBF81658
:1053500029F0E5E6FE1609F0BAC04BC010921C0811
:1053600010921B0813C0992309F4B1C090E08091FA
:10537000E607882309F491E09093E607A8C010920D
:10538000E6070DC08091E607882319F01092E60722
:105390009EC080911B08882311F0209719F40E9469
:1053A000D82795C080914C0480934B0410921C0820
:1053B00010921B0880E68093750D8DC080911C08AB
:1053C000891709F484C0012B09F481C08091E60794
:1053D000882309F07CC080911C08891710F48F5F26
:1053E00015C010921C0870C080911C08882309F415
:1053F0006EC0012B09F46BC08091E607882309F089
:1054000066C080911C08882321F0815080931C087D
:105410005BC090931C0858C080911B088C1509F440
:1054200056C08091E607882309F051C080911B087F
:105430008C1510F080E001C08F5F0115110509F493
:105440006FC0982FE81608F49E2DF801E90FF11DA2
:10545000E491EF3F09F064C0EBCF80911B088E15FB
:1054600008F4E82E0E0D111DF801049128C080915A
:105470001B08882361F18091E607882341F580911C
:105480001B08882311F48C2D01C0815001151105D2
:1054900009F44FC0982FE81608F49E2DF801E90F83
:1054A000F11DE491EF3F09F044C0EBCF80911B0860
:1054B0008E1508F4E82E0E0D111DF80104919017B9
:1054C00008F4092F00931C0880E68093750DCD2BFE
:1054D00011F456E001C057E040911B08442319F431
:1054E0001092E50713C0242F30E08091E507281BB8
:1054F0003109852F90E08217930714F4451B04C0EF
:10550000121613061CF041504093E50781E0DF912D
:10551000CF911F910F91FF90EF90DF90CF90089562
:1055200080931B0890911C080115110509F095CF77
:1055300008C080931B0890911C080115110509F003
:10554000B5CF00E0BFCFCF92EF920F931F93C02E45
:1055500000E010E0EE240E94F8281F910F91EF90D8
:10556000CF9008950F93062F60E040E050E020E0D8
:105570000E94A32A0F9108950F93942F222311F4D0
:1055800000E001C002E043E0949FA00111244757CE
:10559000594F23E00E94B3630F9108950F93942F06
:1055A000222311F400E001C002E043E0949FA00137
:1055B00011244057594F23E00E94B3630F9108957F
:1055C000DC01FB0105C09C9180818D93919341503A
:1055D0004423C9F70895CF92DF92EF92FF920F9381
:1055E0001F93CF93DF93F82E80E060E045E157E012
:1055F00022E00E94BC5F8F2D6AE047E956E02BE075
:1056000008E00E94A32A882309F465C010911B08B2
:10561000115080E8F81699F480E80E94A26689E1AA
:105620008093E707173018F4812F0E940468173021
:1056300011F40E94936780914D0480934B04EE24F3
:1056400028E0F22EC12EDD24C7FCD0944091E5075E
:105650004E0D473071F1C42FD0E0CC16DD0611F0AD
:1056600020E101C022E1AE014F5F5F4F82E16F2D6B
:1056700002E00E9419618091E707882319F4CC1693
:10568000DD0609F000E0AE01440F551F4C0F5D1F11
:10569000440F551F440F551F4054594F88E16F2D3B
:1056A0002CE00E94B36388E0F80EE39487E0E816EC
:1056B00069F688E38F1578F08091E707882321F455
:1056C000173011F422E001C020E086E06F2D4DEA92
:1056D00056E00E94BC5FDF91CF911F910F91FF9028
:1056E000EF90DF90CF9008955F926F927F928F92AC
:1056F0009F92AF92BF92CF92DF92EF92FF920F9361
:105700001F93CF93DF93882E80E060E042EA57E05A
:1057100022E00E94BC5F882D68E047E956E02BE05C
:1057200000EB17E0EE24E3947CE0C72E0E94F828FB
:10573000882309F47FC080911B088150992468E078
:10574000A62E682E772467FC70945EE0552E80911B
:10575000E507890D803109F46DC0C82EDD24BB2416
:10576000E601CC0FDD1FCB52DC4F7601EE0CFF1CA7
:1057700086ED93E0E80EF91E6C147D0461F48091CF
:105780001C088B1541F48091E607882309F447C073
:1057900011E001E002C000E010E0BB2021F091E048
:1057A000B91681F510C086E06A2D4881202F0E942D
:1057B0001064112339F1882D68814AEE26E10E9498
:1057C000C12888831FC088818823C1F0F7014081E8
:1057D000459DA00111244F5C584F8EE16A2D2EE0AB
:1057E0000E94B363112371F0882DF701608140E0BE
:1057F00027E00E94C128F701808304C0002311F034
:1058000010921C08B394F2E0BF1609F0B5CF939440
:1058100088E0A80E97E0991609F099CF0BC0809107
:10582000090890910A08892B19F011E002E0B5CF20
:1058300002E0B2CFDF91CF911F910F91FF90EF90D7
:10584000DF90CF90BF90AF909F908F907F906F90A0
:105850005F9008959F92AF92BF92CF92DF92EF92A6
:10586000FF920F931F93CF93DF93982E80E060E019
:105870004FE157E022E00E94BC5F892D69E047E9D3
:1058800056E02BE00FE217E0EE24E394B0E1CB2EDC
:105890000E94F828882309F470C0AA24A8E0BA2E30
:1058A0004091E5074A0D403109F467C0C42EDD245C
:1058B0004F5F80E06B2D20E00E94146500E07601D0
:1058C000EE0CFF1C85EB93E0E80EF91EE601CC0F11
:1058D000DD1FCA54DC4F80911B0890E001978C15A6
:1058E0009D0559F480911C08801739F48091E607D2
:1058F0008823C1F111E021E002C020E010E0002384
:1059000019F0013021F512C084E26B2DF7014081BE
:105910000E9410641123D9F0892DF70160814AEEAD
:1059200026E10E94C128F701808311C048815527D4
:1059300047FD509580E66B2D0E941A62112339F0C5
:10594000892D688143E82DE70E94C12888830F5F75
:10595000033009F6A394F8E0BF0E87E0A81609F01B
:105960009FCF0BC08091090890910A08892B19F0EC
:1059700011E022E0C4CF22E0C1CFDF91CF911F918F
:105980000F91FF90EF90DF90CF90BF90AF909F90DE
:1059900008958F929F92AF92BF92CF92DF92EF9233
:1059A000FF920F931F93CF93DF93D82E80E060E098
:1059B00048E158E022E00E94BC5F8D2D67E047E996
:1059C00056E02BE008E218E0EE24E3947CE0C72EDA
:1059D0000E94F828882309F465C180911B08815032
:1059E000BB2438E0F32E882E992487FC909427E07E
:1059F000A22E1091E5071B0D1C3009F453C1C12FD5
:105A0000D0E08C169D0611F0CC2409C08091E607E9
:105A1000882319F492E0C92E02C0CC24C39480E0FC
:105A20006F2D45E158E022E000E00E94B363193099
:105A300010F441E301C048E3410F8CE06F2D0E9458
:105A4000B85FFE01EE0FFF1FEC0FFD1FED56FC4F80
:105A5000E08180911C08882311F000E001C00C2D2A
:105A6000EA9DA00111244E54584F87E16F2D27E085
:105A70000E94B363FE01EE0FFF1FEC0FFD1FEB59F9
:105A8000FE4FE25DFD4F8081EE52F240853008F41A
:105A9000F9C090911C08E45DFD4F883008F4FCC00B
:105AA00040819130D1F52C2D39C020E088E46F2D54
:105AB0000E94D464FE01EE0FFF1FEC0FFD1FEE5697
:105AC000FC4F408180911C08823011F020E001C021
:105AD0002C2D552747FD509588E76F2D0E941A629F
