:100000000C94520D0C94730D0C94730D0C947D1183
:100010000C9493110C94730D0C94A9110C94BF11B2
:100020000C94730D0C94730D0C94730D0C94730D50
:100030000C94730D0C941B130C94730D0C94DE1024
:100040000C94730D0C9416120C94730D0C94730D88
:100050000C94730D0C94730D0C94730D0C94730D20
:100060000C94730D0C9469AA0C94F3A80C94730D62
:100070000C94730D0C94730D0C9470710C94FE1011
:100080000C94730D0C94730D0C94730D0C94730DF0
:100090000C94730D0C94730D0C94730D0C94730DE0
:1000A0000C94730D0C94730D0C94730D0C94730DD0
:1000B0000C94730D0C94730D0C94730D0C94730DC0
:1000C0000C94730D0C94730D0C94730D0C94730DB0
:1000D0000C94730D0C94730D0C94730D0C94730DA0
:1000E0000C94730D80400000000000000000000030
:1000F0000000000000F008040484444444444444E4
:10010000444444444444444444C4040488700000C7
:100110000000000000000000000000000404FC04D7
:100120000400E050506000FE00E050506000F0100D
:1001300010E01010E000E050506000FC1000F020D3
:10014000100010E000E0100000000018242424C477
:1001500000E050506000F0201000F400E0505060CB
:10016000003050900000000000000000000080807F
:100170008080808080BF808080BF80808080000001
:1001800030484848484848484888090908F000006D
:10019000000000000000000000000000000001005E
:1001A000000000010101000100000101010081F0D7
:1001B0001819F080010000010121202021202120B8
:1001C000202020242320202020202021E121212064
:1001D0002020212121202120202021202021212117
:1001E0002081C1010000000000F8FEFFFFFF0F07A3
:1001F000070707070737478787879797075FDFDF77
:10020000DFDED88010101010100F0080403F80C03B
:10021000E0E0E060200000000000000000000000BE
:10022000000000007058484C4C474744464243FF8A
:100230000000FF4342464447474C4C48587000007A
:100240000000000000E0B0180C0406878FBFEEFE2F
:10025000F67E3C1C0C0C0C0C0C0C0C0C0C0C0C0C42
:100260000E1F396080000000000107070F0F0F0EFE
:100270001E1E1E1E1E1E0E0E0E0E0E8ECEEEFCF945
:1002800073270F1F3F7EFCF9F1F1F9FC3E1F0F07AA
:10029000030100000000000000000000000000005A
:1002A0000000000000008080000000008080407F8F
:1002B00000007F40808000000000008080C0C040BF
:1002C000C0C0808810101D171111131313131117BC
:1002D0001D10101000000000000000C00000000011
:1002E00000000000000000000000000000040C1CE2
:1002F0001C1C1C1C1E1E1E0E0E0F07070303018074
:10030000C0E0F0F87C3E1F0F07070F1F3F7EFCF890
:10031000F0E0C080000000000C7CF88080F87C0CCD
:1003200000E0F0DCCEC3FFFFC0C000030202020207
:10033000040402020202C14040FC3F7BB1E0AEA8CF
:10034000EAEEA17B7FFC4040C000000000000000FE
:100350000000000080C0E0F0F8FCFFFF0000FEF8A5
:10036000C0000000000000000000000000000000CD
:100370000000000000000000000000000C0E0F0F45
:100380000F07030100000000000000000000000152
:1003900003070F0F0F0E0C000000030F0F030000E8
:1003A0000000000000000F0F00000000000000002F
:1003B0000000000000000F3838FF9580B282FAAAD2
:1003C000FA82F29095FF38380F000000000080108C
:1003D000B074F67777F777F777F777F774F677F7FC
:1003E00077F634B0100000000000000000000000AC
:1003F00000000000000000000000000000000000FD
:100400000000000000000000000000E0000000000C
:10041000E0000000000000000000000000000000FC
:1004200000000000000000000000000000000000CC
:10043000000000000030282C242F3F3607361F0E06
:100440001F3607363F2F242C283000000000000103
:1004500000C1C0414140C1C0414041C0C140C1C1D3
:10046000C1C041C0C1000000007F11110E000E117B
:10047000110E0007180C030E1807000E15151600B4
:100480001F02010E151516000E11111F00000000AD
:100490001F11110E00014E300E01000000000E1160
:1004A000110E007F11110E000E151516001F01010F
:1004B0001E00000000131519000E11110E000F1080
:1004C000101F001F02010E1111000E15151600005D
:1004D000003F302F2F2B323F203B3B3C3F202F2F24
:1004E0003F262B2C3F000052554420454C452054BC
:1004F00048522041494C20525544205448522045EE
:100500004C452041494C2041494C20454C45205404
:100510004852205255442041494C205448522045CD
:100520004C452052554420000102030401020403FB
:100530000103020401030402010402030104030293
:100540000201030402010403020301040203040183
:100550000204010302040301030102040301040273
:100560000302010403020401030401020304020163
:100570000401020304010302040201030402030153
:100580000403010204030201010203040103020443
:10059000040203010403020100000000000001083E
:1005A0001E640101081E6401010F32960A0A1E3200
:1005B00096030102000405060770726573732061DB
:1005C0006E79204B657900414C455254004D45539E
:1005D0005341474500506C656173652072657365D2
:1005E00074207468656D005377697463686573205F
:1005F0006E6F74206F666600416C61726D7320448B
:10060000697361626C656400526573657420746817
:10061000726F74746C65005468726F74746C6520CA
:100620006E6F742069646C6500507265737320612D
:100630006E79206B657920746F20736B697000414F
:100640004C45525400454550524F4D206C6F772019
:100650006D656D005F2D2E2C00564552533A205685
:10066000312E322D67727576696E00444154453AD9
:1006700020323031312D31312D30370054494D4544
:100680003A2031333A30313A3333002053564E3A20
:10069000206672736B792D72313139370020424CEC
:1006A000443A203234340070756C73652074616292
:1006B000206F766572666C6F77006D656E7553742A
:1006C00061636B206F766572666C6F77006D656E27
:1006D00075537461636B20756E646572666C6F77B9
:1006E000002D2D2D494E56004F46464F4E200000FE
:1006F0004B41475344E641E141E13432348A32D43C
:10070000313531362DAC2C434C454152204D4958A2
:100710004553205B4D454E555D0053696D706C65CA
:1007200020342D434820542D437574202020202050
:100730002020562D5461696C202020202020456CFB
:1007400065766F6E5C44656C7461654343504D2003
:1007500020202020202048656C6920536574757026
:100760002020536572766F205465737420200054E6
:10077000454D504C41544553003C3E002D2D2D59C4
:10078000656C4F726752656400416C61726D0074F4
:100790006F00472E4261720063616C004D617856B4
:1007A00000566F6C74737261772020005479706505
:1007B000004120206368616E6E656C0054454C45B5
:1007C0004D455452590000FF0000010202FF010094
:1007D0000102534146455459205357495443484513
:1007E000530000012D2D2D2D202020202020202001
:1007F0002020547261696E65722020202020202004
:10080000547261696E6572205255442020205472E2
:1008100061696E657220454C4520202054726169E3
:100820006E657220544852202020547261696E65B2
:10083000722041494C202020496E7374616E7420EF
:100840005472696D20205472696D73324F666673FD
:10085000657473200046554E4354494F4E205357FC
:100860004954434845530000012D2D2D2D202020B3
:10087000763E6F66732020763C6F667320207C7610
:100880007C3E6F66737C767C3C6F6673414E442081
:100890002020204F522020202020584F522020205E
:1008A0002076313D3D7632207631213D76322076FC
:1008B000313E7632202076313C7632202076313E31
:1008C0003D76322076313C3D76322000535700434E
:1008D0005553544F4D2053574954434845530000F6
:1008E0000243560043555256455300434F5059203A
:1008F0005452494D205B4D454E555D002D2D2D49DF
:100900004E56004C494D4954530000030303030362
:1009100003030303030303030303032F3332002FF3
:100920003134004D495845520044522F4558504FDC
:10093000002B3D2A3D3A3D00536C6F7720205570C7
:1009400000536C6F772020446F776E0044656C61B4
:10095000792055700044656C617920446F776E0092
:1009600041646420202020204D756C7469706C797E
:100970005265706C61636520004D756C7470780011
:100980004F4646005761726E696E6700462E50688A
:1009900061736500537769746368004375727665A7
:1009A00073004F4E204F4646005472696D004F66EB
:1009B000667365740057656967687400536F757274
:1009C00063650045444954204D49582000494E5321
:1009D000455254204D495820005765696768744551
:1009E00078706F2020506861736520537774636856
:1009F000205768656E202043757276652020202080
:100A00002020200044522F4558504F002D2D2D7886
:100A10003E30783C30004E6F2066726565206D690F
:100A200078657221004E6F2066726565206578706A
:100A30006F210050524553455400454449542D3EC2
:100A4000004355525645000900436865636B2020FA
:100A50002020205472696D73002864656661756C8E
:100A6000742900464C494748542050484153455347
:100A70000046616465204F757400466164652049D5
:100A80006E005472696D7300537769746368004E29
:100A9000616D65004544495420464C4947485420FF
:100AA000504841534500060003504F534E45470000
:100AB00053686966742053656C0075536563003430
:100AC000434820364348203843482031304348319A
:100AD00032434831344348313643480050504D206A
:100AE000202053494C565F4153494C565F4253496D
:100AF0004C565F435452414330390050726F746F0B
:100B000000524554413132330042656570204374D0
:100B10007200452E205472696D7300452E204C6979
:100B20006D69747300457870202020457846696EA1
:100B30006546696E6520204D656469756D436F611A
:100B4000727365005472696D20496E6300542D45BF
:100B500078706F00542D5472696D00436F756E7418
:100B600020446F776E436F756E742055702020009F
:100B700054696D657220005472696767657200542C
:100B8000696D6572004E616D6500534554555000A6
:100B900000090100000000000000060244454C4529
:100BA0005445204D4F44454C0066726565004D4FDD
:100BB00044454C53454C005B4D454E555D2020202F
:100BC000205B455849545D005B455849545D00120F
:100BD000081200081C0808081C0800000822004928
:100BE0000022080000000000227F220000000822EE
:100BF00000490022080000082200490022080000E5
:100C000000227F2200000000000822004900220884
:100C10000000081C0808081C08009A53A9513C5001
:100C2000F94F5C4F914E7B4D205B4D454E555D20FD
:100C30005748454E20444F4E452000204D4F5645C5
:100C400020535449434B532F504F545320002020DE
:100C500020534554204D4944504F494E54202020A4
:100C600000205B4D454E555D20544F20535441525A
:100C70005420200043414C4942524154494F4E00B8
:100C800041314132413341344135413641374138B8
:100C900000414E41005472696D2D202B00204D659E
:100CA0006E75204578697420446F776E202020553A
:100CB000705269676874204C656674004449414706
:100CC00000454550524F4D20760056455253494FEE
:100CD0004E0043616C004D756C7469706C6965728F
:100CE00000636831636832636833636834006F6639
:100CF00066202B3D203A3D006D6F64652020202545
:100D00002073726300536C61766500545241494E02
:100D1000455200000202020200444154453A54493F
:100D20004D453A004441544520414E442054494DDC
:100D3000450000024D6F6465005278204368616E83
:100D40006E656C204F7264004E4F20444154412028
:100D5000416C61726D00416C61726D205761726E01
:100D6000696E67004D656D6F7279205761726E69AB
:100D70006E6700446F776E4F464620557020200006
:100D8000537769746368205761726E696E670054A7
:100D900068726F74746C65205761726E696E67005B
:100DA00053706C6173682073637265656E004F46A3
:100DB00046004C69676874206F66662061667465DA
:100DC00072004C69676874207377697463680046C1
:100DD0006C617368206F6E206265657000426565A6
:100DE0007020636F756E74646F776E004D696E75F9
:100DF00074652062656570005468726F74746C6508
:100E000020726576657273650053494E474F534DA6
:100E10005046494C540046696C7465722041444305
:100E200000496E616374697669747920616C6172DE
:100E30006D0042617474657279207761726E696EBB
:100E40006700436F6E7472617374005175696574E5
:100E50004E6F4B65794E6F726D204C6F6E672078C8
:100E60004C6F6E670042656570657200524144497F
:100E70004F205345545550004E4F2044415441009B
:100E800054783D0052783D0041203D007A3D007984
:100E90003D00783D00416363656C00416C743A002D
:100EA000566F6C74733A004675656C3A0052504D3B
:100EB0003A0040430054656D70323A00404300549C
:100EC000656D70313A00416C743A005370643A00B9
:100ED0004864673A0054783D0052783D0041203D17
:100EE00000204D41494E20204750534F5448455211
:100EF000005B4D454E555D20746F207265736574BF
:100F0000004672656520537461636B206D696E20C5
:100F100020202062007431306D732020202020209A
:100F200020202020757300746D61696E206D6178DA
:100F30002020202020206D7300746D7231204A69BA
:100F40007474657220202020757300746D72314CAA
:100F50006174206D696E20202020757300746D729D
:100F6000314C6174206D617820202020757300530E
:100F70005441543200544F54005354250053544BA1
:100F80000054535700544D450053544154004545B7
:100F900050524F4D20466F726D617474696E6700D8
:100FA00042616420454570726F6D20446174610038
:100FB000454550524F4D20436F6E76657274696E91
:100FC0006700454570726F6D204461746120457201
:100FD000397800454570726F6D20446174612076E8
:100FE0003300454550524F4D206F766572666C6FE9
:100FF000770050085000000000000000006F000063
:1010000007000700147F147F14242A7F2A12231359
:1010100008646236495522500005030000001C2276
:1010200041000041221C0014083E081408083E0834
:101030000800503000000808080808006060000040
:101040002010080402003E41413E0000427F400063
:10105000625149460041494936001814127F002761
:10106000454539003E4949320001790503003649BA
:101070004936000649291E00003636000000563663
:1010800000000814224114141414144122140800FE
:10109000020151090606090906007E0909097E7F39
:1010A000494949363E414141227F4141221C7F4905
:1010B0004949417F090909013E4149497A7F0808A8
:1010C000087F00417F41002040413F017F081422FA
:1010D000417F404040407F020C027F7F0408107F28
:1010E0003E4141413E7F090909063E4151215E7F53
:1010F00009192946264949493201017F01013F402A
:1011000040403F1F2040201F3F4030403F631408B5
:10111000146307087008076151494543007F414146
:101120000002040810200041417F00040201020473
:101130004040404040000102040020545454787F55
:10114000484444383844444420384444487F385460
:10115000545418087E0901020C5252523E7F080472
:10116000047800447D40002040443D007F10284426
:101170000000417F40007C041804787C0804047857
:1011800038444444387C14141408081414187C7C23
:10119000080404084854545420043F4440203C4070
:1011A00040207C1C2040201C3C4020403C44281017
:1011B00028440C5050503C4464544C440008364180
:1011C0000000007F000000413608000808221C08CB
:1011D000081C220808A06080000000000000000039
:1011E000000000000000FEFE0000000000003E7E47
:1011F00000007E3E00006060FEFE6060FEFE6060FB
:1012000060F09898FEFE989818180C1E1E0C80C06E
:10121000E070381878FC8EC6E6763C1800000000B6
:1012200066763E1E000000000000E0F0381C0E064E
:1012300000000000060E1C38F0E000006060C08076
:10124000F8F880C0606080808080F8F880808080BE
:10125000000000000000000000008080808080808E
:10126000808080800000000000000000000000007E
:10127000000080C0E070381800000000000000008E
:10128000000000000000717100000000000000007C
:1012900000000000000006067F7F06067F7F06062E
:1012A000181819197F7F19190F06181C0E0703014A
:1012B000307878301E3F716367663C3C666600009C
:1012C00000000000000000000000070F1C387060E4
:1012D000000000006070381C0F07000006060301C4
:1012E0001F1F01030606010101011F1F010101016A
:1012F000000066763E1E00000000010101010101B0
:101300000101010100003078783000000000181C55
:101310000E070301000000000000F8FC0E06060E98
:10132000FCF80000181CFEFE000000000000181C65
:101330000E0686CEFC7800000606868686CEFC78F1
:10134000000080C0E070381CFEFE00007E7E6666F5
:1013500066E6C6860000F8FC8E86868E1C180000A5
:10136000060686C6E6763E1E000078FCCE8686CE51
:10137000FC78000078FCCE8686CEFCF80000307841
:101380007830000000000000307878300000000065
:10139000000080C0E070381C0E0660606060606015
:1013A00060606060060E1C3870E0C0800000181C91
:1013B0000E06060686CEFC7800001F3F7060607047
:1013C0003F1F000060607F7F606000000000787C4D
:1013D0006E676361606000006060616161733F1E01
:1013E00000000707060606067F7F000018387060B9
:1013F00060703F1F00001F3F716161733F1E00005E
:1014000000007F7F0000000000001E3F73616173D9
:101410003F1E000000006171391D0F0700000C1E07
:101420001E0C00000000000066763E1E000000005A
:1014300000000103070E1C3870600606060606064B
:10144000060606066070381C0E0703010000000047
:10145000000066670301000078FCCE8686CEFC782B
:101460000000E0F0B89C8E8E9CB8F0E0FEFE868610
:10147000868686CEFC78F8FC0E060606060E1C183C
:10148000FEFE0606060E1C38F0E0FEFE8686868608
:1014900086860606FEFE8686868686860606F8FC14
:1014A0000E068686868E9C98FEFE808080808080D8
:1014B000FEFE00000606FEFE06060000000000001C
:1014C0000606FEFE0606FEFE80C0E070381C0E0614
:1014D000FEFE0000000000000000FEFE1C38F0F0E0
:1014E000381CFEFEFEFE70E0C0800000FEFEF8FC30
:1014F0000E060606060EFCF80000010101010000C0
:1015000000007F7F0101010101017F7F7F7F616119
:10151000616161733F1E1F3F7060606060703818CA
:101520007F7F60606070381C0F077F7F6161616141
:10153000616160607F7F01010101010100001F3FC7
:101540007060616161717F3F7F7F01010101010175
:101550007F7F000060607F7F6060000018387060EF
:1015600060703F1F00007F7F0103070E1C38706012
:101570007F7F60606060606060607F7F000001016D
:1015800000007F7F7F7F00000103070E7F7F1F3FEA
:101590007060606060703F1FFEFE8686868686CE25
:1015A000FC78F8FC0E060606060EFCF8FEFE8686A3
:1015B000868686CEFC7878FCCE868686868E1C183B
:1015C00006060606FEFE06060606FEFE00000000F3
:1015D0000000FEFEFEFE000000000000FEFEFEFE1B
:1015E000000000000000FEFE1E3E70E0C0C0E07083
:1015F0003E1E7EFEC080000080C0FE7E06060606FF
:1016000086C6E6763E1E0000FEFE060606060000C2
:10161000183870E0C08000000000000006060606D2
:10162000FEFE00006070381C0E0E1C38706000005A
:1016300000000000000000007F7F010101010101A6
:1016400000001F3F7060666E3C387F677F7F01013E
:10165000070F1D39706018387161616161733F1E39
:10166000000000007F7F000000001F3F706060608E
:1016700060703F1F070F1C387070381C0F071F3F2A
:1016800070703E3E70703F1F787C0E070303070E9C
:101690007C78000001037F7F03010000787C6E6787
:1016A00063616060606000007F7F60606060000078
:1016B000000000000103070E1C180000606060605D
:1016C0007F7F00000000000000000000000060605C
:1016D00060606060606060600000060E1C387060D2
:1016E000000000006060606060E0C080FEFE80C0BE
:1016F000E06060E0C08080C0E0606060606000002A
:1017000080C0E06060E0C080FEFE80C0E06060609D
:1017100060E0C0808080F8FC8E86060E1C18E0F029
:10172000381818181818F8F8FEFE80C0E06060E05D
:10173000C08000006060E6E60000000000000000DD
:101740006060E6E60000FEFE000080C0E060000091
:1017500000000606FEFE00000000E0E060E0C0C001
:10176000E0E0C080E0E080C0E06060E0C08080C079
:10177000E060606060E0C0800000000000000000E9
:101780000000183C7E66666666667F7F7F7F6161CB
:10179000606060703F1F1F3F70606060607038184D
:1017A0001F3F7060606061617F7F1F3F7666666685
:1017B0006666070701017F7F010100000000010349
:1017C0006766666666763F1F7F7F01010000000046
:1017D0007F7F000060607F7F60600000183870606D
:1017E00060703F1F00007F7F060F1F397060000090
:1017F000000060607F7F606000007F7F000007075F
:1018000000007F7F7F7F0101000000007F7F1F3F7E
:101810007060606060703F1FE0E06060606060E08A
:10182000C08080C0E0606060C080E0E0E0E080C038
:10183000E06060E0C08080C0E060606060600000E8
:101840006060FEFE606000000000E0E0000000005C
:101850000000E0E0E0E0000000000000E0E0E0E088
:10186000000000000000E0E060E0C080000080C0F8
:10187000E060E0E0000000000000E0E06060606028
:101880006060E0E0E060000080C0787C0E06000050
:1018900000000000FEFE000000000000060E7C7844
:1018A000C0800000808080801838F0E0C08080C058
:1018B000E0F03818808080807F7F060606060607E5
:1018C000030101030706060607077F7F7F7F0101EB
:1018D000000000000101616367666666667E3C1871
:1018E00000001F3F7060607038181F3F70606070AC
:1018F00038187F7F070F1C387070381C0F071F3F88
:101900007070383870703F1F6070391F0F0F1F39AB
:10191000706001036766666666763F1F6070787C5C
:101920006E6763616060000001031E3E706000002E
:10193000000000007F7F00000000000060703E1E7D
:101940000301000001010101181C0F07030101033D
:10195000070F1C18010101014F46464142535255E1
:1019600073525525454C73454C25544873544825AE
:10197000414C73414C25503120503125503220507C
:1019800032255033205033250063002D2D2D783E15
:1019900030783C307C787C663E30663C307C667CBF
:1019A000004650002D2D2D00544852525544454CB0
:1019B0004549443049443149443241494C47454105
:1019C00054524E535731535732535733535734535E
:1019D000573553573653573753573853573953574B
:1019E00041535742535743004F4646004F4E200045
:1019F0002D2D2D004D4F44454C0052455441004182
:101A000044314144320043480050504D0050312091
:101A10002050322020503320204D41582046554C34
:101A20004C435943314359433243594333002D2DDD
:101A30002D2D000102040810204080621A6E1A74D5
:101A40001A7B1A881A8E1A991A9C1432465A5A46C8
:101A500032465AECEC003C649CC4003C649C0000A0
:101A6000006453696D706C6520342D434800542D1B
:101A700043757400562D5461696C00456C65766F32
:101A80006E5C44656C746100654343504D0048656D
:101A90006C6920536574757000536572766F2054BD
:101AA0006573740011241FBECFEFD1E2DEBFCDBF3E
:101AB00000E00CBF13E0A0E0B2E0E8E0F3E601E0F4
:101AC0000BBF02C007900D92A831B107D9F713E1FF
:101AD000A8E1B3E001C01D92A830B107E1F70E9470
:101AE000E6250C9482B10C94000099E289029001E1
:101AF0001124359527953595279587FD815C86FBC3
:101B0000880F880B80F9992787FD9095281B390B42
:101B1000C901089580934A0688E893E170E00E9425
:101B2000F0B067BD0895982F803201F181548A3159
:101B300010F48F5F0895892F81568A3120F4892F00
:101B400080958F590895892F80538A3010F4855ECF
:101B50000895E4E5F6E080E02491291711F48B5D07
:101B600008953196222311F08F5FF6CF80E008951B
:101B7000E82F8823D9F087FF07C0863E1CF080E657
:101B80008E1B0895E19504C08B3114F4805C089598
:101B9000E5321CF48E2F8B5E0895E9323CF4FF276A
:101BA000E7FDF095E15DF94F8491089580E2089595
:101BB0009DE0899F900111242C503A4FC90108954E
:101BC000282F30E0220F331F220F331F23513B4FAA
:101BD000C901089599E0899F9001112423583C4F31
:101BE000C901089595E0899F9001112423563B4F28
:101BF000C90108959C0140E0683008F041E070E0C0
:101C0000442371F0CB010897FC0163E0EE0FFF1F46
:101C10006A95E1F7E80FF91FDF01A35BBA4F0AC02D
:101C2000FB01EE0FFF1FEE0FFF1FE60FF71FDF0197
:101C3000AB5DBA4FFD01808120503C4F37FD0EC097
:101C400068E02030360784F0442319F484E090E003
:101C500002C088E090E0A80FB91F8C91992787FDFA
:101C60009095582F442733C0442331F0432FB901B6
:101C70007070660F771F04C0432F4695B9017170CD
:101C8000842F90E0FD01E80FF91F8181992787FDDE
:101C900090959B0135952795829FA001839F500DBC
:101CA000929F500D11242081332727FD309580E02D
:101CB00092E0861B970B95958795BC01269FC001E6
:101CC000279F900D369F900D1124480F591FCA0170
:101CD00069E170E00E94F0B0CB0108959C0163308F
:101CE00031F1643028F4613051F0623090F43CC03E
:101CF000653039F1653008F1663061F525C049304D
:101D000029F497FD24C0205032400AC097FF2CC010
:101D100026C0493041F41816190624F120503E4FD0
:101D2000220F331F21C018161906CCF01DC097FFD3
:101D30001BC0309521953F4F17C01816190694F017
:101D40000EC097FF0CC003C0181619065CF020E007
:101D50003CEF0AC067500E94FA0D9C0105C020E0CC
:101D600030E002C020E034E0C90108956F927F9214
:101D70008F929F92AF92BF92CF92DF92EF92FF929B
:101D80000F931F933B017C0100E010E0882499240D
:101D900064E670E080E090E06619770988099909A7
:101DA000A80197010E94B1B05B016C0182E390E051
:101DB000A0E0B0E0A80EB91ECA1EDB1EC801B70124
:101DC0000E94B1B00E94B1B0BC0188279927A4013C
:101DD00093010E94B1B0E4E0969587957795679559
:101DE000EA95D1F7A60EB71EC81ED91EC601B501C9
:101DF00024E630E040E050E00E9403B1C9011F91A9
:101E00000F91FF90EF90DF90CF90BF90AF909F9099
:101E10008F907F906F900895FF920F931F939C0176
:101E2000AB016115710531F1FF2497FF05C0FF2457
:101E3000F394309521953F4F57FF10C000E014E018
:101E400066277727641B750BC801821B930B0E94C2
:101E5000B60E9801281B390BC90104C0C901BA018B
:101E60000E94B60EFF2011F49C0104C022273327E4
:101E7000281B390BC9011F910F91FF900895E82F7E
:101E8000873058F480916E09882309F044C0F0E04F
:101E9000EE0FFF1FEB53F64F2BC0893018F4E0E034
:101EA000F4E03BC0803180F4F0E0EE0FFF1FDF0173
:101EB000AA5CBC4FEF5BF64F0190F081E02D8D9155
:101EC0009C91E81BF90B0AC0843158F4F0E0EE0F46
:101ED000FF1FEF5BF64F0190F081E02DEE0FFF1F2B
:101EE0001CC0843248F4F0E0EE0FFF1FE555F64FBA
:101EF0000190F081E02D11C0863268F490E0849763
:101F0000FC01EE0FFF1FE80FF91FEF5BFF4E808112
:101F1000E82FF0E002C0E0E0F0E0CF0108951F9369
:101F2000162F0E94D80DFC01A12FB0E02481332789
:101F300027FD3095CD01880F991F02C03595279553
:101F40008A95E2F723703070AE0FBF1F8C919927EE
:101F500087FD9095880F991F880F991F280F391FAB
:101F6000C9011F910895E1EBF5E0E80FF11DE4913F
:101F7000F0E0EE0FFF1FE358F64F20813181C901D9
:101F80000895ADE7B9E0EDE8F9E060E0862F806400
:101F900080937C0080917A00806480937A008091A5
:101FA0007A0084FFFCCF80917A00806180937A0070
:101FB000208931898D919C91119796958795820FF3
:101FC000931F8E7F8D939D9340815181240F351FE8
:101FD00036952795318B208B8091780090917900F0
:101FE000840F951F96958795819391936F5F6830C5
:101FF00069F60895DF93CF93CDB7DEB760970FB63C
:10200000F894DEBF0FBECDBFFE01319680E1DF0147
:102010001D928A95E9F7ADE7B9E050E0852F80641D
:1020200080937C002081318140E080917A0080643F
:1020300080937A0080917A0084FFFCCF80917A00AF
:10204000806180937A008091780090917900280FC8
:10205000391F4F5F443049F72193319336952795C7
:102060002D933D935F5F5830C9F660960FB6F89494
:10207000DEBF0FBECDBFCF91DF910895EDE7F9E050
:1020800020E0822F806480937C0080917A008064BD
:1020900080937A0080917A0084FFFCCF80917A004F
:1020A000806180937A008091780090917900880F08
:1020B000991F819391932F5F283019F7089580918C
:1020C0007B00877F80937B0083E480937C0085E3A3
:1020D0008A95F1F780917A00806480937A008091EC
:1020E0007A0084FFFCCF80917A00806180937A002F
:1020F000609178007091790080917A00806480937B
:102100007A0080917A0084FFFCCF80917A00806110
:1021100080937A00209178003091790080917A0044
:10212000806480937A0080917A0084FFFCCF809154
:102130007A00806180937A00409178005091790014
:1021400080917A00806480937A0080917A0084FF85
:10215000FCCF80917A00806180937A008091780032
:1021600090917900260F371F240F351F280F391F34
:10217000220F331F309351062093500680917B002D
:10218000886080937B000895109267061092600625
:1021900010925F0610926406109263061092620617
:1021A00010926106109266061092650608951092CC
:1021B0006B0610926D0610926C0608951F920F9296
:1021C0000FB60F9211248F9380916B098F5F8093CC
:1021D0006B098F910F900FBE0F901F901895409133
:1021E0006B092091B20080916B094817C1F7942FB9
:1021F00080E030E0282B392BC90108951F920F92FF
:102200000FB60F920BB60F9211242F933F934F935B
:102210005F936F937F938F939F93AF93BF93CF936E
:10222000DF93EF93FF93C0919600D0919700809138
:1022300071008F7D80937100789480916F099091E7
:1022400070099E01281B390B36952795C901815AC3
:102250009F408F5D9E4220F481E0809369092EC0EB
:1022600040916909842F8150883040F5C90181521D
:1022700093408757954000F5E42FF0E0EE0FFF1FE5
:10228000E95AF64F2C5D354080916603992787FD0A
:1022900090950A96BC01269FC001279F900D369FFE
:1022A000900D11246AE070E00E94F0B071836083A9
:1022B0004F5F4093690902C010926909D093700979
:1022C000C0936F09F89480917100806280937100CF
:1022D000FF91EF91DF91CF91BF91AF919F918F913E
:1022E0007F916F915F914F913F912F910F900BBE16
:1022F0000F900FBE0F901F9018951F920F920FB660
:102300000F9211248F9389B18C7011F08C3029F4C5
:1023100080916C09815080936C098F910F900FBE52
:102320000F901F9018951F920F920FB60F921124C5
:102330008F9389B18C7011F08C3029F480916C09E5
:102340008F5F80936C098F910F900FBE0F901F903D
:1023500018951F920F920FB60F9211248F938CB184
:10236000807611F0803629F480916D098F5F80931B
:102370006D098F910F900FBE0F901F9018951F92AF
:102380000F920FB60F9211248F938CB1807611F0BB
:10239000803629F480916D09815080936D098F9169
:1023A0000F900FBE0F901F901895E9E0F3E101C068
:1023B000319680818535E1F39F0128503341C90171
:1023C0000895EF92FF920F931F93062F7A010E94B8
:1023D000D80DDC0110E0FC01E00FF11FC70195955D
:1023E0008795959587958083000F111F83E090E076
:1023F000002E02C0880F991F0A94E2F78095149668
:102400002C911497822393E0E922FF2402C0EE0C62
:10241000FF1C0A95E2F78E0D14968C9382E00E94C1
:10242000B9601F910F91FF90EF9008951F920F9246
:102430000FB60F920BB60F9211242F933F934F9329
:102440005F936F937F938F939F93AF93BF93EF931C
:10245000FF9380E090918400992319F48F5F853079
:10246000C9F780914306292F981708F4282F209345
:10247000430620914406892F291708F4822F809360
:102480004406E0910702F0910802808191819093C7
:1024900089008093880090938B0080938A008091BC
:1024A0007209882331F080E38093800010927209D2
:1024B00006C080E28093800081E0809372093296AA
:1024C000F0930802E0930702329782819381892B6F
:1024D000E1F48BEE96E090930802809307028091DE
:1024E00077038295817080937209F89480916F00D0
:1024F0008D7F80936F0078940E945A29F894809180
:102500006F00826080936F00789480916A09816087
:1025100080936A09FF91EF91BF91AF919F918F9145
:102520007F916F915F914F913F912F910F900BBED3
:102530000F900FBE0F901F901895DF93CF93CDB7DC
:10254000DEB729970FB6F894DEBF0FBECDBF88E186
:1025500093E0BE016F5F7F4F0E94F47A2B81332797
:1025600027FD3095432F532F7BE0220F331F441F4D
:10257000551F7A95D1F78C81992787FD9095A92FC2
:10258000B92FDC0199278827282B392B4A2B5B2B65
:102590008A81992787FD9095A92FB92FF5E0880F9B
:1025A000991FAA1FBB1FFA95D1F7282B392B4A2B4D
:1025B0005B2B8981992787FD9095A92FB92FB69517
:1025C000A79597958795282B392B4A2B5B2B8E81C6
:1025D000992787FD909580559040AA2797FDA09553
:1025E000BA2F79E1880F991FAA1FBB1F7A95D1F7DF
:1025F000282B392B4A2B5B2B8D81992787FD9095B2
:102600000196AA2797FDA095BA2F65E1880F991F1B
:10261000AA1FBB1F6A95D1F7282B392B4A2B5B2B9E
:10262000B901CA0129960FB6F894DEBF0FBECDBF1F
:10263000CF91DF91089578941F920F920FB60F9269
:102640000BB60F9211242F933F934F935F936F9389
:102650007F938F939F93AF93BF93CF93DF93EF932A
:10266000FF93F894809106028F5F80930602815059
:1026700090E083709070892B11F49DE901C09CE972
:10268000809170008D7F809370008091B300980FCF
:102690009093B3007894F894C0918400D091850011
:1026A000789490914A06992369F08091590688237D
:1026B00029F49093590681E080935A0691509093A3
:1026C0004A0621C0309158063323B9F020915906AB
:1026D000222399F090E080915A06882309F491E032
:1026E00090935A06992309F428E020934A069923E7
:1026F00051F031503093580606C01092590610928E
:102700005A061092490680915A06882389F08091D2
:102710004906882311F490E004C09091710981E08A
:10272000982790937109992319F484B5806402C0A5
:1027300084B58F7B84BD0E9403730E9436A880916C
:102740006A09826080936A09F8948091840090916C
:10275000850078948C1B9D0B9093480680934706C8
:10276000F894809170008260809370007894FF915B
:10277000EF91DF91CF91BF91AF919F918F917F9119
:102780006F915F914F913F912F910F900BBE0F90E2
:102790000FBE0F901F9018950F931F938C010E94EE
:1027A0005C7182E260E04DEC55E024E00E94FB6B3E
:1027B00080E068E1A8010E94366C0E94BB6F8091A6
:1027C0004A030E94B16F1F910F91089580910901F2
:1027D00080958F73D9F70E94C1710895EF92FF928F
:1027E0000F931F938C017B010E945C7182E260E079
:1027F0004FE356E024E00E94FB6B80E060E2A8011A
:102800000E94366C80E068E2A7010E94366C80E08E
:1028100060E349E256E00E94366C0E94BB6F8091F3
:102820004A030E94B16F0E94E6131F910F91FF901F
:10283000EF9008958F929F92AF92BF92CF92DF92C6
:10284000EF92FF920F931F93CF93DF93B82E842EB6
:1028500085E0841708F401C1BB2009F401C1A6E199
:10286000BA1609F4FCC0BAEEBB1609F4F6C08B2DFB
:10287000875F8331A0F42B2D332727FD30951B1460
:102880004CF08DE090E0821B930B0E94607261E03F
:102890006827E6C0C9010D960E946072BAC08B2DF0
:1028A000992787FD909597FF03C0909581959F4F3D
:1028B00016EFC12E1FEFD12EC80ED91EF601EE0F56
:1028C000FF1FEC0DFD1DE759FC4FE25DFD4F8081C0
:1028D000EE52F240882309F4C0C0ACE2EA2EA2E036
:1028E000FA2EEE0EFF1ED701AC90EF01C35DDD4F57
:1028F0009880853008F4C2C0883028F400E010E0E9
:1029000040E050E016C08A2D81500E943F0F8C019C
:10291000888181500E943F0F0BC08881482F552726
:1029200047FD509543585F4F04C088810E94750D44
:10293000AC01E601CC0FDD1FCC0DDD1DC956DA4F11
:102940002881283088F4253008F049C0223031F140
:10295000233020F4213009F080C01CC0233011F155
:10296000243009F07AC029C02A3009F462C02B3023
:1029700038F4283009F453C0293009F06EC054C02F
:102980002C3009F460C02C3008F458C02D3009F008
:1029900064C05EC01B140CF44CC05AC01B140CF471
:1029A0004DC051C020E0C80117FF03C0909581952C
:1029B0009F4F4817590764F40AC020E0C80117FF69
:1029C00003C0909581959F4F841795070CF421E0E3
:1029D0001B1414F4622F44C061E0622741C0182D1B
:1029E0001F5F8A2D60E0412F0E941A14082F892D45
:1029F00060E0412F0E941A149881953031F4002331
:102A000061F1682F882361F12AC0963021F40023F8
:102A100031F5682F25C060E0081709F521C060E096
:102A200004171507E9F41BC060E004171507B9F493
:102A300017C060E0401751079CF411C060E0041714
:102A4000150774F40CC060E0041715074CF007C0BC
:102A500060E04017510724F002C060E001C061E06F
:102A6000862FDF91CF911F910F91FF90EF90DF9014
:102A7000CF90BF90AF909F908F9008958A2D8150F6
:102A80000E943F0F8C01F701808185320CF045CF09
:102A90004CCF0F931F93CF93DF93082F10917303A5
:102AA000110F1595812F992787FD909597FF03C0EA
:102AB000909581959F4F85970CF43FC02091061308
:102AC000309107138091031390910413282B392B15
:102AD0008091011390910213282B392B80910513BB
:102AE00090E0282B392B8091FE1290E0282B392B77
:102AF000232B39F41092FE1217FF03C081E080935C
:102B0000FE1211161CF4812F845202C0812F8C5D9D
:102B100060E040E00E941A14282F882361F0809121
:102B2000FE12882341F490E080910513882309F474
:102B300091E0909305132093FE12C0910613D0915B
:102B400007132196D0930713C0930613E091031344
:102B5000F0910413E00FF11DF0930413E0930313BD
:102B6000F89480910E1090910F1078942091011399
:102B700030910213821B930B8436910508F473C1C4
:102B80002C593F4F3093021320930113CF01BE0104
:102B90000E94DCB0062F862F90E09C012C9FC00184
:102BA0002D9F900D3C9F900D1124E81BF90BF09385
:102BB0000413E09303131092071310920613912F3E
:102BC000915F9F3118F4109205130FC0812F8C5D17
:102BD000893458F4111614F4835301C0892F60E02E
:102BE00040E00E941A148093051380915D06909135
:102BF0005E06019690935E0680935D06E0915F0607
:102C0000F09160063196F0936006E0935F06002332
:102C100049F0809163069091640601969093640652
:102C20008093630680910513882349F080916106A3
:102C300090916206019690936206809361060695D4
:102C40004091650650916606400F511D50936606EF
:102C500040936506609174037091750370936906E3
:102C60006093680680917303880F8595992787FD87
:102C7000909597FF03C0909581959F4F882319F4F5
:102C80001092670622C0813021F4CB018E1B9F0B6E
:102C900018C0803170F480FF07C0CA0104E0969527
:102CA00087950A95E1F709C08091630690916406C3
:102CB00004C080916106909162069B01281B390B2C
:102CC000C9019093690680936806809167068130F8
:102CD00051F0813018F0823011F511C080917303EA
:102CE0008F77E9F019C080916806909169061816EF
:102CF0001906ACF06115710591F082E00EC080916B
:102D0000680690916906855C9F4F1CF483E0809370
:102D100067066115710519F481E0809367062091BB
:102D20006806309169068091FA129091FB12821721
:102D3000930709F482C080916706813009F06CC066
:102D40008091620382FF4BC0672B09F448C02E318B
:102D5000310541F482E08093580680914D0662E38C
:102D60000E948A0D8091680690916906449741F40B
:102D700081E08093580680914D0662E30E948A0D9F
:102D800080916806909169060A9729F480914D0612
:102D900062E30E948A0D809168069091690604970B
:102DA0002CF480914D0662E30E948A0D80916203AB
:102DB00083FF15C080916806909169068E31910558
:102DC00041F08431910529F08A30910511F0049782
:102DD00034F482E390E090935706809356068091F6
:102DE000620381FF2AC080917303209168063091AD
:102DF000690687FF07C08091740390917503821B59
:102E0000930B01C0C9016CE370E00E94DCB0892B18
:102E1000A1F480914D0604C0823079F480914E0671
:102E200062E30E948A0D8091620383FF06C082E301
:102E300090E0909357068093560620916806309153
:102E400069063093FB122093FA128091730387FF77
:102E50000AC08091740390917503821B930B909329
:102E6000690680936806DF91CF911F910F910895B5
:102E700020917303220F2595822F992787FD909526
:102E800097FF03C0909581959F4F823091059CF1EB
:102E9000213F8CF120317CF5273F94F02A3084F4D7
:102EA000E0916003F0E0EE0FFF1FEE0FFF1F95951E
:102EB0008795E80FF91FE957FA4FE491F0E003C056
:102EC000FC01F595E7953197EE0FFF1FEB53F64F99
:102ED0000190F081E02D27FF05C080E094E08E1B7B
:102EE0009F0B03C0CF0180509C4F36E0969587958D
:102EF0003A95E1F702C080E090E00E944915E09128
:102F00006003F0E0EE0FFF1FEE0FFF1FE657FA4FD2
:102F1000E491F0E0EE0FFF1FED53F64F0190F081CA
:102F2000E02D8091620380FF05C080E094E08E1B5D
:102F30009F0B03C0CF0180509C4F6091FF12709196
:102F400000136F5F7F4F709300136093FF12AC010B
:102F500086E0569547958A95E1F78091FC1290910D
:102F6000FD12480F591F5093FD124093FC12F89424
:102F700080910E1090910F1078942091F81230915A
:102F8000F912821B930B885E934098F1F89480911C
:102F90000E1090910F1078949093F9128093F8127C
:102FA0001092FD121092FC12109200131092FF1258
:102FB0008091E9069091EA0601969093EA06809343
:102FC000E9062091E7063091E806F901E159F94F49
:102FD000CA010E94DCB060832F5F3F4F3093E80648
:102FE0002093E7062837310520F01092E80610926A
:102FF000E7060895EF92FF920F931F93CF93DF930D
:10300000C9EDD5E0E1E0EE2EF12C2881222311F16B
:1030100089818823F9F090E00197870102C0000FB1
:10302000111F8A95E2F7822F60E040E00E941A1497
:103030002091570930915809882319F0202B312B02
:1030400005C0C801809590952823392330935809ED
:1030500020935709229685E0C13FD807B1F6DF914A
:10306000CF911F910F91FF90EF900895FF920F93D2
:103070001F938C01F62E0E945C7182E260E047ECA7
:1030800055E024E00E94FB6B80E060E2A8010E9412
:10309000366C8CE168E349EB55E00E94366C0E9487
:1030A000BB6FFF2011F089E102C080914A030E94AA
:1030B000B16F80914F0662E30E948A0D0E94E61371
:1030C0008091090180958F7399F480914D0360E0A0
:1030D00040E00E941A14882331F48091640388230D
:1030E00011F4FF2019F0409AA895EACF4098FCCF40
:1030F0001F910F91FF90089580915F0387FD07C096
:10310000887329F488EF95E060E00E9436180895EE
:1031100080915F0386FD0AC00E94A266883C9105EB
:1031200028F485E496E060E00E94361808950F9335
:103130001F9380915F038670B1F187EE95E065ED96
:1031400075E00E94EE1300E080915F03867082308C
:1031500009F401E01EE00BC0113141F0812F8D50C8
:1031600060E040E00E941A14801729F41F5F1631B6
:1031700098F31631C1F08091090180958F7399F40D
:1031800006C080916403882359F0409A0AC0809158
:103190004D0360E040E00E941A148823B1F7F1CF9C
:1031A00040981EE0DBCF1F910F9108950F931F935E
:1031B000CF93DF9380915F0380FD45C080916003D2
:1031C00090E08170907002E010E0081B190BF8018C
:1031D000EE0FFF1FE45EFC4FC181D28160968785B0
:1031E0009089C81BD90B0E943E10102F802F0E947F
:1031F000B30FC817D9073CF587E196E068E076E0A1
:103200000E94EE130E943E10812F0E94B30FC81738
:10321000D9072CF48091090180958F7349F00E94A1
:10322000E61311C080916403882359F0409AEACFD5
:1032300080914D0360E040E00E941A148823B1F7AA
:10324000F1CF4098DFCFDF91CF911F910F9108957B
:10325000AF92BF92CF92DF92EF92FF920F93CF93F4
:10326000DF938091620384FD71C080914D0360E023
:1032700040E00E941A14882329F480916403882373
:1032800009F457C0409A0E945C7180E060E044EE0F
:1032900050E020E000E00E94E36A0E94BB6F809152
:1032A0004A030E94B16F0E94E6130E94C10F0F5F94
:1032B0000032D9F7AA24BB2400E0802F0E94B30F6C
:1032C000C92FD0E0AC0EBD1E0F5F0430B1F7F894EB
:1032D000C0900E10D0900F10789480E991E0C80E45
:1032E000D91E1DC00E94C10FC0E0D0E000E0802FB9
:1032F0000E94B30FE92EFF24CE0DDF1D0F5F0430B7
:10330000B1F78091090180958F7301F5CA15DB052E
:10331000E9F411C0809164038823B1F0409AF894D5
:1033200080910E1090910F107894C816D906D1F69E
:103330000DC04098A8CF80914D0360E040E00E940E
:103340001A14882359F7E6CF4098E9CFDF91CF913F
:103350000F91FF90EF90DF90CF90BF90AF900895C6
:103360001F93CF93DF93C6E0D6E011E088818823D6
:1033700059F060E040E00E941A14882329F0812F60
:10338000DF91CF911F9108951F5F2D96153071F732
:1033900010E0F5CFEF92FF920F931F93E82E162FB8
:1033A0006F3F19F40E94B019182F00E01123D9F0D3
:1033B000F12E812F6E2D0E948F0FAC0181E0453FD1
:1033C000580794F0642F655F262F30E0812F9927EE
:1033D00087FD9095281739070CF06F5F0F5F053058
:1033E00011F0162FE3CFFF248F2D1F910F91FF9027
:1033F000EF900895DF92EF92FF920F931F93CF9378
:10340000DF93F82E082F0F70065010917703177076
:10341000083008F0BEC0E02EE5948E2D6FEF0E94BC
:10342000CA19D82E6E2D0E948F0FBC01112389F46A
:1034300077FF04C088279927861B970B959587955A
:103440009595879501968132910584F080E290E010
:103450000DC0212F332727FD30952150304081E0CA
:1034600090E002C0880F991F2A95E2F7482F8091BB
:10347000600390E08170907022E030E0281B390BEF
:103480008E2D90E02817390739F48091760386FF56
:1034900003C044E021E001C020E0552747FD5095DE
:1034A00000FF07C0EA01C60FD71F10E083E89FEFB7
:1034B00004C0EB01C41BD50BF8CF009719F42223ED
:1034C00029F015C03FEF8338930749F0C817D90793
:1034D0001CF0681779074CF08D37910541F08C1777
:1034E0009D072CF08617970714F4EC0111E0835820
:1034F0009F4F8A3F910509F76C177D0724F4CE375B
:10350000D10544F40CC0C617D7074CF48FEFC3386D
:10351000D8072CF48091770386FFEB0111E03EEF92
:10352000CC30D3071CF4CCE0DEEF06C081E0C53F11
:10353000D80714F0C4EFD1E08D2D6E2DAE010E949E
:10354000E111CE37D1051CF0CDE7D0E006C03FEF4A
:10355000C338D30714F4C3E8DFEFCE0164E070E0B2
:103560000E94F0B0EB01EC96112341F08F2D0E94E8
:10357000E1721092490680914D0607C0F6FE03C025
:1035800081E08093490680914B066C2F0E948A0D42
:10359000FF248F2DDF91CF911F910F91FF90EF901E
:1035A000DF9008954F925F926F927F928F929F92D9
:1035B000BF92CF92DF92EF92FF920F931F93CF9320
:1035C000DF933C01ADEBB9E0FC0188E001900D9286
:1035D0008150E1F70E94B01990EFC92E94E0D92EE6
:1035E000BB24BA94C0E0D0E002E0402E512CE82E7B
:1035F000FF240894E11CF11CFE01EE0FFF1FEE0FEB
:10360000FF1FE351FB4F2081822F837009F4CEC04E
:1036100026952695237030E08B2D992787FD909570
:103620002817390709F4B9C08181807E99F0828119
:1036300080FD10C0FE01EE0FFF1FEE0FFF1FE251D5
:10364000FB4F808182958695877090E0E816F90699
:1036500009F0A3C0FE01EE0FFF1FEE0FFF1FE251A6
:10366000FB4F8081880F880F880F859585958595FC
:1036700061E040E00E941A14882309F48EC0FE0124
:10368000EE0FFF1FEE0FFF1FE351FB4F8081B82E9F
:10369000B694B69493E0B9220B2D112707FD10952F
:1036A000F801EE0FFF1FE354F64F0190F081E02D7B
:1036B0008370F7FF03C080FD03C06FC081FF6DC042
:1036C000D6018C91282F332727FD309580916003F8
:1036D00090E0817090704201881A990A80169106D4
:1036E00099F48091760387FF0FC0CF0180509C4FE3
:1036F00062E070E00E94F0B0CB01B9010E940C0FB3
:103700009C01220F331F05C0CF01B9010E940C0F8D
:103710009C01FE01EE0FFF1FEE0FFF1FE351FB4F59
:10372000E0818E2F807F69F06E2F62956F70862FFB
:1037300090E00B970CF06C5FC90140E00E946E0EA8
:103740009C01B901882777FD8095982FFE01EE0F27
:10375000FF1FEE0FFF1FE151FB4F2081269530E048
:1037600040E050E00E94B1B024E630E040E050E09C
:103770000E9425B18016910631F48091760387FF6F
:1037800002C020503440EB2DFF27E7FDF095EE0FEF
:10379000FF1FE60DF71D31832083219684E090E022
:1037A000C80ED91ECE30D10509F026CFDF91CF91BA
:1037B0001F910F91FF90EF90DF90CF90BF909F905F
:1037C0008F907F906F905F904F9008953F924F92AF
:1037D0005F926F927F928F929F92AF92BF92CF92A1
:1037E000DF92EF92FF920F931F93CF93DF9330906E
:1037F0006E096DE1C62E63E0D62E5BED852E57E097
:10380000952E45ECA42E49E0B42E2401EE2400E0D0
:1038100010E031E0632E712CF02E802F0E94B30F48
:103820009C01D6018D919C911197281B390B121682
:1038300013062CF45C96ED91FC915D9705C0D601C2
:103840001E96ED91FC911F97E436F10514F4E4E621
:10385000F0E0B901882777FD8095982F2AE0660F60
:10386000771F881F991F2A95D1F79F01442737FD9D
:103870004095542F0E9425B1E901BCEF21303B0750
:103880001CF4C0E0DCEF06C0E4E020303E0714F09A
:10389000C0E0D4E0D501CD93DC93CE010F964F97D5
:1038A00010F504301105BCF4E0916003F0E0EE0F78
:1038B000FF1FEE0FFF1FE00FF11FE857FA4FE491D3
:1038C0008E2F90E00197F30102C0EE0FFF1F8A9543
:1038D000E2F7CF0107C0C301002E02C0880F991F75
:1038E0000A94E2F7E82AF3E0FF1508F456C0332003
:1038F00009F053C00F5F1F4FC301002E02C0880F95
:10390000991F0A94E2F701501040816020915709F5
:103910003091580982239323892B09F43EC0F80182
:10392000EE0FFF1FEA5AFC4FF0808F2D807CA9F12B
:10393000EF2DEF73F0E0EE0FFF1FDF01A25BBC4F36
:10394000E75AF64F608171812D913C91621B730B98
:10395000882777FD8095982FD601DA962C9133270A
:1039600027FD3095432F532F0E94B1B022E330E062
:1039700040E050E00E9425B1F294F694F69463E0A2
:10398000F622EF2DF0E0E130F10519F0329729F43D
:1039900003C0C20FD31F01C0E901F201C193D1934B
:1039A0002F010F5F1F4F22E030E0C20ED31EA20E88
:1039B000B31E0730110509F02FCF8BED97E00E9461
:1039C000D21A57E2A52E58E0B52E00E010E042E0F2
:1039D000442E512C612C34E0732ED401CD91DC9116
:1039E000802F6FEF0E94CA19602F0E948F0F6C0109
:1039F0008091600390E081709070F201E81BF90BF8
:103A0000E017F107B9F58091760386FF33C0809106
:103A100062039601442737FD4095542F80FF0CC068
:103A2000C050DC4FBE01882777FD8095982F2D5719
:103A30003040404050400BC0B3016C1B7D0B8827C9
:103A400077FD8095982F23583F4F4F4F5F4F0E942F
:103A5000B1B020E038E040E050E00E9425B1C9015B
:103A6000DA018030F8E09F07F0E0AF07F0E0BF0731
:103A700041F406C080916E06882311F0CC24DD2429
:103A8000C601880F991FD5018D939D935D010F5F2E
:103A90001F4FE2E0F0E08E0E9F1E0430110509F08A
:103AA0009CCF8E2DDF91CF911F910F91FF90EF90C2
:103AB000DF90CF90BF90AF909F908F907F906F904E
:103AC0005F904F903F9008959F92AF92BF92CF9298
:103AD000DF92EF92FF920F931F93CF93DF93EBED63
:103AE000EE2EE7E0FE2E07E218E0C0E0D0E072E044
:103AF000A72EB12C99249394CC2E8091600390E052
:103B0000817090709501281B390B2C173D0749F1E6
:103B10008C2F6FEF0E94CA19D82E90926E090E94C6
:103B2000E61B10926E09F80180819181F7012081D6
:103B30003181820F931F62E070E00E94F0B0AB0110
:103B4000FEEF6C307F071CF44CE05EEF06C021E016
:103B5000653F720714F044EF51E08D2D6C2D0E94EB
:103B6000E111219682E090E0E80EF91E0E5F1F4FF2
:103B7000C430D10509F682E00E94B96080914C06FC
:103B800062E30E948A0DDF91CF911F910F91FF9008
:103B9000EF90DF90CF90BF90AF909F9008952F92BD
:103BA0003F924F925F926F927F928F929F92AF92CD
:103BB000BF92CF92DF92EF92FF920F931F93DF930A
:103BC000CF93CDB7DEB729970FB6F894DEBF0FBEFF
:103BD000CDBF9F838E830E94B019082F0E94E61BE1
:103BE000109179031823212F30E08091750890E01F
:103BF0008227932782239323892B29F080914C06D7
:103C000062E30E948A0D1093750880E094E090931F
:103C1000EA078093E9079093EC078093EB07809184
:103C20006E09882379F18091600390E08170907033
:103C300022E030E0281B390B1092DC071092DB07E2
:103C40002130310521F01092DE071092DD0722307D
:103C5000310521F01092E0071092DF071092E20781
:103C60001092E107E3EFF7E01192119228E0E330C0
:103C7000F207D1F74FE258E05A83498323E038E056
:103C8000FA0146C063EF77E040E050E0FA01E75AFE
:103C9000F64FDA01A45EBC4F80819181D2962D91BE
:103CA0003C91D397821B930B880F991FDB018D9357
:103CB0009D93BD014E5F5F4F4830510539F78091AC
:103CC000610990916209880F991F9093FC07809376
:103CD000FB078091630990916409880F991F909365
:103CE000FE078093FD078091650990916609880F12
:103CF000991F909300088093FF0780916709909126
:103D00006809880F991F9093020880930108B2CF29
:103D100080819181D9018D939D939D013496B8E066
:103D2000E737FB07A9F780915506882311F00E9419
:103D3000381780E4EFE2F8E0DF011D928A95E9F799
:103D40001092560966E3462E69E0562E56EB852EF4
:103D500058E0952E46E7642E48E0742E1D82202EF2
:103D600033240894211C311C8D810E94EA0D6C01C2
:103D7000FC0180818F7159F43DE9432E34E0532ECC
:103D800029EB35E03C832B832224332494C290E03A
:103D9000419794F7D60117969C91892F807FC1F0A7
:103DA000892F8595859585958595282F332727FD1E
:103DB000309518162CF42216330609F06AC208C092
:103DC00088279927821B930B2816390609F461C2AC
:103DD000F601838161E040E00E941A14D2019C91B7
:103DE0008823C1F4192F1C92F6019181892F8850E4
:103DF000823008F04EC287818E70843009F449C247
:103E0000993019F01986188640C020E03CEF3987B8
:103E100028873BC010E0992309F411E081E0D2012A
:103E20008C93F60181818150A82FB0E0FD01EE0F47
:103E3000FF1FE552F84F208131813987288784316F
:103E400068F03D81831750F4AA0FBB1FAA0FBB1F58
:103E5000A15DB74F4D915C9159874887D6019C91E0
:103E6000892F807E91F0929596959770892F90E09A
:103E70000197E1E0F0E002C0EE0FFF1F8A95E2F744
:103E8000209156092E2B20935609D60118968C9115
:103E9000882341F00E94750DE885F985E80FF91F28
:103EA000F987E887D60116968C911697882329F40E
:103EB00015968C91882309F44EC1F40160817181BB
:103EC00082819381112391F420E031E040E050E0C1
:103ED0000E9425B150954095309521953F4F4F4F09
:103EE0005F4FA884B984A20EB31E5CC0D60117969A
:103EF0008C9117978E70843049F5EC91EF71F0E05A
:103F0000EE0FFF1FEF5FF74F60817181882777FD0C
:103F10008095982F20E034E640E050E00E94B1B058
:103F2000F4016083718382839383D60112962C916E
:103F3000222361F0332727FD3095432F532F0E9412
:103F400025B1F4012083318342835383D4016D91E1
:103F50007D918D919C9120E031E040E050E00E9405
:103F600025B150954095309521953F4F4F4F5F4F6C
:103F7000A884B984A20EB31EA114B10499F0F6016D
:103F80008581B7FE82958F7090E09C0144E650E0F9
:103F9000249FC001259F900D349F900D1124D301C3
:103FA0008D939C93F301208131812115310551F0CE
:103FB00080915506882309F4C1C0215030403183D7
:103FC0002083BCC0A114B10409F4C5C0F6018681E8
:103FD000882309F4C0C080915506882309F478C06D
:103FE0002281222329F460E070E080E293E018C08F
:103FF000822F992787FD909597FF03C09095819513
:104000009F4F9C01442737FD4095542F60E070E09E
:1040100080E293E00E9425B1C901DA01BC01CD0123
:10402000D60116962C911A141B040CF52F70422FF2
:1040300050E041155105D9F1E4E6F0E04E9F9001C2
:104040004F9F300D5E9F300D1124442737FD409562
:10405000542F0E9425B179018A01F4018081918158
:10406000A281B381E80EF91E0A1F1B1F2BC02295E7
:104070002F70422F50E041155105C9F0A4E6B0E081
:104080004A9F90014B9F300D5A9F300D11244427B9
:1040900037FD4095542F0E9425B1F401E080F18056
:1040A00002811381E21AF30A040B150B0BC0288559
:1040B0003985C901AA2797FDA095BA2FEE24F82EBD
:1040C000092F1A2FD401ED92FD920D931C93139793
:1040D000F40160817181828193812885398579011C
:1040E0000027F7FC0095102F1A141B0464F420E03D
:1040F00031E040E050E00E9425B1E216F3060407EB
:10410000150764F01BC020E031E040E050E00E9461
:1041100025B12E153F054007510784F44885598580
:10412000CA01AA2797FDA095BA2FBA2FA92F982FB9
:104130008827F40180839183A283B383D4016D9196
:104140007D918D919C9120E031E040E050E00E9413
:1041500025B139872887F6016481662339F088857F
:10416000998541810E946E0E99878887D60117969E
:104170008C91179780FD13C01196EC91EE2379F086
:10418000E53068F4F0E0EE0FFF1FEB5DF74F808144
:104190009181E885F985E80FF91FF987E887288577
:1041A0003985B901882777FD8095982FD601129619
:1041B0002C91332727FD3095432F532F0E94B1B008
:1041C0009B01AC01F60187818695877090E0813074
:1041D000910571F00081029709F046C00F71E02F40
:1041E000F0E0EE0FFF1FEE0FFF1FE55DF74F37C04A
:1041F000D6010C910F7110E0000F111F000F111F5D
:10420000055D174FCA01B90124E630E040E050E0F7
:104210000E9425B1CA01B901F80120813181428192
:1042200053810E94B1B0D8016D937D938D939C937F
:104230001397F60100810F7110E0000F111F000F9E
:10424000111F055D174FD8016D917D918D919C9146
:1042500020E034E040E050E00E9425B1F8012083E6
:1042600031834283538315C00F71E02FF0E0EE0FCE
:10427000FF1FEE0FFF1FE55DF74F80819181A28147
:10428000B381820F931FA41FB51F80839183A283E4
:10429000B383FD81FF5FFD830894411C511C24E022
:1042A00030E0820E931E42E050E0640E751EF03244
:1042B00009F05ACD61CDA981BA818D909D90AD90C4
:1042C000BC90C501B40124E630E040E050E00E941B
:1042D00025B1E981FA812083318342835383F1013F
:1042E000ED52F64FC90120839183D20113962D918F
:1042F0003C91149711968C911197FAE08F02F0017E
:104300001124E851FC4FF987E8878C914AE0840238
:104310003001112488E19CEF680E791ECF015E2FD9
:10432000492F2E173F071CF4C901522F492F852F03
:10433000942F8C01061517050CF483018114910448
:10434000A104B10479F19801442737FD4095542F19
:10435000181419041A041B0464F4A885B985BD0156
:10436000882777FD8095982F621B730B840B950B24
:104370000BC0C301AA2797FDA095BA2F281B390BA4
:104380004A0B5B0BCA01B901A50194010E94B1B0AF
:1043900020EA36E841E050E00E9425B1C901DA0187
:1043A0004C015D01C80155E0959587955A95E1F757
:1043B000800F911F9801232F330F330B2595820F08
:1043C000931F000F012F001F110B801B910B6C011D
:1043D000EE24D7FCE094FE2C8885998525E0959500
:1043E00087952A95E1F7E885F9858E0F9F1FA30130
:1043F00005E0559547950A95E1F7B301660F672FDC
:10440000661F770B460D571D9F01232F330F330B6C
:104410002595820F931FEE0FEF2FEE1FFF0B8E1BC4
:104420009F0B8C01222717FD2095322FC80CD91C19
:10443000EA1CFB1C0C151D052E053F0514F4680134
:104440007901CB019595879595958795480F591FCB
:10445000461B570BCA01AA2797FDA095BA2F8701C3
:104460007601E816F9060A071B0714F47C018D0192
:10447000D20112968C91882341F010950095F0940A
:10448000E094E11CF11C011D111DEB81FC81808178
:10449000882389F060E040E00E941A14882359F0D4
:1044A000AB81BC8111968C910E94750D7C01002717
:1044B000F7FC0095102FEE81FF81E20DF31DF182D4
:1044C000E082E981FA813496FA83E98322E030E0E0
:1044D000220E331E45E050E0440E551E8B819C8118
:1044E00002969C838B83EF56F84009F0E4CE299620
:1044F0000FB6F894DEBF0FBECDBFCF91DF911F91F5
:104500000F91FF90EF90DF90CF90BF90AF909F9072
:104510008F907F906F905F904F903F902F90089575
:10452000CF92DF92EF92FF920F931F93DF93CF937F
:10453000CDB7DEB7A0970FB6F894DEBF0FBECDBFE4
:1045400081E080936E098E010F5F1F4FC8010E94AA
:10455000CF1D10926E09F801A0EAB4E09E012F5D14
:104560003F4F8081918143E0883E94071CF088EEA4
:1045700093E006C04CEF8931940714F488E19CEF76
:1045800011969C938E9332961596E217F30749F78E
:1045900000E010E082E0C82ED12CE02E8091600374
:1045A00090E0817090709601281B390B201731071D
:1045B00091F0FF248F2D6E2D0E948F0F855F91400B
:1045C00034F48F2D6E2D40E050E00E94E111F39401
:1045D00045E0F41679F70F5F1F4F04301105E9F637
:1045E00082E00E94B96080914C0662E30E948A0DCD
:1045F000A0960FB6F894DEBF0FBECDBFCF91DF916E
:104600001F910F91FF90EF90DF90CF9008956F92E0
:104610007F928F929F92AF92BF92CF92DF92EF9252
:10462000FF920F931F93DF93CF93CDB7DEB7C054A4
:10463000D0400FB6F894DEBF0FBECDBFF8942091E6
:104640000E1030910F10789440E080917B0990918A
:104650007C092817390709F041E040935506F89482
:1046600080910E1090910F10789490937C09809314
:104670007B090E94B019582F80917A09851739F16A
:1046800090E02DE030E0829FF001839FF00D929F3B
:10469000F00D1124E050FA4F408142954F70852F64
:1046A00090E0829FF001839FF00D929FF00D112406
:1046B000E050FA4FE081EF70E41708F4E42F8AE04D
:1046C000E89FC00111248093790950937A09809161
:1046D0007909882349F0DE011196E7EFF9E080E2DD
:1046E00001900D928150E1F78E010F5D1F4FC801BF
:1046F0000E94CF1D40917909F8017E010894E11CC8
:10470000F11C07EF19E0A0E2CA2ED12CCE0EDF1E5D
:10471000F89480819181442381F0D7012D913C91BF
:10472000821B930B642F70E00E94F0B0260F371F9E
:10473000D8012D933C93415003C0D8018D939C9395
:104740007894329682E090E0E80EF91E0E5F1F4FDB
:10475000EC15FD05E9F6409379098091E30F882374
:1047600081F48091920A882329F08AE89AE00E94D5
:10477000C66707C080919C0A882319F080E00E94D8
:10478000BF6080915506882309F40AC280916A06A9
:104790008823A1F090916B06892F8F5F80936B0621
:1047A000843660F0935690936B0680916C069091DE
:1047B0006D06019690936D0680936C060E94FA1721
:1047C0008091F509882319F081508093F509809133
:1047D0006103882309F467C080915406823308F48A
:1047E00062C080916F0890917008A0917108B0919B
:1047F00072080196A11DB11D80936F0890937008F7
:10480000A0937108B093720800E010E0FF248F2D90
:104810000E94B30FE6E096958795EA95E1F7080FB9
:10482000191FF39494E0F91691F780917308909111
:1048300074080817190761F010937408009373083F
:1048400010926F08109270081092710810927208FE
:10485000E0906F08F0907008009171081091720854
:104860006091610370E080E090E020E737E140E094
:1048700050E00E94B1B06E157F058007910798F453
:104880008FE390E0A0E0B0E0E822F9220A231B23A6
:104890009AE0E916F1040105110529F480914E060C
:1048A00062E30E948A0D80916E06882319F0815080
:1048B00080936E0680914D0360E040E00E941A14E0
:1048C00090917609882309F446C0992351F09130DC
:1048D00009F04EC08091D3129091D412892B09F027
:1048E00047C080E061EA70E10E94987E9093780969
:1048F00080937709892B11F08FEF0EC083ED92E141
:104900006CE870E142E10E943E9F909378098093A9
:104910007709892B59F08EEF80937609809177097A
:1049200081508093580680914B0611C04091DD1252
:104930005091DE126091DF127091E01283ED92E1EE
:104940000E943C8F81E08093760980914D0662E35E
:104950000E948A0D0DC0913049F483ED92E10E94CE
:10496000428A80914D0662E30E948A0D1092760978
:104970000E945C710E94C4710E94FA19182F8091E4
:10498000560690915706009729F001979093570685
:1049900080935606112389F08091640390E024EF00
:1049A00031E0DC01A29FC001A39F900DB29F900D4A
:1049B0001124909357068093560680914D0360E032
:1049C00040E00E941A14882339F480915606909191
:1049D0005706892B09F4E2C0409A80915B069091BA
:1049E0005C062091D1093091D209821B930B60E2C1
:1049F00070E00E94F0B07093180A6093170A611576
:104A0000710591F08091740990917509821B930B47
:104A100062E070E00E94F0B07093180A6093170A89
:104A200030935C0620935B068091D1099091D20966
:104A30009093750980937409E091280AF0E0EE0FD5
:104A4000FF1FE65EF54F0190F081E02D812F199553
:104A50000E94BB6F919B02C0A49A01C0A498F894D5
:104A600080910E1090910F1078948F719070823019
:104A7000910521F0039709F093C079C08091520607
:104A800090915306892B39F487E00E94B30F9093DD
:104A900053068093520680915206909153068C01E2
:104AA00063E0000F111F6A95E1F7081B190B87E0FF
:104AB0000E94B30F800F911F53E0969587955A95EA
:104AC000E1F73C0188249924909353068093520681
:104AD000E0905006F0905106C401B30128E534E09F
:104AE00040E050E00E94B1B05B016C0120914C03AA
:104AF000332727FD3095432F532FC401B3010E9464
:104B0000B1B0A60EB71EC81ED91EEE0CFF1CEE0CCF
:104B1000FF1CB70180E090E06A0D7B1D8C1D9D1D80
:104B2000EE0CFF1C00E010E0A80197010E9403B109
:104B30002093540680917309805E809373098823C3
:104B400079F580914B03281758F5223348F180916D
:104B50004F0662E30E948A0D8091620383FF20C0AA
:104B600082E390E0909357068093560619C0809197
:104B70005F03869586958695877090E0BC01660FE9
:104B8000771F660F771F680F791F68567A4F8BE47F
:104B900096E045E050E00E9440B102C040981DCF31
:104BA000C05CDF4F0FB6F894DEBF0FBECDBFCF9114
:104BB000DF911F910F91FF90EF90DF90CF90BF900A
:104BC000AF909F908F907F906F9008950F931F9359
:104BD000DF93CF93CDB7DEB761970FB6F894DEBF02
:104BE0000FBECDBF9FEF91B912B887EC84B98FE3A8
:104BF00085B987B980EC88B91AB88CEF8BB91AE0FF
:104C00001DB985EF8EB910BA11BA80E183BB94BB90
:104C100010920101909302011092040190930501FA
:104C2000109207011092080110920A0190930B0153
:104C30000E947D6F80E480937C0085E880937A00F9
:104C400088E080937B0087E08093B1008CE98093BB
:104C5000B300809170008360809370008BE085BD0D
:104C600081E084BD1093810082E88093910080915F
:104C70007100806280937100EDB7FEB7329785E5D1
:104C800002C08083319743E1E830F40709F0C8F7A8
:104C9000789481E698E590931B0A80931A0A80E045
:104CA0009BE490931D0A80931C0A89E10E94B16FD6
:104CB0000E947DAB0E94EF651091490304B603FC8E
:104CC0000CC00E9428190E9488180E943E100E9461
:104CD000D6180E9497180E947C180E94E61387EF4E
:104CE00099E00E94CF1D80914A030E94B16F80918C
:104CF000640390E024EF31E0AC01429FC001439F88
:104D0000900D529F900D1124909357068093560654
:104D100080914903181719F081E00E94B960CE0113
:104D200001960E94157C89818C568E878B818150DB
:104D30008D878C818C878E818B878F818A878885F0
:104D400089878D8181508F87CE0109960E94ED7AE7
:104D5000609318037093190380931A0390931B03B5
:104D60001DBA84E180936A0080E68CBB80E5809365
:104D700069008CE08CBB8CE68DBB0E945A298FEFBA
:104D80009FEF90938B0080938A0080E38093800054
:104D900080916F00826080936F002DE088E190E049
:104DA0000FB6F894A895809360000FBE2093600022
:104DB0000E94EF108C01E0916303F0E0EE0FFF1F03
:104DC000E050FE4F0190F081E02D19950E945F1098
:104DD0000E94072380916A09833019F4A8951092E4
:104DE0006A090E94EF102091450630914606801B0B
:104DF000910B8217930708F4C9019093460680939C
:104E00004506D6CF80934A0688E893E170E00E9479
:104E1000F0B067BD08959C01E091280AF0E0EE0F24
:104E2000FF1FE65EF54F318320838FEBF901199563
:104E300080914B0662E30E948A0D08956F927F92E3
:104E40008F929F92AF92BF92DF92EF92FF920F9359
:104E50001F93CF93DF938091770385FD04C0A12C2E
:104E600014E0B12E03C0A12CB5E0BB2EE091760377
:104E7000EE0FEE0FE595E595E595E595E595EE0FD9
:104E8000E85F9091780384E69802C0011124A8E5B8
:104E9000EA2EA2E0FA2EE80EF91EEA3028F448ECD9
:104EA0005FEA4E195F090DC08853904F2E2F30E0F6
:104EB000829FA001839F500D929F500D1124405C52
:104EC000504EC7EFD9E0ABEEB6E06E2F70E0660F44
:104ED000771F6C0F7D1F882499248A189B086624ED
:104EE00077246E187F0808E512E00E191F0923C009
:104EF00028813981C501DA2CF92F2A153B051CF4CC
:104F0000C901D22EF92F8D2D9F2F881599050CF4EC
:104F1000C401805A964F9301281B390B420F531F2F
:104F20001196FC92EE92800F911F13969C938E9394
:104F3000129722961496C617D707D1F6EE0FAE2F0A
:104F4000B0E0AA0FBB1FA551B94FED92FC92EF5FE5
:104F5000AE2FB0E0AA0FBB1FA551B94F4D935C9384
:104F6000EF5FF0E0EE0FFF1FE551F94F1182108265
:104F7000DF91CF911F910F91FF90EF90DF90BF9045
:104F8000AF909F908F907F906F900895A0912B0A83
:104F9000B0912C0AFD018193919313967C936E93AB
:104FA00012973296F0932C0AE0932B0A08958823E7
:104FB00029F060E679E080E699E004C060EB74E0F7
:104FC00080EB94E00E94C62708951F93182F8270EB
:104FD0000E94D727812F81700E94D7271F910895A3
:104FE000EF92FF920F931F93CF93DF9380917603FD
:104FF000877090E08130910519F0029719F404C090
:1050000010E003C011E001C012E02091F7093091D7
:10501000F80920503C4F220F331F8091F9099091DD
:10502000FA0980509C4F880F991F892F232F37FD35
:1050300020E087FD80E0022F20310CF00FE0F82EF9
:105040008FE08F1514F44FE0F42E2F2D332727FD1A
:105050003095802F992787FD9095099682179307A1
:1050600014F40F2D0950C02FDD27C7FDD095275F01
:105070003F4F2C173D071CF437EFF32EF00E8BEE4D
:1050800096E090932C0A80932B0A80E797E160EBDF
:1050900074E00E94C62780E00E94E52780E699E040
:1050A00060EB74E00E94C62780E699E060EB74E054
:1050B0000E94C627812F0E94E5271195CE01959564
:1050C000879595958795E82E0E94E5271E19802FD4
:1050D0000E94E527101B8F2D992787FD90959595A8
:1050E000879595958795082F0E94E527101B8F2D92
:1050F0000E94E527812F8F190E94E52780E00E94FA
:10510000D72780912B0A90912C0A029790932C0A12
:1051100080932B0A80E69AEE60E070E00E94C6273A
:10512000DF91CF911F910F91FF90EF900895882309
:1051300029F080E293E060E476E004C080E496E049
:1051400060E273E00E94C62708950F931F93082F13
:1051500010E0802F81700E9497281F5F06951830FD
:10516000C1F71F910F9108950F931F938BEE96E057
:1051700090932C0A80932B0A80912D0A91E0892725
:1051800080932D0A882309F44FC08091F7099091EC
:10519000F809885F9B4F34E0969587953A95E1F73B
:1051A0008038910510F08FE790E0182F2091F909D1
:1051B0003091FA0937FD0FC0C901409625E0969558
:1051C00087952A95E1F78034910510F08FE390E000
:1051D000082F00640FC080E190E0821B930B05E074
:1051E000969587950A95E1F78034910510F08FE345
:1051F00090E0082F812F0E94A528802F0E94A528CB
:105200000127802F90E09C01B4E035952795BA9551
:10521000E1F7A4E0880F991FAA95E1F7822B0E947D
:10522000A52880E197E22BC08091FB099091FC09B1
:1052300080509C4FF4E096958795FA95E1F7803879
:10524000910510F08FE790E0082F0068802F0E94F2
:10525000A5288EE80E94A5288EE8082710E0C8013E
:10526000E4E095958795EA95E1F774E0000F111F4A
:105270007A95E1F7802B0E94A52880EB96E360EAFF
:105280007FE00E94C627E0912B0AF0912C0A119230
:105290001192F0932C0AE0932B0AEB5EF640E03F6C
:1052A000F1052CF087EA96E060E00E9436181F9125
:1052B0000F91089580917603877090E08430910576
:1052C00034F4813091054CF4892B21F00895049732
:1052D00049F406C00E941E2708950E94F0270895F1
:1052E0000E94B4280895CF93DF93EC019091280A8F
:1052F000E92FF0E0EC5DF54F8091290A8083892F3A
:105300008F5F8093280A853040F09093280A8AEBBB
:1053100096E060E00E94361811C080914B0662E36F
:105320000E948A0DE091280AF0E0EE0FFF1FE65E72
:10533000F54FD183C0838FEBFE011995DF91CF919B
:1053400008958091280A8823E9F081508093280AE3
:1053500080914B0662E30E948A0D10922A0AE09126
:10536000280AF0E0DF01AC5DB54F8C918093290AEB
:10537000EE0FFF1FE65EF54F0190F081E02D8EEB02
:10538000199508958DEC96E060E00E943618089516
:105390008F929F92AF92BF92CF92DF92EF92FF9245
:1053A0000F931F93CF93DF93182F7B014A0159016D
:1053B000C02E84FD04C074E0D72E05E005C01F7028
:1053C000106665E0D62E04E08D2D8066181761F01A
:1053D0008D2D8064181741F09091F409992369F09C
:1053E000133611F0133449F4E701219680914B06EE
:1053F00067E30E948A0D802F18C0802F80661817DF
:1054000061F0802F8064181741F0992309F47FC060
:10541000123619F0123409F07AC0E7012197809111
:105420004B066DE20E948A0D8D2D90E00E94607205
:10543000882351F0CC27DD27CE19DF09802F0E9469
:10544000E1728D2D0E94E1728114910491F481E04A
:10545000A816B10471F4103661F41092F409C0E09A
:10546000D0E0E114F10411F4C1E0D0E080E60E9444
:10547000E1728091170A9091180AC81BD90BAC16DB
:10548000BD064CF4812F0E94E17280914D0667E3C6
:105490000E948A0DE501C815D9054CF4812F0E94A0
:1054A000E17280914D066DE20E948A0DE401CE15F5
:1054B000DF05E9F0209771F4812F0E94D272F7FE88
:1054C00004C080914D0667E303C080914D066DE2F4
:1054D0000E948A0D8C2D83700E94B960EC16FD0627
:1054E00014F08FEF01C081E08093190A02C010927E
:1054F000190ACE01DF91CF911F910F91FF90EF908C
:10550000DF90CF90BF90AF909F908F900895E7016C
:105510009BCF0F93772767FD7095552747FD5095D3
:10552000332727FD309501E00E94C8290F91089587
:105530000F93772767FD7095552747FD50953327C3
:1055400027FD309502E00E94C8290F910895FF922F
:105550000F931F93F82E162F042F80E860E0412F41
:1055600050E0202F0E944C6E1A3010F485E701C0E5
:105570008FE660E04FE2202F0E94406B1A3010F45B
:1055800085E701C08FE64F2D50E04F5F5F4F60E031
:10559000202F0E944C6E1F910F91FF900895AF92A3
:1055A000BF92CF92EF920F931F93DF93CF930F92FF
:1055B000CDB7DEB7982F5A014115510509F44AC0FD
:1055C0008091290A882309F03CC08091F60988233C
:1055D00009F037C09436F1F0953611F042E032C050
:1055E000662361F081E090E0861B9109880F991F86
:1055F000FA01E81BF90B859194911BC081E090E0C2
:10560000821B9109880F991FFA01E81BF90B8591FC
:1056100094910FC070E0822F90E00197681779078E
:1056200064F4FB013196EE0FFF1FE40FF51F859127
:1056300094910E940B2780E021C1FA0185919491F9
:10564000F8CF40E01092F609862F622F99830E94CE
:10565000A72A99810115110511F420E00AC0809153
:10566000290A2E2D8E1508F4282FF801E20FF11DBE
:105670002491903669F1913690F4933409F4AEC0D8
:10568000943430F4913299F1923409F0D7C07BC050
:10569000943409F44AC0953409F0D0C05CC0943603
:1056A00009F448C0953638F4923609F471C093363F
:1056B00009F0C4C097C09138B9F09F3B21F09536EE
:1056C00009F0BCC04DC010922A0A1092290A13C0DA
:1056D000222309F4B3C090E08091F409882309F4EF
:1056E00091E09093F409AAC01092F4090EC0809141
:1056F000F409882319F01092F409A0C08091290AB6
:10570000882319F0A114B10419F40E94A12996C0AC
:1057100080914B0662E30E948A0D10922A0A109231
:10572000290A80E6809310108DC080912A0A821782
:1057300009F484C0012B09F481C08091F409882305
:1057400009F07CC080912A0A821710F48F5F15C07F
:1057500010922A0A70C080912A0A882309F46EC028
:10576000012B09F46BC08091F409882309F066C00D
:1057700080912A0A882321F0815080932A0A5BC0F5
:1057800020932A0A58C08091290A8C1509F456C022
:105790008091F409882309F051C08091290A8C1561
:1057A00010F080E001C08F5F0115110509F470C091
:1057B000982FE81608F49E2DF801E90FF11DE491E9
:1057C000EF3F09F065C0EBCF8091290A8E1508F4F0
:1057D000E82E0E0D111DF801049128C08091290AB0
:1057E000882361F18091F409882341F58091290A89
:1057F000882311F48C2D01C081500115110509F485
:1058000050C0982FE81608F49E2DF801E90FF11DFD
:10581000E491EF3F09F045C0EBCF8091290A8E1546
:1058200008F4E82E0E0D111DF8010491901708F4EC
:10583000092F00932A0A80E680931010AB2811F4F8
:1058400056E001C057E04091290A442319F4109210
:10585000F30913C0242F30E08091F309281B31098C
:10586000852F90E08217930714F4451B04C012168D
:1058700013061CF041504093F30981E00F90CF9143
:10588000DF911F910F91EF90CF90BF90AF9008954F
:105890008093290A90912A0A0115110509F094CFE5
:1058A00008C08093290A90912A0A0115110509F070
:1058B000B4CF00E0BECFCF92EF920F931F93C02ED4
:1058C00000E010E0EE240E94CF2A1F910F91EF908C
:1058D000CF9008950F93062F60E040E050E020E065
:1058E0000E945B2C0F9108950F93942F222311F4A3
:1058F00000E001C002E043E0949FA00111244F5159
:10590000594F23E00E94E16F0F9108950F93942F58
:10591000222311F400E001C002E043E0949FA001C3
:1059200011244851594F23E00E94E16F0F910895CF
:1059300080934A0688E893E170E00E94F0B067BD6A
:105940000895DC01FB0105C09C9180818D939193AA
:1059500041504423C9F70895CF92DF92EF92FF920E
:105960000F931F93CF93DF93182F80E060E04FE6F3
:1059700057E022E00E94FB6B812F6BE04FEE56E078
:105980002CE008E00E945B2C882309F466C0F090AC
:10599000290AFA941038B1F480E80E94E17289E192
:1059A0008093F50986E08F1518F08F2D0E94B6AC14
:1059B00087E0F81611F40E9445AC80914C0662E332
:1059C0000E948A0D18E0EE24CF2CDD24C7FCD09471
:1059D0004091F3094E0D473019F4193370F13DC071
:1059E000C42FD0E0CC16DD0611F020E101C022E189
:1059F000AE014F5F5F4F82E1612F02E00E944B6D6D
:105A00008091F509882319F4CC16DD0609F000E031
:105A1000AE01440F551F4C0F5D1F440F551F440F1F
:105A2000551F465E584F88E1612F2CE00E94E16FC0
:105A3000185FE394103461F610C08091F509882353
:105A400029F487E0F81611F422E001C020E086E096
:105A5000612F47E057E00E94FB6BDF91CF911F91D0
:105A60000F91FF90EF90DF90CF9008952F923F928B
:105A70004F925F926F927F928F929F92AF92BF925E
:105A8000CF92DF92EF92FF920F931F93DF93CF930A
:105A9000CDB7DEB760970FB6F894DEBF0FBECDBFAF
:105AA0008D8780E060E04CEB57E022E00E94FB6BCA
:105AB0008D856AE04FEE56E02CE006EC17E09BE0A7
:105AC000E92EBCE0CB2E0E94CF2A882309F4B4C370
:105AD0001091290A2D85203669F0213630F4822F65
