:100000000C94180D0C94350D0C94350D0C94350D85
:100010000C94350D0C94350D0C94350D0C94350D58
:100020000C94350D0C94350D0C94350D0C94350D48
:100030000C94C7100C94350D0C94350D0C943C1198
:100040000C94EC0F0C94350D0C94FB6F0C94936E88
:100050000C94350D0C94350D0C948F6B0C94350D60
:100060000C94350D0C940B100C94350D0C94350D2F
:100070000C94350D0C94350D0C94350D0C94350DF8
:100080000C94350D0C94350D0C94350D804000000A
:1000900000000000000000000000000000F0080464
:1000A0000484444444444444444444444444444410
:1000B00044C4040488700000000000000000000038
:1000C000000000000404FC040400E050506000FE46
:1000D00000E050506000F01010E01010E000E05020
:1000E000506000FC1000F020100010E000E0100054
:1000F00000000018242424C400E050506000F020C8
:100100001000F400E05050600030509000000000FB
:1001100000000000000080808080808080BF8080A0
:1001200080BF808080800000304848484848484868
:100130004888090908F000000000000000000000E5
:1001400000000000000001000000000101010001AA
:1001500000000101010081F01819F0800100000188
:1001600001212020212021202020202423202020A4
:1001700020202021E12121202020212121202120B7
:1001800020202120202121212081C1010000000008
:1001900000F8FEFFFFFF0F0707070707073747872E
:1001A00087879797075FDFDFDFDED880101010109A
:1001B000100F0080403F80C0E0E0E06020000000C1
:1001C0000000000000000000000000007058484CD3
:1001D0004C474744464243FF0000FF4342464447E2
:1001E000474C4C48587000000000000000E0B01878
:1001F0000C0406878FBFEEFEF67E3C1C0C0C0C0C2C
:100200000C0C0C0C0C0C0C0C0E1F39608000000048
:10021000000107070F0F0F0E1E1E1E1E1E1E0E0EC4
:100220000E0E0E8ECEEEFCF973270F1F3F7EFCF9EB
:10023000F1F1F9FC3E1F0F07030100000000000070
:1002400000000000000000000000000000000000AE
:10025000000000008080407F00007F408080000020
:100260000000008080C0C040C0C0808810101D17F2
:1002700011111313131311171D101010000000009B
:10028000000000C0000000000000000000000000AE
:100290000000000000040C1C1C1C1C1C1E1E1E0E5A
:1002A0000E0F070703030180C0E0F0F87C3E1F0F2C
:1002B00007070F1F3F7EFCF8F0E0C0800000000041
:1002C000C020202020002020E0202000E0008040EE
:1002D0002000000302020202040402020202C140E2
:1002E00040FC3F7BB1E0AEA8EAEEA17B7FFC404042
:1002F000C0000000000000000000000080C0E0F02E
:10030000F8FCFFFF0000FEF8C00000000000000045
:1003100000000000000000000000000000000000DD
:10032000000000000C0E0F0F0F070301000000007B
:10033000000000000000000103070F0F0F0E0C006B
:1003400008090909060000000F0000000F0102045F
:1003500008000000000000000000000000000F384E
:1003600038FF9580B282FAAAFA82F29095FF383867
:100370000F00000000008010B074F67777F777F771
:1003800077F777F774F677F777F634B01000000058
:10039000000000000000000000000000000000005D
:1003A000000000000000000000000000000000004D
:1003B000000000E000000000E0000000000000007D
:1003C000000000000000000000000000000000002D
:1003D0000000000000000000000000000030282C99
:1003E000242F3F3607361F0E1F3607363F2F242C8B
:1003F000283000000000000100C1C0414140C1C0E0
:10040000414041C0C140C1C1C1C041C0C1000000A4
:10041000007F11110E000E11110E0007180C030EB3
:100420001807000E151516001F02010E15151600EF
:100430000E11111F000000001F11110E00014E309F
:100440000E01000000000E11110E007F11110E00B0
:100450000E151516001F01011E00000000131519CE
:10046000000E11110E000F10101F001F02010E11BF
:1004700011000E1515160000003F302F2F2B323FB4
:10048000203B3B3C3F202F2F3F262B2C3F00005290
:10049000554420454C45205448522041494C205257
:1004A00055442054485220454C452041494C204158
:1004B000494C20454C452054485220525544204137
:1004C000494C2054485220454C4520525544200068
:1004D00001020304010204030103020401030402F4
:1004E00001040203010403020201030402010403E4
:1004F00002030104020304010204010302040301D4
:1005000003010204030104020302010403020401C3
:1005100003040102030402010401020304010302B3
:1005200004020103040203010403010204030201A3
:100530000102030401030204040203010403020193
:1005400000000000000001081E640101081E640193
:10055000010F32960A0A1E329603010200040506B4
:1005600007707265737320616E79204B6579004165
:100570004C455254004D45535341474500506C651E
:10058000617365207265736574207468656D0053CE
:1005900077697463686573206E6F74206F66660098
:1005A000416C61726D732044697361626C656400B3
:1005B0005265736574207468726F74746C6500544E
:1005C00068726F74746C65206E6F742069646C65FA
:1005D00000507265737320616E79206B65792074A9
:1005E0006F20736B697000414C4552540045455073
:1005F000524F4D206C6F77206D656D005F2D2E2C56
:1006000000564552533A2056312E322D6772757678
:10061000696E00444154453A20323031312D313138
:100620002D32300054494D453A2031333A30313A79
:100630003539002053564E3A206672736B792D720D
:10064000313232340020424C443A2032363100708C
:10065000756C736520746162206F766572666C6F6D
:1006600077006D656E75537461636B206F7665728C
:10067000666C6F77006D656E75537461636B207582
:100680006E646572666C6F77002D2D2D494E560095
:100690004F46464F4E20009847E043F2403A3E35E1
:1006A0003E32328331DB2F252F862E872AFE2943C7
:1006B0004C454152204D49584553205B4D454E55C0
:1006C0005D0053696D706C6520342D434820542DB6
:1006D00043757420202020202020562D5461696C01
:1006E000202020202020456C65766F6E5C44656C70
:1006F0007461654343504D20202020202020486510
:100700006C692053657475702020536572766F2074
:100710005465737420200054454D504C415445534A
:10072000003C3E002D2D2D59656C4F72675265645B
:1007300000416C61726D00746F00472E426172005F
:1007400063616C004D61785600566F6C7473726112
:100750007720200054797065004120206368616E25
:100760006E656C0054454C454D455452590000FF90
:100770000000010202FF01000102534146455459A5
:100780002053574954434845530000012D2D2D2D2A
:1007900020202020202020202020547261696E65B6
:1007A0007220202020202020547261696E65722002
:1007B000525544202020547261696E657220454C68
:1007C00045202020547261696E6572205448522081
:1007D0002020547261696E65722041494C202020AE
:1007E000496E7374616E74205472696D2020547266
:1007F000696D73324F666673657473200046554E9B
:100800004354494F4E2053574954434845530000E1
:10081000012D2D2D2D202020763E6F667320207611
:100820003C6F667320207C767C3E6F66737C767CA2
:100830003C6F6673414E44202020204F52202020E0
:100840002020584F522020202076313D3D76322006
:100850007631213D76322076313E76322020763157
:100860003C7632202076313E3D76322076313C3D5A
:1008700076322000535700435553544F4D20535761
:1008800049544348455300000243560043555256CD
:100890004553002D2D2D494E5600434F505920549D
:1008A00052494D205B4D454E555D004C494D4954D4
:1008B00053000003030303030303030303030303BE
:1008C0000303032F3332002F3134004D4958455272
:1008D0000044522F4558504F002B3D2A3D3A3D00D1
:1008E000536C6F772020557000536C6F7720204435
:1008F0006F776E0044656C61792055700044656CBB
:10090000617920446F776E004164642020202020AC
:100910004D756C7469706C795265706C616365209B
:10092000004D756C747078004F4646005761726ECA
:10093000696E6700462E506861736500537769746D
:10094000636800437572766573004F4E204F4646CC
:10095000005472696D004F6666736574005765696F
:1009600067687400536F757263650045444954208D
:100970004D49582000494E53455254204D49582066
:10098000005765696768744578706F20205068610A
:100990007365205377746368205768656E20204321
:1009A00075727665202020202020200044522F459B
:1009B00058504F002D2D2D783E30783C30004E6F32
:1009C0002066726565206D6978657221004E6F2022
:1009D00066726565206578706F2100454449542032
:1009E0005052534554004D4F4445004355525645CF
:1009F00000436865636B20202020205472696D736A
:100A0000002864656661756C742900464C49474846
:100A100054205048415345530046616465204F754A
:100A200074004661646520496E005472696D7300FC
:100A3000537769746368004E616D6500454449549D
:100A400020464C4947485420504841534500060031
:100A500003504F534E4547005368696674205365F1
:100A60006C00755365630034434820364348203892
:100A700043482031304348313243483134434831D0
:100A80003643480050504D20202053494C565F417A
:100A900053494C565F4253494C565F43545241436D
:100AA00030390050726F746F005245544131323307
:100AB00000426565702043747200452E20547269AF
:100AC0006D7300452E204C696D6974730045787014
:100AD000202020457846696E6546696E6520204D68
:100AE000656469756D436F61727365005472696DF9
:100AF00020496E6300542D4578706F00542D547258
:100B0000696D00436F756E7420446F776E436F7527
:100B10006E7420557020200054696D657220005459
:100B20007269676765720054696D6572004E616D28
:100B300065005345545550000009010000000000B5
:100B40000000060244454C455445204D4F44454C59
:100B50000066726565004D4F44454C53454C005B43
:100B60004D454E555D202020205B455849545D0081
:100B70005B455849545D0012081200081C0808081B
:100B80001C080000082200490022080000000000A4
:100B9000227F2200000008220049002208000008ED
:100BA000220049002208000000227F2200000000ED
:100BB00000082200490022080000081C0808081C40
:100BC0000800ED4D804C3D4CA04B274B114A205B5B
:100BD0004D454E555D205748454E20444F4E4520CB
:100BE00000204D4F564520535449434B532F504FEF
:100BF00054532000202020534554204D4944504F49
:100C0000494E5420202000205B4D454E555D205418
:100C10004F20535441525420200043414C494252EA
:100C20004154494F4E004131413241334134413505
:100C300041364137413800414E41005472696D2DB3
:100C4000202B00204D656E75204578697420446F17
:100C5000776E20202055705269676874204C656655
:100C600074004449414700454550524F4D2076009D
:100C700056455253494F4E0043616C004D756C749C
:100C800069706C69657200636831636832636833E8
:100C9000636834006F6666202B3D203A3D006D6F1F
:100CA0006465202020252073726300536C61766593
:100CB00000545241494E4552000002020202004DCA
:100CC0006F6465005278204368616E6E656C204FDA
:100CD0007264004E4F204441544120416C61726D5A
:100CE00000416C61726D205761726E696E67004DD4
:100CF000656D6F7279205761726E696E6700446F1F
:100D0000776E4F46462055702020005377697463F4
:100D100068205761726E696E67005468726F7474F0
:100D20006C65205761726E696E670053706C6173F9
:100D3000682073637265656E004F4646004C6967B4
:100D40006874206F6666206166746572004C69671E
:100D500068742073776974636800466C61736820F7
:100D60006F6E2062656570004265657020636F7507
:100D70006E74646F776E004D696E75746520626580
:100D80006570005468726F74746C65207265766566
:100D90007273650053494E474F534D5046494C546A
:100DA0000046696C7465722041444300496E61637A
:100DB00074697669747920616C61726D0042617446
:100DC00074657279207761726E696E6700436F6E29
:100DD00074726173740051756965744E6F4B6579F7
:100DE0004E6F726D204C6F6E6720784C6F6E67008F
:100DF00042656570657200524144494F2053455425
:100E00005550004E4F20444154410054783D00520B
:100E1000783D0041203D007A3D00793D00783D005D
:100E2000416363656C00416C743A00566F6C747377
:100E30003A004675656C3A0052504D3A0040430006
:100E400054656D70323A0040430054656D70313A1C
:100E500000416C743A005370643A004864673A0089
:100E600054783D0052783D0041203D00204D4149DD
:100E70004E20204750534F54484552005B4D454E3D
:100E8000555D20746F2072657365740046726565E8
:100E900020537461636B206D696E202020206200F6
:100EA0007431306D732020202020202020202075D8
:100EB0007300746D61696E206D61782020202020A0
:100EC000206D7300746D7231204A697474657220EC
:100ED000202020757300746D72314C6174206D692F
:100EE0006E20202020757300746D72314C61742067
:100EF0006D617820202020757300535441543200D6
:100F0000544F54005354250053544B00545357002E
:100F1000544D45005354415400454550524F4D20C7
:100F2000466F726D617474696E670042616420453A
:100F30004570726F6D204461746100454550524F99
:100F40004D20436F6E76657274696E67004545701B
:100F5000726F6D2044617461204572397800454597
:100F600070726F6D20446174612076330045455086
:100F7000524F4D206F766572666C6F770050085047
:100F800000000000000000006F00000700070014D0
:100F90007F147F14242A7F2A12231308646236499F
:100FA0005522500005030000001C22410000412290
:100FB0001C0014083E081408083E080800503000C1
:100FC00000080808080800606000002010080402FB
:100FD000003E41413E0000427F40006251494600D0
:100FE00041494936001814127F0027454539003E13
:100FF000494932000179050300364949360006495E
:10100000291E000036360000005636000008142263
:101010004114141414144122140800020151090649
:1010200006090906007E0909097E7F494949363EBD
:10103000414141227F4141221C7F494949417F0969
:101040000909013E4149497A7F0808087F00417F2C
:1010500041002040413F017F081422417F40404031
:10106000407F020C027F7F0408107F3E4141413ED9
:101070007F090909063E4151215E7F09192946264B
:101080004949493201017F01013F4040403F1F2053
:1010900040201F3F4030403F63140814630708702E
:1010A00008076151494543007F414100020408108F
:1010B000200041417F0004020102044040404040C2
:1010C000000102040020545454787F4844443838C6
:1010D00044444420384444487F3854545418087ECB
:1010E0000901020C5252523E7F0804047800447DEC
:1010F00040002040443D007F1028440000417F40D4
:10110000007C041804787C0804047838444444388B
:101110007C14141408081414187C7C08040408486F
:1011200054545420043F4440203C4040207C1C2028
:1011300040201C3C4020403C44281028440C505087
:10114000503C4464544C44000836410000007F0089
:101150000000413608000808221C08081C22080864
:10116000A0608000000000000000000000000000FF
:1011700000FEFE0000000000003E7E00007E3E00FB
:10118000006060FEFE6060FEFE606060F09898FEA9
:10119000FE989818180C1E1E0C80C0E07038187845
:1011A000FC8EC6E6763C180000000066763E1E0007
:1011B0000000000000E0F0381C0E060000000006F1
:1011C0000E1C38F0E000006060C080F8F880C0605D
:1011D0006080808080F8F8808080800000000000BF
:1011E00000000000008080808080808080808000FF
:1011F0000000000000000000000000000080C0E0CF
:10120000703818000000000000000000000000001E
:1012100000717100000000000000000000000000EC
:101220000006067F7F06067F7F0606181819197FBD
:101230007F19190F06181C0E070301307878301E2D
:101240003F716367663C3C6666000000000000007A
:101250000000000000070F1C3870600000000060F4
:1012600070381C0F070000060603011F1F0103064C
:1012700006010101011F1F01010101000066763E08
:101280001E00000000010101010101010101010036
:10129000003078783000000000181C0E07030100B1
:1012A0000000000000F8FC0E06060EFCF800001816
:1012B0001CFEFE000000000000181C0E0686CEFC7E
:1012C0007800000606868686CEFC78000080C0E0A6
:1012D00070381CFEFE00007E7E666666E6C68600EE
:1012E00000F8FC8E86868E1C180000060686C6E670
:1012F000763E1E000078FCCE8686CEFC7800007814
:10130000FCCE8686CEFCF8000030787830000000F5
:101310000000003078783000000000000080C0E05D
:1013200070381C0E0660606060606060606060061F
:101330000E1C3870E0C0800000181C0E06060686E1
:10134000CEFC7800001F3F706060703F1F0000609F
:10135000607F7F606000000000787C6E6763616082
:101360006000006060616161733F1E000007070656
:101370000606067F7F00001838706060703F1F000F
:10138000001F3F716161733F1E000000007F7F00FE
:1013900000000000001E3F736161733F1E000000EB
:1013A000006171391D0F0700000C1E1E0C000000AB
:1013B00000000066763E1E000000000000010307EA
:1013C0000E1C38706006060606060606060606604F
:1013D00070381C0E07030100000000000066670360
:1013E00001000078FCCE8686CEFC780000E0F0B8E4
:1013F0009C8E8E9CB8F0E0FEFE8686868686CEFCAD
:1014000078F8FC0E060606060E1C18FEFE060606FA
:101410000E1C38F0E0FEFE8686868686860606FE70
:10142000FE8686868686860606F8FC0E06868686F4
:101430008E9C98FEFE808080808080FEFE000006EC
:1014400006FEFE06060000000000000606FEFE0680
:1014500006FEFE80C0E070381C0E06FEFE00000096
:101460000000000000FEFE1C38F0F0381CFEFEFEFE
:10147000FE70E0C0800000FEFEF8FC0E06060606C8
:101480000EFCF8000001010101000000007F7F0157
:1014900001010101017F7F7F7F6161616161733FB4
:1014A0001E1F3F70606060607038187F7F606060F2
:1014B00070381C0F077F7F61616161616160607FCF
:1014C0007F01010101010100001F3F706061616146
:1014D000717F3F7F7F0101010101017F7F0000607B
:1014E000607F7F606000001838706060703F1F0090
:1014F000007F7F0103070E1C3870607F7F60606093
:1015000060606060607F7F0000010100007F7F7F7E
:101510007F00000103070E7F7F1F3F7060606060E7
:10152000703F1FFEFE8686868686CEFC78F8FC0E0F
:10153000060606060EFCF8FEFE8686868686CEFC2D
:101540007878FCCE868686868E1C1806060606FEF1
:10155000FE06060606FEFE000000000000FEFEFE7F
:10156000FE000000000000FEFEFEFE000000000085
:1015700000FEFE1E3E70E0C0C0E0703E1E7EFEC05B
:1015800080000080C0FE7E0606060686C6E6763E21
:101590001E0000FEFE060606060000183870E0C0B9
:1015A0008000000000000006060606FEFE00006047
:1015B00070381C0E0E1C3870600000000000000027
:1015C0000000007F7F01010101010100001F3F7049
:1015D00060666E3C387F677F7F0101070F1D3970A1
:1015E0006018387161616161733F1E000000007F07
:1015F0007F000000001F3F7060606060703F1F0749
:101600000F1C387070381C0F071F3F70703E3E7003
:10161000703F1F787C0E070303070E7C78000001E3
:10162000037F7F03010000787C6E67636160606008
:101630006000007F7F6060606000000000000001CB
:1016400003070E1C180000606060607F7F000000D0
:1016500000000000000000000060606060606060EA
:101660006060600000060E1C3870600000000060C2
:1016700060606060E0C080FEFE80C0E06060E0C04E
:101680008080C0E06060606060000080C0E06060FA
:10169000E0C080FEFE80C0E060606060E0C08080EE
:1016A00080F8FC8E86060E1C18E0F0381818181802
:1016B00018F8F8FEFE80C0E06060E0C080000060C6
:1016C00060E6E600000000000000006060E6E60062
:1016D00000FEFE000080C0E060000000000606FE84
:1016E000FE00000000E0E060E0C0C0E0E0C080E09C
:1016F000E080C0E06060E0C08080C0E0606060606A
:10170000E0C08000000000000000000000183C7EE7
:1017100066666666667F7F7F7F6161606060703F3E
:101720001F1F3F70606060607038181F3F706060FE
:101730006061617F7F1F3F766666666666070701A8
:10174000017F7F0101000000000103676666666695
:10175000763F1F7F7F0101000000007F7F00006057
:10176000607F7F606000001838706060703F1F000D
:10177000007F7F060F1F3970600000000060607FEF
:101780007F606000007F7F0000070700007F7F7F91
:101790007F0101000000007F7F1F3F70606060607C
:1017A000703F1FE0E06060606060E0C08080C0E08B
:1017B000606060C080E0E0E0E080C0E06060E0C0C9
:1017C0008080C0E0606060606000006060FEFE607D
:1017D0006000000000E0E0000000000000E0E0E049
:1017E000E0000000000000E0E0E0E0000000000099
:1017F00000E0E060E0C080000080C0E060E0E00069
:101800000000000000E0E0606060606060E0E0E038
:1018100060000080C0787C0E06000000000000FE22
:10182000FE000000000000060E7C78C080000080F2
:101830008080801838F0E0C08080C0E0F0381880E8
:101840008080807F7F0606060606070301010307E6
:1018500006060607077F7F7F7F0101000000000169
:1018600001616367666666667E3C1800001F3F7014
:1018700060607038181F3F7060607038187F7F0795
:101880000F1C387070381C0F071F3F70703838708D
:10189000703F1F6070391F0F0F1F397060010367A1
:1018A00066666666763F1F6070787C6E676361600F
:1018B00060000001031E3E70600000000000007F19
:1018C0007F00000000000060703E1E030100000168
:1018D000010101181C0F0703010103070F1C180168
:1018E0000101014F46464142535255735255254519
:1018F0004C73454C25544873544825414C73414C16
:10190000255031205031255032205032255033207F
:101910005033250063002D2D2D783E30783C307CEF
:10192000787C663E30663C307C667C004650002DFC
:101930002D2D00544852525544454C454944304998
:10194000443149443241494C47454154524E535722
:101950003153573253573353573453573553573600
:1019600053573753573853573953574153574253A7
:101970005743004F4646004F4E20002D2D2D004D61
:101980004F44454C0052455441004144314144329A
:101990000043480050504D0050312020503220204C
:1019A000503320204D41582046554C4C435943312B
:1019B0004359433243594333002D2D2D2D00408090
:1019C000080420100201ED19F919FF19061A131A5B
:1019D000191A241A9C1432465A5A4632465AECECCA
:1019E000003C649CC4003C649C0000006453696D2E
:1019F000706C6520342D434800542D437574005697
:101A00002D5461696C00456C65766F6E5C44656C45
:101A1000746100654343504D0048656C692053650F
:101A200074757000536572766F205465737400008E
:101A300011241FBECFEFD0E1DEBFCDBF11E0A0E08B
:101A4000B1E0E4EDFCEE02C005900D92A831B107C3
:101A5000D9F71EE0A8E1B1E001C01D92A930B1079D
:101A6000E1F70E94C2230C9468760C94000099E27E
:101A7000890290011124359527953595279587FD85
:101A8000815C86FB880F880B80F9992787FD9095EC
:101A9000281B390BC9010895982F803201F1815418
:101AA0008A3110F48F5F0895892F81568A3120F48E
:101AB000892F80958F590895892F80538A3010F48B
:101AC000855E0895ECEFF5E080E02491291711F48C
:101AD0008B5D08953196222311F08F5FF6CF80E061
:101AE0000895E82F8823D9F087FF07C0863E1CF0B1
:101AF00080E68E1B0895E19504C08B3114F4805C60
:101B00000895E5321CF48E2F8B5E0895E9323CF483
:101B1000FF27E7FDF095E952FA4F8491089580E29E
:101B200008959DE0899F9001112420513C4FC901E7
:101B30000895282F30E0220F331F220F331F275123
:101B40003D4FC901089599E0899F900111242758BC
:101B50003E4FC901089595E0899F900111242756B1
:101B60003D4FC90108959C0140E0683008F041E014
:101B700070E0442371F0CB010897FC0163E0EE0FA5
:101B8000FF1F6A95E1F7E80FF91FDF01A75BBC4F64
:101B90000AC0FB01EE0FFF1FEE0FFF1FE60FF71F3E
:101BA000DF01AF5DBC4FFD01808120503C4F37FD10
:101BB0000EC068E02030360784F0442319F484E036
:101BC00090E002C088E090E0A80FB91F8C9199279F
:101BD00087FD9095582F442733C0442331F0432F7D
:101BE000B9017070660F771F04C0432F4695B90185
:101BF0007170842F90E0FD01E80FF91F8181992712
:101C000087FD90959B0135952795829FA001839F25
:101C1000500D929F500D11242081332727FD3095C0
:101C200080E092E0861B970B95958795BC01269FD7
:101C3000C001279F900D369F900D1124480F591F0A
:101C4000CA0169E170E00E94DD75CB0108959C0135
:101C5000633031F1643028F4613051F0623090F437
:101C60003CC0653039F1653008F1663061F525C05A
:101C7000493029F497FD24C0205032400AC097FF14
:101C80002CC026C0493041F41816190624F1205002
:101C90003E4F220F331F21C018161906CCF01DC06D
:101CA00097FF1BC0309521953F4F17C01816190696
:101CB00094F00EC097FF0CC003C0181619065CF014
:101CC00020E03CEF0AC067500E94B30D9C0105C0A4
:101CD00020E030E002C020E034E0C90108956F92B6
:101CE0007F928F929F92AF92BF92CF92DF92EF92AC
:101CF000FF920F931F933B017C0100E010E08824CA
:101D0000992464E670E080E090E06619770988091C
:101D10009909A80197010E94AA755B016C0182E3F1
:101D200090E0A0E0B0E0A80EB91ECA1EDB1EC801FC
:101D3000B7010E94AA750E94AA75BC01882799273D
:101D4000A40193010E94AA75E4E096958795779582
:101D50006795EA95D1F7A60EB71EC81ED91EC60113
:101D6000B50124E630E040E050E00E94F075C90182
:101D70001F910F91FF90EF90DF90CF90BF90AF90A9
:101D80009F908F907F906F900895FF920F931F9375
:101D90009C01AB016115710531F1FF2497FF05C06E
:101DA000FF24F394309521953F4F57FF10C000E07A
:101DB00014E066277727641B750BC801821B930B01
:101DC0000E946F0E9801281B390BC90104C0C9017C
:101DD000BA010E946F0EFF2011F49C0104C022275B
:101DE0003327281B390BC9011F910F91FF900895CC
:101DF0001F93162F0E94910DFC01A12FB0E02481AA
:101E0000332727FD3095CD01880F991F02C03595E6
:101E100027958A95E2F723703070AE0FBF1F8C9123
:101E2000992787FD9095880F991F880F991F280F74
:101E3000391FC9011F910895E9E5F5E0E80FF11D8B
:101E4000E491F0E0EE0FFF1FE658F84F208131815A
:101E5000C9010895AAE7B7E0EAE8F7E060E0862F55
:101E6000806487B9369A349BFECF349A20893189B1
:101E70008D919C91119796958795820F931F8E7FD8
:101E80008D939D9340815181240F351F3695279561
:101E9000318B208B84B195B1840F951F96958795D2
:101EA000819391936F5F6830D1F60895DF93CF935C
:101EB000CDB7DEB760970FB6F894DEBF0FBECDBFCB
:101EC000FE01319680E1DF011D928A95E9F7AAE7CC
:101ED000B7E050E0852F806487B92081318140E0F0
:101EE000369A349BFECF349A84B195B1280F391FAE
:101EF0004F5F4430A9F721933193369527952D9361
:101F00003D935F5F583031F760960FB6F894DEBFAF
:101F10000FBECDBFCF91DF910895EAE7F7E020E053
:101F2000822F806487B9369A349BFECF349A84B16D
:101F300095B1880F991F819391932F5F283081F776
:101F400008958EE587B98AE18A95F1F7369A349B30
:101F5000FECF349A84B195B190935204809351048A
:101F6000089580914B04882341F48091590488237B
:101F700021F480915B04882311F084E105C08091F5
:101F80006D07882321F0815080936D0708C08091F0
:101F9000630090E096958795817080936E0780919D
:101FA0006E07089510926804109261041092600404
:101FB00010926504109264041092630410926204FB
:101FC0001092670410926604089510926C041092A7
:101FD0006E0410926D0408951F920F920FB60F9227
:101FE00011248F9380916C078F5F80936C078F9182
:101FF0000F900FBE0F901F90189540916C0722B75D
:1020000080916C074817C9F7942F80E030E0282BA7
:10201000392BC90108951F920F920FB60F92112408
:102020002F933F934F935F936F937F938F939F93E0
:10203000AF93BF93CF93DF93EF93FF93C091800053
:10204000D091810080917D008F7D80937D00789478
:1020500080916F07909170079E01281B390B369570
:102060002795C901815A9F408F5D9E4220F481E0EF
:1020700080936A072EC040916A07842F8150883070
:1020800040F5C901815293408757954000F5E42FF0
:10209000F0E0EE0FFF1FE85AF84F2C5D35408091BD
:1020A0006201992787FD90950A96BC01269FC00181
:1020B000279F900D369F900D11246AE070E00E94DA
:1020C000DD75718360834F5F40936A0702C0109291
:1020D0006A07D0937007C0936F07F89480917D00D2
:1020E000806280937D00FF91EF91DF91CF91BF914E
:1020F000AF919F918F917F916F915F914F913F91A0
:102100002F910F900FBE0F901F901895EAE0FEE000
:1021100001C0319680818535E1F39F0129503E4011
:10212000C9010895EF92FF920F931F93062F7A0132
:102130000E94910DDC0110E0FC01E00FF11FC701CE
:1021400095958795959587958083000F111F83E05E
:1021500090E0002E02C0880F991F0A94E2F7809544
:1021600014962C911497822393E0E922FF2402C055
:10217000EE0CFF1C0A95E2F78E0D14968C9382E00C
:102180000E94D45A1F910F91FF90EF9008951F92D3
:102190000F920FB60F9211242F933F934F935F939B
:1021A0006F937F938F939F93AF93BF93EF93FF931F
:1021B00080E09CB5992319F48F5F8530D1F7809129
:1021C0003F04292F981708F4282F20933F042091CB
:1021D0004004892F291708F4822F809340048091AE
:1021E0007207882321F0C09A1092720704C0C09829
:1021F00081E080937207A0910701B0910801FD0171
:10220000819191919BBD8ABDF0930801E0930701F4
:1022100012968D919C911397892BC1F48CEE94E0CA
:1022200090930801809307018091730182958170DA
:1022300080937207F89487B78F7E87BF78940E9447
:10224000CB26F89487B7806187BF789480916B071D
:10225000816080936B07FF91EF91BF91AF919F9148
:102260008F917F916F915F914F913F912F910F903F
:102270000FBE0F901F90189578941F920F920FB673
:102280000F9211242F933F934F935F936F937F93FC
:102290008F939F93AF93BF93CF93DF93EF93FF936E
:1022A000F89487B78D7F87BF809106018F5F8093F9
:1022B0000601815090E083709070892B11F49DE9A4
:1022C00001C09CE981B7980F91BF7894F894CCB580
:1022D000DDB5789490914B04992369F080915A046C
:1022E000882329F490935A0481E080935B049150F1
:1022F00090934B0421C0309159043323B9F02091BD
:102300005A04222399F090E080915B04882309F419
:1023100091E090935B04992309F428E020934B0407
:10232000992351F031503093590406C010925A0449
:1023300010925B041092450480915B04882381F025
:1023400080914504882311F490E004C090917107B6
:1023500081E0982790937107992311F41B9A01C08B
:102360001B980E94136D80916B07826080936B07AE
:10237000F8948CB59DB578948C1B9D0B9093440478
:1023800080934304F89487B7826087BF7894FF9165
:10239000EF91DF91CF91BF91AF919F918F917F91FD
:1023A0006F915F914F913F912F910F900FBE0F90C2
:1023B0001F9018950F931F938C010E94846B82E2EB
:1023C00060E045E755E024E00E94126680E068E1A5
:1023D000A8010E944D660E94E369809146010E9417
:1023E000D9691F910F91089586B380958E77E1F793
:1023F0000E94DC6B0895EF92FF920F931F938C0164
:102400007B010E94846B82E260E047EE55E024E0AD
:102410000E94126680E060E2A8010E944D6680E0A2
:1024200068E2A7010E944D6680E060E341ED55E05F
:102430000E944D660E94E369809146010E94D9691D
:102440000E94F4111F910F91FF90EF900895EF9269
:10245000FF920F931F93CF93DF93E82E882349F4C5
:102460008091470490914804492F441F4427441FFA
:1024700090C1992787FD909597FF03C0909581950E
:102480009F4F863109F480C18A3030F490E00D9678
:102490000E947B6C482F79C18A50282F30E0890137
:1024A000000F111F020F131F0F561C4FD801129659
:1024B0008C91882311F440E06CC1F8018281853051
:1024C00010F420E007C0D80112968C91883008F4EF
:1024D00068C122E0D801EC91E150E73008F449C02E
:1024E00053C08091490490914A0440E08C239D237D
:1024F000892B89F127C080914704909148048C2B47
:102500009D2B9093480480934704F80180810E949A
:102510002712F82ED80111968C910E942712982F1D
:10252000F8018281853019F0863049F403C0FF201C
:1025300089F002C0FF2031F4992321F40BC040E060
:10254000F91649F041E08091490490914A048C2B9E
:102550009D2B0AC040E02091490430914A04CE01ED
:10256000809590958223932390934A048093490405
:102570000CC180914604882309F042C0F0E0EE0FC0
:10258000FF1FEE53F84F29C0E93018F4C0E0D4E043
:1025900039C0E03178F4F0E0EE0FFF1FDF01AE5CF0
:1025A000BE4FEE5BF84FC081D1818D919C91C81BCD
:1025B000D90B09C0E43150F4F0E0EE0FFF1FEE5BE1
:1025C000F84FC081D181CC0FDD1F1CC0E43240F434
:1025D000F0E0EE0FFF1FE855F84FC081D18112C027
:1025E000E63270F48E2F90E08497FC01EE0FFF1F0F
:1025F000E80FF91FE755F24F8081C82FD0E002C0E5
:10260000C0E0D0E0222309F03FC0D8018C91853290
:102610004CF011968C91282F332727FD30952358A5
:102620003F4F05C0F80181810E94370D9C01D80100
:1026300012968C91823051F0833071F08130C1F468
:1026400040E02C173D070CF0A0C09EC040E0C21730
:10265000D3070CF09AC098C040E0CE01D7FF03C06A
:10266000909581959F4F281739070CF08EC08CC02C
:1026700040E0CE01D7FF03C0909581959F4F821710
:1026800093070CF082C080C0D8011196EC91E15004
:10269000E73058F480914604882309F045C0F0E003
:1026A000EE0FFF1FEE53F84F2BC0E93018F4E0E0B7
:1026B000F4E03CC0E03180F4F0E0EE0FFF1FDF01FA
:1026C000AE5CBE4FEE5BF84F0190F081E02D8D9136
:1026D0009C91E81BF90B0AC0E43158F4F0E0EE0FCE
:1026E000FF1FEE5BF84F0190F081E02DEE0FFF1F12
:1026F0001DC0E43248F4F0E0EE0FFF1FE855F84F3C
:102700000190F081E02D12C0E63270F48E2F90E03F
:102710008497FC01EE0FFF1FE80FF91FE755F24FFA
:102720008081E82FF0E002C0E0E0F0E0D8011296EE
:102730008C91893089F08A3018F4883009F507C007
:102740008A3079F08B3091F08C30D1F414C040E0B5
:10275000CE17DF07D1F418C040E0CE17DF07A1F491
:1027600014C040E0EC17FD0784F40EC040E0CE1723
:10277000DF075CF409C040E0CE17DF0734F004C087
:1027800040E0EC17FD070CF041E01E1414F081E06E
:102790004827842FDF91CF911F910F91FF90EF90E9
:1027A0000895C1E0D0E002C0CC0FDD1F2A95E2F70A
:1027B00080914704909148048C239D23892B09F034
:1027C00090CE99CE362F37953327379520E030932A
:1027D0004804209347040E94271208950F931F93E3
:1027E000CF93DF93082F10916F01110F1595812F53
:1027F000992787FD909597FF03C0909581959F4FEE
:102800008597F4F12091070E3091080E8091040E07
:102810009091050E282B392B8091020E9091030E7A
:10282000282B392B8091060E90E0282B392B809194
:10283000FF0D90E0282B392B232B39F41092FF0D3C
:1028400017FF03C081E08093FF0D11161CF4812F48
:10285000845202C0812F8C5D60E00E94E213282F19
:10286000882361F08091FF0D882341F490E08091EE
:10287000060E882309F491E09093060E2093FF0D35
:10288000C091070ED091080E2196D093080EC093E8
:10289000070EE091040EF091050EE00FF11DF0938C
:1028A000050EE093040EF8948091830D9091840DB1
:1028B00078942091020E3091030E821B930B843684
:1028C000910508F445C12C593F4F3093030E2093D6
:1028D000020ECF01BE010E94C975062F862F90E01F
:1028E0009C012C9FC0012D9F900D3C9F900D1124A9
:1028F000E81BF90BF093050EE093040E1092080EFE
:102900001092070E912F915F9F3118F41092060ECE
:102910000EC0812F8C5D893450F4111614F483534A
:1029200001C0892F60E00E94E2138093060E80911F
:102930005E0490915F04019690935F0480935E041F
:1029400060916004709161046F5F7F4F70936104C8
:1029500060936004002349F08091640490916504C1
:10296000019690936504809364048091060E8823F9
:1029700049F08091620490916304019690936304FE
:102980008093620406954091660450916704400F5D
:10299000511D5093670440936604E0917001F091DB
:1029A0007101F0936A04E093690480916F01880FCC
:1029B0008595992787FD909597FF03C09095819500
:1029C0009F4F882319F41092680422C0813021F4AB
:1029D000CF01861B970B18C0803170F480FF07C0B1
:1029E000CA0124E0969587952A95E1F709C0809160
:1029F00064049091650404C0809162049091630422
:102A00009F01281B390BC90190936A0480936904C4
:102A100080916804813051F0813018F0823001F5E6
:102A200010C080916F018F77D9F017C08091690431
:102A300090916A04181619069CF0309789F082E08C
:102A40000DC08091690490916A04855C9F4F1CF4CD
:102A500083E080936804309719F481E080936804E0
:102A60002091690430916A048091FB0D9091FC0DD6
:102A70008217930709F45EC090916804913009F0C1
:102A800049C080915E0182FF2FC0309769F12E31DD
:102A9000310521F482E0809359040CC024313105C2
:102AA00019F49093590406C02A30310519F02430E6
:102AB000310524F480914E0480934B0480915E0193
:102AC00083FF12C02E31310549F02431310531F038
:102AD0002A30310519F02430310534F482E390E0D6
:102AE000909358048093570480915E0181FF22C027
:102AF00080916F0187FF04C0CF01821B930B01C03F
:102B0000C9016CE370E00E94C975892B99F480912A
:102B10004E0404C0923071F480914F0480934B04B2
:102B200080915E0183FF06C082E390E09093580499
:102B3000809357043093FC0D2093FB0D80916F011F
:102B400087FF06C0E21BF30BF0936A04E09369046D
:102B5000DF91CF911F910F91089520916F01220F66
:102B60002595822F992787FD909597FF03C0909513
:102B700081959F4F823091059CF1213F8CF120314E
:102B80007CF5273F94F02A3084F4E0915C01F0E07A
:102B9000EE0FFF1FEE0FFF1F95958795E80FF91FAA
:102BA000E15DFA4FE491F0E003C0FC01F595E79593
:102BB0003197EE0FFF1FEE53F84F0190F081E02D9B
:102BC00027FF05C080E094E08E1B9F0B03C0CF0160
:102BD00080509C4F66E0969587956A95E1F702C014
:102BE00080E090E00E94EE13E0915C01F0E0EE0FD7
:102BF000FF1FEE0FFF1FEE5CFA4FE491F0E0EE0FC7
:102C0000FF1FE054F84F0190F081E02D80915E01AC
:102C100080FF05C080E094E08E1B9F0B03C0CF01B6
:102C200080509C4F6091000E7091010E6F5F7F4F3E
:102C30007093010E6093000EAC0136E056954795F7
:102C40003A95E1F78091FD0D9091FE0D480F591FC7
:102C50005093FE0D4093FD0DF8948091830D90915B
:102C6000840D78942091F90D3091FA0D821B930B0D
:102C7000885E934098F1F8948091830D9091840D33
:102C800078949093FA0D8093F90D1092FE0D1092A6
:102C9000FD0D1092010E1092000E8091EA049091A9
:102CA000EB0401969093EB048093EA042091E804EE
:102CB0003091E904F901E059FB4FCA010E94C9753E
:102CC00060832F5F3F4F3093E9042093E804283757
:102CD000310520F01092E9041092E8040895EF9273
:102CE000FF920F931F93CF93DF93C5EDD3E041E0A5
:102CF000E42EF12C2881222309F189818823F1F027
:102D000090E00197870102C0000F111F8A95E2F73A
:102D1000822F60E00E94E2132091580730915907FA
:102D2000882319F0202B312B05C0C8018095909580
:102D3000282339233093590720935807229683E09C
:102D4000CD3ED807B9F6DF91CF911F910F91FF903B
:102D5000EF900895FF920F931F938C01F62E0E941F
:102D6000846B82E260E04FE655E024E00E94126648
:102D700080E060E2A8010E944D668CE168E341E6D4
:102D800055E00E944D660E94E369FF2011F089E141
:102D900002C0809146010E94D969809150048093BD
:102DA0004B040E94F41186B380958E7791F4809144
:102DB000490160E00E94E213882331F480916001B0
:102DC000882311F4FF2019F0C79AA895ECCFC79873
:102DD000FCCF1F910F91FF90089580915B0187FDBB
:102DE00007C0887329F480EA95E060E00E94AA1683
:102DF000089580915B0186FD0AC00E94B760883CFF
:102E0000910528F48DEE95E060E00E94AA160895E1
:102E10000F931F9380915B01867099F18FE895E085
:102E20006DE775E00E94FB1100E080915B01867008
:102E3000823009F401E01EE00AC0113139F0812F1F
:102E40008D5060E00E94E213801729F41F5F163155
:102E5000A0F31631B1F086B380958E7791F406C059
:102E600080916001882351F0C79A09C0809149017F
:102E700060E00E94E2138823B9F7F2CFC7981EE002
:102E8000DECF1F910F9108950F931F93CF93DF9380
:102E900080915B0180FD43C080915C0190E0817076
:102EA000907002E010E0081B190BF801EE0FFF1FF5
:102EB000E85EFE4FC181D281609687859089C81BEC
:102EC000D90B0E948D0F102F802F0E941C0FC81746
:102ED000D9072CF58FEB95E060EB75E00E94FB11B4
:102EE0000E948D0F812F0E941C0FC817D90724F450
:102EF00086B380958E7749F00E94F41110C08091BE
:102F00006001882351F0C79AEBCF8091490160E0BE
:102F10000E94E2138823B9F7F2CFC798E1CFDF917F
:102F2000CF911F910F910895AF92BF92CF92DF92F0
:102F3000EF92FF920F93CF93DF9380915E0184FD18
:102F40006EC08091490160E00E94E213882329F459
:102F500080916001882309F456C0C79A0E94846B4F
:102F600080E060E04CE850E020E000E00E94FA647D
:102F70000E94E369809146010E94D9690E94F41180
:102F80000E942A0F0F5F0032D9F7AA24BB2400E069
:102F9000802F0E941C0FC92FD0E0AC0EBD1E0F5F0A
:102FA0000430B1F7F894C090830DD090840D7894DC
:102FB00080E991E0C80ED91E1CC00E942A0FC0E013
:102FC000D0E000E0802F0E941C0FE92EFF24CE0DE0
:102FD000DF1D0F5F0430B1F786B380958E77F9F46B
:102FE000CA15DB05E1F411C0809160018823A9F0C6
:102FF000C79AF8948091830D9091840D7894C816A7
:10300000D906D9F60CC0C798A9CF8091490160E0D4
:103010000E94E213882361F7E7CFC798EACFDF91D8
:10302000CF910F91FF90EF90DF90CF90BF90AF9036
:1030300008951F93CF93DF93C2E0D4E011E088811D
:10304000882351F060E00E94E213882329F0812F49
:10305000DF91CF911F9108951F5F2D96153079F75D
:1030600010E0F5CFEF92FF920F931F93E82E162FEB
:103070006F3F19F40E941918182F00E01123D9F09E
:10308000F12E812F6E2D0E94F80EAC0181E0453F9C
:10309000580794F0642F655F262F30E0812F992721
:1030A00087FD9095281739070CF06F5F0F5F05308B
:1030B00011F0162FE3CFFF248F2D1F910F91FF905A
:1030C000EF900895DF92EF92FF920F931F93F82EE7
:1030D000082F0F700650109173011770083008F018
:1030E000AAC0E02EE5948E2D6FEF0E943218D82EE4
:1030F0006E2D0E94F80EBC01112389F477FF04C0E5
:1031000088279927861B970B959587959595879581
:1031100001968132910584F080E290E00DC0212F6C
:10312000332727FD30952150304081E090E002C0E8
:10313000880F991F2A95E2F7482F80915C0190E053
:103140008170907022E030E0281B390B8E2D90E0CA
:103150002817390739F48091720183FF03C044E0D6
:1031600081E001C080E0552747FD509500FF06C073
:10317000460F571F10E023E83FEF05C09B01241BBB
:10318000350BA901F7CF2115310519F4882329F052
:1031900015C09FEF2338390749F0421753071CF039
:1031A000621773074CF02D37310541F024173507AE
:1031B0002CF02617370714F4A90111E023583F4FCC
:1031C0002A3F310501F76417750724F44E3751057E
:1031D00044F40CC0461757074CF42FEF43385207FE
:1031E0002CF48091730186FFAB0111E03EEF4C306F
:1031F00053071CF44CE05EEF06C081E0453F5807E2
:1032000014F044EF51E08D2D6E2D0E949210112389
:1032100041F08F2D0E94026D1092450480914E0462
:1032200007C0F6FE03C081E08093450480914D0401
:1032300080934B04FF248F2D1F910F91FF90EF90EF
:10324000DF9008954F925F926F927F928F929F923C
:10325000AF92BF92CF92DF92EF92FF920F931F93A4
:10326000CF93DF933C01AAEBB7E0FC0188E001902B
:103270000D928150E1F70E941918ECEECE2EE2E09B
:10328000DE2E0FEFC0E0D0E072E0472E512CE82E8A
:10329000FF240894E11CF11CFE01EE0FFF1FEE0F4E
:1032A000FF1FE751FD4F2081822F837009F4CEC0AC
:1032B00026952695237030E0802F992787FD9095DD
:1032C0002817390709F4B9C08181807E99F082817D
:1032D00080FD10C0FE01EE0FFF1FEE0FFF1FE65135
:1032E000FD4F808182958695877090E0E816F906FB
:1032F00009F0A3C0FE01EE0FFF1FEE0FFF1FE65106
:10330000FD4F8081880F880F880F8595859585955D
:1033100061E00E94E213882309F48FC0FE01EE0FE2
:10332000FF1FEE0FFF1FE751FD4F8081182F1695ED
:1033300016951370E12FF0E0EE0FFF1FE654F84FE3
:103340000190F081E02D8370F7FF03C080FD03C082
:1033500074C081FF72C0012FD6018C91282F3327B2
:1033600027FD309580915C0190E081709070420162
:10337000881A990AA12EBB24A7FCB0948A149B0436
:1033800099F48091730183FF0FC0CF0180509C4F4F
:1033900062E070E00E94DD75CB01B9010E94C50EAC
:1033A0009C01220F331F05C0CF01B9010E94C50E39
:1033B0009C01FE01EE0FFF1FEE0FFF1FE751FD4FB7
:1033C000E0818E2F807F69F06E2F62956F70862F5F
:1033D00090E00B970CF06C5FC90140E00E94270E53
:1033E0009C01B901882777FD8095982FFE01EE0F8B
:1033F000FF1FEE0FFF1FE551FD4F2081269530E0A6
:1034000040E050E00E94AA7524E630E040E050E041
:103410000E9412768A149B0431F48091730183FF19
:1034200002C020503440E12FFF27E7FDF095EE0F5A
:10343000FF1FE60DF71D31832083219684E090E085
:10344000C80ED91ECE30D10509F026CFDF91CF911D
:103450001F910F91FF90EF90DF90CF90BF90AF90B2
:103460009F908F907F906F905F904F9008954F92B4
:103470005F926F927F928F929F92AF92BF92CF9204
:10348000DF92EF92FF920F931F93CF93DF9389E127
:10349000C82E81E0D82E0CED802E05E0902E12EC87
:1034A000A12E17E0B12E2401EE2400E010E0B1E0DF
:1034B0006B2E712CF02E802F0E941C0F9C01D601C8
:1034C0008D919C911197281B390B121613062CF421
:1034D0005C96ED91FC915D9705C0D6011E96ED912D
:1034E000FC911F97E436F10514F4E4E6F0E0B9012D
:1034F000882777FD8095982FAAE0660F771F881F91
:10350000991FAA95D1F79F01442737FD4095542F65
:103510000E941276E901BCEF21303B071CF4C0E0A9
:10352000DCEF06C0E4E020303E0714F0C0E0D4E059
:10353000D501CD93DC93CE010F964F9710F5043053
:103540001105BCF4E0915C01F0E0EE0FFF1FEE0FFF
:10355000FF1FE00FF11FE05DFA4FE4918E2F90E026
:103560000197F30102C0EE0FFF1F8A95E2F7CF012A
:1035700007C0C301002E02C0880F991F0A94E2F70A
:10358000E82AF3E0FF1508F459C080914604882327
:1035900009F054C00F5F1F4FC301002E02C0880FF7
:1035A000991F0A94E2F7015010408160209158075A
:1035B0003091590782239323892B09F43FC0F801E6
:1035C000EE0FFF1FEE5AFE4FF0808F2D807CB1F181
:1035D000EF2DEF73F0E0EE0FFF1FDF01A65BBE4F94
:1035E000E65AF84F608171812D913C91621B730BFB
:1035F000882777FD8095982FD601DA962C9133276E
:1036000027FD3095432F532F0E94AA7522E330E007
:1036100040E050E00E941276C901F294F694F694CC
:1036200023E0F222EF2DF0E0E130F10519F03297BE
:1036300029F403C0C80FD91F01C0EC01F201C193E6
:10364000D1932F010F5F1F4F22E030E0C20ED31E37
:10365000A20EB31E0730110509F02CCF8CED95E0BA
:103660000E94221918E2A12E16E0B12E00E010E00F
:10367000B2E04B2E512C612CA4E07A2ED401CD91D6
:10368000DC91802F6FEF0E943218602F0E94F80E9D
:103690006C0180915C0190E081709070F201E81BF8
:1036A000F90BE017F107B9F58091720183FF33C080
:1036B00080915E019601442737FD4095542F80FF8D
:1036C0000CC0C050DC4FBE01882777FD8095982F35
:1036D0002D573040404050400BC0B3016C1B7D0B58
:1036E000882777FD8095982F23583F4F4F4F5F4F86
:1036F0000E94AA7520E038E040E050E00E94127677
:10370000C901DA018030F8E09F07F0E0AF07F0E090
:10371000BF0741F406C080916F04882311F0CC24C8
:10372000DD24C601880F991FD5018D939D935D01FE
:103730000F5F1F4FE2E0F0E08E0E9F1E0430110578
:1037400009F09CCF8E2DDF91CF911F910F91FF90AB
:10375000EF90DF90CF90BF90AF909F908F907F9031
:103760006F905F904F9008959F92AF92BF92CF92CB
:10377000DF92EF92FF920F931F93CF93DF932CED85
:10378000E22E25E0F22E08E216E0C0E0D0E092E062
:10379000A92EB12C99249394CC2E80915C0190E0B9
:1037A000817090709501281B390B2C173D0749F14A
:1037B0008C2F6FEF0E943218D82E909246040E94F0
:1037C000371A10924604F80180819181F701208117
:1037D0003181820F931F62E070E00E94DD75AB01C2
:1037E000FEEF6C307F071CF44CE05EEF06C021E07A
:1037F000653F720714F044EF51E08D2D6C2D0E944F
:103800009210219682E090E0E80EF91E0E5F1F4FA5
:10381000C430D10509F682E00E94D45A80914D044B
:1038200080934B04DF91CF911F910F91FF90EF9008
:10383000DF90CF90BF90AF909F9008952F923F92CE
:103840004F925F926F927F928F929F92AF92BF92B0
:10385000CF92DF92EF92FF920F931F93DF93CF935C
:10386000CDB7DEB729970FB6F894DEBF0FBECDBF38
:103870009F838E830E941918182F0E94371A409137
:1038800075014823242F30E08091760690E082274E
:10389000932782239323892B21F080914D048093D9
:1038A0004B044093760680E094E09093EB05809380
:1038B000EA059093ED058093EC05809146048823FA
:1038C00079F180915C0190E08170907022E030E0AD
:1038D000281B390B1092DD051092DC0521303105D3
:1038E00021F01092DF051092DE052230310521F023
:1038F0001092E1051092E0051092E3051092E205A6
:10390000E4EFF5E01192119226E0E430F207D1F7EE
:1039100040E356E05A83498324E036E0FA0146C08A
:1039200064EF75E040E050E0FA01E65AF84FDA0142
:10393000A85EBE4F80819181D2962D913C91D39704
:10394000821B930B880F991FDB018D939D93BD0103
:103950004E5F5F4F4830510539F780916207909173
:103960006307880F991F9093FD058093FC05809154
:10397000640790916507880F991F9093FF058093C6
:10398000FE058091660790916707880F991F9093B5
:103990000106809300068091680790916907880F5F
:1039A000991F9093030680930206B2CF8081918184
:1039B000D9018D939D939D013496B6E0E837FB07BE
:1039C000A9F780915604882311F00E94AD1580E478
:1039D000E0E3F6E0DF011D928A95E9F710925707C0
:1039E00067E3462E67E0562E57EB852E56E0952E60
:1039F00047E7642E46E0742E1D82212E332408945E
:103A0000211C311C8D810E94A30D6C01FC01808161
:103A10008F7159F439E9432E32E0532E25EB33E010
:103A20003C832B832224332493C290E0419794F764
:103A3000D60117969C91892F807FC1F0892F85959B
:103A4000859585958595282F332727FD3095181660
:103A50002CF42216330609F069C208C0882799277A
:103A6000821B930B2816390609F460C2F601838184
:103A700061E00E94E213D2019C918823C1F4192FC6
:103A80001C92F6019181892F8850823008F04EC235
:103A900087818E70843009F449C2993019F01986F3
:103AA000188640C020E03CEF398728873BC010E0F3
:103AB000992309F411E081E0D2018C93F601818110
:103AC0008150A82FB0E0FD01EE0FFF1FE452FA4F26
:103AD0002081318139872887843168F03D818317BF
:103AE00050F4AA0FBB1FAA0FBB1FA05DB94F4D9189
:103AF0005C9159874887D6019C91892F807E91F0EF
:103B0000929596959770892F90E00197E1E0F0E00B
:103B100002C0EE0FFF1F8A95E2F7209157072E2B68
:103B200020935707D60118968C91882341F00E9464
:103B3000370DE885F985E80FF91FF987E887D60181
:103B400016968C911697882329F415968C918823C4
:103B500009F44EC1F4016081718182819381112346
:103B600091F420E031E040E050E00E941276509560
:103B70004095309521953F4F4F4F5F4FA884B984B2
:103B8000A20EB31E5CC0D60117968C9117978E704B
:103B9000843049F5EC91EF71F0E0EE0FFF1FEE5F1E
:103BA000F94F60817181882777FD8095982F20E0FB
:103BB00034E640E050E00E94AA75F401608371830E
:103BC00082839383D60112962C91222361F03327AE
:103BD00027FD3095432F532F0E941276F401208346
:103BE000318342835383D4016D917D918D919C915A
:103BF00020E031E040E050E00E9412765095409580
:103C0000309521953F4F4F4F5F4FA884B984A20E46
:103C1000B31EA114B10499F0F6018581B7FE829517
:103C20008F7090E09C0144E650E0249FC001259FE6
:103C3000900D349F900D1124D3018D939C93F3012B
:103C4000208131812115310551F08091560488235E
:103C500009F4C1C02150304031832083BCC0A1147D
:103C6000B10409F4C5C0F6018681882309F4C0C0F7
:103C700080915604882309F478C02281222329F4F4
:103C800060E070E080E293E018C0822F992787FD02
:103C9000909597FF03C0909581959F4F9C01442775
:103CA00037FD4095542F60E070E080E293E00E9481
:103CB0001276C901DA01BC01CD01D60116962C910C
:103CC0001A141B040CF52F70422F50E041155105BA
:103CD000D9F1E4E6F0E04E9F90014F9F300D5E9FDA
:103CE000300D1124442737FD4095542F0E94127641
:103CF00079018A01F40180819181A281B381E80E6A
:103D0000F91E0A1F1B1F2BC022952F70422F50E057
:103D100041155105C9F0A4E6B0E04A9F90014B9FC0
:103D2000300D5A9F300D1124442737FD4095542FF4
:103D30000E941276F401E080F18002811381E21A80
:103D4000F30A040B150B0BC028853985C901AA2776
:103D500097FDA095BA2FEE24F82E092F1A2FD40123
:103D6000ED92FD920D931C931397F4016081718184
:103D7000828193812885398579010027F7FC009598
:103D8000102F1A141B0464F420E031E040E050E0EE
:103D90000E941276E216F3060407150764F01BC0B2
:103DA00020E031E040E050E00E9412762E153F0501
:103DB0004007510784F448855985CA01AA2797FD11
:103DC000A095BA2FBA2FA92F982F8827F4018083A6
:103DD0009183A283B383D4016D917D918D919C9148
:103DE00020E031E040E050E00E94127639872887D9
:103DF000F6016481662339F08885998541810E94A6
:103E0000270E99878887D60117968C91179780FD82
:103E100013C01196EC91EE2379F0E53068F4F0E0F0
:103E2000EE0FFF1FEA5DF94F80819181E885F985EA
:103E3000E80FF91FF987E88728853985B9018827B0
:103E400077FD8095982FD60112962C91332727FD68
:103E50003095432F532F0E94AA759B01AC01F601A8
:103E600087818695877090E08130910571F000819F
:103E7000029709F046C00F71E02FF0E0EE0FFF1F30
:103E8000EE0FFF1FE45DF94F37C0D6010C910F71A3
:103E900010E0000F111F000F111F045D194FCA0120
:103EA000B90124E630E040E050E00E941276CA01F9
:103EB000B901F80120813181428153810E94AA75A4
:103EC000D8016D937D938D939C931397F601008198
:103ED0000F7110E0000F111F000F111F045D194F2B
:103EE000D8016D917D918D919C9120E034E040E06E
:103EF00050E00E941276F80120833183428353837D
:103F000015C00F71E02FF0E0EE0FFF1FEE0FFF1F47
:103F1000E45DF94F80819181A281B381820F931F6B
:103F2000A41FB51F80839183A283B383FD81FF5FAC
:103F3000FD830894411C511C24E030E0820E931E46
:103F400042E050E0640E751EF03209F05BCD62CDA8
:103F5000A981BA818D909D90AD90BC90C501B401AE
:103F600024E630E040E050E00E941276E981FA81D8
:103F70002083318342835383F101E053F84FC90119
:103F800020839183D20113962D913C911497119621
:103F90008C911197FAE08F02F0011124E851FC4F47
:103FA000F987E8878C914AE084023001112488E186
:103FB0009CEF680E791ECF015E2F492F2E173F0709
:103FC0001CF4C901522F492F852F942F8C010615FF
:103FD00017050CF4830181149104A104B10479F153
:103FE0009801442737FD4095542F181419041A04DA
:103FF0001B0464F4A885B985BD01882777FD8095E9
:10400000982F621B730B840B950B0BC0C301AA275F
:1040100097FDA095BA2F281B390B4A0B5B0BCA01E1
:10402000B901A50194010E94AA7520EA36E841E091
:1040300050E00E941276C901DA014C015D01C8010D
:1040400055E0959587955A95E1F7800F911F980156
:10405000232F330F330B2595820F931F000F012F52
:10406000001F110B801B910B6C01EE24D7FCE09418
:10407000FE2C8885998525E0959587952A95E1F709
:10408000E885F9858E0F9F1FA30105E0559547959B
:104090000A95E1F7B301660F672F661F770B460D90
:1040A000571D9F01232F330F330B2595820F931F2D
:1040B000EE0FEF2FEE1FFF0B8E1B9F0B8C012227A5
:1040C00017FD2095322FC80CD91CEA1CFB1C0C15BF
:1040D0001D052E053F0514F468017901CB01959566
:1040E000879595958795480F591F461B570BCA0111
:1040F000AA2797FDA095BA2F87017601E816F90641
:104100000A071B0714F47C018D01D20112968C91D1
:10411000882341F010950095F094E094E11CF11C87
:10412000011D111DEB81FC818081882381F060E0FD
:104130000E94E213882359F0AB81BC8111968C91C7
:104140000E94370D7C010027F7FC0095102FEE81AF
:10415000FF81E20DF31DF182E082E981FA8134965C
:10416000FA83E98322E030E0220E331E45E050E07E
:10417000440E551E8B819C8102969C838B83E05755
:10418000F64009F0E5CE29960FB6F894DEBF0FBED3
:10419000CDBFCF91DF911F910F91FF90EF90DF90F6
:1041A000CF90BF90AF909F908F907F906F905F90D7
:1041B0004F903F902F900895CF92DF92EF92FF9211
:1041C0000F931F93DF93CF93CDB7DEB7A0970FB6B2
:1041D000F894DEBF0FBECDBF81E0809346048E0110
:1041E0000F5F1F4FC8010E941E1C10924604F80169
:1041F000ACE9B2E09E012F5D3F4F8081918143E0A9
:10420000883E94071CF088EE93E006C04CEF89319D
:10421000940714F488E19CEF11969C938E93329648
:104220001596E217F30749F700E010E082E0C82E88
:10423000D12CE02E80915C0190E08170907096010D
:10424000281B390B2017310791F0FF248F2D6E2D7D
:104250000E94F80E855F914034F48F2D6E2D40E062
:1042600050E00E949210F39445E0F41679F70F5F46
:104270001F4F04301105E9F682E00E94D45A809164
:104280004D0480934B04A0960FB6F894DEBF0FBE8A
:10429000CDBFCF91DF911F910F91FF90EF90DF90F5
:1042A000CF900895CF92DF92EF92FF920F931F93DA
:1042B000DF93CF93CDB7DEB7C054D0400FB6F8949C
:1042C000DEBF0FBECDBFF8942091830D3091840DD9
:1042D000789440E080917807909179072817390702
:1042E00009F041E040935604F8948091830D909139
:1042F000840D789490937907809378070E94191819
:10430000582F80917707851739F190E02DE030E044
:10431000829FF001839FF00D929FF00D1124E450D5
:10432000FC4F408142954F70852F90E0829FF001B5
:10433000839FF00D929FF00D1124E450FC4FE0811B
:10434000EF70E41708F4E42F8AE0E89FC00111241D
:10435000809376075093770780917607882349F0FA
:10436000DE011196E4EFF7E080E201900D928150BA
:10437000E1F78E010F5D1F4FC8010E941E1C409186
:104380007607F8017E010894E11CF11C04EF17E0A8
:1043900080E2C82ED12CCE0EDF1EF8948081918150
:1043A000442381F0D7012D913C91821B930B642F04
:1043B00070E00E94DD75260F371FD8012D933C93C6
:1043C000415003C0D8018D939C937894329682E03B
:1043D00090E0E80EF91E0E5F1F4FEC15FD05E9F6A3
:1043E000409376078091580D882381F48091860848
:1043F000882329F08EE798E00E94DC6107C0809155
:104400009008882319F080E00E94DA5A80915604BF
:10441000882309F4A7C180916B048823A1F09091AF
:104420006C04892F8F5F80936C04843660F0935600
:1044300090936C0480916D0490916E04019690931A
:104440006E0480936D040E946F168091F20788239A
:1044500019F081508093F20780915D01882309F45F
:1044600066C080915504823308F461C08091700663
:1044700090917106A0917206B09173060196A11DEC
:10448000B11D8093700690937106A0937206B0934D
:10449000730600E010E0FF248F2D0E941C0FB6E091
:1044A00096958795BA95E1F7080F191FF39494E054
:1044B000F91691F7809174069091750608171907FF
:1044C00061F01093750600937406109270061092B6
:1044D00071061092720610927306E0907006F090CA
:1044E0007106009172061091730660915D0170E093
:1044F00080E090E020E737E140E050E00E94AA75BC
:104500006E157F058007910790F48FE390E0A0E09F
:10451000B0E0E822F9220A231B239AE0E916F1040D
:104520000105110521F480914F0480934B04809183
:104530006F04882319F0815080936F040E94846B6C
:104540000E94DF6B0E946218182F8091570490918F
:104550005804009729F001979093580480935704CA
:10456000112389F08091600190E024EF31E0DC01BB
:10457000A29FC001A39F900DB29F900D1124909314
:104580005804809357048091490160E00E94E2132F
:10459000882339F48091570490915804892B09F4A9
:1045A000DFC0C79A80915C0490915D042091CE0792
:1045B0003091CF07821B930B60E270E00E94DD75A3
:1045C00070931508609314086115710591F080913E
:1045D000740790917507821B930B62E070E00E9454
:1045E000DD75709315086093140830935D04209373
:1045F0005C048091CE079091CF07909375078093CC
:104600007407E0912508F0E0EE0FFF1FE95EF74F19
:104610000190F081E02D812F09950E94E3690E94AD
:10462000B10F882321F0809165008F7E03C08091B7
:104630006500806180936500F8948091830D90916E
:10464000840D78948F7190708230910521F00397DA
:1046500009F088C06EC08091530490915404892B56
:1046600039F487E00E941C0F909354048093530404
:1046700080915304909154048C01E3E0000F111FCA
:10468000EA95E1F7081B190B87E00E941C0F800FC9
:10469000911F73E0969587957A95E1F77C0100E08C
:1046A00010E09093540480935304209148013327E1
:1046B00027FD3095432F532FC801B7010E94AA75DB
:1046C00028E030E040E050E00E94127664E0EE0C1A
:1046D000FF1C001F111F6A95D1F7E20EF31E041F85
:1046E000151F209151043091520440E050E0C80160
:1046F000B7010E9412762093550480917307805E63
:1047000080937307882371F580914701281750F52E
:10471000223340F18091500480934B0480915E01DC
:1047200083FF20C082E390E0909358048093570465
:1047300019C080915B01869586958695877090E07B
:10474000BC01660F771F660F771F680F791F605CCB
:104750007A4F8CE494E045E050E00E942D7602C050
:10476000C79820CFC05CDF4F0FB6F894DEBF0FBEF6
:10477000CDBFCF91DF911F910F91FF90EF90DF9010
:10478000CF9008951F93CF93DF939FEF9ABB1BBAEF
:1047900081E887BB8EE788BB8EE384BB81EC85BB59
:1047A00011BA92BB88E082B987EF83B91092610099
:1047B0001092620080E180936400909365000E94F3
:1047C000A56980E487B985E886B987E083BF8CE96D
:1047D00081BF87B7836087BF8AE08EBD82E8809300
:1047E0008A0080917D00806280937D00EDB7FEB7E6
:1047F000329785E502C0808331974EE0E930F407B7
:1048000009F0C8F778948BEA92E5909318088093A2
:10481000170888E997E490931A088093190889E1AA
:104820000E94D9690E948B700E940460109145011A
:1048300004B603FC0CC00E9494170E94F9160E9453
:104840008D0F0E9444170E9408170E94ED160E94C7
:10485000F41184EF97E00E941E1C809146010E9493
:10486000D9698091600190E024EF31E0AC01429F72
:10487000C001439F900D529F900D112490935804B6
:104880008093570480914501181719F081E00E9428
:10489000D45A0E94CB2687B7806187BF2DE088E17C
:1048A00090E00FB6F894A89581BD0FBE21BD0E947F
:1048B000FD0FEC01E0915F01F0E0EE0FFF1FE05013
:1048C000FF4F0190F081E02D09950E94A10F0E94F9
:1048D000522180916B07833019F4A89510926B07D1
:1048E0000E94FD0F20914104309142048C1B9D0BCE
:1048F0008217930708F4C9019093420480934104FE
:10490000D6CFFC01A0912508B0E0AA0FBB1FA95E7D
:10491000B74FED93FC938FEB099580914C048093F6
:104920004B0408956F927F928F929F92AF92BF92A5
:10493000DF92EF92FF920F931F93CF93DF938091BB
:10494000730185FD04C0A12C14E0B12E03C0A12C7D
:10495000B5E0BB2EE0917201E595E595E595E5950D
:10496000EE0FE85F9091740184E69802C001112473
:10497000A8E5EA2EA2E0FA2EE80EF91EEA3028F4A5
:1049800048EC5FEA4E195F090DC08853904F2E2FF7
:1049900030E0829FA001839F500D929F500D112403
:1049A000405C504EC4EFD7E0ACEEB4E06E2F70E048
:1049B000660F771F6C0F7D1F882499248A189B0827
:1049C000662477246E187F0808E512E00E191F0987
:1049D00023C028813981C501DA2CF92F2A153B051E
:1049E0001CF4C901D22EF92F8D2D9F2F8815990502
:1049F0000CF4C401805A964F9301281B390B420FC7
:104A0000531F1196FC92EE92800F911F13969C9368
:104A10008E93129722961496C617D707D1F6EE0FEB
:104A2000AE2FB0E0AA0FBB1FA451BB4FED92FC927A
:104A3000EF5FAE2FB0E0AA0FBB1FA451BB4F4D9349
:104A40005C93EF5FF0E0EE0FFF1FE451FB4F11822C
:104A50001082DF91CF911F910F91FF90EF90DF9027
:104A6000BF90AF909F908F907F906F900895A0918E
:104A70002808B0912908FD018193919313967C93A6
:104A80006E9312973296F0932908E09328080895C0
:104A9000882329F060E679E080E699E004C060EBC5
:104AA00074E080EB94E00E94372508951F93182F3F
:104AB00082700E944825812F81700E9448251F9195
:104AC0000895EF92FF920F931F93CF93DF938091FE
:104AD0007201877090E08130910519F0029719F406
:104AE00004C010E003C011E001C012E02091F407FF
:104AF0003091F50720503C4F220F331F8091F6076D
:104B00009091F70780509C4F880F991F892F232F72
:104B100037FD20E087FD80E0022F20310CF00FE010
:104B2000F82E8FE08F1514F44FE0F42E2F2D33273D
:104B300027FD3095802F992787FD9095099682173C
:104B4000930714F40F2D0950C02FDD27C7FDD09512
:104B5000275F3F4F2C173D071CF437EFF32EF00E65
:104B60008CEE94E0909329088093280880E797E1E1
:104B700060EB74E00E94372580E00E94562580E6B5
:104B800099E060EB74E00E94372580E699E060EBE5
:104B900074E00E943725812F0E9456251195CE0181
:104BA0009595879595958795E82E0E9456251E190F
:104BB000802F0E945625101B8F2D992787FD9095D9
:104BC0009595879595958795082F0E945625101BDA
:104BD0008F2D0E945625812F8F190E94562580E027
:104BE0000E94482580912808909129080297909367
:104BF00029088093280880E69AEE60E070E00E9421
:104C00003725DF91CF911F910F91FF90EF9008957D
:104C1000882329F080E293E060E476E004C080E439
:104C200096E060E273E00E94372508950F931F938A
:104C3000082F10E0802F81700E9408261F5F0695C4
:104C40001830C1F71F910F9108950F931F938CEEA9
:104C500094E0909329088093280880912A0891E095
:104C6000892780932A08882309F44FC08091F4078C
:104C70009091F507885F9B4F34E0969587953A951C
:104C8000E1F78038910510F08FE790E0182F209120
:104C9000F6073091F70737FD0FC0C901409625E0B0
:104CA000969587952A95E1F78034910510F08FE36A
:104CB00090E0082F00640FC080E190E0821B930B0E
:104CC00005E0969587950A95E1F78034910510F0F7
:104CD0008FE390E0082F812F0E941626802F0E94DC
:104CE00016260127802F90E09C01B4E0359527958A
:104CF000BA95E1F7A4E0880F991FAA95E1F7822BF6
:104D00000E94162680E197E22BC08091F8079091CF
:104D1000F90780509C4FF4E096958795FA95E1F756
:104D20008038910510F08FE790E0082F0068802F01
:104D30000E9416268EE80E9416268EE8082710E0AC
:104D4000C801E4E095958795EA95E1F774E0000FD6
:104D5000111F7A95E1F7802B0E94162680EB96E3CF
:104D600060EA7FE00E943725E0912808F091290849
:104D700011921192F0932908E0932808EC5EF44018
:104D8000E03FF1052CF08FE496E060E00E94AA1667
:104D90001F910F91089580917201877090E0843087
:104DA000910534F4813091054CF4892B21F008955C
:104DB000049749F406C00E94922408950E94612538
:104DC00008950E94252608959C0190912508E92FB9
:104DD000F0E0EF5DF74F809126088083E92FEF5FC9
:104DE000E0932508E53040F09093250882E696E0B0
:104DF00060E00E94AA16089580914C0480934B04B1
:104E0000F0E0EE0FFF1FE95EF74F318320838FEB59
:104E1000F90109950895E0912508EE23D1F0E150BC
:104E2000E093250880914C0480934B04109227084E
:104E3000F0E0DF01AF5DB74F8C9180932608EE0F55
:104E4000FF1FE95EF74F0190F081E02D8EEB099591
:104E5000089585E796E060E00E94AA1608958F9273
:104E60009F92AF92BF92CF92DF92EF92FF920F93F9
:104E70001F93CF93DF93182F7B014A015901C02E56
:104E800084FD04C074E0D72E05E005C01F701066D5
:104E900065E0D62E04E08D2D8066181761F08D2D0B
:104EA0008064181741F09091F107992361F013364F
:104EB00011F0133441F4E701219680914C04809362
:104EC0004B04802F17C0802F8066181761F0802F49
:104ED0008064181741F0992309F475C0123619F04F
:104EE000123409F070C0E701219780914C0480933F
:104EF0004B048D2D90E00E947B6C882351F0CC27D1
:104F0000DD27CE19DF09802F0E94026D8D2D0E94B2
:104F1000026D8114910491F481E0A816B10471F43A
:104F2000103661F41092F107C0E0D0E0E114F10412
:104F300011F4C1E0D0E080E60E94026D8091140877
:104F400090911508C81BD90BAC16BD0644F4812FEF
:104F50000E94026D80914E0480934B04E501C815B8
:104F6000D90544F4812F0E94026D80914E048093F4
:104F70004B04E401CE15DF05B1F0209739F4812F01
:104F80000E94F36C80914C0480934B048C2D8370B1
:104F90000E94D45AEC16FD0614F08FEF01C081E098
:104FA0008093160802C010921608CE01DF91CF91AF
:104FB0001F910F91FF90EF90DF90CF90BF90AF9037
:104FC0009F908F900895E701A4CF0F93772767FDF7
:104FD0007095552747FD5095332727FD309501E003
:104FE0000E942F270F9108950F93772767FD7095E3
:104FF000552747FD5095332727FD309502E00E9445
:105000002F270F910895FF920F931F93F82E162FBD
:10501000042F80E860E0412F50E0202F0E94636859
:105020001A3010F485E701C08FE660E04FE2202FD0
:105030000E9457651A3010F485E701C08FE64F2DA6
:1050400050E04F5F5F4F60E0202F0E9463681F9128
:105050000F91FF900895AF92BF92CF92EF920F936E
:105060001F93DF93CF930F92CDB7DEB7982F5A01DE
:105070004115510509F44AC080912608882309F09A
:105080003CC08091F307882309F037C09436F1F0D3
:10509000953611F042E032C0662361F081E090E085
:1050A000861B9109880F991FFA01E81BF90B85915E
:1050B00094911BC081E090E0821B9109880F991F99
:1050C000FA01E81BF90B859194910FC070E0822FD3
:1050D00090E001976817790764F4FB013196EE0FB1
:1050E000FF1FE40FF51F859194910E94812480E0B9
:1050F00020C1FA0185919491F8CF40E01092F30716
:10510000862F622F99830E9403289981011511052A
:1051100011F420E00AC0809126082E2D8E1508F487
:10512000282FF801E20FF11D2491903669F1913694
:1051300090F4933409F4ADC0943430F4913299F181
:10514000923409F0D6C07AC0943409F449C0953439
:1051500009F0CFC05BC0943609F447C0953638F4E7
:10516000923609F470C0933609F0C3C096C09138E6
:10517000B9F09F3B21F0953609F0BBC04CC01092AE
:1051800027081092260813C0222309F4B2C090E029
:105190008091F107882309F491E09093F107A9C069
:1051A0001092F1070EC08091F107882319F0109238
:1051B000F1079FC080912608882319F0A114B1043B
:1051C00019F40E940B2795C080914C0480934B04E6
:1051D000109227081092260880E68093850D8DC0D6
:1051E00080912708821709F484C0012B09F481C03B
:1051F0008091F107882309F07CC0809127088217ED
:1052000010F48F5F15C01092270870C08091270896
:10521000882309F46EC0012B09F46BC08091F1075B
:10522000882309F066C080912708882321F08150E7
:10523000809327085BC02093270858C080912608D8
:105240008C1509F456C08091F107882309F051C0EC
:10525000809126088C1510F080E001C08F5F011549
:10526000110509F470C0982FE81608F49E2DF80176
:10527000E90FF11DE491EF3F09F065C0EBCF80919C
:1052800026088E1508F4E82E0E0D111DF801049164
:1052900028C080912608882361F18091F107882336
:1052A00041F580912608882311F48C2D01C081508E
:1052B0000115110509F450C0982FE81608F49E2D29
:1052C000F801E90FF11DE491EF3F09F045C0EBCF84
:1052D000809126088E1508F4E82E0E0D111DF80198
:1052E0000491901708F4092F0093270880E6809313
:1052F000850DAB2811F456E001C057E04091260817
:10530000442319F41092F00713C0242F30E0809149
:10531000F007281B3109852F90E08217930714F4BA
:10532000451B04C0121613061CF041504093F007B1
:1053300081E00F90CF91DF911F910F91EF90CF906F
:10534000BF90AF900895809326089091270801158B
:10535000110509F094CF08C0809326089091270882
:105360000115110509F0B4CF00E0BECFCF92EF9246
:105370000F931F93C02E00E010E0EE240E942B2814
:105380001F910F91EF90CF9008950F93062F60E03B
:1053900040E050E020E00E94B6290F9108950F935D
:1053A000942F222311F400E001C002E043E0949F17
:1053B000A00111244757594F23E00E94096A0F9119
:1053C00008950F93942F222311F400E001C002E00E
:1053D00043E0949FA00111244057594F23E00E94BD
:1053E000096A0F910895DC01FB0105C09C91808141
:1053F0008D93919341504423C9F70895CF92DF9242
:10540000EF92FF920F931F93CF93DF93182F80E0BB
:1054100060E047E157E022E00E941266812F6BE0D6
:1054200047E956E02CE008E00E94B629882309F4F9
:1054300065C0F0902608FA941038A9F480E80E941C
:10544000026D89E18093F20786E08F1518F08F2DA9
:105450000E94AF7187E0F81611F40E943E718091AE
:105460004D0480934B0418E0EE24CF2CDD24C7FCC0
:10547000D0944091F0074E0D473019F4193370F174
:105480003DC0C42FD0E0CC16DD0611F020E101C0F4
:1054900022E1AE014F5F5F4F82E1612F02E00E9487
:1054A00062678091F207882319F4CC16DD0609F0B3
:1054B00000E0AE01440F551F4C0F5D1F440F551FF8
:1054C000440F551F4E53594F88E1612F2CE00E9425
:1054D000096A185FE394103461F610C08091F207F6
:1054E000882329F487E0F81611F422E001C020E0B7
:1054F00086E0612F4FEA56E00E941266DF91CF915D
:105500001F910F91FF90EF90DF90CF9008952F9211
:105510003F924F925F926F927F928F929F92AF9243
:10552000BF92CF92DF92EF92FF920F931F93DF9380
:10553000CF93CDB7DEB760970FB6F894DEBF0FBE3E
:10554000CDBF8D8780E060E044E657E022E00E9416
:1055500012668D856AE047E956E02CE00EE617E01A
:105560009BE0E92EBCE0CB2E0E942B28882309F477
:10557000B4C3109126082D85203669F0213630F409
:10558000822F8252843008F091C085C03D8530382A
:1055900009F08CC045C0133001F580913104209191
:1055A0003204922F9F708C599F4F9F7064E670E079
:1055B0000E94DD7584E690E0AC01649FC001659FA8
:1055C000900D749F900D112480933104892F8F705A
:1055D000207F282B209332045AC0193009F066C06E
:1055E0008091380420913904922F9F708C599F4FDD
:1055F0009F7064E670E00E94DD7584E690E0DC0157
:105600006A9FC0016B9F900D7A9F900D112480932B
:105610003804892F8F70207F282B2093390437C0BE
:10562000133011F4E0E004C0193009F03FC0E1E0AC
:105630004E2F50E0FA01A3E0EE0FFF1FAA95E1F70D
:10564000E41BF50BEF5CFB4F20818181382F3F700D
:10565000B2E024393B0718F484E992E008C02852EC
:10566000354018F080E090E002C088E295E0FA0151
:1056700073E0EE0FFF1F7A95E1F7E41BF50BEF5C8B
:10568000FB4F80839F708181807F892B818382E0A3
:105690000E94D45A0BC08091F107882339F014304E
:1056A00029F01A3019F084E08093F30D8091F1070E
:1056B000882319F4F2E0FA8302C021E02A8366E32A
:1056C000462E64E0562E49EA5DE058874F83188ADB
:1056D0001F8684E090E09C878B87A3E0B0E0BA87C8
:1056E000A987E2E0F0E0FE83ED8321E030E03C8337
:1056F0002B83612E772467FC70943A81306E3E874D
:105700008091F0074B818417C8F40B811C81081B22
:10571000110953E0000F111F5A95E1F780E0602F47
:1057200049E557E020E00E9412664F8558894F5F97
:105730005F4F8CE0602F20E00E9463688091F0074B
:105740005D81851708F059C06D817E81681B7109E4
:1057500043E0660F771F4A95E1F7162F84E044E592
:1057600057E020E00E941266EF85F88933E0EE0FE3
:10577000FF1F3A95E1F78F859889E81BF90BEE5CDE
:10578000FB4F808182958F70AD81BE816A167B064A
:1057900011F000E001C002E090E0AC01440F551FA1
:1057A000440F551F480F591F475B584F8AE2612F1E
:1057B00025E00E94096AED81FE816E167F06E9F4FC
:1057C0000F85188983E0000F111F8A95E1F72F8557
:1057D0003889021B130B0E5C1B4FD8016C9162952C
:1057E0006F708D8540E021E00E94F4278295807FD4
:1057F000F80190819F70982B90838091F007F98534
:105800008F1708F08EC069857A85681B710913E0CF
:10581000660F771F1A95E1F7162F84E044E457E0EE
:1058200020E00E941266EF85F889B3E0EE0FFF1FBB
:10583000BA95E1F72F853889E21BF30BEF5CFB4F3C
:10584000408151815F7089859A856816790611F0CB
:1058500020EE01C022EE8BE2612F00E00E94626721
:105860008091530D612F46E70E940E66EF85F889FF
:10587000A3E0EE0FFF1FAA95E1F7AF85B889EA1BF9
:10588000FB0BEE5CFB4F808182958F7011F580E6FB
:10589000612F4F85EF81F885208100EE0E94A9706D
:1058A00085E4612F40E457E00E944D661D5F87E567
:1058B000612F47E020E00E94F86611508CE5612FCF
:1058C00040E00E9487661E5F8CE5612F40E00E94E9
:1058D000876629853A856216730619F5EF84F8887C
:1058E000F3E0EE0CFF1CFA95E1F74F855889E41AB6
:1058F000F50A81E394E0E80EF91ED7016C91119648
:105900007C917F708D8540E050E02FEF3FE002E01A
:105910000E942F27F70180839F708181807F892BD0
:105920008183EB848091F0078E1508F07FC06B8532
:105930007C85681B7109E3E0660F771FEA95E1F744
:10594000162F84E04AE357E00E944D66FF84D2019F
:105950002C91EB85FC856E167F0631F4809127082B
:10596000882311F40E8501C000EE8BE2612F4F2DCC
:105970000E94A9708091530D8A5F612F47E357E021
:105980000E944D669091530DD20111962C91EB859A
:10599000FC856E167F0631F480912708813011F462
:1059A0000E8501C000EE892F8A5F612F4F2D0E9466
:1059B000A9702B853C8562167306C1F58091270876
:1059C000882309F084C18091F107882339F48091FC
:1059D000140890911508892B09F479C1D2016C91B2
:1059E00011962C918D8570E040E050E030E002E0AF
:1059F0000E942F27F20180836AC18091F1078823DA
:105A000031F48091140890911508892B79F0D20116
:105A100011966C9111974C918D8570E050E02FEFAD
:105A200030E002E00E942F27F2018183E394E982B3
:105A30008F85988973E0880F991F7A95E1F72F85F4
:105A40003889821B930B63E3262E64E0362E280EE2
:105A5000391EEE24FF2455E3C52E54E0D52EC80E82
:105A6000D91E8091F0073981831708F0F6C0A32E64
:105A7000BB248501081B110943E0000F111F4A9543
:105A8000E1F7102F84E0602F41E357E020E00E940F
:105A900012664E2D4F5C8091530D602F0E940E6652
:105AA000D6019C919F704701880C991C6A147B0455
:105AB00031F480912708882311F40A8101C000E0A5
:105AC000892F90E0082C02C0959587950A94E2F7FB
:105AD00083709070AC01440F551F480F591F4C5DE7
