:100000000C94180D0C94350D0C94350D0C94350D85
:100010000C94350D0C94350D0C94350D0C94350D58
:100020000C94350D0C94350D0C94350D0C94350D48
:100030000C94F6100C94350D0C94350D0C946B113A
:100040000C941B100C94350D0C94DC700C94746F94
:100050000C94350D0C94350D0C94566C0C94350D98
:100060000C94350D0C943A100C94350D0C94350D00
:100070000C94350D0C94350D0C94350D0C94350DF8
:100080000C94350D0C94350D0C94350D804000000A
:1000900000000000000000000000000000F0080464
:1000A0000484444444444444444444444444444410
:1000B00044C4040488700000000000000000000038
:1000C000000000000404FC040400E050506000FE46
:1000D00000E050506000F01010E01010E000E05020
:1000E000506000FC1000F020100010E000E0100054
:1000F00000000018242424C400E050506000F020C8
:100100001000F400E05050600030509000000000FB
:1001100000000000000080808080808080BF8080A0
:1001200080BF808080800000304848484848484868
:100130004888090908F000000000000000000000E5
:1001400000000000000001000000000101010001AA
:1001500000000101010081F01819F0800100000188
:1001600001212020212021202020202423202020A4
:1001700020202021E12121202020212121202120B7
:1001800020202120202121212081C1010000000008
:1001900000F8FEFFFFFF0F0707070707073747872E
:1001A00087879797075FDFDFDFDED880101010109A
:1001B000100F0080403F80C0E0E0E06020000000C1
:1001C0000000000000000000000000007058484CD3
:1001D0004C474744464243FF0000FF4342464447E2
:1001E000474C4C48587000000000000000E0B01878
:1001F0000C0406878FBFEEFEF67E3C1C0C0C0C0C2C
:100200000C0C0C0C0C0C0C0C0E1F39608000000048
:10021000000107070F0F0F0E1E1E1E1E1E1E0E0EC4
:100220000E0E0E8ECEEEFCF973270F1F3F7EFCF9EB
:10023000F1F1F9FC3E1F0F07030100000000000070
:1002400000000000000000000000000000000000AE
:10025000000000008080407F00007F408080000020
:100260000000008080C0C040C0C0808810101D17F2
:1002700011111313131311171D101010000000009B
:10028000000000C0000000000000000000000000AE
:100290000000000000040C1C1C1C1C1C1E1E1E0E5A
:1002A0000E0F070703030180C0E0F0F87C3E1F0F2C
:1002B00007070F1F3F7EFCF8F0E0C0800000000041
:1002C000C020202020002020E0202000E0008040EE
:1002D0002000000302020202040402020202C140E2
:1002E00040FC3F7BB1E0AEA8EAEEA17B7FFC404042
:1002F000C0000000000000000000000080C0E0F02E
:10030000F8FCFFFF0000FEF8C00000000000000045
:1003100000000000000000000000000000000000DD
:10032000000000000C0E0F0F0F070301000000007B
:10033000000000000000000103070F0F0F0E0C006B
:1003400008090909060000000F0000000F0102045F
:1003500008000000000000000000000000000F384E
:1003600038FF9580B282FAAAFA82F29095FF383867
:100370000F00000000008010B074F67777F777F771
:1003800077F777F774F677F777F634B01000000058
:10039000000000000000000000000000000000005D
:1003A000000000000000000000000000000000004D
:1003B000000000E000000000E0000000000000007D
:1003C000000000000000000000000000000000002D
:1003D0000000000000000000000000000030282C99
:1003E000242F3F3607361F0E1F3607363F2F242C8B
:1003F000283000000000000100C1C0414140C1C0E0
:10040000414041C0C140C1C1C1C041C0C1000000A4
:10041000007F11110E000E11110E0007180C030EB3
:100420001807000E151516001F02010E15151600EF
:100430000E11111F000000001F11110E00014E309F
:100440000E01000000000E11110E007F11110E00B0
:100450000E151516001F01011E00000000131519CE
:10046000000E11110E000F10101F001F02010E11BF
:1004700011000E1515160000003F302F2F2B323FB4
:10048000203B3B3C3F202F2F3F262B2C3F00005290
:10049000554420454C45205448522041494C205257
:1004A00055442054485220454C452041494C204158
:1004B000494C20454C452054485220525544204137
:1004C000494C2054485220454C4520525544200068
:1004D00001020304010204030103020401030402F4
:1004E00001040203010403020201030402010403E4
:1004F00002030104020304010204010302040301D4
:1005000003010204030104020302010403020401C3
:1005100003040102030402010401020304010302B3
:1005200004020103040203010403010204030201A3
:100530000102030401030204040203010403020193
:1005400000000000000001081E640101081E640193
:10055000010F32960A0A1E329603010200040506B4
:1005600007707265737320616E79204B6579004165
:100570004C455254004D45535341474500506C651E
:10058000617365207265736574207468656D0053CE
:1005900077697463686573206E6F74206F66660098
:1005A000416C61726D732044697361626C656400B3
:1005B0005265736574207468726F74746C6500544E
:1005C00068726F74746C65206E6F742069646C65FA
:1005D00000507265737320616E79206B65792074A9
:1005E0006F20736B697000414C4552540045455073
:1005F000524F4D206C6F77206D656D005F2D2E2C56
:1006000000564552533A2056312E322D6772757678
:10061000696E00444154453A20323031312D313039
:100620002D32350054494D453A2032303A30383A6F
:100630003334002053564E3A206672736B792D7214
:10064000313138380020424C443A20323431007085
:10065000756C736520746162206F766572666C6F6D
:1006600077006D656E75537461636B206F7665728C
:10067000666C6F77006D656E75537461636B207582
:100680006E646572666C6F77002D2D2D494E560095
:100690004F46464F4E200059489A44AC413F3F3A9E
:1006A0003F4D328D31E52F2F2F902E912A052A4371
:1006B0004C454152204D49584553205B4D454E55C0
:1006C0005D0053696D706C6520342D434820542DB6
:1006D00043757420202020202020562D5461696C01
:1006E000202020202020456C65766F6E5C44656C70
:1006F0007461654343504D20202020202020486510
:100700006C692053657475702020536572766F2074
:100710005465737420200054454D504C415445534A
:10072000003C3E002D2D2D59656C4F72675265645B
:1007300000416C61726D00746F00472E426172005F
:1007400063616C004D61785600566F6C7473726112
:100750007720200054797065004120206368616E25
:100760006E656C0054454C454D455452590000FF90
:100770000000010202FF01000102534146455459A5
:100780002053574954434845530000012D2D2D2D2A
:1007900020202020202020202020547261696E65B6
:1007A0007220202020202020547261696E65722002
:1007B000525544202020547261696E657220454C68
:1007C00045202020547261696E6572205448522081
:1007D0002020547261696E65722041494C202020AE
:1007E000496E7374616E74205472696D2020547266
:1007F000696D73324F666673657473200046554E9B
:100800004354494F4E2053574954434845530000E1
:10081000012D2D2D2D202020763E6F667320207611
:100820003C6F667320207C767C3E6F66737C767CA2
:100830003C6F6673414E44202020204F52202020E0
:100840002020584F522020202076313D3D76322006
:100850007631213D76322076313E76322020763157
:100860003C7632202076313E3D76322076313C3D5A
:1008700076322000535700435553544F4D20535761
:1008800049544348455300000243560043555256CD
:10089000455300434F5059205452494D205B4D451C
:1008A0004E555D002D2D2D494E56004C494D495455
:1008B00053000003030303030303030303030303BE
:1008C0000303032F3332002F3134004D4958455272
:1008D0000044522F4558504F002B3D2A3D3A3D00D1
:1008E000536C6F772020557000536C6F7720204435
:1008F0006F776E0044656C61792055700044656CBB
:10090000617920446F776E004164642020202020AC
:100910004D756C7469706C795265706C616365209B
:10092000004D756C747078004F4646005761726ECA
:10093000696E6700462E506861736500537769746D
:10094000636800437572766573004F4E204F4646CC
:10095000005472696D004F6666736574005765696F
:1009600067687400536F757263650045444954208D
:100970004D49582000494E53455254204D49582066
:10098000005765696768744578706F20205068610A
:100990007365205377746368205768656E20204321
:1009A00075727665202020202020200044522F459B
:1009B00058504F002D2D2D783E30783C30004E6F32
:1009C0002066726565206D6978657221004E6F2022
:1009D00066726565206578706F21005052455345F9
:1009E0005400454449542D3E004355525645000994
:1009F00000436865636B20202020205472696D736A
:100A0000002864656661756C742900464C49474846
:100A100054205048415345530046616465204F754A
:100A200074004661646520496E005472696D7300FC
:100A3000537769746368004E616D6500454449549D
:100A400020464C4947485420504841534500060031
:100A500003504F534E4547005368696674205365F1
:100A60006C00755365630034434820364348203892
:100A700043482031304348313243483134434831D0
:100A80003643480050504D20202053494C565F417A
:100A900053494C565F4253494C565F43545241436D
:100AA00030390050726F746F005245544131323307
:100AB00000426565702043747200452E20547269AF
:100AC0006D7300452E204C696D6974730045787014
:100AD000202020457846696E6546696E6520204D68
:100AE000656469756D436F61727365005472696DF9
:100AF00020496E6300542D4578706F00542D547258
:100B0000696D00436F756E7420446F776E436F7527
:100B10006E7420557020200054696D657220005459
:100B20007269676765720054696D6572004E616D28
:100B300065005345545550000009010000000000B5
:100B40000000060244454C455445204D4F44454C59
:100B50000066726565004D4F44454C53454C005B43
:100B60004D454E555D202020205B455849545D0081
:100B70005B455849545D0012081200081C0808081B
:100B80001C080000082200490022080000000000A4
:100B9000227F2200000008220049002208000008ED
:100BA000220049002208000000227F2200000000ED
:100BB00000082200490022080000081C0808081C40
:100BC0000800B74E474D044D674CEE4BD84A205BAA
:100BD0004D454E555D205748454E20444F4E4520CB
:100BE00000204D4F564520535449434B532F504FEF
:100BF00054532000202020534554204D4944504F49
:100C0000494E5420202000205B4D454E555D205418
:100C10004F20535441525420200043414C494252EA
:100C20004154494F4E004131413241334134413505
:100C300041364137413800414E41005472696D2DB3
:100C4000202B00204D656E75204578697420446F17
:100C5000776E20202055705269676874204C656655
:100C600074004449414700454550524F4D2076009D
:100C700056455253494F4E0043616C004D756C749C
:100C800069706C69657200636831636832636833E8
:100C9000636834006F6666202B3D203A3D006D6F1F
:100CA0006465202020252073726300536C61766593
:100CB00000545241494E4552000002020202004DCA
:100CC0006F6465005278204368616E6E656C204FDA
:100CD0007264004E4F204441544120416C61726D5A
:100CE00000416C61726D205761726E696E67004DD4
:100CF000656D6F7279205761726E696E6700446F1F
:100D0000776E4F46462055702020005377697463F4
:100D100068205761726E696E67005468726F7474F0
:100D20006C65205761726E696E670053706C6173F9
:100D3000682073637265656E004F4646004C6967B4
:100D40006874206F6666206166746572004C69671E
:100D500068742073776974636800466C61736820F7
:100D60006F6E2062656570004265657020636F7507
:100D70006E74646F776E004D696E75746520626580
:100D80006570005468726F74746C65207265766566
:100D90007273650053494E474F534D5046494C546A
:100DA0000046696C7465722041444300496E61637A
:100DB00074697669747920616C61726D0042617446
:100DC00074657279207761726E696E6700436F6E29
:100DD00074726173740051756965744E6F4B6579F7
:100DE0004E6F726D204C6F6E6720784C6F6E67008F
:100DF00042656570657200524144494F2053455425
:100E00005550004E4F20444154410054783D00520B
:100E1000783D0041203D007A3D00793D00783D005D
:100E2000416363656C00416C743A00566F6C747377
:100E30003A004675656C3A0052504D3A0040430006
:100E400054656D70323A0040430054656D70313A1C
:100E500000416C743A005370643A004864673A0089
:100E600054783D0052783D0041203D00204D4149DD
:100E70004E20204750534F54484552005B4D454E3D
:100E8000555D20746F2072657365740046726565E8
:100E900020537461636B206D696E202020206200F6
:100EA0007431306D732020202020202020202075D8
:100EB0007300746D61696E206D61782020202020A0
:100EC000206D7300746D7231204A697474657220EC
:100ED000202020757300746D72314C6174206D692F
:100EE0006E20202020757300746D72314C61742067
:100EF0006D617820202020757300535441543200D6
:100F0000544F54005354250053544B00545357002E
:100F1000544D45005354415400454550524F4D20C7
:100F2000466F726D617474696E670042616420453A
:100F30004570726F6D204461746100454550524F99
:100F40004D20436F6E76657274696E67004545701B
:100F5000726F6D2044617461204572397800454597
:100F600070726F6D20446174612076330045455086
:100F7000524F4D206F766572666C6F770050085047
:100F800000000000000000006F00000700070014D0
:100F90007F147F14242A7F2A12231308646236499F
:100FA0005522500005030000001C22410000412290
:100FB0001C0014083E081408083E080800503000C1
:100FC00000080808080800606000002010080402FB
:100FD000003E41413E0000427F40006251494600D0
:100FE00041494936001814127F0027454539003E13
:100FF000494932000179050300364949360006495E
:10100000291E000036360000005636000008142263
:101010004114141414144122140800020151090649
:1010200006090906007E0909097E7F494949363EBD
:10103000414141227F4141221C7F494949417F0969
:101040000909013E4149497A7F0808087F00417F2C
:1010500041002040413F017F081422417F40404031
:10106000407F020C027F7F0408107F3E4141413ED9
:101070007F090909063E4151215E7F09192946264B
:101080004949493201017F01013F4040403F1F2053
:1010900040201F3F4030403F63140814630708702E
:1010A00008076151494543007F414100020408108F
:1010B000200041417F0004020102044040404040C2
:1010C000000102040020545454787F4844443838C6
:1010D00044444420384444487F3854545418087ECB
:1010E0000901020C5252523E7F0804047800447DEC
:1010F00040002040443D007F1028440000417F40D4
:10110000007C041804787C0804047838444444388B
:101110007C14141408081414187C7C08040408486F
:1011200054545420043F4440203C4040207C1C2028
:1011300040201C3C4020403C44281028440C505087
:10114000503C4464544C44000836410000007F0089
:101150000000413608000808221C08081C22080864
:10116000A0608000000000000000000000000000FF
:1011700000FEFE0000000000003E7E00007E3E00FB
:10118000006060FEFE6060FEFE606060F09898FEA9
:10119000FE989818180C1E1E0C80C0E07038187845
:1011A000FC8EC6E6763C180000000066763E1E0007
:1011B0000000000000E0F0381C0E060000000006F1
:1011C0000E1C38F0E000006060C080F8F880C0605D
:1011D0006080808080F8F8808080800000000000BF
:1011E00000000000008080808080808080808000FF
:1011F0000000000000000000000000000080C0E0CF
:10120000703818000000000000000000000000001E
:1012100000717100000000000000000000000000EC
:101220000006067F7F06067F7F0606181819197FBD
:101230007F19190F06181C0E070301307878301E2D
:101240003F716367663C3C6666000000000000007A
:101250000000000000070F1C3870600000000060F4
:1012600070381C0F070000060603011F1F0103064C
:1012700006010101011F1F01010101000066763E08
:101280001E00000000010101010101010101010036
:10129000003078783000000000181C0E07030100B1
:1012A0000000000000F8FC0E06060EFCF800001816
:1012B0001CFEFE000000000000181C0E0686CEFC7E
:1012C0007800000606868686CEFC78000080C0E0A6
:1012D00070381CFEFE00007E7E666666E6C68600EE
:1012E00000F8FC8E86868E1C180000060686C6E670
:1012F000763E1E000078FCCE8686CEFC7800007814
:10130000FCCE8686CEFCF8000030787830000000F5
:101310000000003078783000000000000080C0E05D
:1013200070381C0E0660606060606060606060061F
:101330000E1C3870E0C0800000181C0E06060686E1
:10134000CEFC7800001F3F706060703F1F0000609F
:10135000607F7F606000000000787C6E6763616082
:101360006000006060616161733F1E000007070656
:101370000606067F7F00001838706060703F1F000F
:10138000001F3F716161733F1E000000007F7F00FE
:1013900000000000001E3F736161733F1E000000EB
:1013A000006171391D0F0700000C1E1E0C000000AB
:1013B00000000066763E1E000000000000010307EA
:1013C0000E1C38706006060606060606060606604F
:1013D00070381C0E07030100000000000066670360
:1013E00001000078FCCE8686CEFC780000E0F0B8E4
:1013F0009C8E8E9CB8F0E0FEFE8686868686CEFCAD
:1014000078F8FC0E060606060E1C18FEFE060606FA
:101410000E1C38F0E0FEFE8686868686860606FE70
:10142000FE8686868686860606F8FC0E06868686F4
:101430008E9C98FEFE808080808080FEFE000006EC
:1014400006FEFE06060000000000000606FEFE0680
:1014500006FEFE80C0E070381C0E06FEFE00000096
:101460000000000000FEFE1C38F0F0381CFEFEFEFE
:10147000FE70E0C0800000FEFEF8FC0E06060606C8
:101480000EFCF8000001010101000000007F7F0157
:1014900001010101017F7F7F7F6161616161733FB4
:1014A0001E1F3F70606060607038187F7F606060F2
:1014B00070381C0F077F7F61616161616160607FCF
:1014C0007F01010101010100001F3F706061616146
:1014D000717F3F7F7F0101010101017F7F0000607B
:1014E000607F7F606000001838706060703F1F0090
:1014F000007F7F0103070E1C3870607F7F60606093
:1015000060606060607F7F0000010100007F7F7F7E
:101510007F00000103070E7F7F1F3F7060606060E7
:10152000703F1FFEFE8686868686CEFC78F8FC0E0F
:10153000060606060EFCF8FEFE8686868686CEFC2D
:101540007878FCCE868686868E1C1806060606FEF1
:10155000FE06060606FEFE000000000000FEFEFE7F
:10156000FE000000000000FEFEFEFE000000000085
:1015700000FEFE1E3E70E0C0C0E0703E1E7EFEC05B
:1015800080000080C0FE7E0606060686C6E6763E21
:101590001E0000FEFE060606060000183870E0C0B9
:1015A0008000000000000006060606FEFE00006047
:1015B00070381C0E0E1C3870600000000000000027
:1015C0000000007F7F01010101010100001F3F7049
:1015D00060666E3C387F677F7F0101070F1D3970A1
:1015E0006018387161616161733F1E000000007F07
:1015F0007F000000001F3F7060606060703F1F0749
:101600000F1C387070381C0F071F3F70703E3E7003
:10161000703F1F787C0E070303070E7C78000001E3
:10162000037F7F03010000787C6E67636160606008
:101630006000007F7F6060606000000000000001CB
:1016400003070E1C180000606060607F7F000000D0
:1016500000000000000000000060606060606060EA
:101660006060600000060E1C3870600000000060C2
:1016700060606060E0C080FEFE80C0E06060E0C04E
:101680008080C0E06060606060000080C0E06060FA
:10169000E0C080FEFE80C0E060606060E0C08080EE
:1016A00080F8FC8E86060E1C18E0F0381818181802
:1016B00018F8F8FEFE80C0E06060E0C080000060C6
:1016C00060E6E600000000000000006060E6E60062
:1016D00000FEFE000080C0E060000000000606FE84
:1016E000FE00000000E0E060E0C0C0E0E0C080E09C
:1016F000E080C0E06060E0C08080C0E0606060606A
:10170000E0C08000000000000000000000183C7EE7
:1017100066666666667F7F7F7F6161606060703F3E
:101720001F1F3F70606060607038181F3F706060FE
:101730006061617F7F1F3F766666666666070701A8
:10174000017F7F0101000000000103676666666695
:10175000763F1F7F7F0101000000007F7F00006057
:10176000607F7F606000001838706060703F1F000D
:10177000007F7F060F1F3970600000000060607FEF
:101780007F606000007F7F0000070700007F7F7F91
:101790007F0101000000007F7F1F3F70606060607C
:1017A000703F1FE0E06060606060E0C08080C0E08B
:1017B000606060C080E0E0E0E080C0E06060E0C0C9
:1017C0008080C0E0606060606000006060FEFE607D
:1017D0006000000000E0E0000000000000E0E0E049
:1017E000E0000000000000E0E0E0E0000000000099
:1017F00000E0E060E0C080000080C0E060E0E00069
:101800000000000000E0E0606060606060E0E0E038
:1018100060000080C0787C0E06000000000000FE22
:10182000FE000000000000060E7C78C080000080F2
:101830008080801838F0E0C08080C0E0F0381880E8
:101840008080807F7F0606060606070301010307E6
:1018500006060607077F7F7F7F0101000000000169
:1018600001616367666666667E3C1800001F3F7014
:1018700060607038181F3F7060607038187F7F0795
:101880000F1C387070381C0F071F3F70703838708D
:10189000703F1F6070391F0F0F1F397060010367A1
:1018A00066666666763F1F6070787C6E676361600F
:1018B00060000001031E3E70600000000000007F19
:1018C0007F00000000000060703E1E030100000168
:1018D000010101181C0F0703010103070F1C180168
:1018E0000101014F46464142535255735255254519
:1018F0004C73454C25544873544825414C73414C16
:10190000255031205031255032205032255033207F
:101910005033250063002D2D2D783E30783C307CEF
:10192000787C663E30663C307C667C004650002DFC
:101930002D2D00544852525544454C454944304998
:10194000443149443241494C47454154524E535722
:101950003153573253573353573453573553573600
:1019600053573753573853573953574153574253A7
:101970005743004F4646004F4E20002D2D2D004D61
:101980004F44454C0052455441004144314144329A
:101990000043480050504D0050312020503220204C
:1019A000503320204D41582046554C4C435943312B
:1019B0004359433243594333002D2D2D2D00408090
:1019C000080420100201ED19F919FF19061A131A5B
:1019D000191A241A9C1432465A5A4632465AECECCA
:1019E000003C649CC4003C649C0000006453696D2E
:1019F000706C6520342D434800542D437574005697
:101A00002D5461696C00456C65766F6E5C44656C45
:101A1000746100654343504D0048656C692053650F
:101A200074757000536572766F205465737400008E
:101A300011241FBECFEFD0E1DEBFCDBF11E0A0E08B
:101A4000B1E0E6E9FEEE02C005900D92AA31B107C1
:101A5000D9F71EE0AAE1B1E001C01D92A730B1079D
:101A6000E1F70E94A2230C9449770C94000099E2BC
:101A7000890290011124359527953595279587FD85
:101A8000815C86FB880F880B80F9992787FD9095EC
:101A9000281B390BC9010895982F803201F1815418
:101AA0008A3110F48F5F0895892F81568A3120F48E
:101AB000892F80958F590895892F80538A3010F48B
:101AC000855E0895ECEFF5E080E02491291711F48C
:101AD0008B5D08953196222311F08F5FF6CF80E061
:101AE0000895E82F8823D9F087FF07C0863E1CF0B1
:101AF00080E68E1B0895E19504C08B3114F4805C60
:101B00000895E5321CF48E2F8B5E0895E9323CF483
:101B1000FF27E7FDF095E952FA4F8491089580E29E
:101B200008959DE0899F900111242E503C4FC901DA
:101B30000895282F30E0220F331F220F331F255125
:101B40003D4FC901089599E0899F900111242558BE
:101B50003E4FC901089595E0899F900111242556B3
:101B60003D4FC90108959C0140E0683008F041E014
:101B700070E0442371F0CB010897FC0163E0EE0FA5
:101B8000FF1F6A95E1F7E80FF91FDF01A55BBC4F66
:101B90000AC0FB01EE0FFF1FEE0FFF1FE60FF71F3E
:101BA000DF01AD5DBC4FFD01808120503C4F37FD12
:101BB0000EC068E02030360784F0442319F484E036
:101BC00090E002C088E090E0A80FB91F8C9199279F
:101BD00087FD9095582F442733C0442331F0432F7D
:101BE000B9017070660F771F04C0432F4695B90185
:101BF0007170842F90E0FD01E80FF91F8181992712
:101C000087FD90959B0135952795829FA001839F25
:101C1000500D929F500D11242081332727FD3095C0
:101C200080E092E0861B970B95958795BC01269FD7
:101C3000C001279F900D369F900D1124480F591F0A
:101C4000CA0169E170E00E94BE76CB0108959C0153
:101C5000633031F1643028F4613051F0623090F437
:101C60003CC0653039F1653008F1663061F525C05A
:101C7000493029F497FD24C0205032400AC097FF14
:101C80002CC026C0493041F41816190624F1205002
:101C90003E4F220F331F21C018161906CCF01DC06D
:101CA00097FF1BC0309521953F4F17C01816190696
:101CB00094F00EC097FF0CC003C0181619065CF014
:101CC00020E03CEF0AC067500E94B30D9C0105C0A4
:101CD00020E030E002C020E034E0C90108956F92B6
:101CE0007F928F929F92AF92BF92CF92DF92EF92AC
:101CF000FF920F931F933B017C0100E010E08824CA
:101D0000992464E670E080E090E06619770988091C
:101D10009909A80197010E948B765B016C0182E30F
:101D200090E0A0E0B0E0A80EB91ECA1EDB1EC801FC
:101D3000B7010E948B760E948B76BC018827992779
:101D4000A40193010E948B76E4E0969587957795A0
:101D50006795EA95D1F7A60EB71EC81ED91EC60113
:101D6000B50124E630E040E050E00E94D176C901A0
:101D70001F910F91FF90EF90DF90CF90BF90AF90A9
:101D80009F908F907F906F900895FF920F931F9375
:101D90009C01AB016115710531F1FF2497FF05C06E
:101DA000FF24F394309521953F4F57FF10C000E07A
:101DB00014E066277727641B750BC801821B930B01
:101DC0000E946F0E9801281B390BC90104C0C9017C
:101DD000BA010E946F0EFF2011F49C0104C022275B
:101DE0003327281B390BC9011F910F91FF900895CC
:101DF000E82F873058F480916B07882309F044C09E
:101E0000F0E0EE0FFF1FE054F84F2BC0893018F4BC
:101E1000E0E0F4E03BC0803180F4F0E0EE0FFF1F23
:101E2000DF01AC5CBE4FE05CF84F0190F081E02D2B
:101E30008D919C91E81BF90B0AC0843158F4F0E0B5
:101E4000EE0FFF1FE05CF84F0190F081E02DEE0FE8
:101E5000FF1F1CC0843248F4F0E0EE0FFF1FEA556C
:101E6000F84F0190F081E02D11C0863268F490E0C7
:101E70008497FC01EE0FFF1FE80FF91FE955F24FA1
:101E80008081E82FF0E002C0E0E0F0E0CF010895AB
:101E90001F93162F0E94910DFC01A12FB0E0248109
:101EA000332727FD3095CD01880F991F02C0359546
:101EB00027958A95E2F723703070AE0FBF1F8C9183
:101EC000992787FD9095880F991F880F991F280FD4
:101ED000391FC9011F910895E9E5F5E0E80FF11DEB
:101EE000E491F0E0EE0FFF1FE858F84F20813181B8
:101EF000C9010895A8E7B7E0E8E8F7E060E0862FB9
:101F0000806487B9369A349BFECF349A2089318910
:101F10008D919C91119796958795820F931F8E7F37
:101F20008D939D9340815181240F351F36952795C0
:101F3000318B208B84B195B1840F951F9695879531
:101F4000819391936F5F6830D1F60895DF93CF93BB
:101F5000CDB7DEB760970FB6F894DEBF0FBECDBF2A
:101F6000FE01319680E1DF011D928A95E9F7A8E72D
:101F7000B7E050E0852F806487B92081318140E04F
:101F8000369A349BFECF349A84B195B1280F391F0D
:101F90004F5F4430A9F721933193369527952D93C0
:101FA0003D935F5F583031F760960FB6F894DEBF0F
:101FB0000FBECDBFCF91DF910895E8E7F7E020E0B5
:101FC000822F806487B9369A349BFECF349A84B1CD
:101FD00095B1880F991F819391932F5F283081F7D6
:101FE00008958EE587B98AE18A95F1F7369A349B90
:101FF000FECF349A84B195B19093500480934F04EE
:1020000008951092660410925F0410925E0410927C
:1020100063041092620410926104109260041092A2
:10202000650410926404089510926A0410926C047E
:1020300010926B0408951F920F920FB60F92112405
:102040008F9380916A078F5F80936A078F910F90BB
:102050000FBE0F901F90189540916A0722B780918C
:102060006A074817C9F7942F80E030E0282B392BF6
:10207000C90108951F920F920FB60F9211242F934A
:102080003F934F935F936F937F938F939F93AF9300
:10209000BF93CF93DF93EF93FF93C0918000D091D4
:1020A000810080917D008F7D80937D007894809168
:1020B0006C0790916D079E01281B390B369527956B
:1020C000C901815A9F408F5D9E4220F481E0809338
:1020D00068072EC040916807842F8150883040F5F2
:1020E000C901815293408757954000F5E42FF0E0F5
:1020F000EE0FFF1FEA5AF84F2C5D354080916401C6
:10210000992787FD90950A96BC01269FC001279FBD
:10211000900D369F900D11246AE070E00E94BE760B
:10212000718360834F5F4093680702C01092680715
:10213000D0936D07C0936C07F89480917D00806206
:1021400080937D00FF91EF91DF91CF91BF91AF918F
:102150009F918F917F916F915F914F913F912F91BF
:102160000F900FBE0F901F901895E8E0FEE001C0A1
:10217000319680818535E1F39F0127503E40C901AA
:102180000895EF92FF920F931F93062F7A010E94FA
:10219000910DDC0110E0FC01E00FF11FC7019595E6
:1021A0008795959587958083000F111F83E090E0B8
:1021B000002E02C0880F991F0A94E2F780951496AA
:1021C0002C911497822393E0E922FF2402C0EE0CA5
:1021D000FF1C0A95E2F78E0D14968C9382E00E9404
:1021E000A65B1F910F91FF90EF9008951F920F92A1
:1021F0000FB60F9211242F933F934F935F936F93DA
:102200007F938F939F93AF93BF93EF93FF9380E060
:102210009CB5992319F48F5F8530D1F780914104E3
:10222000292F981708F4282F209341042091420465
:10223000892F291708F4822F809342048091700718
:10224000882321F0C09A1092700704C0C09881E0E2
:1022500080937007A0910801B0910901FD0181915F
:1022600091919BBD8ABDF0930901E09308011296FC
:102270008D919C911397892BC1F48AEE94E09093F1
:102280000901809308018091750182958170809386
:102290007007F89487B78F7E87BF78940E94B22624
:1022A000F89487B7806187BF7894809169078160CF
:1022B00080936907FF91EF91BF91AF919F918F91AB
:1022C0007F916F915F914F913F912F910F900FBE32
:1022D0000F901F90189578941F920F920FB60F923F
:1022E00011242F933F934F935F936F937F938F931B
:1022F0009F93AF93BF93CF93DF93EF93FF93F894A4
:1023000087B78D7F87BF81B78E5F81BF78948091BB
:102310004704882359F08091000190916F07890F3D
:1023200080936F0787FF02C01B9A01C01B988091A2
:1023300007018150809307018F5F09F062C08DE42F
:1023400080930701F894CCB5DDB578949091490459
:10235000992369F080915804882329F490935804B4
:1023600081E08093590491509093490421C03091A9
:1023700057043323B9F020915804222399F090E0B8
:1023800080915904882309F491E09093590499238A
:1023900009F428E020934904992351F031503093F7
:1023A000570406C010925804109259041092480421
:1023B00080915904882391F080914804882311F476
:1023C00090E004C090916E0781E0982790936E078B
:1023D000992321F481E08093470402C010924704BE
:1023E0000E94EB6D80916907826080936907F89481
:1023F0008CB59DB578948C1B9D0B9093460480936F
:102400004504F89487B7826087BF7894FF91EF9175
:10241000DF91CF91BF91AF919F918F917F916F91FC
:102420005F914F913F912F910F900FBE0F901F9092
:1024300018950F931F938C010E944B6C82E260E011
:1024400045E755E024E00E94EA6680E068E1A801E3
:102450000E9425670E94AA6A809148010E94A06A92
:102460001F910F91089586B380958E77E1F70E94B2
:10247000A36C0895EF92FF920F931F938C017B0141
:102480000E944B6C82E260E047EE55E024E00E943F
:10249000EA6680E060E2A8010E94256780E068E2C9
:1024A000A7010E94256780E060E341ED55E00E94AE
:1024B00025670E94AA6A809148010E94A06A0E9432
:1024C00033121F910F91FF90EF9008958F929F927A
:1024D000AF92BF92CF92DF92EF92FF920F931F9332
:1024E000CF93DF93B82E842E85E0841708F401C1C2
:1024F000BB2009F401C1A6E1BA1609F4FCC0BAEE8A
:10250000BB1609F4F6C08B2D875F8331A0F42B2D09
:10251000332727FD30951B144CF08DE090E0821B93
:10252000930B0E94426D61E06827E6C0C9010D96D9
:102530000E94426DBAC08B2D992787FD909597FF19
:1025400003C0909581959F4F66EFC62E6FEFD62EF4
:10255000C80ED91EF601EE0FFF1FEC0DFD1DE95947
:10256000FE4FE25DFD4F8081EE52F240882309F478
:10257000C0C04CE2E42E42E0F42EEE0EFF1ED70166
:10258000AC90EF01C35DDD4F9880853008F4C2C088
:10259000883028F400E010E040E050E016C08A2DBA
:1025A00081500E94F80E8C01888181500E94F80EA3
:1025B0000BC08881482F552747FD509543585F4FE2
:1025C00004C088810E94370DAC01E601CC0FDD1FED
:1025D000CC0DDD1DCB56DC4F2881283088F425300A
:1025E00008F049C0223031F1233020F4213009F0C5
:1025F00080C01CC0233011F1243009F07AC029C0FA
:102600002A3009F462C02B3038F4283009F453C062
:10261000293009F06EC054C02C3009F460C02C3051
:1026200008F458C02D3009F064C05EC01B140CF4CF
:102630004CC05AC01B140CF44DC051C020E0C8015E
:1026400017FF03C0909581959F4F4817590764F471
:102650000AC020E0C80117FF03C0909581959F4FE5
:10266000841795070CF421E01B1414F4622F44C066
:1026700061E0622741C0182D1F5F8A2D60E0412F65
:102680000E946612082F892D60E0412F0E94661279
:102690009881953031F4002361F1682F882361F12E
:1026A0002AC0963021F4002331F5682F25C060E060
:1026B000081709F521C060E004171507E9F41BC0ED
:1026C00060E004171507B9F417C060E04017510720
:1026D0009CF411C060E00417150774F40CC060E0AE
:1026E000041715074CF007C060E04017510724F0AD
:1026F00002C060E001C061E0862FDF91CF911F91A1
:102700000F91FF90EF90DF90CF90BF90AF909F9090
:102710008F9008958A2D81500E94F80E8C01F70148
:10272000808185320CF045CF4CCF0F931F93CF9310
:10273000DF93082F10917101110F1595812F9927A3
:1027400087FD909597FF03C0909581959F4F859742
:102750000CF43FC02091050E3091060E8091020EC0
:102760009091030E282B392B8091000E9091010E31
:10277000282B392B8091040E90E0282B392B809147
:10278000FD0D90E0282B392B232B39F41092FD0DF1
:1027900017FF03C081E08093FD0D11161CF4812FFB
:1027A000845202C0812F8C5D60E040E00E9466127E
:1027B000282F882361F08091FD0D882341F490E05B
:1027C0008091040E882309F491E09093040E2093E5
:1027D000FD0DC091050ED091060E2196D093060EE8
:1027E000C093050EE091020EF091030EE00FF11D73
:1027F000F093030EE093020EF8948091810D909176
:10280000820D78942091000E3091010E821B930B63
:102810008436910508F44CC12C593F4F3093010E7A
:102820002093000ECF01BE010E94AA76062F862FAC
:1028300090E09C012C9FC0012D9F900D3C9F900D1E
:102840001124E81BF90BF093030EE093020E109293
:10285000060E1092050E912F915F9F3118F4109281
:10286000040E0FC0812F8C5D893458F4111614F4B6
:10287000835301C0892F60E040E00E94661280937C
:10288000040E80915C0490915D04019690935D0428
:1028900080935C0460915E0470915F046F5F7F4F72
:1028A00070935F0460935E04002349F0809162049A
:1028B00090916304019690936304809362048091E5
:1028C000040E882349F08091600490916104019680
:1028D0009093610480936004069540916404509144
:1028E0006504400F511D5093650440936404E091CA
:1028F0007201F0917301F0936804E0936704809192
:102900007101880F8595992787FD909597FF03C0E2
:10291000909581959F4F882319F41092660422C0E8
:10292000813021F4CF01861B970B18C0803170F4E1
:1029300080FF07C0CA0174E0969587957A95E1F704
:1029400009C0809162049091630404C08091600486
:10295000909161049F01281B390BC9019093680471
:102960008093670480916604813051F0813018F0C3
:10297000823001F510C0809171018F77D9F017C0B6
:102980008091670490916804181619069CF030979E
:1029900089F082E00DC08091670490916804855CA5
:1029A0009F4F1CF483E080936604309719F481E014
:1029B0008093660420916704309168048091F90D3A
:1029C0009091FA0D8217930709F464C09091660400
:1029D000913009F04CC08091600182FF32C0309785
:1029E00081F12E31310521F482E0809357040CC02F
:1029F0002431310519F49093570406C02A3031056B
:102A000019F0243031053CF480914C048093490442
:102A100082E3809300018091600183FF12C02E3118
:102A2000310549F02431310531F02A30310519F0F2
:102A30002430310534F482E390E09093560480937F
:102A400055048091600181FF25C08091710187FF4D
:102A500004C0CF01821B930B01C0C9016CE370E07D
:102A60000E94AA76892BB1F480914C0404C0923064
:102A700089F480914D048093490482E3809300019E
:102A80008091600183FF06C082E390E0909356043A
:102A9000809355043093FA0D2093F90D80917101C4
:102AA00087FF06C0E21BF30BF0936804E093670412
:102AB000DF91CF911F910F91089520917101220F05
:102AC0002595822F992787FD909597FF03C09095B4
:102AD00081959F4F823091059CF1213F8CF12031EF
:102AE0007CF5273F94F02A3084F4E0915E01F0E019
:102AF000EE0FFF1FEE0FFF1F95958795E80FF91F4B
:102B0000E15DFA4FE491F0E003C0FC01F595E79533
:102B10003197EE0FFF1FE054F84F0190F081E02D48
:102B200027FF05C080E094E08E1B9F0B03C0CF0100
:102B300080509C4F26E0969587952A95E1F702C034
:102B400080E090E00E949513E0915E01F0E0EE0FCE
:102B5000FF1FEE0FFF1FEE5CFA4FE491F0E0EE0F67
:102B6000FF1FE254F84F0190F081E02D8091600149
:102B700080FF05C080E094E08E1B9F0B03C0CF0157
:102B800080509C4F6091FE0D7091FF0D6F5F7F4FE5
:102B90007093FF0D6093FE0DAC01E6E056954795EE
:102BA000EA95E1F78091FB0D9091FC0D480F591FBC
:102BB0005093FC0D4093FB0DF8948091810D909102
:102BC000820D78942091F70D3091F80D821B930BB4
:102BD000885E934098F1F8948091810D9091820DD8
:102BE00078949093F80D8093F70D1092FC0D10924D
:102BF000FB0D1092FF0D1092FE0D8091E804909154
:102C0000E90401969093E9048093E8042091E60496
:102C10003091E704F901E259FB4FCA010E94AA76FC
:102C200060832F5F3F4F3093E7042093E6042837FB
:102C3000310520F01092E7041092E6040895EF9217
:102C4000FF920F931F93CF93DF93C7EDD3E071E013
:102C5000E72EF12C2881222311F189818823F9F0B4
:102C600090E00197870102C0000F111F8A95E2F7DB
:102C7000822F60E040E00E9466122091560730915A
:102C80005707882319F0202B312B05C0C8018095E8
:102C9000909528233923309357072093560722967F
:102CA00083E0CF3ED807B1F6DF91CF911F910F910E
:102CB000FF90EF900895FF920F931F938C01F62ED3
:102CC0000E944B6C82E260E04FE655E024E00E94F7
:102CD000EA6680E060E2A8010E9425678CE168E373
:102CE00041E655E00E9425670E94AA6AFF2011F084
:102CF00089E102C0809148010E94A06A80914E043F
:102D00008093490482E3809300010E94331286B3CA
:102D100080958E7799F480914B0160E040E00E94AD
:102D20006612882331F480916201882311F4FF2018
:102D300019F0C79AA895EBCFC798FCCF1F910F91B8
:102D4000FF90089580915D0187FD07C0887329F485
:102D500080EA95E060E00E945B16089580915D0135
:102D600086FD0AC00E948F61883C910528F48DEE93
:102D700095E060E00E945B1608950F931F93809189
:102D80005D018670A9F18FE895E06DE775E00E941E
:102D90003A1200E080915D018670823009F401E012
:102DA0001EE00BC0113141F0812F8D5060E040E0FA
:102DB0000E946612801729F41F5F163198F31631AE
:102DC000B9F086B380958E7799F406C08091620140
:102DD000882359F0C79A0AC080914B0160E040E017
:102DE0000E9466128823B1F7F1CFC7981EE0DCCFAE
:102DF0001F910F9108950F931F93CF93DF938091AD
:102E00005D0180FD44C080915E0190E08170907012
:102E100002E010E0081B190BF801EE0FFF1FE65E41
:102E2000FE4FC181D281609687859089C81BD90BDE
:102E30000E94DD0F102F802F0E946C0FC817D9073A
:102E400034F58FEB95E060EB75E00E943A120E943A
:102E5000DD0F812F0E946C0FC817D90724F486B3A9
:102E600080958E7749F00E94331211C080916201E3
:102E7000882359F0C79AEBCF80914B0160E040E086
:102E80000E9466128823B1F7F1CFC798E0CFDF9197
:102E9000CF911F910F910895AF92BF92CF92DF9281
:102EA000EF92FF920F93CF93DF938091600184FDA7
:102EB00070C080914B0160E040E00E946612882360
:102EC00029F480916201882309F456C0C79A0E94B0
:102ED0004B6C80E060E04CE850E020E000E00E94B5
:102EE000D2650E94AA6A809148010E94A06A0E944D
:102EF00033120E947A0F0F5F0032D9F7AA24BB2445
:102F000000E0802F0E946C0FC92FD0E0AC0EBD1ED8
:102F10000F5F0430B1F7F894C090810DD090820D0E
:102F2000789480E991E0C80ED91E1CC00E947A0FE7
:102F3000C0E0D0E000E0802F0E946C0FE92EFF245B
:102F4000CE0DDF1D0F5F0430B1F786B380958E770D
:102F500001F5CA15DB05E9F411C0809162018823EF
:102F6000B1F0C79AF8948091810D9091820D789478
:102F7000C816D906D9F60DC0C798A9CF80914B01C4
:102F800060E040E00E946612882359F7E6CFC798B8
:102F9000E9CFDF91CF910F91FF90EF90DF90CF902D
:102FA000BF90AF9008951F93CF93DF93C4E0D4E018
:102FB00011E08881882359F060E040E00E946612A9
:102FC000882329F0812FDF91CF911F9108951F5FF2
:102FD0002D96153071F710E0F5CFEF92FF920F9319
:102FE0001F93E82E162F6F3F19F40E94D317182F46
:102FF00000E01123D9F0F12E812F6E2D0E94480F91
:10300000AC0181E0453F580794F0642F655F262F9F
:1030100030E0812F992787FD9095281739070CF00C
:103020006F5F0F5F053011F0162FE3CFFF248F2D58
:103030001F910F91FF90EF900895DF92EF92FF9212
:103040000F931F93CF93DF93F82E082F0F70065026
:10305000109175011770083008F0BFC0E02EE5949C
:103060008E2D6FEF0E94ED17D82E6E2D0E94480F07
:10307000BC01112389F477FF04C088279927861B98
:10308000970B959587959595879501968132910532
:1030900084F080E290E00DC0212F332727FD30958A
:1030A0002150304081E090E002C0880F991F2A959E
:1030B000E2F7482F80915E0190E08170907022E0ED
:1030C00030E0281B390B8E2D90E02817390739F492
:1030D0008091740186FF03C044E021E001C020E03C
:1030E000552747FD509500FF07C0EA01C60FD71FBF
:1030F00010E083E89FEF04C0EB01C41BD50BF8CFB1
:10310000009719F4222329F015C03FEF8338930765
:1031100049F0C817D9071CF0681779074CF08D37AC
:10312000910541F08C179D072CF08617970714F432
:10313000EC0111E083589F4F8A3F910509F76C1706
:103140007D0724F4CE37D10544F40CC0C617D70749
:103150004CF48FEFC338D8072CF48091750186FFAB
:10316000EB0111E03EEFCC30D3071CF4CCE0DEEFF6
:1031700006C081E0C53FD80714F0C4EFD1E08D2D23
:103180006E2DAE010E94C110CE37D1051CF0CDE7E7
:10319000D0E006C03FEFC338D30714F4C3E8DFEF35
:1031A000CE0164E070E00E94BE76EB01EC96112344
:1031B00041F08F2D0E94C96D1092480480914C04FB
:1031C00007C0F6FE03C081E08093480480914A0462
:1031D00080934904C0930001FF248F2DDF91CF918C
:1031E0001F910F91FF90EF90DF9008954F925F92A3
:1031F0006F927F928F929F92BF92CF92DF92EF92C7
:10320000FF920F931F93CF93DF933C01A8EBB7E09E
:10321000FC0188E001900D928150E1F70E94D317E4
:103220009EEEC92E92E0D92EBB24BA94C0E0D0E025
:1032300002E0402E512CE82EFF240894E11CF11CE2
:10324000FE01EE0FFF1FEE0FFF1FE551FD4F208126
:10325000822F837009F4C8C026952695237030E02C
:103260008B2D992787FD90952817390709F4B3C04E
:103270008181807E99F0828180FD10C0FE01EE0F79
:10328000FF1FEE0FFF1FE451FD4F80818295869551
:10329000877090E0E816F90609F09DC0FE01EE0F78
:1032A000FF1FEE0FFF1FE451FD4F8081880F880F35
:1032B000880F85958595859561E040E00E946612AE
:1032C000882309F488C0FE01EE0FFF1FEE0FFF1FD9
:1032D000E551FD4F8081B82EB694B69493E0B922A3
:1032E0000B2D112707FD1095F801EE0FFF1FE85475
:1032F000F84F0190F081E02D8370F7FF03C080FD4F
:1033000003C069C081FF67C0D6018C91282F332785
:1033100027FD309580915E0190E0817090704201B0
:10332000881A990A8016910699F48091740187FF92
:103330000FC0CF0180509C4F62E070E00E94BE76CB
:10334000CB01B9010E94C50E9C01220F331F05C09D
:10335000CF01B9010E94C50E9C01FE01EE0FFF1FB7
:10336000EE0FFF1FE551FD4F6081862F807F39F002
:1033700062956F70C90140E00E94270E9C01B9015F
:10338000882777FD8095982FFE01EE0FFF1FEE0F27
:10339000FF1FE351FD4F2081269530E040E050E0D3
:1033A0000E948B7624E630E040E050E00E94F37605
:1033B0008016910631F48091740187FF02C020507D
:1033C0003440EB2DFF27E7FDF095EE0FFF1FE60DD4
:1033D000F71D31832083219684E090E0C80ED91E2A
:1033E000CE30D10509F02CCFDF91CF911F910F91F5
:1033F000FF90EF90DF90CF90BF909F908F907F9045
:103400006F905F904F9008953F924F925F926F92AE
:103410007F928F929F92AF92BF92CF92DF92EF9264
:10342000FF920F931F93CF93DF9330906B076BE165
:10343000C62E61E0D62E5AED852E55E0952E40EC35
:10344000A42E47E0B42E2401EE2400E010E031E089
:10345000632E712CF02E802F0E946C0F9C01D601E0
:103460008D919C911197281B390B121613062CF481
:103470005C96ED91FC915D9705C0D6011E96ED918D
:10348000FC911F97E436F10514F4E4E6F0E0B9018D
:10349000882777FD8095982F2AE0660F771F881F71
:1034A000991F2A95D1F79F01442737FD4095542F46
:1034B0000E94F376E901BCEF21303B071CF4C0E029
:1034C000DCEF06C0E4E020303E0714F0C0E0D4E0BA
:1034D000D501CD93DC93CE010F964F9710F50430B4
:1034E0001105BCF4E0915E01F0E0EE0FFF1FEE0F5E
:1034F000FF1FE00FF11FE05DFA4FE4918E2F90E087
:103500000197F30102C0EE0FFF1F8A95E2F7CF018A
:1035100007C0C301002E02C0880F991F0A94E2F76A
:10352000E82AF3E0FF1508F456C0332009F053C031
:103530000F5F1F4FC301002E02C0880F991F0A940E
:10354000E2F70150104081602091560730915707F3
:1035500082239323892B09F43EC0F801EE0FFF1F4D
:10356000EC5AFE4FF0808F2D807CA9F1EF2DEF7388
:10357000F0E0EE0FFF1FDF01A45BBE4FE85AF84FEB
:10358000608171812D913C91621B730B882777FDBF
:103590008095982FD601DA962C91332727FD309508
:1035A000432F532F0E948B7622E330E040E050E01F
:1035B0000E94F376F294F694F69463E0F622EF2DEF
:1035C000F0E0E130F10519F0329729F403C0C20FA1
:1035D000D31F01C0E901F201C193D1932F010F5F05
:1035E0001F4F22E030E0C20ED31EA20EB31E0730E2
:1035F000110509F02FCF8AED95E00E94F61856E2EA
:10360000A52E56E0B52E00E010E042E0442E512CED
:10361000612C34E0732ED401CD91DC91802F6FEFBB
:103620000E94ED17602F0E94480F6C0180915E018F
:1036300090E081709070F201E81BF90BE017F10740
:10364000B9F58091740186FF33C0809160019601C5
:10365000442737FD4095542F80FF0CC0C050DC4FED
:10366000BE01882777FD8095982F2D573040404028
:1036700050400BC0B3016C1B7D0B882777FD8095F4
:10368000982F23583F4F4F4F5F4F0E948B7620E07B
:1036900038E040E050E00E94F376C901DA01803062
:1036A000F8E09F07F0E0AF07F0E0BF0741F406C085
:1036B00080916D04882311F0CC24DD24C601880F8D
:1036C000991FD5018D939D935D010F5F1F4FE2E020
:1036D000F0E08E0E9F1E0430110509F09CCF8E2D58
:1036E000DF91CF911F910F91FF90EF90DF90CF90DE
:1036F000BF90AF909F908F907F906F905F904F9012
:103700003F9008959F92AF92BF92CF92DF92EF9237
:10371000FF920F931F93CF93DF93EAEDEE2EE5E038
:10372000FE2E06E216E0C0E0D0E072E0A72EB12C3B
:1037300099249394CC2E80915E0190E081709070DA
:103740009501281B390B2C173D0749F18C2F6FEF82
:103750000E94ED17D82E90926B070E94041A1092C7
:103760006B07F80180819181F70120813181820FFF
:10377000931F62E070E00E94BE76AB01FEEF6C30FA
:103780007F071CF44CE05EEF06C021E0653F720746
:1037900014F044EF51E08D2D6C2D0E94C110219644
:1037A00082E090E0E80EF91E0E5F1F4FC430D10595
:1037B00009F682E00E94A65B80914B048093490445
:1037C00082E380930001DF91CF911F910F91FF90D1
:1037D000EF90DF90CF90BF90AF909F9008952F9281
:1037E0003F924F925F926F927F928F929F92AF9291
:1037F000BF92CF92DF92EF92FF920F931F93DF93CE
:10380000CF93CDB7DEB729970FB6F894DEBF0FBEC2
:10381000CDBF9F838E830E94D317182F0E94041A56
:10382000409177014823242F30E08091740690E086
:103830008227932782239323892B39F080914B048D
:103840008093490482E3809300014093740680E0F2
:1038500094E09093E9058093E8059093EB058093BD
:10386000EA0580916B07882379F180915E0190E0F1
:103870008170907022E030E0281B390B1092DB053C
:103880001092DA052130310521F01092DD051092F9
:10389000DC052230310521F01092DF051092DE05A3
:1038A0001092E1051092E005E2EFF5E0119211921D
:1038B00026E0E230F207D1F74EE256E05A83498320
:1038C00022E036E0FA0146C062EF75E040E050E0E9
:1038D000FA01E85AF84FDA01A65EBE4F8081918165
:1038E000D2962D913C91D397821B930B880F991FF1
:1038F000DB018D939D93BD014E5F5F4F48305105B5
:1039000039F78091600790916107880F991F909314
:10391000FB058093FA058091620790916307880FF9
:10392000991F9093FD058093FC0580916407909109
:103930006507880F991F9093FF058093FE0580917E
:10394000660790916707880F991F909301068093EF
:103950000006B2CF80819181D9018D939D939D0105
:103960003496B6E0E637FB07A9F780915404882324
:1039700011F00E945D1580E4EEE2F6E0DF011D9299
:103980008A95E9F71092550765E3462E67E0562EB3
:1039900055EB852E56E0952E45E7642E46E0742EB5
:1039A0001D82212E33240894211C311C8D810E94FC
:1039B000A30D6C01FC0180818F7159F43BE9432E0A
:1039C00032E0532E27EB33E03C832B832224332435
:1039D00094C290E0419794F7D60117969C91892F55
:1039E000807FC1F0892F8595859585958595282FB0
:1039F000332727FD309518162CF42216330609F0CC
:103A00006AC208C088279927821B930B281639069B
:103A100009F461C2F601838161E040E00E94661210
:103A2000D2019C918823C1F4192F1C92F601918137
:103A3000892F8850823008F04EC287818E70843082
:103A400009F449C2993019F01986188640C020E05F
:103A50003CEF398728873BC010E0992309F411E037
:103A600081E0D2018C93F60181818150A82FB0E0D2
:103A7000FD01EE0FFF1FE652FA4F20813181398799
:103A80002887843168F03D81831750F4AA0FBB1F4B
:103A9000AA0FBB1FA25DB94F4D915C915987488712
:103AA000D6019C91892F807E91F092959695977082
:103AB000892F90E00197E1E0F0E002C0EE0FFF1FD8
:103AC0008A95E2F7209155072E2B20935507D601B2
:103AD00018968C91882341F00E94370DE885F9856E
:103AE000E80FF91FF987E887D60116968C9116978B
:103AF000882329F415968C91882309F44EC1F4018A
:103B00006081718182819381112391F420E031E001
:103B100040E050E00E94F376509540953095219515
:103B20003F4F4F4F5F4FA884B984A20EB31E5CC0B5
:103B3000D60117968C9117978E70843049F5EC91C9
:103B4000EF71F0E0EE0FFF1FE050FA4F60817181DE
:103B5000882777FD8095982F20E034E640E050E0FC
:103B60000E948B76F4016083718382839383D601F4
:103B700012962C91222361F0332727FD3095432F95
:103B8000532F0E94F376F4012083318342835383C1
:103B9000D4016D917D918D919C9120E031E040E0C8
:103BA00050E00E94F37650954095309521953F4F17
:103BB0004F4F5F4FA884B984A20EB31EA114B10465
:103BC00099F0F6018581B7FE82958F7090E09C0197
:103BD00044E650E0249FC001259F900D349F900D36
:103BE0001124D3018D939C93F30120813181211500
:103BF000310551F080915404882309F4C1C021504B
:103C0000304031832083BCC0A114B10409F4C5C085
:103C1000F6018681882309F4C0C08091540488236A
:103C200009F478C02281222329F460E070E080E268
:103C300093E018C0822F992787FD909597FF03C0C6
:103C4000909581959F4F9C01442737FD4095542FB7
:103C500060E070E080E293E00E94F376C901DA014F
:103C6000BC01CD01D60116962C911A141B040CF53B
:103C70002F70422F50E041155105D9F1E4E6F0E0F4
:103C80004E9F90014F9F300D5E9F300D11244427B1
:103C900037FD4095542F0E94F37679018A01F40193
:103CA00080819181A281B381E80EF91E0A1F1B1F3A
:103CB0002BC022952F70422F50E041155105C9F0BD
:103CC000A4E6B0E04A9F90014B9F300D5A9F300D03
:103CD0001124442737FD4095542F0E94F376F401B8
:103CE000E080F18002811381E21AF30A040B150BC4
:103CF0000BC028853985C901AA2797FDA095BA2F41
:103D0000EE24F82E092F1A2FD401ED92FD920D9377
:103D10001C931397F40160817181828193812885BE
:103D2000398579010027F7FC0095102F1A141B0420
:103D300064F420E031E040E050E00E94F376E216C7
:103D4000F3060407150764F01BC020E031E040E0F3
:103D500050E00E94F3762E153F054007510784F48A
:103D600048855985CA01AA2797FDA095BA2FBA2F71
:103D7000A92F982F8827F40180839183A283B3838E
:103D8000D4016D917D918D919C9120E031E040E0D6
:103D900050E00E94F37639872887F6016481662314
:103DA00039F08885998541810E94270E99878887F7
:103DB000D60117968C91179780FD13C01196EC9140
:103DC000EE2379F0E53068F4F0E0EE0FFF1FEC5DD4
:103DD000F94F80819181E885F985E80FF91FF9870E
:103DE000E88728853985B901882777FD8095982F40
:103DF000D60112962C91332727FD3095432F532F50
:103E00000E948B769B01AC01F601878186958770B5
:103E100090E08130910571F00081029709F046C071
:103E20000F71E02FF0E0EE0FFF1FEE0FFF1FE65DBA
:103E3000F94F37C0D6010C910F7110E0000F111F20
:103E4000000F111F065D194FCA01B90124E630E0C9
:103E500040E050E00E94F376CA01B901F8012081E8
:103E60003181428153810E948B76D8016D937D937D
:103E70008D939C931397F60100810F7110E0000F52
:103E8000111F000F111F065D194FD8016D917D9113
:103E90008D919C9120E034E040E050E00E94F37668
:103EA000F801208331834283538315C00F71E02FC3
:103EB000F0E0EE0FFF1FEE0FFF1FE65DF94F808170
:103EC0009181A281B381820F931FA41FB51F8083AC
:103ED0009183A283B383FD81FF5FFD830894411C1E
:103EE000511C24E030E0820E931E42E050E0640E4C
:103EF000751EF03209F05ACD61CDA981BA818D903D
:103F00009D90AD90BC90C501B40124E630E040E046
:103F100050E00E94F376E981FA8120833183428365
:103F20005383F101E253F84FC90120839183D201F9
:103F300013962D913C91149711968C911197FAE05C
:103F40008F02F0011124E851FC4FF987E8878C912A
:103F50004AE084023001112488E19CEF680E791E4A
:103F6000CF015E2F492F2E173F071CF4C901522F96
:103F7000492F852F942F8C01061517050CF483010A
:103F800081149104A104B10479F19801442737FD0B
:103F90004095542F181419041A041B0464F4A885BE
:103FA000B985BD01882777FD8095982F621B730B1B
:103FB000840B950B0BC0C301AA2797FDA095BA2FC0
:103FC000281B390B4A0B5B0BCA01B901A5019401EF
:103FD0000E948B7620EA36E841E050E00E94F376BA
:103FE000C901DA014C015D01C80155E0959587953D
:103FF0005A95E1F7800F911F9801232F330F330B50
:104000002595820F931F000F012F001F110B801B9E
:10401000910B6C01EE24D7FCE094FE2C88859985E9
:1040200025E0959587952A95E1F7E885F9858E0F26
:104030009F1FA30105E0559547950A95E1F7B30148
:10404000660F672F661F770B460D571D9F01232FA5
:10405000330F330B2595820F931FEE0FEF2FEE1FBB
:10406000FF0B8E1B9F0B8C01222717FD2095322FF3
:10407000C80CD91CEA1CFB1C0C151D052E053F05A0
:1040800014F468017901CB019595879595958795ED
:10409000480F591F461B570BCA01AA2797FDA09529
:1040A000BA2F87017601E816F9060A071B0714F4F0
:1040B0007C018D01D20112968C91882341F01095DC
:1040C0000095F094E094E11CF11C011D111DEB81A1
:1040D000FC818081882389F060E040E00E946612C4
:1040E000882359F0AB81BC8111968C910E94370DC9
:1040F0007C010027F7FC0095102FEE81FF81E20D77
:10410000F31DF182E082E981FA813496FA83E98332
:1041100022E030E0220E331E45E050E0440E551EF2
:104120008B819C8102969C838B83EE56F64009F02E
:10413000E4CE29960FB6F894DEBF0FBECDBFCF9167
:10414000DF911F910F91FF90EF90DF90CF90BF9084
:10415000AF909F908F907F906F905F904F903F9027
:104160002F900895CF92DF92EF92FF920F931F93BB
:10417000DF93CF93CDB7DEB7A0970FB6F894DEBF2D
:104180000FBECDBF81E080936B078E010F5F1F4F85
:10419000C8010E94EF1B10926B07F801AEE9B2E074
:1041A0009E012F5D3F4F8081918143E0883E9407BF
:1041B0001CF088EE93E006C04CEF8931940714F4AC
:1041C00088E19CEF11969C938E9332961596E21798
:1041D000F30749F700E010E082E0C82ED12CE02E72
:1041E00080915E0190E0817090709601281B390BE0
:1041F0002017310791F0FF248F2D6E2D0E94480F5C
:10420000855F914034F48F2D6E2D40E050E00E9488
:10421000C110F39445E0F41679F70F5F1F4F043097
:104220001105E9F682E00E94A65B80914B04809321
:10423000490482E380930001A0960FB6F894DEBF94
:104240000FBECDBFCF91DF911F910F91FF90EF90E7
:10425000DF90CF900895CF92DF92EF92FF920F936D
:104260001F93DF93CF93CDB7DEB7C054D0400FB6C6
:10427000F894DEBF0FBECDBFF8942091810D309130
:10428000820D789440E08091760790917707281707
:10429000390709F041E040935404F8948091810D6E
:1042A0009091820D789490937707809376070E947F
:1042B000D317582F80917507851739F190E02DE0BD
:1042C00030E0829FF001839FF00D929FF00D11244A
:1042D000E250FC4F408142954F70852F90E0829FC5
:1042E000F001839FF00D929FF00D1124E250FC4FDE
:1042F000E081EF70E41708F4E42F8AE0E89FC00142
:104300001124809374075093750780917407882354
:1043100049F0DE011196E2EFF7E080E201900D92A4
:104320008150E1F78E010F5D1F4FC8010E94EF1B06
:1043300040917407F8017E010894E11CF11C02EF22
:1043400017E080E2C82ED12CCE0EDF1EF8948081BB
:104350009181442381F0D7012D913C91821B930BD5
:10436000642F70E00E94BE76260F371FD8012D9370
:104370003C93415003C0D8018D939C93789432961E
:1043800082E090E0E80EF91E0E5F1F4FEC15FD0570
:10439000E9F6409374078091560D882381F480914B
:1043A0008408882329F08CE798E00E94B46207C053
:1043B00080918E08882319F080E00E94AC5B809188
:1043C0005404882309F4AEC1809169048823A1F0C4
:1043D00090916A04892F8F5F80936A04843660F01D
:1043E000935690936A0480916B0490916C040196AB
:1043F00090936C0480936B040E941F168091F007C9
:10440000882319F081508093F00780915F01882301
:1044100009F469C080915304823308F464C0809128
:104420006E0690916F06A0917006B091710601968C
:10443000A11DB11D80936E0690936F06A093700628
:10444000B093710600E010E0FF248F2D0E946C0FE6
:10445000B6E096958795BA95E1F7080F191FF39482
:1044600094E0F91691F780917206909173060817FF
:10447000190761F0109373060093720610926E068E
:1044800010926F061092700610927106E0906E0600
:10449000F0906F06009170061091710660915F01B7
:1044A00070E080E090E020E737E140E050E00E94DB
:1044B0008B766E157F0580079107A8F48FE390E057
:1044C000A0E0B0E0E822F9220A231B239AE0E916D3
:1044D000F1040105110539F480914D0480934904DC
:1044E00082E38093000180916D04882319F081504C
:1044F00080936D040E944B6C0E94A66C0E941D1854
:10450000182F8091550490915604009729F0019737
:104510009093560480935504112389F08091620191
:1045200090E024EF31E0DC01A29FC001A39F900D39
:10453000B29F900D1124909356048093550480915E
:104540004B0160E040E00E946612882339F48091BC
:10455000550490915604892B09F4E2C0C79A8091C2
:104560005A0490915B042091CC073091CD07821BB7
:10457000930B60E270E00E94BE7670931308609324
:1045800012086115710591F080917207909173077F
:10459000821B930B62E070E00E94BE76709313085A
:1045A0006093120830935B0420935A048091CC07E7
:1045B0009091CD079093730780937207E091230841
:1045C000F0E0EE0FFF1FEB5EF74F0190F081E02D62
:1045D000812F09950E94AA6A8091630081FF04C01F
:1045E000809165008F7E03C080916500806180931B
:1045F0006500F8948091810D9091820D78948F716F
:1046000090708230910521F0039709F08BC071C042
:104610008091510490915204892B39F487E00E94D3
:104620006C0F9093520480935104809151049091A7
:1046300052048C01E3E0000F111FEA95E1F7081B1B
:10464000190B87E00E946C0F800F911F73E0969505
:1046500087957A95E1F77C0100E010E09093520491
:104660008093510420914A01332727FD3095432F31
:10467000532FC801B7010E948B7628E030E040E05C
:1046800050E00E94F37664E0EE0CFF1C001F111F47
:104690006A95D1F7E20EF31E041F151F20914F04F7
:1046A0003091500440E050E0C801B7010E94F37619
:1046B0002093530480917107805E80937107882353
:1046C00089F580914901281768F5223358F18091C6
:1046D0004E048093490482E380930001809160013D
:1046E00083FF20C082E390E09093560480935504AA
:1046F00019C080915D01869586958695877090E0BA
:10470000BC01660F771F660F771F680F791F605C0B
:104710007A4F8AE494E045E050E00E940E7702C0B0
:10472000C7981DCFC05CDF4F0FB6F894DEBF0FBE39
:10473000CDBFCF91DF911F910F91FF90EF90DF9050
:10474000CF9008951F93CF93DF939FEF9ABB1BBA2F
:1047500081E887BB8EE788BB8EE384BB81EC85BB99
:1047600011BA92BB88E082B987EF83B910926100D9
:104770001092620080E180936400909365000E9433
:104780006C6A80E487B985E886B987E083BF82E0F8
:1047900081BF87B7836087BF8AE08EBD82E8809340
:1047A0008A0080917D00806280937D00EDB7FEB726
:1047B000329785E502C0808331974EE0E730F407F9
:1047C00009F0C8F7789485E793E5909316088093ED
:1047D000150889E598E4909318088093170889E1F3
:1047E0000E94A06A0E946C710E94DC6010914701D7
:1047F00004B603FC0CC00E944C170E94AE160E9427
:10480000DD0F0E94FB160E94BD160E94A2160E9498
:10481000331282EF97E00E94EF1B809148010E94C3
:10482000A06A8091620190E024EF31E0AC01429FE8
:10483000C001439F900D529F900D112490935604F8
:104840008093550480914701181719F081E00E9468
:10485000A65B0E94B22687B7806187BF2DE088E102
:1048600090E00FB6F894A89581BD0FBE21BD0E94BF
:104870002C10EC01E0916101F0E0EE0FFF1FEF5F03
:10488000FE4F0190F081E02D09950E94F10F0E94EA
:104890002B2180916907833019F4A895109269073C
:1048A0000E942C1020914304309144048C1B9D0BDA
:1048B0008217930708F4C90190934404809343043A
:1048C000D6CF9C01E0912308F0E0EE0FFF1FEB5ED6
:1048D000F74F318320838FEBF901099580914A04CA
:1048E0008093490482E38093000108956F927F9240
:1048F0008F929F92AF92BF92DF92EF92FF920F93AF
:104900001F93CF93DF938091750185FD04C0A12C87
:1049100014E0B12E03C0A12CB5E0BB2EE0917401D0
:10492000EE0FEE0FE595E595E595E595E595EE0F2E
:10493000E85F9091760184E69802C0011124A8E511
:10494000EA2EA2E0FA2EE80EF91EEA3028F448EC2E
:104950005FEA4E195F090DC08853904F2E2F30E04B
:10496000829FA001839F500D929F500D1124405CA7
:10497000504EC2EFD7E0AAEEB4E06E2F70E0660FA3
:10498000771F6C0F7D1F882499248A189B08662442
:1049900077246E187F0808E512E00E191F0923C05E
:1049A00028813981C501DA2CF92F2A153B051CF421
:1049B000C901D22EF92F8D2D9F2F881599050CF442
:1049C000C401805A964F9301281B390B420F531F85
:1049D0001196FC92EE92800F911F13969C938E93EA
:1049E000129722961496C617D707D1F6EE0FAE2F60
:1049F000B0E0AA0FBB1FA651BB4FED92FC92EF5F38
:104A0000AE2FB0E0AA0FBB1FA651BB4F4D935C93D6
:104A1000EF5FF0E0EE0FFF1FE651FB4F11821082B7
:104A2000DF91CF911F910F91FF90EF90DF90BF909A
:104A3000AF909F908F907F906F900895A0912608DF
:104A4000B0912708FD018193919313967C936E9307
:104A500012973296F0932708E0932608089588234A
:104A600029F060E679E080E699E004C060EB74E04C
:104A700080EB94E00E941E2508951F93182F8270EA
:104A80000E942F25812F81700E942F251F9108954C
:104A9000EF92FF920F931F93CF93DF938091740156
:104AA000877090E08130910519F0029719F404C0E5
:104AB00010E003C011E001C012E02091F207309134
:104AC000F30720503C4F220F331F8091F407909141
:104AD000F50780509C4F880F991F892F232F37FD92
:104AE00020E087FD80E0022F20310CF00FE0F82E4F
:104AF0008FE08F1514F44FE0F42E2F2D332727FD70
:104B00003095802F992787FD9095099682179307F6
:104B100014F40F2D0950C02FDD27C7FDD095275F56
:104B20003F4F2C173D071CF437EFF32EF00E8AEEA3
:104B300094E0909327088093260880E797E160EB44
:104B400074E00E941E2580E00E943D2580E699E0E9
:104B500060EB74E00E941E2580E699E060EB74E053
:104B60000E941E25812F0E943D251195CE0195950D
:104B7000879595958795E82E0E943D251E19802FD3
:104B80000E943D25101B8F2D992787FD90959595A7
:104B9000879595958795082F0E943D25101B8F2D91
:104BA0000E943D25812F8F190E943D2580E00E94A3
:104BB0002F25809126089091270802979093270827
:104BC0008093260880E69AEE60E070E00E941E2541
:104BD000DF91CF911F910F91FF90EF90089588235F
:104BE00029F080E293E060E476E004C080E496E09F
:104BF00060E273E00E941E2508950F931F93082F13
:104C000010E0802F81700E94EF251F5F06951830FD
:104C1000C1F71F910F9108950F931F938AEE94E0AF
:104C200090932708809326088091280891E089278F
:104C300080932808882309F44FC08091F20790914F
:104C4000F307885F9B4F34E0969587953A95E1F797
:104C50008038910510F08FE790E0182F2091F4072D
:104C60003091F50737FD0FC0C901409625E09695B4
:104C700087952A95E1F78034910510F08FE390E055
:104C8000082F00640FC080E190E0821B930B05E0C9
:104C9000969587950A95E1F78034910510F08FE39A
:104CA00090E0082F812F0E94FD25802F0E94FD2576
:104CB0000127802F90E09C01B4E035952795BA95A7
:104CC000E1F7A4E0880F991FAA95E1F7822B0E94D3
:104CD000FD2580E197E22BC08091F6079091F707C0
:104CE00080509C4FF4E096958795FA95E1F78038CF
:104CF000910510F08FE790E0082F0068802F0E9448
:104D0000FD258EE80E94FD258EE8082710E0C801E9
:104D1000E4E095958795EA95E1F774E0000F111F9F
:104D20007A95E1F7802B0E94FD2580EB96E360EAFF
:104D30007FE00E941E25E0912608F091270811923D
:104D40001192F0932708E0932608EA5EF440E03FD2
:104D5000F1052CF08FE496E060E00E945B161F9155
:104D60000F91089580917401877090E084309105CF
:104D700034F4813091054CF4892B21F00895049787
:104D800049F406C00E94762408950E94482508959B
:104D90000E940C2608959C0190912308E92FF0E0D1
:104DA000E15EF74F809124088083E92FEF5FE09365
:104DB0002308E53040F09093230882E696E060E017
:104DC0000E945B16089580914A048093490482E30F
:104DD00080930001F0E0EE0FFF1FEB5EF74F318391
:104DE00020838FEBF90109950895E0912308EE23C4
:104DF000E9F0E150E093230880914A04809349044C
:104E000082E38093000110922508F0E0DF01A15EAB
:104E1000B74F8C9180932408EE0FFF1FEB5EF74F86
:104E20000190F081E02D8EEB0995089585E796E0DD
:104E300060E00E945B1608958F929F92AF92BF929E
:104E4000CF92DF92EF92FF920F931F93CF93DF9356
:104E5000182F7B014A015901C02E84FD04C074E063
:104E6000D72E05E005C01F70106665E0D62E04E061
:104E70008D2D8066181761F08D2D8064181741F014
:104E80009091EF07992379F0133611F0133459F408
:104E9000E701219680914A048093490487E3809337
:104EA0000001802F1AC0802F8066181761F0802FB4
:104EB0008064181741F0992309F489C0123619F05B
:104EC000123409F084C0E701219780914A0480934D
:104ED00049048DE2809300018D2D90E00E94426D87
:104EE000882351F0CC27DD27CE19DF09802F0E94BF
:104EF000C96D8D2D0E94C96D8114910491F481E0DA
:104F0000A816B10471F4103661F41092EF07C0E0F6
:104F1000D0E0E114F10411F4C1E0D0E080E60E9499
:104F2000C96D8091120890911308C81BD90BAC165B
:104F3000BD065CF4812F0E94C96D80914C04809362
:104F4000490487E380930001E501C815D9055CF4A5
:104F5000812F0E94C96D80914C04809349048DE299
:104F600080930001E401CE15DF0509F1209791F44B
:104F7000812F0E94BA6DF7FE06C080914C04809389
:104F8000490487E305C080914C04809349048DE275
:104F9000809300018C2D83700E94A65BEC16FD06A9
:104FA00014F08FEF01C081E08093140802C01092CA
:104FB0001408CE01DF91CF911F910F91FF90EF90D8
:104FC000DF90CF90BF90AF909F908F900895E701B2
:104FD00093CF0F93772767FD7095552747FD509521
:104FE000332727FD309501E00E941C270F9108957B
:104FF0000F93772767FD7095552747FD5095332709
:1050000027FD309502E00E941C270F910895FF9222
:105010000F931F93F82E162F042F80E860E0412F86
:1050200050E0202F0E943B691A3010F485E701C040
:105030008FE660E04FE2202F0E942F661A3010F4B6
:1050400085E701C08FE64F2D50E04F5F5F4F60E076
:10505000202F0E943B691F910F91FF900895AF92FE
:10506000BF92CF92EF920F931F93DF93CF930F9244
:10507000CDB7DEB7982F5A014115510509F44AC042
:1050800080912408882309F03CC08091F10788238F
:1050900009F037C09436F1F0953611F042E032C095
:1050A000662361F081E090E0861B9109880F991FCB
:1050B000FA01E81BF90B859194911BC081E090E007
:1050C000821B9109880F991FFA01E81BF90B859142
:1050D00094910FC070E0822F90E0019768177907D4
:1050E00064F4FB013196EE0FFF1FE40FF51F85916D
:1050F00094910E94612480E023C1FA0185919491EA
:10510000F8CF40E01092F107862F622F99830E941A
:10511000072899810115110511F420E00AC080913A
:1051200024082E2D8E1508F4282FF801E20FF11D0A
:105130002491903669F1913690F4933409F4B0C01B
:10514000943430F4913299F1923409F0D9C07DC091
:10515000943409F44CC0953409F0D2C05EC0943642
:1051600009F44AC0953638F4923609F473C0933680
:1051700009F0C6C099C09138B9F09F3B21F095362F
:1051800009F0BEC04FC0109225081092240813C029
:10519000222309F4B5C090E08091EF07882309F439
:1051A00091E09093EF07ACC01092EF070EC0809192
:1051B000EF07882319F01092EF07A2C0809124080E
:1051C000882319F0A114B10419F40E94F52698C09F
:1051D00080914A048093490482E3809300011092F5
:1051E00025081092240880E68093830D8DC080915D
:1051F0002508821709F484C0012B09F481C080912D
:10520000EF07882309F07CC080912508821710F4ED
:105210008F5F15C01092250870C0809125088823E3
:1052200009F46EC0012B09F46BC08091EF0788234D
:1052300009F066C080912508882321F08150809371
:1052400025085BC02093250858C0809124088C1540
:1052500009F456C08091EF07882309F051C080916E
:1052600024088C1510F080E001C08F5F0115110536
:1052700009F470C0982FE81608F49E2DF801E90F84
:10528000F11DE491EF3F09F065C0EBCF8091240858
:105290008E1508F4E82E0E0D111DF801049128C09A
:1052A00080912408882361F18091EF07882341F5DC
:1052B00080912408882311F48C2D01C081500115A0
:1052C000110509F450C0982FE81608F49E2DF80136
:1052D000E90FF11DE491EF3F09F045C0EBCF80915C
:1052E00024088E1508F4E82E0E0D111DF801049106
:1052F000901708F4092F0093250880E68093830D0A
:10530000AB2811F456E001C057E040912408442333
:1053100019F41092EE0713C0242F30E08091EE07AD
:10532000281B3109852F90E08217930714F4451B41
:1053300004C0121613061CF041504093EE0781E0A2
:105340000F90CF91DF911F910F91EF90CF90BF9071
:10535000AF900895809324089091250801151105B8
:1053600009F094CF08C08093240890912508011576
:10537000110509F0B4CF00E0BECFCF92EF920F93AA
:105380001F93C02E00E010E0EE240E942F281F91F2
:105390000F91EF90CF9008950F93062F60E040E0BB
:1053A00050E020E00E94BD290F9108950F93942FA3
:1053B000222311F400E001C002E043E0949FA00129
:1053C00011244757594F23E00E94D06A0F91089546
:1053D0000F93942F222311F400E001C002E043E078
:1053E000949FA00111244057594F23E00E94D06A96
:1053F0000F910895DC01FB0105C09C9180818D9384
:10540000919341504423C9F70895CF92DF92EF92D0
:10541000FF920F931F93CF93DF93182F80E060E0EC
:1054200047E157E022E00E94EA66812F6BE047E9FE
:1054300056E02CE008E00E94BD29882309F468C0EA
:10544000F0902408FA941038C1F480E80E94C96DE5
:1054500089E18093F00786E08F1518F08F2D0E9468
:10546000907287E0F81611F40E941F7280914B042D
:105470008093490482E38093000118E0EE24CF2C4E
:10548000DD24C7FCD0944091EE074E0D473019F44F
:10549000193370F13DC0C42FD0E0CC16DD0611F0F9
:1054A00020E101C022E1AE014F5F5F4F82E1612F39
:1054B00002E00E943A688091F007882319F4CC1624
:1054C000DD0609F000E0AE01440F551F4C0F5D1FD3
:1054D000440F551F440F551F4E53594F88E1612FFC
:1054E0002CE00E94D06A185FE394103461F610C07B
:1054F0008091F007882329F487E0F81611F422E060
:1055000001C020E086E0612F4FEA56E00E94EA6683
:10551000DF91CF911F910F91FF90EF90DF90CF908F
:1055200008952F923F924F925F926F927F928F9247
:105530009F92AF92BF92CF92DF92EF92FF920F9322
:105540001F93DF93CF93CDB7DEB760970FB6F89474
:10555000DEBF0FBECDBF8D8780E060E044E657E040
:1055600022E00E94EA668D856AE047E956E02CE079
:105570000EE617E09BE0E92EBCE0CB2E0E942F2820
:10558000882309F4B4C3109124082D85203669F0CE
:10559000213630F4822F8252843008F091C085C0C9
:1055A0003D85303809F08CC045C0133001F580913D
:1055B000330420913404922F9F708C599F4F9F7019
:1055C00064E670E00E94BE7684E690E0AC01649FE1
:1055D000C001659F900D749F900D1124809333043A
:1055E000892F8F70207F282B209334045AC01930C4
:1055F00009F066C080913A0420913B04922F9F707D
:105600008C599F4F9F7064E670E00E94BE7684E6DE
:1056100090E0DC016A9FC0016B9F900D7A9F900D16
:10562000112480933A04892F8F70207F282B209398
:105630003B0437C0133011F4E0E004C0193009F026
:105640003FC0E1E04E2F50E0FA01A3E0EE0FFF1F54
:10565000AA95E1F7E41BF50BED5CFB4F20818181FE
:10566000382F3F70B2E024393B0718F484E992E008
:1056700008C02852354018F080E090E002C088E26F
:1056800095E0FA0173E0EE0FFF1F7A95E1F7E41B56
:10569000F50BED5CFB4F80839F708181807F892BB0
:1056A000818382E00E94A65B0BC08091EF07882374
:1056B00039F0143029F01A3019F084E08093F10D9C
:1056C0008091EF07882319F4F2E0FA8302C021E009
:1056D0002A8368E3462E64E0562E47EA5DE0588749
:1056E0004F83188A1F8684E090E09C878B87A3E015
:1056F000B0E0BA87A987E2E0F0E0FE83ED8321E025
:1057000030E03C832B83612E772467FC70943A81D0
:10571000306E3E878091EE074B818417C8F40B8171
:105720001C81081B110953E0000F111F5A95E1F766
:1057300080E0602F49E557E020E00E94EA664F854F
:1057400058894F5F5F4F8CE0602F20E00E943B69DB
:105750008091EE075D81851708F059C06D817E81CB
:10576000681B710943E0660F771F4A95E1F7162F12
:1057700084E044E557E020E00E94EA66EF85F8897E
:1057800033E0EE0FFF1F3A95E1F78F859889E81B0C
:10579000F90BEC5CFB4F808182958F70AD81BE81EF
:1057A0006A167B0611F000E001C002E090E0AC0157
:1057B000440F551F440F551F480F591F475B584F43
:1057C0008AE2612F25E00E94D06AED81FE816E168B
:1057D0007F06E9F40F85188983E0000F111F8A9571
:1057E000E1F72F853889021B130B0C5C1B4FD80186
:1057F0006C9162956F708D8540E021E00E94F827E2
:105800008295807FF80190819F70982B9083809182
:10581000EE07F9858F1708F08EC069857A85681BB9
:10582000710913E0660F771F1A95E1F7162F84E0D0
:1058300044E457E020E00E94EA66EF85F889B3E08F
:10584000EE0FFF1FBA95E1F72F853889E21BF30BA6
:10585000ED5CFB4F408151815F7089859A856816A8
:10586000790611F020EE01C022EE8BE2612F00E0FC
:105870000E943A688091510D612F46E70E94E666CA
:10588000EF85F889A3E0EE0FFF1FAA95E1F7AF853A
:10589000B889EA1BFB0BEC5CFB4F808182958F7013
:1058A00011F580E6612F4F85EF81F885208100EEAC
:1058B0000E948A7185E4612F40E457E00E942567C9
:1058C0001D5F87E5612F47E020E00E94D0671150FF
:1058D0008CE5612F40E00E945F671E5F8CE5612FC1
:1058E00040E00E945F6729853A856216730619F5C4
:1058F000EF84F888F3E0EE0CFF1CFA95E1F74F8592
:105900005889E41AF50A83E394E0E80EF91ED701FA
:105910006C9111967C917F708D8540E050E02FEF67
:105920003FE002E00E941C27F70180839F70818185
:10593000807F892B8183EB848091EE078E1508F0A0
:105940007FC06B857C85681B7109E3E0660F771F5C
:10595000EA95E1F7162F84E04AE357E00E942567B5
:10596000FF84D2012C91EB85FC856E167F0631F405
:1059700080912508882311F40E8501C000EE8BE28A
:10598000612F4F2D0E948A718091510D8A5F612F86
:1059900047E357E00E9425679091510DD20111967F
:1059A0002C91EB85FC856E167F0631F480912508DD
:1059B000813011F40E8501C000EE892F8A5F612FBE
:1059C0004F2D0E948A712B853C8562167306C1F5A6
:1059D00080912508882309F084C18091EF078823EE
:1059E00039F48091120890911308892B09F479C138
:1059F000D2016C9111962C918D8570E040E050E0C1
:105A000030E002E00E941C27F20180836AC180918D
:105A1000EF07882331F48091120890911308892BA5
:105A200079F0D20111966C9111974C918D8570E0AF
:105A300050E02FEF30E002E00E941C27F20181834A
:105A4000E394E9828F85988973E0880F991F7A958E
:105A5000E1F72F853889821B930B65E3262E64E0DE
:105A6000362E280E391EEE24FF2457E3C52E54E0AF
:105A7000D52EC80ED91E8091EE073981831708F004
:105A8000F6C0A32EBB248501081B110943E0000FBB
:105A9000111F4A95E1F7102F84E0602F41E357E092
:105AA00020E00E94EA664E2D4F5C8091510D602FE0
:105AB0000E94E666D6019C919F704701880C991C54
:105AC0006A147B0431F480912508882311F40A813B
:105AD00001C000E0892F90E0082C02C095958795C1
