:100000000C942A0D0C94470D0C94470D0C94470D3D
:100010000C94470D0C94470D0C94470D0C94470D10
:100020000C94470D0C94470D0C94470D0C94470D00
:100030000C94EE100C94470D0C94470D0C94631126
:100040000C9413100C94470D0C941F730C94B771FF
:100050000C94470D0C94470D0C94B36E0C94470D03
:100060000C94470D0C9432100C94470D0C94470DD2
:100070000C94470D0C94470D0C94470D0C94470DB0
:100080000C94470D0C94470D0C94470D80400000D4
:10009000000000000000000000000000F008040460
:1000A00084444444444444444444444444444444D0
:1000B000C40404887000000000000000000000007C
:1000C0000000000404FC040400E050506000FE0046
:1000D000E050506000F01010E01010E000E05050D0
:1000E0006000FC1000F020100010E000E0100000A4
:1000F000000018242424C400E050506000F02010B8
:1001000000F400E05050600030509000000000000B
:10011000000000000080808080808080BF80808020
:10012000BF808080800000304848484848484848A0
:1001300088090908F000000000000000000000002D
:1001400000000000000100000000010101000100AA
:10015000000101010081F01819F080010000010187
:100160002120202120212020202024232020202085
:10017000202021E1212120202021212120212020B7
:10018000202120202121212081C101000000000028
:10019000F8FEFFFFFF0F07070707070737478787A7
:1001A000879797075FDFDFDFDED880101010101011
:1001B0000F0080403F80C0E0E0E0602000000000D1
:1001C00000000000000000000000007058484C4C87
:1001D000474744464243FF0000FF434246444747E7
:1001E0004C4C48587000000000000000E0B0180CB3
:1001F0000406878FBFEEFEF67E3C1C0C0C0C0C0C2C
:100200000C0C0C0C0C0C0C0E1F3960800000000054
:100210000107070F0F0F0E1E1E1E1E1E1E0E0E0EB6
:100220000E0E8ECEEEFCF973270F1F3F7EFCF9F108
:10023000F1F9FC3E1F0F0703010000000000000061
:1002400000000000000000000000000000000000AE
:100250000000008080407F00007F40808000000020
:1002600000008080C0C040C0C0808810101D1711E1
:10027000111313131311171D1010100000000000AC
:100280000000C000000000000000000000000000AE
:1002900000000000040C1C1C1C1C1C1E1E1E0E0E4C
:1002A0000F070703030180C0E0F0F87C3E1F0F0733
:1002B000070F1F3F7EFCF8F0E0C08000000000C088
:1002C00020202020002020E0202000E0008040208E
:1002D00000000302020202040402020202C14040C2
:1002E000FC3F7BB1E0AEA8EAEEA17B7FFC4040C0C2
:1002F000000000000000000000000080C0E0F0F8F6
:10030000FCFFFF0000FEF8C000000000000000003D
:1003100000000000000000000000000000000000DD
:100320000000000C0E0F0F0F07030100000000007B
:100330000000000000000103070F0F0F0E0C000863
:10034000090909060000000F0000000F010204085F
:10035000000000000000000000000000000F38381E
:10036000FF9580B282FAAAFA82F29095FF38380F90
:1003700000000000008010B074F67777F777F77709
:10038000F777F774F677F777F634B01000000000CF
:10039000000000000000000000000000000000005D
:1003A000000000000000000000000000000000004D
:1003B0000000E000000000E000000000000000007D
:1003C000000000000000000000000000000000002D
:1003D00000000000000000000000000030282C2475
:1003E0002F3F3607361F0E1F3607363F2F242C2887
:1003F0003000000000000100C1C0414140C1C041C7
:100400004041C0C140C1C1C1C041C0C100000000E5
:100410007F11110E000E11110E0007180C030E189B
:1004200007000E151516001F02010E151516000EF9
:1004300011111F000000001F11110E00014E300E9F
:1004400001000000000E11110E007F11110E000EB0
:10045000151516001F01011E0000000013151900DC
:100460000E11110E000F10101F001F02010E1111AE
:10047000000E1515160000003F302F2F2B323F20A5
:100480003B3B3C3F202F2F3F262B2C3F000052555B
:100490004420454C45205448522041494C20525557
:1004A000442054485220454C452041494C20414964
:1004B0004C20454C45205448522052554420414937
:1004C0004C2054485220454C4520525544200001B0
:1004D00002030401020403010302040103040201F4
:1004E00004020301040302020103040201040302E3
:1004F00003010402030401020401030204030103D3
:1005000001020403010402030201040302040103C3
:1005100004010203040201040102030401030204B2
:1005200002010304020301040301020403020101A6
:100530000203040103020404020301040302010094
:10054000000000000001081E640101081E64010192
:100550000F32960A0A1E32960301020004050607AE
:10056000707265737320616E79204B657900414C20
:10057000455254004D45535341474500506C656109
:100580007365207265736574207468656D005377B8
:10059000697463686573206E6F74206F66660041CE
:1005A0006C61726D732044697361626C65640052A2
:1005B00065736574207468726F74746C6500546838
:1005C000726F74746C65206E6F742069646C650062
:1005D000507265737320616E79206B657920746F3A
:1005E00020736B697000414C455254004545505290
:1005F0004F4D206C6F77206D656D005F2D2E2C00A8
:10060000564552533A2056312E322D67727576690F
:100610006E00444154453A20323031322D30342D71
:1006200030330054494D453A2031383A30363A3467
:1006300038002053564E3A206672736B792D723112
:100640003534370020424C443A2033370070756C03
:10065000736520746162206F766572666C6F7700D7
:100660006D656E75537461636B206F766572666C31
:100670006F77006D656E75537461636B20756E6482
:100680006572666C6F77002D2D2D494E56004F46D2
:10069000464F4E20000C4947456542A93FA43FAB59
:1006A00033FC3254319E30FF2F002C772B434C45C6
:1006B0004152204D49584553205B4D454E555D00F4
:1006C00053696D706C6520342D434820542D43755B
:1006D0007420202020202020562D5461696C202079
:1006E00020202020456C65766F6E5C44656C7461DB
:1006F000654343504D2020202020202048656C6910
:100700002053657475702020536572766F20546590
:10071000737420200054454D504C41544553003CC7
:100720003E002D2D2D59656C4F7267526564004156
:100730006C61726D00746F00472E426172006361DC
:100740006C004D61785600566F6C7473726177203F
:10075000200054797065004120206368616E6E65E9
:100760006C0054454C454D455452590000FF000063
:10077000010202FF01000102534146455459205332
:10078000574954434845530000012D2D2D2D20205D
:100790002020202020202020547261696E65722064
:1007A000202020202020547261696E6572205255ED
:1007B00044202020547261696E657220454C4520AA
:1007C0002020547261696E657220544852202020A6
:1007D000547261696E65722041494C202020496E37
:1007E0007374616E74205472696D20205472696D47
:1007F00073324F666673657473200046554E43200E
:1008000053574954434845530000012D2D2D2D20A9
:100810002020763E6F66732020763C6F6673202022
:100820007C767C3E6F66737C767C3C6F6673414E53
:1008300044202020204F522020202020584F52209A
:1008400020202076313D3D7632207631213D7632B2
:100850002076313E7632202076313C76322020766A
:10086000313E3D76322076313C3D76322000535782
:1008700000435553544F4D20535749544348455313
:10088000000002435600435552564553002D2D2D6E
:10089000494E5600434F5059205452494D205B4D0C
:1008A000454E555D004C494D495453000003030328
:1008B000030303030303030303030303032F33327D
:1008C000002F3134004D495845520044522F4558AD
:1008D000504F002B3D2A3D3A3D00536C6F7720204E
:1008E000557000536C6F772020446F776E0044651D
:1008F0006C61792055700044656C617920446F7794
:100900006E0041646420202020204D756C74697055
:100910006C795265706C61636520004D756C747004
:1009200078004F4646005761726E696E6700462E2A
:10093000506861736500537769746368004375722A
:10094000766573004F4E204F4646005472696D0025
:100950004F66667365740057656967687400536F06
:10096000757263650045444954204D49582000493B
:100970004E53455254204D495820005765696768C9
:10098000744578706F2020506861736520537774C8
:100990006368205768656E20204375727665202055
:1009A00020202020200044522F4558504F002D2D4C
:1009B0002D783E30783C30004E6F206672656520A1
:1009C0006D6978657221004E6F20667265652065DD
:1009D00078706F21004544495420505253455400CB
:1009E0004D4F444500435552564500436865636B7F
:1009F00020202020205472696D7300286465666190
:100A0000756C742900464C4947485420504841535E
:100A100045530046616465204F7574004661646506
:100A200020496E005472696D73005377697463686E
:100A3000004E616D6500464C49474854205048417E
:100A4000534500060003504F534E45470053686915
:100A500066742053656C0075536563003443482009
:100A600036434820384348203130434831324348E8
:100A700031344348313643480050504D20202053F4
:100A8000494C565F4153494C565F4253494C565F5F
:100A9000435452414330390050726F746F005245D5
:100AA0005441313233004265657020437472004511
:100AB0002E205472696D7300452E204C696D697447
:100AC0007300457870202020457846696E65466938
:100AD0006E6520204D656469756D436F6172736545
:100AE000005472696D20496E6300542D4578706F13
:100AF00000542D5472696D00436F756E7420446FFD
:100B0000776E436F756E7420557020200054696DA8
:100B100065722000547269676765720054696D657B
:100B200072004E616D650053455455500000090137
:100B30000000000000000006024C6F6164696E67EF
:100B4000206D6F64656C2E2E2E004D6F76696E677A
:100B5000206D6F64656C2E2E2E00436F7079696E68
:100B600067206D6F64656C2E2E2E0044454C4554F5
:100B700045204D4F44454C0066726565004D4F441D
:100B8000454C53454C005B4D454E555D2020202083
:100B90005B455849545D005B455849545D00120857
:100BA00000081C0808081C08000008220049002250
:100BB000080000000000227F2200000008220049F7
:100BC000002208000008220049002208000000223C
:100BD0007F220000000000082200490022080000D7
:100BE000081C0808081C0800E44F774E344E974D47
:100BF0001E4D084C205B4D454E555D205748454ED7
:100C000020444F4E452000204D4F56452053544917
:100C1000434B532F504F5453200020202053455412
:100C2000204D4944504F494E5420202000205B4D18
:100C3000454E555D20544F205354415254202000BE
:100C400043414C4942524154494F4E004131413297
:100C500041334134413541364137413800414E41FD
:100C6000005472696D2D202B00204D656E75204556
:100C700078697420446F776E202020557052696720
:100C80006874204C656674004449414700454550EE
:100C9000524F4D20760056455253494F4E00436106
:100CA0006C004D756C7469706C69657200636831B5
:100CB000636832636833636834006F6666202B3D77
:100CC000203A3D006D6F64652020202520737263FB
:100CD00000536C61766500545241494E4552000004
:100CE00002020202004D6F64650052782043686181
:100CF0006E6E656C204F7264004E4F20444154412B
:100D000020416C61726D00416C61726D205761729F
:100D10006E696E67004D656D6F7279205761726EF6
:100D2000696E6700446F776E4F46462055702020ED
:100D300000537769746368205761726E696E67004B
:100D40005468726F74746C65205761726E696E6757
:100D50000053706C6173682073637265656E004F39
:100D60004646004C69676874206F66662061667449
:100D70006572004C696768742073776974636800F2
:100D8000466C617368206F6E206265657000426515
:100D9000657020636F756E74646F776E004D696E59
:100DA0007574652062656570005468726F74746C48
:100DB0006520726576657273650053494E474F53DF
:100DC0004D5046494C540046696C7465722041444C
:100DD0004300496E616374697669747920616C615E
:100DE000726D0042617474657279207761726E6908
:100DF0006E6700436F6E747261737400517569653C
:100E0000744E6F4B65794E6F726D204C6F6E67201C
:100E1000784C6F6E670042656570657200524144A0
:100E2000494F205345545550004E4F2044415441A2
:100E30000054783D0052783D0041203D007A3D004D
:100E4000793D00783D00416363656C00416C743A04
:100E500000566F6C74733A004675656C3A005250D8
:100E60004D3A0040430054656D70323A00404300F3
:100E700054656D70313A00416C743A005370643AB5
:100E8000004864673A0054783D0052783D004120A4
:100E90003D00204D41494E20204750534F54484576
:100EA00052005B4D454E555D20746F207265736531
:100EB00074004672656520537461636B206D696EC2
:100EC0002020202062007431306D732020202020EB
:100ED0002020202020757300746D61696E206D6183
:100EE000782020202020206D7300746D7231204AFC
:100EF000697474657220202020757300746D7231DE
:100F00004C6174206D696E20202020757300746D13
:100F100072314C6174206D6178202020207573003F
:100F2000535441543200544F5400535425005354E9
:100F30004B0054535700544D450053544154004501
:100F40004550524F4D20466F726D617474696E67E3
:100F50000042616420454570726F6D204461746188
:100F600000454550524F4D20436F6E76657274694F
:100F70006E6700454570726F6D2044617461204555
:100F800072397800454570726F6D2044617461203C
:100F9000763300454550524F4D206F766572666C32
:100FA0006F7700500800000000000000006F000094
:100FB00007000700147F147F14242A7F2A122313AA
:100FC00008646236495522500005030000001C22C7
:100FD00041000041221C0014083E081408083E0885
:100FE0000800503000000808080808006060000091
:100FF0002010080402003E41413E0000427F4000B4
:10100000625149460041494936001814127F0027B1
:10101000454539003E49493200017905030036490A
:101020004936000649291E000036360000005636B3
:10103000000008142241141414141441221408004E
:10104000020151090606090906007E0909097E7F89
:10105000494949363E414141227F4141221C7F4955
:101060004949417F090909013E4149497A7F0808F8
:10107000087F00417F41002040413F017F0814224A
:10108000417F404040407F020C027F7F0408107F78
:101090003E4141413E7F090909063E4151215E7FA3
:1010A00009192946264949493201017F01013F407A
:1010B00040403F1F2040201F3F4030403F63140806
:1010C000146307087008076151494543007F414197
:1010D0000002040810200041417F000402010204C4
:1010E0004040404040000102040020545454787FA6
:1010F000484444383844444420384444487F3854B1
:10110000545418087E0901020C5252523E7F0804C2
:10111000047800447D40002040443D007F10284476
:101120000000417F40007C041804787C08040478A7
:1011300038444444387C14141408081414187C7C73
:10114000080404084854545420043F4440203C40C0
:1011500040207C1C2040201C3C4020403C44281067
:1011600028440C5050503C4464544C4400083641D0
:101170000000007F000000413608000808221C081B
:10118000081C220808A06000000000000000000009
:101190000000000000FEFE0000000000003E7E0097
:1011A000007E3E00006060FEFE6060FEFE606060EB
:1011B000F09898FEFE989818180C1E1E0C80C0E03F
:1011C00070381878FC8EC6E6763C18000000006681
:1011D000763E1E000000000000E0F0381C0E060005
:1011E000000000060E1C38F0E000006060C080F8CF
:1011F000F880C0606080808080F8F8808080800007
:10120000000000000000000000808080808080805E
:10121000808080000000000000000000000000004E
:101220000080C0E0703818000000000000000000DE
:1012300000000000007171000000000000000000CC
:10124000000000000006067F7F06067F7F06061866
:101250001819197F7F19190F06181C0E0703013082
:101260007878301E3F716367663C3C66660000001C
:10127000000000000000000000070F1C3870600034
:101280000000006070381C0F070000060603011FF5
:101290001F01030606010101011F1F0101010100D9
:1012A0000066763E1E0000000001010101010101FF
:1012B00001010100003078783000000000181C0E99
:1012C000070301000000000000F8FC0E06060EFCFB
:1012D000F80000181CFEFE000000000000181C0EA4
:1012E0000686CEFC7800000606868686CEFC780050
:1012F0000080C0E070381CFEFE00007E7E666666E0
:10130000E6C6860000F8FC8E86868E1C1800000655
:101310000686C6E6763E1E000078FCCE8686CEFCAB
:1013200078000078FCCE8686CEFCF8000030787815
:10133000300000000000003078783000000000002D
:101340000080C0E070381C0E066060606060606005
:10135000606060060E1C3870E0C0800000181C0E33
:1013600006060686CEFC7800001F3F706060703F66
:101370001F000060607F7F606000000000787C6E6E
:10138000676361606000006060616161733F1E00BF
:10139000000707060606067F7F00001838706060A9
:1013A000703F1F00001F3F716161733F1E0000000E
:1013B000007F7F0000000000001E3F736161733FEB
:1013C0001E000000006171391D0F0700000C1E1E79
:1013D0000C00000000000066763E1E0000000000C9
:1013E000000103070E1C3870600606060606060696
:1013F0000606066070381C0E07030100000000009E
:101400000066670301000078FCCE8686CEFC78007B
:1014100000E0F0B89C8E8E9CB8F0E0FEFE868686DA
:101420008686CEFC78F8FC0E060606060E1C18FE14
:10143000FE0606060E1C38F0E0FEFE8686868686D0
:10144000860606FEFE8686868686860606F8FC0EDC
:10145000068686868E9C98FEFE808080808080FE38
:10146000FE00000606FEFE06060000000000000664
:1014700006FEFE0606FEFE80C0E070381C0E06FE6C
:10148000FE0000000000000000FEFE1C38F0F038F6
:101490001CFEFEFEFE70E0C0800000FEFEF8FC0EAA
:1014A000060606060EFCF80000010101010000001E
:1014B000007F7F0101010101017F7F7F7F61616109
:1014C0006161733F1E1F3F70606060607038187FFD
:1014D0007F60606070381C0F077F7F6161616161B0
:1014E0006160607F7F01010101010100001F3F7009
:1014F00060616161717F3F7F7F0101010101017FB7
:101500007F000060607F7F6060000018387060605E
:10151000703F1F00007F7F0103070E1C3870607F43
:101520007F60606060606060607F7F00000101003C
:10153000007F7F7F7F00000103070E7F7F1F3F70CA
:1015400060606060703F1FFEFE8686868686CEFCE9
:1015500078F8FC0E060606060EFCF8FEFE86868669
:101560008686CEFC7878FCCE868686868E1C18060B
:10157000060606FEFE06060606FEFE000000000049
:1015800000FEFEFEFE000000000000FEFEFEFE006B
:101590000000000000FEFE1E3E70E0C0C0E0703E95
:1015A0001E7EFEC080000080C0FE7E060606068607
:1015B000C6E6763E1E0000FEFE0606060600001881
:1015C0003870E0C08000000000000006060606FE3D
:1015D000FE00006070381C0E0E1C387060000000A9
:1015E000000000000000007F7F01010101010100F7
:1015F000001F3F7060666E3C387F677F7F01010788
:101600000F1D39706018387161616161733F1E0090
:101610000000007F7F000000001F3F70606060607E
:10162000703F1F070F1C387070381C0F071F3F706A
:10163000703E3E70703F1F787C0E070303070E7CE0
:1016400078000001037F7F03010000787C6E6763F0
:10165000616060606000007F7F606060600000002B
:101660000000000103070E1C180000606060607F2E
:101670007F000000000000000000000000606060CB
:10168000606060606060600000060E1C3870600082
:101690000000006060606060E0C080FEFE80C0E02E
:1016A0006060E0C08080C0E06060606060000080DA
:1016B000C0E06060E0C080FEFE80C0E0606060600E
:1016C000E0C0808080F8FC8E86060E1C18E0F038A2
:1016D0001818181818F8F8FEFE80C0E06060E0C026
:1016E0008000006060E6E60000000000000000608E
:1016F00060E6E60000FEFE000080C0E06000000042
:10170000000606FEFE00000000E0E060E0C0C0E071
:10171000E0C080E0E080C0E06060E0C08080C0E0C9
:1017200060606060E0C08000000000000000000019
:1017300000183C7E66666666667F7F7F7F616160BB
:101740006060703F1F1F3F70606060607038181FDE
:101750003F7060606061617F7F1F3F76666666668E
:1017600066070701017F7F01010000000001036798
:1017700066666666763F1F7F7F0101000000007F7E
:101780007F000060607F7F606000001838706060DC
:10179000703F1F00007F7F060F1F39706000000040
:1017A0000060607F7F606000007F7F0000070700AF
:1017B000007F7F7F7F0101000000007F7F1F3F705F
:1017C00060606060703F1FE0E06060606060E0C08B
:1017D0008080C0E0606060C080E0E0E0E080C0E069
:1017E0006060E0C08080C0E06060606060000060B9
:1017F00060FEFE606000000000E0E000000000000D
:1018000000E0E0E0E0000000000000E0E0E0E000D8
:101810000000000000E0E060E0C080000080C0E068
:1018200060E0E0000000000000E0E06060606060F8
:1018300060E0E0E060000080C0787C0E0600000000
:10184000000000FEFE000000000000060E7C78C0D4
:10185000800000808080801838F0E0C08080C0E088
:10186000F03818808080807F7F0606060606070312
:101870000101030706060607077F7F7F7F0101003E
:101880000000000101616367666666667E3C1800C1
:10189000001F3F7060607038181F3F7060607038C4
:1018A000187F7F070F1C387070381C0F071F3F70A0
:1018B00070383870703F1F6070391F0F0F1F3970FC
:1018C0006001036766666666763F1F6070787C6EAF
:1018D0006763616060000001031E3E7060000000ED
:1018E0000000007F7F00000000000060703E1E03CB
:1018F00001000001010101181C0F0703010103078A
:101900000F1C18010101014F4646414253525573C5
:10191000525525454C73454C255448735448254130
:101920004C73414C255031205031255032205032DB
:10193000255033205033250063002D2D2D783E3067
:10194000783C307C787C663E30663C307C667C003F
:101950004650002D2D2D00544852525544454C45BB
:1019600049443049443149443241494C4745415446
:10197000524E5357315357325357335357345357AB
:1019800035535736535737535738535739535741B1
:10199000535742535743004F4646004F4E20002DA9
:1019A0002D2D004D4F44454C0052455441004144BB
:1019B000314144320043480050504D005031202006
:1019C00050322020503320204D41582046554C4C59
:1019D000435943314359433243594333002D2D2D4D
:1019E0002D004080080420100201111A1D1A231A2C
:1019F0002A1A371A3D1A481A9C1432465A5A463245
:101A0000465AECEC003C649CC4003C649C00000022
:101A10006453696D706C6520342D434800542D4328
:101A2000757400562D5461696C00456C65766F6E57
:101A30005C44656C746100654343504D0048656CBF
:101A40006920536574757000536572766F20546514
:101A50007374000011241FBECFEFD0E1DEBFCDBFF5
:101A600011E0A0E0B1E0ECE1F3EF02C005900D92CF
:101A7000AC31B107D9F71EE0ACE1B1E001C01D9275
:101A8000A830B107E1F70E9417250C948C790C94CB
:101A9000000099E28902900111243595279535952A
:101AA000279587FD815C86FB880F880B80F9992735
:101AB00087FD9095281B390BC9010895982F803216
:101AC00001F181548A3110F48F5F0895892F815676
:101AD0008A3120F4892F80958F590895892F80535A
:101AE0008A3010F4855E0895EBEFF5E080E02491F4
:101AF000291711F48B5D08953196222311F08F5F21
:101B0000F6CF80E00895E82F8823D9F087FF07C03B
:101B1000863E1CF080E68E1B0895E19504C08B3153
:101B200014F4805C0895E5321CF48E2F8B5E0895CA
:101B3000E9323CF4FF27E7FDF095EA52FA4F849131
:101B4000089580E208959DE0899F900111242C5012
:101B50003C4FC9010895282F30E0220F331F220F78
:101B6000331F23513D4FC901089599E0899F90018A
:101B7000112423583E4FC901089595E0899F900193
:101B8000112423563D4FC90108959C0140E068305F
:101B900008F041E070E0442371F0CB010897FC01AC
:101BA00063E0EE0FFF1F6A95E1F7E80FF91FDF0111
:101BB000A35BBC4F0AC0FB01EE0FFF1FEE0FFF1F20
:101BC000E60FF71FDF01AB5DBC4FFD0180812050A8
:101BD0003C4F37FD0EC068E02030360784F04423C8
:101BE00019F484E090E002C088E090E0A80FB91FEB
:101BF0008C91992787FD9095582F442733C0442313
:101C000031F0432FB9017070660F771F04C0432F66
:101C10004695B9017170842F90E0FD01E80FF91F1E
:101C20008181992787FD90959B0135952795829F06
:101C3000A001839F500D929F500D112420813327C6
:101C400027FD309580E092E0861B970B9595879550
:101C5000BC01269FC001279F900D369F900D112437
:101C6000480F591FCA0169E170E00E940179CB0158
:101C700008959C01633031F1643028F4613051F0F3
:101C8000623090F43CC0653039F1653008F166305F
:101C900061F525C0493029F497FD24C02050324019
:101CA0000AC097FF2CC026C0493041F41816190607
:101CB00024F120503E4F220F331F21C01816190661
:101CC000CCF01DC097FF1BC0309521953F4F17C02A
:101CD0001816190694F00EC097FF0CC003C0181612
:101CE00019065CF020E03CEF0AC067500E94C50D69
:101CF0009C0105C020E030E002C020E034E0C901D2
:101D000008956F927F928F929F92AF92BF92CF92DF
:101D1000DF92EF92FF920F931F933B017C0100E053
:101D200010E08824992464E670E080E090E0661971
:101D3000770988099909A80197010E94CE785B016B
:101D40006C0182E390E0A0E0B0E0A80EB91ECA1ECC
:101D5000DB1EC801B7010E94CE780E94CE78BC017C
:101D600088279927A40193010E94CE78E4E09695F4
:101D7000879577956795EA95D1F7A60EB71EC81E89
:101D8000D91EC601B50124E630E040E050E00E94D3
:101D90001479C9011F910F91FF90EF90DF90CF90C0
:101DA000BF90AF909F908F907F906F900895FF921B
:101DB0000F931F939C01AB016115710531F1FF2455
:101DC00097FF05C0FF24F394309521953F4F57FFAF
:101DD00010C000E014E066277727641B750BC8016C
:101DE000821B930B0E94810E9801281B390BC9019D
:101DF00004C0C901BA010E94810EFF2011F49C01A8
:101E000004C022273327281B390BC9011F910F91CA
:101E1000FF9008951F93162F0E94A30DFC01A12F80
:101E2000B0E02481332727FD3095CD01880F991F1D
:101E300002C0359527958A95E2F723703070AE0F72
:101E4000BF1F8C91992787FD9095880F991F880F48
:101E5000991F280F391FC9011F910895FF920F93F1
:101E60001F93F82E162F00E0112391F0812F6F2D74
:101E70000E940A0F21E0853F920754F0282F255F2A
:101E8000211708F02F5F0F5F122F053069F710E060
:101E9000812F1F910F91FF900895E8E5F5E0E80F7D
:101EA000F11DE491F0E0EE0FFF1FE957F84F20819C
:101EB0003181C9010895A7E8B7E0E7E9F7E060E0FC
:101EC000862F806487B9369A208931898D919C91BB
:101ED000119796958795820F931F8E7F11969C93ED
:101EE0008E9340815181240F351F36952795318B74
:101EF000208B349BFECF349A84B195B1840F951F0B
:101F000096958795819391936F5F12966830C1F68D
:101F10000895E7E8F7E050E0852F806487B920E076
:101F200030E040E0369A349BFECF349A84B195B1CC
:101F3000280F391F4F5F4430A9F736952795219315
:101F400031935F5F583041F70895E7E8F7E020E00C
:101F5000822F806487B9369A349BFECF349A84B13D
:101F600095B1880F991F819391932F5F283081F746
:101F700008958EE587B985E38A95F1F7369A349B03
:101F8000FECF349A44B155B1209100013091010146
:101F9000C901880F991F820F931F840F951F969573
:101FA00087959695879590930101809300010895F8
:101FB00080914F04882341F480915B04882321F4AD
:101FC00080915D04882311F084E105C080916F0742
:101FD000882321F0815080936F0708C080916300AF
:101FE00090E0969587958170809370078091700737
:101FF000089510926A041092630410926204109281
:1020000067041092660410926504109264041092A2
:10201000690410926804089510926E04109270047E
:1020200010926F0408951F920F920FB60F92112411
:102030008F9380916E078F5F80936E078F910F90C3
:102040000FBE0F901F90189540916E0722B7809198
:102050006E074817C9F7942F80E030E0282B392B02
:10206000C90108951F920F920FB60F9211242F935A
:102070003F934F935F936F937F938F939F93AF9310
:10208000BF93CF93DF93EF93FF93C0918000D091E4
:10209000810080917D008F7D80937D007894809178
:1020A0007107909172079E01281B390B3695279571
:1020B000C901815A9F408F5D9E4220F481E0809348
:1020C0006C072EC040916C07842F8150883040F5FA
:1020D000C901815293408757954000F5E42FF0E005
:1020E000EE0FFF1FE65AF84F2C5D354080916601D8
:1020F000992787FD90950A96BC01269FC001279FCE
:10210000900D369F900D11246AE070E00E940179D5
:10211000718360834F5F40936C0702C010926C071D
:10212000D0937207C0937107F89480917D0080620C
:1021300080937D00FF91EF91DF91CF91BF91AF919F
:102140009F918F917F916F915F914F913F912F91CF
:102150000F900FBE0F901F901895E9E0FEE001C0B0
:10216000319680818535E1F39F0128503E40C901B9
:102170000895EF92FF920F931F93062F7A010E940A
:10218000A30DDC0110E0FC01E00FF11FC7019595E4
:102190008795959587958083000F111F83E090E0C8
:1021A000002E02C0880F991F0A94E2F780951496BA
:1021B0002C911497822393E0E922FF2402C0EE0CB5
:1021C000FF1C0A95E2F78E0D14968C9382E00E9414
:1021D000E65C1F910F91FF90EF9008951F920F9270
:1021E0000FB60F9211242F933F934F935F936F93EA
:1021F0007F938F939F93AF93BF93EF93FF9380E071
:102200009CB5992319F48F5F8530D1F780914304F1
:10221000292F981708F4282F209343042091440471
:10222000892F291708F4822F809344048091740722
:10223000882321F0C09A1092740704C0C09881E0EE
:1022400080937407A0910901B0910A01FD01819169
:1022500091919BBD8ABDF0930A01E093090112960A
:102260008D919C911397892BC1F48EEE94E09093FD
:102270000A01809309018091770182958170809392
:102280007407F89487B78F7E87BF78940E942428BC
:10229000F89487B7806187BF789480916D078160DB
:1022A00080936D07FF91EF91BF91AF919F918F91B7
:1022B0007F916F915F914F913F912F910F900FBE42
:1022C0000F901F90189578941F920F920FB60F924F
:1022D00011242F933F934F935F936F937F938F932B
:1022E0009F93AF93BF93CF93DF93EF93FF93F894B4
:1022F00087B78D7F87BF809108018F5F809308012A
:10230000815090E083709070892B11F49DE901C099
:102310009CE981B7980F91BF7894F894CCB5DDB55E
:10232000789490914F04992369F080915C048823FC
:1023300029F490935C0481E080935D049150909324
:102340004F0421C030915B043323B9F020915C0429
:10235000222399F090E080915D04882309F491E0B4
:1023600090935D04992309F428E020934F04992366
:1023700051F0315030935B0406C010925C0410920F
:102380005D041092490480915D04882381F080915E
:102390004904882311F490E004C09091730781E010
:1023A000982790937307992311F41B9A01C01B98E7
:1023B0000E94377080916D07826080936D07F8945A
:1023C0008CB59DB578948C1B9D0B9093480480939D
:1023D0004704F89487B7826087BF7894FF91EF91A4
:1023E000DF91CF91BF91AF919F918F917F916F912D
:1023F0005F914F913F912F910F900FBE0F901F90C3
:1024000018950F931F938C010E94A86E82E260E0E2
:1024100044E755E024E00E94216980E068E1A801DA
:102420000E945C690E94076D80914A010E94FD6CC8
:102430001F910F91089586B380958E77E1F70E94E2
:10244000006F0895EF92FF920F931F938C017B0111
:102450000E94A86E82E260E046EE55E024E00E9411
:10246000216980E060E2A8010E945C6980E068E286
:10247000A7010E945C6980E060E340ED55E00E94A6
:102480005C690E94076D80914A010E94FD6C0E9468
:102490001B121F910F91FF90EF900895EF92FF9202
:1024A0000F931F93CF93DF93E82E882349F48091F5
:1024B0004B0490914C04492F441F4427441F90C162
:1024C000992787FD909597FF03C0909581959F4F21
:1024D000863109F480C18A3030F490E00D960E9474
:1024E0009F6F482F79C18A50282F30E08901000F53
:1024F000111F020F131F0B561C4FD80112968C91FF
:10250000882311F440E06CC1F8018281853010F419
:1025100020E007C0D80112968C91883008F468C179
:1025200022E0D801EC91E150E73008F449C053C0F3
:1025300080914D0490914E0440E08C239D23892B83
:1025400089F127C080914B0490914C048C2B9D2BDA
:1025500090934C0480934B04F80180810E944E12AA
:10256000F82ED80111968C910E944E12982FF801E6
:102570008281853019F0863049F403C0FF2089F04C
:1025800002C0FF2031F4992321F40BC040E0F9167A
:1025900049F041E080914D0490914E048C2B9D2B8D
:1025A0000AC040E020914D0430914E04CE01809548
:1025B00090958223932390934E0480934D040CC1F5
:1025C00080914A04882309F042C0F0E0EE0FFF1F1B
:1025D000E154F84F29C0E93018F4C0E0D4E039C024
:1025E000E03178F4F0E0EE0FFF1FDF01AA5CBE4F90
:1025F000EC5BF84FC081D1818D919C91C81BD90BA8
:1026000009C0E43150F4F0E0EE0FFF1FEC5BF84F2F
:10261000C081D181CC0FDD1F1CC0E43240F4F0E05A
:10262000EE0FFF1FEB55F84FC081D18112C0E6328B
:1026300070F48E2F90E08497FC01EE0FFF1FE80FDF
:10264000F91FE855F24F8081C82FD0E002C0C0E0EA
:10265000D0E0222309F03FC0D8018C9185324CF0A4
:1026600011968C91282F332727FD309523583F4F03
:1026700005C0F80181810E94490D9C01D801129684
:102680008C91823051F0833071F08130C1F440E0A0
:102690002C173D070CF0A0C09EC040E0C217D30726
:1026A0000CF09AC098C040E0CE01D7FF03C09095CF
:1026B00081959F4F281739070CF08EC08CC040E0E1
:1026C000CE01D7FF03C0909581959F4F8217930746
:1026D0000CF082C080C0D8011196EC91E150E73037
:1026E00058F480914A04882309F045C0F0E0EE0FC9
:1026F000FF1FE154F84F2BC0E93018F4E0E0F4E09C
:102700003CC0E03180F4F0E0EE0FFF1FDF01AA5C77
:10271000BE4FEC5BF84F0190F081E02D8D919C91C4
:10272000E81BF90B0AC0E43158F4F0E0EE0FFF1F8C
:10273000EC5BF84F0190F081E02DEE0FFF1F1DC004
:10274000E43248F4F0E0EE0FFF1FEB55F84F019034
:10275000F081E02D12C0E63270F48E2F90E0849765
:10276000FC01EE0FFF1FE80FF91FE855F24F8081C3
:10277000E82FF0E002C0E0E0F0E0D80112968C9182
:10278000893089F08A3018F4883009F507C08A301A
:1027900079F08B3091F08C30D1F414C040E0CE173A
:1027A000DF07D1F418C040E0CE17DF07A1F414C052
:1027B00040E0EC17FD0784F40EC040E0CE17DF07C1
:1027C0005CF409C040E0CE17DF0734F004C040E0FD
:1027D000EC17FD070CF041E01E1414F081E04827CF
:1027E000842FDF91CF911F910F91FF90EF9008956B
:1027F000C1E0D0E002C0CC0FDD1F2A95E2F7809146
:102800004B0490914C048C239D23892B09F090CE8E
:1028100099CE362F37953327379520E030934C04E7
:1028200020934B040E944E1208950F931F93CF9351
:10283000DF93082F10917301110F1595812F9927A0
:1028400087FD909597FF03C0909581959F4F859741
:10285000F4F12091060E3091070E8091030E9091B5
:10286000040E282B392B8091010E9091020E282BFB
:10287000392B8091050E90E0282B392B8091FE0D8D
:1028800090E0282B392B232B39F41092FE0D17FFE3
:1028900003C081E08093FE0D11161CF4812F845239
:1028A00002C0812F8C5D60E00E940914282F8823CC
:1028B00061F08091FE0D882341F490E08091050E37
:1028C000882309F491E09093050E2093FE0DC091AA
:1028D000060ED091070E2196D093070EC093060ED8
:1028E000E091030EF091040EE00FF11DF093040E41
:1028F000E093030EF8948091820D9091830D78946B
:102900002091010E3091020E821B930B84369105AB
:1029100008F445C12C593F4F3093020E2093010E0D
:10292000CF01BE010E94ED78062F862F90E09C011A
:102930002C9FC0012D9F900D3C9F900D1124E81BF2
:10294000F90BF093040EE093030E1092070E109211
:10295000060E912F915F9F3118F41092050E0EC054
:10296000812F8C5D893450F4111614F4835301C007
:10297000892F60E00E9409148093050E8091600405
:10298000909161040196909361048093600460913A
:102990006204709163046F5F7F4F70936304609370
:1029A0006204002349F080916604909167040196C7
:1029B00090936704809366048091050E882349F004
:1029C00080916404909165040196909365048093CE
:1029D000640406954091680450916904400F511DAC
:1029E0005093690440936804E0917401F09175017B
:1029F000F0936C04E0936B0480917301880F8595CC
:102A0000992787FD909597FF03C0909581959F4FDB
:102A1000882319F410926A0422C0813021F4CF0176
:102A2000861B970B18C0803170F480FF07C0CA0165
:102A300024E0969587952A95E1F709C08091660470
:102A40009091670404C080916404909165049F0193
:102A5000281B390BC90190936C0480936B048091FF
:102A60006A04813051F0813018F0823001F510C0D5
:102A7000809173018F77D9F017C080916B0490918A
:102A80006C04181619069CF0309789F082E00DC08E
:102A900080916B0490916C04855C9F4F1CF483E0E3
:102AA00080936A04309719F481E080936A0420913E
:102AB0006B0430916C048091FA0D9091FB0D82179C
:102AC000930709F45EC090916A04913009F049C0FF
:102AD0008091620182FF2FC0309769F12E3131055C
:102AE00021F482E080935B040CC02431310519F499
:102AF00090935B0406C02A30310519F0243031056B
:102B000024F48091520480934F048091620183FFEA
:102B100012C02E31310549F02431310531F02A300F
:102B2000310519F02430310534F482E390E09093BC
:102B30005A04809359048091620181FF22C08091E0
:102B4000730187FF04C0CF01821B930B01C0C90131
:102B50006CE370E00E94ED78892B99F48091520427
:102B600004C0923071F48091530480934F0480919B
:102B7000620183FF06C082E390E090935A04809341
:102B800059043093FB0D2093FA0D8091730187FF58
:102B900006C0E21BF30BF0936C04E0936B04DF912F
:102BA000CF911F910F91089520917301220F2595C8
:102BB000822F992787FD909597FF03C09095819567
:102BC0009F4F823091059CF1213F8CF120317CF5A3
:102BD000273F94F02A3084F4E0916001F0E0EE0F9A
:102BE000FF1FEE0FFF1F95958795E80FF91FE25D18
:102BF000FA4FE491F0E003C0FC01F595E7953197B9
:102C0000EE0FFF1FE154F84F0190F081E02D27FFF8
:102C100005C080E094E08E1B9F0B03C0CF01805065
:102C20009C4F66E0969587956A95E1F702C080E033
:102C300090E00E941514E0916001F0E0EE0FFF1F9C
:102C4000EE0FFF1FEF5CFA4FE491F0E0EE0FFF1F75
:102C5000E354F84F0190F081E02D8091620180FFF4
:102C600005C080E094E08E1B9F0B03C0CF01805015
:102C70009C4F6091FF0D7091000E6F5F7F4F7093BE
:102C8000000E6093FF0DAC0136E0569547953A95DE
:102C9000E1F78091FC0D9091FD0D480F591F509365
:102CA000FD0D4093FC0DF8948091820D9091830D61
:102CB00078942091F80D3091F90D821B930B885E6A
:102CC000934098F1F8948091820D9091830D7894BF
:102CD0009093F90D8093F80D1092FD0D1092FC0D5C
:102CE0001092000E1092FF0D8091EC049091ED0473
:102CF00001969093ED048093EC042091EA043091C6
:102D0000EB04F901EE58FB4FCA010E94ED78608395
:102D10002F5F3F4F3093EB042093EA0428373105AF
:102D200020F01092EB041092EA040895EF92FF92C3
:102D30000F931F93CF93DF93C9EDD3E041E0E42ECF
:102D4000F12C2881222309F189818823F1F090E078
:102D50000197870102C0000F111F8A95E2F7822FA9
:102D600060E00E94091420915A0730915B07882384
:102D700019F0202B312B05C0C80180959095282390
:102D8000392330935B0720935A07229683E0C13F93
:102D9000D807B9F6DF91CF911F910F91FF90EF9077
:102DA0000895FF920F931F938C01F62E0E94A86E38
:102DB00082E260E04EE655E024E00E94216980E076
:102DC00060E2A8010E945C698CE168E340E655E09E
:102DD0000E945C690E94076DFF2011F089E102C02A
:102DE00080914A010E94FD6C8091540480934F04AD
:102DF0000E941B1286B380958E7791F480914D01CD
:102E000060E00E940914882331F4809164018823D2
:102E100011F4FF2019F0C79AA895ECCFC798FCCF02
:102E20001F910F91FF90089580915F0187FD07C06A
:102E3000887329F48FE995E060E00E94D116089527
:102E400080915F0186FD0AC00E942463883C910541
:102E500028F48CEE95E060E00E94D11608950F935F
:102E60001F9380915F01867099F18EE895E06CE781
:102E700075E00E94221200E080915F01867082302E
:102E800009F401E01EE00AC0113139F0812F8D50A4
:102E900060E00E940914801729F41F5F1631A0F327
:102EA0001631B1F086B380958E7791F406C080918B
:102EB0006401882351F0C79A09C080914D0160E0F8
:102EC0000E9409148823B9F7F2CFC7981EE0DECF1D
:102ED0001F910F9108950F931F93CF93DF938091CC
:102EE0005F0180FD43C08091600190E0817090702F
:102EF00002E010E0081B190BF801EE0FFF1FE45E63
:102F0000FE4FC181D281609687859089C81BD90BFD
:102F10000E94A50F102F802F0E944D0FC817D907B0
:102F20002CF58EEB95E06FEA75E00E9422120E946C
:102F3000A50F812F0E944D0FC817D90724F486B31F
:102F400080958E7749F00E941B1210C08091640119
:102F5000882351F0C79AEBCF80914D0160E00E9429
:102F600009148823B9F7F2CFC798E1CFDF91CF9149
:102F70001F910F910895AF92BF92CF92DF92EF927F
:102F8000FF920F93CF93DF938091620184FD6EC017
:102F900080914D0160E00E940914882329F48091FA
:102FA0006401882309F456C0C79A0E94A86E80E085
:102FB00060E04CE850E020E000E00E94F9670E94E9
:102FC000076D80914A010E94FD6C0E941B120E94B5
:102FD0005B0F0F5F0032D9F7AA24BB2400E0802FDB
:102FE0000E944D0FC92FD0E0AC0EBD1E0F5F043004
:102FF000B1F7F894C090820DD090830D789480E959
:1030000091E0C80ED91E1CC00E945B0FC0E0D0E04A
:1030100000E0802F0E944D0FE92EFF24CE0DDF1D12
:103020000F5F0430B1F786B380958E77F9F4CA1537
:10303000DB05E1F411C0809164018823A9F0C79AEF
:10304000F8948091820D9091830D7894C816D906DA
:10305000D9F60CC0C798A9CF80914D0160E00E94BD
:103060000914882361F7E7CFC798EACFDF91CF91A2
:103070000F91FF90EF90DF90CF90BF90AF900895A9
:103080001F93CF93DF93C6E0D4E011E088818823BB
:1030900051F060E00E940914882329F0812FDF910C
:1030A000CF911F9108951F5F2D96153079F710E08D
:1030B000F5CFDF92EF92FF920F931F93F82E082F18
:1030C0000F700650109177011770083008F0ACC0EF
:1030D000E02EE5940E944018682F8E2D0E942E0F3E
:1030E000D82E6E2D0E940A0FBC01112389F477FFA0
:1030F00004C088279927861B970B959587959595EA
:10310000879501968132910584F080E290E00DC0B0
:10311000212F332727FD30952150304081E090E06A
:1031200002C0880F991F2A95E2F7482F809160010D
:1031300090E08170907022E030E0281B390B8E2DDA
:1031400090E02817390739F48091760183FF03C096
:1031500044E081E001C080E0552747FD509500FF25
:1031600006C0460F571F10E023E83FEF05C09B0144
:10317000241B350BA901F7CF2115310519F488233C
:1031800029F015C09FEF2338390749F0421753073C
:103190001CF0621773074CF02D37310541F02417EE
:1031A00035072CF02617370714F4A90111E023582E
:1031B0003F4F2A3F310501F76417750724F44E3756
:1031C000510544F40CC0461757074CF42FEF433811
:1031D00052072CF48091770186FFAB0111E03EEF9E
:1031E0004C3053071CF44CE05EEF06C081E0453FD5
:1031F000580714F044EF51E08D2D6E2D0E94B91048
:10320000112341F08F2D0E94267010924904809165
:10321000520407C0F6FE03C081E080934904809108
:10322000510480934F04FF248F2D1F910F91FF9025
:10323000EF90DF9008954F925F926F927F928F92FE
:103240009F92AF92BF92CF92DF92EF92FF920F9335
:103250001F93CF93DF933C01A7EBB7E0FC0198E00D
:1032600001900D929150E1F76F3F19F40E944018C0
:10327000682FE0EFCE2EE2E0DE2E0FEFC0E0D0E0D0
:1032800072E0472E512CE62EFF240894E11CF11C1D
:10329000FE01EE0FFF1FEE0FFF1FE351FD4F2081D8
:1032A000822F837009F4CEC026952695237030E0D6
:1032B000802F992787FD90952817390709F4B9C001
:1032C0008181807E99F0828180FD10C0FE01EE0F29
:1032D000FF1FEE0FFF1FE251FD4F80818295869503
:1032E000877090E0E816F90609F0A3C0FE01EE0F22
:1032F000FF1FEE0FFF1FE251FD4F8081880F880FE7
:10330000880F85958595859561E00E94091488232D
:1033100009F48FC0FE01EE0FFF1FEE0FFF1FE351F8
:10332000FD4F8081182F169516951370E12FF0E050
:10333000EE0FFF1FE954F84F0190F081E02D8370EC
:10334000F7FF03C080FD03C074C081FF72C0012F6E
:10335000D6018C91282F332727FD3095809160016D
:1033600090E0817090704201881A990AA12EBB24C6
:10337000A7FCB0948A149B0499F48091770183FF91
:103380000FC0CF0180509C4F62E070E00E94017935
:10339000CB01B9010E94D70E9C01220F331F05C03B
:1033A000CF01B9010E94D70E9C01FE01EE0FFF1F55
:1033B000EE0FFF1FE351FD4FE0818E2F807F69F0FC
:1033C0006E2F62956F70862F90E00B970CF06C5FFC
:1033D000C90140E00E94390E9C01B901882777FDA0
:1033E0008095982FFE01EE0FFF1FEE0FFF1FE1519A
:1033F000FD4F2081269530E040E050E00E94CE78DD
:1034000024E630E040E050E00E9436798A149B04C4
:1034100031F48091770183FF02C020503440E12FC6
:10342000FF27E7FDF095EE0FFF1FE60DF71D318337
:103430002083219684E090E0C80ED91ECE30D105BD
:1034400009F026CFDF91CF911F910F91FF90EF9060
:10345000DF90CF90BF90AF909F908F907F906F90B4
:103460005F904F9008953F924F925F926F927F923C
:103470008F929F92AF92BF92CF92DF92EF92FF9284
:103480000F931F93CF93DF93382E8DE1C82E81E0E9
:10349000D82E0EED802E05E0902E1FEBA12E17E00A
:1034A000B12E2401EE24C0E0D0E0B1E06B2E712CEF
:1034B000FC2E8C2F0E944D0F9C01D6018D919C916A
:1034C0001197281B390B121613062CF45C96ED91FC
:1034D000FC915D9705C0D6011E96ED91FC911F975A
:1034E000E436F10514F4E4E6F0E0B901882777FD4D
:1034F0008095982FAAE0660F771F881F991FAA95BD
:10350000D1F79F01442737FD4095542F0E9436790B
:103510008901BCEF21303B071CF400E01CEF06C022
:10352000E4E020303E0714F000E014E080916201F6
:1035300080FF0FC08091600190E08170907022E068
:1035400030E0281B390BC217D30719F410950195E9
:103550001F4FD5010D931C93C8010F964F9710F57F
:10356000C430D105BCF4E0916001F0E0EE0FFF1F24
:10357000EE0FFF1FEC0FFD1FE15DFA4FE4918E2F60
:1035800090E00197F30102C0EE0FFF1F8A95E2F76A
:10359000CF0107C0C3010C2E02C0880F991F0A94E7
:1035A000E2F7E82AF3E0FF1508F457C080914A04D7
:1035B000882309F052C02196C3010C2E02C0880F47
:1035C000991F0A94E2F72197816020915A07309160
:1035D0005B0782239323892B09F43FC0FE01EE0F82
:1035E000FF1FEA5AFE4FF0808F2D807CB1F1EF2D46
:1035F000EF73F0E0EE0FFF1FDF01A25BBE4FE45A56
:10360000F84F608171812D913C91621B730B88276B
:1036100077FD8095982FD601DA962C91332727FDD8
:103620003095432F532F0E94CE7822E330E040E0C4
:1036300050E00E943679C901F294F694F69423E0A2
:10364000F222EF2DF0E0E130F10519F0329729F484
:1036500003C0080F191F01C08C01F20101931193DF
:103660002F01219622E030E0C20ED31EA20EB31E1F
:10367000C730D10509F01CCF8EED95E0632D0E9477
:103680001B191AE2A12E16E0B12E00E010E0B2E004
:103690004B2E512C612CA4E07A2ED401CD90DC90DD
:1036A000802F632D0E942E0F602F0E940A0FEC01C5
:1036B0008091600190E081709070F201E81BF90B3D
:1036C000E017F10771F58091760183FF2AC08091A0
:1036D000620180FF03C0D095C195DF4FBE018827EE
:1036E00077FD8095982F63587F4F8F4F9F4F9301A1
:1036F0002C193D09442737FD4095542F0E94CE7860
:1037000020E038E040E050E00E943679B901CA017B
:103710006030F8E07F07F0E08F07F0E09F0741F4AA
:1037200006C080917104882311F0C0E0D0E09E01B2
:10373000220F331FD5012D933D935D010F5F1F4F66
:10374000E2E0F0E08E0E9F1E0430110509F0A5CFD7
:103750008E2DDF91CF911F910F91FF90EF90DF9011
:10376000CF90BF90AF909F908F907F906F905F9021
:103770004F903F9008958F929F92AF92BF92CF92B9
:10378000DF92EF92FF920F931F93CF93DF930E94EC
:103790004018C82E2EEDE22E25E0F22E0AE216E0A9
:1037A000C0E0D0E092E0892E912CAA24A394BC2EF4
:1037B0008091600190E0817090709401281B390B1A
:1037C0002C173D0751F18C2F6C2D0E942E0FD82EF7
:1037D000A0924A048C2D0E94331A10924A04F801D8
:1037E00080819181F70120813181820F931F62E0F6
:1037F00070E00E940179AB01FEEF6C307F071CF492
:103800004CE05EEF06C021E0653F720714F044EF24
:1038100051E08D2D6B2D0E94B910219682E090E031
:10382000E80EF91E0E5F1F4FC430D10509F0BFCF5F
:1038300082E00E94E65C8091510480934F04DF9106
:10384000CF911F910F91FF90EF90DF90CF90BF909D
:10385000AF909F908F9008952F923F924F925F92DA
:103860006F927F928F929F92AF92BF92CF92DF9290
:10387000EF92FF920F931F93DF93CF93CDB7DEB7F5
:1038800029970FB6F894DEBF0FBECDBF9F838E83FE
:10389000162F862F0E94331A409179014823242F36
:1038A00030E08091780690E082279327822393234B
:1038B000892B21F08091510480934F044093780626
:1038C00080E094E09093ED058093EC059093EF05F4
:1038D0008093EE0580914A04882379F180916001FC
:1038E00090E08170907022E030E0281B390B10923C
:1038F000DF051092DE052130310521F01092E1053F
:103900001092E0052230310521F01092E30510926B
:10391000E2051092E5051092E405E6EFF5E011925C
:10392000119226E0E630F207D1F742E356E05A83DF
:10393000498326E036E0FA0146C066EF75E040E0D4
:1039400050E0FA01E45AF84FDA01A45EBE4F8081DC
:103950009181D2962D913C91D397821B930B880F26
:10396000991FDB018D939D93BD014E5F5F4F4830E2
:10397000510539F78091640790916507880F991F69
:103980009093FF058093FE058091660790916707ED
:10399000880F991F90930106809300068091680715
:1039A00090916907880F991F9093030680930206F0
:1039B00080916A0790916B07880F991F9093050675
:1039C00080930406B2CF80819181D9018D939D931C
:1039D0009D013496B6E0EA37FB07A9F780915804B9
:1039E000882311F00E94D41580E4E2E3F6E0DF01C1
:1039F0001D928A95E9F710925907F9E34F2EF7E0E7
:103A00005F2EE9EB8E2EE6E09E2E79E7672E76E0BC
:103A1000772E1D82212E33240894211C311C8D8188
:103A20000E94B50D6C01FC0180818F7159F46DE924
:103A3000462E62E0562E29EB33E03C832B83222472
:103A40003324AFC290E0419794F7D60117969C912A
:103A5000892F807FC1F0892F8595859585958595DE
:103A6000282F332727FD309518162CF422163306FD
:103A700009F085C208C088279927821B930B281656
:103A8000390609F47CC2F601838161E00E940914C1
:103A9000D2019C918823C1F4192F1C92F6019181C7
:103AA000892F8850823008F06AC287818E708430F6
:103AB00009F465C2993019F01986188640C020E0D3
:103AC0003CEF398728873BC010E0992309F411E0C7
:103AD00081E0D2018C93F60181818150A82FB0E062
:103AE000FD01EE0FFF1FE252FA4F2081318139872D
:103AF0002887843168F03D81831750F4AA0FBB1FDB
:103B0000AA0FBB1FAE5CB94F4D915C915987488796
:103B1000D6019C91892F807E91F092959695977011
:103B2000892F90E00197E1E0F0E002C0EE0FFF1F67
:103B30008A95E2F7209159072E2B20935907D60139
:103B400018968C91882341F00E94490DE885F985EB
:103B5000E80FF91FF987E887D60116968C9116971A
:103B6000882329F415968C91882309F46AC1F401FD
:103B70006081718182819381112391F420E031E091
:103B800040E050E00E94367950954095309521955F
:103B90003F4F4F4F5F4FA884B984A20EB31E5CC045
:103BA000D60117968C9117978E70843049F5EC9159
:103BB000EF71F0E0EE0FFF1FEC5FF94F6081718154
:103BC000882777FD8095982F20E034E640E050E08C
:103BD0000E94CE78F4016083718382839383D6013F
:103BE00012962C91222361F0332727FD3095432F25
:103BF000532F0E943679F40120833183428353830B
:103C0000D4016D917D918D919C9120E031E040E057
:103C100050E00E94367950954095309521953F4F60
:103C20004F4F5F4FA884B984A20EB31EA114B104F4
:103C300099F0F6018581B7FE82958F7090E09C0126
:103C400044E650E0249FC001259F900D349F900DC5
:103C50001124D3018D939C93F3012081318121158F
:103C6000310599F080915804882321F0215030408B
:103C700031832083D3018D919C91892B31F0F40104
:103C80006081718182819381C3C0A114B10409F460
:103C9000D8C0D60116968C911697882309F4C1C016
:103CA00080915804882309F478C012962C9122231D
:103CB00029F460E070E080E293E018C0822F992739
:103CC00087FD909597FF03C0909581959F4F9C012C
:103CD000442737FD4095542F60E070E080E293E088
:103CE0000E943679C901DA01BC01CD01F6012681B5
:103CF0001A141B040CF52F70422F50E0411551058A
:103D0000D9F1A4E6B0E04A9F90014B9F300D5A9F35
:103D1000300D1124442737FD4095542F0E943679E9
:103D200079018A01F40180819181A281B381E80E39
:103D3000F91E0A1F1B1F2BC022952F70422F50E027
:103D400041155105C9F0A4E6B0E04A9F90014B9F90
:103D5000300D5A9F300D1124442737FD4095542FC4
:103D60000E943679F401E080F18002811381E21A29
:103D7000F30A040B150B0BC028853985C901AA2746
:103D800097FDA095BA2FEE24F82E092F1A2FD401F3
:103D9000ED92FD920D931C931397F4016081718154
:103DA000828193812885398579010027F7FC009568
:103DB000102F1A141B0464F420E031E040E050E0BE
:103DC0000E943679E216F3060407150764F01BC05B
:103DD00020E031E040E050E00E9436792E153F05AA
:103DE0004007510784F448855985CA01AA2797FDE1
:103DF000A095BA2FBA2FA92F982F8827F401808376
:103E00009183A283B383D4016D917D918D919C9117
:103E100020E031E040E050E00E9436793987288781
:103E200010C0E885F985CF01AA2797FDA095BA2F84
:103E3000BA2FA92F982F8827F40180839183A2831A
:103E4000B383D60114966C911497662341F088854C
:103E5000998511964C910E94390E99878887F601B1
:103E6000878180FD12C0E181EE2379F0E53068F4AE
:103E7000F0E0EE0FFF1FE85DF94F8081918128850A
:103E80003985280F391F3987288748855985BA0110
:103E9000882777FD8095982FD60112962C9133278D
:103EA00027FD3095432F532F0E94CE789B01AC0104
:103EB000F60187818695877090E08130910571F0D9
:103EC0000081029709F046C00F71E02FF0E0EE0F7D
:103ED000FF1FEE0FFF1FE25DF94F37C0D6010C91B7
:103EE0000F7110E0000F111F000F111F025D194F1D
:103EF000CA01B90124E630E040E050E00E94367982
:103F0000CA01B901F80120813181428153810E94A7
:103F1000CE78D8016D937D938D939C931397F60182
:103F200000810F7110E0000F111F000F111F025DC3
:103F3000194FD8016D917D918D919C9120E034E0D5
:103F400040E050E00E943679F801208331834283BB
:103F5000538315C00F71E02FF0E0EE0FFF1FEE0F3F
:103F6000FF1FE25DF94F80819181A281B381820FB1
:103F7000931FA41FB51F80839183A283B383FD8108
:103F8000FF5FFD830894411C511C24E030E0820E49
:103F9000931E42E050E0640E751EF03209F03FCDF2
:103FA00046CDA981BA818D909D90AD90BC90C50100
:103FB000B40124E630E040E050E00E943679E98127
:103FC000FA812083318342835383F101E353F84F15
:103FD000C90120839183D20113962D913C911497AE
:103FE00011968C911197FAE08F02F0011124E8519B
:103FF000FC4FF987E8878C914AE084023001112454
:1040000088E19CEF680E791ECF015E2F492F2E1795
:104010003F071CF4C901522F492F852F942F8C0183
:10402000061517050CF4830181149104A104B10451
:1040300079F19801442737FD4095542F181419043D
:104040001A041B0464F4A885B985BD01882777FD8F
:104050008095982F621B730B840B950B0BC0C301CB
:10406000AA2797FDA095BA2F281B390B4A0B5B0B8B
:10407000CA01B901A50194010E94CE7820EA36E870
:1040800041E050E00E943679C901DA014C015D013E
:10409000C80155E0959587955A95E1F7800F911FD6
:1040A0009801232F330F330B2595820F931F000F99
:1040B000012F001F110B801B910B6C01EE24D7FC0C
:1040C000E094FE2C8885998525E0959587952A951D
:1040D000E1F7E885F9858E0F9F1FA30105E055954F
:1040E00047950A95E1F7B301660F672F661F770BB7
:1040F000460D571D9F01232F330F330B2595820F3C
:10410000931FEE0FEF2FEE1FFF0B8E1B9F0B8C01EB
:10411000222717FD2095322FC80CD91CEA1CFB1C46
:104120000C151D052E053F0514F468017901CB011E
:104130009595879595958795480F591F461B570B61
:10414000CA01AA2797FDA095BA2F87017601E81624
:10415000F9060A071B0714F47C018D01D20112969F
:104160008C91882341F010950095F094E094E11C27
:10417000F11C011D111DEB81FC818081882381F0E0
:1041800060E00E940914882359F0AB81BC8111962C
:104190008C910E94490D7C010027F7FC0095102F9F
:1041A000EE81FF81E20DF31DF182E082E981FA8167
:1041B0003496FA83E98322E030E0220E331E45E094
:1041C00050E0440E551E8B819C8102969C838B830C
:1041D000E257F64009F0E5CE29960FB6F894DEBF17
:1041E0000FBECDBFCF91DF911F910F91FF90EF9048
:1041F000DF90CF90BF90AF909F908F907F906F9007
:104200005F904F903F902F900895CF92DF92EF9262
:10421000FF920F931F93DF93CF93CDB7DEB7A09795
:104220000FB6F894DEBF0FBECDBF81E080934A0485
:104230000E944018682F8E010F5F1F4FC8010E9417
:104240002C1C10924A04F801A0EAB2E09E012F5DF6
:104250003F4F808191814CEF883194071CF488E1B5
:104260009CEF06C043E0883E940714F088EE93E08C
:1042700011969C938E9332961596E217F30749F7A1
:1042800000E010E042E0C42ED12CE02E80916001CD
:1042900090E0817090709601281B390B2017310730
:1042A00091F0FF248F2D6E2D0E940A0F855F9140A3
:1042B00034F48F2D6E2D40E050E00E94B910F3943D
:1042C00045E0F41679F70F5F1F4F04301105E9F64A
:1042D00082E00E94E65C8091510480934F04A09696
:1042E0000FB6F894DEBF0FBECDBFCF91DF911F9107
:1042F0000F91FF90EF90DF90CF9008952F923F9213
:104300004F925F926F927F928F929F92AF92BF92E5
:10431000CF92DF92EF92FF920F931F93DF93CF9391
:10432000CDB7DEB7C556D0400FB6F894DEBF0FBE8E
:10433000CDBFF8942091820D3091830D789440E0A8
:1043400080918507909186072817390709F041E089
:1043500040935804F8948091820D9091830D789445
:1043600090938607809385070E944018A2968FAF8E
:10437000A297E0910B01E81709F473C0A82FB0E0F1
:10438000EF3F49F4AA0FBB1FA558B84F8FEF9FEF1F
:104390008D939C9361C04E2F50E08DE090E0489F3C
:1043A000F001499FF00D589FF00D1124E050FC4F93
:1043B000608162956F70A89FF001A99FF00DB89F72
:1043C000F00D1124E050FC4FE081EF70E61718F07B
:1043D000EE23F1F06E2F81E090E09C0102C0220FED
:1043E000331FAA95E2F702C0880F991F4A95E2F79A
:1043F000280F80917807822B809378078FE892E0CE
:1044000070E00E94ED7870937A076093790724C07A
:10441000FA01EE0FFF1FE558F84F11821082FD01DF
:10442000EE0FFF1FE558F84F8FEF9FEF91838083CA
:1044300081E090E09C0102C0220F331FAA95E2F7B1
:1044400002C0880F991F4A95E2F7280F20958091A6
:104450007807822380937807A2964FADA297409366
:104460000B0180917807882309F493C0FE01B1966F
:1044700080E4DF011D928A95E9F79BE7292E97E0FA
:10448000392E662477244301EE24FF24A396EFAF50
:10449000A397A496FFAFA497FE01EF59FF4FA696EE
:1044A000FFAFEEAFA6978091780790E00E2C02C088
:1044B000959587950A94E2F780FF41C0CE01019659
:1044C0006E2D0E942C1CCE0101966E2D0E942C1C7C
:1044D000D1018D919C915C01CC24DD24A3968FADFC
:1044E000A397A4969FADA4978C012E010894411C1C
:1044F000511CF201219131912F01442737FD409544
:10450000542FC601B5010E94CE78D8012D913D915E
:104510004D915C91260F371F481F591FF8012193B9
:104520003193419351938F01A6964EAD5FADA697FF
:10453000E417F507F1F66A0C7B1C8C1C9D1C089493
:10454000E11CF11C82E090E0280E391E95E0E9168E
:10455000F10409F0A8CF8E010F5D1F4F7E01089472
:10456000E11CF11C81E6C82ED12CCC0EDD1ED80139
:104570006D917D918D919D918D01A40193010E947A
:104580003679F701219331937F010C151D0579F7D9
:1045900007C0CE010196A2966FADA2970E942C1C77
:1045A00020E030E0AE014F5F5F4FF894F901EF502B
:1045B000F84FDA01A20FB31F8D919C9191838083F4
:1045C00078942E5F3F4F2032310579F78091570D57
:1045D000882381F480918308882329F08BE798E071
:1045E0000E94316407C080918E08882319F080E012
:1045F0000E94EC5C80915804882309F4FEC160910C
:104600007807662309F44FC0A0917907B0917A0723
:10461000EBE7F7E040E050E011E0E12EF12CCC2494
:10462000CA94DC2C8701A2960FACA29702C0000F9F
:10463000111F0A94E2F7862F90E0042E02C0959590
:1046400087950A94E2F780FF26C020813181A296E7
:104650008FADA297841769F4C90180959095A8172A
:10466000B90718F42A0F3B1F09C0D182C082601B12
:1046700012C0A217B30728F42A1B3B0B31832083F7
:104680000AC011821082C701042E02C0880F991F30
:104690000A94E2F7681B4F5F5F4F32964530510531
:1046A00051F66093780780916D048823A1F0909172
:1046B0006E04892F8F5F80936E04843660F093566A
:1046C00090936E0480916F04909170040196909382
:1046D000700480936F040E9496168091EF078823E0
:1046E00019F081508093EF0780916101882309F4CC
:1046F00065C08091630081FD61C0809172069091D8
:104700007306A0917406B09175060196A11DB11DA6
:104710008093720690937306A0937406B093750607
:1047200000E010E0FF248F2D0E944D0FB6E096951B
:104730008795BA95E1F7080F191FF39494E0F916DD
:1047400091F780917606909177060817190761F026
:1047500010937706009376061092720610927306F5
:104760001092740610927506E0907206F09073062F
:1047700000917406109175066091610170E080E00F
:1047800090E020E737E140E050E00E94CE786E15DF
:104790007F058007910790F48FE390E0A0E0B0E000
:1047A000E822F9220A231B239AE0E916F104010505
:1047B000110521F48091530480934F04809171047A
:1047C000882319F08150809371040E94A86E0E9482
:1047D000036F0E945918182F8091590490915A0420
:1047E000009729F0019790935A048093590411235C
:1047F00089F08091640190E024EF31E0DC01A29F18
:10480000C001A39F900DB29F900D112490935A0464
:104810008093590480914D0160E00E94091488231F
:1048200039F48091590490915A04892B09F4E3C01A
:10483000C79A80915E0490915F042091CB073091DC
:10484000CC07821B930B60E270E00E9401797093A9
:104850001208609311086115710591F08091760737
:1048600090917707821B930B62E070E00E940179C0
:10487000709312086093110830935F0420935E04D4
:104880008091CB079091CC07909377078093760720
:10489000E0912208F0E0EE0FFF1FEC5EF74F019071
:1048A000F081E02D812F09950E94076D0E94D80F9D
:1048B000882321F0809165008F7E03C08091650080
:1048C000806180936500F8948091820D9091830DB2
:1048D00078948F7190708230910521F0039709F0E0
:1048E0008CC072C08091550490915604892B39F484
:1048F00087E00E944D0F9093560480935504809159
:104900005504909156048C01E3E0000F111FEA95C5
:10491000E1F7081B190B87E00E944D0F800F911FD4
:1049200073E0969587957A95E1F77C0100E010E0B9
:10493000909356048093550420914C01332727FD12
:104940003095432F532FC801B7010E94CE7828E03D
:1049500030E040E050E00E94367964E0EE0CFF1C4D
:10496000001F111F6A95D1F7E20EF31E041F151FD9
:10497000209100013091010140E050E0C801B701F1
:104980000E9436792093570480917507805E80934A
:104990007507882391F580914B01281770F5809158
:1049A000630081FD2AC0223340F18091540480933A
:1049B0004F048091620183FF20C082E390E09093D6
:1049C0005A048093590419C080915F018695869599
:1049D0008695877090E0BC01660F771F660F771F82
:1049E000680F791F615C7A4F80E594E045E050E004
:1049F0000E94517902C0C7981CCFCB59DF4F0FB628
:104A0000F894DEBF0FBECDBFCF91DF911F910F9104
:104A1000FF90EF90DF90CF90BF90AF909F908F90DE
:104A20007F906F905F904F903F902F9008951F93CD
:104A3000CF93DF939FEF9ABB1BBA81E887BB8EE7CA
:104A400088BB8EE384BB81EC85BB11BA92BB88E046
:104A500082B987EF83B9109261001092620080E101
:104A600080936400909365000E94C96C80E487B9CC
:104A700085E886B987E083BF8CE981BF87B783600B
:104A800087BF8AE08EBD82E880938A0080917D0096
:104A9000806280937D00EDB7FEB7329785E502C056
:104AA000808331974EE0E830F40709F0C8F782EAD6
:104AB00094E590931508809314088CE099E4909302
:104AC00017088093160889E10E94FD6C78940E9473
:104AD000AF7378940E943E621091490104B603FCC2
:104AE0000CC00E94BB170E9420170E94A50F0E94B5
:104AF0006B170E942F170E9414170E941B120E940E
:104B00004018682F81EF97E00E942C1C80914A0189
:104B10000E94FD6C8091640190E024EF31E0AC01D3
:104B2000429FC001439F900D529F900D112490937E
:104B30005A048093590480914901181719F081E0B3
:104B40000E94E65C0E94242887B7806187BF2DE021
:104B500088E190E00FB6F894A89581BD0FBE21BD05
:104B60000E942410EC01E0916301F0E0EE0FFF1FC2
:104B7000EE5FFE4F0190F081E02D09950E94B90F84
:104B80000E947E2180916D07833019F4A8951092C0
:104B90006D070E94241020914504309146048C1B1F
:104BA0009D0B8217930708F4C901909346048093E4
:104BB0004504D6CFFC01A0912208B0E0AA0FBB1F8C
:104BC000AC5EB74FED93FC938FEB09958091500449
:104BD00080934F0408956F927F928F929F92AF922D
:104BE000BF92DF92EF92FF920F931F93CF93DF93C9
:104BF0008091770185FD04C0A12C14E0B12E03C083
:104C0000A12CB5E0BB2EE0917601E595E595E59503
:104C1000E595EE0FE85F9091780184E69802C00177
:104C20001124A8E5EA2EA2E0FA2EE80EF91EEA30D9
:104C300028F448EC5FEA4E195F090DC08853904F85
:104C40002E2F30E0829FA001839F500D929F500D28
:104C50001124405C504EC1EFD7E0AEEEB4E06E2FB1
:104C600070E0660F771F6C0F7D1F882499248A18C7
:104C70009B08662477246E187F0808E512E00E1959
:104C80001F0923C028813981C501DA2CF92F2A1583
:104C90003B051CF4C901D22EF92F8D2D9F2F8815AD
:104CA00099050CF4C401805A964F9301281B390BC7
:104CB000420F531F1196FC92EE92800F911F139694
:104CC0009C938E93129722961496C617D707D1F607
:104CD000EE0FAE2FB0E0AA0FBB1FA251BB4FED925B
:104CE000FC92EF5FAE2FB0E0AA0FBB1FA251BB4FEB
:104CF0004D935C93EF5FF0E0EE0FFF1FE251FB4F2F
:104D000011821082DF91CF911F910F91FF90EF9050
:104D1000DF90BF90AF909F908F907F906F9008959D
:104D2000A0912508B0912608FD01819391931396D7
:104D30007C936E9312973296F0932608E0932508A1
:104D40000895882329F060E679E080E699E004C0C0
:104D500060EB74E080EB94E00E94902608951F932E
:104D6000182F82700E94A126812F81700E94A12697
:104D70001F910895EF92FF920F931F93CF93DF93AC
:104D800080917601877090E08130910519F002974B
:104D900019F404C010E003C011E001C012E020913A
:104DA000F1073091F20720503C4F220F331F8091C2
:104DB000F3079091F40780509C4F880F991F892F1B
:104DC000232F37FD20E087FD80E0022F20310CF0FB
:104DD0000FE0F82E8FE08F1514F44FE0F42E2F2DF6
:104DE000332727FD3095802F992787FD90950996C9
:104DF0008217930714F40F2D0950C02FDD27C7FD2C
:104E0000D095275F3F4F2C173D071CF437EFF32E4B
:104E1000F00E8EEE94E0909326088093250880E7AC
:104E200097E160EB74E00E94902680E00E94AF263C
:104E300080E699E060EB74E00E94902680E699E0BD
:104E400060EB74E00E949026812F0E94AF2611959E
:104E5000CE019595879595958795E82E0E94AF266A
:104E60001E19802F0E94AF26101B8F2D992787FDBA
:104E700090959595879595958795082F0E94AF26D3
:104E8000101B8F2D0E94AF26812F8F190E94AF26F5
:104E900080E00E94A1268091250890912608029723
:104EA000909326088093250880E69AEE60E070E0F3
:104EB0000E949026DF91CF911F910F91FF90EF906C
:104EC0000895882329F080E293E060E476E004C04E
:104ED00080E496E060E273E00E94902608950F93CC
:104EE0001F93082F10E0802F81700E9461271F5FA1
:104EF00006951830C1F71F910F9108950F931F93D6
:104F00008EEE94E0909326088093250880912708E0
:104F100091E0892780932708882309F44FC0809166
:104F2000F1079091F207885F9B4F34E09695879543
:104F30003A95E1F78038910510F08FE790E0182F4F
:104F40002091F3073091F40737FD0FC0C901409657
:104F500025E0969587952A95E1F78034910510F024
:104F60008FE390E0082F00640FC080E190E0821B87
:104F7000930B05E0969587950A95E1F780349105A6
:104F800010F08FE390E0082F812F0E946F27802F71
:104F90000E946F270127802F90E09C01B4E0359597
:104FA0002795BA95E1F7A4E0880F991FAA95E1F734
:104FB000822B0E946F2780E197E22BC08091F5073A
:104FC0009091F60780509C4FF4E096958795FA955E
:104FD000E1F78038910510F08FE790E0082F006826
:104FE000802F0E946F278EE80E946F278EE8082787
:104FF00010E0C801E4E095958795EA95E1F774E043
:10500000000F111F7A95E1F7802B0E946F2780EB2C
:1050100096E360EA7FE00E949026E0912508F091F7
:10502000260811921192F0932608E0932508EE5E6F
:10503000F440E03FF1052CF08DE496E060E00E9442
:10504000D1161F910F91089580917601877090E09D
:105050008430910534F4813091054CF4892B21F092
:105060000895049749F406C00E94EB2508950E9414
:10507000BA2608950E947E2708959C0190912208E7
:10508000E92FF0E0E25EF74F809123088083E92F5B
:10509000EF5FE0932208E53040F09093220880E62D
:1050A00096E060E00E94D1160895809150048093AC
:1050B0004F04F0E0EE0FFF1FEC5EF74F31832083CB
:1050C0008FEBF90109950895E0912208EE23D1F0C4
:1050D000E150E09322088091500480934F04109295
:1050E0002408F0E0DF01A25EB74F8C918093230883
:1050F000EE0FFF1FEC5EF74F0190F081E02D8EEB7D
:105100000995089583E796E060E00E94D11608951E
:105110008F929F92AF92BF92CF92DF92EF92FF92C7
:105120000F931F93CF93DF93182F7B014A015901EF
:10513000C02E84FD04C074E0D72E05E005C01F70AA
:10514000106665E0D62E04E08D2D8066181761F09C
:105150008D2D8064181741F09091EE07992361F02E
:10516000133611F0133441F4E70121968091500475
:1051700080934F04802F17C0802F8066181761F02E
:10518000802F8064181741F0992309F475C01236F6
:1051900019F0123409F070C0E70121978091500492
:1051A00080934F048D2D90E00E949F6F882351F0D3
:1051B000CC27DD27CE19DF09802F0E9426708D2D88
:1051C0000E9426708114910491F481E0A816B10424
:1051D00071F4103661F41092EE07C0E0D0E0E114F3
:1051E000F10411F4C1E0D0E080E60E9426708091C5
:1051F000110890911208C81BD90BAC16BD0644F4D7
:10520000812F0E9426708091520480934F04E50103
:10521000C815D90544F4812F0E942670809152044C
:1052200080934F04E401CE15DF05B1F0209739F4E7
:10523000812F0E9417708091500480934F048C2D11
:1052400083700E94E65CEC16FD0614F08FEF01C03F
:1052500081E08093130802C010921308CE01DF9101
:10526000CF911F910F91FF90EF90DF90CF90BF9063
:10527000AF909F908F900895E701A4CF0F93772769
:1052800067FD7095552747FD5095332727FD3095CD
:1052900001E00E9488280F9108950F93772767FDFA
:1052A0007095552747FD5095332727FD309502E02F
:1052B0000E9488280F910895FF920F931F93F82E54
:1052C000162F042F80E860E0412F50E0202F0E942D
:1052D000866B1A3010F485E701C08FE660E04FE27C
:1052E000202F0E9456681A3010F485E701C08FE61F
:1052F0004F2D50E04F5F5F4F60E0202F0E94866B84
:105300001F910F91FF900895CF92DF92EF92FF923D
:105310000F931F93CF93DF93F82ED62EEA014115FA
:10532000510511F429E75CC080912308882309F016
:105330003EC08091F007882309F039C084E6F81652
:10534000F9F0E5E6FE1611F042E032C0662361F0A6
:1053500081E090E0861B9109880F991FFA01E81BF4
:10536000F90B859194911BC081E090E0821B91091B
:10537000880F991FFA01E81BF90B859194910FC0D2
:1053800070E0822F90E001976817790764F4FB01C1
:105390003196EE0FFF1FE40FF51F859194910E9447
:1053A000DA2580E040C1FA0185919491F8CF40E080
:1053B0001092F0078D2D622F0E945C292091520DD2
:1053C0002E508D2D90E0019666EF7FEF0E940179BF
:1053D000CB01880F991F880F991F860F971F280FE1
:1053E0008BE798E0622F0E94D3620115110511F43A
:1053F00090E00AC0809123089E2D8E1508F4982F06
:10540000F801E90FF11D9491F0E6FF16C1F1FF15C7
:10541000B8F083E4F81609F4B6C08F1540F0E1E265
:10542000FE16E1F1F2E4FF1609F0DDC081C084E46C
:10543000F81609F44FC0E5E4FE1609F0D4C060C0C8
:10544000F4E6FF1609F44BC0FF1548F082E6F816A3
:1054500009F473C0E3E6FE1609F0C5C098C0F1E890
:10546000FF16C9F08FEBF81629F0E5E6FE1609F0F5
:10547000BAC04BC0109224081092230813C099237D
:1054800009F4B1C090E08091EE07882309F491E01F
:105490009093EE07A8C01092EE070DC08091EE0722
:1054A000882319F01092EE079EC08091230888236C
:1054B00011F0209719F40E94642895C0809150043F
:1054C00080934F04109224081092230880E6809362
:1054D000840D8DC080912408891709F484C0012BA4
:1054E00009F481C08091EE07882309F07CC0809187
:1054F0002408891710F48F5F15C01092240870C01B
:1055000080912408882309F46EC0012B09F46BC034
:105510008091EE07882309F066C0809124088823D3
:1055200021F08150809324085BC09093240858C0D8
:10553000809123088C1509F456C08091EE078823CA
:1055400009F051C0809123088C1510F080E001C053
:105550008F5F0115110509F46FC0982FE81608F444
:105560009E2DF801E90FF11DE491EF3F09F064C0B1
:10557000EBCF809123088E1508F4E82E0E0D111D37
:10558000F801049128C080912308882361F180915B
:10559000EE07882341F580912308882311F48C2D90
:1055A00001C081500115110509F44FC0982FE8166C
:1055B00008F49E2DF801E90FF11DE491EF3F09F089
:1055C00044C0EBCF809123088E1508F4E82E0E0D11
:1055D000111DF8010491901708F4092F0093240875
:1055E00080E68093840DCD2B11F456E001C057E086
:1055F00040912308442319F41092ED0713C0242F7F
:1056000030E08091ED07281B3109852F90E082174B
:10561000930714F4451B04C0121613061CF04150E6
:105620004093ED0781E0DF91CF911F910F91FF90A3
:10563000EF90DF90CF9008958093230890912408F5
:105640000115110509F095CF08C0809323089091AA
:1056500024080115110509F0B5CF00E0BFCFCF92A6
:10566000EF920F931F93C02E00E010E0EE240E94F3
:1056700084291F910F91EF90CF9008950F93062FDB
:1056800060E040E050E020E00E942F2B0F91089551
:105690000F93942F222311F400E001C002E043E0B5
:1056A000949FA00111244957594F23E00E942D6D6A
:1056B0000F9108950F93942F222311F400E001C05D
:1056C00002E043E0949FA00111244257594F23E088
:1056D0000E942D6D0F910895DC01FB0105C09C9186
:1056E00080818D93919341504423C9F70895CF92BF
:1056F000DF92EF92FF920F931F93CF93DF93182FB8
:1057000080E060E045E157E022E00E942169812FBE
:105710006BE045E956E02CE008E00E942F2B88233F
:1057200009F465C0F0902308FA941038A9F480E8D1
:105730000E94267089E18093EF0786E08F1518F0AC
:105740008F2D0E94D37487E0F81611F40E946274C2
:105750008091510480934F0418E0EE24CF2CDD2477
:10576000C7FCD0944091ED074E0D473019F4193322
:1057700070F13DC0C42FD0E0CC16DD0611F020E161
:1057800001C022E1AE014F5F5F4F82E1612F02E075
:105790000E947E6A8091EF07882319F4CC16DD06FB
:1057A00009F000E0AE01440F551F4C0F5D1F440F80
:1057B000551F440F551F4054594F88E1612F2CE06D
:1057C0000E942D6D185FE394103461F610C0809133
:1057D000EF07882329F487E0F81611F422E001C0CE
:1057E00020E086E0612F4DEA56E00E942169DF91BA
:1057F000CF911F910F91FF90EF90DF90CF90089580
:105800002F923F924F925F926F927F928F929F92D0
:10581000AF92BF92CF92DF92EF92FF920F931F93BE
:10582000DF93CF93CDB7DEB760970FB6F894DEBFA6
:105830000FBECDBF8D8780E060E042E657E022E0FA
:105840000E9421698D856AE045E956E02CE00CE66E
:1058500017E09BE0E92EBCE0CB2E0E948429882330
:1058600009F4B4C3109123082D85203669F0213640
:1058700030F4822F8252843008F091C085C03D857B
:10588000303809F08CC045C0133001F580913504E3
:1058900020913604922F9F708C599F4F9F7064E621
:1058A00070E00E94017984E690E0AC01649FC00141
:1058B000659F900D749F900D112480933504892F5E
:1058C0008F70207F282B209336045AC0193009F09E
:1058D00066C080913C0420913D04922F9F708C59AA
:1058E0009F4F9F7064E670E00E94017984E690E02B
:1058F000DC016A9FC0016B9F900D7A9F900D11246F
:1059000080933C04892F8F70207F282B20933D04A7
:1059100037C0133011F4E0E004C0193009F03FC083
:10592000E1E04E2F50E0FA01A3E0EE0FFF1FAA9531
:10593000E1F7E41BF50BEB5CFB4F20818181382FF5
:105940003F70B2E024393B0718F484E992E008C0C4
:105950002852354018F080E090E002C088E295E0DF
:10596000FA0173E0EE0FFF1F7A95E1F7E41BF50BE8
:10597000EB5CFB4F80839F708181807F892B8183CB
:1059800082E00E94E65C0BC08091EE07882339F02C
:10599000143029F01A3019F084E08093F20D8091D0
:1059A000EE07882319F4F2E0FA8302C021E02A838B
:1059B0006AE3462E64E0562E48EA5DE058874F833E
:1059C000188A1F8684E090E09C878B87A3E0B0E074
:1059D000BA87A987E2E0F0E0FE83ED8321E030E0C2
:1059E0003C832B83612E772467FC70943A81306E60
:1059F0003E878091ED074B818417C8F40B811C8191
:105A0000081B110953E0000F111F5A95E1F780E0C0
:105A1000602F47E557E020E00E9421694F855889B3
:105A20004F5F5F4F8CE0602F20E00E94866B80917B
:105A3000ED075D81851708F059C06D817E81681B77
:105A4000710943E0660F771F4A95E1F7162F84E04E
:105A500042E557E020E00E942169EF85F88933E0B4
:105A6000EE0FFF1F3A95E1F78F859889E81BF90B38
:105A7000EA5CFB4F808182958F70AD81BE816A1692
:105A80007B0611F000E001C002E090E0AC01440FA1
:105A9000551F440F551F480F591F495B584F8AE245
:105AA000612F25E00E942D6DED81FE816E167F062F
:105AB000E9F40F85188983E0000F111F8A95E1F73B
:105AC0002F853889021B130B0A5C1B4FD8016C9180
:105AD00062956F708D8540E021E00E944D2982958E
