:100000000C9491080C94AE080C94AE080C94AE08B5
:100010000C94AE080C94AE080C94AE080C94AE0888
:100020000C94AE080C94AE080C94AE080C94AE0878
:100030000C94520A0C94AE080C94AE080C94D40A9A
:100040000C9482090C94AE080C94AE080C94AE0883
:100050000C94AE080C94AE080C94AE080C94AE0848
:100060000C94AE080C94A1090C94AE080C94AE0844
:100070000C94AE080C94AE080C94AE080C94AE0828
:100080000C94AE080C94AE080C94AE0880400000AE
:1000900000000000000000E0E0E0E0E0E0E0E0E080
:1000A000E0E0E0E0E0600000C0E0E0E0E0E0E0E0B0
:1000B000E0E0E0E0C080000000000000C0E0F07080
:1000C00038383878F8F0C000000000000000000068
:1000D000000000000000000000000000000000FF21
:1000E000FFFFFFFF1F1F5FFFFFC0808080BBBFFEC1
:1000F000FDFFFFFFFFFFFFFFFFFFFFFFFFFFFFFF12
:10010000FFFF1FEFF7BBFB7BFBBBF7EF1FFFFF0002
:1001100000000000000000E0FEFF7F7170F8FC7C32
:10012000000007070300000000F8FFFFE7E0E0E041
:10013000E0F0793F1F0F00000000001F3F7F787044
:100140007030B8FCFF7F1F0000000E1E3EFEFEF662
:10015000E0E07C3E3E1E0E0E0400000000000001A8
:10016000031F3F2F8686ECFFC77F3F0F0F07030358
:10017000030181C181000000006060600101010392
:100180000F3F7CFBF7EDEBEAEBEDF7FBFCFFFF002D
:100190000000000038383C3F3F3B383839393938A7
:1001A000383E3F0F003030383F3F3F3838000001C5
:1001B000070F3F3E383810000038383838381C1CDC
:1001C0001E0F070301000030383C3C3E3F1F030177
:1001D000333F3F3E3C3818000000000000000000A4
:1001E00000010001000406133300000000000000BD
:1001F00000008383898884C8C8C0C4E0E0F0F07838
:1002000078383C1F0F8FCFFFFFFFFFFFFFFFFF007E
:1002100000F84848484800081820C0201808000086
:10022000F888888870008070087080000000F818D6
:10023000608000F80000F808080810E00000F800EE
:1002400000F818608000F80000E010080888889026
:100250000000000000000000000000000000002678
:10026000070E0C000000C02080603E1E0E0E1E1FF8
:100270000F0F0F0F0F070707030303010100000013
:1002800080E0F8FEFFFFFFFFFFFFFFFFFFFFFF0023
:100290000007040404040004060100010604000031
:1002A000070000000004030101010304000007002F
:1002B0000001060700000704040402010000070013
:1002C0000007000001060700000102040404040303
:1002D000000000000000000000000000000000FF1F
:1002E000FFFFFFFCFEFFFFFFF8F0E0E0606060E072
:1002F000E0E0E0E0E0E0F8FCFCFEFEFFFFFFFFBF17
:10030000BF1F1F3F7F7F3F3DBCBEE7E7F7FFFF00FA
:1003100000FE2222221C000078840202028478005F
:10032000009C12121222E4009C12121222E400FE1F
:100330000000FE12121212EC0000FE0000FE00008F
:10034000000000FE00020202FE02020200FE0000A7
:10035000FE1212121200009C12121222E40000FF80
:10036000FFFFFFFFFFFFFFFFFFFFFFDFCED6FEFE19
:10037000FCFFFFFFFF7F5F97B7BFFFFF0701010192
:10038000018830E3CEFCF0C00C0C08020200010032
:100390000001000000000000000001010100000059
:1003A0000000010101010000000101010100000144
:1003B0000000010101010100000001000001010134
:1003C0000101000100000000010000000001000028
:1003D0000101010101000000010101010000002FE5
:1003E0000F03030F0F0F1F1F3F9FFFFCF9FBF1F3DC
:1003F000737F3F1307A3425FFFFFFFFFFCC0400670
:1004000078396EEEFBFFFFFFFFFE8000707000008A
:1004100000000000000000000000000000000000DC
:1004200000000000000000000000000000000000CC
:1004300000000000000000000000000000000000BC
:1004400000000000000000000000000000000000AC
:10045000000000000000000000000000000000603C
:10046000E0E0E09213130000001F9FFF7F1F13C303
:10047000E2F6F0E0EAD6FDFFFFFFFFFFFFFFFE78A8
:100480006060706141010397FFFF7F060E06025214
:10049000554420454C45205448522041494C205257
:1004A00055442054485220454C452041494C204158
:1004B000494C20454C452054485220525544204137
:1004C000494C2054485220454C4520525544200068
:1004D00003010200040506070000000000000108F7
:1004E0001E640101081E6401010F32960A0A1E32C1
:1004F000966D656E75537461636B206F7665726679
:100500006C6F77006D656E75537461636B20756EEB
:10051000646572666C6F7700707265737320616ECC
:1005200079204B657900414C455254004D45535359
:1005300041474500506C6561736520726573657451
:10054000207468656D005377697463686573206E05
:100550006F74206F666600414C45525400416C61D7
:10056000726D732044697361626C65640054485213
:10057000206E6F742069646C6500454550524F4D84
:10058000206C6F77206D656D004F46464142535297
:100590005573525525454C73454C25544873544862
:1005A00025414C73414C255031205031255032208B
:1005B0005032255033205033250054485252554470
:1005C000454C4549443049443149443241494C47FE
:1005D000454154524E535731535732535733535763
:1005E00034535735535736004F4646004F4E200080
:1005F0002D2D2D002D2D2D20434831204348322014
:10060000434833204348342043483520434836206C
:100610004348372043483820434839204348313045
:100620004348313143483132434831334348313410
:1006300043483135434831364348313743483138F0
:1006400043483139434832304348323143483232EB
:1006500043483233434832344348323543483236D4
:1006600043483237434832384348323943483330BD
:10067000005031202050322020503320204D41584E
:100680002046554C4C50504D3150504D3250504DED
:100690003350504D3450504D3550504D3650504DD4
:1006A0003750504D38434831204348322043483377
:1006B00020434834204348352043483620434837B8
:1006C000204348382043483920434831304348319B
:1006D0003143483132434831334348313443483160
:1006E0003543483136434831374348313843483140
:1006F000394348323043483231434832324348323A
:100700003343483234434832354348323643483223
:1007100037434832384348323943483330002D2D6F
:100720002D2D00564552533A2056312E312D6772E9
:100730007576696E00444154453A2031332E31318B
:100740002E323031300054494D453A2031353A305F
:10075000333A3035002053564E3A207472756E6B22
:100760002D7234360012081200081C0808081C08F4
:100770000000082200490022080000000000227F3B
:100780002200000008220049002208000008220080
:1007900049002208000000227F220000000000081B
:1007A0002200490022080000081C0808081C080054
:1007B000503B442C6F30C64909436D3C9E32D64BAA
:1007C0007E34A32BE4381539A439153A70756C734F
:1007D0006520746162206F766572666C6F77005475
:1007E0004852525544454C454944304944314944A6
:1007F0003241494C47454154524E53573153573279
:100800005357335357345357355357360054485280
:10081000525544454C45494430494431494432419C
:10082000494C47454154524E535731535732535711
:1008300033535734535735535736002020205454E0
:100840006D00457870457846466E654D6564437227
:100850007300544F54005354250053544B005453C9
:100860005700544D45005354415400746D61696EF6
:10087000202020202020202020206D7300746D7205
:1008800031204A69747465722020202075730074C9
:100890006D72314C6174206D696E2020202075735B
:1008A00000746D72314C6174206D617820202020BD
:1008B0007573005354415432004D6F6465004F46C8
:1008C000464F4E2000416C61726D205761726E6917
:1008D0006E67004F46464F4E20004D656D6F727932
:1008E000205761726E696E67004F46464F4E20007A
:1008F000537769746368205761726E696E67004F41
:1009000046464F4E20005468726F74746C652057D1
:1009100061726E696E67004F46464F4E20005370FD
:100920006C6173682073637265656E004F464600A4
:100930004C69676874206F66662061667465720032
:100940004C6967687420737769746368004F464622
:100950004F4E2000466C617368206F6E20626565A3
:1009600070004F46464F4E20004265657020636F11
:10097000756E74646F776E004F46464F4E20004D83
:10098000696E7574652062656570004F46464F4E0E
:1009900020005468726F74746C652072657665729D
:1009A00073650053494E474F534D5046494C5400D0
:1009B00046696C7465722041444300496E616374FA
:1009C000697669747920616C61726D00426174743A
:1009D000657279207761726E696E6700436F6E741D
:1009E000726173740051756965744E6F4B65794E11
:1009F0006F726D204C6F6E6720784C6F6E6700428F
:100A0000656570657200524144494F205345545505
:100A100050004D756C7469706C6965720043616C4F
:100A20000050504D494E00010456455253494F4E17
:100A3000005472696D2D202B00204D656E75204588
:100A400078697420446F776E202020557052696752
:100A50006874204C65667400444941470041314147
:100A60003241334134413541364137413800414EFE
:100A700041003C202020203E005365744D696420D5
:100A80005365745370616E446F6E6520202000437F
:100A9000414C4942524154494F4E004475706C6973
:100AA000636174696E67206D6F64656C00312F3807
:100AB0000066726565004D4F44454C53454C0044FB
:100AC000454C455445204D4F44454C2020205B4D1E
:100AD000454E555D00504F534E454700536869667B
:100AE000742053656C0075536563003443482036A9
:100AF000434820384348203130434831324348315D
:100B0000344348313643480050504D20202053494B
:100B10004C565F4153494C565F4253494C565F43D4
:100B20005452414330390050726F746F0052455433
:100B300041313233004265657020436E7400547257
:100B4000696D2053770045787020202045784669EC
:100B50006E6546696E6520204D656469756D436FED
:100B600061727365005472696D20496E63004F466F
:100B7000464F4E2000542D4578706F004F46464F2B
:100B80004E2000542D5472696D00436F756E7420B1
:100B9000446F776E436F756E74205570202000543B
:100BA000696D6572200054726967676572005469E7
:100BB0006D6572004E616D650053455455502000BF
:100BC000010A02010101010101070301015B4D4519
:100BD0004E555D20205B455849545D0059455320D2
:100BE000202020204E4F0044454C455445204D4F79
:100BF00044454C00204142434445464748494A4BFE
:100C00004C4D4E4F505152535455565758595A30D7
:100C10003132333435363738395F2D2E00657870F0
:100C200020202520207377312073773200455850DB
:100C30004F2F44520005044452204869676800441D
:100C400052204C6F77004452204D69640044725327
:100C500077320044725377310057656967687400D2
:100C60004578706F004558504F2F445220002D2D6D
:100C70002D783E30783C307C787C663E30663C3067
:100C80007C667C63312063322063332063342063CD
:100C90003520633620633720633820633920633181
:100CA0003063313163313263313363313463313531
:100CB000633136002B2A5200777420737263202030
:100CC000737720637276004D495845520044454C75
:100CD000455445204D4958205B4D454E555D0053C8
:100CE0006C6F772020557000536C6F772020446F15
:100CF000776E0044656C61792055700044656C61C5
:100D00007920446F776E0041646420202020204DBC
:100D1000756C7469706C795265706C6163652000E4
:100D20004D756C747078004F4646005761726E695D
:100D30006E6700537769746368002D2D2D783E30FF
:100D4000783C307C787C663E30663C307C667C63E8
:100D500031206332206333206334206335206336CF
:100D600020633720633820633920633130633131A9
:100D7000633132633133633134633135633136008B
:100D8000437572766573004F4E204F46460054728D
:100D9000696D004F666673657400576569676874AE
:100DA00000536F757263650045444954204D49589E
:100DB0002000494E53455254204D495820002D2DB6
:100DC0002D2D202020763E6F66732020763C6F66A6
:100DD0007320207C767C3E6F66737C767C3C6F66ED
:100DE00073414E44202020204F52202020202058A4
:100DF0004F522020202076313D3D76322076312121
:100E00003D76322076313E7632202076313C763285
:100E1000202076313E3D76322076313C3D763220C0
:100E20000046756E6374696F6E205631202056320D
:100E30000043535749544348000303434C45415230
:100E4000204D49584553205B4D454E555D0020527D
:100E50004554410020524554410020524554410020
:100E60002052455441004368616E6E656C204F729C
:100E70006465720054454D504C4154455300434FF6
:100E80005059205452494D205B4D454E555D002D23
:100E90002D2D494E560073756254206D696E2020C9
:100EA0006D617820696E76004C494D4954530001BC
:100EB000044356004355525645005052455345543D
:100EC00000454449542D3E00435552564520000AE2
:100ED0000101010101010101010101454550524F8C
:100EE0004D206F766572666C6F7700454550524FA6
:100EF0004D206F766572666C6F770067656E7772EE
:100F0000697465206572726F7200454550524F4D8D
:100F100020466F726D617474696E6700426164206F
:100F2000454570726F6D2044617461004D4F4445BA
:100F30004C2020202020005008500000000000001D
:100F4000005E00000008060806287E287E28042A85
:100F50007E2A104C2C106864344A56205000000041
:100F600008060000182442000042241814083E0815
:100F70001408083E08080000B070000008080808BF
:100F800000006060000060180600003C42423C0027
:100F900000447E40004462524C00424A4A340018E9
:100FA000147A10002E4A4A32003C4A4A300002723B
:100FB0000A0600344A4A34000C52523C00006C6C61
:100FC000000000A868000000081422001414141483
:100FD00000002214080004520A043C425A5A1C0021
:100FE0007C12127C007E4A4A34003C424224007E3D
:100FF00042423C007E4A4A42007E0A0A02003C42CB
:101000005234007E10107E00427E4200002040409C
:101010003E007E182442007E4040407E0408047E4C
:10102000007E08107E003C42423C007E12120C0002
:101030003C42225C007E12324C00244A52240202BE
:101040007E0202003E40403E1E2040201E7E2018B0
:10105000207E422418244202047804020062524A8C
:1010600046007E42420000061860000042427E00B8
:101070000804020408404040404000000608000008
:1010800030484878007E48483000304848480030B2
:1010900048487E00784858580008FE0A080010A802
:1010A000A878007E08087000487A4000008088FA1E
:1010B00000007E10284000427E40007808700870D2
:1010C0000078080870003048483000F828281000E0
:1010D000102828F8007810080800505868280008E0
:1010E0007E4848003840407818204020183840306A
:1010F000403800483030480098A0A0780048685830
:101100004800107C440000007E00000000447C1079
:10111000101044381010384410104080080420107B
:10112000020111241FBECFEFD0E1DEBFCDBF12E020
:10113000A0E0B1E0EAE9FBEB02C005900D92A43813
:10114000B107D9F71FE0A4E8B2E001C01D92A83FA3
:10115000B107E1F70E9445110C94CB5D0C9400009F
:10116000883048F4E82FF0E0EE0FFF1FEF51FA4F00
:10117000208131811DC08A3018F420E034E018C08D
:10118000A82FB0E0813170F4AA0FBB1FFD01EC5510
:10119000FD4FAA59BA4F2D913C9180819181281B16
:1011A000390B06C0AA0FBB1FA353BA4F2D913C9118
:1011B000C9010895E0914605F0E0EE0FFF1FE25CE3
:1011C000FA4F808191810895FC01A0914605B0E01D
:1011D000AA0FBB1FA45CBA4F8D939C938FEB09950C
:1011E00080914805809347050895E82FF0E0E0538B
:1011F000FB4FE491F0E0EE0FFF1FEF56FA4F8FB771
:10120000F8940190F081E02D87FF01C07894CF0120
:101210000895A1E9B5E0E1EAF5E060E0862F806499
:1012200087B9369A349BFECF349A208931898D91C3
:101230009C91119796958795820F931F8E7F8D9322
:101240009D9340815181240F351F36952795318B11
:10125000208B84B195B1840F951F969587958193C6
:1012600091936F5F6830D1F60895DF93CF93CDB738
:10127000DEB760970FB6F894DEBF0FBECDBFFE019C
:10128000319680E1DF011D928A95E9F7A1E9B5E089
:1012900050E015C067B9369A349BFECF349A84B1BA
:1012A00095B1280F391F4F5F4430A1F72193319337
:1012B000369527952D933D935F5F583031F020810F
:1012C000318140E0652F6064E5CF60960FB6F894F9
:1012D000DEBF0FBECDBFCF91DF910895E1E9F5E00C
:1012E00020E0822F806487B9369A349BFECF349AEF
:1012F00084B195B1880F991F819391932F5F283006
:1013000081F708951F920F920FB60F9211248F93B9
:1013100080918A058F5F80938A058F910F900FBE11
:101320000F901F90189540918A0522B780918A05E9
:101330004817C9F7942F80E030E0282B392BC901DA
:10134000089578941F920F920FB60F9211242F9345
:101350004F935F936F937F938F939F93EF93FF933D
:101360004091800050918100F89480917D008F7DA4
:1013700080937D007894209176052F5F2F70809167
:101380007705281789F4E0917605F0E03F96EF7035
:10139000F070EE0FFF1FEA5AFA4F1182108280910F
:1013A0004C058093470513C0E0917605F0E08091ED
:1013B0008E0590918F05BA01681B790BCB01EE0F5A
:1013C000FF1FEA5AFA4F918380832093760550934A
:1013D0008F0540938E05F89480917D008062809304
:1013E0007D007894FF91EF919F918F917F916F9104
:1013F0005F914F912F910F900FBE0F901F901895F6
:10140000CF93DF938091CE02C82FDD27C7FDD09503
:101410002A96409188053AC0E0917705F0E0EE0FFA
:10142000FF1FEA5AFA4F2081318136952795809126
:1014300077058F5F8F7080937705842F8150883078
:10144000F8F4C901815293408757954010F040E06D
:101450001DC0E42FF0E0EE0FFF1FEA58FA4F2C5D9D
:1014600035402C9FC0012D9F900D3C9F900D112465
:101470006AE070E00E94255D718360834F5F06C063
:10148000215A3F402F5D3E4208F441E0909177059C
:1014900080917605981709F0BFCF40938805DF91BA
:1014A000CF9108951F920F920FB60F9211242F9390
:1014B0003F934F935F936F937F938F939F93AF93DC
:1014C000BF93EF93FF9390E08CB58A3008F064C02F
:1014D0009F5F923309F460C0F7CFC09A1092D10594
:1014E00004C0C09881E08093D1058091E20790917B
:1014F000E3079C012417350708F49A013093E307AA
:101500002093E20780910801909109019C01421704
:10151000530708F49A013093090120930801A09120
:101520000601B0910701FD01819191919BBD8ABD9A
:10153000F0930701E093060112968D919C91139709
:10154000892BA1F486EE97E0909307018093060122
:101550008091E6028093D10587B78F7E87BF78940C
:101560000E94BC16F89487B7806187BF8091890577
:10157000816080938905FF91EF91BF91AF919F9119
:101580008F917F916F915F914F913F912F910F902C
:101590000FBE0F901F9018954CB55DB58091D10589
:1015A000882309F09ACF9DCF78941F920F920FB69F
:1015B0000F9211242F933F934F935F936F937F93D9
:1015C0008F939F93AF93BF93EF93FF93F89487B755
:1015D0008D7F87BF789481B7845681BF90914705EE
:1015E000992369F080918C05882329F490938C05C8
:1015F00081E080938D0591509093470521C03091F3
:101600008B053323B9F020918C05222399F090E0CB
:1016100080918D05882309F491E090938D0599239D
:1016200009F428E020934705992351F03150309375
:101630008B0506C010928C0510928D0510923B050B
:1016400080918D05882381F080913B05882311F4DA
:1016500090E004C09091900581E0982790939005C8
:10166000992311F41B9A01C01B980E94AF578091D7
:101670008905826080938905F89487B7826087BF67
:101680007894FF91EF91BF91AF919F918F917F914E
:101690006F915F914F913F912F910F900FBE0F90DF
:1016A0001F901895AF92BF92CF92DF92EF92FF9268
:1016B0000F931F93CF93DF93D82EB42E35E03B15B5
:1016C00008F419C1DD2009F419C180E1D81609F424
:1016D00014C190EFD91609F40EC12D2D332727FD23
:1016E0003095C90137FF04C088279927821B930BC7
:1016F0008A308CF41D144CF08DE090E0821B930B2B
:101700000E94065761E06827F9C0C9010D960E9442
:101710000657682FF3C0E82EFF24E7FCF09486EF0D
:101720009FEFE80EF91ED701AA0FBB1FAE0DBF1D1C
:10173000A053BD4FA85ABD4F8C91A855B2408823E5
:1017400009F4D9C0FD01EA5AFD4FC080ED01C95A24
:10175000DD4FA880853008F4DDC0883028F400E033
:1017600010E020E030E00AC08C2D81500E94B008CB
:101770008C01888181500E94B0089C01F701EE0F16
:10178000FF1FEE0DFF1DE85DFA4FE081E73009F421
:1017900083C0E83088F4E33069F1E43030F4E130BC
:1017A00009F1E23009F0A7C021C0E53009F456C0C4
:1017B000E63008F066C038C0EA3009F488C0EB3083
:1017C00038F4E83009F479C0E93009F094C07AC0FF
:1017D000EC3009F486C0EC3008F47EC0ED3009F03E
:1017E0008AC084C01D140CF472C080C01D140CF497
:1017F00073C077C01D1464F460E0C80117FF03C014
:10180000909581959F4F281739070CF077C075C0C8
:1018100060E0C80117FF03C0909581959F4F28177E
:1018200039070CF46BC069C01D1464F460E0C80192
:1018300017FF03C0909581959F4F821793070CF077
:101840005DC05BC060E0C80117FF03C09095819543
:101850009F4F821793070CF451C04FC01B2D1F5F81
:101860008C2D60E0412F0E94520B882309F443C065
:101870008A2D60E0412F0E94520B682F8823F1F1DE
:101880003CC0B3948C2D60E04B2D0E94520B8823FA
:10189000A1F5DA2C60E012CF1B2D1F5F8C2D60E0CC
:1018A000412F0E94520B082F8A2D60E0412F0E9489
:1018B000520B60E0081709F521C060E0021713071A
:1018C000E9F41BC060E002171307B9F417C060E029
:1018D000201731079CF411C060E00217130774F45D
:1018E0000CC060E0021713074CF007C060E020173F
:1018F000310724F002C060E001C061E0862FDF9173
:10190000CF911F910F91FF90EF90DF90CF90BF90FC
:10191000AF9008958C2D81500E94B0088C012881D1
:10192000822F27FD8D5F85958595E82FFF27E7FDA1
:10193000F0953AE02302C0011124E80FF91F822F2D
:1019400027FD815C86FB880F880B80F9992787FD2E
:1019500090959F01281B390B11CF4F925F926F9288
:101960007F928F929F92AF92BF92CF92DF92EF922F
:10197000FF920F931F93CF93DF93182F5B013A01D0
:101980004901E02E202F30E054E0452E512C422218
:10199000532202FF04C0FB01C080D18006C0FB01BE
:1019A0008081C82EDD24C7FCD09423FD04C044E010
:1019B000F42E05E003C033E0F32E02E014FF05C06F
:1019C0001F701066802F0F2DF82E8F2D8066181730
:1019D00061F08F2D8064181741F0909110069923C3
:1019E00061F0133611F0133441F4E6012196809131
:1019F000480580934705802F17C0802F80661817F1
:101A000061F0802F8064181741F0992309F467C0B2
:101A1000123619F0123409F062C0E6012197809164
:101A20004805809347058F2D90E00E940657882334
:101A300051F0CC27DD27CC19DD09802F0E948D576E
:101A40008F2D0E948D578091500590915105C81B94
:101A5000D90B8C169D0644F4812F0E948D578091DE
:101A60004A0580934705E401C615D70544F4812F44
:101A70000E948D5780914A0580934705E301CC155C
:101A8000DD05C9F0209739F4812F0E947E5780919F
:101A90004A0580934705452821F0F501D183C0838D
:101AA00002C0F501C0838E2D83700E94F14C81E04D
:101AB00080934D0503C010924D0580E0DF91CF91DA
:101AC0001F910F91FF90EF90DF90CF90BF90AF905C
:101AD0009F908F907F906F905F904F900895E60158
:101AE000B2CF0F93DF93CF930F92CDB7DEB7698359
:101AF000552747FD5095332727FD3095BE016F5F71
:101B00007F4F09E00E94AD0C89810F90CF91DF914A
:101B10000F9108950F93DF93CF930F92CDB7DEB758
:101B20006983552747FD5095332727FD3095BE0122
:101B30006F5F7F4F01E00E94AD0C89810F90CF91C4
:101B4000DF910F9108950F93DF93CF930F92CDB74D
:101B5000DEB76983552747FD5095332727FD30951C
:101B6000BE016F5F7F4F0AE00E94AD0C89810F902C
:101B7000CF91DF910F9108950F93DF93CF930F9241
:101B8000CDB7DEB76983552747FD5095332727FD2D
:101B90003095BE016F5F7F4F02E00E94AD0C8981DE
:101BA0000F90CF91DF910F9108951F93182F682FF9
:101BB0006F7066502091E20222306CF0332727FDCF
:101BC00030952150304081E090E002C0880F991F8D
:101BD0002A95E2F7282F683008F092C0962F959545
:101BE000222311F0422F15C0E92FF0E0EE54FB4FF5
:101BF0008081482F552747FD509557FF03C05095CA
:101C000041955F4F242F47FD2D5F422F4595459508
:101C10004F5FA92FB0E02091C80230E021703070F2
:101C200082E090E0821B930B8A179B0739F4809126
:101C3000E1028F7019F044E071E001C070E0242FE0
:101C4000332727FD3095FD01E053FD4F60FF0AC0AB
:101C5000EE51FE4F8081482F552747FD5095420F8A
:101C6000531F09C0EE51FE4F8081482F552747FD75
:101C70005095421B530B4115510571F0952F9095CE
:101C8000991F9927991F20E0FD01EE54FB4F808199
:101C900087FF21E0921769F0772359F4FD01EE5494
:101CA000FB4F8081882329F01082812F0E948D575D
:101CB00020C0CA0184589F4F893F910570F4AE54EB
:101CC000BB4F4C9382E00E94F14C16FF03C081E0B1
:101CD00080933B058091480510C01416150614F03A
:101CE00083E801C08DE7AE54BB4F8C9382E00E9425
:101CF000F14C10923B0580914A058093470510E016
:101D0000812F1F9108951F932091F40F3091F50FAB
:101D100040E08091DF059091E0052817390709F030
:101D200041E0409353058091F40F9091F50F90930B
:101D3000E0058093DF0582E196E060E00E942219D1
:101D400080915305882309F415C180E00E94024D5B
:101D50000E944D560E9476560E94D50D182F8091F4
:101D6000540590915505009729F0019790935505DA
:101D700080935405112389F08091CC0290E024EFE8
:101D800031E0AC01429FC001439F900D529F900DE6
:101D9000112490935505809354058091B50260E01D
:101DA00040E00E94520B882339F4809154059091B1
:101DB0005505892B09F4DCC0C79A2091ED053091B7
:101DC000EE0580914E0590914F05821B930B60E2CA
:101DD00070E00E94395D7093510560935005611564
:101DE000710591F08091DD059091DE05821B930BCA
:101DF00062E070E00E94395D709351056093500578
:101E000030934F0520934E053093DE052093DD057A
:101E1000E0914605F0E0EE0FFF1FE45CFA4F019001
:101E2000F081E02D812F09950E9424568091630056
:101E300081FF06C0809165008F7E8093650007C09A
:101E4000809165008061809365000E94000A809106
:101E5000F40F9091F50F8F7190708230910521F001
:101E6000039709F087C06DC0E7EDF4E0E491F0E07E
:101E7000EE0FFF1FEF56FA4F8FB7F8940190F081E5
:101E8000E02D87FF01C078949F0136952795369500
:101E900027958091B402992787FD9095AC01249FE6
:101EA000C001259F900D349F900D112423E230E056
:101EB000A901E49F9001E59F300DF49F300D11249E
:101EC000820F931F96958091D305882329F0E3ED27
:101ED000F5E020E030E008C0E3EDF5E0919355E057
:101EE000ED3DF507D9F7F3CF81818193280F311D9F
:101EF00085E0EC3DF807C1F79083A901490F511D1A
:101F0000CA016AE070E00E94255D609352058091ED
:101F1000D205805E8093D205882361F58091B3025B
:101F2000681740F580914C05809347058091CA025F
:101F300083FF20C082E390E0909355058093540581
:101F400019C08091C702869586958695877090E026
:101F5000BC01660F771F660F771F680F791F6852E5
:101F60007B4F88E495E045E050E00E94895D02C027
:101F7000C79823CF1F910895FF920F931F938C0151
:101F8000F62E0E944D5682E260E046E255E020E8DF
:101F90000E941F5480E068E1A8010E944D548CE12A
:101FA00068E348E155E00E944D540E942456FF200A
:101FB00011F089E102C08091B2020E941A5680910C
:101FC0004C05809347050E947656807F803291F0C1
:101FD0008091B50260E040E00E94520B882331F40A
:101FE0008091CC02882311F4FF2011F0C79AEBCF27
:101FF000C798E9CF1F910F91FF9008959C018091A0
:102000004605E82FEF5FE0934605E53040F080930A
:10201000460581EF94E060E00E94BC0F0895809136
:10202000480580934705F0E0EE0FFF1FE45CFA4F90
:10203000318320838FEBF90109950895E0914605DE
:10204000EE23B1F0882311F0E0E001C0E150E0930D
:1020500046058091480580934705F0E0EE0FFF1F8D
:10206000E45CFA4F0190F081E02D8EEB0995089524
:1020700084E095E060E00E94BC0F08958091C70263
:1020800087FD07C0887329F48DE595E060E00E9424
:10209000BC0F08950F931F93CF93DF938091C702D6
:1020A00080FD51C08091F40F9091F50F4497D0F3CB
:1020B0008091C80290E08170907022E030E0281B8F
:1020C000390BE22FF0E0E053FB4FE491F0E0EE0F2C
:1020D000FF1FEF56FA4F8FB7F8940081118187FFE9
:1020E00001C07894F901EE0FFF1FEC57FD4FC1813D
:1020F000D28127853089058CF68DE02DC90168E0F5
:1021000070E00E94395D621B730B6C0F7D1F6017BE
:10211000710724F48091CA0280FF10C0CE0FDF1F28
:10212000CF0168E070E00E94395DC61BD70B0C1729
:102130001D074CF48091CA0280FF05C08DE695E032
:1021400060E00E94BC0FDF91CF911F910F91089525
:102150000F931F938C010E944D5682E260E04CE287
:1021600055E020E80E941F5480E068E1A8010E9429
:102170004D540E9424568091B2020E941A561F911B
:102180000F9108951F938091C70281FD2FC00E9477
:102190004D5682E260E047E555E020E80E941F547A
:1021A00080E060E246E455E00E944D5480E068E340
:1021B00044E355E00E944D540E9424568091B2029F
:1021C0000E941A561EE00EC0113141F0812F8D5031
:1021D00060E040E00E94520B882311F41F5F02C0B0
:1021E0001EE0F4CF163180F31631D1F71F91089518
:1021F0008091C70282FD0AC00E94924F883C9105DF
:1022000028F48AE795E060E00E94BC0F08950F93E0
:10221000CF93DF938091CA0284FD33C00E944D5654
:1022200080E060E04CE850E020E000E00E941753BE
:102230000E9424568091B2020E941A56C091F40F57
:10224000D091F50FC853DF4F12C00E947656807FA1
:102250008032B9F08091B50260E040E00E94520BFC
:10226000882321F48091CC02882349F0C79A809179
:10227000F40F9091F50FC817D90739F702C0C79826
:10228000F6CFDF91CF910F910895EF92FF920F93C8
:102290001F93CF93DF939FEF9ABB1BBA81E887BB55
:1022A0008EE788BB8EE384BB81EC85BB11BA92BB01
:1022B00088E082B987EF83B9109261009093620041
:1022C00080E180936400909365000E94DF5580E474
:1022D00087B985E886B987E083BF8CE981BF87B776
:1022E000836087BF1FBC8AE08EBD10928B0082E89E
:1022F00080938A0080917D00806280937D00789435
:1023000089E491E290933D0580933C0589E10E9428
:102310001A560E94BD4E0E9407110E94F8100E949A
:102320006E090E944A100E94C2100E943E100E9434
:10233000BC162DE088E190E00FB6F894A89581BD19
:102340000FBE21BD82E196E060E00E94221980E587
:102350009BE30E94FE0F81E00E941E108091B2025A
:102360000E941A568091CC0290E024EF31E0AC013B
:10237000429FC001439F900D529F900D1124909356
:1023800055058093540587B7806187BFF0908A0513
:10239000E2B680918A05F816C9F7E091CB02F0E029
:1023A000EE0FFF1FE050FF4F0190F081E02D0995E7
:1023B0000E94830E80918905833019F4A8951092AC
:1023C000890520918A0532B780918A052817C9F7B7
:1023D0001F2D00E08E2D90E0802B912BD22FC0E09E
:1023E000232F30E02C2B3D2B4091E4075091E50743
:1023F000281B390B2417350708F49A013093E50799
:102400002093E407C3CF0F93022F50E0440F551FD2
:10241000440F551F4C505A4F24E00E94ED530F912A
:1024200008950F93022F442319F44EE157E01CC086
:10243000242F30E04150443080F44091C80250E0F5
:10244000440F551F440F551F420F531F440F551F74
:10245000440F551F45575B4F07C0220F331F220FF4
:10246000331F235A394FA90124E00E94ED530F91E5
:102470000895EF92FF920F931F93082FF62E142FBB
:10248000E22E442329F0403139F0403F81F408C066
:102490008A5F40EF55E007C08A5F4CEE55E003C00D
:1024A0008A5F48EE55E02E2D0E941F541CC0441F29
:1024B0004427441F405E0E947453802F8A5F212F5F
:1024C000332727FD309537FF03C0309521953F4FC7
:1024D00043E02402A001112449545A4F6F2D23E0F8
:1024E0000E2D0E94ED531F910F91FF90EF900895D4
:1024F000DF92EF92FF920F931F93F82EE62ED42EC9
:102500001091DB02812F992787FD909597FF03C0DB
:10251000909581959F4F80319CF443E08402A00107
:10252000112447575A4F8F2D6E2D23E00D2D0E94F9
:10253000ED531F3F4CF58F2D86506E2D41E221C08B
:102540008F3174F411161CF4412F4F5002C0412FEB
:10255000415F8F2D86506E2D2D2D0E94391214C093
:1025600011161CF4412F4E5102C0412F425E8F2D97
:1025700086506E2D2D2D0E9439128F2D8E5E6E2D60
:102580004DE62D2D0E9474531F910F91FF90EF90F7
:10259000DF900895FF920F931F93182F062FF22EAE
:1025A000442321F4885E46E50E947453409152050D
:1025B000812F885E602F50E02F2D0E942E551F9195
:1025C0000F91FF900895DF92EF92FF920F931F9368
:1025D000CF93DF93F82EE62EEA01122FD02E57FD6F
:1025E00002C040E201C04DE28F2D6E2D212F0E94CE
:1025F000745317FD02C081E101C089E1F80E8F2DEF
:102600006E2D4AE3212F0E947453D7FF03C0D0954B
:10261000C195DF4FCE016CE370E00E94395DAB01E4
:10262000212F2C5F8F2D6E2D02E00E94955417FDF7
:1026300002C022E101C028E1CE016CE370E00E94FB
:10264000395DAC0184E0D80E822F8F0D6E2D2D2DBB
:1026500002E00E949554DF91CF911F910F91FF905E
:10266000EF90DF900895FC0160E270E00E94395D18
:102670009B01CF0160E870E00E94395D261B370B9B
:102680002E0F3F1FCF0160E072E00E94395D260FE0
:10269000371FC90108956F927F928F929F92AF92D8
:1026A000BF92CF92DF92EF92FF920F931F933B0165
:1026B0007C0100E010E08824992464E670E080E06A
:1026C00090E06619770988099909A80197010E9485
:1026D000FA5C5B016C0182E390E0A0E0B0E0A80E40
:1026E000B91ECA1EDB1EC801B7010E94FA5C0E9417
:1026F000FA5CBC0188279927A40193010E94FA5C27
:1027000024E096958795779567952A95D1F7A60E3B
:10271000B71EC81ED91EC601B50124E630E040E050
:1027200050E00E944C5DC9011F910F91FF90EF9006
:10273000DF90CF90BF90AF909F908F907F906F90E1
:102740000895FF920F931F939C01AB0161157105D2
:1027500031F1FF2497FF05C0FF24F39430952195B4
:102760003F4F57FF10C000E014E066277727641B37
:10277000750BC801821B930B0E944B139801281BF9
:10278000390BC90104C0C901BA010E944B13FF20D3
:1027900011F49C0104C022273327281B390BC901DF
:1027A0001F910F91FF900895282FE4EFFBE080E048
:1027B0009491921731F03196992311F08F5FF8CFF1
:1027C00080E00895883210F080E20895E82FF0E06C
:1027D000EC50F44F849108959C0140E0683008F07B
:1027E00041E070E0442371F0CB010897FC0163E005
:1027F000EE0FFF1F6A95E1F7E80FF91FDF01A25204
:10280000BB4F0AC0FB01EE0FFF1FEE0FFF1FE60FCD
:10281000F71FDF01AA54BB4FFD01808120503C4FC0
:1028200037FD0EC068E02030360784F0442319F4E9
:1028300084E090E002C088E090E0A80FB91F8C917E
:10284000992787FD9095582F442733C0442331F0B2
:10285000432FB9017070660F771F04C0432F469550
:10286000B9017170842F90E0FD01E80FF91F81819B
:10287000992787FD90959B0135952795829FA0010B
:10288000839F500D929F500D11242081332727FDE7
:10289000309580E092E0861B970B95958795BC015B
:1028A000269FC001279F900D369F900D1124480F41
:1028B000591FCA0169E170E00E94395DCB0108959A
:1028C000EF92FF921F93CF93DF931091E002110FCD
:1028D000185F9091E30284E69802C0011124EC0194
:1028E000C85ADD4F1A3028F448EC5FEA4C1B5D0BE8
:1028F0000DC08853904F212F30E0829FA001839F0D
:10290000500D929F500D1124405C504EA6EEB7E042
:10291000E2E1F6E0612F70E0660F771F660F771F28
:102920006A0F7B1FEE24FF24EC1AFD0A1FC02081D2
:10293000318184E0203038071CF020E034E006C00C
:102940008CEF2130380714F420E03CEF205A364F4A
:10295000C701821B930B480F591F1196DC93CE932E
:1029600013963C932E93129714963296A617B70798
:10297000F1F6E12FEE0FAE2FB0E0AA0FBB1FAA5168
:10298000B84FCD93DC93EF5FAE2FB0E0AA0FBB1F23
:10299000AA51B84F4D935C93EF5FF0E0EE0FFF1F2D
:1029A000EA51F84F11821082DF91CF911F91FF9071
:1029B000EF900895A0913F0AB091400AFD018193E4
:1029C000919313967C936E9312973296F093400AEC
:1029D000E0933F0A0895882329F020E639E080E655
:1029E00099E004C020EB34E080EB94E0A0913F0A32
:1029F000B091400AFD018193919313963C932E93DD
:102A000012973296F093400AE0933F0A08951F937D
:102A1000182F82700E94EB14812F81700E94EB149A
:102A20001F910895CF92DF92FF920F931F93DF9330
:102A3000CF9300D0CDB7DEB78091DF02813019F09F
:102A4000823019F404C010E003C011E001C012E0AC
:102A5000209112063091130620503C4F220F331F55
:102A6000809114069091150680509C4F880F991FF5
:102A7000892F232F37FD20E087FD80E0022F2031B2
:102A80000CF00FE0F82E2FE0281714F45FE0F52E7D
:102A90002F2D332727FD3095802F992787FD90957F
:102AA00009968217930714F40F2D0950C02EDD24C8
:102AB000C7FCD094275F3F4F2C153D051CF447EF12
:102AC000F42EF00E80E797E19093E7078093E607F6
:102AD00080EB94E09093E9078093E8078AEE97E013
:102AE0009093400A80933F0A80E00E940715A091CE
:102AF0003F0AB091400A80E699E0FD0181939193ED
:102B000020EB34E013963C932E931297DF0112963C
:102B10009383828313963C932E9312971496B093CB
:102B2000400AA0933F0A812F0E9407151195C60104
:102B300095958795959587958A830E9407153A8183
:102B4000131B802F0E940715101B8F2D992787FDBF
:102B50009095959587959595879589830E940715FA
:102B60008981181B8F2D0E940715812F8F190E94B4
:102B7000071580E00E94EB14E0913F0AF091400AB3
:102B800080E69AEE92938293329611921192F0938C
:102B9000400AE0933F0A0F900F90CF91DF911F9171
:102BA0000F91FF90DF90CF900895A0913F0AB091D0
:102BB000400A882341F0FD0180E293E081939193E4
:102BC00080E496E007C0FD0180E496E08193919354
:102BD00080E293E013969C938E9312973296F09333
:102BE000400AE0933F0A08950F931F93082F10E0C7
:102BF000802F81700E94D5151F5F06951830C1F790
:102C00001F910F9108950F931F9386EE97E0909375
:102C1000400A80933F0A8091410A91E0892780937E
:102C2000410A882309F454C080911206909113063A
:102C3000885F9B4F34E0969587953A95E1F7803809
:102C4000910510F08FE790E0182F20911406309135
:102C5000150637FD0FC0C901409625E0969587956A
:102C60002A95E1F78034910510F08FE390E0082F6A
:102C700000640FC080E190E0821B930B05E0969505
:102C800087950A95E1F78034910510F08FE390E085
:102C9000082F812F0E94F415802F0E94F415012720
:102CA000802F90E09C0114E0359527951A95E1F767
:102CB000B4E0880F991FBA95E1F7822B0E94F415B2
:102CC000A0913F0AB091400AFD0180E197E230C037
:102CD000809116069091170680509C4FA4E096951F
:102CE0008795AA95E1F78038910510F08FE790E07D
:102CF000082F0068802F0E94F4158EE80E94F415BA
:102D00008EE8082710E0C801F4E095958795FA95BC
:102D1000E1F7E4E0000F111FEA95E1F7802B0E9434
:102D2000F415A0913F0AB091400AFD0180EB96E3B3
:102D30008193919380EA9FE013969C938E931297D0
:102D40003296F093400AE0933F0AE0913F0AF091F7
:102D5000400A11921192F093400AE0933F0AE65E16
:102D6000F740E03FF1052CF08CEC97E060E00E942A
:102D7000BC0F1F910F9108958091DF02843018F4E9
:102D8000813038F403C0843049F406C00E946014D6
:102D900008950E94121508950E9403160895FF9247
:102DA0000F931F93CF93DF93082F1091DB02812F96
:102DB000992787FD909597FF03C0909581959F4F28
:102DC000F82E2EE12817E4F411161CF4812F8E51F1
:102DD00002C0812F825E60E040E00E94520B282FEB
:102DE000882361F080914E0A882341F490E080911D
:102DF000510A882309F491E09093510A20934E0AD6
:102E0000C091540AD091550A2196D093550AC09387
:102E1000540AE091520AF091530AE00FF11DF09329
:102E2000530AE093520A8091F40F9091F50F20918C
:102E3000560A3091570A821B930B8436910508F489
:102E40003FC12C593F4F3093570A2093560ACF0168
:102E5000BE010E94255D062F862F90E0AC014C9F9D
:102E6000C0014D9F900D5C9F900D1124E81BF90B44
:102E7000F093530AE093520A1092550A1092540AA2
:102E80005FE05F151CF01092510A10C08EE18F15A3
:102E90006CF011161CF4812F8F5002C0812F815FBE
:102EA00060E040E00E94520B8093510A80915907E4
:102EB00090915A07019690935A0780935907609111
:102EC0005B0770915C076F5F7F4F70935C07609347
:102ED0005B07002349F080915F079091600701969E
:102EE0009093600780935F078091510A882349F08F
:102EF00080915D0790915E07019690935E078093A5
:102F00005D0706954091610750916207400F511D82
:102F10005093620740936107E091DD02F091DE0279
:102F2000F0936507E09364073091DB02832F9927C4
:102F300087FD909597FF03C0909581959F4F8823BB
:102F400019F41092630722C0813021F4CF01861B4F
:102F5000970B18C0803170F480FF07C0CA0144E0AD
:102F6000969587954A95E1F709C080915F07909102
:102F7000600704C080915D0790915E07AF01481B18
:102F8000590BCA019093650780936407809163078A
:102F9000813041F0813018F08230F1F40EC03323DB
:102FA000D9F017C08091640790916507181619062B
:102FB0009CF0309789F082E00DC080916407909179
:102FC0006507855C9F4F1CF483E08093630730970F
:102FD00019F481E0809363072091640730916507BD
:102FE00080914F0A9091500A8217930709F45AC0B2
:102FF00080916307813009F045C04091CA0242FFC9
:1030000029C02E31310511F482E003C0243131058D
:1030100019F480938B0506C02A30310519F024304D
:10302000310524F480914A058093470543FF12C07F
:103030002E31310549F02431310531F02A30310586
:1030400019F02430310534F482E390E09093550573
:103050008093540541FF26C08091DC02882321F033
:10306000CF01821B930B01C0C9016CE370E00E9489
:10307000255D892BB9F480914A058093470543FF6C
:1030800011C00AC0823071F480914B0580934705CE
:103090008091CA0283FF06C082E390E090935505B9
:1030A000809354053093500A20934F0A8091DC029C
:1030B000882331F0E21BF30BF0936507E09364077C
:1030C000DF91CF911F910F91FF9008952091DB0226
:1030D000822F992787FD909597FF03C09095819542
:1030E0009F4F982F8230A4F1803194F585959A30C6
:1030F0009CF4E82FFF27E7FDF0958091C80290E04F
:10310000880F991F880F991FE80FF91FE75FFE4F7F
:103110008081E82FF0E004C0E82FFF27E7FDF0955D
:103120003197EE0FFF1FEF51FA4F0190F081E02D24
:1031300027FF05C080E094E08E1B9F0B03C0CF01EA
:1031400080509C4FE6E096958795EA95E1F702C09E
:1031500080E090E00E94CF16E091C802F0E0EE0F10
:10316000FF1FEE0FFF1FE45FFE4FE081F0E0EE0F68
:10317000FF1FE152FA4F0190F081E02D8091CA02C9
:1031800080FF05C080E094E08E1B9F0B03C0CF0141
:1031900080509C4F56E0969587955A95E1F760913F
:1031A0004A0A70914B0A6F5F7F4F70934B0A60938E
:1031B0004A0A4091480A5091490A480F591F5093B2
:1031C000490A4093480A8091F40F9091F50F20919D
:1031D0004C0A30914D0A821B930B885E934088F114
:1031E0008091F40F9091F50F90934D0A80934C0AC3
:1031F0001092490A1092480A10924B0A10924A0AF9
:103200008091E0079091E10701969093E107809308
:10321000E0072091DE073091DF07F901EA59F84F06
:10322000CA010E94255D60832F5F3F4F3093DF0707
:103230002093DE072837310520F01092DF07109227
:10324000DE0708952F923F924F925F926F927F9286
:103250008F929F92AF92BF92CF92DF92EF92FF92A6
:103260000F931F93DF93CF93CDB7DEB761970FB660
:10327000F894DEBF0FBECDBF998B888B262E809130
:103280005305882309F46CC080911106882319F036
:103290008150809311068091C902882309F460C08F
:1032A0008091580990915909A0915A09B0915B09F0
:1032B0000196A11DB11D8093580990935909A093BF
:1032C0005A09B0935B09E6EDF8E020E030E0819127
:1032D000919160E870E00E94395D260F371F48E049
:1032E000EE3DF407A1F780915C0990915D092817E4
:1032F000390761F030935D0920935C0910925809F9
:103300001092590910925A0910925B09E0905809DD
:10331000F090590900915A0910915B096091C90216
:1033200070E080E090E020E737E140E050E00E946C
:10333000FA5C6E157F058007910790F46FE370E0EB
:1033400080E090E0E622F722082319237AE0E716CE
:10335000F1040105110521F480914B058093470587
:1033600005E8602E02E0702E16E8412E14E0512E82
:103370003324EE24FF2488249924DE2C8E2D0E94F1
:10338000F5089C01D3018D919C911197281B390B55
:10339000121613062CF45C96ED91FC915D9705C016
:1033A000D3011E96ED91FC911F97E436F10514F4BC
:1033B000E4E6F0E0B901882777FD8095982FBAE020
:1033C000660F771F881F991FBA95D1F79F01442771
:1033D00037FD4095542F0E946E5D8901BCEF21306E
:1033E0003B071CF400E01CEF06C0E4E020303E0781
:1033F00014F000E014E0F401EF51FA4F1183008360
:10340000C8010F964F9720F5F4E0EF16F104BCF4D5
:10341000E091C802F0E0EE0FFF1FEE0FFF1FEE0D70
:10342000FF1DE65FFE4F808190E0019721E030E0D4
:1034300002C0220F331F8A95E2F7C90108C081E05C
:1034400090E00E2C02C0880F991F0A94E2F7382AE8
:1034500033E03D1508F406C1D2018C9160E040E0F4
:103460000E94520B882311F4CC240DC0F2018181FB
:1034700060E040E00E94520B882319F0E2E0CE2E7B
:1034800002C0CC24C3948091C80290E081709070F7
:1034900072E0A72EB12CA81AB90AAE14BF0449F5E0
:1034A0008091E102807F29F100501C4FEC2DF0E06B
:1034B000EE0FFF1FEE0FFF1F9701220F331FC901F1
:1034C00043E0880F991F4A95E1F7821B930BE80FA1
:1034D000F91FE658FB4F6081772767FD7095C8019B
:1034E000959587950E94A113DC01AA0FBB1FDD24CF
:1034F00027C0DD241016110614F0DD24D3948C2D82
:1035000090E09701220F331FF901A3E0EE0FFF1F98
:10351000AA95E1F7E21BF30B880F991F880F991FFB
:10352000E80FF91FE053FD4FED0DF11DE655FE4F7D
:103530006081772767FD7095C8010E94A113DC01A7
:10354000EC2DF0E0EE0FFF1FEE0FFF1F9701220F93
:10355000331FC90143E0880F991F4A95E1F7821B89
:10356000930BE80FF91FE053FD4FED0DF11DE455EE
:10357000FE4F6081772767FD70956C597F4F8827D4
:1035800077FD8095982F9D01442737FD4095542F56
:103590000E94FA5C24E630E040E050E00E946E5D5C
:1035A0008901AE14BF0409F04CC09091E102892F4B
:1035B000807F09F453C50050144050C58091CA0261
:1035C000F501E053FD4F80FF16C000501C4FB801BD
:1035D000882777FD8095982F00501440EE51FE4FBC
:1035E0002081332727FD3095432F532F2D5730400F
:1035F0004040504014C060E074E0601B710B8827AD
:1036000077FD8095982FEE51FE4F2081332727FDBF
:103610003095432F532F23583F4F4F4F5F4F0E94FA
:10362000FA5C20E038E040E050E00E946E5DC901A5
:10363000DA018030F8E09F07F0E0AF07F0E0BF0765
:1036400039F4F701EE54FB4F8081992787FD90955F
:10365000880F991FE1E0F0E0EC0FFD1FE80DF91D68
:1036600091838083F401EA52F74F11830083089419
:10367000E11CF11C22E030E0620E731E820E931EEC
:103680004EE050E0440E551E57E0E516F10409F0F7
:1036900074CE4091E5024321242F30E080915E09F1
:1036A00090E08227932782239323892B21F0809116
:1036B00049058093470540935E0980E094E090932C
:1036C000E5088093E4089093E7088093E60868EEA5
:1036D00078E040E050E0FA01E858FA4FDA01AC57E0
:1036E000BD4F80819181D2962D913C91D397821BC1
:1036F000930BDB018D939D93BD014E5F5F4F403176
:10370000510549F7E8E1F9E0FA87E987A8EFB8E061
:10371000808191818D939D93349629E0E835F2075D
:10372000B9F780915305882311F00E94661880E450
:10373000E8E1F9E0DF011D928A95E9F72220F9F02E
:10374000A6EDB8E0FE01319620E030E042E050E026
:103750008091C80290E081709070BA01681B790B6B
:103760006217730729F011961C921E921182108223
:103770002F5F3F4F129632962430310549F71AEEEB
:10378000A12E12E0B12E8FE19AE09E878D87BFE9CE
:103790006B2EB9E07B2EAFE5B9E0BC87AB871F8607
:1037A00044245524342C252CF5018081815080310E
:1037B00008F052C3838161E040E00E94520BAD8566
:1037C000BE859C91882321F5592F1C92F5012181FA
:1037D000822F8850823008F024C3C201FC01A3E08C
:1037E000EE0FFF1FAA95E1F7880F991FE80FF91F49
:1037F000E651FD4F87818E70843009F412C3293061
:1038000019F0CC24DD2445C0C12C6CEFD62E41C06C
:1038100050E0992309F451E081E0AD85BE858C9399
:10382000D5011196EC91F0E0EE0FFF1FEC52F74F2F
:10383000C080D180832D922DFC0133E0EE0FFF1F5D
:103840003A95E1F7880F991FE80FF91FE651FD4FF0
:103850008781807FF1F0832D922DFC0103E0EE0F34
:10386000FF1F0A95E1F7880F991FE80FF91FEF5026
:10387000FD4F808182958F7090E00197E1E0F0E04C
:1038800002C0EE0FFF1F8A95E2F7CF01FF85F82BEC
:10389000FF87D50118964C914423E9F0842F47FD0A
:1038A0008D5F85958595282F332727FD3095BAE0C4
:1038B0004B02C0011124280F391F842F47FD815C62
:1038C00086FB880F880B80F9992787FD9095281B28
:1038D000390BC20ED31E832D922DFC01B3E0EE0FE7
:1038E000FF1FBA95E1F7880F991FE80FF91FE651FE
:1038F000FD4F8681882391F4832D922DFC0173E086
:10390000EE0FFF1F7A95E1F7880F991FE80FF91F57
:10391000E651FD4F8581882309F49AC1F301608146
:10392000718182819381552389F420E031E040E068
:1039300050E00E946E5D50954095309521953F4F27
:103940004F4F5F4F4601820E931E85C0832D922DEF
:10395000FC0153E0EE0FFF1F5A95E1F7880F991F06
:10396000E80FF91FE651FD4F87818E70843049F5CD
:10397000D501EC91F0E0EE0FFF1FEA50F74F6081A8
:103980007181882777FD8095982F20E034E640E00C
:1039900050E00E94FA5CF301608371838283938319
:1039A000D50112962C91222361F0332727FD309503
:1039B000432F532F0E946E5DF30120833183428396
:1039C0005383D3016D917D918D919C9120E031E0E5
:1039D00040E050E00E946E5D5095409530952195F5
:1039E0003F4F4F4F5F4F4601820E931E811491044B
:1039F00091F197FE10C0832D922DFC0123E0EE0F74
:103A0000FF1F2A95E1F7880F991FE80FF91FE15171
:103A1000FD4F808110C0832D922DFC0113E0EE0F2D
:103A2000FF1F1A95E1F7880F991FE80FF91FE15161
:103A3000FD4F808182958F7090E0FC0124E630E09C
:103A4000E29FC001E39F900DF29F900D1124AB8582
:103A5000BC858D939C93EB85FC852081318121155C
:103A6000310551F080915305882309F4E5C02150B8
:103A7000304031832083E0C08114910409F4E8C010
:103A8000832D922DFC01A3E0EE0FFF1FAA95E1F715
:103A9000880F991FE80FF91FE651FD4F8681882393
:103AA00009F4D6C080915305882309F493C0F50129
:103AB0002281222339F4E12CF12C60E2062F63E00D
:103AC000162F17C0332727FD309537FF03C03095D9
:103AD00021953F4F332727FD3095432F532F60E02B
:103AE00070E080E293E00E946E5DC901DA017C0122
:103AF0008D01181419048CF5832D922DFC0153E0CF
:103B0000EE0FFF1F5A95E1F7880F991FE80FF91F75
:103B1000E051FD4F80818F7090E0009709F44CC018
:103B200044E650E0849F9001859F300D949F300DB6
:103B30001124442737FD4095542FC801B7010E9436
:103B40006E5D79018A01F30180819181A281B38147
:103B5000E80EF91E0A1F1B1F38C0832D922DFC0191
:103B600033E0EE0FFF1F3A95E1F7880F991FE80F3A
:103B7000F91FE051FD4F808182958F7090E0009792
:103B8000D9F044E650E0849F9001859F300D949FCA
:103B9000300D1124442737FD4095542FC801B7013B
:103BA0000E946E5DD301ED90FD900D911C91E21A83
:103BB000F30A040B150B09C0C601AA2797FDA095AF
:103BC000BA2FEE24F82E092F1A2FF301E082F1828A
:103BD00002831383D3016D917D918D919C91760128
:103BE0000027F7FC0095102F1814190464F420E046
:103BF00031E040E050E00E946E5DE216F3060407FB
:103C0000150764F019C020E031E040E050E00E9468
:103C10006E5D2E153F054007510774F4C601AA27B3
:103C200097FDA095BA2FBA2FA92F982F8827F301B7
:103C300080839183A283B383D3016D917D918D9114
:103C40009C9120E031E040E050E00E946E5D69010F
:103C5000F5016481633071F1643028F4613051F012
:103C60006230A8F448C0653081F1653050F16630AB
:103C7000B1F52EC0D50111968C91893029F4D7FC6D
:103C80002AC0E0E0FEEF0DC0D7FE35C02EC0D50142
:103C900011968C91893051F41C141D044CF1E0E014
:103CA000F2E0CE0EDF1ECC0CDD1C25C01C141D0462
:103CB000E4F021C0D7FE1FC0D094C194D108D394A2
:103CC0001AC01C141D04A4F010C0D7FE0EC003C0FF
:103CD0001C141D046CF0C12CECEFDE2E0CC06750E0
:103CE000C6010E94EC136C0106C0CC24DD2403C085
:103CF000C12C74E0D72E832D922DFC0163E0EE0FD2
:103D0000FF1F6A95E1F7880F991FE80FF91FE65129
:103D1000FD4F878180FD15C0D5011196EC91EE23F2
:103D200081F0E53070F4F0E03197EE0FFF1F21E0F5
:103D300030E02C0F3D1FE20FF31F80819181C80EF0
:103D4000D91EB601882777FD8095982FD501129648
:103D50002C91332727FD3095432F532F0E94FA5C77
:103D60006B017C01832D922DFC0133E0EE0FFF1FD0
:103D70003A95E1F7880F991FE80FF91FEF50FD4FB3
:103D800080818695877090E08130910581F0D50122
:103D9000EC91029799F5F0E0EE0FFF1FEE0FFF1F79
:103DA000EC5EF64FC082D182E282F3823AC0F50126
:103DB0002081022F10E0000F111F000F111F0C5E59
:103DC000164FC701B60124E630E040E050E00E9403
:103DD0006E5DCA01B901D8012D913D914D915C9163
:103DE0000E94FA5C20E034E040E050E00E946E5D0A
:103DF000F801208331834283538313C0F0E0EE0F38
:103E0000FF1FEE0FFF1FEC5EF64F80819181A281B4
:103E1000B3818C0D9D1DAE1DBF1D80839183A28338
:103E2000B3830894411C511C2AE030E0A20EB31E5B
:103E30004D855E854F5F5F4F5E874D8764E070E024
:103E4000660E771E8B859C8502969C878B8790E2F9
:103E50004916510409F0A6CC2F8520FF0AC0809195
:103E6000F40F9091F50F882321F4809149058093F8
:103E7000470521FF10C08091F40F9091F50F803419
:103E800031F08091F40F9091F50F883421F48091F6
:103E900049058093470522FF16C08091F40F909149
:103EA000F50F803861F08091F40F9091F50F88380C
:103EB00031F08091F40F9091F50F803921F48091C9
:103EC0004905809347051AE2612E14E0712E4424BF
:103ED0005524A985BA85CD90DD90ED90FC90C70161
:103EE000B60124E630E040E050E00E946E5DE985D6
:103EF000FA852083318342835383F201E151FA4FE3
:103F0000C90120839183D30113962D913C9114977D
:103F100011968C91BAE08B028001112408511C4F3C
:103F2000F30180818B025001112448E15CEFA40E63
:103F3000B51EC801502F492F201731071CF4C901A5
:103F4000522F492F852F942F4C018A149B040CF477
:103F50004501C114D104E104F10469F1940144273D
:103F600037FD4095542F1C141D041E041F0454F4E7
:103F7000B801882777FD8095982F621B730B840BFF
:103F8000950B0BC0C501AA2797FDA095BA2F281B3A
:103F9000390B4A0B5B0BCA01B901A70196010E94BC
:103FA000FA5C20EA36E841E050E00E946E5DC9010B
:103FB000DA016C017D01C4010E943313AA2797FD29
:103FC000A095BA2FC80ED91EEA1EFB1EC8010E947A
:103FD00033138C01C5010E943313BC01C801AA2709
:103FE00097FDA095BA2FA70196018C159D05AE05EA
:103FF000BF0514F49C01AD017B010027F7FC00957F
:10400000102F2E153F054007510714F4A801970102
:10401000D30112968C91882339F0509540953095B4
:1040200021953F4F4F4F5F4FF894E889F989E40D90
:10403000F51D318320837894E985FA853496FA87D3
:10404000E98722E030E0420E531E45E050E0640E66
:10405000751EE855F94009F03CCF04C09F7009F087
:10406000ADCAEFCA61960FB6F894DEBF0FBECDBFE2
:10407000CF91DF911F910F91FF90EF90DF90CF9044
:10408000BF90AF909F908F907F906F905F904F9078
:104090003F902F9008950F931F93CF93DF9386E265
:1040A00091E0E2E3F6E0DF019C011D9221503040F7
:1040B000E1F790915807CAEED2E000E010E051E03D
:1040C00060E04881442309F440E1041750F5202FB3
:1040D000712F352F2F5F872F90E0FC01EE0FFF1F10
:1040E000E80FF91FEE0FFF1FDF01AE5CB94F11960D
:1040F0002C9311978C9181608C93EC5CF94F3083F9
:104100003F5F14966C937F5F241720F3802F809578
:10411000042F952F9F5F980F180F140F940F592F8E
:10412000515078817723D1F1812F90E09C01220FAB
:10413000331F280F391FD901AA0FBB1FAE5CB94F1F
:1041400011964C93119715966C9315978C918260EC
:104150008C9313965C9313975F5F8A85F901319670
:10416000781741F4EE0FFF1FEE5CF94F10821496A2
:104170001C920AC0EE0FFF1FEE5CF94F50835F5F89
:104180006F5F14966C936150952F6F5F2A96603223
:1041900019F45093580704C01F5F93CF90935807AA
:1041A000DF91CF911F910F910895EF92FF920F939E
:1041B0001F93DF93CF93CDB7DEB7A0970FB6F894D8
:1041C000DEBF0FBECDBF8E010F5F1F4FC80161E084
:1041D0000E942219ECE2F4E0B801B2E1EB2EB6E065
:1041E000FB2E018112818081DB014D915C91D70111
:1041F0002D913C91882321F0CA01821B930B03C0AF
:10420000C901841B950B800F911FB3E0883E9B076B
:104210001CF088EE93E006C02CEF8931920714F46D
:1042200088E19CEF9283818335966E5F7F4F82E0B9
:1042300090E0E80EF91E94E0EC37F90791F68091D2
:10424000C80290E08170907022E030E0281B390BAA
:1042500016AA2130310511F01092B3042230310535
:1042600011F01092B4041092B50482E00E94F14C57
:104270008091490580934705A0960FB6F894DEBF5C
:104280000FBECDBFCF91DF911F910F91FF90EF90A7
:1042900008956F927F928F929F92AF92BF92CF922A
:1042A000DF92EF92FF920F931F93DF93CF930F92C2
:1042B000CDB7DEB7813809F491C08238A0F48136D9
:1042C00009F484C0823638F4823209F466C083323D
:1042D00009F0B0C058C08536C1F18038C9F08436C5
:1042E00009F0A8C01BC0843841F1853838F4823801
:1042F00009F466C0833809F09DC05CC08E3B09F4A8
:1043000080C08F3B09F48AC0853809F093C035C05E
:104310000E94DA080E94FE0F80E814C084E60E9422
:104320009E57823009F034C68091450A9091460A22
:104330000097C1F42DC681E019C080E59BE30E947F
:10434000FE0F84E80E948D5775C085E60E949E5737
:10435000823009F023C68091430A9091440A009765
:1043600009F41CC60E94FE0F65C081508093470A65
:1043700080914805809347055DC08EE794E30E94D5
:10438000FE0F85E8DFCF8091C6028F5F8093C60263
:10439000833060F01092C60209C08091C602882363
:1043A00011F0815001C082E08093C60281E00E943A
:1043B000F14CDECF84EE97E20E94E40883E8C2CF9E
:1043C0008FE898E20E94E40882E8BCCF80916307FE
:1043D000823081F583E080936307CACF1092630730
:1043E00010925C0710925B071092600710925F07B3
:1043F00010925E0710925D0710926207109261079B
:10440000B7CF8091470A082F10E00E94DA08000F0A
:10441000111F0D5B154FD8018D939C9381E00E9475
:104420008D5783E00E948D5782E00E948D5781E076
:104430008093420A8091E40260E040E00E94520BC7
:10444000882331F08091420A882311F40E94D520FC
:104450008091E40260E040E00E94520B8093420AA7
:10446000909152058091B302981710F000E801C0B6
:1044700002E880EDC82E82E0D82E1AE0812F60E09D
:10448000F60141916F0120E80E947453155F1837BF
:10449000A9F786E060E141E0202F0E94CA1284E281
:1044A00068E146E520E00E94745320915205822F76
:1044B0006AE00E94195D9250923010F403E001C04E
:1044C00002E0822F6AE00E94195D0E94195D9150FE
:1044D000923010F01CE002C00F5F1BE0145F812FD0
:1044E0006CE1402F0E946655812F6DE1402F0E94A4
:1044F000665580916307882399F0823011F000E8B7
:1045000001C002E8409164075091650782E460E1D0
:10451000202F0E94E31283E368E140E00E947812BA
:104520004091E20213E04102A00111244E5B574F7B
:1045300084E260E123E000E00E94ED534091E1025B
:104540004295407F45954595459545954102A00189
:104550001124455C574F89E360E123E00E94ED534D
:10456000AA24BB240FE1D02EF501E25EFE4FE080CD
:10457000F501EE54FB4FE081E7FDED5FE595E59534
:10458000E43E0CF4E4EE0E2FED310CF00CE1F501FD
:10459000E65EFE4F80818823F9F08E2D64E046E3CD
:1045A0000E946A558091C80290E08A259B2580FD73
:1045B00004C08091E1028F7061F48E2D81506EE114
:1045C00043E00E946A558E2D8F5F6EE143E00E94AA
:1045D0006A559D2D901B14C08E2D8B516CE346E3C4
:1045E0000E9466551E2D1150812F6BE343E00E94FF
:1045F0006655812F6DE343E00E946655E00E9CE313
:104600001E2D1350092F0350812F602F47E09983EF
:104610000E946A5599819D5F812F692F47E00E9412
:1046200066558E2D8D5F602F47E00E946A55812F61
:10463000602F47E00E9466550894A11CB11CF4E06D
:10464000AF16B10409F090CF8091C602823009F410
:10465000B0C012E1A12E16E0B12ECC24DD24BBE1C6
:104660006B2E712CA9E18A2E912C2C2DD501ED9069
:10467000FC908091C602882321F0813009F08CC023
:104680002BC0C60183709070869D8001879D100DA0
:10469000969D100D11242695269530E02B5F3F4FF7
:1046A000F3E0220F331FFA95E1F7C70160E270E0F3
:1046B0000E94395DFB01C70160E870E00E94395D2E
:1046C0006E1B7F0BE60EF71E802F8F5D622FA701FA
:1046D00020E20E942E5560C0243010F01CE501C07D
:1046E00014E2960123703070C901880F991F880F5A
:1046F000991F820F931F082F0A5DC70160E470E0C5
:104700000E94395D9B01C70162E070E00E94395D43
:10471000FB01E21BF30BC70160E071E00E94395D11
:10472000E60FF71FF7FF03C0F095E195FF4FE89DF7
:10473000C001E99D900DF89D900D1124845D9E4F60
:10474000892F990F990B8595E82EB9E1B81714F4C4
:1047500069E1E62E812F8951602F43E325E50E9410
:104760003855602F6250812F45E00E946A55F5014F
:10477000808191811816190614F41F5F01C01E195B
:104780000F5F812F602F4E2D0E9466550250812FA2
:10479000602F4E2D0E9466550894C11CD11C82E0EA
:1047A00090E0A80EB91E98E0C916D10409F05DCFBB
:1047B000FBC38FE161E247E10E946A558FE167E345
:1047C00047E10E94665585E361E247E10E946A5530
:1047D0008FE161E247E10E9466558BE461E247E1C7
:1047E0000E946A558BE467E347E10E94665581E6C3
:1047F00061E247E10E946A558BE461E247E10E9471
:1048000066558AE26BE243E00E946A5589E26CE2F7
:1048100043E00E94665586E56BE243E00E946A55DC
:1048200085E56CE243E00E9466558091E105909138
:10483000E205880F991F9C0143E0220F331F4A9520
:10484000E1F7820F931F60E078E00E94395D462F08
:104850008091E3059091E405880F991F9C0103E086
:10486000220F331F0A95E1F7820F931F60E078E073
:104870000E94395D709561957F4F665D842F885DDC
:1048800045E00E946A558091E1059091E205880F0C
:10489000991F9C01B3E0220F331FBA95E1F7820FF5
:1048A000931F60E078E00E94395D462F8091E30518
:1048B0009091E405880F991F9C01F3E0220F331FAC
:1048C000FA95E1F7820F931F60E078E00E94395D6E
:1048D000709561957F4F625D842F885D45E00E94F1
:1048E00066558091E1059091E205880F991F9C0122
:1048F00073E0220F331F7A95E1F7820F931F60E078
:1049000078E00E94395D462F8091E3059091E4059F
:10491000880F991F9C0153E0220F331F5A95E1F72E
:10492000820F931F60E078E00E94395D7095619579
:104930007F4F665D842F845D45E00E946A558091BB
:10494000E1059091E205880F991F9C0113E0220F69
:10495000331F1A95E1F7820F931F60E078E00E9401
:10496000395D462F8091E3059091E405880F991FEA
:104970009C01A3E0220F331FAA95E1F7820F931F3A
:1049800060E078E00E94395D709561957F4F665DCB
:10499000842F885D45E00E9466558091E7059091DF
:1049A000E805880F991F9C01E3E0220F331FEA9569
:1049B000E1F7820F931F60E078E00E94395D462F97
:1049C0008091E5059091E605880F991F9C0163E0B1
:1049D000220F331F6A95E1F7820F931F60E078E0A2
:1049E0000E94395D709561957F4F665D842F8C5A6A
:1049F00045E00E946A558091E7059091E805880F8F
:104A0000991F9C0143E0220F331F4A95E1F7820F63
:104A1000931F60E078E00E94395D462F8091E505A4
:104A20009091E605880F991F9C0103E0220F331F28
:104A30000A95E1F7820F931F60E078E00E94395DEC
:104A4000709561957F4F625D842F8C5A45E00E947E
:104A500066558091E7059091E805880F991F9C01A4
:104A6000B3E0220F331FBA95E1F7820F931F60E086
:104A700078E00E94395D462F8091E5059091E6052A
:104A8000880F991F9C01F3E0220F331FFA95E1F77D
:104A9000820F931F60E078E00E94395D7095619508
:104AA0007F4F665D842F885A45E00E946A55809149
:104AB000E7059091E805880F991F9C0173E0220F8C
:104AC000331F7A95E1F7820F931F60E078E00E9430
:104AD000395D462F8091E5059091E605880F991F75
:104AE0009C0153E0220F331F5A95E1F7820F931F69
:104AF00060E078E00E94395D709561957F4F665D5A
:104B0000842F8C5A45E00E9466556091E9057091AA
:104B1000EA05882777FD8095982F26E130E040E070
:104B200050E00E94FA5C5B016C0180E098E5A0E037
:104B3000B0E0A80EB91ECA1EDB1EC601B50120E0FA
:104B400038E040E050E00E946E5D79018A011095E6
:104B50000095F094E094E11CF11C011D111D97E3F8
:104B6000E90EC601B50120E038E040E050E00E94C7
:104B70006E5D2F5F8AE36E2D422F0E946A55609111
:104B8000E9057091EA05882777FD8095982F26E141
:104B900030E040E050E00E94FA5C5B016C0180E094
:104BA00098E5A0E0B0E0A80EB91ECA1EDB1EC60143
:104BB000B50120E038E040E050E00E946E5D7901F0
:104BC0008A0110950095F094E094E11CF11C011D00
:104BD000111D97E3E90EC601B50120E038E040E081
:104BE00050E00E946E5D2F5F8BE36E2D422F0E947E
:104BF0006A556091E9057091EA05882777FD8095EF
:104C0000982F26E130E040E050E00E94FA5C5B0122
:104C10006C0180E098E5A0E0B0E0A80EB91ECA1EC5
:104C2000DB1EC601B50120E038E040E050E00E9404
:104C30006E5D79018A0110950095F094E094E11C75
:104C4000F11C011D111D97E3E90EC601B50120E01D
:104C500038E040E050E00E946E5D2F5F8CE36E2DE7
:104C6000422F0E946A556091EB057091EC058827F0
:104C700077FD8095982F26E130E040E050E00E94DB
:104C8000FA5C5B016C0180E098E5A0E0B0E0A80E62
:104C9000B91ECA1EDB1EC601B50120E038E040E0A7
:104CA00050E00E946E5D79018A0110950095F094A4
:104CB000E094E11CF11C011D111D97E3E90EC601F2
:104CC000B50120E038E040E050E00E946E5D2F5FCB
:104CD0008FE36E2D422F0E946A556091EB05709113
:104CE000EC05882777FD8095982F26E130E040E09D
:104CF00050E00E94FA5C5B016C0180E098E5A0E066
:104D0000B0E0A80EB91ECA1EDB1EC601B50120E028
:104D100038E040E050E00E946E5D79018A01109514
:104D20000095F094E094E11CF11C011D111D97E326
:104D3000E90EC601B50120E038E040E050E00E94F5
:104D40006E5D2F5F80E46E2D422F0E946A55609148
:104D5000EB057091EC05882777FD8095982F26E16B
:104D600030E040E050E00E94FA5C5B016C0180E0C2
:104D700098E5A0E0B0E0A80EB91ECA1EDB1EC60171
:104D8000B50120E038E040E050E00E946E5D79011E
:104D90008A0110950095F094E094E11CF11C011D2E
:104DA000111D97E3E90EC601B50120E038E040E0AF
:104DB00050E00E946E5D2F5F81E46E2D422F0E94B5
:104DC0006A556091ED057091EE05882777FD809515
:104DD000982F26E130E040E050E00E94FA5C5B0151
:104DE0006C0180E098E5A0E0B0E0A80EB91ECA1EF4
:104DF000DB1EC601B50120E038E040E050E00E9433
:104E00006E5D79018A0110950095F094E094E11CA3
:104E1000F11C011D111D97E3E90EC601B50120E04B
:104E200038E040E050E00E946E5D2F5F84E46E2D1C
:104E3000422F0E946A556091ED057091EE0588271A
:104E400077FD8095982F26E130E040E050E00E9409
:104E5000FA5C5B016C0180E098E5A0E0B0E0A80E90
:104E6000B91ECA1EDB1EC601B50120E038E040E0D5
:104E700050E00E946E5D79018A0110950095F094D2
:104E8000E094E11CF11C011D111D97E3E90EC60120
:104E9000B50120E038E040E050E00E946E5D2F5FF9
:104EA00085E46E2D422F0E946A556091ED05709148
:104EB000EE05882777FD8095982F26E130E040E0C9
:104EC00050E00E94FA5C5B016C0180E098E5A0E094
:104ED000B0E0A80EB91ECA1EDB1EC601B50120E057
:104EE00038E040E050E00E946E5D79018A01109543
:104EF0000095F094E094E11CF11C011D111D97E355
:104F0000E90EC601B50120E038E040E050E00E9423
:104F10006E5D2F5F86E46E2D422F0E946A552DE054
:104F2000C22E28E0D22E11E090E2E92E812F60E01F
:104F300040E00E94520B082F8AE06E2DA60123E06C
:104F40000E94ED531F5FA8E0EA0EE3E0F0E0CE0E12
:104F5000DF1E143059F781EFC82E87E0D82E17E0F6
:104F600000E3E02E812F60E040E00E94520B082F0A
:104F700085E66E2DA60123E00E94ED531F5FF8EF3A
:104F8000EF0E83E090E0C80ED91E1A3059F70CC01E
:104F90008091470A882309F4CEC94CCA8091470AF8
:104FA000882309F0E2C946CA0F90CF91DF911F9183
:104FB0000F91FF90EF90DF90CF90BF90AF909F90B8
:104FC0008F907F906F9008950F931F93CF93DF93EF
:104FD000082F80E060E046E658E021E00E941F5480
:104FE000013658F0033628F0033639F48FE898E29A
:104FF00002C089E491E20E94E40886E068E042E6AB
:1050000058E00E944D5440915B0750915C0788E145
:1050100068E020E000E00E94E31286E668E04EE5EA
:1050200058E00E944D5440915D0750915E078CE31B
:1050300068E020E00E94E31286E060E14AE558E083
:105040000E944D5440915F075091600788E160E1F4
:1050500020E00E94E31286E660E146E558E00E9407
:105060004D54409161075091620734E05695479541
:105070003A95E1F78CE360E120E00E94E31286E6D6
:1050800060E042E558E00E944D544091590750912C
:105090005A078CE360E020E00E94E3128091E00771
:1050A0009091E1078937910518F4C0E0D0E004C081
:1050B000C091DE07D091DF0782E06CE34EE70E94EB
:1050C000665585E06CE143E20E946A550BE0802F53
:1050D0006BE343E00E946A550A5F0338C1F706E0BC
:1050E0001CE3FE01EA59F84F4081612F641B802FB9
:1050F0000E946A552196C837D10510F0C0E0D0E073
:105100008091DE079091DF07C817D90719F00F5F6C
:105110000E3739F7DF91CF911F910F9108951F93AB
:10512000182F80E060E043EB58E021E00E941F541C
:105130001236E9F0133628F4103631F01136F1F456
:1051400019C01336D9F416C08FEF97E09093090178
:10515000809308011092E3071092E2071092E5078E
:105160001092E407809148058093470507C084EEBC
:1051700097E202C089E491E20E94E40880E068E0DE
:1051800041EA58E00E944D544091E2075091E307F4
:105190005695479584E568E00E94345580E060E1CB
:1051A0004FE858E00E944D54409108015091090188
:1051B0005695479584E560E10E94345580E068E1AA
:1051C0004DE758E00E944D544091E2075091E307AB
:1051D0008091080190910901481B590B56954795FC
:1051E00084E568E10E94345580E060E24BE658E0D7
:1051F0000E944D542091E4073091E50784E690E049
:10520000289FA001299F500D389F500D112464E064
:10521000569547956A95E1F784E560E220E40E949F
:105220002E551F9108950F93042F40EF5FEF20E15B
:1052300030E00E94AD0C0F9108950F93042F4CE9BC
:105240005FEF24E630E00E94AD0C0F9108956F925D
:105250007F928F929F92AF92BF92CF92DF92EF9206
:10526000FF920F931F93DF93CF93CDB7DEB7682ED6
:10527000742EF22E302F8A2D222329F0442309F494
:10528000FFC022E0FEC020E0833671F58C2D90E057
:10529000880F991FFC01B3E0EE0FFF1FBA95E1F7ED
:1052A000E81BF90BEA57FB4F832F6E2D40810E94BC
:1052B0003912FF2009F4EAC0772039F480915005B3
:1052C00090915105892B09F4E1C08C2D90E0880F55
:1052D000991FBC01F3E0660F771FFA95E1F7681B91
:1052E000790B6A577B4F2FC0823691F58C2D90E059
:1052F000880F991FFC0173E0EE0FFF1F7A95E1F70D
:10530000E81BF90BE957FB4F832F6E2D40810E945C
:105310003912FF2009F4BAC0772039F48091500582
:1053200090915105892B09F4B1C08C2D90E0880F24
:10533000991FBC0153E0660F771F5A95E1F7681B70
:10534000790B69577B4F862D42E00E9413299EC03E
:10535000A82EBB248989082F10E0882009F047C0B7
:105360008C2D90E0880F991FFC01B3E0EE0FFF1F1A
:10537000BA95E1F7E81BF90BC501880F991F880F53
:10538000991FE80FF91FE00FF11FE658FB4F40810E
:10539000552747FD5095832F6E2D0E942E55FF20D7
:1053A00009F474C0772039F480915005909151052B
:1053B000892B09F46BC08C2D90E0880F991F9C01FC
:1053C00073E0220F331F7A95E1F7281B390BAA0CE3
:1053D000BB1CAA0CBB1C2A0D3B1D020F131F065839
:1053E0001B4F862DB80142E00E941D294FC0DD24CD
:1053F0009924F501EE0FFF1FC60143E0880F991FA6
:105400004A95E1F78C199D09E80FF91FE80DF91D80
:10541000EE0FFF1FE00FF11FE658FB4F40815527AD
:1054200047FD50954C595F4F832F6E2D0E942E558E
:10543000FF2061F1772031F4809150059091510562
:10544000892B21F1AA0CBB1CC601B3E0880F991F60
:10545000BA95E1F78C199D09A80EB91EA80CB91CC4
:10546000AA0CBB1C0A0D1B1D06581B4F862DB8012C
:105470004CE95FEF20E030E002E00E94AD0C06C096
:1054800021E0662309F400CF21E0FECECF91DF9129
:105490001F910F91FF90EF90DF90CF90BF90AF9052
:1054A0009F908F907F906F9008950F931F93182F68
:1054B00080E068E047EE5BE020E00E941F5481E05E
:1054C00060E140ED52E02AE000E10E94ED5382E409
:1054D00060E14FE320E00E94745382E168E24CED0A
:1054E0005BE00E944D5482E160E34DEC5BE00E9482
:1054F0004D54113661F11F3B19F0103659F505C0B6
:1055000080914B058093470525C08091B1028F5F44
:105510000E9464520091B1020AC00150013108F0AA
:105520000FE08091B102081711F400E006C0802F4F
:105530008F5F0E94044F882381F30093B102802F74
:105540000E94A34E80E59BE30E94E40803C080E034
:105550000E941E101F910F9108956F927F928F925B
:105560009F92AF92CF92DF92EF92FF920F931F9391
:10557000CF93DF93EC01162F4901D02E370121156F
:10558000310509F443C0FF248881882311F4FF24E6
:10559000F394042F0150FF2021F1143681F01536C9
:1055A00001F50023F1F081E090E0801B9109880F64
:1055B000991FF401E81BF90B8591949110C0202FDD
:1055C00030E08D2D90E001972817390754F4F90148
:1055D0003196EE0FFF1FE80DF91D859194910E9401
:1055E000E40880E3D80E8AE760E04D2D2F2D0E945D
:1055F000745384E760E04FE22F2D0E9474530F5CD8
:105600008EE660E0402F2F2D0E94745361147104C8
:1056100011F490E009C088818C1508F4C82EF301BC
:10562000EC0DF11D94919150123609F462C01336BD
:1056300088F4133409F468C0143430F41132F9F0EA
:10564000123409F072C052C0143479F1153409F0E3
:105650006CC03BC01536E1F1163638F4133609F448
:1056600056C0143609F061C023C0113829F01F3B21
:1056700009F05BC0188259C0109210060CC08091CE
:105680001006882319F0109210064FC088818823D5
:1056900011F0892821F480E00E941E1046C08091FC
:1056A00048058093470519822DC089818917E9F142
:1056B0006728D9F1809110068823B9F58981891767
:1056C00010F48F5F0FC019822DC08981882369F182
:1056D000672859F180911006882339F5898188233C
:1056E00019F0815089831EC099831CC088818A1556
:1056F000E1F0809110068823C1F488818A1510F4A6
:105700008F5F0DC018820EC08881882371F0809150
:105710001006882351F48881882319F081508883EA
:1057200001C0A88280E68093F60FDF91CF911F9190
:105730000F91FF90EF90DF90CF90AF909F908F9060
:105740007F906F900895AF92CF92DF92EF92FF9289
:105750000F931F93CF93DF93D82E80E060E041E258
:105760005AE021E00E941F548CE59AE06D2D42E042
:1057700020EC37E006E077E2E72E7AE0F72ECC2443
:10578000C39452E0A52E0E94AD2AE0905C0A8FEBF4
:10579000D81611F410921006FF2481E0E81611F4D7
:1057A000FF24F39480E060E14DE15AE023E00F2D07
:1057B0000E94ED5310E000E3C0E0D0E0143018F494
:1057C000202F60E103C0202F205668E1FE01E85839
:1057D000FA4FDE01AC57BD4F40815181D2968D9179
:1057E0009C91D397481B590B440F551F822F20E2E1
:1057F0000E942E551F5F085E22961830F9F6FF2092
:1058000099F080E6D81681F4A6EBB2E0E8E7F5E07F
:1058100080E101900D928150E1F781E00E94F14C0E
:10582000809148058093470580E068E242E15AE0B4
:105830002AE000E00E94ED534091CE0282E0E8169B
:1058400011F020E201C021E2552747FD5095465F47
:105850005F4F8EE468E20E942E5582E0E81651F414
:105860008D2D6EEC72E046EF5FEF28E230E001E054
:105870000E94AD0CDF91CF911F910F91FF90EF909F
:10588000DF90CF90AF9008958F929F92AF92BF928A
:10589000CF92DF92EF92FF920F931F93CF93DF93FC
:1058A000D82E80E060E049EB5BE021E00E941F54CD
:1058B0004091B10250E04F5F5F4F845F60E025E0B0
:1058C00002E00E9495548FEA9AE06D2D42E020EBB1
:1058D00037E008E0E0ECEE2EEBE0FE2E7CE0C72E99
:1058E0005CE0A52E0E94AD2AA090AF0A9091B00A6C
:1058F000B92EB3941A141CF010920F0619C02A2D59
:10590000332727FD309580910F06281B3109283059
:1059100031053CF089EFA80EA0920F0687E0A80E93
:1059200007C01216130624F0AA94A0920F06A3949F
:1059300081E6D81671F18D1598F084E4D81609F433
:105940003FC08D1528F082E4D81608F44CC045C03D
:1059500085E4D81641F180E6D81609F044C00EC09F
:1059600084E6D81669F1D816C0F185E6D816D9F0C4
:105970008FEBD816C1F51092100635C0A7FC33C0C6
:1059800090E080911006882309F491E0909310062E
:105990002AC080911006882331F11092100681E60A
:1059A0000E948D5720C081E0A816E9F48B15D8F429
:1059B000809110068823B9F091509093B00A13C0DB
:1059C00081E0A81681F489E08B1568F080911006BB
:1059D000882349F0B092B00A06C08091100688234F
:1059E00011F41092B00A80910F06882319F018E084
:1059F000C12E63C080E068E044EB5BE020E00E94E1
:105A00001F5481E0A81619F080E090E008C000E083
:105A100080911006811101E081E00827802F082F76
:105A200000618CE368E040ED52E02AE00E94ED5313
:105A300081E0A81609F03FC0809110068823D9F1B3
:105A40000B2D10E0E8012197FE01E053FD4F80810E
:105A50000E94D413682F8091500590915105892B95
:105A600061F482E6D81649F083E6D81631F082E474
:105A7000D81619F083E4D81631F48D2D40E027E2D2
:105A80000E94BC0D682F683210F040E205C0E62F7E
:105A9000F0E0EC50F44F4491C053DD4F4883C8010F
:105AA000880F991F800F911F880F991F8A5C68E0EB
:105AB00021E00E947453F0E1CF2E80910F068230D6
:105AC00008F087C080E06C2D4EEA5BE020E00E9489
:105AD0001F544091DD025091DE0282E0A816A9F425
