:100000000C9494080C94B1080C94B1080C94B108A9
:100010000C94B1080C94B1080C94B1080C94B1087C
:100020000C94B1080C94B1080C94B1080C94B1086C
:100030000C94550A0C94B1080C94B1080C94D70A8E
:100040000C9485090C94B1080C94F25D0C94B108E1
:100050000C94B1080C94B1080C94B1080C94B1083C
:100060000C94B1080C94A4090C94B1080C94B10838
:100070000C94B1080C94B1080C94B1080C94B1081C
:100080000C94B1080C94B1080C94B10880400000A5
:1000900000000000000000E0E0E0E0E0E0E0E0E080
:1000A000E0E0E0E0E0600000C0E0E0E0E0E0E0E0B0
:1000B000E0E0E0E0C080000000000000C0E0F07080
:1000C00038383878F8F0C000000000000000000068
:1000D000000000000000000000000000000000FF21
:1000E000FFFFFFFF1F1F5FFFFFC0808080BBBFFEC1
:1000F000FDFFFFFFFFFFFFFFFFFFFFFFFFFFFFFF12
:10010000FFFF1FEFF7BBFB7BFBBBF7EF1FFFFF0002
:1001100000000000000000E0FEFF7F7170F8FC7C32
:10012000000007070300000000F8FFFFE7E0E0E041
:10013000E0F0793F1F0F00000000001F3F7F787044
:100140007030B8FCFF7F1F0000000E1E3EFEFEF662
:10015000E0E07C3E3E1E0E0E0400000000000001A8
:10016000031F3F2F8686ECFFC77F3F0F0F07030358
:10017000030181C181000000006060600101010392
:100180000F3F7CFBF7EDEBEAEBEDF7FBFCFFFF002D
:100190000000000038383C3F3F3B383839393938A7
:1001A000383E3F0F003030383F3F3F3838000001C5
:1001B000070F3F3E383810000038383838381C1CDC
:1001C0001E0F070301000030383C3C3E3F1F030177
:1001D000333F3F3E3C3818000000000000000000A4
:1001E00000010001000406133300000000000000BD
:1001F00000008383898884C8C8C0C4E0E0F0F07838
:1002000078383C1F0F8FCFFFFFFFFFFFFFFFFF007E
:1002100000F84848484800081820C0201808000086
:10022000F888888870008070087080000000F818D6
:10023000608000F80000F808080810E00000F800EE
:1002400000F818608000F80000E010080888889026
:100250000000000000000000000000000000002678
:10026000070E0C000000C02080603E1E0E0E1E1FF8
:100270000F0F0F0F0F070707030303010100000013
:1002800080E0F8FEFFFFFFFFFFFFFFFFFFFFFF0023
:100290000007040404040004060100010604000031
:1002A000070000000004030101010304000007002F
:1002B0000001060700000704040402010000070013
:1002C0000007000001060700000102040404040303
:1002D000000000000000000000000000000000FF1F
:1002E000FFFFFFFCFEFFFFFFF8F0E0E0606060E072
:1002F000E0E0E0E0E0E0F8FCFCFEFEFFFFFFFFBF17
:10030000BF1F1F3F7F7F3F3DBCBEE7E7F7FFFF00FA
:1003100000FE2222221C000078840202028478005F
:10032000009C12121222E4009C12121222E400FE1F
:100330000000FE12121212EC0000FE0000FE00008F
:10034000000000FE00020202FE02020200FE0000A7
:10035000FE1212121200009C12121222E40000FF80
:10036000FFFFFFFFFFFFFFFFFFFFFFDFCED6FEFE19
:10037000FCFFFFFFFF7F5F97B7BFFFFF0701010192
:10038000018830E3CEFCF0C00C0C08020200010032
:100390000001000000000000000001010100000059
:1003A0000000010101010000000101010100000144
:1003B0000000010101010100000001000001010134
:1003C0000101000100000000010000000001000028
:1003D0000101010101000000010101010000002FE5
:1003E0000F03030F0F0F1F1F3F9FFFFCF9FBF1F3DC
:1003F000737F3F1307A3425FFFFFFFFFFCC0400670
:1004000078396EEEFBFFFFFFFFFE8000707000008A
:1004100000000000000000000000000000000000DC
:1004200000000000000000000000000000000000CC
:1004300000000000000000000000000000000000BC
:1004400000000000000000000000000000000000AC
:10045000000000000000000000000000000000603C
:10046000E0E0E09213130000001F9FFF7F1F13C303
:10047000E2F6F0E0EAD6FDFFFFFFFFFFFFFFFE78A8
:100480006060706141010397FFFF7F060E06025214
:10049000554420454C45205448522041494C205257
:1004A00055442054485220454C452041494C204158
:1004B000494C20454C452054485220525544204137
:1004C000494C2054485220454C4520525544200068
:1004D00003010200040506070000000000000108F7
:1004E0001E640101081E6401010F32960A0A1E32C1
:1004F000966D656E75537461636B206F7665726679
:100500006C6F77006D656E75537461636B20756EEB
:10051000646572666C6F7700707265737320616ECC
:1005200079204B657900414C455254004D45535359
:1005300041474500506C6561736520726573657451
:10054000207468656D005377697463686573206E05
:100550006F74206F666600414C45525400416C61D7
:10056000726D732044697361626C65640054485213
:10057000206E6F742069646C6500454550524F4D84
:10058000206C6F77206D656D004F46464142535297
:100590005573525525454C73454C25544873544862
:1005A00025414C73414C255031205031255032208B
:1005B0005032255033205033250054485252554470
:1005C000454C4549443049443149443241494C47FE
:1005D000454154524E535731535732535733535763
:1005E00034535735535736004F4646004F4E200080
:1005F0002D2D2D002D2D2D20434831204348322014
:10060000434833204348342043483520434836206C
:100610004348372043483820434839204348313045
:100620004348313143483132434831334348313410
:1006300043483135434831364348313743483138F0
:1006400043483139434832304348323143483232EB
:1006500043483233434832344348323543483236D4
:1006600043483237434832384348323943483330BD
:10067000005031202050322020503320204D41584E
:100680002046554C4C50504D3150504D3250504DED
:100690003350504D3450504D3550504D3650504DD4
:1006A0003750504D38434831204348322043483377
:1006B00020434834204348352043483620434837B8
:1006C000204348382043483920434831304348319B
:1006D0003143483132434831334348313443483160
:1006E0003543483136434831374348313843483140
:1006F000394348323043483231434832324348323A
:100700003343483234434832354348323643483223
:1007100037434832384348323943483330002D2D6F
:100720002D2D00564552533A2056312E312D6772E9
:100730007576696E00444154453A2031322E31318C
:100740002E323031300054494D453A2031343A3060
:10075000323A3030002053564E3A207472756E6B28
:100760002D7233380012081200081C0808081C08F3
:100770000000082200490022080000000000227F3B
:100780002200000008220049002208000008220080
:1007900049002208000000227F220000000000081B
:1007A0002200490022080000081C0808081C080054
:1007B000473C3B2D6631BD4A0044643D9533CD4CEA
:1007C00075359A2CDB390C3A9B3A0C3B70756C737F
:1007D0006520746162206F766572666C6F77005475
:1007E0004852525544454C454944304944314944A6
:1007F0003241494C47454154524E53573153573279
:100800005357335357345357355357360054485280
:10081000525544454C45494430494431494432419C
:10082000494C47454154524E535731535732535711
:1008300033535734535735535736002020205454E0
:100840006D00457870457846466E654D6564437227
:100850007300544F54005354250053544B005453C9
:100860005700544D450053544154004672536B7920
:1008700000746D61696E202020202020202020201F
:100880006D7300746D7231204A6974746572202032
:100890002020757300746D72314C6174206D696E27
:1008A00020202020757300746D72314C6174206DAE
:1008B0006178202020207573005354415432004D3C
:1008C0006F6465004F46464F4E2000416C61726D6B
:1008D000205761726E696E67004F46464F4E20008A
:1008E0004D656D6F7279205761726E696E67004F4A
:1008F00046464F4E200053776974636820576172F3
:100900006E696E67004F46464F4E20005468726F06
:1009100074746C65205761726E696E67004F46464D
:100920004F4E200053706C6173682073637265656D
:100930006E004F4646004C69676874206F666620FB
:100940006166746572004C696768742073776974B6
:100950006368004F46464F4E2000466C6173682026
:100960006F6E2062656570004F46464F4E20004214
:1009700065657020636F756E74646F776E004F46A7
:10098000464F4E20004D696E757465206265657036
:10099000004F46464F4E20005468726F74746C6569
:1009A00020726576657273650053494E474F534D0B
:1009B0005046494C540046696C746572204144436A
:1009C00000496E616374697669747920616C617243
:1009D0006D0042617474657279207761726E696E20
:1009E0006700436F6E74726173740051756965744A
:1009F0004E6F4B65794E6F726D204C6F6E6720782D
:100A00004C6F6E67004265657065720052414449E3
:100A10004F205345545550004D756C7469706C6986
:100A200065720043616C0050504D494E0001045600
:100A3000455253494F4E005472696D2D202B0020B2
:100A40004D656E75204578697420446F776E20205F
:100A50002055705269676874204C6566740044497B
:100A60004147004131413241334134413541364102
:100A700037413800414E41003C202020203E0053A9
:100A800065744D6964205365745370616E446F6E74
:100A9000652020200043414C4942524154494F4E69
:100AA000004475706C69636174696E67206D6F6472
:100AB000656C00312F380066726565004D4F444506
:100AC0004C53454C0044454C455445204D4F4445FE
:100AD0004C2020205B4D454E555D00504F534E45F8
:100AE000470053686966742053656C0075536563ED
:100AF00000344348203643482038434820313043AF
:100B0000483132434831344348313643480050502D
:100B10004D20202053494C565F4153494C565F426B
:100B200053494C565F435452414330390050726F21
:100B3000746F005245544131323300426565702074
:100B4000436E74005472696D2053770045787020AD
:100B50002020457846696E6546696E6520204D65A2
:100B60006469756D436F61727365005472696D20BD
:100B7000496E63004F46464F4E2000542D45787015
:100B80006F004F46464F4E2000542D5472696D0041
:100B9000436F756E7420446F776E436F756E74206B
:100BA000557020200054696D657220005472696789
:100BB0006765720054696D6572004E616D65005322
:100BC000455455502000010A0201010101010107AD
:100BD0000301015B4D454E555D20205B455849544E
:100BE0005D0059455320202020204E4F0044454CA5
:100BF000455445204D4F44454C0020414243444517
:100C0000464748494A4B4C4D4E4F5051525354550C
:100C1000565758595A303132333435363738395FB0
:100C20002D2E0065787020202520207377312073C9
:100C30007732004558504F2F44520005044452204B
:100C400048696768004452204C6F77004452204D39
:100C5000696400447253773200447253773100570D
:100C60006569676874004578706F004558504F2F6C
:100C7000445220002D2D2D783E30783C307C787CFD
:100C8000663E30663C307C667C6331206332206394
:100C90003320633420633520633620633720633884
:100CA0002063392063313063313163313263313352
:100CB000633134633135633136002B2A5200777447
:100CC000207372632020737720637276004D495839
:100CD00045520044454C455445204D4958205B4DF4
:100CE000454E555D00536C6F772020557000536C56
:100CF0006F772020446F776E0044656C61792055D2
:100D0000700044656C617920446F776E00416464C3
:100D100020202020204D756C7469706C79526570AC
:100D20006C61636520004D756C747078004F4646A9
:100D3000005761726E696E6700537769746368006B
:100D40002D2D2D783E30783C307C787C663E3066A8
:100D50003C307C667C633120633220633320633413
:100D600020633520633620633720633820633920C1
:100D70006331306331316331326331336331346332
:100D8000313563313600437572766573004F4E20FE
:100D90004F4646005472696D004F66667365740075
:100DA00057656967687400536F75726365004544E1
:100DB0004954204D49582000494E53455254204D26
:100DC000495820002D2D2D2D202020763E6F667352
:100DD0002020763C6F667320207C767C3E6F6673A5
:100DE0007C767C3C6F6673414E44202020204F521D
:100DF0002020202020584F522020202076313D3DB9
:100E00007632207631213D76322076313E763220A0
:100E10002076313C7632202076313E3D7632207687
:100E2000313C3D7632200046756E6374696F6E20EA
:100E3000563120205632004353574954434800034B
:100E400003434C454152204D49584553205B4D4585
:100E50004E555D00205245544100205245544100FA
:100E60002052455441002052455441004368616E70
:100E70006E656C204F726465720054454D504C4154
:100E800054455300434F5059205452494D205B4D17
:100E9000454E555D002D2D2D494E560073756254FB
:100EA000206D696E20206D617820696E76004C4956
:100EB0004D495453000104435600435552564500D2
:100EC00050524553455400454449542D3E00435526
:100ED00052564520000A01010101010101010101F1
:100EE00001454550524F4D206F766572666C6F77A5
:100EF00000454550524F4D206F766572666C6F7796
:100F00000067656E7772697465206572726F720032
:100F1000454550524F4D20466F726D617474696E35
:100F2000670042616420454570726F6D20446174B2
:100F300061004D4F44454C20202020200050085097
:100F4000000000000000005E0000000806080628FF
:100F50007E287E28042A7E2A104C2C106864344A8D
:100F600056205000000008060000182442000042ED
:100F7000241814083E081408083E08080000B07041
:100F80000000080808080000606000006018060003
:100F9000003C42423C0000447E40004462524C000F
:100FA000424A4A340018147A10002E4A4A32003C51
:100FB0004A4A300002720A0600344A4A34000C528F
:100FC000523C00006C6C000000A86800000008148F
:100FD00022001414141400002214080004520A04FD
:100FE0003C425A5A1C007C12127C007E4A4A340051
:100FF0003C424224007E42423C007E4A4A42007EFD
:101000000A0A02003C425234007E10107E00427EEA
:101010004200002040403E007E182442007E4040B6
:10102000407E0408047E007E08107E003C42423C64
:10103000007E12120C003C42225C007E12324C00F8
:10104000244A522402027E0202003E40403E1E20FC
:1010500040201E7E2018207E42241824420204785C
:1010600004020062524A46007E42420000061860B6
:10107000000042427E000804020408404040404014
:1010800000000608000030484878007E48483000DC
:1010900030484848003048487E0078485858000892
:1010A000FE0A080010A8A878007E08087000487A98
:1010B0004000008088FA00007E10284000427E40F8
:1010C00000780870087000780808700030484830D0
:1010D00000F828281000102828F8007810080800C8
:1010E0005058682800087E4848003840407818204A
:1010F000402018384030403800483030480098A030
:10110000A078004868584800107C440000007E0029
:10111000000000447C1010104438101038441010A7
:10112000408008042010020111241FBECFEFD0E13F
:10113000DEBFCDBF12E0A0E0B1E0ECE6FEEB02C006
:1011400005900D92A83AB107D9F710E1A8EAB2E0EC
:1011500001C01D92AE32B107E1F70E9474110C94E8
:10116000345F0C940000883048F4E82FF0E0EE0F74
:10117000FF1FE85FF94F208131811DC08A3018F4CC
:1011800020E034E018C0A82FB0E0813170F4AA0F3D
:10119000BB1FFD01E853FD4FA557BA4F2D913C9160
:1011A00080819181281B390B06C0AA0FBB1FAC5050
:1011B000BA4F2D913C91C9010895E0916B05F0E083
:1011C000EE0FFF1FED59FA4F808191810895FC01C8
:1011D000A0916B05B0E0AA0FBB1FAF59BA4F8D931A
:1011E0009C938FEB099580916D0580936C05089514
:1011F000E82FF0E0E053FB4FE491F0E0EE0FFF1F2B
:10120000E854FA4F8FB7F8940190F081E02D87FFF2
:1012100001C07894CF010895A8EBB5E0E8ECF5E0C3
:1012200060E0862F806487B9369A349BFECF349A6B
:10123000208931898D919C91119796958795820F80
:10124000931F8E7F8D939D9340815181240F351F75
:1012500036952795318B208B84B195B1840F951FDE
:1012600096958795819391936F5F6830D1F6089535
:10127000DF93CF93CDB7DEB760970FB6F894DEBF9C
:101280000FBECDBFFE01319680E1DF011D928A9530
:10129000E9F7A8EBB5E050E015C067B9369A349B82
:1012A000FECF349A84B195B1280F391F4F5F443077
:1012B000A1F721933193369527952D933D935F5F49
:1012C000583031F02081318140E0652F6064E5CFF6
:1012D00060960FB6F894DEBF0FBECDBFCF91DF9101
:1012E0000895E8EBF5E020E0822F806487B9369A14
:1012F000349BFECF349A84B195B1880F991F8193A6
:1013000091932F5F283081F708951F920F920FB6A7
:101310000F9211248F938091AF058F5F8093AF055B
:101320008F910F900FBE0F901F9018954091AF05B1
:1013300022B78091AF054817C9F7942F80E030E0BD
:10134000282B392BC901089578941F920F920FB65C
:101350000F9211242F934F935F936F937F938F93EB
:101360009F93EF93FF934091800050918100F894F8
:1013700080917D008F7D80937D00789420919B05E6
:101380002F5F2F7080919C05281789F4E0919B05B1
:10139000F0E03F96EF70F070EE0FFF1FE558FA4F48
:1013A000118210828091710580936C0513C0E091C9
:1013B0009B05F0E08091B3059091B405BA01681BDC
:1013C000790BCB01EE0FFF1FE558FA4F9183808315
:1013D00020939B055093B4054093B305F8948091F6
:1013E0007D00806280937D007894FF91EF919F91C2
:1013F0008F917F916F915F914F912F910F900FBEC1
:101400000F901F901895CF93DF938091F202C82F11
:10141000DD27C7FDD0952A964091AD053AC0E091F1
:101420009C05F0E0EE0FFF1FE558FA4F2081318157
:101430003695279580919C058F5F8F7080939C05D2
:10144000842F81508830F8F4C90181529340875726
:10145000954010F040E01DC0E42FF0E0EE0FFF1FBC
:10146000E556FA4F2C5D35402C9FC0012D9F900D05
:101470003C9F900D11246AE070E00E948E5E7183A3
:1014800060834F5F06C0215A3F402F5D3E4208F403
:1014900041E090919C0580919B05981709F0BFCF82
:1014A0004093AD05DF91CF9108951F920F920FB633
:1014B0000F9211242F933F934F935F936F937F93DA
:1014C0008F939F93AF93BF93EF93FF9390E08CB56F
:1014D0008A3008F064C09F5F923309F460C0F7CF90
:1014E000C09A1092F80504C0C09881E08093F80576
:1014F0008091090890910A089C012417350708F487
:101500009A0130930A082093090880910A0190916A
:101510000B019C014217530708F49A0130930B0109
:1015200020930A01A0910801B0910901FD01819168
:1015300091919BBD8ABDF0930901E0930801129639
:101540008D919C911397892BA1F48DE098E0909355
:1015500009018093080180910A038093F80587B7F9
:101560008F7E87BF78940E940917F89487B78061AF
:1015700087BF8091AE0581608093AE05FF91EF91AA
:10158000BF91AF919F918F917F916F915F914F919B
:101590003F912F910F900FBE0F901F9018954CB553
:1015A0005DB58091F805882309F09ACF9DCF789496
:1015B0001F920F920FB60F9211242F933F934F93C8
:1015C0005F936F937F938F939F93AF93BF93EF93AB
:1015D000FF93F89487B78D7F87BF789481B78F5F2B
:1015E00081BF80915F05882359F08091000190911F
:1015F000B705890F8093B70587FF02C01B9A01C00A
:101600001B98809107018150809307018F5F09F03B
:1016100062C08CE98093070190916C05992369F071
:101620008091B105882329F49093B10581E08093DE
:10163000B205915090936C0521C03091B0053323D1
:10164000B9F02091B105222399F090E08091B20584
:10165000882309F491E09093B205992309F428E0D6
:1016600020936C05992351F031503093B00506C09A
:101670001092B1051092B205109260058091B205EA
:101680008823E1F0809100018093B60588E780937C
:10169000000180916005882311F490E004C09091CE
:1016A000B50581E098279093B505992319F010921C
:1016B0005F050AC081E080935F0506C010925F0558
:1016C0008091B605809300010E94A7588091AE05D5
:1016D00082608093AE05F89487B7826087BF789464
:1016E000FF91EF91BF91AF919F918F917F916F91FA
:1016F0005F914F913F912F910F900FBE0F901F90D0
:101700001895AF92BF92CF92DF92EF92FF920F9314
:101710001F93CF93DF93D82EB42E35E03B1508F4FA
:1017200019C1DD2009F419C180E1D81609F414C1EA
:1017300090EFD91609F40EC12D2D332727FD3095D2
:10174000C90137FF04C088279927821B930B8A3071
:101750008CF41D144CF08DE090E0821B930B0E94E2
:10176000FE5761E06827F9C0C9010D960E94FE5737
:10177000682FF3C0E82EFF24E7FCF09486EF9FEF7C
:10178000E80EF91ED701AA0FBB1FAE0DBF1DAC504E
:10179000BD4FA85ABD4F8C91A855B240882309F47B
:1017A000D9C0FD01EA5AFD4FC080ED01C95ADD4F95
:1017B000A880853008F4DDC0883028F400E010E00F
:1017C00020E030E00AC08C2D81500E94B3088C01CB
:1017D000888181500E94B3089C01F701EE0FFF1F22
:1017E000EE0DFF1DE45BFA4FE081E73009F483C0A2
:1017F000E83088F4E33069F1E43030F4E13009F1A5
:10180000E23009F0A7C021C0E53009F456C0E63047
:1018100008F066C038C0EA3009F488C0EB3038F40C
:10182000E83009F479C0E93009F094C07AC0EC30AE
:1018300009F486C0EC3008F47EC0ED3009F08AC0AF
:1018400084C01D140CF472C080C01D140CF473C04D
:1018500077C01D1464F460E0C80117FF03C09095C1
:1018600081959F4F281739070CF077C075C060E04D
:10187000C80117FF03C0909581959F4F281739071E
:101880000CF46BC069C01D1464F460E0C80117FF5C
:1018900003C0909581959F4F821793070CF05DC010
:1018A0005BC060E0C80117FF03C0909581959F4F12
:1018B000821793070CF451C04FC01B2D1F5F8C2D56
:1018C00060E0412F0E94810B882309F443C08A2DD8
:1018D00060E0412F0E94810B682F8823F1F13CC00A
:1018E000B3948C2D60E04B2D0E94810B8823A1F5D1
:1018F000DA2C60E012CF1B2D1F5F8C2D60E0412F92
:101900000E94810B082F8A2D60E0412F0E94810BDD
:1019100060E0081709F521C060E002171307E9F439
:101920001BC060E002171307B9F417C060E020176E
:1019300031079CF411C060E00217130774F40CC067
:1019400060E0021713074CF007C060E02017310772
:1019500024F002C060E001C061E0862FDF91CF91EA
:101960001F910F91FF90EF90DF90CF90BF90AF90BD
:1019700008958C2D81500E94B3088C012881822FFC
:1019800027FD8D5F85958595E82FFF27E7FDF0956D
:101990003AE02302C0011124E80FF91F822F27FD2E
:1019A000815C86FB880F880B80F9992787FD9095CD
:1019B0009F01281B390B11CF4F925F926F927F923C
:1019C0008F929F92AF92BF92CF92DF92EF92FF924F
:1019D0000F931F93CF93DF93182F5B013A014901B7
:1019E000E02E202F30E054E0452E512C422253228D
:1019F00002FF04C0FB01C080D18006C0FB018081D2
:101A0000C82EDD24C7FCD09423FD04C044E0F42E8E
:101A100005E003C033E0F32E02E014FF05C01F70A1
:101A20001066802F0F2DF82E8F2D8066181761F00D
:101A30008F2D8064181741F090913706992361F03B
:101A4000133611F0133441F4E601219680916D05AF
:101A500080936C05802F17C0802F8066181761F067
:101A6000802F8064181741F0992309F467C012365B
:101A700019F0123409F062C0E601219780916D05DA
:101A800080936C058F2D90E00E94FE57882351F0C3
:101A9000CC27DD27CC19DD09802F0E9485588F2D9A
:101AA0000E9485588091750590917605C81BD90BC9
:101AB0008C169D0644F4812F0E94855880917005F4
:101AC00080936C05E401C615D70544F4812F0E946C
:101AD00085588091700580936C05E301CC15DD0578
:101AE000C9F0209739F4812F0E94765880916D05B6
:101AF00080936C05452821F0F501D183C08302C095
:101B0000F501C0838E2D83700E94E84D81E08093A3
:101B1000720503C01092720580E0DF91CF911F9192
:101B20000F91FF90EF90DF90CF90BF90AF909F907C
:101B30008F907F906F905F904F900895E601B2CFA5
:101B40000F93DF93CF930F92CDB7DEB769835527FD
:101B500047FD5095332727FD3095BE016F5F7F4FBE
:101B600009E00E94DC0C89810F90CF91DF910F91E9
:101B700008950F93DF93CF930F92CDB7DEB76983AC
:101B8000552747FD5095332727FD3095BE016F5FE0
:101B90007F4F01E00E94DC0C89810F90CF91DF9193
:101BA0000F9108950F93DF93CF930F92CDB7DEB7C8
:101BB0006983552747FD5095332727FD3095BE0192
:101BC0006F5F7F4F0AE00E94DC0C89810F90CF91FC
:101BD000DF910F9108950F93DF93CF930F92CDB7BD
:101BE000DEB76983552747FD5095332727FD30958C
:101BF000BE016F5F7F4F02E00E94DC0C89810F9075
:101C0000CF91DF910F9108951F93182F682F6F7058
:101C100066502091060322306CF0332727FD309563
:101C20002150304081E090E002C0880F991F2A9532
:101C3000E2F7282F683008F092C0962F959522235E
:101C400011F0422F15C0E92FF0E0EA52FB4F8081DE
:101C5000482F552747FD509557FF03C05095419594
:101C60005F4F242F47FD2D5F422F459545954F5FD0
:101C7000A92FB0E02091EC0230E02170307082E0BA
:101C800090E0821B930B8A179B0739F48091050320
:101C90008F7019F044E071E001C070E0242F332709
:101CA00027FD3095FD01EC50FD4F60FF0AC0EE515D
:101CB000FE4F8081482F552747FD5095420F531FF7
:101CC00009C0EE51FE4F8081482F552747FD5095A2
:101CD000421B530B4115510571F0952F9095991F9B
:101CE0009927991F20E0FD01EA52FB4F808187FF71
:101CF00021E0921769F0772359F4FD01EA52FB4F76
:101D00008081882329F01082812F0E94855820C06D
:101D1000CA0184589F4F893F910570F4AA52BB4F66
:101D20004C9382E00E94E84D16FF03C081E080934F
:101D3000600580916E0510C01416150614F083E836
:101D400001C08DE7AA52BB4F8C9382E00E94E84D00
:101D5000109260058091700580936C0510E0812FD2
:101D60001F9108951F9320911B1030911C1040E08B
:101D700080910606909107062817390709F041E07F
:101D80004093780580911B1090911C10909307064A
:101D90008093060689E396E060E00E946F198091C7
:101DA0007805882309F415C180E00E94F94D0E944E
:101DB00045570E946E570E94040E182F8091790596
:101DC00090917A05009729F0019790937A05809376
:101DD0007905112389F08091F00290E024EF31E041
:101DE000AC01429FC001439F900D529F900D112462
:101DF00090937A05809379058091D90260E040E064
:101E00000E94810B882339F48091790590917A059D
:101E1000892B09F4DCC0C79A20911406309115066D
:101E20008091730590917405821B930B60E270E0C2
:101E30000E94A25E70937605609375056115710529
:101E400091F08091040690910506821B930B62E04D
:101E500070E00E94A25E70937605609375053093E2
:101E60007405209373053093050620930406E091D2
:101E70006B05F0E0EE0FFF1FEF59FA4F0190F08174
:101E8000E02D812F09950E941C578091630081FFEE
:101E900006C0809165008F7E8093650007C08091A9
:101EA00065008061809365000E94030A80911B1089
:101EB00090911C108F7190708230910521F00397E2
:101EC00009F087C06DC0E7EDF4E0E491F0E0EE0FBB
:101ED000FF1FE854FA4F8FB7F8940190F081E02D7E
:101EE00087FF01C078949F013695279536952795F1
:101EF0008091D802992787FD9095AC01249FC0015D
:101F0000259F900D349F900D112423E230E0A9010C
:101F1000E49F9001E59F300DF49F300D1124820F56
:101F2000931F96958091FA05882329F0EAEFF5E052
:101F300020E030E008C0EAEFF5E0919356E0E430AD
:101F4000F507D9F7F3CF81818193280F311D86E002
:101F5000E330F807C1F79083A901490F511DCA0169
:101F60006AE070E00E948E5E609377058091F905CB
:101F7000805E8093F905882361F58091D702681708
:101F800040F58091710580936C058091EE0283FF8E
:101F900020C082E390E090937A058093790519C080
:101FA0008091EB02869586958695877090E0BC01BE
:101FB000660F771F660F771F680F791F68527B4F78
:101FC0008DE695E045E050E00E94F25E02C0C798C1
:101FD00023CF1F910895FF920F931F938C01F62E2C
:101FE0000E94455782E260E046E255E020E80E9408
:101FF000175580E068E1A8010E9445558CE168E32F
:1020000048E155E00E9445550E941C57FF2011F001
:1020100089E102C08091D6020E9412578091710519
:1020200080936C050E946E57807F803291F0809182
:10203000D90260E040E00E94810B882331F4809156
:10204000F002882311F4FF2011F0C79AEBCFC79854
:10205000E9CF1F910F91FF9008959C0180916B052E
:10206000E82FEF5FE0936B05E53040F080936B0560
:1020700081EF94E060E00E94EB0F089580916D0580
:1020800080936C05F0E0EE0FFF1FEF59FA4F31839C
:1020900020838FEBF90109950895E0916B05EE23FC
:1020A000B1F0882311F0E0E001C0E150E0936B054E
:1020B00080916D0580936C05F0E0EE0FFF1FEF59E6
:1020C000FA4F0190F081E02D8EEB0995089584E0A0
:1020D00095E060E00E94EB0F08958091EB0287FD90
:1020E00007C0887329F48DE595E060E00E94EB0F4E
:1020F00008950F931F93CF93DF938091EB0280FDA0
:1021000051C080911B1090911C104497D0F3809186
:10211000EC0290E08170907022E030E0281B390BD7
:10212000E22FF0E0E053FB4FE491F0E0EE0FFF1FF1
:10213000E854FA4F8FB7F8940081118187FF01C0EE
:102140007894F901EE0FFF1FE855FD4FC181D28150
:1021500027853089058CF68DE02DC90168E070E097
:102160000E94A25E621B730B6C0F7D1F60177107CC
:1021700024F48091EE0280FF10C0CE0FDF1FCF014C
:1021800068E070E00E94A25EC61BD70B0C171D070B
:102190004CF48091EE0280FF05C08DE695E060E092
:1021A0000E94EB0FDF91CF911F910F9108950F9334
:1021B0001F938C010E94455782E260E04CE255E09B
:1021C00020E80E94175580E068E1A8010E9445556B
:1021D0000E941C578091D6020E9412571F910F91A6
:1021E00008951F938091EB0281FD2FC00E944557F7
:1021F00082E260E047E555E020E80E94175580E064
:1022000060E246E455E00E94455580E068E344E31F
:1022100055E00E9445550E941C578091D6020E94AD
:1022200012571EE00EC0113141F0812F8D5060E039
:1022300040E00E94810B882311F41F5F02C01EE062
:10224000F4CF163180F31631D1F71F9108958091A4
:10225000EB0282FD0AC00E948950883C910528F457
:102260008AE795E060E00E94EB0F08950F93CF930B
:10227000DF938091EE0284FD33C00E94455780E0D9
:1022800060E04CE850E020E000E00E940E540E9424
:102290001C578091D6020E941257C0911B10D091FA
:1022A0001C10C853DF4F12C00E946E57807F8032CF
:1022B000B9F08091D90260E040E00E94810B882350
:1022C00021F48091F002882349F0C79A80911B1075
:1022D00090911C10C817D90739F702C0C798F6CFDC
:1022E000DF91CF910F910895EF92FF920F931F937B
:1022F000CF93DF939FEF9ABB1BBA81E887BB8EE732
:1023000088BB8EE384BB81EC85BB11BA92BB88E0AD
:1023100082B987EF83B9109261009093620080E1E7
:1023200080936400909365000E94D7560E94495E96
:1023300080E487B985E886B987E083BF81E081BF03
:1023400087B7836087BF1FBC8AE08EBD10928B0069
:1023500082E880938A0080917D00806280937D0076
:10236000789486E991E2909362058093610589E112
:102370000E9412570E94B44F0E9436110E942711EA
:102380000E9471090E9479100E94F1100E946D1044
:102390000E9409172DE088E190E00FB6F894A89507
:1023A00081BD0FBE21BD89E396E060E00E946F19F8
:1023B00087E49CE30E942D1081E00E944D108091E3
:1023C000D6020E9412578091F00290E024EF31E093
:1023D000AC01429FC001439F900D529F900D11246C
:1023E00090937A058093790587B7806187BFF090D5
:1023F000AF05E2B68091AF05F816C9F7E091EF029C
:10240000F0E0EE0FFF1FEF5FFE4F0190F081E02D37
:1024100009950E94B20E8091AE05833019F4A895FB
:102420001092AE052091AF0532B78091AF05281705
:10243000C9F71F2D00E08E2D90E0802B912BD22F1D
:10244000C0E0232F30E02C2B3D2B40910B08509106
:102450000C08281B390B2417350708F49A01309310
:102460000C0820930B08C3CF0F93022F50E0440FAA
:10247000551F440F551F4C505A4F24E00E94E554FD
:102480000F9108950F93022F442319F44EE157E062
:102490001CC0242F30E04150443080F44091EC02C5
:1024A00050E0440F551F440F551F420F531F440F58
:1024B000551F440F551F45575B4F07C0220F331F51
:1024C000220F331F235A394FA90124E00E94E554FB
:1024D0000F910895EF92FF920F931F93082FF62EFE
:1024E000142FE22E442329F0403139F0403F81F48B
:1024F00008C08A5F40EF55E007C08A5F4CEE55E0A8
:1025000003C08A5F48EE55E02E2D0E9417551CC06F
:10251000441F4427441F405E0E946C54802F8A5FF2
:10252000212F332727FD309537FF03C030952195A4
:102530003F4F43E02402A001112449545A4F6F2D0C
:1025400023E00E2D0E94E5541F910F91FF90EF9014
:102550000895DF92EF92FF920F931F93F82EE62ECD
:10256000D42E1091FF02812F992787FD909597FF18
:1025700003C0909581959F4F80319CF443E0840285
:10258000A001112447575A4F8F2D6E2D23E00D2D9A
:102590000E94E5541F3F4CF58F2D86506E2D41E271
:1025A00021C08F3174F411161CF4412F4F5002C01A
:1025B000412F415F8F2D86506E2D2D2D0E946A1266
:1025C00014C011161CF4412F4E5102C0412F425E1F
:1025D0008F2D86506E2D2D2D0E946A128F2D8E5EAE
:1025E0006E2D4DE62D2D0E946C541F910F91FF9082
:1025F000EF90DF900895FF920F931F93182F062FEF
:10260000F22E442321F4885E46E50E946C544091EA
:102610007705812F885E602F50E02F2D0E9426566F
:102620001F910F91FF900895DF92EF92FF920F9309
:102630001F93CF93DF93F82EE62EEA01122FD02EB0
:1026400057FD02C040E201C04DE28F2D6E2D212FBB
:102650000E946C5417FD02C081E101C089E1F80EAF
:102660008F2D6E2D4AE3212F0E946C54D7FF03C09B
:10267000D095C195DF4FCE016CE370E00E94A25E61
:10268000AB01212F2C5F8F2D6E2D02E00E948D5506
:1026900017FD02C022E101C028E1CE016CE370E029
:1026A0000E94A25EAC0184E0D80E822F8F0D6E2DA9
:1026B0002D2D02E00E948D55DF91CF911F910F913A
:1026C000FF90EF90DF900895FC0160E270E00E94BF
:1026D000A25E9B01CF0160E870E00E94A25E261B13
:1026E000370B2E0F3F1FCF0160E072E00E94A25E09
:1026F000260F371FC90108956F927F928F929F9284
:10270000AF92BF92CF92DF92EF92FF920F931F93FF
:102710003B017C0100E010E08824992464E670E02D
:1027200080E090E06619770988099909A801970166
:102730000E94635E5B016C0182E390E0A0E0B0E088
:10274000A80EB91ECA1EDB1EC801B7010E94635E37
:102750000E94635EBC0188279927A40193010E940F
:10276000635E24E096958795779567952A95D1F7CE
:10277000A60EB71EC81ED91EC601B50124E630E05C
:1027800040E050E00E94B55EC9011F910F91FF909B
:10279000EF90DF90CF90BF90AF909F908F907F9001
:1027A0006F900895FF920F931F939C01AB016115E9
:1027B000710531F1FF2497FF05C0FF24F394309594
:1027C00021953F4F57FF10C000E014E066277727A0
:1027D000641B750BC801821B930B0E947C1398012C
:1027E000281B390BC90104C0C901BA010E947C131E
:1027F000FF2011F49C0104C022273327281B390B2A
:10280000C9011F910F91FF900895282FEAEFFBE077
:1028100080E09491921731F03196992311F08F5FF7
:10282000F8CF80E00895883210F080E20895E82F14
:10283000F0E0E650F44F849108956A3079F0643600
:1028400099F0613011F080E012C064E60E94825E6F
:10285000892F6AE00E94825E892F09C064E60E9487
:10286000825E892F6AE001C064E60E94825E805D1C
:1028700008959C0140E0683008F041E070E0442396
:1028800071F0CB010897FC0163E0EE0FFF1F6A9522
:10289000E1F7E80FF91FDF01AE5FBA4F0AC0FB0195
:1028A000EE0FFF1FEE0FFF1FE60FF71FDF01A6520F
:1028B000BB4FFD01808120503C4F37FD0EC068E0CA
:1028C0002030360784F0442319F484E090E002C0FD
:1028D00088E090E0A80FB91F8C91992787FD90950B
:1028E000582F442733C0442331F0432FB90170706F
:1028F000660F771F04C0432F4695B9017170842F6E
:1029000090E0FD01E80FF91F8181992787FD9095DF
:102910009B0135952795829FA001839F500D929F23
:10292000500D11242081332727FD309580E092E05F
:10293000861B970B95958795BC01269FC001279F05
:10294000900D369F900D1124480F591FCA0169E15F
:1029500070E00E94A25ECB010895EF92FF921F9358
:10296000CF93DF9310910403110F185F9091070329
:1029700084E69802C0011124EC01C85ADD4F1A30D8
:1029800028F448EC5FEA4C1B5D0B0DC08853904F58
:10299000212F30E0829FA001839F500D929F500D08
:1029A0001124405C504EADE0B8E0E9E3F6E0612F61
:1029B00070E0660F771F660F771F6A0F7B1FEE248C
:1029C000FF24EC1AFD0A1FC02081318184E02030F1
:1029D00038071CF020E034E006C08CEF21303807C7
:1029E00014F420E03CEF205A364FC701821B930BB2
:1029F000480F591F1196DC93CE9313963C932E9358
:102A0000129714963296A617B707F1F6E12FEE0F3C
:102A1000AE2FB0E0AA0FBB1FA35FB74FCD93DC93DF
:102A2000EF5FAE2FB0E0AA0FBB1FA35FB74F4D9370
:102A30005C93EF5FF0E0EE0FFF1FE35FF74F118253
:102A40001082DF91CF911F91FF90EF900895A09198
:102A5000660AB091670AFD018193919313967C9366
:102A60006E9312973296F093670AE093660A089580
:102A7000882329F020E639E080E699E004C020EBC5
:102A800034E080EB94E0A091660AB091670AFD0102
:102A90008193919313963C932E9312973296F093D1
:102AA000670AE093660A08951F93182F82700E94A8
:102AB0003815812F81700E9438151F910895CF928B
:102AC000DF92FF920F931F93DF93CF9300D0CDB788
:102AD000DEB780910303813019F0823019F404C00D
:102AE00010E003C011E001C012E0209139063091DE
:102AF0003A0620503C4F220F331F80913B069091A5
:102B00003C0680509C4F880F991F892F232F37FD3B
:102B100020E087FD80E0022F20310CF00FE0F82E3E
:102B20002FE0281714F45FE0F52E2F2D332727FD13
:102B30003095802F992787FD9095099682179307E6
:102B400014F40F2D0950C02EDD24C7FCD094275F4C
:102B50003F4F2C153D051CF447EFF42EF00E80E797
:102B600097E190930E0880930D0880EB94E090938A
:102B7000100880930F0881E198E09093670A809392
:102B8000660A80E00E945415A091660AB091670A17
:102B900080E699E0FD018193919320EB34E0139658
:102BA0003C932E931297DF011296938382831396A0
:102BB0003C932E9312971496B093670AA093660ADB
:102BC000812F0E9454151195C6019595879595956D
:102BD00087958A830E9454153A81131B802F0E9487
:102BE0005415101B8F2D992787FD909595958795E6
:102BF0009595879589830E9454158981181B8F2D7F
:102C00000E945415812F8F190E94541580E00E9454
:102C10003815E091660AF091670A80E69AEE929381
:102C20008293329611921192F093670AE093660AAA
:102C30000F900F90CF91DF911F910F91FF90DF9038
:102C4000CF900895A091660AB091670A882341F059
:102C5000FD0180E293E08193919380E496E007C0C8
:102C6000FD0180E496E08193919380E293E01396D6
:102C70009C938E9312973296F093670AE093660ABC
:102C800008950F931F93082F10E0802F81700E94EA
:102C900022161F5F06951830C1F71F910F910895F6
:102CA0000F931F938DE098E09093670A8093660AD4
:102CB0008091680A91E089278093680A882309F443
:102CC00054C08091390690913A06885F9B4F34E05A
:102CD000969587953A95E1F78038910510F08FE742
:102CE00090E0182F20913B0630913C0637FD0FC035
:102CF000C901409625E0969587952A95E1F780349D
:102D0000910510F08FE390E0082F00640FC080E180
:102D100090E0821B930B05E0969587950A95E1F765
:102D20008034910510F08FE390E0082F812F0E94EE
:102D30004116802F0E9441160127802F90E09C01B0
:102D400014E0359527951A95E1F7B4E0880F991F9F
:102D5000BA95E1F7822B0E944116A091660AB091C4
:102D6000670AFD0180E197E230C080913D069091B5
:102D70003E0680509C4FA4E096958795AA95E1F772
:102D80008038910510F08FE790E0082F0068802FC1
:102D90000E9441168EE80E9441168EE8082710E036
:102DA000C801F4E095958795FA95E1F7E4E0000F06
:102DB000111FEA95E1F7802B0E944116A091660A47
:102DC000B091670AFD0180EB96E38193919380EACD
:102DD0009FE013969C938E9312973296F093670A16
:102DE000E093660AE091660AF091670A11921192E7
:102DF000F093670AE093660AED50F840E03FF10572
:102E00002CF08CEC97E060E00E94EB0F1F910F918B
:102E1000089580910303843018F4813038F403C09E
:102E2000843049F406C00E94AD1408950E945F15D5
:102E300008950E9450160895FF920F931F93CF9309
:102E4000DF93082F1091FF02812F992787FD90951E
:102E500097FF03C0909581959F4FF82E2EE128177C
:102E6000E4F411161CF4812F8E5102C0812F825E72
:102E700060E040E00E94810B282F882361F0809160
:102E8000750A882341F490E08091780A882309F438
:102E900091E09093780A2093750AC0917B0AD091B3
:102EA0007C0A2196D0937C0AC0937B0AE091790A30
:102EB000F0917A0AE00FF11DF0937A0AE093790A13
:102EC00080911B1090911C1020917D0A30917E0AF8
:102ED000821B930B8436910508F43FC12C593F4F58
:102EE00030937E0A20937D0ACF01BE010E948E5E40
:102EF000062F862F90E0AC014C9FC0014D9F900D96
:102F00005C9F900D1124E81BF90BF0937A0AE09373
:102F1000790A10927C0A10927B0A5FE05F151CF020
:102F20001092780A10C08EE18F156CF011161CF407
:102F3000812F8F5002C0812F815F60E040E00E94AE
:102F4000810B8093780A8091800790918107019688
:102F50009093810780938007609182077091830727
:102F60006F5F7F4F7093830760938207002349F060
:102F700080918607909187070196909387078093A9
:102F800086078091780A882349F080918407909180
:102F90008507019690938507809384070695409155
:102FA000880750918907400F511D5093890740931E
:102FB0008807E0910103F0910203F0938C07E093FE
:102FC0008B073091FF02832F992787FD909597FFFC
:102FD00003C0909581959F4F882319F410928A071A
:102FE00022C0813021F4CF01861B970B18C080319D
:102FF00070F480FF07C0CA0144E0969587954A9512
:10300000E1F709C0809186079091870704C08091FD
:10301000840790918507AF01481B590BCA01909313
:103020008C0780938B0780918A07813041F0813033
:1030300018F08230F1F40EC03323D9F017C080911C
:103040008B0790918C07181619069CF0309789F021
:1030500082E00DC080918B0790918C07855C9F4F1B
:103060001CF483E080938A07309719F481E0809301
:103070008A0720918B0730918C078091760A909176
:10308000770A8217930709F45AC080918A07813022
:1030900009F045C04091EE0242FF29C02E313105B2
:1030A00011F482E003C02431310519F48093B00596
:1030B00006C02A30310519F02430310524F48091FE
:1030C0006F0580936C0543FF12C02E31310549F026
:1030D0002431310531F02A30310519F02430310521
:1030E00034F482E390E090937A058093790541FF70
:1030F00026C080910003882321F0CF01821B930B0F
:1031000001C0C9016CE370E00E948E5E892BB9F4A6
:1031100080916F0580936C0543FF11C00AC0823017
:1031200071F48091700580936C058091EE0283FFAD
:1031300006C082E390E090937A05809379053093FE
:10314000770A2093760A80910003882331F0E21BEE
:10315000F30BF0938C07E0938B07DF91CF911F91D6
:103160000F91FF9008952091FF02822F992787FDEC
:10317000909597FF03C0909581959F4F982F82302F
:10318000A4F1803194F585959A309CF4E82FFF27BF
:10319000E7FDF0958091EC0290E0880F991F880F71
:1031A000991FE80FF91FE55FFE4F8081E82FF0E0DF
:1031B00004C0E82FFF27E7FDF0953197EE0FFF1FC2
:1031C000E85FF94F0190F081E02D27FF05C080E016
:1031D00094E08E1B9F0B03C0CF0180509C4FE6E014
:1031E00096958795EA95E1F702C080E090E00E940D
:1031F0001C17E091EC02F0E0EE0FFF1FEE0FFF1F37
:10320000E25FFE4FE081F0E0EE0FFF1FEA5FF94F53
:103210000190F081E02D8091EE0280FF05C080E0FA
:1032200094E08E1B9F0B03C0CF0180509C4F56E053
:10323000969587955A95E1F76091710A7091720A97
:103240006F5F7F4F7093720A6093710A40916F0AAB
:103250005091700A480F591F5093700A40936F0A9B
:1032600080911B1090911C102091730A3091740A68
:10327000821B930B885E934088F180911B10909184
:103280001C109093740A8093730A1092700A109223
:103290006F0A1092720A1092710A80910708909139
:1032A0000808019690930808809307082091050864
:1032B00030910608F901E357F84FCA010E948E5E6B
:1032C00060832F5F3F4F309306082093050828370F
:1032D000310520F0109206081092050808952F92EB
:1032E0003F924F925F926F927F928F929F92AF9296
:1032F000BF92CF92DF92EF92FF920F931F93DF93D3
:10330000CF93CDB7DEB761970FB6F894DEBF0FBE8F
:10331000CDBF998B888B262E80917805882309F460
:103320006CC080913806882319F08150809338064C
:103330008091ED02882309F460C080917F0990910B
:103340008009A0918109B09182090196A11DB11D4A
:1033500080937F0990938009A0938109B09382099B
:10336000EDEFF8E020E030E08191919160E870E0CD
:103370000E94A25E260F371F49E0E530F407A1F74F
:1033800080918309909184092817390761F030935F
:1033900084092093830910927F091092800910926A
:1033A000810910928209E0907F09F09080090091D4
:1033B0008109109182096091ED0270E080E090E057
:1033C00020E737E140E050E00E94635E6E157F0524
:1033D0008007910790F46FE370E080E090E0E622D0
:1033E000F722082319237AE0E716F10401051105F5
:1033F00021F48091700580936C0509EA602E02E04B
:10340000702E1AEA412E14E0512E3324EE24FF24AC
:1034100088249924DE2C8E2D0E94F8089C01D3016B
:103420008D919C911197281B390B121613062CF4C1
:103430005C96ED91FC915D9705C0D3011E96ED91D0
:10344000FC911F97E436F10514F4E4E6F0E0B901CD
:10345000882777FD8095982FBAE0660F771F881F21
:10346000991FBA95D1F79F01442737FD4095542FF6
:103470000E94D75E8901BCEF21303B071CF400E0BD
:103480001CEF06C0E4E020303E0714F000E014E03A
:10349000F401E85FF94F11830083C8010F964F973D
:1034A00020F5F4E0EF16F104BCF4E091EC02F0E05A
:1034B000EE0FFF1FEE0FFF1FEE0DFF1DE45FFE4F2F
:1034C000808190E0019721E030E002C0220F331F9D
:1034D0008A95E2F7C90108C081E090E00E2C02C095
:1034E000880F991F0A94E2F7382A33E03D1508F453
:1034F00006C1D2018C9160E040E00E94810B8823DC
:1035000011F4CC240DC0F201818160E040E00E9402
:10351000810B882319F0E2E0CE2E02C0CC24C394A4
:103520008091EC0290E08170907072E0A72EB12C37
:10353000A81AB90AAE14BF0449F580910503807F2B
:1035400029F100501C4FEC2DF0E0EE0FFF1FEE0FA5
:10355000FF1F9701220F331FC90143E0880F991FF6
:103560004A95E1F7821B930BE80FF91FE256FB4FD8
:103570006081772767FD7095C801959587950E94B2
:10358000D213DC01AA0FBB1FDD2427C0DD241016D7
:10359000110614F0DD24D3948C2D90E09701220FB6
:1035A000331FF901A3E0EE0FFF1FAA95E1F7E21B1D
:1035B000F30B880F991F880F991FE80FF91FEC5024
:1035C000FD4FED0DF11DE655FE4F6081772767FD3C
:1035D0007095C8010E94D213DC01EC2DF0E0EE0FD3
:1035E000FF1FEE0FFF1F9701220F331FC90143E09A
:1035F000880F991F4A95E1F7821B930BE80FF91F7B
:10360000EC50FD4FED0DF11DE455FE4F6081772725
:1036100067FD70956C597F4F882777FD8095982FAF
:103620009D01442737FD4095542F0E94635E24E698
:1036300030E040E050E00E94D75E8901AE14BF0444
:1036400009F04CC090910503892F807F09F453C580
:103650000050144050C58091EE02F501EC50FD4F32
:1036600080FF16C000501C4FB801882777FD809559
:10367000982F00501440EE51FE4F2081332727FD34
:103680003095432F532F2D5730404040504014C0A9
:1036900060E074E0601B710B882777FD8095982FA0
:1036A000EE51FE4F2081332727FD3095432F532FB6
:1036B00023583F4F4F4F5F4F0E94635E20E038E03A
:1036C00040E050E00E94D75EC901DA018030F8E0A6
:1036D0009F07F0E0AF07F0E0BF0739F4F701EA52C7
:1036E000FB4F8081992787FD9095880F991FE1E016
:1036F000F0E0EC0FFD1FE80DF91D91838083F401CC
:10370000E350F74F118300830894E11CF11C22E081
:1037100030E0620E731E820E931E4EE050E0440EA7
:10372000551E57E0E516F10409F074CE40910903E7
:103730004321242F30E08091850990E08227932750
:1037400082239323892B21F080916E0580936C0551
:103750004093850980E094E090930C0980930B09D5
:1037600090930E0980930D096FE079E040E050E0FE
:10377000FA01E356FA4FDA01A855BD4F80819181D5
:10378000D2962D913C91D397821B930BDB018D93A5
:103790009D93BD014E5F5F4F4031510549F7EFE307
:1037A000F9E0FA87E987AFE1B9E0808191818D93F3
:1037B0009D93349629E0EF37F207B9F780917805A9
:1037C000882311F00E94B31880E4EFE3F9E0DF01F1
:1037D0001D928A95E9F72220F9F0ADEFB8E0FE01DD
:1037E000319620E030E042E050E08091EC0290E041
:1037F00081709070BA01681B790B6217730729F00A
:1038000011961C921E92118210822F5F3F4F1296CA
:1038100032962430310549F71EE0A12E13E0B12E77
:1038200086E49AE09E878D87B6EC6B2EB9E07B2EFE
:10383000A6E8B9E0BC87AB871F8644245524342C06
:10384000252CF50180818150803108F052C383819D
:1038500061E040E00E94810BAD85BE859C9188238C
:1038600021F5592F1C92F5012181822F8850823039
:1038700008F024C3C201FC01A3E0EE0FFF1FAA95CC
:10388000E1F7880F991FE80FF91FE25FFC4F87816E
:103890008E70843009F412C3293019F0CC24DD2451
:1038A00045C0C12C6CEFD62E41C050E0992309F4DD
:1038B00051E081E0AD85BE858C93D5011196EC91E8
:1038C000F0E0EE0FFF1FE550F74FC080D180832D51
:1038D000922DFC0133E0EE0FFF1F3A95E1F7880FC0
:1038E000991FE80FF91FE25FFC4F8781807FF1F09D
:1038F000832D922DFC0103E0EE0FFF1F0A95E1F7E7
:10390000880F991FE80FF91FEB5EFC4F80818295AD
:103910008F7090E00197E1E0F0E002C0EE0FFF1F32
:103920008A95E2F7CF01FF85F82BFF87D50118961E
:103930004C914423E9F0842F47FD8D5F8595859553
:10394000282F332727FD3095BAE04B02C001112400
:10395000280F391F842F47FD815C86FB880F880B59
:1039600080F9992787FD9095281B390BC20ED31E2D
:10397000832D922DFC01B3E0EE0FFF1FBA95E1F706
:10398000880F991FE80FF91FE25FFC4F868188239B
:1039900091F4832D922DFC0173E0EE0FFF1F7A95B9
:1039A000E1F7880F991FE80FF91FE25FFC4F85814F
:1039B000882309F49AC1F301608171818281938126
:1039C000552389F420E031E040E050E00E94D75ECA
:1039D00050954095309521953F4F4F4F5F4F460191
:1039E000820E931E85C0832D922DFC0153E0EE0FB5
:1039F000FF1F5A95E1F7880F991FE80FF91FE25F43
:103A0000FC4F87818E70843049F5D501EC91F0E050
:103A1000EE0FFF1FE35EF64F60817181882777FD0F
:103A20008095982F20E034E640E050E00E94635EED
:103A3000F3016083718382839383D50112962C9165
:103A4000222361F0332727FD3095432F532F0E9407
:103A5000D75EF3012083318342835383D3016D9179
:103A60007D918D919C9120E031E040E050E00E94FA
:103A7000D75E50954095309521953F4F4F4F5F4F02
:103A80004601820E931E8114910491F197FE10C09D
:103A9000832D922DFC0123E0EE0FFF1F2A95E1F705
:103AA000880F991FE80FF91FED5EFC4F808110C051
:103AB000832D922DFC0113E0EE0FFF1F1A95E1F705
:103AC000880F991FE80FF91FED5EFC4F80818295EA
:103AD0008F7090E0FC0124E630E0E29FC001E39F9C
:103AE000900DF29F900D1124AB85BC858D939C9316
:103AF000EB85FC85208131812115310551F08091C4
:103B00007805882309F4E5C02150304031832083B3
:103B1000E0C08114910409F4E8C0832D922DFC01CA
:103B2000A3E0EE0FFF1FAA95E1F7880F991FE80F9A
:103B3000F91FE25FFC4F8681882309F4D6C080918B
:103B40007805882309F493C0F5012281222339F4F2
:103B5000E12CF12C60E2062F63E0162F17C033270B
:103B600027FD309537FF03C0309521953F4F332710
:103B700027FD3095432F532F60E070E080E293E003
:103B80000E94D75EC901DA017C018D011814190465
:103B90008CF5832D922DFC0153E0EE0FFF1F5A95FB
:103BA000E1F7880F991FE80FF91FEC5EFC4F808149
:103BB0008F7090E0009709F44CC044E650E0849F79
:103BC0009001859F300D949F300D1124442737FDBF
:103BD0004095542FC801B7010E94D75E79018A0130
:103BE000F30180819181A281B381E80EF91E0A1F41
:103BF0001B1F38C0832D922DFC0133E0EE0FFF1FF9
:103C00003A95E1F7880F991FE80FF91FEC5EFC4F1A
:103C1000808182958F7090E00097D9F044E650E063
:103C2000849F9001859F300D949F300D112444276F
:103C300037FD4095542FC801B7010E94D75ED301CC
:103C4000ED90FD900D911C91E21AF30A040B150BF7
:103C500009C0C601AA2797FDA095BA2FEE24F82E19
:103C6000092F1A2FF301E082F18202831383D3011B
:103C70006D917D918D919C9176010027F7FC0095C7
:103C8000102F1814190464F420E031E040E050E0F3
:103C90000E94D75EE216F3060407150764F019C008
:103CA00020E031E040E050E00E94D75E2E153F0555
:103CB0004007510774F4C601AA2797FDA095BA2FB3
:103CC000BA2FA92F982F8827F30180839183A2838D
:103CD000B383D3016D917D918D919C9120E031E072
:103CE00040E050E00E94D75E6901F50164816330D5
:103CF00071F1643028F4613051F06230A8F448C0AA
:103D0000653081F1653050F16630B1F52EC0D501D6
:103D100011968C91893029F4D7FC2AC0E0E0FEEF9F
:103D20000DC0D7FE35C02EC0D50111968C918930BB
:103D300051F41C141D044CF1E0E0F2E0CE0EDF1E45
:103D4000CC0CDD1C25C01C141D04E4F021C0D7FEE2
:103D50001FC0D094C194D108D3941AC01C141D0460
:103D6000A4F010C0D7FE0EC003C01C141D046CF0DC
:103D7000C12CECEFDE2E0CC06750C6010E94391436
:103D80006C0106C0CC24DD2403C0C12C74E0D72E06
:103D9000832D922DFC0163E0EE0FFF1F6A95E1F782
:103DA000880F991FE80FF91FE25FFC4F878180FDA4
:103DB00015C0D5011196EC91EE2381F0E53070F439
:103DC000F0E03197EE0FFF1F21E030E02C0F3D1F98
:103DD000E20FF31F80819181C80ED91EB60188279A
:103DE00077FD8095982FD50112962C91332727FDCA
:103DF0003095432F532F0E94635E6B017C01832D0E
:103E0000922DFC0133E0EE0FFF1F3A95E1F7880F8A
:103E1000991FE80FF91FEB5EFC4F80818695877034
:103E200090E08130910581F0D501EC91029799F5F0
:103E3000F0E0EE0FFF1FEE0FFF1FE55CF64FC082B4
:103E4000D182E282F3823AC0F5012081022F10E094
:103E5000000F111F000F111F055C164FC701B6019F
:103E600024E630E040E050E00E94D75ECA01B9018C
:103E7000D8012D913D914D915C910E94635E20E0AF
:103E800034E040E050E00E94D75EF80120833183A7
:103E90004283538313C0F0E0EE0FFF1FEE0FFF1FAE
:103EA000E55CF64F80819181A281B3818C0D9D1DCF
:103EB000AE1DBF1D80839183A283B3830894411CF0
:103EC000511C2AE030E0A20EB31E4D855E854F5F87
:103ED0005F4F5E874D8764E070E0660E771E8B85CE
:103EE0009C8502969C878B8790E24916510409F0C5
:103EF000A6CC2F8520FF0AC080911B1090911C102A
:103F0000882321F480916E0580936C0521FF10C0F9
:103F100080911B1090911C10803431F080911B1007
:103F200090911C10883421F480916E0580936C056B
:103F300022FF16C080911B1090911C10803861F0F8
:103F400080911B1090911C10883831F080911B10CB
:103F500090911C10803921F480916E0580936C053E
:103F60001EE4612E14E0712E44245524A985BA85DF
:103F7000CD90DD90ED90FC90C701B60124E630E0D5
:103F800040E050E00E94D75EE985FA8520833183C6
:103F900042835383F201EA5EF94FC9012083918382
:103FA000D30113962D913C91149711968C91BAE000
:103FB0008B028001112408511C4FF30180818B0278
:103FC0005001112448E15CEFA40EB51EC801502F2A
:103FD000492F201731071CF4C901522F492F852F73
:103FE000942F4C018A149B040CF44501C114D10494
:103FF000E104F10469F19401442737FD4095542F01
:104000001C141D041E041F0454F4B801882777FDF6
:104010008095982F621B730B840B950B0BC0C50109
:10402000AA2797FDA095BA2F281B390B4A0B5B0BCB
:10403000CA01B901A70196010E94635E20EA36E831
:1040400041E050E00E94D75EC901DA016C017D01B8
:10405000C4010E946413AA2797FDA095BA2FC80E29
:10406000D91EEA1EFB1EC8010E9464138C01C50103
:104070000E946413BC01C801AA2797FDA095BA2F1E
:10408000A70196018C159D05AE05BF0514F49C0192
:10409000AD017B010027F7FC0095102F2E153F0581
:1040A0004007510714F4A8019701D30112968C918F
:1040B000882339F050954095309521953F4F4F4FCB
:1040C0005F4FF894E889F989E40DF51D3183208369
:1040D0007894E985FA853496FA87E98722E030E01A
:1040E000420E531E45E050E0640E751EEF57F94036
:1040F00009F03CCF04C09F7009F0ADCAEFCA6196C9
:104100000FB6F894DEBF0FBECDBFCF91DF911F91E8
:104110000F91FF90EF90DF90CF90BF90AF909F9066
:104120008F907F906F905F904F903F902F90089569
:104130000F931F93CF93DF9386E291E0E9E5F6E0DA
:10414000DF019C011D9221503040E1F790917F07E3
:10415000CEE0D3E000E010E051E060E0488144238D
:1041600009F440E1041750F5202F712F352F2F5FF0
:10417000872F90E0FC01EE0FFF1FE80FF91FEE0FF5
:10418000FF1FDF01A75AB94F11962C9311978C91FD
:1041900081608C93E55AF94F30833F5F14966C939E
:1041A0007F5F241720F3802F8095042F952F9F5F2A
:1041B000980F180F140F940F592F515078817723AF
:1041C000D1F1812F90E09C01220F331F280F391F5E
:1041D000D901AA0FBB1FA75AB94F11964C9311973B
:1041E00015966C9315978C9182608C9313965C93C3
:1041F00013975F5F8A85F9013196781741F4EE0FC6
:10420000FF1FE75AF94F108214961C920AC0EE0F56
:10421000FF1FE75AF94F50835F5F6F5F14966C93EF
:104220006150952F6F5F2A96603219F450937F0783
:1042300004C01F5F93CF90937F07DF91CF911F91B1
:104240000F910895EF92FF920F931F93DF93CF93F7
:10425000CDB7DEB7A0970FB6F894DEBF0FBECDBFC7
:104260008E010F5F1F4FC80161E00E946F19E0E5EA
:10427000F4E0B801B9E3EB2EB6E0FB2E0181128128
:104280008081DB014D915C91D7012D913C91882378
:1042900021F0CA01821B930B03C0C901841B950B3B
:1042A000800F911FB3E0883E9B071CF088EE93E0DF
:1042B00006C02CEF8931920714F488E19CEF9283B9
:1042C000818335966E5F7F4F82E090E0E80EF91EA5
:1042D00094E0E03AF90791F68091EC0290E0817069
:1042E000907022E030E0281B390B16AA21303105EE
:1042F00011F01092D7042230310511F01092D80439
:104300001092D90482E00E94E84D80916E0580935E
:104310006C05A0960FB6F894DEBF0FBECDBFCF914F
:10432000DF911F910F91FF90EF9008956F927F9210
:104330008F929F92AF92BF92CF92DF92EF92FF92B5
:104340000F931F93DF93CF930F92CDB7DEB78138D2
:1043500009F493C08238A0F4813609F486C082360D
:1043600038F4823209F466C0833209F0B2C058C012
:104370008536C1F18038C9F0843609F0AAC01BC067
:10438000843841F1853838F4823809F466C08338BE
:1043900009F09FC05CC08E3B09F482C08F3B09F4DA
:1043A0008CC0853809F095C035C00E94DD080E9498
:1043B0002D1080E814C084E60E949658823009F0DF
:1043C00036C680916C0A90916D0A0097C1F42FC691
:1043D00081E019C087E49CE30E942D1084E80E94CC
:1043E000855877C085E60E949658823009F025C628
:1043F00080916A0A90916B0A009709F41EC60E9488
:104400002D1067C0815080936E0A80916D05809356
:104410006C055FC085E795E30E942D1085E8DFCF2E
:104420008091EA028F5F8093EA02833060F01092FD
:10443000EA0209C08091EA02882311F0815001C08C
:1044400082E08093EA0281E00E94E84DDECF83E3C0
:1044500098E20E94E70883E8C2CF0E94605E8EED7A
:1044600098E20E94E70882E8BACF80918A078230FA
:1044700081F583E080938A07C8CF10928A07109253
:104480008307109282071092870710928607109276
:104490008507109284071092890710928807B5CF7C
:1044A00080916E0A082F10E00E94DD08000F111F96
:1044B0000659154FD8018D939C9381E00E94855831
:1044C00083E00E94855882E00E94855881E08093B5
:1044D000690A8091080360E040E00E94810B882314
:1044E00031F08091690A882311F40E942221809181
:1044F000080360E040E00E94810B8093690A90917C
:1045000077058091D702981710F000E801C002E803
:1045100084EFC82E82E0D82E1AE0812F60E0F601E9
:1045200041916F0120E80E946C54155F1837A9F77C
:1045300086E060E141E0202F0E94FB1284E268E106
:1045400046E520E00E946C5420917705822F6AE0B6
:104550000E94825E9250923010F403E001C002E0AB
:10456000822F6AE00E94825E0E94825E91509230A9
:1045700010F01CE002C00F5F1BE0145F812F6CE1A4
:10458000402F0E945E56812F6DE1402F0E945E56A3
:1045900080918A07882399F0823011F000E801C0E9
:1045A00002E840918B0750918C0782E460E1202F54
:1045B0000E94141383E368E140E00E94A912409135
:1045C000060313E04102A00111244E5B574F84E221
:1045D00060E123E000E00E94E5544091050342952C
:1045E000407F45954595459545954102A00111248B
:1045F000455C574F89E360E123E00E94E554AA241B
:10460000BB240FE1D02EF501E05EFE4FE080F50106
:10461000EA52FB4FE081E7FDED5FE595E595E43E6D
:104620000CF4E4EE0E2FED310CF00CE1F501E45E3C
:10463000FE4F80818823F9F08E2D64E046E30E94CE
:1046400062568091EC0290E08A259B2580FD04C093
:10465000809105038F7061F48E2D81506EE143E0EF
:104660000E9462568E2D8F5F6EE143E00E9462567B
:104670009D2D901B14C08E2D8B516CE346E30E9440
:104680005E561E2D1150812F6BE343E00E945E5653
:10469000812F6DE343E00E945E56E00E9CE31E2DE9
:1046A0001350092F0350812F602F47E099830E94F8
:1046B000625699819D5F812F692F47E00E945E5667
:1046C0008E2D8D5F602F47E00E946256812F602FF4
:1046D00047E00E945E560894A11CB11CF4E0AF169E
:1046E000B10409F090CF8091EA02823009F4B0C0A1
:1046F00019E3A12E16E0B12ECC24DD24BBE16B2EF4
:10470000712CA9E18A2E912C2C2DD501ED90FC90D5
:104710008091EA02882321F0813009F08CC02BC0FF
:10472000C60183709070869D8001879D100D969DB7
:10473000100D11242695269530E02B5F3F4FF3E0B6
:10474000220F331FFA95E1F7C70160E270E00E9483
:10475000A25EFB01C70160E870E00E94A25E6E1BD2
:104760007F0BE60EF71E802F8F5D622FA70120E2E0
:104770000E94265660C0243010F01CE501C014E2EF
:10478000960123703070C901880F991F880F991FF7
:10479000820F931F082F0A5DC70160E470E00E943A
:1047A000A25E9B01C70162E070E00E94A25EFB0175
:1047B000E21BF30BC70160E071E00E94A25EE60F0E
:1047C000F71FF7FF03C0F095E195FF4FE89DC0018B
:1047D000E99D900DF89D900D1124845D9E4F892FC9
:1047E000990F990B8595E82EB9E1B81714F469E192
:1047F000E62E812F8951602F43E325E50E94305634
:10480000602F6250812F45E00E946256F501808141
:1048100091811816190614F41F5F01C01E190F5F4D
:10482000812F602F4E2D0E945E560250812F602FE7
:104830004E2D0E945E560894C11CD11C82E090E06F
:10484000A80EB91E98E0C916D10409F05DCFFBC3CC
:104850008FE161E247E10E9462568FE167E347E141
:104860000E945E5685E361E247E10E9462568FE155
:1048700061E247E10E945E568BE461E247E10E94FB
:1048800062568BE467E347E10E945E5681E661E28F
:1048900047E10E9462568BE461E247E10E945E5666
:1048A0008AE26BE243E00E94625689E26CE243E0F6
:1048B0000E945E5686E56BE243E00E94625685E503
:1048C0006CE243E00E945E568091080690910906D2
:1048D000880F991F9C0143E0220F331F4A95E1F78F
:1048E000820F931F60E078E00E94A25E462F8091C5
:1048F0000A0690910B06880F991F9C0103E0220F76
:10490000331F0A95E1F7820F931F60E078E00E9461
:10491000A25E709561957F4F665D842F885D45E04E
:104920000E9462568091080690910906880F991F8F
:104930009C01B3E0220F331FBA95E1F7820F931F5A
:1049400060E078E00E94A25E462F80910A06909176
:104950000B06880F991F9C01F3E0220F331FFA9575
:10496000E1F7820F931F60E078E00E94A25E7095ED
:1049700061957F4F625D842F885D45E00E945E56A1
:104980008091080690910906880F991F9C0173E099
:10499000220F331F7A95E1F7820F931F60E078E0D2
:1049A0000E94A25E462F80910A0690910B06880F06
:1049B000991F9C0153E0220F331F5A95E1F7820F94
:1049C000931F60E078E00E94A25E709561957F4F32
:1049D000665D842F845D45E00E94625680910806E2
:1049E00090910906880F991F9C0113E0220F331F35
:1049F0001A95E1F7820F931F60E078E00E94A25EB3
:104A0000462F80910A0690910B06880F991F9C01F2
:104A1000A3E0220F331FAA95E1F7820F931F60E0F6
:104A200078E00E94A25E709561957F4F665D842F4D
:104A3000885D45E00E945E5680910E0690910F06BB
:104A4000880F991F9C01E3E0220F331FEA95E1F7DD
:104A5000820F931F60E078E00E94A25E462F809153
:104A60000C0690910D06880F991F9C0163E0220FA0
:104A7000331F6A95E1F7820F931F60E078E00E9490
:104A8000A25E709561957F4F665D842F8C5A45E0DC
:104A90000E94625680910E0690910F06880F991F12
:104AA0009C0143E0220F331F4A95E1F7820F931FC9
:104AB00060E078E00E94A25E462F80910C06909103
:104AC0000D06880F991F9C0103E0220F331F0A95E2
:104AD000E1F7820F931F60E078E00E94A25E70957C
:104AE00061957F4F625D842F8C5A45E00E945E562F
:104AF00080910E0690910F06880F991F9C01B3E0DC
:104B0000220F331FBA95E1F7820F931F60E078E020
:104B10000E94A25E462F80910C0690910D06880F90
:104B2000991F9C01F3E0220F331FFA95E1F7820FE2
:104B3000931F60E078E00E94A25E709561957F4FC0
:104B4000665D842F885A45E00E94625680910E0669
:104B500090910F06880F991F9C0173E0220F331F5D
:104B60007A95E1F7820F931F60E078E00E94A25EE1
:104B7000462F80910C0690910D06880F991F9C017D
:104B800053E0220F331F5A95E1F7820F931F60E025
:104B900078E00E94A25E709561957F4F665D842FDC
:104BA0008C5A45E00E945E56609110067091110685
:104BB000882777FD8095982F26E130E040E050E08F
:104BC0000E94635E5B016C0180E098E5A0E0B0E0CC
:104BD000A80EB91ECA1EDB1EC601B50120E038E0D2
:104BE00040E050E00E94D75E79018A01109500955F
:104BF000F094E094E11CF11C011D111D97E3E90EF6
:104C0000C601B50120E038E040E050E00E94D75EE8
:104C10002F5F8AE36E2D422F0E946256609110062C
:104C200070911106882777FD8095982F26E130E056
:104C300040E050E00E94635E5B016C0180E098E51B
:104C4000A0E0B0E0A80EB91ECA1EDB1EC601B50169
:104C500020E038E040E050E00E94D75E79018A0110
:104C600010950095F094E094E11CF11C011D111DBC
:104C700097E3E90EC601B50120E038E040E050E0DE
:104C80000E94D75E2F5F8BE36E2D422F0E946256EB
:104C90006091100670911106882777FD8095982FF6
:104CA00026E130E040E050E00E94635E5B016C0171
:104CB00080E098E5A0E0B0E0A80EB91ECA1EDB1E99
:104CC000C601B50120E038E040E050E00E94D75E28
:104CD00079018A0110950095F094E094E11CF11C93
:104CE000011D111D97E3E90EC601B50120E038E072
:104CF00040E050E00E94D75E2F5F8CE36E2D422F84
:104D00000E9462566091120670911306882777FD03
:104D10008095982F26E130E040E050E00E94635EED
:104D20005B016C0180E098E5A0E0B0E0A80EB91E40
:104D3000CA1EDB1EC601B50120E038E040E050E0AD
:104D40000E94D75E79018A0110950095F094E09455
:104D5000E11CF11C011D111D97E3E90EC601B5010F
:104D600020E038E040E050E00E94D75E2F5F8FE304
:104D70006E2D422F0E9462566091120670911306AA
:104D8000882777FD8095982F26E130E040E050E0BD
:104D90000E94635E5B016C0180E098E5A0E0B0E0FA
:104DA000A80EB91ECA1EDB1EC601B50120E038E000
:104DB00040E050E00E94D75E79018A01109500958D
:104DC000F094E094E11CF11C011D111D97E3E90E24
:104DD000C601B50120E038E040E050E00E94D75E17
:104DE0002F5F80E46E2D422F0E9462566091120662
:104DF00070911306882777FD8095982F26E130E083
:104E000040E050E00E94635E5B016C0180E098E549
:104E1000A0E0B0E0A80EB91ECA1EDB1EC601B50197
:104E200020E038E040E050E00E94D75E79018A013E
:104E300010950095F094E094E11CF11C011D111DEA
:104E400097E3E90EC601B50120E038E040E050E00C
:104E50000E94D75E2F5F81E46E2D422F0E94625622
:104E60006091140670911506882777FD8095982F1C
:104E700026E130E040E050E00E94635E5B016C019F
:104E800080E098E5A0E0B0E0A80EB91ECA1EDB1EC7
:104E9000C601B50120E038E040E050E00E94D75E56
:104EA00079018A0110950095F094E094E11CF11CC1
:104EB000011D111D97E3E90EC601B50120E038E0A0
:104EC00040E050E00E94D75E2F5F84E46E2D422FB9
:104ED0000E9462566091140670911506882777FD2E
:104EE0008095982F26E130E040E050E00E94635E1C
:104EF0005B016C0180E098E5A0E0B0E0A80EB91E6F
:104F0000CA1EDB1EC601B50120E038E040E050E0DB
:104F10000E94D75E79018A0110950095F094E09483
:104F2000E11CF11C011D111D97E3E90EC601B5013D
:104F300020E038E040E050E00E94D75E2F5F85E43B
:104F40006E2D422F0E9462566091140670911506D4
:104F5000882777FD8095982F26E130E040E050E0EB
:104F60000E94635E5B016C0180E098E5A0E0B0E028
:104F7000A80EB91ECA1EDB1EC601B50120E038E02E
:104F800040E050E00E94D75E79018A0110950095BB
:104F9000F094E094E11CF11C011D111D97E3E90E52
:104FA000C601B50120E038E040E050E00E94D75E45
:104FB0002F5F86E46E2D422F0E9462562DE0C22E96
:104FC00028E0D22E11E090E2E92E812F60E040E04F
:104FD0000E94810B082F8AE06E2DA60123E00E941B
:104FE000E5541F5FA8E0EA0EE3E0F0E0CE0EDF1E1E
:104FF000143059F781EFC82E87E0D82E17E000E370
:10500000E02E812F60E040E00E94810B082F85E6B2
:105010006E2DA60123E00E94E5541F5FF8EFEF0E0E
:1050200083E090E0C80ED91E1A3059F70CC0809169
:105030006E0A882309F4CCC94CCA80916E0A882371
:1050400009F0E0C946CA0F90CF91DF911F910F91EF
:10505000FF90EF90DF90CF90BF90AF909F908F9098
:105060007F906F9008950F931F93CF93DF93082F36
:1050700080E060E046E658E021E00E9417550136E6
:1050800058F0033628F0033639F486E899E202C076
:1050900086E991E20E94E70886E068E042E658E08F
:1050A0000E944555409182075091830788E168E04E
:1050B00020E000E00E94141386E668E04EE558E028
:1050C0000E94455540918407509185078CE368E024
:1050D00020E00E94141386E060E14AE558E00E9457
:1050E0004555409186075091870788E160E120E0AF
:1050F0000E94141386E660E146E558E00E9445559B
:10510000409188075091890734E0569547953A9524
:10511000E1F78CE360E120E00E94141386E660E092
:1051200042E558E00E944555409180075091810723
:105130008CE360E020E00E941413809107089091B6
:1051400008088937910518F4C0E0D0E004C0C09188
:105150000508D091060882E06CE34EE70E945E5697
:1051600085E06CE143E20E9462560BE0802F6BE326
:1051700043E00E9462560A5F0338C1F706E01CE371
:10518000FE01E357F84F4081612F641B802F0E947E
:1051900062562196C837D10510F0C0E0D0E080916A
:1051A000050890910608C817D90719F00F5F0E3748
:1051B00039F7DF91CF911F910F9108950F931F93AE
:1051C000CF93DF93182F80E060E04BE658E021E0BA
:1051D0000E941755113631F40E945D5E86E991E216
:1051E0000E94E70880912810882309F477C08091F5
:1051F0001F108D3711F000E007C08091201090E261
:1052000089278093201001E0E02FF0E0E15EFF4E5F
:105210001081812F64E60E941D1480938902812FE2
:105220006AE00E941D1480938A02812F61E00E942F
:105230001D1480938B020F5FE02FF0E0E15EFF4EC4
:1052400080818D3749F40F5FE02FF0E0E15EFF4E83
:10525000808190E289278083E02FF0E0E15EFF4EBD
:105260001081812F64E60E941D1480939102812F8A
:105270006AE00E941D1480939202812F61E00E94D7
:105280001D1480939302202F2F5FE22FF0E0E15E48
:10529000FF4E80818D3749F42F5FE22FF0E0E15E11
:1052A000FF4E808190E289278083E22FF0E0E15E6B
:1052B000FF4E1081812F64E60E941D1480939E0290
:1052C000812F6AE00E941D1480939F02812F61E06C
:1052D0000E941D148093A00210922810C6E8D2E00C
:1052E0001CE0812F68E1488120E10E946C54812FED
:1052F00060E2488920E10E946C5421961A5F1C36B6
:1053000081F7DF91CF911F910F9108951F93182F6F
:1053100080E060E049EB58E021E00E94175512362A
:10532000E9F0133628F4103631F01136F1F419C0D3
:105330001336D9F416C08FEF97E090930B0180934A
:105340000A0110920A081092090810920C08109293
:105350000B0880916D0580936C0507C083E398E28C
:1053600002C086E991E20E94E70880E068E047EA2F
:1053700058E00E9445554091090850910A085695F9
:10538000479584E568E00E942C5680E060E145E99D
:1053900058E00E94455540910A0150910B015695E5
:1053A000479584E560E10E942C5680E068E143E87F
:1053B00058E00E9445554091090850910A08809193
:1053C0000A0190910B01481B590B5695479584E5AE
:1053D00068E10E942C5680E060E241E758E00E94BC
:1053E000455520910B0830910C0884E690E0289FE9
:1053F000A001299F500D389F500D112464E056954F
:1054000047956A95E1F784E560E220E40E9426561C
:105410001F9108950F93042F40EF5FEF20E130E0DC
:105420000E94DC0C0F9108950F93042F4CE95FEF5D
:1054300024E630E00E94DC0C0F9108956F927F9279
:105440008F929F92AF92BF92CF92DF92EF92FF9294
:105450000F931F93DF93CF93CDB7DEB7682E742ED3
:10546000F22E302F8A2D222329F0442309F4FFC085
:1054700022E0FEC020E0833671F58C2D90E0880F8D
:10548000991FFC01B3E0EE0FFF1FBA95E1F7E81B8F
:10549000F90BE655FB4F832F6E2D40810E946A1257
:1054A000FF2009F4EAC0772039F4809175059091C6
:1054B0007605892B09F4E1C08C2D90E0880F991FA7
:1054C000BC01F3E0660F771FFA95E1F7681B790BD3
:1054D00066557B4F2FC0823691F58C2D90E0880F5A
:1054E000991FFC0173E0EE0FFF1F7A95E1F7E81BAF
:1054F000F90BE555FB4F832F6E2D40810E946A12F8
:10550000FF2009F4BAC0772039F480917505909195
:105510007605892B09F4B1C08C2D90E0880F991F76
:10552000BC0153E0660F771F5A95E1F7681B790BB2
:1055300065557B4F862D42E00E940A2A9EC0A82E08
:10554000BB248989082F10E0882009F047C08C2DE2
:1055500090E0880F991FFC01B3E0EE0FFF1FBA9592
:10556000E1F7E81BF90BC501880F991F880F991FF8
:10557000E80FF91FE00FF11FE256FB4F408155275E
:1055800047FD5095832F6E2D0E942656FF2009F46B
:1055900074C0772039F48091750590917605892B38
:1055A00009F46BC08C2D90E0880F991F9C0173E06B
:1055B000220F331F7A95E1F7281B390BAA0CBB1C6D
:1055C000AA0CBB1C2A0D3B1D020F131F02561B4FBA
:1055D000862DB80142E00E94142A4FC0DD24992490
:1055E000F501EE0FFF1FC60143E0880F991F4A9592
:1055F000E1F78C199D09E80FF91FE80DF91DEE0F71
:10560000FF1FE00FF11FE256FB4F4081552747FD7A
:1056100050954C595F4F832F6E2D0E942656FF20C8
:1056200061F1772031F48091750590917605892B91
:1056300021F1AA0CBB1CC601B3E0880F991FBA95D3
:10564000E1F78C199D09A80EB91EA80CB91CAA0C6B
:10565000BB1C0A0D1B1D02561B4F862DB8014CE9C1
:105660005FEF20E030E002E00E94DC0C06C021E0A9
:10567000662309F400CF21E0FECECF91DF911F9188
:105680000F91FF90EF90DF90CF90BF90AF909F90E1
:105690008F907F906F9008950F931F93182F80E045
:1056A00068E04DEE5BE020E00E94175581E060E18C
:1056B00044EF52E02AE000E10E94E55482E460E118
:1056C0004FE320E00E946C5482E168E242EE5BE02E
:1056D0000E94455582E160E343ED5BE00E94455541
:1056E000113661F11F3B19F0103659F505C0809154
:1056F000700580936C0525C08091D5028F5F0E9454
:105700005B530091D5020AC00150013108F00FE04F
:105710008091D502081711F400E006C0802F8F5F3A
:105720000E94FB4F882381F30093D502802F0E94B3
:105730009A4F87E49CE30E94E70803C080E00E9440
:105740004D101F910F9108956F927F928F929F92AB
:10575000AF92CF92DF92EF92FF920F931F93CF936E
:10576000DF93EC01162F4901D02E370121153105A9
:1057700009F443C0FF248881882311F4FF24F394A3
:10578000042F0150FF2021F1143681F0153601F568
:105790000023F1F081E090E0801B9109880F991FB0
:1057A000F401E81BF90B8591949110C0202F30E093
:1057B0008D2D90E001972817390754F4F90131969F
:1057C000EE0FFF1FE80DF91D859194910E94E708E7
:1057D00080E3D80E8AE760E04D2D2F2D0E946C5497
:1057E00084E760E04FE22F2D0E946C540F5C8EE640
:1057F00060E0402F2F2D0E946C546114710411F44D
:1058000090E009C088818C1508F4C82EF301EC0DD6
:10581000F11D94919150123609F462C0133688F448
:10582000133409F468C0143430F41132F9F012342E
:1058300009F072C052C0143479F1153409F06CC00B
:105840003BC01536E1F1163638F4133609F456C06C
:10585000143609F061C023C0113829F01F3B09F04C
:105860005BC0188259C0109237060CC08091370671
:10587000882319F0109237064FC08881882311F0D1
:10588000892821F480E00E944D1046C080916D056A
:1058900080936C0519822DC089818917E9F16728E9
:1058A000D9F1809137068823B9F58981891710F4D9
:1058B0008F5F0FC019822DC08981882369F1672805
:1058C00059F180913706882339F58981882319F0A9
:1058D000815089831EC099831CC088818A15E1F09C
:1058E000809137068823C1F488818A1510F48F5F70
:1058F0000DC018820EC08881882371F08091370610
:10590000882351F48881882319F08150888301C04D
:10591000A88280E680931D10DF91CF911F910F9197
:10592000FF90EF90DF90CF90AF909F908F907F90FF
:105930006F900895AF92CF92DF92EF92FF920F9304
:105940001F93CF93DF93D82E80E060E047E25AE0C8
:1059500021E00E94175583E89AE06D2D42E020EC8B
:1059600037E006E07DE2E72E7AE0F72ECC24C39400
:1059700052E0A52E0E94A42BE090830A8FEBD8164C
:1059800011F410923706FF2481E0E81611F4FF2489
:10599000F39480E060E143E25AE023E00F2D0E949F
:1059A000E55410E000E3C0E0D0E0143018F4202FFC
:1059B00060E103C0202F205668E1FE01E356FA4F54
:1059C000DE01A855BD4F40815181D2968D919C91A9
:1059D000D397481B590B440F551F822F20E20E947A
:1059E00026561F5F085E22961830F9F6FF2099F0C0
:1059F00080E6D81681F4AAEDB2E0EDE9F5E080E1A9
:105A000001900D928150E1F781E00E94E84D809174
:105A10006D0580936C0580E068E248E15AE02AE079
:105A200000E00E94E5544091F20282E0E81611F095
:105A300020E201C021E2552747FD5095465F5F4FA8
:105A40008EE468E20E94265682E0E81651F48D2D1D
:105A500062EF72E046EF5FEF28E230E001E00E9483
:105A6000DC0CDF91CF911F910F91FF90EF90DF90B1
:105A7000CF90AF9008958F929F92AF92BF92CF92A6
:105A8000DF92EF92FF920F931F93CF93DF93D82E65
:105A900080E060E04FEB5BE021E00E941755409111
:105AA000D50250E04F5F5F4F845F60E025E002E089
:105AB0000E948D5586ED9AE06D2D42E020EB37E097
:105AC00008E0E6ECEE2EEBE0FE2E7CE0C72E5CE07C
:105AD000A52E0E94A42BA090D60A9091D70AB92E89
