:100000000C943A0D0C94680D0C94680D0C94680DCA
:100010000C94680D0C94680D0C94680D0C94680D8C
:100020000C94680D0C94680D0C94680D0C94680D7C
:100030000C945F110C94680D0C94680D0C94D41101
:100040000C9478100C94680D0C94E36F0C947B6EF8
:100050000C94680D0C94680D0C94680D0C94680D4C
:100060000C94680D0C9497100C94680D0C94680D0A
:100070000C94680D0C94680D0C94680D0C94680D2C
:100080000C94680D0C94680D0C94680D8040000071
:1000900000000000000000000000000000F0080464
:1000A0000484444444444444444444444444444410
:1000B00044C4040488700000000000000000000038
:1000C0000000000000000000000000000000000030
:1000D0000000000000000000000000000000000020
:1000E0000000000000000000000000000000000010
:1000F0000000000000000000000000000000000000
:1001000000000000000000000000000000000000EF
:1001100000000000000080808080808080BF8080A0
:1001200080BF808080800000304848484848484868
:100130004888090908F00000000101017F01010160
:100140000100007F49494949414140007F4040400A
:10015000404040007F49494949414140007F0106F4
:100160000C10100C06017F00007F494949494141AC
:10017000400101017F0101010100007F0909090916
:1001800019294E000103060C780C0603010000003B
:1001900000F8FEFFFFFF0F0707070707073747872E
:1001A00087879797075FDFDFDFDED880101010109A
:1001B000100F0080403F80C0E0E0E06020000000C1
:1001C000000000000000000000000000000000002F
:1001D000000000000000000000000060D09090903F
:1001E0009090000000F09090909010100000F0901F
:1001F0009090909090E00000F0000000F0909090BF
:100200009010100060D0909090909000000000003E
:10021000000107070F0F0F0E1E1E1E1E1E1E0E0EC4
:100220000E0E0E8ECEEEFCF973270F1F3F7EFCF9EB
:10023000F1F1F9FC3E1F0F07030100000000000070
:1002400000000000000000000000000000000000AE
:10025000000000000000000000000002060404048A
:100260000404030000070404040404040400070059
:10027000000000010204000007000000070404045D
:10028000040404040206040404040403000000003F
:100290000000000000040C1C1C1C1C1C1E1E1E0E5A
:1002A0000E0F070703030180C0E0F0F87C3E1F0F2C
:1002B00007070F1F3F7EFCF8F0E0C0800000000041
:1002C00000000000000000007E4A4A4A4A4A7C00C2
:1002D00002060C7008040202000000001C224141CA
:1002E0004949493A1800007E12121212324C00009D
:1002F0003E40404040403E00020C186060300C021E
:10030000007E00007E020C1830407E0000000000DD
:1003100000E0101010E00000C0804080000080402D
:1003200040800000CC8E4F8F0F070301000000605B
:10033000909010000000804143870F0FCF0E0CC03B
:100340000000C08040C0000080404040000080406D
:1003500040800000000000000000000000000000DD
:10036000000000000000000000000000000000008D
:10037000000000000000000000000000000000007D
:10038000000000000000000000000000000000006D
:1003900000070808080700003F04080700000709D5
:1003A000C94940408F00000F000000000000000815
:1003B0000808090600000708080700000708040FDE
:1003C00000000F00000000400708080800000709AF
:1003D0000909000000C8000008C000080000000073
:1003E000000000000000000000000000000000000D
:1003F0000000C0000000C00000000000000000007D
:1004000000000000000000C000000000000000002C
:10041000000000000000200000200000200000007C
:100420003F0404040300001E21211E0007380E0EA5
:100430003807001E25252600003F020103000000AA
:10044000000000000001013F00003F02013E0000EB
:10045000000000000000033C030000001E21211EDC
:1004600000001F20103F003F0201030000000000B9
:1004700000003F0202023F00001925151E20003F28
:1004800002013E001E21123F0000222529110052C8
:10049000554420454C45205448522041494C205257
:1004A00055442054485220454C452041494C204158
:1004B000494C20454C452054485220525544204137
:1004C000494C2054485220454C4520525544200068
:1004D00000000000000001081E640101081E640104
:1004E000010F32960A0A1E32960301020004050625
:1004F00007707265737320616E79204B65790041D6
:100500004C455254004D45535341474500506C658E
:10051000617365207265736574207468656D00533E
:1005200077697463686573206E6F74206F66660008
:10053000416C61726D732044697361626C65640023
:100540005265736574207468726F74746C650054BE
:1005500068726F74746C65206E6F742069646C656A
:1005600000507265737320616E79206B6579207419
:100570006F20736B697000414C45525400454550E3
:10058000524F4D206C6F77206D656D00544852526C
:100590005544454C45494430494431494432414928
:1005A0004C47454154524E535731535732535733AA
:1005B0005357345357355357365357375357385388
:1005C0005739535741535742535743005F2D2E2CF1
:1005D00000564552533A2056312E322D67727576A9
:1005E000696E00444154453A20323031312D31306A
:1005F0002D30340054494D453A2030393A30393A9B
:100600003438002053564E3A206672736B792D723F
:10061000313036390020424C443A20313000707578
:100620006C736520746162206F766572666C6F779B
:10063000006D656E75537461636B206F76657266CD
:100640006C6F77006D656E75537461636B20756EAA
:10065000646572666C6F77002D2D2D494E56004FE4
:1006600046464F4E20003849E244F841D93AD43A40
:1006700034327431CC2F0D2F632E6F2AE629434C70
:10068000454152204D49584553205B4D454E555DDF
:100690000054454D504C41544553003C3E002D2DD7
:1006A0002D59656C4F726752656400416C61726DC3
:1006B00000746F00472E4261720063616C004D61EF
:1006C000785600566F6C74737261772020005479ED
:1006D0007065004120206368616E6E656C00544552
:1006E0004C454D455452590000FF0000010202FFE5
:1006F0000100010253414645545920535749544380
:100700004845530000012D2D2D2D20202020202094
:1007100020202020547261696E65722020202020E4
:100720002020547261696E65722052554420202049
:10073000547261696E657220454C452020205472C8
:1007400061696E657220544852202020547261699C
:100750006E65722041494C202020496E7374616E91
:1007600074205472696D20200046554E4354494F01
:100770004E2053574954434845530000012D2D2D19
:100780002D202020763E6F66732020763C6F6673A6
:1007900020207C767C3E6F66737C767C3C6F667333
:1007A000414E44202020204F522020202020584F0E
:1007B000522020202076313D3D7632207631213D79
:1007C00076322076313E7632202076313C763220E9
:1007D0002076313E3D76322076313C3D7632200027
:1007E000535700435553544F4D2053574954434892
:1007F00045530000024356004355525645530043AB
:100800004F5059205452494D205B4D454E555D0087
:100810002D2D2D494E56004C494D4954530000038F
:100820000303030303030303030303030303032F6C
:100830003332002F3134004D49584552004558504D
:100840004F2F4452002D2D2D783E30783C307C784F
:100850007C663E30663C307C667C633120633220AF
:10086000633320633420633520633620633720638D
:100870003820633920633130633131633132633181
:1008800033633134633135633136002D2D2D783E9D
:1008900030783C307C787C663E30663C307C667CD0
:1008A0006331206332206333206334206335206357
:1008B0003620633720633820633920633130633159
:1008C000316331326331336331346331356331360F
:1008D000002B3D2A3D3A3D0044454C455445204DB2
:1008E0004958205B4D454E555D00536C6F77202075
:1008F000557000536C6F772020446F776E0044650D
:100900006C61792055700044656C617920446F7783
:100910006E0041646420202020204D756C74697045
:100920006C795265706C61636520004D756C7470F4
:1009300078004F4646005761726E696E6700462E1A
:10094000506861736500537769746368002D2D2DBD
:10095000783E30783C307C787C663E30663C307C3B
:10096000667C633120633220633320633420633537
:1009700020633620633720633820633920633130A9
:100980006331316331326331336331346331356321
:10099000313600437572766573004F4E204F4646E0
:1009A000005472696D004F6666736574005765691F
:1009B00067687400536F757263650045444954203D
:1009C0004D49582000494E53455254204D49582016
:1009D000004578706F2020576569676874506861BA
:1009E0007365205377746368204375727665204D74
:1009F0006F64652020202020202020004558504F83
:100A00002F44520044656C657465002D2D2D506F88
:100A1000734E6567002D2D2D783E30783C307C7804
:100A20007C663E30663C307C667C633120633220DD
:100A300063332063342063352063362063372063BB
:100A400038206339206331306331316331326331AF
:100A500033633134633135633136004E6F20667253
:100A60006565206D6978657221004E6F206672653C
:100A700065206578706F21005052455345540045FC
:100A80004449542D3E00435552564500094368657C
:100A9000636B20202020205472696D7300286465E8
:100AA0006661756C742900464C494748542050488B
:100AB000415345530046616465204F75740046619B
:100AC000646520496E005472696D730053776974D0
:100AD0006368004E616D65004544495420464C49A9
:100AE0004748542050484153450006000344454CB4
:100AF000455445204D4F44454C0044454C455445D4
:100B0000204D4F44454C2020205B4D454E555D0007
:100B1000504F534E45470053686966742053656CC7
:100B200000755365630034434820364348203843FA
:100B3000482031304348313243483134434831361C
:100B400043480050504D20202053494C565F41539C
:100B5000494C565F4253494C565F435452414330CF
:100B6000390050726F746F00524554413132330076
:100B7000426565702043747200452E205472696D81
:100B80007300452E204C696D697473005472696D51
:100B900020537700457870202020457846696E659F
:100BA00046696E6520204D656469756D436F61729D
:100BB0007365005472696D20496E6300542D457849
:100BC000706F00542D5472696D00436F756E742000
:100BD000446F776E436F756E7420557020200054FB
:100BE000696D6572200054726967676572005469A7
:100BF0006D6572004E616D6500534554555000009F
:100C00000901000000000000000006025B4D454E97
:100C1000555D202020205B455849545D005B4558B8
:100C200049545D0066726565004D4F44454C53451F
:100C30004C0012081200081C0808081C08000008D4
:100C40002200490022080000000000227F2200004C
:100C50000008220049002208000008220049002262
:100C600008000000227F2200000000000822004946
:100C70000022080000081C0808081C08007F4E130A
:100C80004DBA4B764CFD4B7E4A3C202020203E0046
:100C90005365744D6964205365745370616E446F7D
:100CA0006E652020200043414C4942524154494F37
:100CB0004E004131413241334134413541364137B3
:100CC000413800414E41005472696D2D202B0020A7
:100CD0004D656E75204578697420446F776E2020CD
:100CE0002055705269676874204C656674004449E9
:100CF000414700454550524F4D20760056455253CE
:100D0000494F4E0043616C004D756C7469706C699D
:100D10006572006368316368326368336368340006
:100D20006F6666202B3D203A3D006D6F6465202084
:100D300020252073726300536C6176650054524124
:100D4000494E4552000002020202004D6F646500E8
:100D50005278204368616E6E656C204F7264004E5D
:100D60004F204441544120416C61726D00416C61DF
:100D7000726D205761726E696E67004D656D6F729E
:100D800079205761726E696E6700446F776E4F46C7
:100D9000462055702020005377697463682057619E
:100DA000726E696E67005468726F74746C65205758
:100DB00061726E696E670053706C61736820736353
:100DC0007265656E004F4646004C69676874206F17
:100DD0006666206166746572004C6967687420738A
:100DE000776974636800466C617368206F6E206277
:100DF000656570004265657020636F756E74646F21
:100E0000776E004D696E757465206265657000547B
:100E100068726F74746C65207265766572736500B4
:100E200053494E474F534D5046494C540046696C08
:100E30007465722041444300496E61637469766948
:100E4000747920616C61726D0042617474657279AD
:100E5000207761726E696E6700436F6E74726173A2
:100E6000740051756965744E6F4B65794E6F726D84
:100E7000204C6F6E6720784C6F6E6700426565701E
:100E8000657200524144494F205345545550004E1D
:100E90004F20444154410054783D0052783D004178
:100EA000203D007A3D00793D00783D004163636557
:100EB0006C00416C743A00566F6C74733A0046755E
:100EC000656C3A0052504D3A0040430054656D70D5
:100ED000323A0040430054656D70313A00416C7401
:100EE0003A005370643A004864673A0054783D0011
:100EF00052783D0041203D00204D41494E20204781
:100F000050534F54484552005B4D454E555D20743B
:100F10006F20726573657400467265652053746155
:100F2000636B206D696E2020202062007431306D6B
:100F30007320202020202020202020757300746D35
:100F400061696E206D61782020202020206D730063
:100F5000746D7231204A6974746572202020207586
:100F60007300746D72314C6174206D696E202020A5
:100F700020757300746D72314C6174206D6178203E
:100F8000202020757300535441543200544F5400B4
:100F90005354250053544B0054535700544D4500AF
:100FA0005354415400454550524F4D206F76657261
:100FB000666C6F7700454550524F4D206F766572D5
:100FC000666C6F770067656E77726974652065720D
:100FD000726F7200454550524F4D20466F726D61E1
:100FE0007474696E670042616420454570726F6D6C
:100FF000204461746100454550524F4D20436F6E4F
:1010000076657274696E6700454570726F6D204435
:10101000617461204572397800454570726F6D20AA
:1010200044617461207633005008500000000000D5
:101030000000006F000007000700147F147F1424D5
:101040002A7F2A122313086462364955225000056C
:10105000030000001C2241000041221C0014083E35
:10106000081408083E080800503000000808080866
:101070000800606000002010080402003E41413E6C
:101080000000427F40006251494600414949360014
:101090001814127F0027454539003E4949320001A6
:1010A0007905030036494936000649291E000036F5
:1010B000360000005636000008142241141414149F
:1010C000144122140800020151090606090906000C
:1010D0007E0909097E7F494949363E414141227FC7
:1010E0004141221C7F494949417F090909013E418B
:1010F00049497A7F0808087F00417F41002040412C
:101100003F017F081422417F404040407F020C0293
:101110007F7F0408107F3E4141413E7F0909090657
:101120003E4151215E7F091929462649494932012C
:10113000017F01013F4040403F1F2040201F3F40B2
:1011400030403F6314081463070870080761514971
:101150004543007F41410002040810200041417FC7
:10116000000402010204404040404000010204002B
:1011700020545454787F48444438384444442038F8
:101180004444487F3854545418087E0901020C52D4
:1011900052523E7F0804047800447D4000204044C1
:1011A0003D007F1028440000417F40007C0418046B
:1011B000787C0804047838444444387C14141408B7
:1011C000081414187C7C080404084854545420045F
:1011D0003F4440203C4040207C1C2040201C3C40A0
:1011E00020403C44281028440C5050503C44645447
:1011F0004C44000836410000007F000000413608E2
:10120000000808221C08081C220808A060800000B2
:10121000000000000000000000000000FEFE0000D2
:10122000000000003E7E00007E3E00006060FEFE8A
:101230006060FEFE606060F09898FEFE9898181856
:101240000C1E1E0C80C0E070381878FC8EC6E67646
:101250003C180000000066763E1E00000000000002
:10126000E0F0381C0E0600000000060E1C38F0E00E
:1012700000006060C080F8F880C06060808080807E
:10128000F8F880808080000000000000000000006E
:10129000808080808080808080800000000000004E
:1012A000000000000000000080C0E070381800005E
:1012B000000000000000000000000000717100004C
:1012C00000000000000000000000000006067F7F14
:1012D00006067F7F0606181819197F7F19190F0651
:1012E000181C0E070301307878301E3F7163676663
:1012F0003C3C6666000000000000000000000000AA
:10130000070F1C387060000000006070381C0F0769
:101310000000060603011F1F01030606010101016B
:101320001F1F01010101000066763E1E0000000043
:101330000101010101010101010100003078783053
:1013400000000000181C0E07030100000000000050
:10135000F8FC0E06060EFCF80000181CFEFE00004D
:1013600000000000181C0E0686CEFC780000060661
:10137000868686CEFC78000080C0E070381CFEFEB9
:1013800000007E7E666666E6C6860000F8FC8E86F5
:10139000868E1C180000060686C6E6763E1E0000F5
:1013A00078FCCE8686CEFC78000078FCCE8686CE91
:1013B000FCF8000030787830000000000000307841
:1013C000783000000000000080C0E070381C0E067D
:1013D00060606060606060606060060E1C3870E095
:1013E000C0800000181C0E06060686CEFC780000A1
:1013F0001F3F706060703F1F000060607F7F606013
:1014000000000000787C6E676361606000006060CF
:10141000616161733F1E00000707060606067F7FB5
:1014200000001838706060703F1F00001F3F71613E
:1014300061733F1E000000007F7F0000000000007D
:101440001E3F736161733F1E000000006171391D12
:101450000F0700000C1E1E0C000000000000667646
:101460003E1E0000000000000103070E1C387060E3
:10147000060606060606060606066070381C0E07F7
:10148000030100000000000066670301000078FC13
:10149000CE8686CEFC780000E0F0B89C8E8E9CB89C
:1014A000F0E0FEFE8686868686CEFC78F8FC0E0688
:1014B0000606060E1C18FEFE0606060E1C38F0E098
:1014C000FEFE8686868686860606FEFE86868686DC
:1014D00086860606F8FC0E068686868E9C98FEFE9C
:1014E000808080808080FEFE00000606FEFE0606EC
:1014F0000000000000000606FEFE0606FEFE80C09C
:10150000E070381C0E06FEFE000000000000000027
:10151000FEFE1C38F0F0381CFEFEFEFE70E0C080BF
:101520000000FEFEF8FC0E060606060EFCF80000A3
:1015300001010101000000007F7F010101010101A3
:101540007F7F7F7F6161616161733F1E1F3F7060BC
:101550006060607038187F7F60606070381C0F07B3
:101560007F7F61616161616160607F7F0101010175
:10157000010100001F3F7060616161717F3F7F7FEB
:101580000101010101017F7F000060607F7F6060D9
:1015900000001838706060703F1F00007F7F0103FB
:1015A000070E1C3870607F7F606060606060606004
:1015B0007F7F0000010100007F7F7F7F000001032B
:1015C000070E7F7F1F3F7060606060703F1FFEFEF0
:1015D0008686868686CEFC78F8FC0E060606060E03
:1015E000FCF8FEFE8686868686CEFC7878FCCE8663
:1015F0008686868E1C1806060606FEFE060606066B
:10160000FEFE000000000000FEFEFEFE00000000E6
:101610000000FEFEFEFE000000000000FEFE1E3E7A
:1016200070E0C0C0E0703E1E7EFEC080000080C042
:10163000FE7E0606060686C6E6763E1E0000FEFE16
:10164000060606060000183870E0C08000000000A2
:10165000000006060606FEFE00006070381C0E0E36
:101660001C387060000000000000000000007F7F58
:1016700001010101010100001F3F7060666E3C38EE
:101680007F677F7F0101070F1D3970601838716116
:10169000616161733F1E000000007F7F0000000059
:1016A0001F3F7060606060703F1F070F1C387070D4
:1016B000381C0F071F3F70703E3E70703F1F787CD4
:1016C0000E070303070E7C78000001037F7F0301F0
:1016D0000000787C6E6763616060606000007F7FFF
:1016E000606060600000000000000103070E1C182D
:1016F0000000606060607F7F00000000000000006C
:101700000000000060606060606060606060000019
:10171000060E1C387060000000006060606060E0D1
:10172000C080FEFE80C0E06060E0C08080C0E060FD
:1017300060606060000080C0E06060E0C080FEFE2D
:1017400080C0E060606060E0C0808080F8FC8E86D1
:10175000060E1C18E0F0381818181818F8F8FEFED5
:1017600080C0E06060E0C08000006060E6E60000ED
:101770000000000000006060E6E60000FEFE0000E1
:1017800080C0E060000000000606FEFE00000000D1
:10179000E0E060E0C0C0E0E0C080E0E080C0E06089
:1017A00060E0C08080C0E060606060E0C0800000F9
:1017B0000000000000000000183C7E666666666659
:1017C0007F7F7F7F6161606060703F1F1F3F70603F
:1017D0006060607038181F3F7060606061617F7F7B
:1017E0001F3F766666666666070701017F7F010117
:1017F0000000000001036766666666763F1F7F7F14
:101800000101000000007F7F000060607F7F60605A
:1018100000001838706060703F1F00007F7F060F67
:101820001F3970600000000060607F7F6060000012
:101830007F7F0000070700007F7F7F7F010100009E
:1018400000007F7F1F3F7060606060703F1FE0E0BE
:101850006060606060E0C08080C0E0606060C08008
:10186000E0E0E0E080C0E06060E0C08080C0E06078
:101870006060606000006060FEFE6060000000006C
:10188000E0E0000000000000E0E0E0E00000000018
:101890000000E0E0E0E0000000000000E0E060E0C8
:1018A000C080000080C0E060E0E0000000000000B8
:1018B000E0E0606060606060E0E0E060000080C0E8
:1018C000787C0E06000000000000FEFE0000000014
:1018D0000000060E7C78C080000080808080183870
:1018E000F0E0C08080C0E0F03818808080807F7F8A
:1018F0000606060606070301010307060606070794
:101900007F7F7F7F01010000000001016163676646
:101910006666667E3C1800001F3F70606070381875
:101920001F3F7060607038187F7F070F1C38707021
:10193000381C0F071F3F7070383870703F1F607081
:10194000391F0F0F1F397060010367666666667680
:101950003F1F6070787C6E67636160600000010308
:101960001E3E70600000000000007F7F000000004D
:10197000000060703E1E0301000001010101181CFF
:101980000F0703010103070F1C18010101014F4656
:1019900046414253525573525525454C73454C258B
:1019A000544873544825414C73414C2550312050C4
:1019B00031255032205032255033205033250046F7
:1019C00050002D2D2D004F4646004F4E20002D2D4E
:1019D0002D004D4F44454C0052455441005031209C
:1019E0002050322020503320204D41582046554C65
:1019F0004C43594331435943324359433350504D7B
:101A00003150504D3250504D3350504D3450504D58
:101A10003550504D3650504D3750504D3843483169
:101A2000204348322043483320434834204348353C
:101A3000204348362043483720434838204348391C
:101A400020434831304348313143483132434831F3
:101A500033434831344348313543483136414431CA
:101A60002041443220002D2D2D2D004080080420DF
:101A700010020100A89588E10FB6F89481BD11BC51
:101A80000FBEE8EBFFE085EC90E101C08193EF3FF2
:101A9000F907E0F3D9F311241FBECFEFD0E1DEBF89
:101AA000CDBF12E0A0E0B1E0EEE1FDEE02C0059096
:101AB0000D92AA3DB107D9F71FE0AAEDB2E001C02F
:101AC0001D92A83BB107E1F70E94AD230C948D76DF
:101AD0000C94000099E28902900111243595279514
:101AE0003595279587FD815C86FB880F880B80F9EB
:101AF000992787FD9095281B390BC9010895982FC8
:101B0000803201F181548A3110F48F5F0895892F5A
:101B100081568A3120F4892F80958F590895892F15
:101B200080538A3010F4855E0895ECECF5E080E097
:101B30002491291711F48B5D08953196222311F019
:101B40008F5FF6CF80E00895E82F8823D9F087FFD4
:101B500007C0863E1CF080E68E1B0895E19504C008
:101B60008B3114F4805C0895E5321CF48E2F8B5E6B
:101B70000895E9323CF4FF27E7FDF095E955FA4F67
:101B80008491089580E208959DE0899F9001112439
:101B90002E543A4FC9010895282F30E0220F331FE9
:101BA000220F331F25553B4FC901089599E0899FA6
:101BB00090011124255C3C4FC901089595E0899F4F
:101BC00090011124255A3B4FC90108959C0140E022
:101BD000683008F041E070E0442371F0CB010897D1
:101BE000FC0163E0EE0FFF1F6A95E1F7E80FF91FB4
:101BF000DF01A55FBA4F0AC0FB01EE0FFF1FEE0F1A
:101C0000FF1FE60FF71FDF01AD51BB4FFD018081C4
:101C100020503C4F37FD0EC068E02030360784F07E
:101C2000442319F484E090E002C088E090E0A80F1B
:101C3000B91F8C91992787FD9095582F442733C061
:101C4000442331F0432FB9017070660F771F04C031
:101C5000432F4695B9017170842F90E0FD01E80F84
:101C6000F91F8181992787FD90959B0135952795CF
:101C7000829FA001839F500D929F500D11242081BF
:101C8000332727FD309580E092E0861B970B9595D2
:101C90008795BC01269FC001279F900D369F900D10
:101CA0001124480F591FCA0169E170E00E940276B1
:101CB000CB0108959C01633031F1643028F4613028
:101CC00051F0623090F43CC0653039F1653008F174
:101CD000663061F525C0493029F497FD24C02050B5
:101CE00032400AC097FF2CC026C0493041F4181674
:101CF000190624F120503E4F220F331F21C0181621
:101D00001906CCF01DC097FF1BC0309521953F4FA1
:101D100017C01816190694F00EC097FF0CC003C028
:101D2000181619065CF020E03CEF0AC067500E94CC
:101D3000E60D9C0105C020E030E002C020E034E068
:101D4000C90108956F927F928F929F92AF92BF9236
:101D5000CF92DF92EF92FF920F931F933B017C0192
:101D600000E010E08824992464E670E080E090E0D0
:101D70006619770988099909A80197010E94CF750A
:101D80005B016C0182E390E0A0E0B0E0A80EB91E18
:101D9000CA1EDB1EC801B7010E94CF750E94CF7515
:101DA000BC0188279927A40193010E94CF75E4E024
:101DB0009695879577956795EA95D1F7A60EB71E04
:101DC000C81ED91EC601B50124E630E040E050E04F
:101DD0000E941576C9011F910F91FF90EF90DF903F
:101DE000CF90BF90AF909F908F907F906F9008950D
:101DF000FF920F931F939C01AB016115710531F1A7
:101E0000FF2497FF05C0FF24F394309521953F4FA1
:101E100057FF10C000E014E066277727641B750B9E
:101E2000C801821B930B0E94A20E9801281B390B3C
:101E3000C90104C0C901BA010E94A20EFF2011F419
:101E40009C0104C022273327281B390BC9011F918D
:101E50000F91FF9008958CE895E00895E82F873062
:101E600058F480912C09882309F044C0F0E0EE0F6B
:101E7000FF1FE058F64F2BC0893018F4E0E0F4E083
:101E80003BC0803180F4F0E0EE0FFF1FDF01AC506B
:101E9000BD4FE150F74F0190F081E02D8D919C9165
:101EA000E81BF90B0AC0843158F4F0E0EE0FFF1F75
:101EB000E150F74F0190F081E02DEE0FFF1F1CC0A5
:101EC000843248F4F0E0EE0FFF1FEA59F64F01901C
:101ED000F081E02D11C0863268F490E08497FC0117
:101EE000EE0FFF1FE80FF91FE85AF04F8081E82F2F
:101EF000F0E002C0E0E0F0E0CF0108951F93162F5C
:101F00000E94C40DFC01A12FB0E02481332727FDDE
:101F10003095CD01880F991F02C0359527958A9578
:101F2000E2F723703070AE0FBF1F8C91992787FDA9
:101F30009095880F991F880F991F280F391FC90185
:101F40001F910895E82FF0E0E751FB4FE491F0E096
:101F5000EE0FFF1FE85CF64F8FB7F8940190F08109
:101F6000E02D87FF01C07894CF010895A8E3B9E080
:101F7000E8E4F9E060E0862F806487B9369A349B04
:101F8000FECF349A208931898D919C911197969535
:101F90008795820F931F8E7F8D939D9340815181F2
:101FA000240F351F36952795318B208B84B195B141
:101FB000840F951F96958795819391936F5F6830F5
:101FC000D1F60895DF93CF93CDB7DEB760970FB604
:101FD000F894DEBF0FBECDBFFE01319680E1DF0178
:101FE0001D928A95E9F7A8E3B9E050E0852F806457
:101FF00087B92081318140E0369A349BFECF349AF4
:1020000084B195B1280F391F4F5F4430A9F7219350
:102010003193369527952D933D935F5F583031F777
:1020200060960FB6F894DEBF0FBECDBFCF91DF91A3
:102030000895E8E3F9E020E0822F806487B9369ABA
:10204000349BFECF349A84B195B1880F991F819348
:1020500091932F5F283081F708958EE587B98AE143
:102060008A95F1F7369A349BFECF349A84B195B1B4
:1020700090930F0680930E0608958091080688239A
:1020800041F480911606882321F480911806882354
:1020900011F084E105C080912A09882321F0815044
:1020A00080932A0908C08091630090E096958795F7
:1020B000817080932B0980912B0908951092250639
:1020C00010921E0610921D061092220610922106F2
:1020D0001092200610921F061092240610922306DA
:1020E00008951092290610922B0610922A06089540
:1020F0001F920F920FB60F9211248F93809129098E
:102100008F5F809329098F910F900FBE0F901F90C2
:1021100018954091290922B7809129094817C9F7D4
:10212000942F80E030E0282B392BC90108951F92AD
:102130000F920FB60F9211242F933F934F935F93FB
:102140006F937F938F939F93AF93BF93CF93DF93BF
:10215000EF93FF93C0918000D091810080917D002A
:102160008F7D80937D00789480912D0990912E0928
:102170009E01281B390B36952795C901815A9F402E
:102180008F5D9E4220F481E0809327092EC040910C
:102190002709842F8150883040F5C901815293402E
:1021A0008757954000F5E42FF0E0EE0FFF1FEB5E40
:1021B000F64F2C5D354080912403992787FD90953B
:1021C0000A96BC01269FC001279F900D369F900D57
:1021D00011246AE070E00E940276718360834F5F91
:1021E0004093270902C010922709D0932E09C0936B
:1021F0002D09F89480917D00806280937D00FF918D
:10220000EF91DF91CF91BF91AF919F918F917F918E
:102210006F915F914F913F912F910F900FBE0F9053
:102220001F901895EFEFF0E1808191813297855CE6
:10223000954CD1F780819181855C954C49F432971A
:102240008FE0E83BF80721F018F02F5F3F4FF2CF07
:10225000C9010895EF92FF920F931F93062F7A0101
:102260000E94C40DDC0110E0FC01E00FF11FC7016A
:1022700095958795959587958083000F111F83E02D
:1022800090E0002E02C0880F991F0A94E2F7809513
:1022900014962C911497822393E0E922FF2402C024
:1022A000EE0CFF1C0A95E2F78E0D14968C9382E0DB
:1022B0000E94825B1F910F91FF90EF9008951F92F3
:1022C0000F920FB60F9211242F933F934F935F936A
:1022D0006F937F938F939F93AF93BF93EF93FF93EE
:1022E00080E02CB5222319F48F5F8530D1F78091DF
:1022F0003009882321F0C09A1092300904C0C09898
:1023000081E08093300980910106922F281708F40C
:10231000982F9093010690910206822F921708F44D
:10232000892F80930206A0910701B0910801FD0159
:10233000819191919BBD8ABDF0930801E0930701C3
:1023400012968D919C911397892BC1F489EA96E09E
:1023500090930801809307018091350382958170E5
:1023600080933009F89487B78F7E87BF78940E9456
:10237000AD26F89487B7806187BF7894809128094B
:10238000816080932809FF91EF91BF91AF919F9158
:102390008F917F916F915F914F913F912F910F900E
:1023A0000FBE0F901F90189578941F920F920FB642
:1023B0000F9211242F933F934F935F936F937F93CB
:1023C0008F939F93AF93BF93CF93DF93EF93FF933D
:1023D000F894809106018F5F80930601815090E010
:1023E00083709070892B11F49DE901C09CE987B737
:1023F0008D7F87BF81B7980F91BF7894F894CCB543
:10240000DDB5789490910806992369F080911706BC
:10241000882329F49093170681E080931806915041
:102420009093080621C0309116063323B9F020910D
:102430001706222399F090E080911806882309F46A
:1024400091E090931806992309F428E02093080658
:10245000992351F031503093160606C0109217069A
:10246000109218061092070680911806882381F0B2
:1024700080910706882311F490E004C090912F0901
:1024800081E0982790932F09992311F41B9A01C09A
:102490001B980E94FB6C8091280982608093280918
:1024A000F8948CB59DB578948C1B9D0B9093060683
:1024B00080930506F89487B7826087BF7894FF9170
:1024C000EF91DF91CF91BF91AF919F918F917F91CC
:1024D0006F915F914F913F912F910F900FBE0F9091
:1024E0001F9018950F931F938C010E948C6B82E2B2
:1024F00060E045E055E024E00E94596680E068E134
:10250000A8010E9494660E94086A809108030E94B4
:10251000FE691F910F91089586B380958E77E1F73C
:102520000E94B36B0895EF92FF920F931F938C015B
:102530007B010E948C6B82E260E047E755E024E07B
:102540000E94596680E060E2A8010E94946680E0E3
:1025500068E2A7010E94946680E060E341E655E0EE
:102560000E9494660E94086A809108030E94FE6996
:102570000E948C121F910F91FF90EF9008958F92FF
:102580009F92AF92BF92CF92DF92EF92FF920F9302
:102590001F93CF93DF93B82E842E85E0841708F421
:1025A00001C1BB2009F401C1A6E1BA1609F4FCC0BF
:1025B000BAEEBB1609F4F6C08B2D875F8331A0F409
:1025C0002B2D332727FD30951B144CF08DE090E028
:1025D000821B930B0E94526C61E06827E6C0C90120
:1025E0000D960E94526CBAC08B2D992787FD90954D
:1025F00097FF03C0909581959F4F66EFC62E6FEFB2
:10260000D62EC80ED91EF601EE0FFF1FEC0DFD1DD4
:10261000E95DFC4FE25DFD4F8081EE52F240882380
:1026200009F4C0C04CE2E42E42E0F42EEE0EFF1E90
:10263000D701AC90EF01C35DDD4F9880853008F481
:10264000C2C0883028F400E010E040E050E016C03E
:102650008A2D81500E942E0F8C01888181500E940A
:102660002E0F0BC08881482F552747FD50954358A2
:102670005F4F04C088810E946A0DAC01E601CC0F57
:10268000DD1FCC0DDD1DCB5ADA4F2881283088F4B0
:10269000253008F049C0223031F1233020F42130B8
:1026A00009F080C01CC0233011F1243009F07AC039
:1026B00029C02A3009F462C02B3038F4283009F4DC
:1026C00053C0293009F06EC054C02C3009F460C0EA
:1026D0002C3008F458C02D3009F064C05EC01B14C3
:1026E0000CF44CC05AC01B140CF44DC051C020E077
:1026F000C80117FF03C0909581959F4F4817590750
:1027000064F40AC020E0C80117FF03C090958195CA
:102710009F4F841795070CF421E01B1414F4622FCB
:1027200044C061E0622741C0182D1F5F8A2D60E020
:10273000412F0E94BF12082F892D60E0412F0E9477
:10274000BF129881953031F4002361F1682F8823FE
:1027500061F12AC0963021F4002331F5682F25C09D
:1027600060E0081709F521C060E004171507E9F4D7
:102770001BC060E004171507B9F417C060E04017EC
:1027800051079CF411C060E00417150774F40CC0E5
:1027900060E0041715074CF007C060E040175107D0
:1027A00024F002C060E001C061E0862FDF91CF918C
:1027B0001F910F91FF90EF90DF90CF90BF90AF905F
:1027C0009F908F9008958A2D81500E942E0F8C012A
:1027D000F701808185320CF045CF4CCF0F931F93CA
:1027E000CF93DF93082F10913103110F1595812F8F
:1027F000992787FD909597FF03C0909581959F4FEE
:1028000085970CF43FC02091B60F3091B70F80919F
:10281000B30F9091B40F282B392B8091B10F909169
:10282000B20F282B392B8091B50F90E0282B392B34
:102830008091AE0F90E0282B392B232B39F4109286
:10284000AE0F17FF03C081E08093AE0F11161CF48A
:10285000812F845202C0812F8C5D60E040E00E9495
:10286000BF12282F882361F08091AE0F882341F496
:1028700090E08091B50F882309F491E09093B50F13
:102880002093AE0FC091B60FD091B70F2196D09381
:10289000B70FC093B60FE091B30FF091B40FE00FF4
:1028A000F11DF093B40FE093B30FF8948091320FC1
:1028B0009091330F78942091B10F3091B20F821B19
:1028C000930B8436910508F446C12C593F4F309341
:1028D000B20F2093B10FCF01BE010E94EE75062FFB
:1028E000862F90E09C012C9FC0012D9F900D3C9F56
:1028F000900D1124E81BF90BF093B40FE093B30F84
:102900001092B70F1092B60F912F915F9F3118F46C
:102910001092B50F0FC0812F8C5D893458F41116B9
:1029200014F4835301C0892F60E040E00E94BF127D
:102930008093B50F80911B0690911C060196909391
:102940001C0680931B0660911D0670911E066F5F2A
:102950007F4F70931E0660931D06002349F08091FF
:1029600021069091220601969093220680932106DB
:102970008091B50F882349F080911F069091200621
:1029800001969093200680931F060695409123069A
:1029900050912406400F511D509324064093230666
:1029A000E0913203F0913303F0932706E09326067B
:1029B00080913103880F8595992787FD909597FF22
:1029C00003C0909581959F4F882319F41092250696
:1029D00022C0813021F4CF01861B970B18C08031B3
:1029E00070F480FF07C0CA0174E0969587957A95C8
:1029F000E1F709C0809121069091220604C08091E0
:102A00001F06909120069F01281B390BC901909346
:102A100027068093260680912506813051F081306B
:102A200018F0823001F510C0809131038F77D9F012
:102A300017C08091260690912706181619069CF05B
:102A4000309789F082E00DC080912606909127068C
:102A5000855C9F4F1CF483E080932506309719F422
:102A600081E08093250620912606309127068091EB
:102A7000AA0F9091AB0F8217930709F45EC0909153
:102A80002506913009F049C08091200382FF2FC0B4
:102A9000309769F12E31310521F482E080931606DA
:102AA0000CC02431310519F49093160606C02A3063
:102AB000310519F02430310524F480910B06809300
:102AC00008068091200383FF12C02E31310549F0A2
:102AD0002431310531F02A30310519F02430310527
:102AE00034F482E390E0909315068093140680916D
:102AF000200381FF22C08091310387FF04C0CF01F2
:102B0000821B930B01C0C9016CE370E00E94EE755B
:102B1000892B99F480910B0604C0923071F4809156
:102B20000C06809308068091200383FF06C082E391
:102B300090E090931506809314063093AB0F20938A
:102B4000AA0F8091310387FF06C0E21BF30BF093BD
:102B50002706E0932606DF91CF911F910F910895EC
:102B600040913103440F4595E42FFF27E7FDF09591
:102B7000F7FF03C0F095E195FF4FE230F10594F1C6
:102B8000413F84F1403174F5473F9CF04A308CF46A
:102B9000F595E79580911E0390E0880F991F880FA7
:102BA000991FE80FF91FE85FFE4F8081E82FF0E0E2
:102BB00002C0F595E7953197EE0FFF1FE058F64FED
:102BC0002081318147FF05C080E094E0821B930B98
:102BD00003C0C90180509C4F26E0969587952A95A1
:102BE000E1F702C080E090E00E94EE13E0911E0346
:102BF000F0E0EE0FFF1FEE0FFF1FE55FFE4FE081DD
:102C0000F0E0EE0FFF1FE258F64F0190F081E02D4B
:102C10008091200380FF05C080E094E08E1B9F0B15
:102C200003C0CF0180509C4F6091AF0F7091B00FE7
:102C30006F5F7F4F7093B00F6093AF0FAC01E6E012
:102C400056954795EA95E1F78091AC0F9091AD0FBD
:102C5000480F591F5093AD0F4093AC0FF8948091DB
:102C6000320F9091330F78942091A80F3091A90FD3
:102C7000821B930B885E934098F1F8948091320FF9
:102C80009091330F78949093A90F8093A80F10928E
:102C9000AD0F1092AC0F1092B00F1092AF0F809149
:102CA000A7069091A80601969093A8068093A70680
:102CB0002091A5063091A606F901E35DF94FCA01FE
:102CC0000E94EE7560832F5F3F4F3093A6062093DE
:102CD000A5062837310520F01092A6061092A50609
:102CE0000895EF92FF920F931F93CF93DF93C7E95D
:102CF000D5E0E1E0EE2EF12C2881222311F189812B
:102D00008823F9F090E00197870102C0000F111F9E
:102D10008A95E2F7822F60E040E00E94BF12209186
:102D2000150930911609882319F0202B312B05C085
:102D3000C801809590952823392330931609209354
:102D40001509229685E0CF3AD807B1F6DF91CF91E9
:102D50001F910F91FF90EF900895FF920F931F9393
:102D60008C01F62E0E948C6B82E260E04FEF54E003
:102D700024E00E94596680E060E2A8010E94946607
:102D80008CE168E341EF54E00E9494660E94086A77
:102D9000FF2011F089E102C0809108030E94FE69C2
:102DA00080910D06809308060E948C1286B3809550
:102DB0008E7799F480910B0360E040E00E94BF128F
:102DC000882331F480912203882311F4FF2019F025
:102DD000C79AA895EBCFC798FCCF1F910F91FF9092
:102DE000089580911D0387FD07C0887329F480E34F
:102DF00095E060E00E94AD16089580911D0386FD68
:102E00000AC00E94AF61883C910528F48DE795E0E7
:102E100060E00E94AD1608950F931F9380911D03EB
:102E20008670A9F18FE195E06DE075E00E94931244
:102E300000E080911D038670823009F401E01EE0FD
:102E40000BC0113141F0812F8D5060E040E00E94B5
:102E5000BF12801729F41F5F163198F31631B9F0AD
:102E600086B380958E7799F406C0809122038823DB
:102E700059F0C79A0AC080910B0360E040E00E94BD
:102E8000BF128823B1F7F1CFC7981EE0DCCF1F91A6
:102E90000F9108950F931F93CF93DF9380911D039C
:102EA00080FD44C080911E0390E08170907002E02C
:102EB00010E0081B190BF801EE0FFF1FE652FD4F43
:102EC000C181D281609687859089C81BD90B0E94E9
:102ED0001910102F802F0E94A20FC817D90734F5A0
:102EE0008FE495E060E475E00E9493120E9419104F
:102EF000812F0E94A20FC817D90724F486B38095AA
:102F00008E7749F00E948C1211C080912203882391
:102F100059F0C79AEBCF80910B0360E040E00E942C
:102F2000BF128823B1F7F1CFC798E0CFDF91CF91DF
:102F30001F910F910895AF92BF92CF92DF92EF92BF
:102F4000FF920F93CF93DF938091200384FD70C095
:102F500080910B0360E040E00E94BF12882329F4B7
:102F600080912203882309F456C0C79A0E948C6B73
:102F700080E060E04CE850E020E000E00E94416525
:102F80000E94086A809108030E94FE690E948C12C8
:102F90000E94B60F0F5F0032D9F7AA24BB2400E0CD
:102FA000802F0E94A20FC92FD0E0AC0EBD1E0F5F74
:102FB0000430B1F7F894C090320FD090330F78946A
:102FC00080E991E0C80ED91E1CC00E94B60F00E037
:102FD000C0E0D0E0802F0E94A20FE92EFF24CE0D8A
:102FE000DF1D0F5F0430B1F786B380958E7701F552
:102FF000CA15DB05E9F411C0809122038823B1F0E2
:10300000C79AF8948091320F9091330F7894C81634
:10301000D906D9F60DC0C798A9CF80910B0360E0FF
:1030200040E00E94BF12882359F7E6CFC798E9CF46
:10303000DF91CF910F91FF90EF90DF90CF90BF90F5
:10304000AF9008951F93CF93DF93C4ECD5E011E0C8
:103050008881882359F060E040E00E94BF128823F5
:1030600029F0812FDF91CF911F9108951F5F2D9639
:10307000153071F710E0F5CFEF92FF920F931F9389
:10308000E82E162F6F3F19F40E942218182F00E027
:103090001123D9F0F12E812F6E2D0E947E0FAC01ED
:1030A00081E0453F580794F0642F655F262F30E09C
:1030B000812F992787FD9095281739070CF06F5FAE
:1030C0000F5F053011F0162FE3CFFF248F2D1F91D6
:1030D0000F91FF90EF900895DF92EF92FF920F9380
:1030E0001F93F82E082F0F7006501091350317709C
:1030F000083008F0AAC0E02EE5948E2D6FEF0E94F4
:103100003C18D82E6E2D0E947E0FBC01112389F42D
:1031100077FF04C088279927861B970B959587957D
:103120009595879501968132910584F080E290E033
:103130000DC0212F332727FD30952150304081E0ED
:1031400090E002C0880F991F2A95E2F7482F8091DE
:103150001E0390E08170907022E030E0281B390B54
:103160008E2D90E02817390739F48091340386FFBB
:1031700003C044E081E001C080E0552747FD509541
:1031800000FF06C0460F571F10E023E83FEF05C0C1
:103190009B01241B350BA901F7CF2115310519F42B
:1031A000882329F015C09FEF2338390749F04217CB
:1031B00053071CF0621773074CF02D37310541F0AF
:1031C000241735072CF02617370714F4A90111E04E
:1031D00023583F4F2A3F310501F76417750724F440
:1031E0004E37510544F40CC0461757074CF42FEFE7
:1031F000433852072CF48091350386FFAB0111E070
:103200003EEF4C3053071CF44CE05EEF06C081E00B
:10321000453F580714F044EF51E08D2D6E2D0E946C
:103220002A11112341F08F2D0E94D96C10920706AC
:1032300080910B0607C0F6FE03C081E0809307066D
:1032400080910A0680930806FF248F2D1F910F910D
:10325000FF90EF90DF9008954F925F926F927F9270
:103260008F929F92BF92CF92DF92EF92FF920F9335
:103270001F93CF93DF933C01A8E7B9E0FC0188E0FE
:1032800001900D928150E1F70E9422189EEAC92E0A
:1032900094E0D92EC0E0D0E002E0402E512CE82E80
:1032A000FF240894E11CF11CFE01EE0FFF1FEE0F3E
:1032B000FF1FE555FB4F8081837009F4B8C0818101
:1032C000807E99F0828180FD10C0FE01EE0FFF1F0D
:1032D000EE0FFF1FE455FB4F808182958695877026
:1032E00090E0E816F90609F099C0FE01EE0FFF1F05
:1032F000EE0FFF1FE455FB4F8081880F880F880F6A
:1033000085958595859561E040E00E94BF128823F0
:1033100009F484C0FE01EE0FFF1FEE0FFF1FE555FD
:10332000FB4F8081B82EB694B69493E0B9220B2D52
:1033300010E0F801EE0FFF1FE858F64F0190F08102
:10334000E02D8370F7FF03C080FD03C067C081FFDD
:1033500065C0D6018C91282F332727FD30958091A9
:103360001E0390E0817090704201881A990A8016BD
:10337000910699F48091340387FF0FC0CF018050EC
:103380009C4F62E070E00E940276CB01B9010E947E
:10339000F80E9C01220F331F05C0CF01B9010E9416
:1033A000F80E9C01FE01EE0FFF1FEE0FFF1FE5550B
:1033B000FB4F6081862F807F39F062956F70C90165
:1033C00040E00E945A0E9C01B901882777FD809544
:1033D000982FFE01EE0FFF1FEE0FFF1FE355FB4F6F
:1033E0002081269530E040E050E00E94CF7524E631
:1033F00030E040E050E00E9437768016910631F4CC
:103400008091340387FF02C020503440EB2DF0E060
:10341000EE0FFF1FE60DF71D31832083219684E018
:1034200090E0C80ED91ECE30D10509F03DCFDF9116
:10343000CF911F910F91FF90EF90DF90CF90BF90B1
:103440009F908F907F906F905F904F9008953F92E4
:103450004F925F926F927F928F929F92AF92BF92A4
:10346000CF92DF92EF92FF920F931F93CF93DF9350
:1034700030902C096BEDC62E62E0D62E59E9852ED0
:1034800057E0952E40E8A42E49E0B42E2401EE2406
:1034900000E010E031E0632E712CF02E802F0E94AE
:1034A000A20F9C01D6018D919C911197281B390B7D
:1034B000121613062CF45C96ED91FC915D9705C0F5
:1034C000D6011E96ED91FC911F97E436F10514F498
:1034D000E4E6F0E0B901882777FD8095982F2AE08F
:1034E000660F771F881F991F2A95D1F79F014427E0
:1034F00037FD4095542F0E943776E901BCEF21300B
:103500003B071CF4C0E0DCEF06C0E4E020303E07DF
:1035100014F0C0E0D4E0D501CD93DC93CE010F963A
:103520004F9708F504301105B4F4E0911E03F0E064
:10353000EE0FFF1FEE0FFF1FE00FF11FE75FFE4FC3
:10354000808190E00197F30102C0EE0FFF1F8A9582
:10355000E2F7CF0107C0C301002E02C0880F991FF8
:103560000A94E2F7E82AF3E0FF1508F456C0332086
:1035700009F053C00F5F1F4FC301002E02C0880F18
:10358000991F0A94E2F701501040816020911509BB
:103590003091160982239323892B09F43EC0F80148
:1035A000EE0FFF1FEC5EFC4FF0808F2D807CA9F1A9
:1035B000EF2DEF73F0E0EE0FFF1FDF01A45FBC4FB4
:1035C000E95EF64F608171812D913C91621B730B16
:1035D000882777FD8095982FD601DA962C9133278E
:1035E00027FD3095432F532F0E94CF7522E330E003
:1035F00040E050E00E943776F294F694F69463E04F
:10360000F622EF2DF0E0E130F10519F0329729F4C0
:1036100003C0C20FD31F01C0E901F201C193D193CE
:103620002F010F5F1F4F22E030E0C20ED31EA20E0B
:10363000B31E0730110509F030CF89E997E00E94E9
:103640002C1955EEA52E57E0B52E00E010E042E013
:10365000442E512C612C34E0732ED401CD91DC9199
:10366000802F6FEF0E943C18602F0E947E0F6C012C
:1036700080911E0390E081709070F201E81BF90BBD
:10368000E017F107B9F58091340386FF33C08091CC
:1036900020039601442737FD4095542F80FF0CC02E
:1036A000C050DC4FBE01882777FD8095982F2D579D
:1036B0003040404050400BC0B3016C1B7D0B88274D
:1036C00077FD8095982F23583F4F4F4F5F4F0E94B3
:1036D000CF7520E038E040E050E00E943776C90125
:1036E000DA018030F8E09F07F0E0AF07F0E0BF07B5
:1036F00041F406C080912C06882311F0CC24DD24EF
:10370000C601880F991FD5018D939D935D010F5FB1
:103710001F4FE2E0F0E08E0E9F1E0430110509F00D
:103720009CCF8E2DDF91CF911F910F91FF90EF9045
:10373000DF90CF90BF90AF909F908F907F906F90D1
:103740005F904F903F9008959F92AF92BF92CF921B
:10375000DF92EF92FF920F931F93CF93DF93E9E9EC
:10376000EE2EE7E0FE2E05EE17E0C0E0D0E072E0BE
:10377000A72EB12C99249394CC2E80911E0390E017
:10378000817090709501281B390B2C173D0749F16A
:103790008C2F6FEF0E943C18D82E90922C090E941B
:1037A000271A10922C09F80180819181F70120815C
:1037B0003181820F931F62E070E00E940276AB01BC
:1037C000FEEF6C307F071CF44CE05EEF06C021E09A
:1037D000653F720714F044EF51E08D2D6C2D0E946F
:1037E0002A11219682E090E0E80EF91E0E5F1F4F2D
:1037F000C430D10509F682E00E94825B80910A06FE
:1038000080930806DF91CF911F910F91FF90EF9069
:10381000DF90CF90BF90AF909F9008952F923F92EE
:103820004F925F926F927F928F929F92AF92BF92D0
:10383000CF92DF92EF92FF920F931F93DF93CF937C
:10384000CDB7DEB729970FB6F894DEBF0FBECDBF58
:103850009F838E830E942218182F0E94271A40915E
:1038600037034823242F30E08091330890E08227EB
:10387000932782239323892B21F080910A0680933A
:1038800008064093330880E094E09093A807809363
:10389000A7079093AA078093A90780912C098823F2
:1038A00079F180911E0390E08170907022E030E009
:1038B000281B390B10929A07109299072130310575
:1038C00021F010929C0710929B072230310521F0C5
:1038D00010929E0710929D071092A00710929F07CA
:1038E000E1EBF7E01192119227E0E13CF207D1F70A
:1038F0004DEE57E05A83498321EC37E0FA0146C088
:1039000061EB77E040E050E0FA01E95EF64FDA0162
:10391000A652BD4F80819181D2962D913C91D39733
:10392000821B930B880F991FDB018D939D93BD0123
:103930004E5F5F4F4830510539F780911F099091D4
:103940002009880F991F9093BA078093B907809137
:10395000210990912209880F991F9093BC078093A9
:10396000BB078091230990912409880F991F909398
:10397000BE078093BD078091250990912609880F85
:10398000991F9093C0078093BF07B2CF8081918128
:10399000D9018D939D939D013496B8E0E533FB07E3
:1039A000A9F780911306882311F00E94B01580E4D6
:1039B000EDEEF7E0DF011D928A95E9F71092140908
:1039C00064EF462E68E0562E54E7852E58E0952E7B
:1039D00044E3642E48E0742E1D82212E3324089483
:1039E000211C311C8D810E94D60D6C01FC0180814F
:1039F0008F7159F43BE5432E34E0532E27E735E031
:103A00003C832B832224332494C290E0419794F783
:103A1000D60117969C91892F807FC1F0892F8595BB
:103A2000859585958595282F332727FD3095181680
:103A30002CF42216330609F06AC208C08827992799
:103A4000821B930B2816390609F461C2F6018381A3
:103A500061E040E00E94BF12D2019C918823C1F432
:103A6000192F1C92F6019181892F8850823008F01D
:103A70004EC287818E70843009F449C2993019F0A2
:103A80001986188640C020E03CEF398728873BC064
:103A900010E0992309F411E081E0D2018C93F60142
:103AA00081818150A82FB0E0FD01EE0FFF1FE75686
:103AB000F84F2081318139872887843168F03D8132
:103AC000831750F4AA0FBB1FAA0FBB1FA351B84FF7
:103AD0004D915C9159874887D6019C91892F807EB2
:103AE00091F0929596959770892F90E00197E1E07B
:103AF000F0E002C0EE0FFF1F8A95E2F72091140953
:103B00002E2B20931409D60118968C91882341F00E
:103B10000E946A0DE885F985E80FF91FF987E887A3
:103B2000D60116968C911697882329F415968C91B8
:103B3000882309F44EC1F4016081718182819381EF
:103B4000112391F420E031E040E050E00E9437760C
:103B500050954095309521953F4F4F4F5F4FA8842A
:103B6000B984A20EB31E5CC0D60117968C9117972C
:103B70008E70843049F5EC91EF71F0E0EE0FFF1F8D
:103B8000E154F84F60817181882777FD8095982FE7
:103B900020E034E640E050E00E94CF75F4016083FD
:103BA000718382839383D60112962C91222361F034
:103BB000332727FD3095432F532F0E943776F4018A
:103BC0002083318342835383D4016D917D918D9104
:103BD0009C9120E031E040E050E00E943776509523
:103BE0004095309521953F4F4F4F5F4FA884B98442
:103BF000A20EB31EA114B10499F0F6018581B7FE9F
:103C000082958F7090E09C0144E650E0249FC001B3
:103C1000259F900D349F900D1124D3018D939C937B
:103C2000F301208131812115310551F08091130676
:103C3000882309F4C1C02150304031832083BCC0A7
:103C4000A114B10409F4C5C0F6018681882309F4E2
:103C5000C0C080911306882309F478C022812223F2
:103C600029F460E070E080E293E018C0822F992789
:103C700087FD909597FF03C0909581959F4F9C017C
:103C8000442737FD4095542F60E070E080E293E0D8
:103C90000E943776C901DA01BC01CD01D601169622
:103CA0002C911A141B040CF52F70422F50E0411573
:103CB0005105D9F1E4E6F0E04E9F90014F9F300DA1
:103CC0005E9F300D1124442737FD4095542F0E94EC
:103CD000377679018A01F40180819181A281B381D3
:103CE000E80EF91E0A1F1B1F2BC022952F70422FB2
:103CF00050E041155105C9F0A4E6B0E04A9F90019B
:103D00004B9F300D5A9F300D1124442737FD4095AD
:103D1000542F0E943776F401E080F18002811381F4
:103D2000E21AF30A040B150B0BC028853985C9016B
:103D3000AA2797FDA095BA2FEE24F82E092F1A2F47
:103D4000D401ED92FD920D931C931397F4016081C1
:103D50007181828193812885398579010027F7FC5B
:103D60000095102F1A141B0464F420E031E040E0A9
:103D700050E00E943776E216F3060407150764F058
:103D80001BC020E031E040E050E00E9437762E1565
:103D90003F054007510784F448855985CA01AA2781
:103DA00097FDA095BA2FBA2FA92F982F8827F40135
:103DB00080839183A283B383D4016D917D918D9192
:103DC0009C9120E031E040E050E00E943776398756
:103DD0002887F6016481662339F0888599854181B9
:103DE0000E945A0E99878887D60117968C9117974B
:103DF00080FD13C01196EC91EE2379F0E53068F464
:103E0000F0E0EE0FFF1FED51F84F80819181E885C2
:103E1000F985E80FF91FF987E88728853985B90101
:103E2000882777FD8095982FD60112962C913327FD
:103E300027FD3095432F532F0E94CF759B01AC0176
:103E4000F60187818695877090E08130910571F049
:103E50000081029709F046C00F71E02FF0E0EE0FED
:103E6000FF1FEE0FFF1FE751F84F37C0D6010C912F
:103E70000F7110E0000F111F000F111F0751184F95
:103E8000CA01B90124E630E040E050E00E943776F4
:103E9000CA01B901F80120813181428153810E9418
:103EA000CF75D8016D937D938D939C931397F601F5
:103EB00000810F7110E0000F111F000F111F07513B
:103EC000184FD8016D917D918D919C9120E034E047
:103ED00040E050E00E943776F8012083318342832E
:103EE000538315C00F71E02FF0E0EE0FFF1FEE0FB0
:103EF000FF1FE751F84F80819181A281B381820F2A
:103F0000931FA41FB51F80839183A283B383FD8178
:103F1000FF5FFD830894411C511C24E030E0820EB9
:103F2000931E42E050E0640E751EF03209F05ACD47
:103F300061CDA981BA818D909D90AD90BC90C50155
:103F4000B40124E630E040E050E00E943776E98199
:103F5000FA812083318342835383F101E257F64F84
:103F6000C90120839183D20113962D913C9114971E
:103F700011968C911197FAE08F02F0011124E8510B
:103F8000FC4FF987E8878C914AE0840230011124C4
:103F900088E19CEF680E791ECF015E2F492F2E1706
:103FA0003F071CF4C901522F492F852F942F8C01F4
:103FB000061517050CF4830181149104A104B104C2
:103FC00079F19801442737FD4095542F18141904AE
:103FD0001A041B0464F4A885B985BD01882777FD00
:103FE0008095982F621B730B840B950B0BC0C3013C
:103FF000AA2797FDA095BA2F281B390B4A0B5B0BFC
:10400000CA01B901A50194010E94CF7520EA36E8E2
:1040100041E050E00E943776C901DA014C015D01B0
:10402000C80155E0959587955A95E1F7800F911F46
:104030009801232F330F330B2595820F931F000F09
:10404000012F001F110B801B910B6C01EE24D7FC7C
:10405000E094FE2C8885998525E0959587952A958D
:10406000E1F7E885F9858E0F9F1FA30105E05595BF
:1040700047950A95E1F7B301660F672F661F770B27
:10408000460D571D9F01232F330F330B2595820FAC
:10409000931FEE0FEF2FEE1FFF0B8E1B9F0B8C015C
:1040A000222717FD2095322FC80CD91CEA1CFB1CB7
:1040B0000C151D052E053F0514F468017901CB018F
:1040C0009595879595958795480F591F461B570BD2
:1040D000CA01AA2797FDA095BA2F87017601E81695
:1040E000F9060A071B0714F47C018D01D201129610
:1040F0008C91882341F010950095F094E094E11C98
:10410000F11C011D111DEB81FC818081882389F048
:1041100060E040E00E94BF12882359F0AB81BC816F
:1041200011968C910E946A0D7C010027F7FC009586
:10413000102FEE81FF81E20DF31DF182E082E98113
:10414000FA813496FA83E98322E030E0220E331EAE
:1041500045E050E0440E551E8B819C8102969C8365
:104160008B83ED52F84009F0E4CE29960FB6F8940F
:10417000DEBF0FBECDBFCF91DF911F910F91FF909A
:10418000EF90DF90CF90BF90AF909F908F907F90F7
:104190006F905F904F903F902F900895CF92DF9255
:1041A000EF92FF920F931F93DF93CF93CDB7DEB7BC
:1041B000A0970FB6F894DEBF0FBECDBF81E080930D
:1041C0002C098E010F5F1F4FC8010E940E1C109218
:1041D0002C09F801AEE5B4E09E012F5D3F4F8081D0
:1041E000918143E0883E94071CF088EE93E006C07E
:1041F0004CEF8931940714F488E19CEF11969C935D
:104200008E9332961596E217F30749F700E010E017
:1042100082E0C82ED12CE02E80911E0390E08170A8
:1042200090709601281B390B2017310791F0FF245D
:104230008F2D6E2D0E947E0F855F914034F48F2D5F
:104240006E2D40E050E00E942A11F39445E0F416F0
:1042500079F70F5F1F4F04301105E9F682E00E94E5
:10426000825B80910A0680930806A0960FB6F894A8
:10427000DEBF0FBECDBFCF91DF911F910F91FF9099
:10428000EF90DF90CF900895AF92BF92CF92DF92E0
:10429000EF92FF920F931F93DF93CF93CDB7DEB7CB
:1042A000C054D0400FB6F894DEBF0FBECDBFF89417
:1042B0002091320F3091330F789440E0809136098D
:1042C000909137092817390709F041E04093130608
:1042D000F8948091320F9091330F7894909337092E
:1042E000809336090E942218582F8091350985172E
:1042F00039F190E02DE030E0829FF001839FF00DD6
:10430000929FF00D1124E254FA4F408142954F7074
:10431000852F90E0829FF001839FF00D929FF00D1A
:104320001124E254FA4FE081EF70E41708F4E42F0F
:104330008AE0E89FC0011124809334095093350925
:1043400080913409882349F0DE011196E1EBF9E010
:1043500080E201900D928150E1F7CE0181960E949A
:104360000E1CF89440913409442379F1EE24FF2483
:104370005E010894A11CB11C11E2C12ED12CCC0EFF
:10438000DD1EF501EE0DFF1D2081318187010F54E7
:10439000164FF601EE0DFF1D80819181821B930B5C
:1043A000642F70E00E940276260F371FD8012D93EC
:1043B0003C93E2E0F0E0EE0EFF1EF0E2EF16F104B7
:1043C00001F741504093340909C0A1EBB9E0FE0167
:1043D000B19680E201900D928150E1F7789480913E
:1043E0001306882309F4A7C1809128068823A1F029
:1043F00090912906892F8F5F80932906843660F07B
:1044000093569093290680912A0690912B06019647
:1044100090932B0680932A060E9471168091B00912
:10442000882319F081508093B00980911F0388235D
:1044300009F466C080911206823308F461C080914D
:104440002D0890912E08A0912F08B0913008019668
:10445000A11DB11D80932D0890932E08A0932F08C5
:10446000B093300800E010E0FF248F2D0E94A20FCF
:10447000B6E096958795BA95E1F7080F191FF39462
:1044800044E0F41691F780913108909132080817B2
:10449000190761F0109332080093310810922D082B
:1044A00010922E0810922F0810923008E0902D08DC
:1044B000F0902E0800912F081091300860911F0392
:1044C00070E080E090E020E737E140E050E00E94BB
:1044D000CF756E157F058007910790F48FE390E00C
:1044E000A0E0B0E0E822F9220A231B239AE0E916B3
:1044F000F1040105110521F480910C068093080652
:1045000080912C06882319F0815080932C0680E03E
:104510000E94945B0E948C6B0E94B66B0E946C1888
:10452000182F8091140690911506009729F0019795
:104530009093150680931406112389F0809122032D
:1045400090E024EF31E0DC01A29FC001A39F900D19
:10455000B29F900D112490931506809314068091BC
:104560000B0360E040E00E94BF12882339F4809181
:10457000140690911506892B09F4DBC0C79A209187
:104580008C0930918D098091190690911A06821B31
:10459000930B60E270E00E9402767093D209609300
:1045A000D1096115710591F080913209909133091B
:1045B000821B930B62E070E00E9402767093D20936
:1045C0006093D10930931A0620931906309333096A
:1045D00020933209E091E209F0E0EE0FFF1FEC5268
:1045E000F64F0190F081E02D812F09950E94086A15
:1045F0000E943D10882321F0809165008F7E03C0CA
:1046000080916500806180936500F8948091320FFD
:104610009091330F78948F7190708230910521F0D2
:10462000039709F088C06EC0809110069091110622
:10463000892B39F487E00E94A20F90931106809392
:10464000100680911006909111068C01E3E0000F96
:10465000111FEA95E1F7081B190B87E00E94A20FD2
:10466000800F911F73E0969587957A95E1F77C010D
:1046700000E010E0909311068093100620910A0349
:10468000332727FD3095432F532FC801B7010E94D0
:10469000CF7528E030E040E050E00E94377664E0DB
:1046A000EE0CFF1C001F111F6A95D1F7E20EF31EDE
:1046B000041F151F20910E0630910F0640E050E0B8
:1046C000C801B7010E943776209312068091310904
:1046D000805E80933109882371F580910903281742
:1046E00050F5223340F180910D06809308068091A9
:1046F000200383FF20C082E390E09093150680930F
:10470000140619C080911D0386958695869587703D
:1047100090E0BC01660F771F660F771F680F791F47
:1047200060537B4F89E096E045E050E00E9452766E
:1047300002C0C79824CFC05CDF4F0FB6F894DEBF2D
:104740000FBECDBFCF91DF911F910F91FF90EF90E2
:10475000DF90CF90BF90AF9008951F93CF93DF93DA
:104760009FEF9ABB1BBA81E887BB8EE788BB8EE3BD
:1047700084BB81EC85BB11BA92BB88E082B987EF1C
:1047800083B9109261001092620080E1809364000E
:10479000909365000E94CA6980E487B985E886B96C
:1047A00087E083BF8CE981BF87B7836087BF8AE0DA
:1047B0008EBD82E880938A0080917D008062809324
:1047C0007D00789488E792E59093D5098093D40989
:1047D00088E399E49093D7098093D60989E10E94F0
:1047E000FE690E9473700E94D5601091070304B6A1
:1047F00003FC0CC00E949B170E94FD160E9419101A
:104800000E944A170E940C170E94F1160E948C12F7
:1048100081EB99E00E940E1C809108030E94FE69C2
:104820008091220390E024EF31E0AC01429FC0016F
:10483000439F900D529F900D1124909315068093E5
:10484000140680910703181719F081E00E94825B1B
:104850000E94AD2687B7806187BF2DE088E190E098
:104860000FB6F894A89581BD0FBE21BD0E94891096
:10487000EC01E0912103F0E0EE0FFF1FE050FF4F4D
:104880000190F081E02D09950E942D100E94442195
:1048900080912809833019F4A895109228090E9464
:1048A000891020910306309104068C1B9D0B821702
:1048B000930708F4C9019093040680930306D6CFAA
:1048C000FC01A091E209B0E0AA0FBB1FAC52B64FA9
:1048D000ED93FC938FEB0995809109068093080670
:1048E00008956F927F928F929F92AF92BF92DF92C4
:1048F000EF92FF920F931F93CF93DF938091350335
:1049000085FD04C0A12C14E0B12E03C0A12CB5E09C
:10491000BB2EE0913403EE0FEE0FE595E595E5959E
:10492000E595E595EE0FE85F9091360384E69802F1
:10493000C0011124A8E5EA2EA2E0FA2EE80EF91E25
:10494000EA3028F448EC5FEA4E195F090DC088533D
:10495000904F2E2F30E0829FA001839F500D929F99
:10496000500D1124405C504EC1EBD9E0A9EAB6E0ED
:104970006E2F70E0660F771F6C0F7D1F88249924BF
:104980008A189B08662477246E187F0808E512E0D1
:104990000E191F0923C028813981C501DA2CF92F8E
:1049A0002A153B051CF4C901D22EF92F8D2D9F2FFE
:1049B000881599050CF4C401805A964F9301281B61
:1049C000390B420F531F1196FC92EE92800F911FEC
:1049D00013969C938E93129722961496C617D70718
:1049E000D1F6EE0FAE2FB0E0AA0FBB1FA755B94FFF
:1049F000ED92FC92EF5FAE2FB0E0AA0FBB1FA75560
:104A0000B94F4D935C93EF5FF0E0EE0FFF1FE7555A
:104A1000F94F11821082DF91CF911F910F91FF907A
:104A2000EF90DF90BF90AF909F908F907F906F90AE
:104A30000895A091E509B091E609FD018193919354
:104A400013967C936E9312973296F093E609E09357
:104A5000E5090895882329F060E679E080E699E089
:104A600004C060EB74E080EB94E00E941925089587
:104A70001F93182F82700E942A25812F81700E9417
:104A80002A251F910895EF92FF920F931F93CF93C2
:104A9000DF9380913403877090E08130910519F0A5
:104AA000029719F404C010E003C011E001C012E045
:104AB0002091B1093091B20920503C4F220F331F91
:104AC0008091B3099091B40980509C4F880F991F31
:104AD000892F232F37FD20E087FD80E0022F203132
:104AE0000CF00FE0F82E8FE08F1514F44FE0F42E49
:104AF0002F2D332727FD3095802F992787FD9095FF
:104B000009968217930714F40F2D0950C02FDD2743
:104B1000C7FDD095275F3F4F2C173D071CF437EF9B
:104B2000F32EF00E89EA96E09093E6098093E5096A
:104B300080E797E160EB74E00E94192580E00E9415
:104B4000382580E699E060EB74E00E94192580E644
:104B500099E060EB74E00E941925812F0E943825AE
:104B60001195CE019595879595958795E82E0E948C
:104B700038251E19802F0E943825101B8F2D99274C
:104B800087FD90959595879595958795082F0E9417
:104B90003825101B8F2D0E943825812F8F190E94D8
:104BA000382580E00E942A258091E5099091E60948
:104BB00002979093E6098093E50980E69AEE60E01B
:104BC00070E00E941925DF91CF911F910F91FF9006
:104BD000EF900895882329F080E293E060E476E086
:104BE00004C080E496E060E273E00E941925089515
:104BF0000F931F93082F10E0802F81700E94EA25E9
:104C00001F5F06951830C1F71F910F9108950F93FC
:104C10001F9389EA96E09093E6098093E5098091D5
:104C2000E70991E089278093E709882309F44FC0B9
:104C30008091B1099091B209885F9B4F34E09695BD
:104C400087953A95E1F78038910510F08FE790E06D
:104C5000182F2091B3093091B40937FD0FC0C90155
:104C6000409625E0969587952A95E1F78034910541
:104C700010F08FE390E0082F00640FC080E190E017
:104C8000821B930B05E0969587950A95E1F7803492
:104C9000910510F08FE390E0082F812F0E94F825F6
:104CA000802F0E94F8250127802F90E09C01B4E01E
:104CB00035952795BA95E1F7A4E0880F991FAA9535
:104CC000E1F7822B0E94F82580E197E22BC08091CA
:104CD000B5099091B60980509C4FF4E09695879560
:104CE000FA95E1F78038910510F08FE790E0082FF2
:104CF0000068802F0E94F8258EE80E94F8258EE833
:104D0000082710E0C801E4E095958795EA95E1F75A
:104D100074E0000F111F7A95E1F7802B0E94F825AF
:104D200080EB96E360EA7FE00E941925E091E509B7
:104D3000F091E60911921192F093E609E093E509EA
:104D4000E95AF640E03FF1052CF08EE196E060E094
:104D50000E94AD161F910F910895809134038770C2
:104D600090E08430910534F4813091054CF4892B26
:104D700021F00895049749F406C00E947124089513
:104D80000E94432508950E9407260895AC012091B2
:104D9000E209E22FF0E0E252F64F8091E3098295BA
:104DA000807F9091E409890F8083E22FEF5FE09389
:104DB000E209E53040F02093E20981E396E060E00B
:104DC0000E94AD1608958091090680930806F0E0D0
:104DD000EE0FFF1FEC52F64F518340838FEBFA0129
:104DE00009950895E091E209EE2311F1E150E09375
:104DF000E2098091090680930806F0E0DF01A252E3
:104E0000B64F8C91282F2F702093E40990E0A4E0F6
:104E100095958795AA95E1F78093E309EE0FFF1F1B
:104E2000EC52F64F0190F081E02D8EEB099508953C
:104E300084E496E060E00E94AD1608958F929F9200
:104E4000AF92BF92CF92DF92EF92FF920F931F9398
:104E5000CF93DF93182F7B014A015901C02E84FDA7
:104E600004C004E0D02E05E005C01F701066B5E058
:104E7000DB2E04E08D2D8066181761F08D2D806487
:104E8000181741F09091AF09992361F0133611F092
:104E9000133441F4E70121968091090680930806B6
:104EA000802F17C0802F8066181761F0802F8064D4
:104EB000181741F0992309F475C0123619F012340D
:104EC00009F070C0E70121978091090680930806D8
:104ED0008D2D90E00E94526C882351F0CC27DD2765
:104EE000CE19DF09802F0E94D96C8D2D0E94D96CBC
:104EF0008114910491F481E0A816B10471F4103684
:104F000061F41092AF09C0E0D0E0E114F10411F4B3
:104F1000C1E0D0E080E60E94D96C8091D1099091E7
:104F2000D209C81BD90BAC16BD0644F4812F0E94D0
:104F3000D96C80910B0680930806E501C815D90548
:104F400044F4812F0E94D96C80910B06809308064F
:104F5000E401CE15DF05B1F0209739F4812F0E94CE
:104F6000CA6C80910906809308068C2D83700E947C
:104F7000825BEC16FD0614F08FEF01C081E0809398
:104F8000D30902C01092D309CE01DF91CF911F91B6
:104F90000F91FF90EF90DF90CF90BF90AF909F90D8
:104FA0008F900895E701A4CF0F93772767FD709541
:104FB000552747FD5095332727FD309501E00E9486
:104FC0001E270F9108950F93772767FD709555273A
:104FD00047FD5095332727FD309502E00E941E279C
:104FE0000F910895FF920F931F93F82E162F042F01
:104FF00080E860E0412F50E0202F0E94AA681A301C
:1050000010F485E701C08FE660E04FE2202F0E9498
:105010009E651A3010F485E701C08FE64F2D50E0F1
:105020004F5F5F4F60E0202F0E94AA681F910F9191
:10503000FF900895AF92BF92CF92EF920F931F937C
:10504000DF93CF930F92CDB7DEB7982F5A0141155A
:10505000510509F443C08091E309882309F037C062
:105060009436F1F0953611F042E032C0662361F0DB
:1050700081E090E0861B9109880F991FFA01E81BD7
:10508000F90B859194911BC081E090E0821B9109FE
:10509000880F991FFA01E81BF90B859194910FC0B5
:1050A00070E0822F90E001976817790764F4FB01A4
:1050B0003196EE0FFF1FE40FF51F859194910E942A
:1050C000602480E01EC1FA0185919491F8CF40E000
:1050D000862F622F99830E94F2279981011511056D
:1050E00011F420E00AC08091E3092E2D8E1508F4FA
:1050F000282FF801E20FF11D2491903669F19136C5
:1051000090F4933409F4ADC0943430F4913299F1B1
:10511000923409F0D6C07AC0943409F449C0953469
:1051200009F0CFC05BC0943609F447C0953638F417
:10513000923609F470C0933609F0C3C096C0913816
:10514000B9F09F3B21F0953609F0BBC04CC01092DE
:10515000E4091092E30913C0222309F4B2C090E0DD
:105160008091AF09882309F491E09093AF09A9C019
:105170001092AF090EC08091AF09882319F01092E8
:10518000AF099FC08091E309882319F0A114B104ED
:1051900019F40E94F22695C08091090680930806B2
:1051A0001092E4091092E30980E68093340F8DC0D9
:1051B0008091E409821709F484C0012B09F481C0AD
:1051C0008091AF09882309F07CC08091E40982179F
:1051D00010F48F5F15C01092E40970C08091E4094B
:1051E000882309F46EC0012B09F46BC08091AF09CC
:1051F000882309F066C08091E409882321F081505A
:105200008093E4095BC02093E40958C08091E309CE
:105210008C1509F456C08091AF09882309F051C05C
:105220008091E3098C1510F080E001C08F5F0115BB
:10523000110509F470C0982FE81608F49E2DF801A6
:10524000E90FF11DE491EF3F09F065C0EBCF8091CC
:10525000E3098E1508F4E82E0E0D111DF8010491D6
:1052600028C08091E309882361F18091AF098823E8
:1052700041F58091E309882311F48C2D01C0815000
:105280000115110509F450C0982FE81608F49E2D59
:10529000F801E90FF11DE491EF3F09F045C0EBCFB4
:1052A0008091E3098E1508F4E82E0E0D111DF8010A
:1052B0000491901708F4092F0093E40980E6809385
:1052C000340FAB2811F456E001C057E04091E309D8
:1052D000442319F41092AE0913C0242F30E08091BA
:1052E000AE09281B3109852F90E08217930714F42B
:1052F000451B04C0121613061CF041504093AE0922
:1053000081E00F90CF91DF911F910F91EF90CF909F
:10531000BF90AF9008958093E3099091E40901153F
:10532000110509F094CF08C08093E3099091E40936
:105330000115110509F0B4CF00E0BECFCF92EF9276
:105340000F931F93C02E00E010E0EE240E941A2855
:105350001F910F91EF90CF9008950F93062F60E06B
:1053600040E050E020E00E949E290F9108950F93A5
:10537000942F222311F400E001C002E043E0949F47
:10538000A0011124485A594F23E00E942E6A0F9120
:1053900008950F93942F222311F400E001C002E03E
:1053A00043E0949FA0011124415A594F23E00E94E9
:1053B0002E6A0F910895DC01FB0105C09C9180814C
:1053C0008D93919341504423C9F70895CF92DF9272
:1053D000EF92FF920F931F93CF93DF93182F80E0EC
:1053E00060E041E956E022E00E945966812F6BE0BF
:1053F00046E656E02CE008E00E949E29882309F446
:1054000065C0F090E309FA941038A9F480E80E948E
:10541000D96C89E18093B00986E08F1518F08F2D43
:105420000E94957187E0F81611F40E942471809112
:105430000A068093080618E0EE24CF2CDD24C7FC72
:10544000D0944091AE094E0D473019F4193370F1E4
:105450003DC0C42FD0E0CC16DD0611F020E101C024
:1054600022E1AE014F5F5F4F82E1612F02E00E94B7
:10547000A9678091B009882329F4CC16DD0611F4C0
:1054800022E101C020E1AE0184E0440F551F8A955E
:10549000E1F74C1B5D0B475E5E4F88E1612F0E9478
:1054A0005966185FE394103461F610C08091B0091A
:1054B000882329F487E0F81611F422E001C020E0E7
:1054C00086E0612F4EE756E00E945966DF91CF914A
:1054D0001F910F91FF90EF90DF90CF9008952F9242
:1054E0003F924F925F926F927F928F929F92AF9274
:1054F000BF92CF92DF92EF92FF920F931F93DF93B1
:10550000CF93CDB7DEB760970FB6F894DEBF0FBE6E
:10551000CDBF8D8780E060E04EED56E022E00E9436
:1055200059668D856AE046E656E02CE008EE16E006
:10553000EBE0EE2E7CE0C72E0E941A28882309F4A7
:10554000A9C33091E3092D85203669F0213630F466
:10555000822F8252843008F086C07EC04D8540384C
:1055600009F081C045C0333001F58091F3052091E9
:10557000F405922F9F708C599F4F9F7064E670E0E6
:105580000E94027684E690E0DC016A9FC0016B9F76
:10559000900D7A9F900D11248093F305892F8F70C1
:1055A000207F282B2093F4055EC0393009F05BC0C2
:1055B0008091FA052091FB05922F9F708C599F4F87
:1055C0009F7064E670E00E94027684E690E0FC0141
:1055D0006E9FC0016F9F900D7E9F900D1124809350
:1055E000FA05892F8F70207F282B2093FB053BC065
:1055F0003330C1F48091F3052091F405922F9F7010
:105600008C5B924019F084E992E002C088E295E058
:105610008093F3059F708091F405807F892B8093A0
:10562000F40521C03930F9F48091FA052091FB0589
:10563000922F9F708C5B924019F084E992E002C037
:1056400088E295E08093FA059F708091FB05807F4A
:10565000892B8093FB0507C08091AF09882319F03F
:1056600084E08093A20F8091AF09882319F442E06F
:105670004A8302C051E05A8368EF462E65E0562EF9
:1056800088E59FE098878F83188A1F86A4E0B0E0A2
:10569000BC87AB87E3E0F0E0FA87E98742E050E0BF
:1056A0005E834D8381E090E09C838B83632E77241F
:1056B00067FC70949A81906E9E878091AE09AB8151
:1056C0008A17C8F40B811C81081B110953E0000FD5
:1056D000111F5A95E1F780E0602F43ED56E020E07E
:1056E0000E9459664F8558894F5F5F4F8CE0602F4D
:1056F00020E00E94AA688091AE09BD818B1708F056
:1057000059C06D817E81681B710943E0660F771F68
:105710004A95E1F7162F84E04EEC56E020E00E9417
:105720005966EF85F88933E0EE0FFF1F3A95E1F7F0
:105730002F853889E21BF30BEC50FA4F808182955C
:105740008F704D815E816416750611F000E001C016
:1057500002E090E0AC01440F551F440F551F480F65
:10576000591F4D53594F8AE2612F25E00E942E6A3E
:105770008D819E8168167906E9F40F85188983E08A
:10578000000F111F8A95E1F7AF85B8890A1B1B0B23
:105790000C501A4FF801608162956F708D8540E062
:1057A00021E00E94E3278295807FD8019C919F7021
:1057B000982B9C938091AE09B9858B1708F08EC009
:1057C00069857A85681B710913E0660F771F1A9542
:1057D000E1F7162F84E04EEB56E020E00E94596678
:1057E000EF85F889B3E0EE0FFF1FBA95E1F72F853B
:1057F0003889E21BF30BED50FA4F408151815F7005
:1058000089859A856816790611F020EE01C022EE8E
:105810008BE2612F00E00E94A9678091070F612F42
:1058200046E70E945566EF85F889A3E0EE0FFF1F5B
:10583000AA95E1F7AF85B889EA1BFB0BEC50FA4F4C
:10584000808182958F7011F580E6612F4F85EF8101
:10585000F885208100EE0E94917085E4612F4AEB6B
:1058600056E00E9494661D5F87E5612F47E020E0C7
:105870000E943F6711508CE5612F40E00E94CE6688
:105880001E5F8CE5612F40E00E94CE6629853A8537
:105890006216730619F5EF84F888F3E0EE0CFF1C2E
:1058A000FA95E1F74F855889E41AF50A83EF95E0F8
:1058B000E80EF91ED7016C9111967C917F708D8551
:1058C00040E050E02FEF3FE002E00E941E27F7018A
:1058D00080839F708181807F892B8183EB8480917D
:1058E000AE098E1508F07FC06B857C85681B710939
:1058F000E3E0660F771FEA95E1F7162F84E044EBAB
:1059000056E00E949466FF84D2012C91EB85FC85C1
:105910006E167F0631F48091E409882311F40E8518
:1059200001C000EE8BE2612F4F2D0E94917080919B
:10593000070F8A5F612F41EB56E00E9494669091B9
:10594000070FD20111962C91EB85FC856E167F0610
:1059500031F48091E409813011F40E8501C000EE2C
:10596000892F8A5F612F4F2D0E9491702B853C8576
:1059700062167306C1F58091E409882309F084C199
:105980008091AF09882339F48091D1099091D2098F
:10599000892B09F479C1D2016C9111962C918D85D6
:1059A00070E040E050E030E002E00E941E27F2018B
:1059B00080836AC18091AF09882331F48091D10935
:1059C0009091D209892B79F0D20111966C9111979F
:1059D0004C918D8570E050E02FEF30E002E00E94A6
:1059E0001E27F2018183E394E9828F85988973E011
:1059F000880F991F7A95E1F72F853889821B930BC1
:105A000065EF262E65E0362E280E391EEE24FF2483
:105A100057EFC52E55E0D52EC80ED91E8091AE0980
:105A20003981831708F0F6C0A32EBB248501081B1B
:105A3000110943E0000F111F4A95E1F7102F84E090
:105A4000602F4BEA56E020E00E9459664E2D4F5CD5
:105A50008091070F602F0E945566D6019C919F7020
:105A60004701880C991C6A147B0431F48091E40985
:105A7000882311F40A8101C000E0892F90E0082CEE
:105A800002C0959587950A94E2F783709070AC01F7
:105A9000440F551F480F591F4256594F80E3612F3D
:105AA00023E00E942E6AF6014081429543706A14F9
:105AB0007B0431F48091E409813011F40A8101C042
:105AC00000E050E00E2C02C0559547950A94E2F78D
:105AD000417050704556594F8EE4612F21E00E946D
