:100000000C94580C0C94750C0C94750C0C94750C89
:100010000C94750C0C94750C0C94750C0C94750C5C
:100020000C94750C0C94750C0C94750C0C94750C4C
:100030000C942C0E0C94750C0C94750C0C94B00E46
:100040000C948F0D0C94750C0C94750C0C94750C11
:100050000C94750C0C94750C0C94750C0C94750C1C
:100060000C94750C0C94AE0D0C94750C0C94750CD2
:100070000C94750C0C94750C0C94750C0C94750CFC
:100080000C94750C0C94750C0C94750C804000004D
:1000900000000000000000000000000000F0080464
:1000A0000484444444444444444444444444444410
:1000B00044C4040488700000000000000000000038
:1000C0000000000000000000000000000000000030
:1000D0000000000000000000000000000000000020
:1000E0000000000000000000000000000000000010
:1000F0000000000000000000000000000000000000
:1001000000000000000000000000000000000000EF
:1001100000000000000080808080808080BF8080A0
:1001200080BF808080800000304848484848484868
:100130004888090908F00000000101017F01010160
:100140000100007F49494949414140007F4040400A
:10015000404040007F49494949414140007F0106F4
:100160000C10100C06017F00007F494949494141AC
:10017000400101017F0101010100007F0909090916
:1001800019294E000103060C780C0603010000003B
:1001900000F8FEFFFFFF0F0707070707073747872E
:1001A00087879797075FDFDFDFDED880101010109A
:1001B000100F0080403F80C0E0E0E06020000000C1
:1001C000000000000000000000000000000000002F
:1001D000000000000000000000000060D09090903F
:1001E0009090000000F09090909010100000F0901F
:1001F0009090909090E00000F0000000F0909090BF
:100200009010100060D0909090909000000000003E
:10021000000107070F0F0F0E1E1E1E1E1E1E0E0EC4
:100220000E0E0E8ECEEEFCF973270F1F3F7EFCF9EB
:10023000F1F1F9FC3E1F0F07030100000000000070
:1002400000000000000000000000000000000000AE
:10025000000000000000000000000002060404048A
:100260000404030000070404040404040400070059
:10027000000000010204000007000000070404045D
:10028000040404040206040404040403000000003F
:100290000000000000040C1C1C1C1C1C1E1E1E0E5A
:1002A0000E0F070703030180C0E0F0F87C3E1F0F2C
:1002B00007070F1F3F7EFCF8F0E0C0800000000041
:1002C00000000000000000007E4A4A4A4A4A7C00C2
:1002D00002060C7008040202000000001C224141CA
:1002E0004949493A1800007E12121212324C00009D
:1002F0003E40404040403E00020C186060300C021E
:10030000007E00007E020C1830407E0000000000DD
:1003100000E0101010E00000C0804080000080402D
:1003200040800000CC8E4F8F0F070301000000605B
:10033000909010000000804143870F0FCF0E0CC03B
:100340000000C08040C0000080404040000080406D
:1003500040800000000000000000000000000000DD
:10036000000000000000000000000000000000008D
:10037000000000000000000000000000000000007D
:10038000000000000000000000000000000000006D
:1003900000070808080700003F04080700000709D5
:1003A000C94940408F00000F000000000000000815
:1003B0000808090600000708080700000708040FDE
:1003C00000000F00000000400708080800000709AF
:1003D0000909000000C8000008C000080000000073
:1003E000000000000000000000000000000000000D
:1003F0000000C0000000C00000000000000000007D
:1004000000000000000000C000000000000000002C
:10041000000000000000200000200000200000007C
:100420003F0404040300001E21211E0007380E0EA5
:100430003807001E25252600003F020103000000AA
:10044000000000000001013F00003F02013E0000EB
:10045000000000000000033C030000001E21211EDC
:1004600000001F20103F003F0201030000000000B9
:1004700000003F0202023F00001925151E20003F28
:1004800002013E001E21123F0000222529110052C8
:10049000554420454C45205448522041494C205257
:1004A00055442054485220454C452041494C204158
:1004B000494C20454C452054485220525544204137
:1004C000494C2054485220454C4520525544200068
:1004D00000000000000001081E640101081E640104
:1004E000010F32960A0A1E32960301020004050625
:1004F000076D656E75537461636B206F7665726608
:100500006C6F77006D656E75537461636B20756EEB
:10051000646572666C6F7700707265737320616ECC
:1005200079204B657900414C455254004D45535359
:1005300041474500506C6561736520726573657451
:10054000207468656D005377697463686573206E05
:100550006F74206F666600414C45525400416C61D7
:10056000726D732044697361626C65640054485213
:10057000206E6F742069646C6500454550524F4D84
:10058000206C6F77206D656D004F46464142535297
:100590005573525525454C73454C25544873544862
:1005A00025414C73414C255031205031255032208B
:1005B0005032255033205033250054485252554470
:1005C000454C4549443049443149443241494C47FE
:1005D000454154524E535731535732535733535763
:1005E00034535735535736004F4646004F4E200080
:1005F0002D2D2D002D2D2D20434831204348322014
:10060000434833204348342043483520434836206C
:100610004348372043483820434839204348313045
:100620004348313143483132434831334348313410
:1006300043483135434831364348313743483138F0
:1006400043483139434832304348323143483232EB
:1006500043483233434832344348323543483236D4
:1006600043483237434832384348323943483330BD
:10067000005031202050322020503320204D41584E
:100680002046554C4C50504D3150504D3250504DED
:100690003350504D3450504D3550504D3650504DD4
:1006A0003750504D38434831204348322043483377
:1006B00020434834204348352043483620434837B8
:1006C000204348382043483920434831304348319B
:1006D0003143483132434831334348313443483160
:1006E0003543483136434831374348313843483140
:1006F000394348323043483231434832324348323A
:100700003343483234434832354348323643483223
:1007100037434832384348323943483330002D2D6F
:100720002D2D00564552533A2056312E322D6772E8
:100730007576696E00444154453A2032392E303680
:100740002E323031310054494D453A2031333A3060
:10075000313A3333002053564E3A206672736B7928
:100760002D723539350020424C443A203133001285
:10077000081200081C0808081C080000082200498C
:100780000022080000000000227F22000000082252
:100790000049002208000008220049002208000049
:1007A00000227F22000000000008220049002208E9
:1007B0000000081C0808081C0800A736E137043DA3
:1007C0007F45A24AD935163FD249C32F042E413363
:1007D000783307349E3470756C73652074616220C1
:1007E0006F766572666C6F77005448525255444577
:1007F0004C4549443049443149443241494C4745CC
:100800004154524E53573153573253573353573441
:1008100053573553573600544852525544454C456A
:1008200049443049443149443241494C4745415497
:10083000524E5357315357325357335357345357FC
:10084000355357360020202054546D0045787045AC
:100850007846466E654D656443727300544F54008C
:100860005354250053544B0054535700544D4500E6
:1008700053544154005B4D454E555D20746F2072BA
:1008800065736574007431306D7320202020202042
:1008900020202020757300746D61696E206D617871
:1008A0002020202020206D7300746D7231204A6951
:1008B0007474657220202020757300746D72314C41
:1008C0006174206D696E20202020757300746D7234
:1008D000314C6174206D61782020202075730053A5
:1008E00054415432004D6F646500416C61726D205B
:1008F0005761726E696E67004D656D6F7279205732
:1009000061726E696E67005377697463682057611E
:10091000726E696E67005468726F74746C652057EC
:1009200061726E696E670053706C617368207363E7
:100930007265656E004F4646004C69676874206FAB
:100940006666206166746572004C6967687420731E
:10095000776974636800466C617368206F6E20620B
:10096000656570004265657020636F756E74646FB5
:10097000776E004D696E7574652062656570005410
:1009800068726F74746C6520726576657273650049
:1009900053494E474F534D5046494C540046696C9D
:1009A0007465722041444300496E616374697669DD
:1009B000747920616C61726D004261747465727942
:1009C000207761726E696E6700436F6E7472617337
:1009D000740051756965744E6F4B65794E6F726D19
:1009E000204C6F6E6720784C6F6E670042656570B3
:1009F000657200524144494F2053455455500043BD
:100A0000616C004D756C7469706C69657200636827
:100A100031636832636833636834006F6666202B25
:100A20003D203A3D006D6F646520202025207372C3
:100A3000632020737700536C6176650054524149FE
:100A40004E45520000030303030056455253494FDD
:100A50004E005472696D2D202B00204D656E75205F
:100A60004578697420446F776E2020205570526954
:100A7000676874204C656674004449414700413101
:100A800041324133413441354136413741380041EB
:100A90004E41003C202020203E005365744D696487
:100AA000205365745370616E446F6E652020200082
:100AB00043414C4942524154494F4E004475706C79
:100AC00069636174696E67206D6F64656C0066723E
:100AD0006565004D4F44454C53454C0044454C45DD
:100AE0005445204D4F44454C2020205B4D454E55EC
:100AF0005D00504F534E454700536869667420535C
:100B0000656C0075536563003443482036434820C4
:100B10003843482031304348313243483134434828
:100B2000313643480050504D20202053494C565FE9
:100B30004153494C565F4253494C565F43545241CE
:100B40004330390050726F746F0052455441313256
:100B500033004265657020437472005472696D20E1
:100B6000537700457870202020457846696E6546A9
:100B7000696E6520204D656469756D436F617273A0
:100B800065005472696D20496E6300542D4578707C
:100B90006F00542D5472696D00436F756E7420445C
:100BA0006F776E436F756E74205570202000546906
:100BB0006D65722000547269676765720054696DD3
:100BC0006572004E616D6500534554555000000933
:100BD000010000000000000602005B4D454E555D1F
:100BE00020205B455849545D005945532020202062
:100BF000204E4F0044454C455445204D4F44454CF4
:100C000000204142434445464748494A4B4C4D4EDB
:100C10004F505152535455565758595A3031323318
:100C20003435363738395F2D2E0065787020202511
:100C3000202073773120737732004558504F2F446E
:100C40005200000344522048696768004452204C17
:100C50006F77004452204D6964004472537732002C
:100C6000447253773100576569676874004578703E
:100C70006F004558504F2F445200002D2D2D783EC7
:100C800030783C307C787C663E30663C307C667CDC
:100C90006331206332206333206334206335206363
:100CA0003620633720633820633920633130633165
:100CB000316331326331336331346331356331361B
:100CC000002B2A52004D49584552005072657373EB
:100CD000205B455849545D20746F2061626F7274C7
:100CE000004D6178206D697865727320726561636B
:100CF000683A200044454C455445204D4958205BF6
:100D00004D454E555D00536C6F7720205570005354
:100D10006C6F772020446F776E0044656C6179209A
:100D200055700044656C617920446F776E004164B2
:100D30006420202020204D756C7469706C79526598
:100D4000706C61636520004D756C747078004F465F
:100D500046005761726E696E670053776974636805
:100D6000002D2D2D783E30783C307C787C663E30EE
:100D7000663C307C667C63312063322063332063C1
:100D8000342063352063362063372063382063398D
:100D90002063313063313163313263313363313455
:100DA00063313563313600437572766573004F4E9B
:100DB000204F4646005472696D004F666673657435
:100DC0000057656967687400536F75726365004505
:100DD000444954204D49582000494E53455254200F
:100DE0004D495820002D2D2D2D202020763E6F6658
:100DF000732020763C6F667320207C767C3E6F6685
:100E0000737C767C3C6F6673414E44202020204FDB
:100E1000522020202020584F522020202076313D83
:100E20003D7632207631213D76322076313E763263
:100E3000202076313C7632202076313E3D763220BD
:100E400076313C3D76322000535700435553544F82
:100E50004D205357495443484553000002434C45E5
:100E60004152204D49584553205B4D454E555D003C
:100E70002052455441004368616E6E656C204F728C
:100E80006465720054454D504C4154455300434FE6
:100E90005059205452494D205B4D454E555D002D13
:100EA0002D2D494E56004C494D4954530000030323
:100EB00003030303030303030303030303030043C5
:100EC0005600435552564553005052455345540021
:100ED000454449542D3E0043555256450009004FA4
:100EE00046464F4E2000454550524F4D206F766587
:100EF00072666C6F7700454550524F4D206F766596
:100F000072666C6F770067656E77726974652065CD
:100F100072726F7200454550524F4D20466F726D90
:100F2000617474696E670042616420454570726F38
:100F30006D2044617461004D4F44454C20202020B9
:100F4000200050085000000000000000006F00006A
:100F500007000700147F147F14242A7F2A1223130A
:100F600008646236495522500005030000001C2227
:100F700041000041221C0014083E081408083E08E5
:100F800008005030000008080808080060600000F1
:100F90002010080402003E41413E0000427F400014
:100FA000625149460041494936001814127F002712
:100FB000454539003E49493200017905030036496B
:100FC0004936000649291E00003636000000563614
:100FD00000000814224114141414144122140800AF
:100FE000020151090606090906007E0909097E7FEA
:100FF000494949363E414141227F4141221C7F49B6
:101000004949417F090909013E4149497A7F080858
:10101000087F00417F41002040413F017F081422AA
:10102000417F404040407F020C027F7F0408107FD8
:101030003E4141413E7F090909063E4151215E7F03
:1010400009192946264949493201017F01013F40DA
:1010500040403F1F2040201F3F4030403F63140866
:10106000146307087008076151494543007F4141F7
:101070000002040810200041417F00040201020424
:101080004040404040000102040020545454787F06
:10109000484444383844444420384444487F385411
:1010A000545418087E0901020C5252523E7F080423
:1010B000047800447D40002040443D007F102844D7
:1010C0000000417F40007C041804787C0804047808
:1010D00038444444387C14141408081414187C7CD4
:1010E000080404084854545420043F4440203C4021
:1010F00040207C1C2040201C3C4020403C442810C8
:1011000028440C5050503C4464544C440008364130
:101110000000007F000000413608000808221C087B
:10112000081C220808A060800000000000000000E9
:10113000000000000000FFFF0000000000001F3F53
:1011400000003F1F00003030FFFF3030FFFF303025
:101150003078CCCCFFFFCCCC8C0C060F0F86C0E0D7
:1011600070381C0C3CFEC7E3F33B1E0C0000000073
:10117000333B1F0F000000000000F0F81C0E0703B7
:101180000000000003070E1CF8F000003030E0C043
:10119000FCFCC0E03030C0C0C0C0FCFCC0C0C0C05F
:1011A00000000000000000000000C0C0C0C0C0C0BF
:1011B000C0C0C0C00000000000000000000000002F
:1011C0000080C0E070381C0C00000000000000002F
:1011D000000000000000383800000000000000009F
:1011E00000000000000003033F3F03033F3F0303F1
:1011F0000C0C0C0C3F3F0C0C07030C0E07030100FA
:10120000183C3C180F1F383133331E1E3333000097
:101210000000000000000000000003070E1C383032
:101220000000000030381C0E07030000030301001B
:101230000F0F00010303000000000F0F000000006B
:101240000000333B1F0F0000000000000000000002
:10125000000000000000183C3C18000000000C0ECC
:1012600007030100000000000000FCFE0703030765
:10127000FEFC00000C0EFFFF0000000000000C0E42
:101280000783C3E77E3C00000303C3C3C3E7FE3C00
:101290000000C0E070381C0EFFFF00003F3F3333FA
:1012A0003373E3C30000FCFEC7C3C3C78E0C00004A
:1012B0000303C3E3733B1F0F00003CFEE7C3C3E718
:1012C000FE3C00003C7EE7C3C3E7FEFC0000183C88
:1012D0003C18000000000000183C3C180000000012
:1012E0000000C0E0F0381C0E0703303030303030E2
:1012F0003030303003070E1C38F0E0C000000C0E18
:1013000007030383C3E77E3C00000F1F38303038EB
:101310001F0F000030303F3F3030000000003C3EE7
:1013200037333130303000003030303030391F0F3B
:1013300000000303030303033F3F00000C1C38308D
:1013400030381F0F00000F1F383030391F0F0000DA
:1013500000003F3F0000000000000F1F393030390F
:101360001F0F0000000030381C0E07030000060F9E
:101370000F06000000000000333B1F0F00000000BC
:101380000000000103070E1C3830030303030303AE
:101390000303030330381C0E0703010000000000A4
:1013A00000003333010000003C7EE7C3C3E77E3C0E
:1013B0000000F0F8DCCEC7C7CEDCF8F0FFFFC3C3F7
:1013C000C3C3C3E7FE3CFCFE0703030303070E0C85
:1013D000FFFF030303070E1CF8F0FFFFC3C3C3C3E3
:1013E000C3C30303FFFFC3C3C3C3C3C30303FCFEE1
:1013F0000703C3C3C3C7CECCFFFFC0C0C0C0C0C0BB
:10140000FFFF00000303FFFF0303000000000000D4
:101410000303FFFF0303FFFFC0E0F0381C0E0703C8
:10142000FFFF0000000000000000FFFF0E1CF8F8A6
:101430001C0EFFFFFFFF3870E0C08000FFFFFCFEC6
:10144000070303030307FEFC000000000000000088
:1014500000003F3F0000000000003F3F3F3F3030B2
:10146000303030391F0F0F1F3830303030381C0CFF
:101470003F3F303030381C0E07033F3F30303030B4
:10148000303030303F3F00000000000000000F1FF0
:101490003830303030383F1F3F3F00000000000040
:1014A0003F3F000030303F3F303000000C1C3830F0
:1014B00030381F0F00003F3F000103070E1C38307B
:1014C0003F3F30303030303030303F3F00000000A0
:1014D00000003F3F3F3F0000000103073F3F0F1F59
:1014E0003830303030381F0FFFFFC3C3C3C3C3E7EA
:1014F0007E3CFCFE070303030307FEFCFFFFC3C3A0
:10150000C3C3C3E77E3C3C7EE7C3C3C3C3C78E0CE3
:1015100003030303FFFF03030303FFFF00000000B7
:101520000000FFFFFFFF000000000000FFFFFFFFC3
:10153000000000000000FFFF0F1F38F0E0E0F0386F
:101540001F0F3F7FE0C08080C0E07F3F0303038325
:10155000C3E3733B1F0F0000FFFF030303030000FF
:101560000C1C3870E0C0800000000000030303037F
:10157000FFFF000030381C0E07070E1C383000003B
:1015800000000000000000003F3F000000000000DD
:1015900000000F1F383033371E1C3F333F3F000021
:1015A00003070E1C38300C1C3830303030391F0F18
:1015B000000000003F3F000000000F1F38303030B7
:1015C00030381F0F03070E1C38381C0E07030F1F7F
:1015D00038381F1F38381F0F3C3E0703010103072F
:1015E0003E3C000000013F3F010000003C3E37331D
:1015F00031303030303000003F3F3030303000008C
:1016000000000000000103070E0C000030303030F5
:101610003F3F0000000000000000000000003030EC
:101620003030303030303030000003070E1C38309E
:1016300000000000303030303070E0C0FFFFC0E00C
:1016400070303070E0C0C0E07030303030300000BA
:10165000C0E070303070E0C0FFFFC0E0703030306C
:101660003070E0C0C0C0FCFEC7C303070E0CF0F82A
:101670009C0C0C0C0C0CFCFCFFFFC0E070303070BC
:10168000E0C000003030F3F3000000000000000074
:101690003030F3F30000FFFF0080C0E07030000046
:1016A00000000303FFFF00000000F0F03070E0E0F6
:1016B0007070E0C0F0F0C0E070303070E0C0C0E0AA
:1016C000703030303070E0C00000000000000000DA
:1016D00000000C1E3F33333333333F3F3F3F303046
:1016E000303030381F0F0F1F3830303030381C0C7E
:1016F0000F1F3830303030303F3F0F1F3B33333314
:101700003333030300003F3F0000000000000001EE
:1017100033333333333B1F0F3F3F000000000000E3
:101720003F3F000030303F3F303000000C1C38306D
:1017300030381F0F00003F3F03070F1C38300000F8
:10174000000030303F3F303000003F3F00000303D7
:1017500000003F3F3F3F0000000000003F3F0F1FE1
:101760003830303030381F0FF0F03030303030F05B
:10177000E0C0C0E0F0303030E0C0F0F0F0F0C0E0A9
:1017800070303070E0C0C0E0F030303030300000F9
:101790003030FFFF303000000000F0F000000000AB
:1017A0000000F0F0F0F0000000000000F0F0F0F0B9
:1017B000000000000000F0F03070E0C08080C0E069
:1017C0007030F0F0800000000000F0F03030303079
:1017D00030B0F0F070300000C0E03C3E0703000085
:1017E00000000000FFFF00000000000003073E3C77
:1017F000E0C00000C0C0C0C00C1CF8F0E0C0C0E0F9
:10180000F0F81C0CC0C0C0C03F3F03030303030338
:10181000010000010303030303033F3F3F3F0000B8
:10182000000000000000303133333333333F1E0CEF
:1018300000000F1F383030381C0C0F1F3830303884
:101840001C0C3F3F03070E1C38381C0E07030F1FEC
:1018500038381C1C38381F0F30381C0F07070F1C76
:101860003830000133333333333B1F0F30383C3EC5
:10187000373331303030000000010F1F38300000A6
:10188000000000003F3F00000000000030381F0F44
:1018900001000000000000000C0E07030100000121
:1018A00003070E0C00000000408008042010020115
:1018B00011241FBECFEFD0E1DEBFCDBF12E0A0E00C
:1018C000B1E0E2E2F0EC02C005900D92A437B1075E
:1018D000D9F71FE0A4E7B2E001C01D92A33AB10717
:1018E000E1F70E94F2140C940F600C9400009AE04F
:1018F000899F9001112426523D4FC901089595E01A
:10190000899F90011124265E3B4FC90108958730BD
:1019100038F4E82FF0E0EE0FFF1FE555FA4F31C025
:10192000893018F4E0E0F4E02FC08D3088F4E82F1F
:10193000F0E0EE0FFF1FDF01AC56BD4FE75CFA4F42
:101940000190F081E02D8D919C91E81BF90B0BC06B
:10195000813160F4E82FF0E0EE0FFF1FE75CFA4FF3
:101960000190F081E02DEE0FFF1F0EC0813218F0C4
:10197000E0E0F0E009C0E82FF0E0EE0FFF1FE956CD
:10198000FA4F0190F081E02DCF010895E0913605E6
:10199000F0E0EE0FFF1FE25DFA4F80819181089524
:1019A000FC01A0913605B0E0AA0FBB1FA45DBA4FA1
:1019B0008D939C938FEB0995809138058093370523
:1019C0000895E82FF0E0E751FB4FE491F0E0EE0FCF
:1019D000FF1FE559FA4F8FB7F8940190F081E02D81
:1019E00087FF01C07894CF010895ABE6B5E0EBE73F
:1019F000F5E060E0862F806487B9369A349BFECF8D
:101A0000349A208931898D919C911197969587956B
:101A1000820F931F8E7F8D939D9340815181240F60
:101A2000351F36952795318B208B84B195B1840F66
:101A3000951F96958795819391936F5F6830D1F646
:101A40000895DF93CF93CDB7DEB760970FB6F894C4
:101A5000DEBF0FBECDBFFE01319680E1DF011D92DA
:101A60008A95E9F7ABE6B5E050E015C067B9369A5C
:101A7000349BFECF349A84B195B1280F391F4F5F44
:101A80004430A1F721933193369527952D933D93BB
:101A90005F5F583031F02081318140E0652F606414
:101AA000E5CF60960FB6F894DEBF0FBECDBFCF91E5
:101AB000DF910895EBE6F5E020E0822F806487B99E
:101AC000369A349BFECF349A84B195B1880F991F12
:101AD000819391932F5F283081F708958091370586
:101AE000882341F480914805882321F480914A0598
:101AF000882311F084E105C080916005882321F0DE
:101B000081508093600508C08091630090E09695B5
:101B100087958170809361058091610508951F927A
:101B20000F920FB60F9211248F9380915D058F5FF6
:101B300080935D058F910F900FBE0F901F901895A9
:101B400040915D0522B780915D054817C9F7942F34
:101B500080E030E0282B392BC901089578941F923A
:101B60000F920FB60F9211242F933F934F935F93D1
:101B70006F937F938F939F93AF93BF93CF93DF9395
:101B8000EF93FF93C0918000D0918100F8948091F1
:101B90007D008F7D80937D00789480916205909187
:101BA00063059E01281B390B36952795C901815A7B
:101BB0009F408F5D9E4220F481E080935B052EC0A4
:101BC00040915B05842F8150883040F5C9018152D6
:101BD00093408757954000F5E42FF0E0EE0FFF1F8C
:101BE000E75BFA4F2C5D35408091BE02992787FD57
:101BF00090950A96BC01269FC001279F900D369FA5
:101C0000900D11246AE070E00E947D5F7183608313
:101C10004F5F40935B0502C010925B05D093630554
:101C2000C0936205F89480917D00806280937D006E
:101C30007894FF91EF91DF91CF91BF91AF919F91F8
:101C40008F917F916F915F914F913F912F910F9065
:101C50000FBE0F901F9018951F920F920FB60F9204
:101C600011242F933F934F935F936F937F938F93A1
:101C70009F93AF93BF93EF93FF9390E08CB58A301F
:101C800008F066C09F5F923309F462C0F7CFC09A34
:101C90001092650504C0C09881E08093650580912D
:101CA000AC079091AD079C012417350708F49A0101
:101CB0003093AD072093AC07809108019091090102
:101CC0009C014217530708F49A01309309012093AD
:101CD0000801A0910601B0910701FD018191919148
:101CE0009BBD8ABDF0930701E093060112968D918A
:101CF0009C911397892BB1F482EB97E090930701A5
:101D0000809306018091D60280936505F89487B789
:101D10008F7E87BF78940E949B1AF89487B7806162
:101D200087BF789480915C05816080935C05FF910A
:101D3000EF91BF91AF919F918F917F916F915F9143
:101D40004F913F912F910F900FBE0F901F901895BC
:101D50004CB55DB580916505882309F098CF9BCF80
:101D600078941F920F920FB60F9211242F933F93E6
:101D70004F935F936F937F938F939F93AF93BF9393
:101D8000CF93DF93EF93FF93F89487B78D7F87BF4F
:101D900081B7845681BF7894F894CCB5DDB578943A
:101DA00090913705992369F080914905882329F49A
:101DB0009093490581E080934A05915090933705AF
:101DC00021C0309148053323B9F0209149052223E1
:101DD00099F090E080914A05882309F491E090936E
:101DE0004A05992309F428E020933705992351F0F7
:101DF00031503093480506C01092490510924A05AB
:101E000010922B0580914A05882381F080912B0543
:101E1000882311F490E004C09091640581E0982734
:101E200090936405992311F41B9A01C01B980E949A
:101E3000C65980915C05826080935C05F8948CB5EE
:101E40009DB578948C1B9D0B9093B1078093B00740
:101E5000F89487B7826087BF7894FF91EF91DF9104
:101E6000CF91BF91AF919F918F917F916F915F9132
:101E70004F913F912F910F900FBE0F901F9018958B
:101E8000AF92BF92CF92DF92EF92FF920F931F9388
:101E9000CF93DF93D82EB42E35E03B1508F419C14B
:101EA000DD2009F419C180E1D81609F414C190EFBE
:101EB000D91609F40EC12D2D332727FD3095C90100
:101EC00037FF04C088279927821B930B8A308CF434
:101ED0001D144CF08DE090E0821B930B0E941D5965
:101EE00061E06827F9C0C9010D960E941D59682F4D
:101EF000F3C0E82EFF24E7FCF09486EF9FEFE80E96
:101F0000F91ED701AA0FBB1FAE0DBF1DA054BD4FB8
:101F1000A85ABD4F8C91A855B240882309F4D9C066
:101F2000FD01EA5AFD4FC080ED01C95ADD4FA8807E
:101F3000853008F4DDC0883028F400E010E020E0AF
:101F400030E00AC08C2D81500E94870C8C01888162
:101F500081500E94870C9C01F701EE0FFF1FEE0DD0
:101F6000FF1DE85EFA4FE081E73009F483C0E830F6
:101F700088F4E33069F1E43030F4E13009F1E23023
:101F800009F0A7C021C0E53009F456C0E63008F0DA
:101F900066C038C0EA3009F488C0EB3038F4E83065
:101FA00009F479C0E93009F094C07AC0EC3009F442
:101FB00086C0EC3008F47EC0ED3009F08AC084C0E1
:101FC0001D140CF472C080C01D140CF473C077C0D3
:101FD0001D1464F460E0C80117FF03C0909581955B
:101FE0009F4F281739070CF077C075C060E0C80113
:101FF00017FF03C0909581959F4F281739070CF460
:102000006BC069C01D1464F460E0C80117FF03C011
:10201000909581959F4F821793070CF05DC05BC030
:1020200060E0C80117FF03C0909581959F4F82170C
:1020300093070CF451C04FC01B2D1F5F8C2D60E027
:10204000412F0E94400F882309F443C08A2D60E08D
:10205000412F0E94400F682F8823F1F13CC0B394B8
:102060008C2D60E04B2D0E94400F8823A1F5DA2CC7
:1020700060E012CF1B2D1F5F8C2D60E0412F0E946E
:10208000400F082F8A2D60E0412F0E94400F60E032
:10209000081709F521C060E002171307E9F41BC017
:1020A00060E002171307B9F417C060E0201731078A
:1020B0009CF411C060E00217130774F40CC060E0D8
:1020C000021713074CF007C060E02017310724F017
:1020D00002C060E001C061E0862FDF91CF911F91C7
:1020E0000F91FF90EF90DF90CF90BF90AF90089549
:1020F0008C2D81500E94870C8C012881822F27FD16
:102100008D5F85958595E82FFF27E7FDF0953AE0EF
:102110002302C0011124E80FF91F822F27FD815CE3
:1021200086FB880F880B80F9992787FD90959F0182
:10213000281B390B11CF8F929F92AF92BF92CF92F3
:10214000DF92EF92FF920F931F93CF93DF93182F9D
:102150007B014A015901C02E84FD04C034E0D32E16
:1021600005E005C01F70106625E0D22E04E08D2D1D
:102170008066181761F08D2D8064181741F09091DA
:10218000DA05992361F0133611F0133441F4E701B5
:1021900021968091380580933705802F17C0802FB6
:1021A0008066181761F0802F8064181741F099231A
:1021B00009F470C0123619F0123409F06BC0E7014F
:1021C000219780913805809337058D2D90E00E94EE
:1021D0001D59882351F0CC27DD27CE19DF09802F28
:1021E0000E94A4598D2D0E94A4598114910491F448
:1021F00081E0A816B10471F4103661F41092DA058A
:10220000C0E0D0E0E114F10411F4C1E0D0E080E6D8
:102210000E94A4598091400590914105C81BD90B9B
:10222000AC16BD0644F4812F0E94A45980913A0552
:1022300080933705E501C815D90544F4812F0E9424
:10224000A45980913A0580933705E401CE15DF0546
:1022500089F0209739F4812F0E9495598091380593
:10226000809337058C2D83700E94974E81E0809378
:102270003D0502C010923D05CE01DF91CF911F9127
:102280000F91FF90EF90DF90CF90BF90AF909F9015
:102290008F900895E701A9CF0F93772767FD709579
:1022A000552747FD5095332727FD30950E949B10F9
:1022B0000F9108950F93772767FD7095552747FD78
:1022C0005095332727FD309501E00E949B100F9118
:1022D00008950F93772767FD7095552747FD509513
:1022E000332727FD309502E00E949B100F9108953F
:1022F0001F93182F682F6F7066502091D2022230E2
:102300006CF0332727FD30952150304081E090E07C
:1023100002C0880F991F2A95E2F7282F683008F02D
:1023200092C0962F9595222311F0422F15C0E92FC8
:10233000F0E0EE55FB4F8081482F552747FD509523
:1023400057FF03C0509541955F4F242F47FD2D5FE8
:10235000422F459545954F5FA92FB0E02091B802D7
:1023600030E02170307082E090E0821B930B8A177E
:102370009B0739F48091D1028F7019F044E071E02D
:1023800001C070E0242F332727FD3095FD01E05474
:10239000FD4F60FF0AC0EE51FE4F8081482F552748
:1023A00047FD5095420F531F09C0EE51FE4F8081EB
:1023B000482F552747FD5095421B530B411551059A
:1023C00071F0952F9095991F9927991F20E0FD0195
:1023D000EE55FB4F808187FF21E0921769F077234C
:1023E00059F4FD01EE55FB4F8081882329F01082BE
:1023F000812F0E94A45920C0CA0184589F4F893F51
:10240000910570F4AE55BB4F4C9382E00E94974EFD
:1024100016FF03C081E080932B058091380510C022
:102420001416150614F083E801C08DE7AE55BB4FB6
:102430008C9382E00E94974E10922B0580913A0572
:102440008093370510E0812F1F9108951F932091ED
:102450009F0F3091A00F40E08091690590916A052F
:102460002817390709F041E04093450580919F0FF7
:102470009091A00F90936A05809369058CED95E08B
:1024800060E00E94011D80914505882309F41FC169
:1024900080E00E94A84E0E9463580E948D580E94BE
:1024A0007811182F8091460590914705009729F0E3
:1024B00001979093470580934605112389F08091F9
:1024C000BC0290E024EF31E0AC01429FC001439F89
:1024D000900D529F900D11249093470580934605CF
:1024E0008091A50260E040E00E94400F882339F40B
:1024F0008091460590914705892B09F4E6C0C79A5B
:102500002091B7053091B80580913E0590913F0527
:10251000821B930B60E270E00E947D5F7093410527
:10252000609340056115710591F080916705909168
:102530006805821B930B62E070E00E947D5F7093E0
:1025400041056093400530933F0520933E0530934D
:10255000680520936705E0913605F0E0EE0FFF1F58
:10256000E45DFA4F0190F081E02D812F09950E94E2
:102570003D580E946E0D882321F0809165008F7E6A
:1025800003C08091650080618093650080919F0FFA
:102590009091A00F8F7190708230910521F0039778
:1025A00009F095C07BC08091420590914305892B2D
:1025B000A1F4E0EFF4E0E491F0E0EE0FFF1FE55945
:1025C000FA4F8FB7F8940190F081E02D87FF01C09A
:1025D0007894F0934305E093420560914205709131
:1025E0004305E0EFF4E0E491F0E0EE0FFF1FE55962
:1025F000FA4F8FB7F8942081318187FF01C078941A
:1026000040E050E0CB01E3E0880F991FEA95E1F745
:10261000861B970BA0E0B0E0280F391F4A1F5B1FF5
:1026200063E056954795379527956A95D1F7B90197
:1026300030934305209342058091A402992787FD9A
:102640009095880F991F880F991F680F791F84E252
:1026500090E09C01629FC001639F900D729F900D5E
:10266000112496959093440580916605805E809331
:102670006605882361F58091A302981740F5809143
:102680003C05809337058091BA0283FF20C082E326
:1026900090E0909347058093460519C08091B7025A
:1026A000869586958695877090E0BC01660F771FAA
:1026B000660F771F680F791F60537B4F88E395E0A3
:1026C00045E050E00E94CD5F02C0C79819CF1F912E
:1026D0000895FF920F931F938C01F62E0E9463586A
:1026E00082E260E046E255E024E00E94085680E085
:1026F00068E1A8010E9442568CE168E348E155E098
:102700000E9442560E943D58FF2011F089E102C00C
:102710008091A2020E94335880913C058093370536
:102720000E948D58807F803291F08091A50260E0F8
:1027300040E00E94400F882331F48091BC0288233E
:1027400011F4FF2011F0C79AEBCFC798E9CF1F9182
:102750000F91FF9008959C0180913605E82FEF5F5F
:10276000E0933605E53040F08093360581EF94E044
:1027700060E00E94691308958091380580933705C1
:10278000F0E0EE0FFF1FE45DFA4F318320838FEB03
:10279000F90109950895E0913605EE23B1F08823FB
:1027A00011F0E0E001C0E150E0933605809138057A
:1027B00080933705F0E0EE0FFF1FE45DFA4F0190C4
:1027C000F081E02D8EEB0995089584E095E060E0BE
:1027D0000E94691308958091B70287FD07C088732E
:1027E00029F48DE595E060E00E94691308950F9348
:1027F0001F93CF93DF938091B70280FD51C08091EA
:102800009F0F9091A00F4497D0F38091B80290E071
:102810008170907022E030E0281B390BE22FF0E04D
:10282000E751FB4FE491F0E0EE0FFF1FE559FA4F3F
:102830008FB7F8940081118187FF01C07894F90166
:10284000EE0FFF1FEC58FD4FC181D28127853089E3
:10285000058CF68DE02DC90168E070E00E947D5F77
:10286000621B730B6C0F7D1F6017710724F480913E
:10287000BA0280FF10C0CE0FDF1FCF0168E070E00A
:102880000E947D5FC61BD70B0C171D074CF480916F
:10289000BA0280FF05C08DE695E060E00E946913F2
:1028A000DF91CF911F910F9108950F931F938C018A
:1028B0000E94635882E260E04CE255E024E00E940E
:1028C000085680E068E1A8010E9442560E943D58E7
:1028D0008091A2020E9433581F910F9108951F9377
:1028E0008091B70281FD2FC00E94635882E260E0B0
:1028F00047E555E024E00E94085680E060E246E4A7
:1029000055E00E94425680E068E344E355E00E94AF
:1029100042560E943D588091A2020E9433581EE008
:102920000EC0113141F0812F8D5060E040E00E94D7
:10293000400F882311F41F5F02C01EE0F4CF163150
:1029400080F31631D1F71F9108958091B70282FD6F
:102950000AC00E943851883C910528F48AE795E026
:1029600060E00E94691308950F93CF93DF938091E5
:10297000BA0284FD33C00E94635880E060E04CE8F6
:1029800050E020E000E00E94BD540E943D5880913C
:10299000A2020E943358C0919F0FD091A00FC8533C
:1029A000DF4F12C00E948D58807F8032B9F0809135
:1029B000A50260E040E00E94400F882321F480914E
:1029C000BC02882349F0C79A80919F0F9091A00F75
:1029D000C817D90739F702C0C798F6CFDF91CF9152
:1029E0000F910895EF92FF920F931F93CF93DF9370
:1029F0009FEF9ABB1BBA81E887BB8EE788BB8EE34B
:102A000084BB81EC85BB11BA92BB88E082B987EFA9
:102A100083B9109261009093620080E1809364001A
:102A2000909365000E94F85780E487B985E886B9DD
:102A300087E083BF8CE981BF87B7836087BF8AE067
:102A40008EBD82E880938A0080917D0080628093B1
:102A50007D00789482EE95E290932D0580932C056D
:102A600089E10E9433580E9463500E94B4140E946E
:102A7000A5140E945A0D0E94F7130E946F140E9421
:102A8000EB130E949B1A2DE088E190E00FB6F894BA
:102A9000A89581BD0FBE21BD8CED95E060E00E9440
:102AA000011D87EA96E30E94AB1381E00E94CB13DD
:102AB0008091A2020E9433588091BC0290E024EFE2
:102AC00031E0AC01429FC001439F900D529F900D99
:102AD0001124909347058093460587B7806187BF8F
:102AE000F0905D05E2B680915D05F816C9F7E091BA
:102AF000BB02F0E0EE0FFF1FE050FF4F0190F081AE
:102B0000E02D09950E94261280915C05833019F40E
:102B1000A89510925C0520915D0532B780915D0506
:102B20002817C9F71F2D00E08E2D90E0802B912BE8
:102B3000D22FC0E0232F30E02C2B3D2B4091AE074D
:102B40005091AF07281B390B2417350708F49A0159
:102B50003093AF072093AE07C3CF0F93022F50E0FF
:102B6000440F551F440F551F4C505A4F24E00E94EC
:102B7000D6550F9108950F93022F442319F44EE177
:102B800057E01CC0242F30E04150443080F4409185
:102B9000B80250E0440F551F440F551F420F531FFA
:102BA000440F551F440F551F45575B4F07C0220F59
:102BB000331F220F331F235A394FA90124E00E94EB
:102BC000D6550F910895EF92FF920F931F93082F00
:102BD000F62E142FE22E442329F0403139F0403FE5
:102BE00081F408C08A5F40EF55E007C08A5F4CEE71
:102BF00055E003C08A5F48EE55E02E2D0E9408562E
:102C00001CC0441F4427441F405E0E941B55802F58
:102C10008A5F212F332727FD309537FF03C030957A
:102C200021953F4F43E02402A001112449545A4FFB
:102C30006F2D23E00E2D0E94D6551F910F91FF900E
:102C4000EF900895DF92EF92FF920F931F93F82E6B
:102C5000E62ED42E1091CB02812F992787FD9095D7
:102C600097FF03C0909581959F4F80319CF443E07E
:102C70008402A001112447575A4F8F2D6E2D23E057
:102C80000D2D0E94D6551F3F4CF58F2D86506E2D71
:102C900041E221C08F3174F411161CF4412F4F50C2
:102CA00002C0412F415F8F2D86506E2D2D2D0E9429
:102CB000E31514C011161CF4412F4E5102C0412FD0
:102CC000425E8F2D86506E2D2D2D0E94E3158F2D87
:102CD0008E5E6E2D4DE62D2D0E941B551F910F917E
:102CE000FF90EF90DF900895FF920F931F93182F9E
:102CF000062FF22E442321F4885E46E50E941B55E0
:102D000040914405812F885E602F50E02F2D0E9456
:102D1000D8571F910F91FF9008950F931F93062F7F
:102D2000122F20620E94D85717FD07C08091740FA0
:102D3000602F46E7212F0E941B551F910F91089588
:102D4000242F4091440550E00E948D160895AF92C3
:102D5000BF92DF92EF92FF920F931F93CF93DF9377
:102D6000F82ED62E5A01122FE02E202F21234AE3CF
:102D70000E941B55812F90E0EC01C470D07012FDB1
:102D800002C02F2D02C02F2D2E5FC5016CE370E015
:102D90000E947D5FAB011061822F6D2D212F02E01B
:102DA0000E94F556CD2B11F421E101C02CE1C501A3
:102DB0006CE370E00E947D5FAC0180E1E82A822F25
:102DC0008F0D6D2D2E2D02E00E94F556DF91CF91D3
:102DD0001F910F91FF90EF90DF90BF90AF900895FB
:102DE000FC0160E270E00E947D5F9B01CF0160E822
:102DF00070E00E947D5F261B370B2E0F3F1FCF0117
:102E000060E072E00E947D5F260F371FC9010895C0
:102E1000EAEDF2E090E080818150803108F49F5F1C
:102E20003A9684E0EA31F807B1F7892F08956F9256
:102E30007F928F929F92AF92BF92CF92DF92EF924A
:102E4000FF920F931F933B017C0100E010E0882468
:102E5000992464E670E080E090E0661977098809BB
:102E60009909A80197010E944A5F5B016C0182E306
:102E700090E0A0E0B0E0A80EB91ECA1EDB1EC8019B
:102E8000B7010E944A5F0E944A5FBC0188279927C8
:102E9000A40193010E944A5F24E096958795779557
:102EA00067952A95D1F7A60EB71EC81ED91EC60172
:102EB000B50124E630E040E050E00E94905FC90197
:102EC0001F910F91FF90EF90DF90CF90BF90AF9048
:102ED0009F908F907F906F900895FF920F931F9314
:102EE0009C01AB016115710531F1FF2497FF05C00D
:102EF000FF24F394309521953F4F57FF10C000E019
:102F000014E066277727641B750BC801821B930B9F
:102F10000E9417179801281B390BC90104C0C90169
:102F2000BA010E941717FF2011F49C0104C0222748
:102F30003327281B390BC9011F910F91FF9008956A
:102F4000282FE1E0FCE080E09491921731F0319677
:102F5000992311F08F5FF8CF80E00895883210F048
:102F600080E20895E82FF0E0EF5FF34F8491089539
:102F700010922D07109226071092250710922A070B
:102F800010922907109228071092270710922C07F9
:102F900010922B0708959C0140E0683008F041E052
:102FA00070E0442371F0CB010897FC0163E0EE0F61
:102FB000FF1F6A95E1F7E80FF91FDF01A253BB4F2E
:102FC0000AC0FB01EE0FFF1FEE0FFF1FE60FF71FFA
:102FD000DF01AA55BB4FFD01808120503C4F37FDDA
:102FE0000EC068E02030360784F0442319F484E0F2
:102FF00090E002C088E090E0A80FB91F8C9199275B
:1030000087FD9095582F442733C0442331F0432F38
:10301000B9017070660F771F04C0432F4695B90140
:103020007170842F90E0FD01E80FF91F81819927CD
:1030300087FD90959B0135952795829FA001839FE1
:10304000500D929F500D11242081332727FD30957C
:1030500080E092E0861B970B95958795BC01269F93
:10306000C001279F900D369F900D1124480F591FC6
:10307000CA0169E170E00E947D5FCB010895EF9283
:10308000FF921F93CF93DF931091D002110F185F1F
:103090009091D30284E69802C0011124EC01C85A31
:1030A000DD4F1A3028F448EC5FEA4C1B5D0B0DC075
:1030B0008853904F212F30E0829FA001839F500DB5
:1030C000929F500D1124405C504EA2EBB7E0ECED06
:1030D000F5E0612F70E0660F771F660F771F6A0FAC
:1030E0007B1FEE24FF24EC1AFD0A1FC020813181D2
:1030F00084E0203038071CF020E034E006C08CEF7C
:103100002130380714F420E03CEF205A364FC70135
:10311000821B930B480F591F1196DC93CE93139685
:103120003C932E93129714963296A617B707F1F692
:10313000E12FEE0FAE2FB0E0AA0FBB1FAE54B84F79
:10314000CD93DC93EF5FAE2FB0E0AA0FBB1FAE5460
:10315000B84F4D935C93EF5FF0E0EE0FFF1FEE541E
:10316000F84F11821082DF91CF911F91FF90EF9065
:103170000895A0910C0AB0910D0AFD0181939193DD
:1031800013967C936E9312973296F0930D0AE09308
:103190000C0A0895882329F020E639E080E699E0BA
:1031A00004C020EB34E080EB94E0A0910C0AB091D5
:1031B0000D0AFD018193919313963C932E931297E0
:1031C0003296F0930D0AE0930C0A08951F93182F7E
:1031D00082700E94CA18812F81700E94CA181F91A4
:1031E0000895CF92DF92FF920F931F93DF93CF93B7
:1031F00000D0CDB7DEB78091CF02813019F0823098
:1032000019F404C010E003C011E001C012E02091E5
:10321000DC053091DD0520503C4F220F331F80919B
:10322000DE059091DF0580509C4F880F991F892FF4
:10323000232F37FD20E087FD80E0022F20310CF0A6
:103240000FE0F82E2FE0281714F45FE0F52E2F2D55
:10325000332727FD3095802F992787FD9095099674
:103260008217930714F40F2D0950C02EDD24C7FCDC
:10327000D094275F3F4F2C153D051CF447EFF42EEB
:10328000F00E80E797E19093B3078093B20780EB4D
:1032900094E09093B5078093B40786EB97E0909302
:1032A0000D0A80930C0A80E00E94E618A0910C0A97
:1032B000B0910D0A80E699E0FD018193919320EB96
:1032C00034E013963C932E931297DF01129693836A
:1032D000828313963C932E9312971496B0930D0A03
:1032E000A0930C0A812F0E94E6181195C6019595AE
:1032F0008795959587958A830E94E6183A81131BD6
:10330000802F0E94E618101B8F2D992787FD90951E
:10331000959587959595879589830E94E61889816B
:10332000181B8F2D0E94E618812F8F190E94E61816
:1033300080E00E94CA18E0910C0AF0910D0A80E624
:103340009AEE92938293329611921192F0930D0A13
:10335000E0930C0A0F900F90CF91DF911F910F9186
:10336000FF90DF90CF900895A0910C0AB0910D0AC4
:10337000882341F0FD0180E293E08193919380E402
:1033800096E007C0FD0180E496E08193919380E28E
:1033900093E013969C938E9312973296F0930D0AB6
:1033A000E0930C0A08950F931F93082F10E0802FCD
:1033B00081700E94B4191F5F06951830C1F71F91E4
:1033C0000F9108950F931F9382EB97E090930D0A4E
:1033D00080930C0A80910E0A91E0892780930E0A4F
:1033E000882309F454C08091DC059091DD05885F45
:1033F0009B4F34E0969587953A95E1F78038910593
:1034000010F08FE790E0182F2091DE053091DF0556
:1034100037FD0FC0C901409625E0969587952A95FE
:10342000E1F78034910510F08FE390E0082F0064FD
:103430000FC080E190E0821B930B05E09695879585
:103440000A95E1F78034910510F08FE390E0082FA2
:10345000812F0E94D319802F0E94D3190127802F1A
:1034600090E09C0114E0359527951A95E1F7B4E0BA
:10347000880F991FBA95E1F7822B0E94D319A0916A
:103480000C0AB0910D0AFD0180E197E230C08091F5
:10349000E0059091E10580509C4FA4E096958795BA
:1034A000AA95E1F78038910510F08FE790E0082F9A
:1034B0000068802F0E94D3198EE80E94D3198EE8ED
:1034C000082710E0C801F4E095958795FA95E1F793
:1034D000E4E0000F111FEA95E1F7802B0E94D31959
:1034E000A0910C0AB0910D0AFD0180EB96E3819347
:1034F000919380EA9FE013969C938E931297329655
:10350000F0930D0AE0930C0AE0910C0AF0910D0A79
:1035100011921192F0930D0AE0930C0AE25BF740CE
:10352000E03FF1052CF086ED97E060E00E94691322
:103530001F910F9108958091CF02843018F481304B
:1035400038F403C0843049F406C00E943F1808953F
:103550000E94F11808950E94E2190895FF920F93B6
:103560001F93CF93DF93082F1091CB02812F9927C0
:1035700087FD909597FF03C0909581959F4FF82EFA
:103580002EE12817E4F411161CF4812F8E5102C08D
:10359000812F825E60E040E00E94400F282F882348
:1035A00061F080911B0A882341F490E080911E0A0B
:1035B000882309F491E090931E0A20931B0AC0917E
:1035C000210AD091220A2196D093220AC093210A7F
:1035D000E0911F0AF091200AE00FF11DF093200AFC
:1035E000E0931F0A80919F0F9091A00F2091230AD2
:1035F0003091240A821B930B8436910508F43FC155
:103600002C593F4F3093240A2093230ACF01BE0147
:103610000E94695F062F862F90E0AC014C9FC0018D
:103620004D9F900D5C9F900D1124E81BF90BF093BA
:10363000200AE0931F0A1092220A1092210A5FE0EA
:103640005F151CF010921E0A10C08EE18F156CF0F1
:1036500011161CF4812F8F5002C0812F815F60E012
:1036600040E00E94400F80931E0A809123079091B2
:1036700024070196909324078093230760912507E0
:10368000709126076F5F7F4F709326076093250721
:10369000002349F08091290790912A070196909381
:1036A0002A078093290780911E0A882349F0809178
:1036B0002707909128070196909328078093270762
:1036C000069540912B0750912C07400F511D5093A8
:1036D0002C0740932B07E091CD02F091CE02F0939E
:1036E0002F07E0932E073091CB02832F992787FD78
:1036F000909597FF03C0909581959F4F882319F46B
:1037000010922D0722C0813021F4CF01861B970B28
:1037100018C0803170F480FF07C0CA0144E096955C
:1037200087954A95E1F709C08091290790912A076A
:1037300004C08091270790912807AF01481B590BBF
:10374000CA0190932F0780932E0780912D07813017
:1037500041F0813018F08230F1F40EC03323D9F0FB
:1037600017C080912E0790912F07181619069CF00C
:10377000309789F082E00DC080912E0790912F073D
:10378000855C9F4F1CF483E080932D07309719F4DC
:1037900081E080932D0720912E0730912F07809193
:1037A0001C0A90911D0A8217930709F45AC0809150
:1037B0002D07813009F045C04091BA0242FF29C06F
:1037C0002E31310511F482E003C02431310519F4A2
:1037D0008093480506C02A30310519F024303105A0
:1037E00024F480913A058093370543FF12C02E31AF
:1037F000310549F02431310531F02A30310519F015
:103800002430310534F482E390E0909347058093AF
:10381000460541FF26C08091CC02882321F0CF01CC
:10382000821B930B01C0C9016CE370E00E94695FC9
:10383000892BB9F480913A058093370543FF11C075
:103840000AC0823071F480913B05809337058091E6
:10385000BA0283FF06C082E390E09093470580930D
:10386000460530931D0A20931C0A8091CC028823C0
:1038700031F0E21BF30BF0932F07E0932E07DF915B
:10388000CF911F910F91FF9008952091CB02822F2D
:10389000992787FD909597FF03C0909581959F4F3D
:1038A000982F8230A4F1803194F585959A309CF45C
:1038B000E82FFF27E7FDF0958091B80290E0880F90
:1038C000991F880F991FE80FF91FE75FFE4F80814E
:1038D000E82FF0E004C0E82FFF27E7FDF0953197CF
:1038E000EE0FFF1FE555FA4F0190F081E02D27FF05
:1038F00005C080E094E08E1B9F0B03C0CF01805079
:103900009C4FE6E096958795EA95E1F702C080E046
:1039100090E00E94AE1AE091B802F0E0EE0FFF1FB7
:10392000EE0FFF1FE45FFE4FE081F0E0EE0FFF1FA0
:10393000E755FA4F0190F081E02D8091BA0280FFA7
:1039400005C080E094E08E1B9F0B03C0CF01805028
:103950009C4F56E0969587955A95E1F76091170A26
:103960007091180A6F5F7F4F7093180A6093170A5F
:103970004091150A5091160A480F591F5093160A84
:103980004093150A80919F0F9091A00F2091190AE2
:1039900030911A0A821B930B885E934088F18091C4
:1039A0009F0F9091A00F90931A0A8093190A10927A
:1039B000160A1092150A1092180A1092170A80918E
:1039C000AA079091AB0701969093AB078093AA0743
:1039D0002091A8073091A907F901E05DF84FCA01CD
:1039E0000E94695F60832F5F3F4F3093A907209348
:1039F000A8072837310520F01092A9071092A807D0
:103A000008952F923F924F925F926F927F928F9282
:103A10009F92AF92BF92CF92DF92EF92FF920F935D
:103A20001F93DF93CF93CDB7DEB762970FB6F894AD
:103A3000DEBF0FBECDBF9F878E87688B8091450507
:103A4000882309F46CC08091DB05882319F081502C
:103A50008093DB058091B902882309F460C08091CE
:103A6000240990912509A0912609B0912709019672
:103A7000A11DB11D8093240990932509A0932609C7
:103A8000B0932709E2EAF8E020E030E081919191DB
:103A900060E870E00E947D5F260F371F48E0EA3A39
:103AA000F407A1F78091280990912909281739076F
:103AB00061F030932909209328091092240910926B
:103AC00025091092260910922709E0902409F09008
:103AD000250900912609109127096091B90270E02B
:103AE00080E090E020E737E140E050E00E944A5F4C
:103AF0006E157F058007910790F46FE370E080E01A
:103B000090E0E622F722082319237AE0E716F10471
:103B10000105110521F480913B058093370515E7D8
:103B2000612E12E0712EB6E74B2EB4E05B2E1D869F
:103B3000CC24DD24882499248889282E332491E0FC
:103B4000292233241C2D8C2D0E94E10C9C01D301D1
:103B50008D919C911197281B390B121613062CF48A
:103B60005C96ED91FC915D9705C0D3011E96ED9199
:103B7000FC911F97E436F10514F4E4E6F0E0B90196
:103B8000882777FD8095982FAAE0660F771F881FFA
:103B9000991FAA95D1F79F01442737FD4095542FCF
:103BA0000E94B25F7901BCEF21303B0724F4E12C85
:103BB0006CEFF62E07C0E4E020303E071CF0E12C4D
:103BC00054E0F52EF401E555FA4FF182E082C70189
:103BD0000F964F9730F5F4E0CF16D104BCF4E09186
:103BE000B802F0E0EE0FFF1FEE0FFF1FEC0DFD1D02
:103BF000E65FFE4F808190E0019721E030E002C057
:103C0000220F331F8A95E2F7C90108C081E090E0D6
:103C10000C2C02C0880F991F0A94E2F73D85382BBF
:103C20003D87143008F069C1222009F05AC086018E
:103C3000000F111F02551D4FD80111968C9111973D
:103C4000807C09F44EC08C9185958595859561E0C1
:103C500040E00E94400F882309F443C0D801EC9152
:103C6000E770F0E0EE0FFF1FDF01AA55BD4FE55BE7
:103C7000FA4F808191812D913C91821B930B62E0E0
:103C800070E00E947D5FF601EE0FFF1FE155FD4FD2
:103C90004081842F880F880F85958595992787FD0A
:103CA0009095FC016E9FC0016F9F900D7E9F900DBF
:103CB00011246FE170E00E947D5FCB01880F991F96
:103CC000880F991F429546954695437050E04130C4
:103CD000510529F04230510521F47C0102C0E80E63
:103CE000F91ED2018C9160E040E00E94400F8823D1
:103CF00011F400E00BC0F201818160E040E00E941D
:103D0000400F882311F002E001C001E08091B80269
:103D100090E08170907012E0A12EB12CA81AB90A1F
:103D2000AC14BD0461F58091D102807F41F1C701DF
:103D300080509C4F62E070E00E947D5FCB01E02FDD
:103D4000F0E0EE0FFF1FEE0FFF1FA601440F551FFF
:103D50009A0173E0220F331F7A95E1F7241B350B8C
:103D6000E20FF31FE659FB4F6081772767FD7095DF
:103D70000E946D17DC01AA0FBB1F10E026C010E0E7
:103D80001E141F040CF011E0802F90E09601220F0A
:103D9000331FF90143E0EE0FFF1F4A95E1F7E21BE5
:103DA000F30B880F991F880F991FE80FF91FE05434
:103DB000FD4FE10FF11DE655FE4F6081772767FD4E
:103DC0007095C7010E946D17DC01E02FF0E0EE0F47
:103DD000FF1FEE0FFF1F9601220F331FC90103E0E3
:103DE000880F991F0A95E1F7821B930BE80FF91FC3
:103DF000E054FD4FE10FF11DE455FE4F6081772740
:103E000067FD70956C597F4F882777FD8095982FB7
:103E10009D01442737FD4095542F0E944A5F24E6B8
:103E200030E040E050E00E94B25F7901AC14BD0484
:103E300009F052C09091D102892F807F09F45BC5AF
:103E400020E03CEFE20EF31E56C58091BA02F50168
:103E5000E054FD4F80FF1AC040E054E0E40EF51E30
:103E6000B701882777FD8095982FA0E0BCEFEA0E78
:103E7000FB1EEE51FE4F2081332727FD3095432F47
:103E8000532F2D5730404040504014C060E074E044
:103E90006E197F09882777FD8095982FEE51FE4F88
:103EA0002081332727FD3095432F532F23583F4F31
:103EB0004F4F5F4F0E944A5F20E038E040E050E003
:103EC0000E94B25FC901DA018030E8E09E07E0E0BD
:103ED000AE07E0E0BE0739F4F601EE55FB4F8081F6
:103EE000992787FD9095880F991FE1E0F0E0EC0F8E
:103EF000FD1FE80DF91D91838083F401EE55F74F06
:103F0000F182E0820894C11CD11C22E030E0620EF4
:103F1000731E820E931E4EE050E0440E551E57E075
:103F2000C516D10409F00ECE4091D5026D85462309
:103F3000242F30E080912A0990E082279327822362
:103F40009323892B21F08091390580933705409385
:103F50002A0980E094E09093B1088093B008909390
:103F6000B3088093B208788971FF28C0A2EAB8E04C
:103F7000FE01319620E030E042E050E08091B8024E
:103F800090E081709070BA01681B790B621773071B
:103F900029F011961C921E92118210822F5F3F4FC2
:103FA000129632962430310549F7E4EBF8E011928D
:103FB000119278E0E43CF707D1F745C064EB78E074
:103FC00040E050E0FA01E55BFA4FDA01AC58BD4F32
:103FD00080819181D2962D913C91D397821B930B36
:103FE000880F991FDB018D939D93BD014E5F5F4F3D
:103FF0004830510539F78091530590915405880F49
:10400000991F9093BD088093BC08809155059091AD
:104010005605880F991F9093BF088093BE08809122
:10402000570590915805880F991F9093C108809368
:10403000C0088091590590915A05880F991F909357
:10404000C3088093C20884EE282E88E0382EA4ECA2
:10405000B8E0F101808191818D939D93349629E0A0
:10406000E432F207B9F780914505882311F00E94E8
:10407000451C80E4E4EEF8E0DF011D928A95E9F743
:1040800010920B0A0AEDA02E02E0B02EEBEEF9E042
:10409000FC87EB871BE6612E19E0712E2BE239E0DD
:1040A0003A87298744245524498A5A8AD5018C9114
:1040B0008150803138F0BAE16B2EB4E07B2E44247D
:1040C000552455C3F501838161E040E00E94400F13
:1040D000AB85BC859C91882321F5592F1C92F50155
:1040E0002181822F8850823008F025C3C201F2015D
:1040F000A3E0EE0FFF1FAA95E1F7880F991FE80FC5
:10410000F91FE652FD4F87818E70843009F413C386
:10411000293019F0CC24DD2446C0C12C6CEFD62EFA
:1041200042C050E0992309F451E081E0AB85BC85A1
:104130008C93D5011196EC91F0E0EE0FFF1FE05645
:10414000F74FC080D18089899A89FC0133E0EE0F56
:10415000FF1F3A95E1F7880F991FE80FF91FE65204
:10416000FD4F8781807FF9F089899A89FC0103E0FE
:10417000EE0FFF1F0A95E1F7880F991FE80FF91F4F
:10418000EF51FD4F808182958F7090E00197E1E0C3
:10419000F0E002C0EE0FFF1F8A95E2F720910B0AB4
:1041A0002E2B20930B0AD50118964C914423E9F04D
:1041B000842F47FD8D5F85958595282F332727FD13
:1041C0003095BAE04B02C0011124280F391F842F0B
:1041D00047FD815C86FB880F880B80F9992787FD56
:1041E0009095281B390BC20ED31E89899A89FC0130
:1041F000B3E0EE0FFF1FBA95E1F7880F991FE80FA4
:10420000F91FE652FD4F8681882391F489899A89A6
:10421000FC0173E0EE0FFF1F7A95E1F7880F991FFD
:10422000E80FF91FE652FD4F8581882309F49AC1F2
:10423000F3016081718182819381552389F420E0AB
:1042400031E040E050E00E94B25F509540953095DB
:1042500021953F4F4F4F5F4F4601820E931E85C001
:1042600089899A89FC0153E0EE0FFF1F5A95E1F707
:10427000880F991FE80FF91FE652FD4F87818E7056
:10428000843049F5D501EC91F0E0EE0FFF1FEE53BD
:10429000F74F60817181882777FD8095982F20E006
:1042A00034E640E050E00E944A5FF301608371838E
:1042B00082839383D50112962C91222361F03327B8
:1042C00027FD3095432F532F0E94B25FF3012083C7
:1042D000318342835383D3016D917D918D919C9164
:1042E00020E031E040E050E00E94B25F5095409500
:1042F000309521953F4F4F4F5F4F4601820E931EE1
:104300008114910491F197FE10C089899A89FC016A
:1043100023E0EE0FFF1F2A95E1F7880F991FE80FA2
:10432000F91FE152FD4F808110C089899A89FC01F3
:1043300013E0EE0FFF1F1A95E1F7880F991FE80FA2
:10434000F91FE152FD4F808182958F7090E0FC0152
:1043500024E630E0E29FC001E39F900DF29F900DB4
:104360001124A985BA858D939C93E985FA852081CE
:1043700031812115310551F080914505882309F4DB
:10438000E5C02150304031832083E0C08114910486
:1043900009F4E8C089899A89FC01A3E0EE0FFF1FA8
:1043A000AA95E1F7880F991FE80FF91FE652FD4F14
:1043B0008681882309F4D6C080914505882309F4B5
:1043C00093C0F5012281222339F4E12CF12C60E223
:1043D000062F63E0162F17C0332727FD309537FFD0
:1043E00003C0309521953F4F332727FD3095432F4C
:1043F000532F60E070E080E293E00E94B25FC90159
:10440000DA017C018D01181419048CF589899A89C7
:10441000FC0153E0EE0FFF1F5A95E1F7880F991F3B
:10442000E80FF91FE052FD4F80818F7090E00097F8
:1044300009F44CC044E650E0849F9001859F300D04
:10444000949F300D1124442737FD4095542FC80107
:10445000B7010E94B25F79018A01F30180819181E5
:10446000A281B381E80EF91E0A1F1B1F38C089897B
:104470009A89FC0133E0EE0FFF1F3A95E1F7880FB0
:10448000991FE80FF91FE052FD4F808182958F70D0
:1044900090E00097D9F044E650E0849F9001859F1A
:1044A000300D949F300D1124442737FD4095542F33
:1044B000C801B7010E94B25FD301ED90FD900D914C
:1044C0001C91E21AF30A040B150B09C0C601AA27B6
:1044D00097FDA095BA2FEE24F82E092F1A2FF3017D
:1044E000E082F18202831383D3016D917D918D91DE
:1044F0009C9176010027F7FC0095102F18141904E1
:1045000064F420E031E040E050E00E94B25FE21647
:10451000F3060407150764F019C020E031E040E01D
:1045200050E00E94B25F2E153F054007510774F41A
:10453000C601AA2797FDA095BA2FBA2FA92F982FA9
:104540008827F30180839183A283B383D3016D9184
:104550007D918D919C9120E031E040E050E00E94FF
:10456000B25F6901F5016481633071F1643028F450
:10457000613051F06230A8F448C0653081F1653097
:1045800050F16630B1F52EC0D50111968C9189306D
:1045900029F4D7FC2AC0E0E0FEEF0DC0D7FE35C0FD
:1045A0002EC0D50111968C91893051F41C141D0434
:1045B0004CF1E0E0F2E0CE0EDF1ECC0CDD1C25C09D
:1045C0001C141D04E4F021C0D7FE1FC0D094C19478
:1045D000D108D3941AC01C141D04A4F010C0D7FE37
:1045E0000EC003C01C141D046CF0C12CECEFDE2EB9
:1045F0000CC06750C6010E94CB176C0106C0CC24CA
:10460000DD2403C0C12C74E0D72E89899A89FC016E
:1046100063E0EE0FFF1F6A95E1F7880F991FE80F1F
:10462000F91FE652FD4F878180FD15C0D501119617
:10463000EC91EE2381F0E53070F4F0E03197EE0F6D
:10464000FF1F21E030E02C0F3D1FE20FF31F8081A0
:104650009181C80ED91EB601882777FD8095982FC5
:10466000D50112962C91332727FD3095432F532FD8
:104670000E944A5F6B017C0189899A89FC0133E0C1
:10468000EE0FFF1F3A95E1F7880F991FE80FF91F0A
:10469000EF51FD4F80818695877090E081309105C4
:1046A00081F0D501EC91029799F5F0E0EE0FFF1F34
:1046B000EE0FFF1FE052F74FC082D182E282F382F9
:1046C0003AC0F5012081022F10E0000F111F000FEA
:1046D000111F0052174FC701B60124E630E040E039
:1046E00050E00E94B25FCA01B901D8012D913D91FD
:1046F0004D915C910E944A5F20E034E040E050E040
:104700000E94B25FF801208331834283538313C038
:10471000F0E0EE0FFF1FEE0FFF1FE052F74F80811A
:104720009181A281B3818C0D9D1DAE1DBF1D808323
:104730009183A283B3830894411C511C2AE030E08A
:10474000A20EB31E4B855C854F5F5F4F5C874B8726
:1047500064E070E0660E771E89859A8502969A87D6
:10476000898790E24916510409F09ECCA4CCD1016E
:10477000CD90DD90ED90FC90C701B60124E630E0CD
:1047800040E050E00E94B25FF10120833183428318
:104790005383F201E754FA4FC90120839183D30177
:1047A00013962D913C91149711968C91BAE08B023F
:1047B0008001112408511C4FF30180818B025001AC
:1047C000112448E15CEFA40EB51EC801502F492FFB
:1047D000201731071CF4C901522F492F852F942F20
:1047E0004C018A149B040CF44501C114D104E1046A
:1047F000F10469F19401442737FD4095542F1C14AE
:104800001D041E041F0454F4B801882777FD809509
:10481000982F621B730B840B950B0BC0C501AA2745
:1048200097FDA095BA2F281B390B4A0B5B0BCA01C9
:10483000B901A70196010E944A5F20EA36E841E0EB
:1048400050E00E94B25FC901DA016C017D01C40130
:104850000E94F016AA2797FDA095BA2FC80ED91E60
:10486000EA1EFB1EC8010E94F0168C01C5010E94C1
:10487000F016BC01C801AA2797FDA095BA2FA70181
:1048800096018C159D05AE05BF0514F49C01AD0184
:104890007B010027F7FC0095102F2E153F054007E0
:1048A000510714F4A8019701D30112968C91882323
:1048B00039F050954095309521953F4F4F4F5F4FC0
:1048C000F894EE85FF85E40DF51D318320837894FF
:1048D000E4E0F0E02E0E3F1E22E030E0420E531ED8
:1048E00045E050E0640E751E54E2251659E0350689
:1048F00009F03DCF04C09F7009F0A7CAEDCA6296C7
:104900000FB6F894DEBF0FBECDBFCF91DF911F91E0
:104910000F91FF90EF90DF90CF90BF90AF909F905E
:104920008F907F906F905F904F903F902F90089561
:104930000F931F93CF93DF9386E291E0ECEFF5E0C6
:10494000DF019C011D9221503040E1F79091220738
:10495000CAEDD2E000E010E051E060E0488144237D
:1049600009F440E1041750F5202F712F352F2F5FE8
:10497000872F90E0FC01EE0FFF1FE80FF91FEE0FED
:10498000FF1FDF01A450BA4F11962C9311978C9101
:1049900081608C93E250FA4F30833F5F14966C93A2
:1049A0007F5F241720F3802F8095042F952F9F5F22
:1049B000980F180F140F940F592F515078817723A7
:1049C000D1F1812F90E09C01220F331F280F391F56
:1049D000D901AA0FBB1FA450BA4F11964C9311973F
:1049E00015966C9315978C9182608C9313965C93BB
:1049F00013975F5F8A85F9013196781741F4EE0FBE
:104A0000FF1FE450FA4F108214961C920AC0EE0F5A
:104A1000FF1FE450FA4F50835F5F6F5F14966C93F3
:104A20006150952F6F5F2A96603219F450932207D8
:104A300004C01F5F93CF90932207DF91CF911F9106
:104A40000F9108950E940817803210F480E00895B5
:104A50008BEA9CE20E94AB1381E00895EF92FF92F3
:104A60000F931F93DF93CF93CDB7DEB7C054D040E1
:104A70000FB6F894DEBF0FBECDBF7E010894E11CD7
:104A8000F11CC70163E00E94011D8E010F5D1F4FE5
:104A9000C80161E00E94011DECE1F4E0B70178017A
:104AA000018112818081DB014D915C91D7012D91B3
:104AB0003C91882321F0CA01821B930B03C0C901DA
:104AC000841B950B800F911FB3E0883E9B071CF061
:104AD00088EE93E006C02CEF8931920714F488E148
:104AE0009CEF9283818335966E5F7F4F82E090E0EA
:104AF000E80EF91E94E0EC36F90791F68091B802C1
:104B000090E08170907022E030E0281B390B16AAEB
:104B10002130310511F01092A3042230310511F03B
:104B20001092A4041092A50482E00E94974E8091F6
:104B3000390580933705C05CDF4F0FB6F894DEBFB0
:104B40000FBECDBFCF91DF911F910F91FF90EF90DE
:104B500008950F93982F83E0489FA001112441529C
:104B6000514F00E0211101E0892F23E00E94D6552A
:104B70000F910895FF920F931F93F82E162F042F75
:104B800080E860E0412F50E0202F0E94D8571A3073
:104B900010F485E701C08FE660E04FE2202F0E940D
:104BA0001B551A3010F485E701C08FE64F2D50E0F9
:104BB0004F5F5F4F60E0202F0E94D8571F910F91E9
:104BC000FF9008954F925F926F927F928F929F9283
:104BD000AF92BF92CF92DF92EF92FF920F931F930B
:104BE000DF93CF930F92CDB7DEB7813809F491C030
:104BF0008238A0F4813609F484C0823638F48232D7
:104C000009F466C0833209F0B0C058C08536C1F1DE
:104C10008038C9F0843609F0A8C01BC0843841F13F
:104C2000853838F4823809F466C0833809F09DC0AD
:104C30005CC08E3B09F480C08F3B09F48AC0853884
:104C400009F093C035C00E94C60C0E94AB1380E8E7
:104C500014C084E60E94B559823009F019C58091CC
:104C6000120A9091130A0097C1F412C581E019C08D
:104C700087EA96E30E94AB1384E80E94A45975C0AA
:104C800085E60E94B559823009F008C58091100A66
:104C90009091110A009709F401C50E94AB1365C0F9
:104CA00081508093140A80913805809337055DC048
:104CB00083EC9FE20E94AB1385E8DFCF8091B602C0
:104CC0008F5F8093B602833060F01092B60209C005
:104CD0008091B602882311F0815001C082E0809358
:104CE000B60281E00E94974EDECF86E69BE20E94EC
:104CF000D00C83E8C2CF81E19CE20E94D00C82E814
:104D0000BCCF80912D07823081F583E080932D0701
:104D1000CACF10922D0710922607109225071092E5
:104D20002A0710922907109228071092270710923D
:104D30002C0710922B07B7CF8091140A082F10E090
:104D40000E94C60C000F111F005F154FD8018D93F4
:104D50009C9381E00E94A45983E00E94A45982E0C0
:104D60000E94A45981E080930F0A8091D40260E0F0
:104D700040E00E94400F882331F080910F0A882381
:104D800011F40E942E258091D40260E040E00E9440
:104D9000400F80930F0A909144058091A3029817C9
:104DA00010F004E001C006E0A0ECEA2EA2E0FA2E2A
:104DB0001AE0812F60E0F70141917F0124E00E9419
:104DC0001B55155F1837A9F7006886E260E1402F90
:104DD0000E94A01686E268E146E50E94D2558091C5
:104DE0002D07882399F0823011F004E001C006E01D
:104DF00040912E0750912F078EE560E1202F0E94F1
:104E0000A71683E368E140E00E9422164091D20297
:104E100013E04102A0011124445B574F86E260E198
:104E200023E000E00E94D6554091D1024295407F98
:104E300045954595459545954102A00111244B5B4B
:104E4000574F89E360E123E00E94D655CC24DD244E
:104E5000FFE1EF2EF601E25EFE4FF080F601EE5527
:104E6000FB4FE081E7FDED5FE595E595E43E0CF451
:104E7000E4EE0E2FED310CF00CE1F601E65EFE4F94
:104E800080818823F9F08F2D64E046E30E94BE56AE
:104E90008091B80290E08C259D2580FD04C0809112
:104EA000D1028F7061F48F2D81506EE143E00E943A
:104EB000BE568F2D8F5F6EE143E00E94BE569E2D41
:104EC000901B14C08F2D8B516CE346E30E94BA56A1
:104ED0001F2D1150812F6BE343E00E94BA56812FA2
:104EE0006DE343E00E94BA56F00E9CE31F2D135071
:104EF000092F0350812F602F47E099830E94BE56EF
:104F000099819D5F812F692F47E00E94BA568F2DAE
:104F10008D5F602F47E00E94BE56812F602F47E0D3
:104F20000E94BA560894C11CD11CF4E0CF16D104DB
:104F300009F090CF8091B602823009F4A0C0ECED68
:104F4000AE2EE5E0BE2ECC24DD247BE1672E712C55
:104F500069E1862E912C2C2DD5014D905C9080918D
:104F6000B602882321F0813009F07CC030C0C60130
:104F700083709070869D8001879D100D969D100D09
:104F800011242695269530E02B5F3F4F53E0220FEA
:104F9000331F5A95E1F7C20160E270E00E947D5F25
:104FA000FB01C20160E870E00E947D5FCB018E1BB7
:104FB0009F0B840D951D6AE070E00E947D5FAB0140
:104FC000802F8F5D622F20E00E94D8574BC0243085
:104FD00010F01EE501C012E2960123703070C90185
:104FE000880F991F880F991F820F931F082F0A5D42
:104FF000920157FE04C02227332724193509289D22
:10500000C001299D900D389D900D112480509E4F18
:10501000892F990F990B85958595F82EB9E1B817C9
:1050200014F489E1F82E812F8951602F43E325E59F
:105030000E948C56602F6250812F45E00E94BE5620
:105040001414150414F41F5F01C01F190F5F812F82
:10505000602F4F2D0E94BA560250812F602F4F2D86
:105060000E94BA560894C11CD11CE2E0F0E0AE0EDA
:10507000BF1EF8E0CF16D10409F06DCF15C38FE144
:1050800061E247E10E94BE568FE167E347E10E947B
:10509000BA5685E361E247E10E94BE568FE161E2C4
:1050A00047E10E94BA568BE461E247E10E94BE5696
:1050B0008BE467E347E10E94BA5681E661E247E18B
:1050C0000E94BE568BE461E247E10E94BA568AE232
:1050D0006BE243E00E94BE5689E26CE243E00E942C
:1050E000BA5686E56BE243E00E94BE5685E56CE267
:1050F00043E00E94BA568091AB059091AC05880FB1
:10510000991F9C0113E0220F331F1A95E1F7820FBC
:10511000931F60E078E00E947D5FD62E8091AD0500
:105120009091AE05880F991F9C01A3E0220F331FB9
:10513000AA95E1F7820F931F60E078E00E947D5FFF
:105140008B01109501951F4FF8E2FF2EFD0CEAE24E
:10515000EE2EE00E8F2D6E2D45E00E94BE56025DB4
:105160008F2D602F45E00E94BA568D2D845D6E2DE7
:1051700045E00E94BE568F2D6E2D45E00E94BA5626
:105180008091B1059091B205880F991F9C0163E051
:10519000220F331F6A95E1F7820F931F60E078E0DA
:1051A0000E947D5FD62E8091AF059091B005880F4B
:1051B000991F9C0143E0220F331F4A95E1F7820FAC
:1051C000931F60E078E00E947D5F8B011095019550
:1051D0001F4F24E5F22EFD0C9AE2E92EE00E8F2DF2
:1051E0006E2D45E00E94BE56025D8F2D602F45E07A
:1051F0000E94BA568D2D885A6E2D45E00E94BE56EB
:105200008F2D6E2D45E00E94BA566091B3057091C6
:10521000B405882777FD8095982F26E130E040E09F
:1052200050E00E944A5F5B016C0180E098E5A0E0DD
:10523000B0E0A80EB91ECA1EDB1EC601B50120E0F3
:1052400038E040E050E00E94B25F79018A01109599
:105250000095F094E094E11CF11C011D111D97E3F1
:10526000E90EC601B50120E038E040E050E00E94C0
:10527000B25F2F5F8AE36E2D422F0E94BE5660916F
:10528000B3057091B405882777FD8095982F26E1A6
:1052900030E040E050E00E944A5F5B016C0180E03A
:1052A00098E5A0E0B0E0A80EB91ECA1EDB1EC6013C
:1052B000B50120E038E040E050E00E94B25F7901A3
:1052C0008A0110950095F094E094E11CF11C011DF9
:1052D000111D97E3E90EC601B50120E038E040E07A
:1052E00050E00E94B25F2F5F8BE36E2D422F0E9431
:1052F000BE566091B3057091B405882777FD8095FF
:10530000982F26E130E040E050E00E944A5F5B01C8
:105310006C0180E098E5A0E0B0E0A80EB91ECA1EBE
:10532000DB1EC601B50120E038E040E050E00E94FD
:10533000B25F79018A0110950095F094E094E11C28
:10534000F11C011D111D97E3E90EC601B50120E016
:1053500038E040E050E00E94B25F2F5F8CE36E2D9A
:10536000422F0E94BE566091B5057091B605882700
:1053700077FD8095982F26E130E040E050E00E94D4
:105380004A5F5B016C0180E098E5A0E0B0E0A80E08
:10539000B91ECA1EDB1EC601B50120E038E040E0A0
:1053A00050E00E94B25F79018A0110950095F09457
:1053B000E094E11CF11C011D111D97E3E90EC601EB
:1053C000B50120E038E040E050E00E94B25F2F5F7E
:1053D0008FE36E2D422F0E94BE566091B5057091ED
:1053E000B605882777FD8095982F26E130E040E0CC
:1053F00050E00E944A5F5B016C0180E098E5A0E00C
:10540000B0E0A80EB91ECA1EDB1EC601B50120E021
:1054100038E040E050E00E94B25F79018A011095C7
:105420000095F094E094E11CF11C011D111D97E31F
:10543000E90EC601B50120E038E040E050E00E94EE
:10544000B25F2F5F80E46E2D422F0E94BE566091A6
:10545000B5057091B605882777FD8095982F26E1D0
:1054600030E040E050E00E944A5F5B016C0180E068
:1054700098E5A0E0B0E0A80EB91ECA1EDB1EC6016A
:10548000B50120E038E040E050E00E94B25F7901D1
:105490008A0110950095F094E094E11CF11C011D27
:1054A000111D97E3E90EC601B50120E038E040E0A8
:1054B00050E00E94B25F2F5F81E46E2D422F0E9468
:1054C000BE566091B7057091B805882777FD809525
:1054D000982F26E130E040E050E00E944A5F5B01F7
:1054E0006C0180E098E5A0E0B0E0A80EB91ECA1EED
:1054F000DB1EC601B50120E038E040E050E00E942C
:10550000B25F79018A0110950095F094E094E11C56
:10551000F11C011D111D97E3E90EC601B50120E044
:1055200038E040E050E00E94B25F2F5F84E46E2DCF
:10553000422F0E94BE566091B7057091B80588272A
:1055400077FD8095982F26E130E040E050E00E9402
:105550004A5F5B016C0180E098E5A0E0B0E0A80E36
:10556000B91ECA1EDB1EC601B50120E038E040E0CE
:1055700050E00E94B25F79018A0110950095F09485
:10558000E094E11CF11C011D111D97E3E90EC60119
:10559000B50120E038E040E050E00E94B25F2F5FAC
:1055A00085E46E2D422F0E94BE566091B705709122
:1055B000B805882777FD8095982F26E130E040E0F8
:1055C00050E00E944A5F5B016C0180E098E5A0E03A
:1055D000B0E0A80EB91ECA1EDB1EC601B50120E050
:1055E00038E040E050E00E94B25F79018A011095F6
:1055F0000095F094E094E11CF11C011D111D97E34E
:10560000E90EC601B50120E038E040E050E00E941C
:10561000B25F2F5F86E46E2D422F0E94BE5687E157
:10562000C82E88E0D82E11E000E2F02E812F60E035
:1056300040E00E94400F082F8AE06F2DA60123E072
:105640000E94D6551F5FA8E0FA0EE3E0F0E0CE0E10
:10565000DF1E143059F71BEFC12E17E0D12E17E0D3
:10566000B0E3FB2E812F60E040E00E94400F082F46
:1056700085E66F2DA60123E00E94D6551F5FF8EF47
:10568000FF0E83E090E0C80ED91E1A3059F70CC007
:105690008091140A882309F4E9CA67CB8091140A1F
:1056A000882309F0FDCA61CB0F90CF91DF911F9144
:1056B0000F91FF90EF90DF90CF90BF90AF909F90B1
:1056C0008F907F906F905F904F9008950F931F93EE
:1056D000CF93DF93082F80E060E040E758E021E0BF
:1056E0000E940856013658F0033628F0033639F484
:1056F00081E19CE202C082EE95E20E94D00C86E03D
:1057000068E04CE658E00E944256409125075091CF
:10571000260788E168E020E000E00E94A71686E600
:1057200068E048E658E00E944256409127075091B1
:1057300028078CE368E020E00E94A71686E060E17D
:1057400044E658E00E9442564091290750912A07AA
:1057500088E160E120E00E94A71686E660E140E66D
:1057600058E00E94425640912B0750912C0714E0BC
:10577000569547951A95E1F78CE360E120E00E9489
:10578000A71686E660E04CE558E00E94425640913C
:105790002307509124078CE360E020E00E94A716C5
:1057A0008091AA079091AB078937910518F4C0E062
:1057B000D0E004C0C091A807D091A90782E06CE3B3
:1057C0004EE70E94BA5685E06CE143E20E94BE5665
:1057D0000BE0802F6BE343E00E94BE560A5F033864
:1057E000C1F706E01CE3FE01E05DF84F4081612F48
:1057F000641B802F0E94BE562196C837D10510F039
:10580000C0E0D0E08091A8079091A907C817D907F8
:1058100019F00F5F0E3739F7DF91CF911F910F917C
:1058200008951F93182F80E060E04FED58E021E0CD
:105830000E9408561236E9F0133628F4103631F07B
:105840001136F1F419C01336D9F416C08FEF97E072
:1058500090930901809308011092AD071092AC0754
:105860001092AF071092AE078091380580933705EC
:1058700007C086E69BE202C082EE95E20E94D00C51
:1058800080E068E04DEC58E00E9442564091AC0741
:105890005091AD075695479584E568E00E94DE5724
:1058A00080E060E14BEB58E00E94425640910801D5
:1058B000509109015695479584E560E10E94DE57B5
:1058C00080E068E149EA58E00E9442564091AC0706
:1058D0005091AD078091080190910901481B590B27
:1058E0005695479584E568E10E94DE5780E060E2C6
:1058F00047E958E00E9442562091AE073091AF0729
:1059000084E690E0289FA001299F500D389F500DFC
:10591000112494E0569547959A95E1F784E560E265
:1059200020E30E94D85780E068E245E858E00E94F2
:1059300042564091B0075091B1075695479584E57E
:1059400068E20E94DE5782E168E345E758E00E9482
:1059500042561F9108951F93182F80E060E141EE99
:105960005CE00E9442560E940817482F88E760E1D9
:1059700050E020E00E94D85780E060E24BEC5CE011
:105980000E944256113651F481E60E94A45981E0EA
:105990000E94CB138FE795E40E94AB131F910895EB
:1059A0008F929F92AF92CF92DF92EF92FF920F93DE
:1059B0001F93CF93DF93EC01162FD42E49012115AD
:1059C000310571F18881882311F040E025C06436EB
:1059D00081F0653601F54423F1F081E090E0841B0D
:1059E0009109880F991FF901E81BF90B8591949192
:1059F00010C0242F30E0802F90E00197281739073E
:105A000054F4F9013196EE0FFF1FE80DF91D859151
:105A100094910E94D00C41E08D2D602F0E94BA25F8
:105A2000E114F10411F490E009C088819C2D8C15DB
:105A300008F4982FF701E90FF11D9491103659F1F0
:105A4000113690F4133409F492C0143430F4113246
:105A500089F1123409F0AEC06EC0143409F445C0A7
:105A6000153409F0A7C054C0143609F442C01536E5
:105A700038F4123609F463C0133609F09BC07AC0BB
:105A80001138A9F01F3B21F0153609F093C044C02E
:105A90001982188213C0992309F48CC090E0809178
:105AA000DA05882309F491E09093DA0583C0109217
:105AB000DA050DC08091DA05882319F01092DA0515
:105AC00079C08881882319F08114910421F480E041
:105AD0000E94CB136FC080913805809337051982DF
