:100000000C94E80C0C94050D0C94050D0C94050D46
:100010000C94050D0C94050D0C94050D0C94050D18
:100020000C94050D0C94050D0C94DB0D0C94050D32
:100030000C94740E0C94050D0C94050D0C94F80E94
:100040000C94050D0C94050D0C94B6620C94306361
:100050000C94050D0C94050D0C94050D0C94050DD8
:100060000C94050D0C94FA0D0C94050D0C94050DD3
:100070000C94050D0C94050D0C94050D0C94050DB8
:100080000C94050D0C94050D0C94050D804000009A
:1000900000000000000000000000000000F0080464
:1000A0000484444444444444444444444444444410
:1000B00044C4040488700000000000000000000038
:1000C0000000000000000000000000000000000030
:1000D0000000000000000000000000000000000020
:1000E0000000000000000000000000000000000010
:1000F0000000000000000000000000000000000000
:1001000000000000000000000000000000000000EF
:1001100000000000000080808080808080BF8080A0
:1001200080BF808080800000304848484848484868
:100130004888090908F00000000101017F01010160
:100140000100007F49494949414140007F4040400A
:10015000404040007F49494949414140007F0106F4
:100160000C10100C06017F00007F494949494141AC
:10017000400101017F0101010100007F0909090916
:1001800019294E000103060C780C0603010000003B
:1001900000F8FEFFFFFF0F0707070707073747872E
:1001A00087879797075FDFDFDFDED880101010109A
:1001B000100F0080403F80C0E0E0E06020000000C1
:1001C000000000000000000000000000000000002F
:1001D000000000000000000000000060D09090903F
:1001E0009090000000F09090909010100000F0901F
:1001F0009090909090E00000F0000000F0909090BF
:100200009010100060D0909090909000000000003E
:10021000000107070F0F0F0E1E1E1E1E1E1E0E0EC4
:100220000E0E0E8ECEEEFCF973270F1F3F7EFCF9EB
:10023000F1F1F9FC3E1F0F07030100000000000070
:1002400000000000000000000000000000000000AE
:10025000000000000000000000000002060404048A
:100260000404030000070404040404040400070059
:10027000000000010204000007000000070404045D
:10028000040404040206040404040403000000003F
:100290000000000000040C1C1C1C1C1C1E1E1E0E5A
:1002A0000E0F070703030180C0E0F0F87C3E1F0F2C
:1002B00007070F1F3F7EFCF8F0E0C0800000000041
:1002C00000000000000000007E4A4A4A4A4A7C00C2
:1002D00002060C7008040202000000001C224141CA
:1002E0004949493A1800007E12121212324C00009D
:1002F0003E40404040403E00020C186060300C021E
:10030000007E00007E020C1830407E0000000000DD
:1003100000E0101010E00000C0804080000080402D
:1003200040800000CC8E4F8F0F070301000000605B
:10033000909010000000804143870F0FCF0E0CC03B
:100340000000C08040C0000080404040000080406D
:1003500040800000000000000000000000000000DD
:10036000000000000000000000000000000000008D
:10037000000000000000000000000000000000007D
:10038000000000000000000000000000000000006D
:1003900000070808080700003F04080700000709D5
:1003A000C94940408F00000F000000000000000815
:1003B0000808090600000708080700000708040FDE
:1003C00000000F00000000400708080800000709AF
:1003D0000909000000C8000008C000080000000073
:1003E000000000000000000000000000000000000D
:1003F0000000C0000000C00000000000000000007D
:1004000000000000000000C000000000000000002C
:10041000000000000000200000200000200000007C
:100420003F0404040300001E21211E0007380E0EA5
:100430003807001E25252600003F020103000000AA
:10044000000000000001013F00003F02013E0000EB
:10045000000000000000033C030000001E21211EDC
:1004600000001F20103F003F0201030000000000B9
:1004700000003F0202023F00001925151E20003F28
:1004800002013E001E21123F0000222529110052C8
:10049000554420454C45205448522041494C205257
:1004A00055442054485220454C452041494C204158
:1004B000494C20454C452054485220525544204137
:1004C000494C2054485220454C4520525544200068
:1004D00000000000000001081E640101081E640104
:1004E000010F32960A0A1E32960301020004050625
:1004F000076D656E75537461636B206F7665726608
:100500006C6F77006D656E75537461636B20756EEB
:10051000646572666C6F7700707265737320616ECC
:1005200079204B657900414C455254004D45535359
:1005300041474500506C6561736520726573657451
:10054000207468656D005377697463686573206E05
:100550006F74206F666600414C45525400416C61D7
:10056000726D732044697361626C65640054485213
:10057000206E6F742069646C6500454550524F4D84
:10058000206C6F77206D656D004F46464142535297
:100590005573525525454C73454C25544873544862
:1005A00025414C73414C255031205031255032208B
:1005B0005032255033205033250054485252554470
:1005C000454C4549443049443149443241494C47FE
:1005D000454154524E535731535732535733535763
:1005E00034535735535736004F4646004F4E200080
:1005F0002D2D2D002D2D2D20434831204348322014
:10060000434833204348342043483520434836206C
:100610004348372043483820434839204348313045
:100620004348313143483132434831334348313410
:1006300043483135434831364348313743483138F0
:1006400043483139434832304348323143483232EB
:1006500043483233434832344348323543483236D4
:1006600043483237434832384348323943483330BD
:10067000005031202050322020503320204D41584E
:100680002046554C4C50504D3150504D3250504DED
:100690003350504D3450504D3550504D3650504DD4
:1006A0003750504D38434831204348322043483377
:1006B00020434834204348352043483620434837B8
:1006C000204348382043483920434831304348319B
:1006D0003143483132434831334348313443483160
:1006E0003543483136434831374348313843483140
:1006F000394348323043483231434832324348323A
:100700003343483234434832354348323643483223
:1007100037434832384348323943483330002D2D6F
:100720002D2D00564552533A2056312E322D6772E8
:100730007576696E00444154453A2032352E303189
:100740002E323031310054494D453A2031303A3162
:10075000303A3532002053564E3A207472756E6B23
:100760002D723531300020424C443A20353300128E
:10077000081200081C0808081C080000082200498C
:100780000022080000000000227F22000000082252
:100790000049002208000008220049002208000049
:1007A00000227F22000000000008220049002208E9
:1007B0000000081C0808081C0800CA3F8330AE343B
:1007C000404E8347E740DD365050BD38DB2F233D98
:1007D0005A3DE93D8F3E70756C73652074616220EF
:1007E0006F766572666C6F77005448525255444577
:1007F0004C4549443049443149443241494C4745CC
:100800004154524E53573153573253573353573441
:1008100053573553573600544852525544454C456A
:1008200049443049443149443241494C4745415497
:10083000524E5357315357325357335357345357FC
:10084000355357360020202054546D0045787045AC
:100850007846466E654D656443727300544F54008C
:100860005354250053544B0054535700544D4500E6
:1008700053544154005B4D454E555D20746F2072BA
:1008800065736574007431306D7320202020202042
:1008900020202020757300746D61696E206D617871
:1008A0002020202020206D7300746D7231204A6951
:1008B0007474657220202020757300746D72314C41
:1008C0006174206D696E20202020757300746D7234
:1008D000314C6174206D61782020202075730053A5
:1008E00054415432004D6F6465004F46464F4E20D0
:1008F00000416C61726D205761726E696E67004FC6
:1009000046464F4E20004D656D6F727920576172DB
:100910006E696E67004F46464F4E200053776974EC
:100920006368205761726E696E67004F46464F4E8E
:1009300020005468726F74746C65205761726E6920
:100940006E67004F46464F4E200053706C617368CF
:100950002073637265656E004F4646004C69676898
:1009600074206F6666206166746572004C69676802
:100970007420737769746368004F46464F4E2000B9
:10098000466C617368206F6E2062656570004F462B
:10099000464F4E20004265657020636F756E74642B
:1009A0006F776E004F46464F4E20004D696E75744E
:1009B000652062656570004F46464F4E20005468C2
:1009C000726F74746C65207265766572736500531E
:1009D000494E474F534D5046494C540046696C743C
:1009E00065722041444300496E616374697669749D
:1009F0007920616C61726D00426174746572792056
:100A00007761726E696E6700436F6E7472617374A2
:100A10000051756965744E6F4B65794E6F726D202C
:100A20004C6F6E6720784C6F6E670042656570652D
:100A30007200524144494F205345545550004D7562
:100A40006C7469706C6965720043616C0050504D44
:100A5000494E00010456455253494F4E00547269A5
:100A60006D2D202B00204D656E7520457869742012
:100A7000446F776E20202055705269676874204C4F
:100A80006566740044494147004131413241334178
:100A900034413541364137413800414E41003C2018
:100AA0002020203E005365744D69642053657453C3
:100AB00070616E446F6E652020200043414C4942B6
:100AC000524154494F4E004475706C6963617469BA
:100AD0006E67206D6F64656C00312F38006672653B
:100AE00065004D4F44454C53454C0044454C4554DE
:100AF00045204D4F44454C2020205B4D454E555DD3
:100B000000504F534E454700536869667420536543
:100B10006C007553656300344348203643482038E1
:100B2000434820313043483132434831344348311F
:100B30003643480050504D20202053494C565F41C9
:100B400053494C565F4253494C565F4354524143BC
:100B500030390050726F746F005245544131323356
:100B6000004265657020436E74005472696D2053B5
:100B70007700457870202020457846696E65466983
:100B80006E6520204D656469756D436F6172736594
:100B9000005472696D20496E63004F46464F4E20E7
:100BA00000542D4578706F004F46464F4E2000543C
:100BB0002D5472696D00436F756E7420446F776EAB
:100BC000436F756E7420557020200054696D6572F6
:100BD0002000547269676765720054696D65720020
:100BE0004E616D650053455455502000010A0201C5
:100BF0000101010101070301015B4D454E555D20D7
:100C0000205B455849545D00594553202020202041
:100C10004E4F0044454C455445204D4F44454C00F3
:100C2000204142434445464748494A4B4C4D4E4F6C
:100C3000505152535455565758595A303132333413
:100C400035363738395F2D2E006578702020252005
:100C50002073773120737732004558504F2F44521C
:100C600000050444522048696768004452204C6FD4
:100C700077004452204D6964004472537732004437
:100C80007253773100576569676874004578706FF3
:100C9000004558504F2F445220002D2D2D783E30C6
:100CA000783C307C787C663E30663C307C667C6389
:100CB0003120633220633320633420633520633670
:100CC000206337206338206339206331306331314A
:100CD000633132633133633134633135633136002C
:100CE0002B2A52007774207372632020737720635D
:100CF0007276004D495845520044454C45544520B4
:100D00004D4958205B4D454E555D00536C6F772023
:100D100020557000536C6F772020446F776E00442D
:100D2000656C61792055700044656C617920446F71
:100D3000776E0041646420202020204D756C74691A
:100D4000706C795265706C61636520004D756C74D0
:100D50007078004F4646005761726E696E670053A7
:100D60007769746368002D2D2D783E30783C307C97
:100D7000787C663E30663C307C667C633120633232
:100D800020633320633420633520633620633720AB
:100D9000633820633920633130633131633132632A
:100DA00031336331346331356331360043757276E4
:100DB0006573004F4E204F4646005472696D004FD8
:100DC00066667365740057656967687400536F756C
:100DD0007263650045444954204D49582000494EEE
:100DE00053455254204D495820002D2D2D2D2020A3
:100DF00020763E6F66732020763C6F667320207CE1
:100E0000767C3E6F66737C767C3C6F6673414E44A5
:100E1000202020204F522020202020584F522020D8
:100E2000202076313D3D7632207631213D763220CC
:100E300076313E7632202076313C76322020763173
:100E40003E3D76322076313C3D7632200046756E4E
:100E50006374696F6E205631202056320043535719
:100E600049544348000303434C454152204D4958DF
:100E70004553205B4D454E555D0020524554410081
:100E800020524554410020524554410020524554BF
:100E900041004368616E6E656C204F72646572003C
:100EA00054454D504C4154455300434F50592054E4
:100EB00052494D205B4D454E555D002D2D2D494E1F
:100EC000560073756254206D696E20206D61782024
:100ED000696E76004C494D49545300010443560055
:100EE00043555256450050524553455400454449D8
:100EF000542D3E00435552564520000A0101010180
:100F000001010101010101454550524F4D206F760D
:100F10006572666C6F7700454550524F4D206F7675
:100F20006572666C6F7700454550524F4D206F7665
:100F30006572666C6F770067656E7772697465209D
:100F40006572726F7200454550524F4D20466F7268
:100F50006D617474696E670042616420454570720A
:100F60006F6D2044617461004D4F44454C2020203A
:100F700020200050085000000000000000006F001A
:100F80000007000700147F147F14242A7F2A1223ED
:100F90001308646236495522500005030000001C06
:100FA0002241000041221C0014083E081408083E9B
:100FB00008080050300000080808080800606000B9
:100FC000002010080402003E41413E0000427F40E4
:100FD00000625149460041494936001814127F0009
:100FE00027454539003E494932000179050300365D
:100FF000494936000649291E0000363600000056D1
:101000003600000814224114141414144122140848
:1010100000020151090606090906007E0909097E38
:101020007F494949363E414141227F4141221C7F4F
:10103000494949417F090909013E4149497A7F08E7
:1010400008087F00417F41002040413F017F081494
:1010500022417F404040407F020C027F7F04081005
:101060007F3E4141413E7F090909063E4151215ED3
:101070007F09192946264949493201017F01013F6B
:101080004040403F1F2040201F3F4030403F6314FE
:1010900008146307087008076151494543007F4100
:1010A000410002040810200041417F0004020102B7
:1010B0000440404040400001020400205454547851
:1010C0007F484444383844444420384444487F38B6
:1010D00054545418087E0901020C5252523E7F08A3
:1010E00004047800447D40002040443D007F1028E7
:1010F000440000417F40007C041804787C0804040C
:101100007838444444387C14141408081414187CA7
:101110007C080404084854545420043F4440203CB4
:101120004040207C1C2040201C3C4020403C442867
:101130001028440C5050503C4464544C4400083631
:10114000410000007F000000413608000808221C12
:1011500008081C220808A0608000000000000000B1
:1011600000000000000000FFFF0000000000001F62
:101170003F00003F1F00003030FFFF3030FFFF30E6
:10118000303078CCCCFFFFCCCC8C0C060F0F86C057
:10119000E070381C0C3CFEC7E3F33B1E0C00000063
:1011A00000333B1F0F000000000000F0F81C0E078A
:1011B000030000000003070E1CF8F000003030E0D0
:1011C000C0FCFCC0E03030C0C0C0C0FCFCC0C0C02F
:1011D000C000000000000000000000C0C0C0C0C08F
:1011E000C0C0C0C0C000000000000000000000003F
:1011F000000080C0E070381C0C00000000000000FF
:10120000000000000000003838000000000000006E
:101210000000000000000003033F3F03033F3F03C3
:10122000030C0C0C0C3F3F0C0C07030C0E070301C6
:1012300000183C3C180F1F383133331E1E33330067
:10124000000000000000000000000003070E1C3832
:10125000300000000030381C0E07030000030301BB
:10126000000F0F00010303000000000F0F0000003B
:10127000000000333B1F0F000000000000000000D2
:1012800000000000000000183C3C18000000000CAA
:101290000E07030100000000000000FCFE0703032E
:1012A00007FEFC00000C0EFFFF0000000000000C19
:1012B0000E0783C3E77E3C00000303C3C3C3E7FEFE
:1012C0003C0000C0E070381C0EFFFF00003F3F33C1
:1012D000333373E3C30000FCFEC7C3C3C78E0C00E7
:1012E000000303C3E3733B1F0F00003CFEE7C3C3CF
:1012F000E7FE3C00003C7EE7C3C3E7FEFC000018AD
:101300003C3C18000000000000183C3C18000000A5
:10131000000000C0E0F0381C0E07033030303030E1
:10132000303030303003070E1C38F0E0C000000CC5
:101330000E07030383C3E77E3C00000F1F383030E5
:10134000381F0F000030303F3F3030000000003CBD
:101350003E37333130303000003030303030391FDC
:101360000F00000303030303033F3F00000C1C387E
:101370003030381F0F00000F1F383030391F0F007A
:101380000000003F3F0000000000000F1F39303018
:10139000391F0F0000000030381C0E070300000644
:1013A0000F0F06000000000000333B1F0F0000007D
:1013B000000000000103070E1C3830030303030381
:1013C000030303030330381C0E0703010000000071
:1013D0000000003333010000003C7EE7C3C3E77E1A
:1013E0003C0000F0F8DCCEC7C7CEDCF8F0FFFFC34E
:1013F000C3C3C3C3E7FE3CFCFE0703030303070E9E
:101400000CFFFF030303070E1CF8F0FFFFC3C3C369
:10141000C3C3C30303FFFFC3C3C3C3C3C30303FCEB
:10142000FE0703C3C3C3C7CECCFFFFC0C0C0C0C04C
:10143000C0FFFF00000303FFFF03030000000000E4
:10144000000303FFFF0303FFFFC0E0F0381C0E079B
:1014500003FFFF0000000000000000FFFF0E1CF86B
:10146000F81C0EFFFFFFFF3870E0C08000FFFFFC9C
:10147000FE070303030307FEFC000000000000005A
:101480000000003F3F0000000000003F3F3F3F30B2
:1014900030303030391F0F0F1F3830303030381CAB
:1014A0000C3F3F303030381C0E07033F3F303030A8
:1014B00030303030303F3F00000000000000000FAF
:1014C0001F3830303030383F1F3F3F0000000000F1
:1014D000003F3F000030303F3F303000000C1C38F0
:1014E0003030381F0F00003F3F000103070E1C384B
:1014F000303F3F30303030303030303F3F00000040
:101500000000003F3F3F3F0000000103073F3F0F47
:101510001F3830303030381F0FFFFFC3C3C3C3C381
:10152000E77E3CFCFE070303030307FEFCFFFFC34B
:10153000C3C3C3C3E77E3C3C7EE7C3C3C3C3C78EFC
:101540000C03030303FFFF03030303FFFF0000007B
:10155000000000FFFFFFFF000000000000FFFFFF92
:10156000FF000000000000FFFF0F1F38F0E0E0F078
:10157000381F0F3F7FE0C08080C0E07F3F03030340
:1015800083C3E3733B1F0F0000FFFF03030303004C
:10159000000C1C3870E0C080000000000003030352
:1015A00003FFFF000030381C0E07070E1C38300008
:1015B0000000000000000000003F3F0000000000AD
:1015C0000000000F1F383033371E1C3F333F3F00F1
:1015D0000003070E1C38300C1C3830303030391FF7
:1015E0000F000000003F3F000000000F1F383030A8
:1015F0003030381F0F03070E1C38381C0E07030F3E
:101600001F38381F1F38381F0F3C3E0703010103E6
:10161000073E3C000000013F3F010000003C3E3718
:101620003331303030303000003F3F303030300028
:101630000000000000000103070E0C0000303030F5
:10164000303F3F00000000000000000000000030BC
:10165000303030303030303030000003070E1C386E
:101660003000000000303030303070E0C0FFFFC08C
:10167000E070303070E0C0C0E070303030303000AA
:1016800000C0E070303070E0C0FFFFC0E07030306C
:10169000303070E0C0C0C0FCFEC7C303070E0CF0C2
:1016A000F89C0C0C0C0C0CFCFCFFFFC0E070303004
:1016B00070E0C000003030F3F300000000000000D4
:1016C000003030F3F30000FFFF0080C0E070300016
:1016D0000000000303FFFF00000000F0F03070E0A6
:1016E000E07070E0C0F0F0C0E070303070E0C0C07A
:1016F000E0703030303070E0C000000000000000CA
:101700000000000C1E3F33333333333F3F3F3F3045
:1017100030303030381F0F0F1F3830303030381C29
:101720000C0F1F3830303030303F3F0F1F3B33330A
:10173000333333030300003F3F000000000000008C
:101740000133333333333B1F0F3F3F0000000000B2
:10175000003F3F000030303F3F303000000C1C386D
:101760003030381F0F00003F3F03070F1C38300098
:1017700000000030303F3F303000003F3F000003AA
:101780000300003F3F3F3F0000000000003F3F0FCD
:101790001F3830303030381F0FF0F03030303030FC
:1017A000F0E0C0C0E0F0303030E0C0F0F0F0F0C069
:1017B000E070303070E0C0C0E0F0303030303000E9
:1017C000003030FFFF303000000000F0F00000007B
:1017D000000000F0F0F0F0000000000000F0F0F079
:1017E000F0000000000000F0F03070E0C08080C029
:1017F000E07030F0F0800000000000F0F030303099
:101800003030B0F0F070300000C0E03C3E07030024
:101810000000000000FFFF00000000000003073E82
:101820003CE0C00000C0C0C0C00C1CF8F0E0C0C06C
:10183000E0F0F81C0CC0C0C0C03F3F03030303032B
:1018400003010000010303030303033F3F3F3F0085
:1018500000000000000000303133333333333F1ECB
:101860000C00000F1F383030381C0C0F1F38303080
:10187000381C0C3F3F03070E1C38381C0E07030FA3
:101880001F38381C1C38381F0F30381C0F07070F43
:101890001C3830000133333333333B1F0F30383CB7
:1018A0003E373331303030000000010F1F38300038
:1018B00000000000003F3F00000000000030381F23
:1018C0000F01000000000000000C0E0703010000E3
:1018D0000103070E0C0000000040800804201002E5
:1018E00001E466AA65FC634C543C47543E002D2D30
:1018F0002D59656C4F726752656400413261413207
:101900006241316141316200536C6F74204C6576E5
:10191000656C203E203C2056616C75650046525334
:101920004B5920414C41524D530001034E6F2059F9
:101930006573004E6F204461746120416C61726D6B
:101940000056426172204D617820566F6C747300AE
:1019500056426172204D696E20566F6C747300564A
:101960006F6C74732043616C6962726174650052BC
:1019700078204D617820566F6C7473002D2D4131A5
:10198000413200527820566F6C7473204368616E48
:101990006E656C004652534B592053455454494E82
:1019A000475300527820426174743A0052782052B2
:1019B0005353493A20202064420041323A004131D9
:1019C0003A0044415441004E4F004652534B590097
:1019D00011241FBECFEFD0E1DEBFCDBF12E0A0E0EB
:1019E000B1E0EAE1F2ED02C005900D92A437B10733
:1019F000D9F710E1A4E7B2E001C01D92A431B1070C
:101A0000E1F70E948C150C940B690C94000088304F
:101A100048F4E82FF0E0EE0FFF1FE055FA4F208169
:101A200031811FC08A3018F420E034E01AC0A82F9A
:101A3000B0E0813180F4AA0FBB1FFD01EC56FD4FD1
:101A4000A35CBA4F2D913C9180819181281B390B69
:101A5000220F331F06C0AA0FBB1FA456BA4F2D91E9
:101A60003C91C9010895E0913D05F0E0EE0FFF1FA4
:101A7000EB5CFA4F808191810895FC01A0913D05B6
:101A8000B0E0AA0FBB1FAD5CBA4F8D939C938FEB58
:101A9000099580913F0580933E050895E82FF0E079
:101AA000E751FB4FE491F0E0EE0FFF1FE059FA4FD2
:101AB0008FB7F8940190F081E02D87FF01C07894F2
:101AC000CF010895A0E7B5E0E0E8F5E060E0862FFB
:101AD000806487B9369A349BFECF349A2089318945
:101AE0008D919C91119796958795820F931F8E7F6C
:101AF0008D939D9340815181240F351F36952795F5
:101B0000318B208B84B195B1840F951F9695879565
:101B1000819391936F5F6830D1F60895DF93CF93EF
:101B2000CDB7DEB760970FB6F894DEBF0FBECDBF5E
:101B3000FE01319680E1DF011D928A95E9F7A0E769
:101B4000B5E050E015C067B9369A349BFECF349AA1
:101B500084B195B1280F391F4F5F4430A1F721930D
:101B60003193369527952D933D935F5F583031F033
:101B70002081318140E0652F6064E5CF60960FB62B
:101B8000F894DEBF0FBECDBFCF91DF910895E0E79F
:101B9000F5E020E0822F806487B9369A349BFECF2F
:101BA000349A84B195B1880F991F819391932F5FD7
:101BB000283081F708951F920F920FB60F921124CB
:101BC0008F93809161058F5F809361058F910F9056
:101BD0000FBE0F901F9018954091610522B780911C
:101BE00061054817C9F7942F80E030E0282B392B86
:101BF000C901089578941F920F920FB60F92112485
:101C00002F933F934F935F936F937F938F939F9304
:101C1000AF93BF93EF93FF932091800030918100A9
:101C2000F89480917D008F7D80937D0078948091E1
:101C3000670590916805A901481B590B5695479572
:101C40003093680520936705CA01815A9F408F5DD4
:101C50009E4220F481E080935F052EC020915F05B5
:101C6000822F8150883040F5CA01815293408757B6
:101C7000954000F5E22FF0E0EE0FFF1FE35BFA4F17
:101C80004C5D55408091BE02992787FD90950A963C
:101C9000BC01469FC001479F900D569F900D112497
:101CA0006AE070E00E947968718360832F5F2093FF
:101CB0005F0502C010925F05F89480917D008062FC
:101CC00080937D007894FF91EF91BF91AF919F91A8
:101CD0008F917F916F915F914F913F912F910F90D5
:101CE0000FBE0F901F9018951F920F920FB60F9274
:101CF00011242F933F934F935F936F937F938F9311
:101D00009F93AF93BF93EF93FF9390E08CB58A308E
:101D100008F066C09F5F923309F462C0F7CFC09AA3
:101D200010926A0504C0C09881E080936A05809192
:101D3000B1079091B2079C012417350708F49A0166
:101D40003093B2072093B107809108019091090167
:101D50009C014217530708F49A013093090120931C
:101D60000801A0910601B0910701FD0181919191B7
:101D70009BBD8ABDF0930701E093060112968D91F9
:101D80009C911397892BB1F487EB97E0909307010F
:101D9000809306018091D60280936A05F89487B7F4
:101DA0008F7E87BF78940E94081BF89487B7806164
:101DB00087BF789480916005816080936005FF9172
:101DC000EF91BF91AF919F918F917F916F915F91B3
:101DD0004F913F912F910F900FBE0F901F9018952C
:101DE0004CB55DB580916A05882309F098CF9BCFEB
:101DF00078941F920F920FB60F9211242F933F9356
:101E00004F935F936F937F938F939F93AF93BF9302
:101E1000CF93DF93EF93FF93F89487B78D7F87BFBE
:101E200081B7845681BF7894F894CCB5DDB57894A9
:101E300090913E05992369F080916305882329F4E8
:101E40009093630581E080936405915090933E05E3
:101E500021C0309162053323B9F02091630522231C
:101E600099F090E080916405882309F491E09093C3
:101E70006405992309F428E020933E05992351F045
:101E800031503093620506C01092630510926405CC
:101E90001092320580916405882381F0809132058B
:101EA000882311F490E004C09091690581E098279F
:101EB00090936905992311F41B9A01C01B980E9405
:101EC000A55C80916005826080936005F8948CB574
:101ED0009DB578948C1B9D0B9093B6078093B507A6
:101EE000F89487B7826087BF7894FF91EF91DF9174
:101EF000CF91BF91AF919F918F917F916F915F91A2
:101F00004F913F912F910F900FBE0F901F901895FA
:101F1000AF92BF92CF92DF92EF92FF920F931F93F7
:101F2000CF93DF93D82EB42E35E03B1508F419C1BA
:101F3000DD2009F419C180E1D81609F414C190EF2D
:101F4000D91609F40EC12D2D332727FD3095C9016F
:101F500037FF04C088279927821B930B8A308CF4A3
:101F60001D144CF08DE090E0821B930B0E94FC5BF3
:101F700061E06827F9C0C9010D960E94FC5B682FDB
:101F8000F3C0E82EFF24E7FCF09486EF9FEFE80E05
:101F9000F91ED701AA0FBB1FAE0DBF1DA054BD4F28
:101FA000A85ABD4F8C91A855B240882309F4D9C0D6
:101FB000FD01EA5AFD4FC080ED01C95ADD4FA880EE
:101FC000853008F4DDC0883028F400E010E020E01F
:101FD00030E00AC08C2D81500E94070D8C01888151
:101FE00081500E94070D9C01F701EE0FFF1FEE0DBF
:101FF000FF1DE85EFA4FE081E73009F483C0E83066
:1020000088F4E33069F1E43030F4E13009F1E23092
:1020100009F0A7C021C0E53009F456C0E63008F049
:1020200066C038C0EA3009F488C0EB3038F4E830D4
:1020300009F479C0E93009F094C07AC0EC3009F4B1
:1020400086C0EC3008F47EC0ED3009F08AC084C050
:102050001D140CF472C080C01D140CF473C077C042
:102060001D1464F460E0C80117FF03C090958195CA
:102070009F4F281739070CF077C075C060E0C80182
:1020800017FF03C0909581959F4F281739070CF4CF
:102090006BC069C01D1464F460E0C80117FF03C081
:1020A000909581959F4F821793070CF05DC05BC0A0
:1020B00060E0C80117FF03C0909581959F4F82177C
:1020C00093070CF451C04FC01B2D1F5F8C2D60E097
:1020D000412F0E94880F882309F443C08A2D60E0B5
:1020E000412F0E94880F682F8823F1F13CC0B394E0
:1020F0008C2D60E04B2D0E94880F8823A1F5DA2CEF
:1021000060E012CF1B2D1F5F8C2D60E0412F0E94DD
:10211000880F082F8A2D60E0412F0E94880F60E011
:10212000081709F521C060E002171307E9F41BC086
:1021300060E002171307B9F417C060E020173107F9
:102140009CF411C060E00217130774F40CC060E047
:10215000021713074CF007C060E02017310724F086
:1021600002C060E001C061E0862FDF91CF911F9136
:102170000F91FF90EF90DF90CF90BF90AF900895B8
:102180008C2D81500E94070D8C012881822F27FD04
:102190008D5F85958595E82FFF27E7FDF0953AE05F
:1021A0002302C0011124E80FF91F822F27FD815C53
:1021B00086FB880F880B80F9992787FD90959F01F2
:1021C000281B390B11CF4F925F926F927F928F92A3
:1021D0009F92AF92BF92CF92DF92EF92FF920F93B6
:1021E0001F93CF93DF93182F5B012A013901C02E73
:1021F000802E9924C4018470907004FF07C0892B3D
:1022000039F4FB018081E82EFF240CC0892B21F0DA
:10221000F501E080F18006C0FB018081E82EFF24FB
:10222000E7FCF09483FC04C034E0D32E05E003C047
:1022300023E0D22E02E014FF05C01F701066802F2D
:102240000D2DD82E8D2D8066181761F08D2D806490
:10225000181741F09091DF05992361F0133611F0C2
:10226000133441F4E701219680913F0580933E05A8
:10227000802F17C0802F8066181761F0802F806430
:10228000181741F0992309F467C0123619F0123477
:1022900009F062C0E701219780913F0580933E05D8
:1022A0008D2D90E00E94FC5B882351F0CC27DD2728
:1022B000CE19DF09802F0E94835C8D2D0E94835CE4
:1022C0008091470590914805C81BD90B6C167D0677
:1022D00044F4812F0E94835C8091410580933E05E8
:1022E000E301C415D50544F4812F0E94835C8091DD
:1022F000410580933E05E201CE15DF05C9F0209728
:1023000039F4812F0E94745C8091410580933E05D1
:1023100082FE04C0F501D183C08302C0F501C083F1
:102320008C2D83720E946B5181E08093440503C021
:102330001092440580E0DF91CF911F910F91FF90A3
:10234000EF90DF90CF90BF90AF909F908F907F9055
:102350006F905F904F900895E701B2CF0F93DF9396
:10236000CF930F92CDB7DEB76983552747FD5095C0
:10237000332727FD3095BE016F5F7F4F09E00E9434
:10238000E31089810F90CF91DF910F9108950F9302
:10239000DF93CF930F92CDB7DEB76983552747FD03
:1023A0005095332727FD3095BE016F5F7F4F01E0C9
:1023B0000E94E31089810F90CF91DF910F910895D2
:1023C0000F93DF93CF930F92CDB7DEB76983552775
:1023D00047FD5095332727FD3095BE016F5F7F4F36
:1023E0000AE00E94E31089810F90CF91DF910F9155
:1023F00008950F93DF93CF930F92CDB7DEB7698324
:10240000552747FD5095332727FD3095BE016F5F57
:102410007F4F02E00E94E31089810F90CF91DF91FE
:102420000F9108951F93182F682F6F706650209199
:10243000D20222306CF0332727FD309521503040F6
:1024400081E090E002C0880F991F2A95E2F7282FBB
:10245000683008F092C0962F9595222311F0422FF4
:1024600015C0E92FF0E0EE55FB4F8081482F55272E
:1024700047FD509557FF03C0509541955F4F242F5E
:1024800047FD2D5F422F459545954F5FA92FB0E041
:102490002091B80230E02170307082E090E0821B21
:1024A000930B8A179B0739F48091D1028F7019F032
:1024B00044E071E001C070E0242F332727FD309500
:1024C000FD01E054FD4F60FF0AC0EE51FE4F8081D8
:1024D000482F552747FD5095420F531F09C0EE5115
:1024E000FE4F8081482F552747FD5095421B530BC7
:1024F0004115510571F0952F9095991F9927991FB6
:1025000020E0FD01EE55FB4F808187FF21E092170F
:1025100069F0772359F4FD01EE55FB4F8081882344
:1025200029F01082812F0E94835C20C0CA01845848
:102530009F4F893F910570F4AE55BB4F4C9382E09D
:102540000E946B5116FF03C081E080933205809199
:102550003F0510C01416150614F083E801C08DE77E
:10256000AE55BB4F8C9382E00E946B5110923205A6
:102570008091410580933E0510E0812F1F910895C1
:102580001F932091C60F3091C70F40E080916E05D8
:1025900090916F052817390709F041E040934C05E9
:1025A0008091C60F9091C70F90936F0580936E0531
:1025B00081EE95E060E00E946E1D80914C058823BD
:1025C00009F41FC180E00E947C510E94435B0E947D
:1025D0006C5B0E941212182F80914D0590914E0550
:1025E000009729F0019790934E0580934D05112394
:1025F00089F08091BC0290E024EF31E0AC01429F71
:10260000C001439F900D529F900D112490934E0551
:1026100080934D058091A50260E040E00E94880F04
:10262000882339F480914D0590914E05892B09F44A
:10263000E6C0C79A2091BC053091BD058091450543
:1026400090914605821B930B60E270E00E947968CE
:1026500070934805609347056115710591F080916D
:102660006C0590916D05821B930B62E070E00E94F7
:102670007968709348056093470530934605209329
:10268000450530936D0520936C05E0913D05F0E024
:10269000EE0FFF1FED5CFA4F0190F081E02D812FCE
:1026A00009950E941A5B8091630081FF04C08091AC
:1026B00065008F7E03C08091650080618093650016
:1026C0008091C60F9091C70F8F71907082309105E5
:1026D00021F0039709F095C07BC080914905909146
:1026E0004A05892BA1F4E0EFF4E0E491F0E0EE0F6D
:1026F000FF1FE059FA4F8FB7F8940190F081E02D59
:1027000087FF01C07894F0934A05E09349056091F2
:10271000490570914A05E0EFF4E0E491F0E0EE0F36
:10272000FF1FE059FA4F8FB7F8942081318187FF5E
:1027300001C0789440E050E0CB01E3E0880F991F9E
:10274000EA95E1F7861B970BA0E0B0E0280F391F50
:102750004A1F5B1F63E056954795379527956A9505
:10276000D1F7B90130934A05209349058091A4021D
:10277000992787FD9095880F991F880F991F680FDB
:10278000791F84E290E09C01629FC001639F900DDD
:10279000729F900D1124969590934B0580916B0537
:1027A000805E80936B05882361F58091A302981762
:1027B00040F58091430580933E058091BA0283FFE6
:1027C00020C082E390E090934E0580934D0519C0A0
:1027D0008091B702869586958695877090E0BC01BA
:1027E000660F771F660F771F680F791F60537B4F47
:1027F0008FE395E045E050E00E94C96802C0C798A9
:1028000019CF1F910895FF920F931F938C01F62EFD
:102810000E94435B82E260E046E255E020E80E94CD
:102820001F5980E068E1A8010E944D598CE168E3DE
:1028300048E155E00E944D590E941A5BFF2011F0BB
:1028400089E102C08091A2020E94105B8091430541
:1028500080933E050E946C5B807F803291F0809176
:10286000A50260E040E00E94880F882331F4809147
:10287000BC02882311F4FF2011F0C79AEBCFC79850
:10288000E9CF1F910F91FF9008959C0180913D0524
:10289000E82FEF5FE0933D05E53040F080933D0584
:1028A00081EF94E060E00E940314089580913F0559
:1028B00080933E05F0E0EE0FFF1FED5CFA4F318391
:1028C00020838FEBF90109950895E0913D05EE23F2
:1028D000B1F0882311F0E0E001C0E150E0933D0544
:1028E00080913F0580933E05F0E0EE0FFF1FED5C09
:1028F000FA4F0190F081E02D8EEB0995089584E068
:1029000095E060E00E94031408958091B70287FD6E
:1029100007C0887329F48DE595E060E00E940314F8
:1029200008950F931F93CF93DF938091B70280FD9B
:1029300051C08091C60F9091C70F4497D0F38091FA
:10294000B80290E08170907022E030E0281B390BD3
:10295000E22FF0E0E751FB4FE491F0E0EE0FFF1FB4
:10296000E059FA4F8FB7F8940081118187FF01C0B9
:102970007894F901EE0FFF1FEC58FD4FC181D28111
:1029800027853089058CF68DE02DC90168E070E05F
:102990000E947968621B730B6C0F7D1F60177107B3
:1029A00024F48091BA0280FF10C0CE0FDF1FCF0148
:1029B00068E070E00E947968C61BD70B0C171D07F2
:1029C0004CF48091BA0280FF05C08DE695E060E08E
:1029D0000E940314DF91CF911F910F9108950F93DF
:1029E0001F938C010E94435B82E260E04CE255E061
:1029F00020E80E941F5980E068E1A8010E944D591B
:102A00000E941A5B8091A2020E94105B1F910F919D
:102A100008951F938091B70281FD2FC00E94435BF0
:102A200082E260E047E555E020E80E941F5980E01F
:102A300060E246E455E00E944D5980E068E344E3DB
:102A400055E00E944D590E941A5B8091A2020E949B
:102A5000105B1EE00EC0113141F0812F8D5060E0FF
:102A600040E00E94880F882311F41F5F02C01EE01F
:102A7000F4CF163180F31631D1F71F91089580916C
:102A8000B70282FD0AC00E946A54883C910528F46E
:102A90008AE795E060E00E94031408950F93CF93B6
:102AA000DF938091BA0284FD33C00E94435B80E0D3
:102AB00060E04CE850E020E000E00E94EF570E9408
:102AC0001A5B8091A2020E94105BC091C60FD09148
:102AD000C70FC853DF4F12C00E946C5B807F8032EB
:102AE000B9F08091A50260E040E00E94880F882341
:102AF00021F48091BC02882349F0C79A8091C60FC7
:102B00009091C70FC817D90739F702C0C798F6CFF9
:102B1000DF91CF910F910895EF92FF920F931F9342
:102B2000CF93DF939FEF9ABB1BBA81E887BB8EE7F9
:102B300088BB8EE384BB81EC85BB11BA92BB88E075
:102B400082B987EF83B9109261009093620080E1AF
:102B500080936400909365000E94D55A0E941C687F
:102B600080E487B985E886B987E083BF8CE981BFB7
:102B700087B7836087BF8AE08EBD82E880938A0032
:102B800087B7806287BF789486E695E29093340594
:102B90008093330589E10E94105B0E9483530E9459
:102BA0004E150E943F150E94C70D0E9491140E946D
:102BB00009150E9485140E94081B2DE088E190E011
:102BC0000FB6F894A89581BD0FBE21BD81EE95E0AA
:102BD00060E00E946E1D8AEC9FE30E94451481E034
:102BE0000E9465148091A2020E94105B8091BC0239
:102BF00090E024EF31E0AC01429FC001439F900D73
:102C0000529F900D112490934E0580934D0587B7E8
:102C1000806187BFF0906105E2B680916105F8168A
:102C2000C9F7E091BB02F0E0EE0FFF1FE050FF4F4D
:102C30000190F081E02D09950E94C01280916005FD
:102C4000833019F4A895109260052091610532B780
:102C5000809161052817C9F71F2D00E08E2D90E0A7
:102C6000802B912BD22FC0E0232F30E02C2B3D2B3B
:102C70004091B3075091B407281B390B241735072F
:102C800008F49A013093B4072093B307C3CF0F938E
:102C9000022F50E0440F551F440F551F4C505A4F00
:102CA00024E00E94ED580F9108950F93022F4423C2
:102CB00019F44EE157E01CC0242F30E0415044305D
:102CC00080F44091B80250E0440F551F440F551F47
:102CD000420F531F440F551F440F551F45575B4F5D
:102CE00007C0220F331F220F331F235A394FA90168
:102CF00024E00E94ED580F910895EF92FF920F93F8
:102D00001F93082FF62E142FE22E442329F0403172
:102D100039F0403F81F408C08A5F40EF55E007C0BA
:102D20008A5F4CEE55E003C08A5F48EE55E02E2DD9
:102D30000E941F591CC0441F4427441F405E0E942C
:102D40004C58802F8A5F212F332727FD309537FF7E
:102D500003C0309521953F4F43E02402A001112488
:102D600049545A4F6F2D23E00E2D0E94ED581F91AC
:102D70000F91FF90EF900895DF92EF92FF920F93E3
:102D80001F93F82EE62ED42E1091CB02812F992777
:102D900087FD909597FF03C0909581959F4F803157
:102DA0009CF443E08402A001112447575A4F8F2D11
:102DB0006E2D23E00D2D0E94ED581F3F4CF58F2DF9
:102DC00086506E2D41E221C08F3174F411161CF42F
:102DD000412F4F5002C0412F415F8F2D86506E2DE5
:102DE0002D2D0E947D1614C011161CF4412F4E513A
:102DF00002C0412F425E8F2D86506E2D2D2D0E94D8
:102E00007D168F2D8E5E6E2D4DE62D2D0E944C5819
:102E10001F910F91FF90EF90DF900895FF920F9315
:102E20001F93182F062FF22E442321F4885E46E5C7
:102E30000E944C5840914B05812F885E602F50E0D6
:102E40002F2D0E94245A1F910F91FF900895DF9219
:102E5000EF92FF920F931F93CF93DF93182FE62EDD
:102E6000EA01F22ED02E57FD02C040E201C04DE231
:102E70000F2D0C7F812F6E2D202F0E944C58F7FCB8
:102E800002C081E101C088E1180FF7FE03C0812F65
:102E90008D5F02C0812F83506E2D4AE3202F0E9448
:102EA0004C58D7FF03C0D095C195DF4FCE016CE3DE
:102EB00070E00E947968AB012F2D2460812F6E2D68
:102EC00002E00E949559F7FC02C02CE001C029E104
:102ED000CE016CE370E00E947968AC0184E0D82AEE
:102EE000822F810F6E2D2D2D02E00E949559DF91CA
:102EF000CF911F910F91FF90EF90DF900895FC010B
:102F000060E270E00E9479689B01CF0160E870E0A8
:102F10000E947968261B370B2E0F3F1FCF0160E000
:102F200072E00E947968260F371FC90108956F92D9
:102F30007F928F929F92AF92BF92CF92DF92EF9249
:102F4000FF920F931F933B017C0100E010E0882467
:102F5000992464E670E080E090E0661977098809BA
:102F60009909A80197010E943A685B016C0182E30C
:102F700090E0A0E0B0E0A80EB91ECA1EDB1EC8019A
:102F8000B7010E943A680E943A68BC0188279927D5
:102F9000A40193010E943A6824E09695879577955D
:102FA00067952A95D1F7A60EB71EC81ED91EC60171
:102FB000B50124E630E040E050E00E948C68C90191
:102FC0001F910F91FF90EF90DF90CF90BF90AF9047
:102FD0009F908F907F906F900895FF920F931F9313
:102FE0009C01AB016115710531F1FF2497FF05C00C
:102FF000FF24F394309521953F4F57FF10C000E018
:1030000014E066277727641B750BC801821B930B9E
:103010000E9497179801281B390BC90104C0C901E8
:10302000BA010E949717FF2011F49C0104C02227C7
:103030003327281B390BC9011F910F91FF90089569
:10304000282FE0E2FCE080E09491921731F0319675
:10305000992311F08F5FF8CF80E00895883210F047
:1030600080E20895E82FF0E0E05EF34F8491089548
:103070009C0140E0683008F041E070E0442371F0CA
:10308000CB010897FC0163E0EE0FFF1F6A95E1F7A3
:10309000E80FF91FDF01A253BB4F0AC0FB01EE0F7F
:1030A000FF1FEE0FFF1FE60FF71FDF01AA55BB4FF3
:1030B000FD01808120503C4F37FD0EC068E020307C
:1030C000360784F0442319F484E090E002C088E0DD
:1030D00090E0A80FB91F8C91992787FD9095582FE4
:1030E000442733C0442331F0432FB9017070660F79
:1030F000771F04C0432F4695B9017170842F90E06B
:10310000FD01E80FF91F8181992787FD90959B01AB
:1031100035952795829FA001839F500D929F500D5A
:1031200011242081332727FD309580E092E0861B13
:10313000970B95958795BC01269FC001279F900D01
:10314000369F900D1124480F591FCA0169E170E0A4
:103150000E947968CB010895EF92FF921F93CF935D
:10316000DF931091D002110F185F9091D30284E683
:103170009802C0011124EC01C85ADD4F1A3028F41E
:1031800048EC5FEA4C1B5D0B0DC08853904F212F1C
:1031900030E0829FA001839F500D929F500D11241B
:1031A000405C504EA7EBB7E0E1EEF5E0612F70E038
:1031B000660F771F660F771F6A0F7B1FEE24FF24B1
:1031C000EC1AFD0A1FC02081318184E020303807CD
:1031D0001CF020E034E006C08CEF2130380714F4F6
:1031E00020E03CEF205A364FC701821B930B480F5B
:1031F000591F1196DC93CE9313963C932E931297FE
:1032000014963296A617B707F1F6E12FEE0FAE2F00
:10321000B0E0AA0FBB1FA954B84FCD93DC93EF5F6A
:10322000AE2FB0E0AA0FBB1FA954B84F4D935C93CB
:10323000EF5FF0E0EE0FFF1FE954F84F11821082AC
:10324000DF91CF911F91FF90EF900895A091110A07
:10325000B091120AFD018193919313967C936E9322
:1032600012973296F093120AE093110A0895882378
:1032700029F020E639E080E699E004C020EB34E054
:1032800080EB94E0A091110AB091120AFD018193A4
:10329000919313963C932E9312973296F093120AC1
:1032A000E093110A08951F93182F82700E94371916
:1032B000812F81700E9437191F910895CF92DF925C
:1032C000FF920F931F93DF93CF9300D0CDB7DEB75C
:1032D0008091CF02813019F0823019F404C010E0DF
:1032E00003C011E001C012E02091E1053091E20538
:1032F00020503C4F220F331F8091E3059091E4054D
:1033000080509C4F880F991F892F232F37FD20E075
:1033100087FD80E0022F20310CF00FE0F82E2FE027
:10332000281714F45FE0F52E2F2D332727FD309555
:10333000802F992787FD909509968217930714F49B
:103340000F2D0950C02EDD24C7FCD094275F3F4FBE
:103350002C153D051CF447EFF42EF00E80E797E1A5
:103360009093B8078093B70780EB94E09093BA07E7
:103370008093B9078BEB97E09093120A8093110A20
:1033800080E00E945319A091110AB091120A80E6C0
:1033900099E0FD018193919320EB34E013963C93E7
:1033A0002E931297DF0112969383828313963C9398
:1033B0002E9312971496B093120AA093110A812F9C
:1033C0000E9453191195C6019595879595958795F6
:1033D0008A830E9453193A81131B802F0E9453192C
:1033E000101B8F2D992787FD90959595879595951D
:1033F000879589830E9453198981181B8F2D0E94FC
:103400005319812F8F190E94531980E00E94371998
:10341000E091110AF091120A80E69AEE929382935B
:10342000329611921192F093120AE093110A0F90C2
:103430000F90CF91DF911F910F91FF90DF90CF9070
:103440000895A091110AB091120A882341F0FD015C
:1034500080E293E08193919380E496E007C0FD01C0
:1034600080E496E08193919380E293E013969C939D
:103470008E9312973296F093120AE093110A0895F0
:103480000F931F93082F10E0802F81700E94211A44
:103490001F5F06951830C1F71F910F9108950F9384
:1034A0001F9387EB97E09093120A8093110A809103
:1034B000130A91E089278093130A882309F454C0E2
:1034C0008091E1059091E205885F9B4F34E09695ED
:1034D00087953A95E1F78038910510F08FE790E0F5
:1034E000182F2091E3053091E40537FD0FC0C90185
:1034F000409625E0969587952A95E1F780349105C9
:1035000010F08FE390E0082F00640FC080E190E09E
:10351000821B930B05E0969587950A95E1F7803419
:10352000910510F08FE390E0082F812F0E94401A40
:10353000802F0E94401A0127802F90E09C0114E008
:10354000359527951A95E1F7B4E0880F991FBA953C
:10355000E1F7822B0E94401AA091110AB091120A41
:10356000FD0180E197E230C08091E5059091E6058C
:1035700080509C4FA4E096958795AA95E1F78038F6
:10358000910510F08FE790E0082F0068802F0E94CF
:10359000401A8EE80E94401A8EE8082710E0C80101
:1035A000F4E095958795FA95E1F7E4E0000F111F97
:1035B000EA95E1F7802B0E94401AA091110AB09180
:1035C000120AFD0180EB96E38193919380EA9FE0DC
:1035D00013969C938E9312973296F093120AE0936F
:1035E000110AE091110AF091120A11921192F093CE
:1035F000120AE093110AE75BF740E03FF1052CF077
:1036000086ED97E060E00E9403141F910F910895EA
:103610008091CF02843018F4813038F403C08430B4
:1036200049F406C00E94AC1808950E945E190895DE
:103630000E944F1A0895FF920F931F93CF93DF9329
:10364000082F1091CB02812F992787FD909597FF26
:1036500003C0909581959F4FF82E2EE12817E4F432
:1036600011161CF4812F8E5102C0812F825E60E002
:1036700040E00E94880F282F882361F08091200A63
:10368000882341F490E08091230A882309F491E093
:103690009093230A2093200AC091260AD091270AEA
:1036A0002196D093270AC093260AE091240AF0912C
:1036B000250AE00FF11DF093250AE093240A80917A
:1036C000C60F9091C70F2091280A3091290A821BBA
:1036D000930B8436910508F43FC12C593F4F30932A
:1036E000290A2093280ACF01BE010E946568062F8F
:1036F000862F90E0AC014C9FC0014D9F900D5C9FC8
:10370000900D1124E81BF90BF093250AE093240A8D
:103710001092270A1092260A5FE05F151CF01092A3
:10372000230A10C08EE18F156CF011161CF4812F46
:103730008F5002C0812F815F60E040E00E94880FBF
:103740008093230A809128079091290701969093EE
:1037500029078093280760912A0770912B076F5FD4
:103760007F4F70932B0760932A07002349F08091C5
:103770002E0790912F07019690932F0780932E0785
:103780008091230A882349F080912C0790912D077E
:10379000019690932D0780932C0706954091300752
:1037A00050913107400F511D50933107409330071E
:1037B000E091CD02F091CE02F0933407E09333070D
:1037C0003091CB02832F992787FD909597FF03C0F7
:1037D000909581959F4F882319F41092320722C04B
:1037E000813021F4CF01861B970B18C0803170F413
:1037F00080FF07C0CA0144E0969587954A95E1F796
:1038000009C080912E0790912F0704C080912C074A
:1038100090912D07AF01481B590BCA0190933407B3
:103820008093330780913207813041F0813018F066
:103830008230F1F40EC03323D9F017C080913307E2
:1038400090913407181619069CF0309789F082E0A1
:103850000DC08091330790913407855C9F4F1CF415
:1038600083E080933207309719F481E08093320728
:1038700020913307309134078091210A9091220AD8
:103880008217930709F45AC080913207813009F0FA
:1038900045C04091BA0242FF29C02E31310511F4D2
:1038A00082E003C02431310519F48093620506C01B
:1038B0002A30310519F02430310524F48091410576
:1038C00080933E0543FF12C02E31310549F024316B
:1038D000310531F02A30310519F02430310534F446
:1038E00082E390E090934E0580934D0541FF26C002
:1038F0008091CC02882321F0CF01821B930B01C061
:10390000C9016CE370E00E946568892BB9F480916D
:10391000410580933E0543FF11C00AC0823071F417
:103920008091420580933E058091BA0283FF06C0D4
:1039300082E390E090934E0580934D053093220AE8
:103940002093210A8091CC02882331F0E21BF30BF3
:10395000F0933407E0933307DF91CF911F910F91DC
:10396000FF9008952091CB02822F992787FD909593
:1039700097FF03C0909581959F4F982F8230A4F1B7
:10398000803194F585959A309CF4E82FFF27E7FD68
:10399000F0958091B80290E0880F991F880F991FC9
:1039A000E80FF91FE75FFE4F8081E82FF0E004C0C9
:1039B000E82FFF27E7FDF0953197EE0FFF1FE05549
:1039C000FA4F0190F081E02D27FF05C080E094E0E0
:1039D0008E1B9F0B03C0CF0180509C4FE6E0969555
:1039E0008795EA95E1F702C080E090E00E941B1BFA
:1039F000E091B802F0E0EE0FFF1FEE0FFF1FE45F53
:103A0000FE4FE081F0E0EE0FFF1FE255FA4F01900C
:103A1000F081E02D8091BA0280FF05C080E094E043
:103A20008E1B9F0B03C0CF0180509C4F56E0969594
:103A300087955A95E1F760911C0A70911D0A6F5F96
:103A40007F4F70931D0A60931C0A40911A0A50918F
:103A50001B0A480F591F50931B0A40931A0A809162
:103A6000C60F9091C70F20911E0A30911F0A821B2A
:103A7000930B885E934088F18091C60F9091C70F99
:103A800090931F0A80931E0A10921B0A10921A0A22
:103A900010921D0A10921C0A8091AF079091B007F6
:103AA00001969093B0078093AF072091AD073091B6
:103AB000AE07F901EB5CF84FCA010E9465686083AC
:103AC0002F5F3F4F3093AE072093AD072837310566
:103AD00020F01092AE071092AD0708952F923F92FA
:103AE0004F925F926F927F928F929F92AF92BF920E
:103AF000CF92DF92EF92FF920F931F93DF93CF93BA
:103B0000CDB7DEB760970FB6F894DEBF0FBECDBF5E
:103B1000988B8F87262E80914C05882309F46CC0E2
:103B20008091E005882319F081508093E005809111
:103B3000B902882309F460C08091290990912A096B
:103B4000A0912B09B0912C090196A11DB11D809364
:103B5000290990932A09A0932B09B0932C09E7EA2D
:103B6000F8E020E030E08191919160E870E00E94FF
:103B70007968260F371F48E0EF3AF407A1F78091E4
:103B80002D0990912E092817390761F030932E09DD
:103B900020932D091092290910922A0910922B09BD
:103BA00010922C09E0902909F0902A0900912B0924
:103BB00010912C096091B90270E080E090E020E75C
:103BC00037E140E050E00E943A686E157F058007BB
:103BD000910790F46FE370E080E090E0E622F72236
:103BE000082319237AE0E716F1040105110521F4F1
:103BF0008091420580933E0505E7602E02E0702E1D
:103C000016E7412E14E0512E3324EE24FF2488249D
:103C10009924DE2C8E2D0E944E0D9C01D3018D9196
:103C20009C911197281B390B121613062CF45C96E5
:103C3000ED91FC915D9705C0D3011E96ED91FC912D
:103C40001F97E436F10514F4E4E6F0E0B9018827A3
:103C500077FD8095982FBAE0660F771F881F991F10
:103C6000BA95D1F79F01442737FD4095542F0E9404
:103C7000AE688901BCEF21303B071CF400E01CEF6B
:103C800006C0E4E020303E0714F000E014E0F40148
:103C9000E055FA4F11830083C8010F964F9720F526
:103CA000F4E0EF16F104BCF4E091B802F0E0EE0F9E
:103CB000FF1FEE0FFF1FEE0DFF1DE65FFE4F808121
:103CC00090E0019721E030E002C0220F331F8A9577
:103CD000E2F7C90108C081E090E00E2C02C0880F15
:103CE000991F0A94E2F7382A33E03D1508F406C11B
:103CF000D2018C9160E040E00E94880F882311F48B
:103D0000CC240DC0F201818160E040E00E94880F68
:103D1000882319F0E2E0CE2E02C0CC24C394809117
:103D2000B80290E08170907072E0A72EB12CA81AB2
:103D3000B90AAE14BF0449F58091D102807F29F100
:103D400000501C4FEC2DF0E0EE0FFF1FEE0FFF1F99
:103D50009701220F331FC90143E0880F991F4A952D
:103D6000E1F7821B930BE80FF91FE659FB4F6081C7
:103D7000772767FD7095C801959587950E94ED1787
:103D8000DC01AA0FBB1FDD2427C0DD24101611069D
:103D900014F0DD24D3948C2D90E09701220F331F73
:103DA000F901A3E0EE0FFF1FAA95E1F7E21BF30B69
:103DB000880F991F880F991FE80FF91FE054FD4FD6
:103DC000ED0DF11DE655FE4F6081772767FD70957B
:103DD000C8010E94ED17DC01EC2DF0E0EE0FFF1F93
:103DE000EE0FFF1F9701220F331FC90143E0880F19
:103DF000991F4A95E1F7821B930BE80FF91FE054D6
:103E0000FD4FED0DF11DE455FE4F6081772767FDF5
:103E100070956C597F4F882777FD8095982F9D016D
:103E2000442737FD4095542F0E943A6824E630E03D
:103E300040E050E00E94AE688901AE14BF0409F072
:103E40004CC09091D102892F807F09F424C5005085
:103E5000144021C58091BA02F501E054FD4F80FF66
:103E600016C000501C4FB801882777FD8095982F09
:103E700000501440EE51FE4F2081332727FD30952E
:103E8000432F532F2D5730404040504014C060E026
:103E900074E0601B710B882777FD8095982FEE5199
:103EA000FE4F2081332727FD3095432F532F235872
:103EB0003F4F4F4F5F4F0E943A6820E038E040E0AC
:103EC00050E00E94AE68C901DA018030F8E09F0737
:103ED000F0E0AF07F0E0BF0739F4F701EE55FB4F14
:103EE0008081992787FD9095880F991FE1E0F0E088
:103EF000EC0FFD1FE80DF91D91838083F401E95556
:103F0000F74F118300830894E11CF11C22E030E09C
:103F1000620E731E820E931E4EE050E0440E551E3C
:103F200057E0E516F10409F074CE4091D502432123
:103F3000242F30E080912F0990E08227932782235D
:103F40009323892B21F08091400580933E05409377
:103F50002F0980E094E09093B6088093B508909381
:103F6000B8088093B70869EB78E040E050E0FA01C8
:103F7000E15BFA4FDA01AC58BD4F80819181D29656
:103F80002D913C91D397821B930B880F991FDB01D6
:103F90008D939D93BD014E5F5F4F4031510539F7C1
:103FA000E9EEF8E0FA87E987A9ECB8E08081918131
:103FB0008D939D93349629E0E932F207B9F7809109
:103FC0004C05882311F00E94B21C80E4E9EEF8E071
:103FD000DF011D928A95E9F72220F9F0A7EAB8E0FF
:103FE000FE01319620E030E042E050E08091B802DE
:103FF00090E081709070BA01681B790B62177307AB
:1040000029F011961C921E92118210822F5F3F4F51
:10401000129632962430310549F71092100A0AEDB3
:10402000A02E02E0B02E80EF99E09E878D8710E7EA
:10403000612E19E0712EA0E3B9E0BC87AB87442460
:104040005524342C252CF50180818150803138F0A5
:10405000BAE16B2EB4E07B2E4424552457C3D5011E
:1040600013968C9161E040E00E94880FED85FE85FB
:104070009081882329F5592F1082D50111962C9112
:10408000822F8850823008F025C3C201FC01A3E0D2
:10409000EE0FFF1FAA95E1F7880F991FE80FF91F90
:1040A000E652FD4F87818E70843009F413C32930A6
:1040B00019F0CC24DD2446C0C12C6CEFD62E42C0B2
:1040C00050E0992309F451E081E0ED85FE8580837D
:1040D000D5011196EC91F0E0EE0FFF1FEB55F74F75
:1040E000C080D180832D922DFC0133E0EE0FFF1FA5
:1040F0003A95E1F7880F991FE80FF91FE652FD4F37
:104100008781807FF9F0832D922DFC0103E0EE0F73
:10411000FF1F0A95E1F7880F991FE80FF91FEF516C
:10412000FD4F808182958F7090E00197E1E0F0E093
:1041300002C0EE0FFF1F8A95E2F72091100A2E2B86
:104140002093100AD50118964C914423E9F0842F4E
:1041500047FD8D5F85958595282F332727FD309561
:10416000BAE04B02C0011124280F391F842F47FDEC
:10417000815C86FB880F880B80F9992787FD9095D5
:10418000281B390BC20ED31E832D922DFC01B3E0E8
:10419000EE0FFF1FBA95E1F7880F991FE80FF91F7F
:1041A000E652FD4F8681882391F4832D922DFC01E8
:1041B00073E0EE0FFF1F7A95E1F7880F991FE80F64
:1041C000F91FE652FD4F8581882309F49AC1F30156
:1041D0006081718182819381552389F420E031E0EF
:1041E00040E050E00E94AE68509540953095219592
:1041F0003F4F4F4F5F4F4601820E931E85C0832D68
:10420000922DFC0153E0EE0FFF1F5A95E1F7880F46
:10421000991FE80FF91FE652FD4F87818E70843099
:1042200049F5D501EC91F0E0EE0FFF1FE953F74F90
:1042300060817181882777FD8095982F20E034E692
:1042400040E050E00E943A68F3016083718382830A
:104250009383D50112962C91222361F0332727FDF9
:104260003095432F532F0E94AE68F3012083318392
:1042700042835383D3016D917D918D919C9120E078
:1042800031E040E050E00E94AE6850954095309596
:1042900021953F4F4F4F5F4F4601820E931E811471
:1042A000910491F197FE10C0832D922DFC0123E023
:1042B000EE0FFF1F2A95E1F7880F991FE80FF91FEE
:1042C000E152FD4F808110C0832D922DFC0113E03F
:1042D000EE0FFF1F1A95E1F7880F991FE80FF91FDE
:1042E000E152FD4F808182958F7090E0FC0124E6C1
:1042F00030E0E29FC001E39F900DF29F900D1124EA
:10430000AB85BC858D939C93EB85FC8520813181A9
:104310002115310551F080914C05882309F4E5C041
:104320002150304031832083E0C08114910409F48E
:10433000E8C0832D922DFC01A3E0EE0FFF1FAA958C
:10434000E1F7880F991FE80FF91FE652FD4F8681AC
:10435000882309F4D6C080914C05882309F493C0C2
:10436000F5012281222339F4E12CF12C60E2062FA1
:1043700063E0162F17C0332727FD309537FF03C0A2
:10438000309521953F4F332727FD3095432F532FED
:1043900060E070E080E293E00E94AE68C901DA015B
:1043A0007C018D01181419048CF5832D922DFC01CC
:1043B00053E0EE0FFF1F5A95E1F7880F991FE80FA2
:1043C000F91FE052FD4F80818F7090E0009709F453
:1043D0004CC044E650E0849F9001859F300D949F2F
:1043E000300D1124442737FD4095542FC801B701E3
:1043F0000E94AE6879018A01F30180819181A281D6
:10440000B381E80EF91E0A1F1B1F38C0832D922DA1
:10441000FC0133E0EE0FFF1F3A95E1F7880F991F7B
:10442000E80FF91FE052FD4F808182958F7090E078
:104430000097D9F044E650E0849F9001859F300DAD
:10444000949F300D1124442737FD4095542FC80107
:10445000B7010E94AE68D301ED90FD900D911C91C3
:10446000E21AF30A040B150B09C0C601AA2797FD2F
:10447000A095BA2FEE24F82E092F1A2FF301E0820F
:10448000F18202831383D3016D917D918D919C9173
:1044900076010027F7FC0095102F1814190464F416
:1044A00020E031E040E050E00E94AE68E216F30602
:1044B0000407150764F019C020E031E040E050E047
:1044C0000E94AE682E153F054007510774F4C601DF
:1044D000AA2797FDA095BA2FBA2FA92F982F882722
:1044E000F30180839183A283B383D3016D917D9186
:1044F0008D919C9120E031E040E050E00E94AE6858
:104500006901F5016481633071F1643028F4613030
:1045100051F06230A8F448C0653081F1653050F147
:104520006630B1F52EC0D50111968C91893029F4F1
:10453000D7FC2AC0E0E0FEEF0DC0D7FE35C02EC08C
:10454000D50111968C91893051F41C141D044CF145
:10455000E0E0F2E0CE0EDF1ECC0CDD1C25C01C140A
:104560001D04E4F021C0D7FE1FC0D094C194D1082F
:10457000D3941AC01C141D04A4F010C0D7FE0EC0A2
:1045800003C01C141D046CF0C12CECEFDE2E0CC01B
:104590006750C6010E9438186C0106C0CC24DD2487
:1045A00003C0C12C74E0D72E832D922DFC0163E053
:1045B000EE0FFF1F6A95E1F7880F991FE80FF91FAB
:1045C000E652FD4F878180FD15C0D5011196EC9113
:1045D000EE2381F0E53070F4F0E03197EE0FFF1F2D
:1045E00021E030E02C0F3D1FE20FF31F808191810D
:1045F000C80ED91EB601882777FD8095982FD50162
:1046000012962C91332727FD3095432F532F0E946C
:104610003A686B017C01832D922DFC0133E0EE0F93
:10462000FF1F3A95E1F7880F991FE80FF91FEF5127
:10463000FD4F80818695877090E08130910581F0F3
:10464000D501EC91029799F5F0E0EE0FFF1FEE0F08
:10465000FF1FEB51F74FC082D182E282F3823AC052
:10466000F5012081022F10E0000F111F000F111F14
:104670000B51174FC701B60124E630E040E050E08F
:104680000E94AE68CA01B901D8012D913D914D91AA
:104690005C910E943A6820E034E040E050E00E94E3
:1046A000AE68F801208331834283538313C0F0E066
:1046B000EE0FFF1FEE0FFF1FEB51F74F808191812F
:1046C000A281B3818C0D9D1DAE1DBF1D8083918382
:1046D000A283B3830894411C511C2AE030E0A20E4F
:1046E000B31E4D855E854F5F5F4F5E874D8764E0EB
:1046F00070E0660E771E8B859C8502969C878B8763
:1047000090E24916510409F09CCCA2CCA985BA8547
:10471000CD90DD90ED90FC90C701B60124E630E02D
:1047200040E050E00E94AE68E985FA85208331833D
:1047300042835383F201E254FA4FC90120839183EB
:10474000D30113962D913C91149711968C91BAE058
:104750008B028001112408511C4FF30180818B02D0
:104760005001112448E15CEFA40EB51EC801502F82
:10477000492F201731071CF4C901522F492F852FCB
:10478000942F4C018A149B040CF44501C114D104EC
:10479000E104F10469F19401442737FD4095542F59
:1047A0001C141D041E041F0454F4B801882777FD4F
:1047B0008095982F621B730B840B950B0BC0C50162
:1047C000AA2797FDA095BA2F281B390B4A0B5B0B24
:1047D000CA01B901A70196010E943A6820EA36E8A9
:1047E00041E050E00E94AE68C901DA016C017D0130
:1047F000C4010E947F17AA2797FDA095BA2FC80E63
:10480000D91EEA1EFB1EC8010E947F178C01C5013C
:104810000E947F17BC01C801AA2797FDA095BA2F57
:10482000A70196018C159D05AE05BF0514F49C01EA
:10483000AD017B010027F7FC0095102F2E153F05D9
:104840004007510714F4A8019701D30112968C91E7
:10485000882339F050954095309521953F4F4F4F23
:104860005F4FF894EF85F889E40DF51D31832083BF
:104870007894E985FA853496FA87E98722E030E072
:10488000420E531E45E050E0640E751EE952F94099
:1048900009F03CCF04C09F7009F0DCCA1ECB6096C3
:1048A0000FB6F894DEBF0FBECDBFCF91DF911F9141
:1048B0000F91FF90EF90DF90CF90BF90AF909F90BF
:1048C0008F907F906F905F904F903F902F900895C2
:1048D0000F931F93CF93DF9386E291E0E1E0F6E040
:1048E000DF019C011D9221503040E1F79091270794
:1048F000CAEDD2E000E010E051E060E048814423DE
:1049000009F440E1041750F5202F712F352F2F5F48
:10491000872F90E0FC01EE0FFF1FE80FF91FEE0F4D
:10492000FF1FDF01AF5FB94F11962C9311978C9148
:1049300081608C93ED5FF94F30833F5F14966C93E9
:104940007F5F241720F3802F8095042F952F9F5F82
:10495000980F180F140F940F592F51507881772307
:10496000D1F1812F90E09C01220F331F280F391FB6
:10497000D901AA0FBB1FAF5FB94F11964C93119786
:1049800015966C9315978C9182608C9313965C931B
:1049900013975F5F8A85F9013196781741F4EE0F1E
:1049A000FF1FEF5FF94F108214961C920AC0EE0FA2
:1049B000FF1FEF5FF94F50835F5F6F5F14966C933B
:1049C0006150952F6F5F2A96603219F45093270734
:1049D00004C01F5F93CF90932707DF91CF911F9162
:1049E0000F910895EF92FF920F931F93DF93CF9350
:1049F000CDB7DEB7A0970FB6F894DEBF0FBECDBF20
:104A00008E010F5F1F4FC80161E00E946E1DECE137
:104A1000F4E0B801B1EEEB2EB5E0FB2E018112817E
:104A20008081DB014D915C91D7012D913C918823D0
:104A300021F0CA01821B930B03C0C901841B950B93
:104A4000800F911FB3E0883E9B071CF088EE93E037
:104A500006C02CEF8931920714F488E19CEF928311
:104A6000818335966E5F7F4F82E090E0E80EF91EFD
:104A700094E0EC36F90791F68091B80290E08170ED
:104A8000907022E030E0281B390B16AA2130310546
:104A900011F01092A3042230310511F01092A404F9
:104AA0001092A50482E00E946B5180914005809392
:104AB0003E05A0960FB6F894DEBF0FBECDBFCF91D6
:104AC000DF911F910F91FF90EF9008956F927F9269
:104AD0008F929F92AF92BF92CF92DF92EF92FF920E
:104AE0000F931F93DF93CF930F92CDB7DEB781382B
:104AF00009F491C08238A0F4813609F484C082366A
:104B000038F4823209F466C0833209F0B0C058C06C
:104B10008536C1F18038C9F0843609F0A8C01BC0C1
:104B2000843841F1853838F4823809F466C0833816
:104B300009F09DC05CC08E3B09F480C08F3B09F436
:104B40008AC0853809F093C035C00E94330D0E9499
:104B5000451480E814C084E60E94945C823009F019
:104B600039C68091170A9091180A0097C1F432C68D
:104B700081E019C08AEC9FE30E94451484E80E94FA
:104B8000835C75C085E60E94945C823009F028C67B
:104B90008091150A9091160A009709F421C60E9487
:104BA000451465C081508093190A80913F05809318
:104BB0003E055DC08DEB98E30E94451485E8DFCF8C
:104BC0008091B6028F5F8093B602833060F01092BE
:104BD000B60209C08091B602882311F0815001C04D
:104BE00082E08093B60281E00E946B51DECF86E0C6
:104BF0009CE20E943D0D83E8C2CF84EE96E60E94BF
:104C0000451482E8BCCF80913207823081F583E081
:104C100080933207CACF1092320710922B0710925E
:104C20002A0710922F0710922E0710922D0710922C
:104C30002C071092310710923007B7CF8091190AD4
:104C4000082F10E00E94330D000F111F0B5E154F4F
:104C5000D8018D939C9381E00E94835C83E00E9445
:104C6000835C82E00E94835C81E08093140A8091DF
:104C7000D40260E040E00E94880F882331F08091E8
:104C8000140A882311F40E94F2248091D40260E077
:104C900040E00E94880F8093140A90914B05809108
:104CA000A302981710F000E801C002E880ECC82EBB
:104CB00082E0D82E1AE0812F60E0F60141916F0169
:104CC00020E80E944C58155F1837A9F786E060E18C
:104CD00041E0202F0E940E1784E268E146E520E0C3
:104CE0000E944C5820914B05822F6AE00E9459681F
:104CF0009250923010F403E001C002E0822F6AE08B
:104D00000E9459680E9459689150923010F01CE03E
:104D100002C00F5F1BE0155F812F6CE1402F0E94E6
:104D20005C5A812F6DE1402F0E945C5A80913207BE
:104D3000882399F0823011F000E801C002E8409128
:104D400033075091340782E460E1202F0E94271737
:104D500083E368E140E00E94BC164091D20213E078
:104D60004102A0011124445B574F84E260E123E03B
:104D700000E00E94ED584091D1024295407F459558
:104D80004595459545954102A00111244B5B574F30
:104D900089E360E123E00E94ED58AA24BB240FE1DF
:104DA000D02EF501E25EFE4FE080F501EE55FB4F9F
:104DB000E081E7FDED5FE595E595E43E0CF4E4EE7A
:104DC0000E2FED310CF00CE1F501E65EFE4F808117
:104DD0008823F9F08E2D64E046E30E94605A8091AA
:104DE000B80290E08A259B2580FD04C08091D10205
:104DF0008F7061F48E2D81506EE143E00E94605A05
:104E00008E2D8F5F6EE143E00E94605A9D2D901BB6
:104E100014C08E2D8B516CE346E30E945C5A1E2D0C
:104E20001150812F6BE343E00E945C5A812F6DE3A8
:104E300043E00E945C5AE00E9CE31E2D1350092FA4
:104E40000350812F602F47E099830E94605A998117
:104E50009D5F812F692F47E00E945C5A8E2D8D5FE8
:104E6000602F47E00E94605A812F602F47E00E9428
:104E70005C5A0894A11CB11CF4E0AF16B10409F00F
:104E800090CF8091B602823009F4B5C011EEA12E08
:104E900015E0B12ECC24DD24BBE16B2E712CA9E1F1
:104EA0008A2E912C2C2DD501ED90FC908091B6028C
:104EB000882321F0813009F091C030C0C601837091
:104EC0009070869D8001879D100D969D100D112478
:104ED0002695269530E02B5F3F4FF3E0220F331FDE
:104EE000FA95E1F7C70160E270E00E947968FB0182
:104EF000C70160E870E00E947968CB018E1B9F0BB0
:104F00008E0D9F1D6AE070E00E947968AB01802FD2
:104F10008F5D622F20E00E94245A60C0243010F080
:104F20001CE501C014E2960123703070C901880F9E
:104F3000991F880F991F820F931F082F0A5DC701C1
:104F400060E470E00E9479689B01C70162E070E054
:104F50000E947968FB01E21BF30BC70160E071E07E
:104F60000E947968E60FF71FF7FF03C0F095E195FF
:104F7000FF4FE89DC001E99D900DF89D900D112413
:104F8000845D9E4F892F990F990B8595E82EB9E185
:104F9000B81714F469E1E62E812F8951602F43E39D
:104FA00025E50E942E5A602F6250812F45E00E9415
:104FB000605AF501808191811816190614F41F5F5B
:104FC00001C01E190F5F812F602F4E2D0E945C5A69
:104FD0000250812F602F4E2D0E945C5A0894C11CF4
:104FE000D11C82E090E0A80EB91E98E0C916D10449
:104FF00009F058CFFBC38FE161E247E10E94605A9C
:105000008FE167E347E10E945C5A85E361E247E193
:105010000E94605A8FE161E247E10E945C5A8BE492
:1050200061E247E10E94605A8BE467E347E10E9436
:105030005C5A81E661E247E10E94605A8BE461E2DA
:1050400047E10E945C5A8AE26BE243E00E94605AA8
:1050500089E26CE243E00E945C5A86E56BE243E041
:105060000E94605A85E56CE243E00E945C5A8091A0
:10507000B0059091B105880F991F9C0143E0220F64
:10508000331F4A95E1F7820F931F60E078E00E949A
:105090007968462F8091B2059091B305880F991FCA
:1050A0009C0103E0220F331F0A95E1F7820F931F43
:1050B00060E078E00E947968709561957F4F665D49
:1050C000842F885D45E00E94605A8091B0059091E0
:1050D000B105880F991F9C01B3E0220F331FBA95C9
:1050E000E1F7820F931F60E078E00E947968462F15
:1050F0008091B2059091B305880F991F9C01F3E050
:10510000220F331FFA95E1F7820F931F60E078E0DA
:105110000E947968709561957F4F625D842F885DEC
:1051200045E00E945C5A8091B0059091B105880FCE
:10513000991F9C0173E0220F331F7A95E1F7820FCC
:10514000931F60E078E00E947968462F8091B20555
:105150009091B305880F991F9C0153E0220F331FD4
:105160005A95E1F7820F931F60E078E00E9479681A
:10517000709561957F4F665D842F845D45E00E9448
:10518000605A8091B0059091B105880F991F9C01DC
:1051900013E0220F331F1A95E1F7820F931F60E08F
:1051A00078E00E947968462F8091B2059091B3050E
:1051B000880F991F9C01A3E0220F331FAA95E1F7E6
:1051C000820F931F60E078E00E9479687095619586
:1051D0007F4F665D842F885D45E00E945C5A809118
:1051E000B6059091B705880F991F9C01E3E0220F47
:1051F000331FEA95E1F7820F931F60E078E00E9489
:105200007968462F8091B4059091B505880F991F54
:105210009C0163E0220F331F6A95E1F7820F931F11
:1052200060E078E00E947968709561957F4F665DD7
:10523000842F8C5A45E00E94605A8091B605909167
:10524000B705880F991F9C0143E0220F331F4A9531
:10525000E1F7820F931F60E078E00E947968462FA3
:105260008091B4059091B505880F991F9C0103E0CA
:10527000220F331F0A95E1F7820F931F60E078E059
:105280000E947968709561957F4F625D842F8C5A7A
:1052900045E00E945C5A8091B6059091B705880F51
:1052A000991F9C01B3E0220F331FBA95E1F7820FDB
:1052B000931F60E078E00E947968462F8091B405E2
:1052C0009091B505880F991F9C01F3E0220F331FC1
:1052D000FA95E1F7820F931F60E078E00E94796809
:1052E000709561957F4F665D842F885A45E00E94D6
:1052F000605A8091B6059091B705880F991F9C015F
:1053000073E0220F331F7A95E1F7820F931F60E05D
:1053100078E00E947968462F8091B4059091B50598
:10532000880F991F9C0153E0220F331F5A95E1F714
:10533000820F931F60E078E00E9479687095619514
:105340007F4F665D842F8C5A45E00E945C5A6091C5
:10535000B8057091B905882777FD8095982F26E1CB
:1053600030E040E050E00E943A685B016C0180E070
:1053700098E5A0E0B0E0A80EB91ECA1EDB1EC6016B
:10538000B50120E038E040E050E00E94AE687901CD
:105390008A0110950095F094E094E11CF11C011D28
:1053A000111D97E3E90EC601B50120E038E040E0A9
:1053B00050E00E94AE682F5F8AE36E2D422F0E945C
:1053C000605A6091B8057091B905882777FD80957E
:1053D000982F26E130E040E050E00E943A685B01FF
:1053E0006C0180E098E5A0E0B0E0A80EB91ECA1EEE
:1053F000DB1EC601B50120E038E040E050E00E942D
:10540000AE6879018A0110950095F094E094E11C52
:10541000F11C011D111D97E3E90EC601B50120E045
:1054200038E040E050E00E94AE682F5F8BE36E2DC5
:10543000422F0E94605A6091B8057091B905882783
:1054400077FD8095982F26E130E040E050E00E9403
:105450003A685B016C0180E098E5A0E0B0E0A80E3E
:10546000B91ECA1EDB1EC601B50120E038E040E0CF
:1054700050E00E94AE6879018A0110950095F09481
:10548000E094E11CF11C011D111D97E3E90EC6011A
:10549000B50120E038E040E050E00E94AE682F5FA8
:1054A0008CE36E2D422F0E94605A6091BA05709174
:1054B000BB05882777FD8095982F26E130E040E0F6
:1054C00050E00E943A685B016C0180E098E5A0E042
:1054D000B0E0A80EB91ECA1EDB1EC601B50120E051
:1054E00038E040E050E00E94AE6879018A011095F2
:1054F0000095F094E094E11CF11C011D111D97E34F
:10550000E90EC601B50120E038E040E050E00E941D
:10551000AE682F5F8FE36E2D422F0E94605A60911C
:10552000BA057091BB05882777FD8095982F26E1F5
:1055300030E040E050E00E943A685B016C0180E09E
:1055400098E5A0E0B0E0A80EB91ECA1EDB1EC60199
:10555000B50120E038E040E050E00E94AE687901FB
:105560008A0110950095F094E094E11CF11C011D56
:10557000111D97E3E90EC601B50120E038E040E0D7
:1055800050E00E94AE682F5F80E46E2D422F0E9493
:10559000605A6091BA057091BB05882777FD8095A8
:1055A000982F26E130E040E050E00E943A685B012D
:1055B0006C0180E098E5A0E0B0E0A80EB91ECA1E1C
:1055C000DB1EC601B50120E038E040E050E00E945B
:1055D000AE6879018A0110950095F094E094E11C81
:1055E000F11C011D111D97E3E90EC601B50120E074
:1055F00038E040E050E00E94AE682F5F81E46E2DFD
:10560000422F0E94605A6091BC057091BD058827A9
:1056100077FD8095982F26E130E040E050E00E9431
:105620003A685B016C0180E098E5A0E0B0E0A80E6C
:10563000B91ECA1EDB1EC601B50120E038E040E0FD
:1056400050E00E94AE6879018A0110950095F094AF
:10565000E094E11CF11C011D111D97E3E90EC60148
:10566000B50120E038E040E050E00E94AE682F5FD6
:1056700084E46E2D422F0E94605A6091BC057091A7
:10568000BD05882777FD8095982F26E130E040E022
:1056900050E00E943A685B016C0180E098E5A0E070
:1056A000B0E0A80EB91ECA1EDB1EC601B50120E07F
:1056B00038E040E050E00E94AE6879018A01109520
:1056C0000095F094E094E11CF11C011D111D97E37D
:1056D000E90EC601B50120E038E040E050E00E944C
:1056E000AE682F5F85E46E2D422F0E94605A609154
:1056F000BC057091BD05882777FD8095982F26E120
:1057000030E040E050E00E943A685B016C0180E0CC
:1057100098E5A0E0B0E0A80EB91ECA1EDB1EC601C7
:10572000B50120E038E040E050E00E94AE68790129
:105730008A0110950095F094E094E11CF11C011D84
:10574000111D97E3E90EC601B50120E038E040E005
:1057500050E00E94AE682F5F86E46E2D422F0E94BB
:10576000605A27E1C22E28E0D22E11E090E2E92E05
:10577000812F60E040E00E94880F082F8AE06E2DA4
:10578000A60123E00E94ED581F5FA8E0EA0EE3E0C7
:10579000F0E0CE0EDF1E143059F78BEFC82E87E0F5
:1057A000D82E17E000E3E02E812F60E040E00E9459
:1057B000880F082F85E66E2DA60123E00E94ED5884
:1057C0001F5FF8EFEF0E83E090E0C80ED91E1A308D
:1057D00059F70CC08091190A882309F4C9C947CA2E
:1057E0008091190A882309F0DDC941CA0F90CF9131
:1057F000DF911F910F91FF90EF90DF90CF90BF90BE
:10580000AF909F908F907F906F9008950F931F930C
:10581000CF93DF93082F80E060E040E758E021E07D
:105820000E941F59013658F0033628F0033639F428
:1058300081EB9CE202C086E695E20E943D0D86E087
:1058400068E04CE658E00E944D5940912A0750917B
:105850002B0788E168E020E000E00E94271786E639
:1058600068E048E658E00E944D5940912C0750915D
:105870002D078CE368E020E00E94271786E060E1B6
:1058800044E658E00E944D5940912E0750912F0751
:1058900088E160E120E00E94271786E660E140E6AB
:1058A00058E00E944D59409130075091310734E043
:1058B000569547953A95E1F78CE360E120E00E9428
:1058C000271786E660E04CE558E00E944D5940916C
:1058D0002807509129078CE360E020E00E942717F9
:1058E0008091AF079091B0078937910518F4C0E017
:1058F000D0E004C0C091AD07D091AE0782E06CE368
:105900004EE70E945C5A85E06CE143E20E94605AD7
:105910000BE0802F6BE343E00E94605A0A5F03387C
:10592000C1F706E01CE3FE01EB5CF84F4081612FFC
:10593000641B802F0E94605A2196C837D10510F051
:10594000C0E0D0E08091AD079091AE07C817D907AD
:1059500019F00F5F0E3739F7DF91CF911F910F913B
:1059600008951F93182F80E060E04FED58E021E08C
:105970000E941F591236E9F0133628F4103631F020
:105980001136F1F419C01336D9F416C08FEF97E031
:1059900090930901809308011092B2071092B10709
:1059A0001092B4071092B30780913F0580933E0593
:1059B00007C086E09CE202C086E695E20E943D0DAB
:1059C00080E068E04DEC58E00E944D594091B107ED
:1059D0005091B2075695479584E568E00E942A5A8F
:1059E00080E060E14BEB58E00E944D594091080186
:1059F000509109015695479584E560E10E942A5A25
:105A000080E068E149EA58E00E944D594091B107B1
:105A10005091B2078091080190910901481B590BE0
:105A20005695479584E568E10E942A5A80E060E235
:105A300047E958E00E944D592091B3073091B407CF
:105A400084E690E0289FA001299F500D389F500DBB
:105A5000112474E0569547957A95E1F784E560E264
:105A600020E40E94245A80E068E245E858E00E9461
:105A70004D594091B5075091B6075695479584E525
:105A800068E20E942A5A82E168E345E758E00E94F2
:105A90004D591F9108950F93042F40EF5FEF20E1C0
:105AA00030E00E94E3100F9108950F93042F4CE90A
:105AB0005FEF24E630E00E94E3100F9108956F92AB
:105AC0007F928F929F92AF92BF92CF92DF92EF928E
:105AD000FF920F931F93DF93CF93CDB7DEB7682E5E
