:100000000C942C0D0C94490D0C94490D0C94490D35
:100010000C94490D0C94490D0C94490D0C94490D08
:100020000C94490D0C94490D0C94490D0C94490DF8
:100030000C94C0100C94490D0C94490D0C9435117E
:100040000C94E50F0C94490D0C94DF720C947771AD
:100050000C94490D0C94490D0C946A6E0C94490D46
:100060000C94490D0C9404100C94490D0C94490DFA
:100070000C94490D0C94490D0C94490D0C94490DA8
:100080000C94490D0C94490D0C94490D80400000CE
:1000900000000000000000000000000000F0080464
:1000A0000484444444444444444444444444444410
:1000B00044C4040488700000000000000000000038
:1000C000000000000404FC040400E050506000FE46
:1000D00000E050506000F01010E01010E000E05020
:1000E000506000FC1000F020100010E000E0100054
:1000F00000000018242424C400E050506000F020C8
:100100001000F400E05050600030509000000000FB
:1001100000000000000080808080808080BF8080A0
:1001200080BF808080800000304848484848484868
:100130004888090908F000000000000000000000E5
:1001400000000000000001000000000101010001AA
:1001500000000101010081F01819F0800100000188
:1001600001212020212021202020202423202020A4
:1001700020202021E12121202020212121202120B7
:1001800020202120202121212081C1010000000008
:1001900000F8FEFFFFFF0F0707070707073747872E
:1001A00087879797075FDFDFDFDED880101010109A
:1001B000100F0080403F80C0E0E0E06020000000C1
:1001C0000000000000000000000000007058484CD3
:1001D0004C474744464243FF0000FF4342464447E2
:1001E000474C4C48587000000000000000E0B01878
:1001F0000C0406878FBFEEFEF67E3C1C0C0C0C0C2C
:100200000C0C0C0C0C0C0C0C0E1F39608000000048
:10021000000107070F0F0F0E1E1E1E1E1E1E0E0EC4
:100220000E0E0E8ECEEEFCF973270F1F3F7EFCF9EB
:10023000F1F1F9FC3E1F0F07030100000000000070
:1002400000000000000000000000000000000000AE
:10025000000000008080407F00007F408080000020
:100260000000008080C0C040C0C0808810101D17F2
:1002700011111313131311171D101010000000009B
:10028000000000C0000000000000000000000000AE
:100290000000000000040C1C1C1C1C1C1E1E1E0E5A
:1002A0000E0F070703030180C0E0F0F87C3E1F0F2C
:1002B00007070F1F3F7EFCF8F0E0C0800000000041
:1002C000C020202020002020E0202000E0008040EE
:1002D0002000000302020202040402020202C140E2
:1002E00040FC3F7BB1E0AEA8EAEEA17B7FFC404042
:1002F000C0000000000000000000000080C0E0F02E
:10030000F8FCFFFF0000FEF8C00000000000000045
:1003100000000000000000000000000000000000DD
:10032000000000000C0E0F0F0F070301000000007B
:10033000000000000000000103070F0F0F0E0C006B
:1003400008090909060000000F0000000F0102045F
:1003500008000000000000000000000000000F384E
:1003600038FF9580B282FAAAFA82F29095FF383867
:100370000F00000000008010B074F67777F777F771
:1003800077F777F774F677F777F634B01000000058
:10039000000000000000000000000000000000005D
:1003A000000000000000000000000000000000004D
:1003B000000000E000000000E0000000000000007D
:1003C000000000000000000000000000000000002D
:1003D0000000000000000000000000000030282C99
:1003E000242F3F3607361F0E1F3607363F2F242C8B
:1003F000283000000000000100C1C0414140C1C0E0
:10040000414041C0C140C1C1C1C041C0C1000000A4
:10041000007F11110E000E11110E0007180C030EB3
:100420001807000E151516001F02010E15151600EF
:100430000E11111F000000001F11110E00014E309F
:100440000E01000000000E11110E007F11110E00B0
:100450000E151516001F01011E00000000131519CE
:10046000000E11110E000F10101F001F02010E11BF
:1004700011000E1515160000003F302F2F2B323FB4
:10048000203B3B3C3F202F2F3F262B2C3F00005290
:10049000554420454C45205448522041494C205257
:1004A00055442054485220454C452041494C204158
:1004B000494C20454C452054485220525544204137
:1004C000494C2054485220454C4520525544200068
:1004D00001020304010204030103020401030402F4
:1004E00001040203010403020201030402010403E4
:1004F00002030104020304010204010302040301D4
:1005000003010204030104020302010403020401C3
:1005100003040102030402010401020304010302B3
:1005200004020103040203010403010204030201A3
:100530000102030401030204040203010403020193
:1005400000000000000001081E640101081E640193
:10055000010F32960A0A1E329603010200040506B4
:1005600007707265737320616E79204B6579004165
:100570004C455254004D45535341474500506C651E
:10058000617365207265736574207468656D0053CE
:1005900077697463686573206E6F74206F66660098
:1005A000416C61726D732044697361626C656400B3
:1005B0005265736574207468726F74746C6500544E
:1005C00068726F74746C65206E6F742069646C65FA
:1005D00000507265737320616E79206B65792074A9
:1005E0006F20736B697000414C4552540045455073
:1005F000524F4D206C6F77206D656D005F2D2E2C56
:1006000000564552533A2056312E322D6772757678
:10061000696E00444154453A20323031312D313138
:100620002D33300054494D453A2030383A30383A6D
:100630003437002053564E3A206672736B792D7210
:10064000313238350020424C443A20323731007084
:10065000756C736520746162206F766572666C6F6D
:1006600077006D656E75537461636B206F7665728C
:10067000666C6F77006D656E75537461636B207582
:100680006E646572666C6F77002D2D2D494E560095
:100690004F46464F4E200063499E45BC420040FBFA
:1006A0003F02345333AB31F5305630572CCB2B430C
:1006B0004C454152204D49584553205B4D454E55C0
:1006C0005D0053696D706C6520342D434820542DB6
:1006D00043757420202020202020562D5461696C01
:1006E000202020202020456C65766F6E5C44656C70
:1006F0007461654343504D20202020202020486510
:100700006C692053657475702020536572766F2074
:100710005465737420200054454D504C415445534A
:10072000003C3E002D2D2D59656C4F72675265645B
:1007300000416C61726D00746F00472E426172005F
:1007400063616C004D61785600566F6C7473726112
:100750007720200054797065004120206368616E25
:100760006E656C0054454C454D455452590000FF90
:100770000000010202FF01000102534146455459A5
:100780002053574954434845530000012D2D2D2D2A
:1007900020202020202020202020547261696E65B6
:1007A0007220202020202020547261696E65722002
:1007B000525544202020547261696E657220454C68
:1007C00045202020547261696E6572205448522081
:1007D0002020547261696E65722041494C202020AE
:1007E000496E7374616E74205472696D2020547266
:1007F000696D73324F666673657473200046554E9B
:10080000432053574954434845530000012D2D2D93
:100810002D202020763E6F66732020763C6F667315
:1008200020207C767C3E6F66737C767C3C6F6673A2
:10083000414E44202020204F522020202020584F7D
:10084000522020202076313D3D7632207631213DE8
:1008500076322076313E7632202076313C76322058
:100860002076313E3D76322076313C3D7632200096
:10087000535700435553544F4D2053574954434801
:100880004553000002435600435552564553002D30
:100890002D2D494E5600434F5059205452494D205A
:1008A0005B4D454E555D004C494D49545300000386
:1008B0000303030303030303030303030303032FDC
:1008C0003332002F3134004D495845520044522FE5
:1008D0004558504F002B3D2A3D3A3D00536C6F77F1
:1008E0002020557000536C6F772020446F776E0086
:1008F00044656C61792055700044656C61792044D1
:100900006F776E0041646420202020204D756C7448
:1009100069706C795265706C61636520004D756C0F
:10092000747078004F4646005761726E696E6700BA
:10093000462E50686173650053776974636800439D
:100940007572766573004F4E204F464600547269AB
:100950006D004F666673657400576569676874005B
:10096000536F757263650045444954204D495820C2
:1009700000494E53455254204D495820005765694F
:100980006768744578706F202050686173652053E4
:1009900077746368205768656E20204375727665AA
:1009A000202020202020200044522F4558504F0066
:1009B0002D2D2D783E30783C30004E6F20667265CC
:1009C00065206D6978657221004E6F2066726565DD
:1009D000206578706F21004544495420505253459A
:1009E00054004D4F444500435552564500436865F9
:1009F000636B20202020205472696D730028646589
:100A00006661756C742900464C494748542050482B
:100A1000415345530046616465204F75740046613B
:100A2000646520496E005472696D73005377697470
:100A30006368004E616D6500464C4947485420503C
:100A40004841534500060003504F534E454700535D
:100A5000686966742053656C0075536563003443A0
:100A6000482036434820384348203130434831320B
:100A7000434831344348313643480050504D2020DC
:100A80002053494C565F4153494C565F4253494CA1
:100A9000565F435452414330390050726F746F00B7
:100AA00052455441313233004265657020437472BF
:100AB00000452E205472696D7300452E204C696DDF
:100AC00069747300457870202020457846696E650A
:100AD00046696E6520204D656469756D436F61726E
:100AE0007365005472696D20496E6300542D45781A
:100AF000706F00542D5472696D00436F756E7420D1
:100B0000446F776E436F756E7420557020200054CB
:100B1000696D657220005472696767657200546977
:100B20006D6572004E616D6500534554555000006F
:100B300009010000000000000006024C6F616469BA
:100B40006E67206D6F64656C2E2E2E004D6F76697A
:100B50006E67206D6F64656C2E2E2E00436F70796A
:100B6000696E67206D6F64656C2E2E2E0044454CB7
:100B7000455445204D4F44454C0066726565004D17
:100B80004F44454C53454C005B4D454E555D202030
:100B900020205B455849545D005B455849545D0031
:100BA00012081200081C0808081C0800000822008F
:100BB000490022080000000000227F2200000008F7
:100BC00022004900220800000822004900220800F3
:100BD0000000227F220000000000082200490022BD
:100BE000080000081C0808081C08004450D44E9156
:100BF0004EF44D7B4D654C205B4D454E555D205769
:100C000048454E20444F4E452000204D4F5645202C
:100C1000535449434B532F504F545320002020200E
:100C2000534554204D4944504F494E5420202000F4
:100C3000205B4D454E555D20544F20535441525436
:100C400020200043414C4942524154494F4E0041FB
:100C50003141324133413441354136413741380029
:100C6000414E41005472696D2D202B00204D656E60
:100C700075204578697420446F776E202020557068
:100C80005269676874204C656674004449414700A6
:100C9000454550524F4D20760056455253494F4ED0
:100CA0000043616C004D756C7469706C696572000D
:100CB000636831636832636833636834006F666603
:100CC000202B3D203A3D006D6F64652020202520BB
:100CD00073726300536C61766500545241494E450E
:100CE00052000002020202004D6F6465005278203B
:100CF0004368616E6E656C204F7264004E4F2044F5
:100D000041544120416C61726D00416C61726D20F3
:100D10005761726E696E67004D656D6F727920570D
:100D200061726E696E6700446F776E4F464620555C
:100D300070202000537769746368205761726E6970
:100D40006E67005468726F74746C65205761726EC0
:100D5000696E670053706C617368207363726565B8
:100D60006E004F4646004C69676874206F666620C7
:100D70006166746572004C69676874207377697482
:100D8000636800466C617368206F6E2062656570F1
:100D9000004265657020636F756E74646F776E00D6
:100DA0004D696E7574652062656570005468726F78
:100DB00074746C6520726576657273650053494E74
:100DC000474F534D5046494C540046696C74657208
:100DD0002041444300496E616374697669747920E7
:100DE000616C61726D004261747465727920776123
:100DF000726E696E6700436F6E7472617374005136
:100E0000756965744E6F4B65794E6F726D204C6FCE
:100E10006E6720784C6F6E67004265657065720082
:100E2000524144494F205345545550004E4F2044A1
:100E30004154410054783D0052783D0041203D002E
:100E40007A3D00793D00783D00416363656C004167
:100E50006C743A00566F6C74733A004675656C3A60
:100E60000052504D3A0040430054656D70323A00D4
:100E700040430054656D70313A00416C743A005340
:100E800070643A004864673A0054783D0052783DF7
:100E90000041203D00204D41494E20204750534FF6
:100EA00054484552005B4D454E555D20746F20728D
:100EB00065736574004672656520537461636B20C9
:100EC0006D696E2020202062007431306D73202007
:100ED0002020202020202020757300746D61696E11
:100EE000206D61782020202020206D7300746D72A9
:100EF00031204A6974746572202020207573007453
:100F00006D72314C6174206D696E202020207573E4
:100F100000746D72314C6174206D61782020202046
:100F2000757300535441543200544F5400535425A8
:100F30000053544B0054535700544D4500535441F3
:100F40005400454550524F4D20466F726D61747488
:100F5000696E670042616420454570726F6D204480
:100F600061746100454550524F4D20436F6E766568
:100F70007274696E6700454570726F6D20446174CC
:100F800061204572397800454570726F6D2044616B
:100F9000746120763300454550524F4D206F766581
:100FA00072666C6F7700500850000000000000006F
:100FB000006F000007000700147F147F14242A7FAD
:100FC0002A12231308646236495522500005030093
:100FD00000001C2241000041221C0014083E08149D
:100FE00008083E08080050300000080808080800FB
:100FF000606000002010080402003E41413E0000F5
:10100000427F400062514946004149493600181468
:10101000127F0027454539003E49493200017905D4
:10102000030036494936000649291E0000363600BD
:101030000000563600000814224114141414144100
:1010400022140800020151090606090906007E095A
:1010500009097E7F494949363E414141227F41414C
:10106000221C7F494949417F090909013E414949FB
:101070007A7F0808087F00417F41002040413F01FE
:101080007F081422417F404040407F020C027F7F56
:101090000408107F3E4141413E7F090909063E4157
:1010A00051215E7F09192946264949493201017FAC
:1010B00001013F4040403F1F2040201F3F40304043
:1010C0003F631408146307087008076151494543DA
:1010D000007F41410002040810200041417F0004CC
:1010E000020102044040404040000102040020543C
:1010F0005454787F48444438384444442038444465
:10110000487F3854545418087E0901020C52525238
:101110003E7F0804047800447D40002040443D00A8
:101120007F1028440000417F40007C041804787C34
:101130000804047838444444387C1414140808140F
:1011400014187C7C080404084854545420043F4478
:1011500040203C4040207C1C2040201C3C40204043
:101160003C44281028440C5050503C4464544C4497
:10117000000836410000007F0000004136080008EA
:1011800008221C08081C220808A06080000000003B
:1011900000000000000000000000FEFE0000000053
:1011A00000003E7E00007E3E00006060FEFE60604B
:1011B000FEFE606060F09898FEFE989818180C1E6D
:1011C0001E0C80C0E070381878FC8EC6E6763C189D
:1011D0000000000066763E1E000000000000E0F007
:1011E000381C0E0600000000060E1C38F0E000005F
:1011F0006060C080F8F880C0606080808080F8F80F
:1012000080808080000000000000000000008080DE
:1012100080808080808080800000000000000000CE
:1012200000000000000080C0E070381800000000DE
:1012300000000000000000000000717100000000CC
:101240000000000000000000000006067F7F060688
:101250007F7F0606181819197F7F19190F06181CA9
:101260000E070301307878301E3F716367663C3C9F
:101270006666000000000000000000000000070F8C
:101280001C387060000000006070381C0F07000000
:10129000060603011F1F01030606010101011F1FAE
:1012A00001010101000066763E1E00000000010100
:1012B00001010101010101010000307878300000D6
:1012C0000000181C0E070301000000000000F8FCDD
:1012D0000E06060EFCF80000181CFEFE00000000C2
:1012E0000000181C0E0686CEFC78000006068686D6
:1012F00086CEFC78000080C0E070381CFEFE000046
:101300007E7E666666E6C6860000F8FC8E86868E61
:101310001C180000060686C6E6763E1E000078FC15
:10132000CE8686CEFC78000078FCCE8686CEFCF891
:10133000000030787830000000000000307878300D
:1013400000000000000080C0E070381C0E066060E5
:101350006060606060606060060E1C3870E0C08095
:101360000000181C0E06060686CEFC7800001F3F03
:10137000706060703F1F000060607F7F60600000F1
:101380000000787C6E67636160600000606061618E
:1013900061733F1E00000707060606067F7F0000F8
:1013A0001838706060703F1F00001F3F71616173EB
:1013B0003F1E000000007F7F0000000000001E3F75
:1013C000736161733F1E000000006171391D0F07DA
:1013D00000000C1E1E0C00000000000066763E1E81
:1013E0000000000000000103070E1C3870600606B4
:1013F00006060606060606066070381C0E07030180
:1014000000000000000066670301000078FCCE8643
:1014100086CEFC780000E0F0B89C8E8E9CB8F0E0A0
:10142000FEFE8686868686CEFC78F8FC0E060606CC
:10143000060E1C18FEFE0606060E1C38F0E0FEFE28
:101440008686868686860606FEFE8686868686864C
:101450000606F8FC0E068686868E9C98FEFE808028
:1014600080808080FEFE00000606FEFE060600006C
:10147000000000000606FEFE0606FEFE80C0E070CC
:10148000381C0E06FEFE0000000000000000FEFEFC
:101490001C38F0F0381CFEFEFEFE70E0C08000003C
:1014A000FEFEF8FC0E060606060EFCF80000010122
:1014B0000101000000007F7F0101010101017F7F28
:1014C0007F7F6161616161733F1E1F3F706060607B
:1014D000607038187F7F60606070381C0F077F7FF6
:1014E00061616161616160607F7F010101010101F2
:1014F00000001F3F7060616161717F3F7F7F01016C
:10150000010101017F7F000060607F7F606000005B
:101510001838706060703F1F00007F7F0103070E66
:101520001C3870607F7F60606060606060607F7F9B
:101530000000010100007F7F7F7F00000103070E94
:101540007F7F1F3F7060606060703F1FFEFE868679
:10155000868686CEFC78F8FC0E060606060EFCF89B
:10156000FEFE8686868686CEFC7878FCCE868686CB
:10157000868E1C1806060606FEFE06060606FEFEFB
:10158000000000000000FEFEFEFE00000000000063
:10159000FEFEFEFE000000000000FEFE1E3E70E0AB
:1015A000C0C0E0703E1E7EFEC080000080C0FE7E97
:1015B0000606060686C6E6763E1E0000FEFE060607
:1015C00006060000183870E0C0800000000000002F
:1015D00006060606FEFE00006070381C0E0E1C3863
:1015E0007060000000000000000000007F7F01012B
:1015F0000101010100001F3F7060666E3C387F678B
:101600007F7F0101070F1D397060183871616161BA
:1016100061733F1E000000007F7F000000001F3F3D
:101620007060606060703F1F070F1C387070381C5E
:101630000F071F3F70703E3E70703F1F787C0E0793
:101640000303070E7C78000001037F7F0301000085
:10165000787C6E6763616060606000007F7F6060BF
:1016600060600000000000000103070E1C1800006D
:10167000606060607F7F00000000000000000000EC
:101680000000606060606060606060600000060E86
:101690001C387060000000006060606060E0C08026
:1016A000FEFE80C0E06060E0C08080C0E0606060FE
:1016B0006060000080C0E06060E0C080FEFE80C02E
:1016C000E060606060E0C0808080F8FC8E86060E7E
:1016D0001C18E0F0381818181818F8F8FEFE80C02A
:1016E000E06060E0C08000006060E6E600000000AE
:1016F000000000006060E6E60000FEFE000080C022
:10170000E060000000000606FEFE00000000E0E0D1
:1017100060E0C0C0E0E0C080E0E080C0E06060E089
:10172000C08080C0E060606060E0C08000000000B9
:10173000000000000000183C7E66666666667F7FDB
:101740007F7F6161606060703F1F1F3F70606060FD
:10175000607038181F3F7060606061617F7F1F3F5D
:10176000766666666666070701017F7F01010000F5
:10177000000001036766666666763F1F7F7F010192
:10178000000000007F7F000060607F7F60600000DD
:101790001838706060703F1F00007F7F060F1F3990
:1017A00070600000000060607F7F606000007F7FED
:1017B0000000070700007F7F7F7F0101000000001D
:1017C0007F7F1F3F7060606060703F1FE0E060607F
:1017D000606060E0C08080C0E0606060C080E0E089
:1017E000E0E080C0E06060E0C08080C0E0606060F9
:1017F000606000006060FEFE606000000000E0E0ED
:10180000000000000000E0E0E0E000000000000058
:10181000E0E0E0E0000000000000E0E060E0C08008
:10182000000080C0E060E0E0000000000000E0E0B8
:10183000606060606060E0E0E060000080C0787C34
:101840000E06000000000000FEFE00000000000088
:10185000060E7C78C0800000808080801838F0E020
:10186000C08080C0E0F03818808080807F7F0606CE
:1018700006060607030101030706060607077F7F22
:101880007F7F0101000000000101616367666666F9
:10189000667E3C1800001F3F7060607038181F3F64
:1018A0007060607038187F7F070F1C387070381CAC
:1018B0000F071F3F7070383870703F1F6070391FFE
:1018C0000F0F1F39706001036766666666763F1FFB
:1018D0006070787C6E6763616060000001031E3E8B
:1018E00070600000000000007F7F0000000000002A
:1018F00060703E1E0301000001010101181C0F076A
:1019000003010103070F1C18010101014F46464165
:101910004253525573525525454C73454C255448F6
:1019200073544825414C73414C255031205031258A
:101930005032205032255033205033250063002D83
:101940002D2D783E30783C307C787C663E30663C8D
:10195000307C667C004650002D2D2D00544852529C
:101960005544454C45494430494431494432414944
:101970004C47454154524E535731535732535733C6
:1019800053573453573553573653573753573853A4
:101990005739535741535742535743004F46460018
:1019A0004F4E20002D2D2D004D4F44454C005245EB
:1019B0005441004144314144320043480050504DAD
:1019C000005031202050322020503320204D4158EB
:1019D0002046554C4C4359433143594332435943B4
:1019E00033002D2D2D2D00408008042010020116FB
:1019F0001A221A281A2F1A3C1A421A4D1A9C14320B
:101A0000465A5A4632465AECEC003C649CC4003CB0
:101A1000649C0000006453696D706C6520342D4334
:101A20004800542D43757400562D5461696C00456F
:101A30006C65766F6E5C44656C7461006543435001
:101A40004D0048656C69205365747570005365726C
:101A5000766F20546573740011241FBECFEFD0E160
:101A6000DEBFCDBF11E0A0E0B1E0ECE9F2EF02C0D3
:101A700005900D92AA31B107D9F71EE0AAE1B1E0B5
:101A800001C01D92A630B107E1F70E9447250C94D2
:101A90004C790C94000099E289029001112435954B
:101AA00027953595279587FD815C86FB880F880BE8
:101AB00080F9992787FD9095281B390BC901089556
:101AC000982F803201F181548A3110F48F5F08958C
:101AD000892F81568A3120F4892F80958F59089556
:101AE000892F80538A3010F4855E0895ECEFF5E07D
:101AF00080E02491291711F48B5D089531962223FB
:101B000011F08F5FF6CF80E00895E82F8823D9F099
:101B100087FF07C0863E1CF080E68E1B0895E19586
:101B200004C08B3114F4805C0895E5321CF48E2FD0
:101B30008B5E0895E9323CF4FF27E7FDF095E9520A
:101B4000FA4F8491089580E208959DE0899F900165
:101B500011242E503C4FC9010895282F30E0220F48
:101B6000331F220F331F25513D4FC901089599E0BE
:101B7000899F9001112425583E4FC901089595E091
:101B8000899F9001112425563D4FC90108959C015C
:101B900040E0683008F041E070E0442371F0CB0190
:101BA0000897FC0163E0EE0FFF1F6A95E1F7E80F6D
:101BB000F91FDF01A55BBC4F0AC0FB01EE0FFF1F41
:101BC000EE0FFF1FE60FF71FDF01AD5DBC4FFD01FC
:101BD000808120503C4F37FD0EC068E02030360732
:101BE00084F0442319F484E090E002C088E090E09F
:101BF000A80FB91F8C91992787FD9095582F4427DE
:101C000033C0442331F0432FB9017070660F771F42
:101C100004C0432F4695B9017170842F90E0FD01F7
:101C2000E80FF91F8181992787FD90959B013595D4
:101C30002795829FA001839F500D929F500D1124E4
:101C40002081332727FD309580E092E0861B970B9B
:101C500095958795BC01269FC001279F900D369FC3
:101C6000900D1124480F591FCA0169E170E00E94CC
:101C7000C178CB0108959C01633031F1643028F4C0
:101C8000613051F0623090F43CC0653039F165301C
:101C900008F1663061F525C0493029F497FD24C06C
:101CA000205032400AC097FF2CC026C0493041F472
:101CB0001816190624F120503E4F220F331F21C061
:101CC00018161906CCF01DC097FF1BC03095219542
:101CD0003F4F17C01816190694F00EC097FF0CC09E
:101CE00003C0181619065CF020E03CEF0AC06750EC
:101CF0000E94C70D9C0105C020E030E002C020E03A
:101D000034E0C90108956F927F928F929F92AF92B3
:101D1000BF92CF92DF92EF92FF920F931F933B01FE
:101D20007C0100E010E08824992464E670E080E003
:101D300090E06619770988099909A80197010E941E
:101D40008E785B016C0182E390E0A0E0B0E0A80E29
:101D5000B91ECA1EDB1EC801B7010E948E780E9400
:101D60008E78BC0188279927A40193010E948E7860
:101D7000E4E09695879577956795EA95D1F7A60E55
:101D8000B71EC81ED91EC601B50124E630E040E0EA
:101D900050E00E94D478C9011F910F91FF90EF90FD
:101DA000DF90CF90BF90AF909F908F907F906F907B
:101DB0000895FF920F931F939C01AB01611571056C
:101DC00031F1FF2497FF05C0FF24F394309521954E
:101DD0003F4F57FF10C000E014E066277727641BD1
:101DE000750BC801821B930B0E94830E9801281B60
:101DF000390BC90104C0C901BA010E94830EFF203A
:101E000011F49C0104C022273327281B390BC90178
:101E10001F910F91FF9008951F93162F0E94A50DFB
:101E2000FC01A12FB0E02481332727FD3095CD019F
:101E3000880F991F02C0359527958A95E2F7237080
:101E40003070AE0FBF1F8C91992787FD9095880F3A
:101E5000991F880F991F280F391FC9011F910895D5
:101E6000FF920F931F93F82E162F00E0112391F08D
:101E7000812F6F2D0E940C0F21E0853F920754F0B7
:101E8000282F255F211708F02F5F0F5F122F0530D5
:101E900069F710E0812F1F910F91FF900895E9E5F8
:101EA000F5E0E80FF11DE491F0E0EE0FFF1FEB57B6
:101EB000F84F20813181C9010895A5E8B7E0E5E92F
:101EC000F7E060E0862F806487B9369A20893189EF
:101ED0008D919C91119796958795820F931F8E7F78
:101EE00011969C938E9340815181240F351F369516
:101EF0002795318B208B349BFECF349A84B195B1DA
:101F0000840F951F96958795819391936F5F129695
:101F10006830C1F60895E5E8F7E050E0852F806469
:101F200087B920E030E040E0369A349BFECF349A07
:101F300084B195B1280F391F4F5F4430A9F736950A
:101F40002795219331935F5F583041F70895E5E875
:101F5000F7E020E0822F806487B9369A349BFECF69
:101F6000349A84B195B1880F991F819391932F5F13
:101F7000283081F708958EE587B985E28A95F1F7D3
:101F8000369A349BFECF349A84B195B19093550420
:101F900080935404089510926B041092640410927C
:101FA0006304109268041092670410926604109201
:101FB000650410926A0410926904089510926F04E7
:101FC000109271041092700408951F920F920FB630
:101FD0000F9211248F9380916F078F5F80936F070B
:101FE0008F910F900FBE0F901F90189540916F0723
:101FF00022B780916F074817C9F7942F80E030E02F
:10200000282B392BC90108951F920F920FB60F92FA
:1020100011242F933F934F935F936F937F938F93ED
:102020009F93AF93BF93CF93DF93EF93FF93C091B1
:102030008000D091810080917D008F7D80937D0014
:10204000789480917007909171079E01281B390B3D
:1020500036952795C901815A9F408F5D9E4220F495
:1020600081E080936D072EC040916D07842F8150D1
:10207000883040F5C901815293408757954000F55B
:10208000E42FF0E0EE0FFF1FE55AF84F2C5D3540CE
:1020900080916401992787FD90950A96BC01269F3F
:1020A000C001279F900D369F900D11246AE070E0CB
:1020B0000E94C178718360834F5F40936D0702C0B7
:1020C00010926D07D0937107C0937007F8948091B8
:1020D0007D00806280937D00FF91EF91DF91CF9131
:1020E000BF91AF919F918F917F916F915F914F9130
:1020F0003F912F910F900FBE0F901F901895E7E022
:10210000FEE001C0319680818535E1F39F012650C4
:102110003E40C9010895EF92FF920F931F93062F3F
:102120007A010E94A50DDC0110E0FC01E00FF11F17
:10213000C70195958795959587958083000F111F09
:1021400083E090E0002E02C0880F991F0A94E2F706
:10215000809514962C911497822393E0E922FF2412
:1021600002C0EE0CFF1C0A95E2F78E0D14968C93BC
:1021700082E00E94365D1F910F91FF90EF900895CD
:102180001F920F920FB60F9211242F933F934F93EC
:102190005F936F937F938F939F93AF93BF93EF93CF
:1021A000FF9380E09CB5992319F48F5F8530D1F7B8
:1021B00080914104292F981708F4282F2093410477
:1021C00020914204892F291708F4822F809342041A
:1021D00080917407882321F0C09A1092740704C07C
:1021E000C09881E080937407A0910801B091090123
:1021F000FD01819191919BBD8ABDF0930901E0930E
:10220000080112968D919C911397892BC1F48FEE42
:1022100094E0909309018093080180917501829563
:10222000817080937407F89487B78F7E87BF789406
:102230000E945828F89487B7806187BF789480916E
:102240006E07816080936E07FF91EF91BF91AF9110
:102250009F918F917F916F915F914F913F912F91BE
:102260000F900FBE0F901F90189578941F920F92A9
:102270000FB60F9211242F933F934F935F936F9359
:102280007F938F939F93AF93BF93CF93DF93EF93FE
:10229000FF93F89487B78D7F87BF81B78E5F81BF2B
:1022A000789480914704882359F08091000190919F
:1022B0007307890F8093730787FF02C01B9A01C0C1
:1022C0001B98809107018150809307018F5F09F06F
:1022D00062C08DE480930701F894CCB5DDB57894A5
:1022E00090914E04992369F080915D04882329F42C
:1022F00090935D0481E080935E04915090934E042E
:1023000021C030915C043323B9F020915D04222375
:1023100099F090E080915E04882309F491E0909315
:102320005E04992309F428E020934E04992351F088
:10233000315030935C0406C010925D0410925E042C
:102340001092480480915E04882391F080914804A3
:10235000882311F490E004C09091720781E09827DF
:1023600090937207992321F481E08093470402C07F
:10237000109247040E94EE6F80916E0782608093F6
:102380006E07F8948CB59DB578948C1B9D0B90933B
:10239000460480934504F89487B7826087BF789499
:1023A000FF91EF91DF91CF91BF91AF919F918F916D
:1023B0007F916F915F914F913F912F910F900FBE41
:1023C0000F901F9018950F931F938C010E945F6EC2
:1023D00082E260E045E755E024E00E94DF6880E0AB
:1023E00068E1A8010E941A690E94BE6C80914801B0
:1023F0000E94B46C1F910F91089586B380958E77DB
:10240000E1F70E94B76E0895EF92FF920F931F932A
:102410008C017B010E945F6E82E260E047EE55E036
:1024200024E00E94DF6880E060E2A8010E941A694F
:1024300080E068E2A7010E941A6980E060E341ED54
:1024400055E00E941A690E94BE6C809148010E946A
:10245000B46C0E94FD111F910F91FF90EF900895B1
:10246000EF92FF920F931F93CF93DF93E82E882371
:1024700049F480914A0490914B04492F441F44270A
:10248000441F90C1992787FD909597FF03C09095B1
:1024900081959F4F863109F480C18A3030F490E0F5
:1024A0000D960E94566F482F79C18A50282F30E030
:1024B0008901000F111F020F131F0D561C4FD80169
:1024C00012968C91882311F440E06CC1F80182814E
:1024D000853010F420E007C0D80112968C91883026
:1024E00008F468C122E0D801EC91E150E73008F42B
:1024F00049C053C080914C0490914D0440E08C231E
:102500009D23892B89F127C080914A0490914B0427
:102510008C2B9D2B90934B0480934A04F80180816F
:102520000E943012F82ED80111968C910E94301220
:10253000982FF8018281853019F0863049F403C064
:10254000FF2089F002C0FF2031F4992321F40BC051
:1025500040E0F91649F041E080914C0490914D041F
:102560008C2B9D2B0AC040E020914C0430914D04EF
:10257000CE01809590958223932390934D04809370
:102580004C040CC180914904882309F042C0F0E05A
:10259000EE0FFF1FE354F84F29C0E93018F4C0E0F4
:1025A000D4E039C0E03178F4F0E0EE0FFF1FDF0136
:1025B000AC5CBE4FEB5BF84FC081D1818D919C919B
:1025C000C81BD90B09C0E43150F4F0E0EE0FFF1F37
:1025D000EB5BF84FC081D181CC0FDD1F1CC0E43212
:1025E00040F4F0E0EE0FFF1FED55F84FC081D181B0
:1025F00012C0E63270F48E2F90E08497FC01EE0F4B
:10260000FF1FE80FF91FEA55F24F8081C82FD0E075
:1026100002C0C0E0D0E0222309F03FC0D8018C9175
:1026200085324CF011968C91282F332727FD309559
:1026300023583F4F05C0F80181810E944B0D9C013A
:10264000D80112968C91823051F0833071F0813034
:10265000C1F440E02C173D070CF0A0C09EC040E044
:10266000C217D3070CF09AC098C040E0CE01D7FF44
:1026700003C0909581959F4F281739070CF08EC0A5
:102680008CC040E0CE01D7FF03C0909581959F4F4D
:10269000821793070CF082C080C0D8011196EC918C
:1026A000E150E73058F480914904882309F045C08F
:1026B000F0E0EE0FFF1FE354F84F2BC0E93018F4A1
:1026C000E0E0F4E03CC0E03180F4F0E0EE0FFF1F0A
:1026D000DF01AC5CBE4FEB5BF84F0190F081E02D69
:1026E0008D919C91E81BF90B0AC0E43158F4F0E09D
:1026F000EE0FFF1FEB5BF84F0190F081E02DEE0F26
:10270000FF1F1DC0E43248F4F0E0EE0FFF1FED554F
:10271000F84F0190F081E02D12C0E63270F48E2F58
:1027200090E08497FC01EE0FFF1FE80FF91FEA55B8
:10273000F24F8081E82FF0E002C0E0E0F0E0D80145
:1027400012968C91893089F08A3018F4883009F516
:1027500007C08A3079F08B3091F08C30D1F414C0FE
:1027600040E0CE17DF07D1F418C040E0CE17DF07F6
:10277000A1F414C040E0EC17FD0784F40EC040E063
:10278000CE17DF075CF409C040E0CE17DF0734F056
:1027900004C040E0EC17FD070CF041E01E1414F0FB
:1027A00081E04827842FDF91CF911F910F91FF90F7
:1027B000EF900895C1E0D0E002C0CC0FDD1F2A9554
:1027C000E2F780914A0490914B048C239D23892B3E
:1027D00009F090CE99CE362F37953327379520E0E4
:1027E00030934B0420934A040E94301208950F93B3
:1027F0001F93CF93DF93082F10917101110F15953F
:10280000812F992787FD909597FF03C0909581951B
:102810009F4F8597F4F12091040E3091050E809121
:10282000010E9091020E282B392B8091FF0D909173
:10283000000E282B392B8091030E90E0282B392B8A
:102840008091FC0D90E0282B392B232B39F410922A
:10285000FC0D17FF03C081E08093FC0D11161CF4E2
:10286000812F845202C0812F8C5D60E00E94EB13A7
:10287000282F882361F08091FC0D882341F490E09B
:102880008091030E882309F491E09093030E209326
:10289000FC0DC091040ED091050E2196D093050E2B
:1028A000C093040EE091010EF091020EE00FF11DB5
:1028B000F093020EE093010EF8948091800D9091B8
:1028C000810D78942091FF0D3091000E821B930BA7
:1028D0008436910508F44BC12C593F4F3093000EBC
:1028E0002093FF0DCF01BE010E94AD78062F862FE9
:1028F00090E09C012C9FC0012D9F900D3C9F900D5E
:102900001124E81BF90BF093020EE093010E1092D4
:10291000050E1092040E912F915F9F3118F41092C2
:10292000030E0EC0812F8C5D893450F4111614F4FF
:10293000835301C0892F60E00E94EB138093030E44
:102940008091610490916204019690936204809357
:10295000610460916304709164046F5F7F4F7093B2
:10296000640460936304002349F0809167049091AC
:102970006804019690936804809367048091030E25
:10298000882349F0809165049091660401969093A4
:1029900066048093650406954091690450916A0429
:1029A000400F511D50936A0440936904E0917201F5
:1029B000F0917301F0936D04E0936C0480917101C8
:1029C000880F8595992787FD909597FF03C090956F
:1029D00081959F4F882319F410926B0422C0813097
:1029E00021F4CF01861B970B18C0803170F480FF53
:1029F00007C0CA0124E0969587952A95E1F709C09A
:102A0000809167049091680404C08091650490915E
:102A100066049F01281B390BC90190936D048093B4
:102A20006C0480916B04813051F0813018F0823059
:102A300001F510C0809171018F77D9F017C0809196
:102A40006C0490916D04181619069CF0309789F06B
:102A500082E00DC080916C0490916D04855C9F4F65
:102A60001CF483E080936B04309719F481E0809329
:102A70006B0420916C0430916D048091F80D90915D
:102A8000F90D8217930709F464C090916B0491309B
:102A900009F04CC08091600182FF32C0309781F113
:102AA0002E31310521F482E080935C040CC0243186
:102AB000310519F490935C0406C02A30310519F0F1
:102AC000243031053CF48091510480934E0482E31C
:102AD000809300018091600183FF12C02E31310587
:102AE00049F02431310531F02A30310519F0243014
:102AF000310534F482E390E090935B0480935A04B0
:102B00008091600181FF25C08091710187FF04C021
:102B1000CF01821B930B01C0C9016CE370E00E94DE
:102B2000AD78892BB1F48091510404C0923089F4BE
:102B30008091520480934E0482E38093000180913F
:102B4000600183FF06C082E390E090935B04809372
:102B50005A043093F90D2093F80D8091710187FF8D
:102B600006C0E21BF30BF0936D04E0936C04DF915D
:102B7000CF911F910F91089520917101220F2595FA
:102B8000822F992787FD909597FF03C09095819597
:102B90009F4F823091059CF1213F8CF120317CF5D3
:102BA000273F94F02A3084F4E0915E01F0E0EE0FCC
:102BB000FF1FEE0FFF1F95958795E80FF91FE15D49
:102BC000FA4FE491F0E003C0FC01F595E7953197E9
:102BD000EE0FFF1FE354F84F0190F081E02D27FF27
:102BE00005C080E094E08E1B9F0B03C0CF01805096
:102BF0009C4F66E0969587956A95E1F702C080E064
:102C000090E00E94F713E0915E01F0E0EE0FFF1FED
:102C1000EE0FFF1FEE5CFA4FE491F0E0EE0FFF1FA6
:102C2000E554F84F0190F081E02D8091600180FF24
:102C300005C080E094E08E1B9F0B03C0CF01805045
:102C40009C4F6091FD0D7091FE0D6F5F7F4F7093F3
:102C5000FE0D6093FD0DAC0136E0569547953A9513
:102C6000E1F78091FA0D9091FB0D480F591F509399
:102C7000FB0D4093FA0DF8948091800D9091810D99
:102C800078942091F60D3091F70D821B930B885E9E
:102C9000934098F1F8948091800D9091810D7894F3
:102CA0009093F70D8093F60D1092FB0D1092FA0D94
:102CB0001092FE0D1092FD0D8091ED049091EE04A6
:102CC00001969093EE048093ED042091EB043091F3
:102CD000EC04F901ED58FB4FCA010E94AD78608306
:102CE0002F5F3F4F3093EC042093EB0428373105DE
:102CF00020F01092EC041092EB040895EF92FF92F2
:102D00000F931F93CF93DF93C7EDD3E041E0E42E01
:102D1000F12C2881222309F189818823F1F090E0A8
:102D20000197870102C0000F111F8A95E2F7822FD9
:102D300060E00E94EB1320915B0730915C078823D1
:102D400019F0202B312B05C0C801809590952823C0
:102D5000392330935C0720935B07229683E0CF3EB4
:102D6000D807B9F6DF91CF911F910F91FF90EF90A7
:102D70000895FF920F931F938C01F62E0E945F6EB1
:102D800082E260E04FE655E024E00E94DF6880E0E8
:102D900060E2A8010E941A698CE168E341E655E00F
:102DA0000E941A690E94BE6CFF2011F089E102C0E6
:102DB000809148010E94B46C8091530480934E042A
:102DC00082E3809300010E94FD1186B380958E7787
:102DD00091F480914B0160E00E94EB13882331F461
:102DE00080916201882311F4FF2019F0C79AA895F9
:102DF000ECCFC798FCCF1F910F91FF900895809161
:102E00005D0187FD07C0887329F480EA95E060E0E2
:102E10000E94B916089580915D0186FD0AC00E9446
:102E2000F262883C910528F48DEE95E060E00E9406
:102E3000B91608950F931F9380915D01867099F1E3
:102E40008FE895E06DE775E00E94041200E0809144
:102E50005D018670823009F401E01EE00AC0113184
:102E600039F0812F8D5060E00E94EB13801729F418
:102E70001F5F1631A0F31631B1F086B380958E77BF
:102E800091F406C080916201882351F0C79A09C06D
:102E900080914B0160E00E94EB138823B9F7F2CFD9
:102EA000C7981EE0DECF1F910F9108950F931F93D7
:102EB000CF93DF9380915D0180FD43C080915E01DF
:102EC00090E08170907002E010E0081B190BF8018F
:102ED000EE0FFF1FE65EFE4FC181D28160968785AF
:102EE0009089C81BD90B0E94A70F102F802F0E941A
:102EF0004F0FC817D9072CF58FEB95E060EB75E005
:102F00000E9404120E94A70F812F0E944F0FC81722
:102F1000D90724F486B380958E7749F00E94FD117D
:102F200010C080916201882351F0C79AEBCF809145
:102F30004B0160E00E94EB138823B9F7F2CFC798EA
:102F4000E1CFDF91CF911F910F910895AF92BF9282
:102F5000CF92DF92EF92FF920F93CF93DF93809106
:102F6000600184FD6EC080914B0160E00E94EB1314
:102F7000882329F480916201882309F456C0C79AF6
:102F80000E945F6E80E060E04CE850E020E000E0EE
:102F90000E94C7670E94BE6C809148010E94B46C79
:102FA0000E94FD110E945D0F0F5F0032D9F7AA2425
:102FB000BB2400E0802F0E944F0FC92FD0E0AC0E41
:102FC000BD1E0F5F0430B1F7F894C090800DD09013
:102FD000810D789480E991E0C80ED91E1CC00E9432
:102FE0005D0FC0E0D0E000E0802F0E944F0FE92E7F
:102FF000FF24CE0DDF1D0F5F0430B1F786B380953F
:103000008E77F9F4CA15DB05E1F411C080916201F5
:103010008823A9F0C79AF8948091800D9091810D32
:103020007894C816D906D9F60CC0C798A9CF809154
:103030004B0160E00E94EB13882361F7E7CFC7984C
:10304000EACFDF91CF910F91FF90EF90DF90CF907B
:10305000BF90AF9008951F93CF93DF93C4E0D4E067
:1030600011E08881882351F060E00E94EB138823EF
:1030700029F0812FDF91CF911F9108951F5F2D9629
:10308000153079F710E0F5CFDF92EF92FF920F93B2
:103090001F93CF93DF93F82E082F0F7006501091D7
:1030A00075011770083008F0C1C0E02EE5940E9449
:1030B0002B18682F8E2D0E94300FD82E6E2D0E9457
:1030C0000C0FBC01112389F477FF04C088279927CE
:1030D000861B970B959587959595879501968132D7
:1030E000910584F080E290E00DC0212F332727FD69
:1030F00030952150304081E090E002C0880F991F48
:103100002A95E2F7482F80915E0190E081709070DF
:1031100022E030E0281B390B8E2D90E0281739076C
:1031200039F48091740183FF03C044E021E001C0C1
:1031300020E0552747FD509500FF07C0EA01C60F64
:10314000D71F10E083E89FEF04C0EB01C41BD50B31
:10315000F8CF009719F4222329F015C03FEF8338E8
:10316000930749F0C817D9071CF0681779074CF086
:103170008D37910541F08C179D072CF08617970726
:1031800014F4EC0111E083589F4F8A3F910509F731
:103190006C177D0724F4CE37D10544F40CC0C61754
:1031A000D7074CF48FEFC338D8072CF48091750102
:1031B00086FFEB0111E03EEFCC30D3071CF4CCE0EE
:1031C000DEEF06C081E0C53FD80714F0C4EFD1E0C0
:1031D0008D2D6E2DAE010E948B10CE37D1051CF0C7
:1031E000CDE7D0E006C03FEFC338D30714F4C3E8FF
:1031F000DFEFCE0164E070E00E94C178EB01EC9655
:10320000112341F08F2D0E94DD6F109248048091B0
:10321000510407C0F6FE03C081E08093480480910A
:103220004F0480934E04C0930001FF248F2DDF9143
:10323000CF911F910F91FF90EF90DF9008954F92E3
:103240005F926F927F928F929F92AF92BF92CF9236
:10325000DF92EF92FF920F931F93CF93DF933C0186
:10326000A5EBB7E0FC0198E001900D929150E1F7D9
:103270006F3F19F40E942B18682FEEEECE2EE2E07D
:10328000DE2E0FEFC0E0D0E072E0472E512CE62E8C
:10329000FF240894E11CF11CFE01EE0FFF1FEE0F4E
:1032A000FF1FE551FD4F2081822F837009F4CEC0AE
:1032B00026952695237030E0802F992787FD9095DD
:1032C0002817390709F4B9C08181807E99F082817D
:1032D00080FD10C0FE01EE0FFF1FEE0FFF1FE45137
:1032E000FD4F808182958695877090E0E816F906FB
:1032F00009F0A3C0FE01EE0FFF1FEE0FFF1FE45108
:10330000FD4F8081880F880F880F8595859585955D
:1033100061E00E94EB13882309F48FC0FE01EE0FD9
:10332000FF1FEE0FFF1FE551FD4F8081182F1695EF
:1033300016951370E12FF0E0EE0FFF1FEB54F84FDE
:103340000190F081E02D8370F7FF03C080FD03C082
:1033500074C081FF72C0012FD6018C91282F3327B2
:1033600027FD309580915E0190E081709070420160
:10337000881A990AA12EBB24A7FCB0948A149B0436
:1033800099F48091750183FF0FC0CF0180509C4F4D
:1033900062E070E00E94C178CB01B9010E94D90EB1
:1033A0009C01220F331F05C0CF01B9010E94D90E25
:1033B0009C01FE01EE0FFF1FEE0FFF1FE551FD4FB9
:1033C000E0818E2F807F69F06E2F62956F70862F5F
:1033D00090E00B970CF06C5FC90140E00E943B0E3F
:1033E0009C01B901882777FD8095982FFE01EE0F8B
:1033F000FF1FEE0FFF1FE351FD4F2081269530E0A8
:1034000040E050E00E948E7824E630E040E050E05A
:103410000E94F6788A149B0431F48091750183FF31
:1034200002C020503440E12FFF27E7FDF095EE0F5A
:10343000FF1FE60DF71D31832083219684E090E085
:10344000C80ED91ECE30D10509F026CFDF91CF911D
:103450001F910F91FF90EF90DF90CF90BF90AF90B2
:103460009F908F907F906F905F904F9008953F92C4
:103470004F925F926F927F928F929F92AF92BF9284
:10348000CF92DF92EF92FF920F931F93CF93DF9330
:10349000382E8BE1C82E81E0D82E0FED802E05E06E
:1034A000902E1DEBA12E17E0B12E2401EE24C0E0DA
:1034B000D0E0B1E06B2E712CFC2E8C2F0E944F0FB0
:1034C0009C01D6018D919C911197281B390B1216E6
:1034D00013062CF45C96ED91FC915D9705C0D60126
:1034E0001E96ED91FC911F97E436F10514F4E4E685
:1034F000F0E0B901882777FD8095982FAAE0660F44
:10350000771F881F991FAA95D1F79F01442737FD80
:103510004095542F0E94F6788901BCEF21303B077B
:103520001CF400E01CEF06C0E4E020303E0714F07D
:1035300000E014E08091600180FF0FC080915E0187
:1035400090E08170907022E030E0281B390BC217A8
:10355000D30719F4109501951F4FD5010D931C93B6
:10356000C8010F964F9710F5C430D105BCF4E09117
:103570005E01F0E0EE0FFF1FEE0FFF1FEC0FFD1FCF
:10358000E05DFA4FE4918E2F90E00197F30102C0C5
:10359000EE0FFF1F8A95E2F7CF0107C0C3010C2E83
:1035A00002C0880F991F0A94E2F7E82AF3E0FF159A
:1035B00008F457C080914904882309F052C021962D
:1035C000C3010C2E02C0880F991F0A94E2F72197BD
:1035D000816020915B0730915C0782239323892BC4
:1035E00009F43FC0FE01EE0FFF1FEC5AFE4FF080C2
:1035F0008F2D807CB1F1EF2DEF73F0E0EE0FFF1F08
:10360000DF01A45BBE4FE35AF84F608171812D91B9
:103610003C91621B730B882777FD8095982FD6010C
:10362000DA962C91332727FD3095432F532F0E9494
:103630008E7822E330E040E050E00E94F678C90145
:10364000F294F694F69423E0F222EF2DF0E0E130CC
:10365000F10519F0329729F403C0080F191F01C0B2
:103660008C01F201019311932F01219622E030E0A9
:10367000C20ED31EA20EB31EC730D10509F01CCF57
:103680008FED95E0632D0E941F191BE2A12E16E01D
:10369000B12E00E010E0B2E04B2E512C612CA4E0E2
:1036A0007A2ED401CD90DC90802F632D0E94300FB4
:1036B000602F0E940C0FEC0180915E0190E0817000
:1036C0009070F201E81BF90BE017F10771F580919A
:1036D000740183FF2AC08091600180FF03C0D095F0
:1036E000C195DF4FBE01882777FD8095982F6358DD
:1036F0007F4F8F4F9F4F93012C193D09442737FD72
:103700004095542F0E948E7820E038E040E050E051
:103710000E94F678B901CA016030F8E07F07F0E056
:103720008F07F0E09F0741F406C080917204882360
:1037300011F0C0E0D0E09E01220F331FD5012D9380
:103740003D935D010F5F1F4FE2E0F0E08E0E9F1E84
:103750000430110509F0A5CF8E2DDF91CF911F9177
:103760000F91FF90EF90DF90CF90BF90AF909F9020
:103770008F907F906F905F904F903F9008958F92C1
:103780009F92AF92BF92CF92DF92EF92FF920F93F0
:103790001F93CF93DF930E942B18C82E2FEDE22E9C
:1037A00025E0F22E0BE216E0C0E0D0E092E0892E98
:1037B000912CAA24A394BC2E80915E0190E081708C
:1037C00090709401281B390B2C173D0751F18C2F59
:1037D0006C2D0E94300FD82EA09249048C2D0E948F
:1037E000371A10924904F80180819181F7012081F4
:1037F0003181820F931F62E070E00E94C178AB01BB
:10380000FEEF6C307F071CF44CE05EEF06C021E059
:10381000653F720714F044EF51E08D2D6B2D0E942F
:103820008B10219682E090E0E80EF91E0E5F1F4F8C
:10383000C430D10509F0BFCF82E00E94365D80918F
:10384000500480934E0482E380930001DF91CF9176
:103850001F910F91FF90EF90DF90CF90BF90AF90AE
:103860009F908F9008952F923F924F925F926F9208
:103870007F928F929F92AF92BF92CF92DF92EF9200
:10388000FF920F931F93DF93CF93CDB7DEB72997A6
:103890000FB6F894DEBF0FBECDBF9F838E83162F69
:1038A000862F0E94371A409177014823242F30E059
:1038B0008091790690E08227932782239323892B96
:1038C00039F08091500480934E0482E3809300018C
:1038D0004093790680E094E09093EE058093ED05A7
:1038E0009093F0058093EF0580914904882379F146
:1038F00080915E0190E08170907022E030E0281BA2
:10390000390B1092E0051092DF052130310521F0CE
:103910001092E2051092E1052230310521F010925B
:10392000E4051092E3051092E6051092E505E7EF35
:10393000F5E01192119226E0E730F207D1F743E368
:1039400056E05A83498327E036E0FA0146C067EF24
:1039500075E040E050E0FA01E35AF84FDA01A65E64
:10396000BE4F80819181D2962D913C91D397821B3D
:10397000930B880F991FDB018D939D93BD014E5FC3
:103980005F4F4830510539F7809165079091660780
:10399000880F991F909300068093FF058091670719
:1039A00090916807880F991F9093020680930106F3
:1039B0008091690790916A07880F991F9093040678
:1039C0008093030680916B0790916C07880F991F75
:1039D0009093060680930506B2CF80819181D9012C
:1039E0008D939D939D013496B6E0EB37FB07A9F7C5
:1039F00080915904882311F00E94BC1580E4E3E310
:103A0000F6E0DF011D928A95E9F710925A07FAE372
:103A10004F2EF7E05F2EEAEB8E2EE6E09E2E7AE741
:103A2000672E76E0772E1D82212E33240894211CE8
:103A3000311C8D810E94B70D6C01FC0180818F715A
:103A400059F46BE9462E62E0562E27EB33E03C83B7
:103A50002B8322243324AFC290E0419794F7D60100
:103A600017969C91892F807FC1F0892F8595859528
:103A700085958595282F332727FD309518162CF42A
:103A80002216330609F085C208C088279927821BB1
:103A9000930B2816390609F47CC2F601838161E094
:103AA0000E94EB13D2019C918823C1F4192F1C9220
:103AB000F6019181892F8850823008F06AC287818F
:103AC0008E70843009F465C2993019F01986188611
:103AD00040C020E03CEF398728873BC010E09923A5
:103AE00009F411E081E0D2018C93F60181818150CB
:103AF000A82FB0E0FD01EE0FFF1FE152FA4F208129
:103B0000318139872887843168F03D81831750F4EB
:103B1000AA0FBB1FAA0FBB1FAD5CB94F4D915C91A3
:103B200059874887D6019C91892F807E91F0929584
:103B300096959770892F90E00197E1E0F0E002C040
:103B4000EE0FFF1F8A95E2F720915A072E2B209344
:103B50005A07D60118968C91882341F00E944B0D8C
:103B6000E885F985E80FF91FF987E887D6011696E9
:103B70008C911697882329F415968C91882309F443
:103B80006AC1F4016081718182819381112391F472
:103B900020E031E040E050E00E94F67850954095FA
:103BA000309521953F4F4F4F5F4FA884B984A20EA7
:103BB000B31E5CC0D60117968C9117978E70843017
:103BC00049F5EC91EF71F0E0EE0FFF1FEB5FF94F5D
:103BD00060817181882777FD8095982F20E034E6F9
:103BE00040E050E00E948E78F4016083718382830C
:103BF0009383D60112962C91222361F0332727FD5F
:103C00003095432F532F0E94F678F401208331839F
:103C100042835383D4016D917D918D919C9120E0DD
:103C200031E040E050E00E94F678509540953095A4
:103C300021953F4F4F4F5F4FA884B984A20EB31E0A
:103C4000A114B10499F0F6018581B7FE82958F70B9
:103C500090E09C0144E650E0249FC001259F900D18
:103C6000349F900D1124D3018D939C93F3012081F7
:103C700031812115310599F080915904882321F073
:103C80002150304031832083D3018D919C91892B29
:103C900031F0F4016081718182819381C3C0A114EC
:103CA000B10409F4D8C0D60116968C9116978823D2
:103CB00009F4C1C080915904882309F478C0129690
:103CC0002C91222329F460E070E080E293E018C098
:103CD000822F992787FD909597FF03C09095819536
:103CE0009F4F9C01442737FD4095542F60E070E0C2
:103CF00080E293E00E94F678C901DA01BC01CD01AF
:103D0000F60126811A141B040CF52F70422F50E087
:103D100041155105D9F1A4E6B0E04A9F90014B9FAF
:103D2000300D5A9F300D1124442737FD4095542FF4
:103D30000E94F67879018A01F40180819181A28143
:103D4000B381E80EF91E0A1F1B1F2BC022952F708E
:103D5000422F50E041155105C9F0A4E6B0E04A9F5A
:103D600090014B9F300D5A9F300D1124442737FD91
:103D70004095542F0E94F678F401E080F180028192
:103D80001381E21AF30A040B150B0BC02885398541
:103D9000C901AA2797FDA095BA2FEE24F82E092F66
:103DA0001A2FD401ED92FD920D931C931397F401F9
:103DB000608171818281938128853985790100270D
:103DC000F7FC0095102F1A141B0464F420E031E076
:103DD00040E050E00E94F678E216F306040715076B
:103DE00064F01BC020E031E040E050E00E94F67833
:103DF0002E153F054007510784F448855985CA01AF
:103E0000AA2797FDA095BA2FBA2FA92F982F8827F8
:103E1000F40180839183A283B383D4016D917D915A
:103E20008D919C9120E031E040E050E00E94F678D6
:103E30003987288710C0E885F985CF01AA2797FD23
:103E4000A095BA2FBA2FA92F982F8827F401808325
:103E50009183A283B383D60114966C911497662341
:103E600041F08885998511964C910E943B0E998767
:103E70008887F601878180FD12C0E181EE2379F009
:103E8000E53068F4F0E0EE0FFF1FE75DF94F808149
:103E9000918128853985280F391F398728874885DA
:103EA0005985BA01882777FD8095982FD6011296FB
:103EB0002C91332727FD3095432F532F0E948E7866
:103EC0009B01AC01F60187818695877090E0813077
:103ED000910571F00081029709F046C00F71E02F43
:103EE000F0E0EE0FFF1FEE0FFF1FE15DF94F37C04F
:103EF000D6010C910F7110E0000F111F000F111F60
:103F0000015D194FCA01B90124E630E040E050E0FC
:103F10000E94F678CA01B901F801208131814281FD
:103F200053810E948E78D8016D937D938D939C93DD
:103F30001397F60100810F7110E0000F111F000FA1
:103F4000111F015D194FD8016D917D918D919C914B
:103F500020E034E040E050E00E94F678F801208351
:103F600031834283538315C00F71E02FF0E0EE0FD1
:103F7000FF1FEE0FFF1FE15DF94F80819181A2814C
:103F8000B381820F931FA41FB51F80839183A283E7
:103F9000B383FD81FF5FFD830894411C511C24E025
:103FA00030E0820E931E42E050E0640E751EF03247
:103FB00009F03FCD46CDA981BA818D909D90AD90FD
:103FC000BC90C501B40124E630E040E050E00E941E
:103FD000F678E981FA812083318342835383F101AA
:103FE000E553F84FC90120839183D20113962D9197
:103FF0003C91149711968C911197FAE08F02F00181
:104000001124E851FC4FF987E8878C914AE084023B
:104010003001112488E19CEF680E791ECF015E2FDC
:10402000492F2E173F071CF4C901522F492F852F06
:10403000942F8C01061517050CF48301811491044B
:10404000A104B10479F19801442737FD4095542F1C
:10405000181419041A041B0464F4A885B985BD0159
:10406000882777FD8095982F621B730B840B950B27
:104070000BC0C301AA2797FDA095BA2F281B390BA7
:104080004A0B5B0BCA01B901A50194010E948E780D
:1040900020EA36E841E050E00E94F678C901DA01F2
:1040A0004C015D01C80155E0959587955A95E1F75A
:1040B000800F911F9801232F330F330B2595820F0B
:1040C000931F000F012F001F110B801B910B6C0120
:1040D000EE24D7FCE094FE2C8885998525E0959503
:1040E00087952A95E1F7E885F9858E0F9F1FA30133
:1040F00005E0559547950A95E1F7B301660F672FDF
:10410000661F770B460D571D9F01232F330F330B6F
:104110002595820F931FEE0FEF2FEE1FFF0B8E1BC7
:104120009F0B8C01222717FD2095322FC80CD91C1C
:10413000EA1CFB1C0C151D052E053F0514F4680137
:104140007901CB019595879595958795480F591FCE
:10415000461B570BCA01AA2797FDA095BA2F8701C6
:104160007601E816F9060A071B0714F47C018D0195
:10417000D20112968C91882341F010950095F0940D
:10418000E094E11CF11C011D111DEB81FC8180817B
:10419000882381F060E00E94EB13882359F0AB8103
:1041A000BC8111968C910E944B0D7C010027F7FC7D
:1041B0000095102FEE81FF81E20DF31DF182E08268
:1041C000E981FA813496FA83E98322E030E0220E15
:1041D000331E45E050E0440E551E8B819C810296B3
:1041E0009C838B83E357F64009F0E5CE29960FB602
:1041F000F894DEBF0FBECDBFCF91DF911F910F911D
:10420000FF90EF90DF90CF90BF90AF909F908F90F6
:104210007F906F905F904F903F902F900895CF9236
:10422000DF92EF92FF920F931F93DF93CF93CDB75F
:10423000DEB7A0970FB6F894DEBF0FBECDBF81E00A
:10424000809349040E942B18682F8E010F5F1F4F27
:10425000C8010E94331C10924904F801AEE9B2E093
:104260009E012F5D3F4F808191814CEF88319407F3
:104270001CF488E19CEF06C043E0883E940714F0EC
:1042800088EE93E011969C938E9332961596E217E2
:10429000F30749F700E010E042E0C42ED12CE02EF5
:1042A00080915E0190E0817090709601281B390B1F
:1042B0002017310791F0FF248F2D6E2D0E940C0FD7
:1042C000855F914034F48F2D6E2D40E050E00E94C8
:1042D0008B10F39445E0F41679F70F5F1F4F04300D
:1042E0001105E9F682E00E94365D809150048093CA
:1042F0004E0482E380930001A0960FB6F894DEBFCF
:104300000FBECDBFCF91DF911F910F91FF90EF9026
:10431000DF90CF9008952F923F924F925F926F92CD
:104320007F928F929F92AF92BF92CF92DF92EF9245
:10433000FF920F931F93DF93CF93CDB7DEB7C55690
:10434000D0400FB6F894DEBF0FBECDBFF8942091D9
:10435000800D3091810D789440E080918307909199
:1043600084072817390709F041E040935904F8946D
:104370008091800D9091810D789490938407809323
:1043800083070E942B18A2968FAFA297E0910A0193
:10439000E81709F474C0EF3F59F4E82FF0E0EE0F8E
:1043A000FF1FE758F84F8FEF9FEF9183808362C024
:1043B0002E2F30E08DE090E0289FF001299FF00D36
:1043C000389FF00D1124E250FC4F808182958F7050
:1043D00040917807882349F081E090E002C0880F7F
:1043E000991F2A95E2F7482B10C0F901EE0FFF1F25
:1043F000E758F84F1182108281E090E002C0880FE8
:10440000991F2A95E2F78095482340937807A29652
:104410004FADA297242F30E08DE090E0289FF0016F
:10442000299FF00D389FF00D1124E250FC4F808140
:104430008F7040917807882349F081E090E002C0B6
:10444000880F991F2A95E2F7482B12C0F901EE0F49
:10445000FF1FE758F84F8FEF9FEF9183808381E034
:1044600090E002C0880F991F2A95E2F780954823B3
:1044700040937807A2965FADA29750930A0180916E
:104480007807882309F48EC0FE01B19680E4DF012D
:104490001D928A95E9F749E7242E47E0342E8824B7
:1044A0009924540166247724A396EFAFA397A4968A
:1044B000FFAFA497FE01EF59FF4FA696FFAFEEAFF7
:1044C000A6978091780790E0062C02C09595879575
:1044D0000A94E2F780FF3CC0CE010196662D0E944F
:1044E000331CD1018D919C916C01EE24FF24A39685
:1044F0008FADA397A4969FADA4978C012E0108942D
:10450000411C511CF201219131912F01442737FDAB
:104510004095542FC701B6010E948E78D8012D9185
:104520003D914D915C91260F371F481F591FF8018F
:1045300021933193419351938F01A6964EAD5FAD78
:10454000A697E417F507F1F68C0C9D1CAE1CBF1C5A
:104550000894611C711C82E090E0280E391E95E0E1
:104560006916710409F0ADCF8E010F5D1F4F7E01FA
:104570000894E11CF11C31E6C32ED12CCC0EDD1EBB
:10458000D8016D917D918D919D918D01A501940131
:104590000E94F678F701219331937F010C151D05D8
:1045A00079F707C0CE010196A2966FADA2970E943F
:1045B000331C20E030E0AE014F5F5F4FF894F9010B
:1045C000E151F84FDA01A20FB31F8D919C919183B5
:1045D000808378942E5F3F4F2032310579F78091A8
:1045E000550D882381F480918108882329F089E77B
:1045F00098E00E94FF6307C080918C08882319F01F
:1046000080E00E943C5D80915904882309F425C212
:1046100040917807442309F473C029E7E22E27E08C
:10462000F22E00E010E09DE0892E912C81E0A82E72
:10463000B12C66246A94762C842F90E0002E02C060
:10464000959587950A94E2F780FF4EC0D701CD90EB
:10465000DC90A296BFADA297B01709F5089DF001B6
:10466000099DF00D189DF00D1124E250FC4F608162
:104670006F708FE892E070E00E94AD789B01C601F8
:10468000809590956817790730F42C0D3D1DF70142
:104690003183208329C0D7016D927C921DC0089D73
:1046A000F001099DF00D189DF00D1124E250FC4F12
:1046B000608162956F708FE892E070E00E94AD7843
:1046C0006C157D0530F4C61AD70AF701D182C08275
:1046D0000BC0D7011D921C92C501002E02C0880F8D
:1046E000991F0A94E2F7481B0F5F1F4FE2E0F0E0CA
:1046F000EE0EFF1E0530110509F09ECF409378079E
:1047000080916E048823A1F090916F04892F8F5FB0
:1047100080936F04843660F0935690936F04809179
:1047200070049091710401969093710480937004C9
:104730000E947E168091ED07882319F081508093A6
:10474000ED0780915F01882309F469C080915804C6
:10475000823308F464C08091730690917406A0912E
:104760007506B09176060196A11DB11D8093730662
:1047700090937406A0937506B093760600E010E05F
:10478000FF248F2D0E944F0FB6E096958795BA951E
:10479000E1F7080F191FF394F4E0FF1691F78091E9
:1047A0007706909178060817190761F0109378063C
:1047B0000093770610927306109274061092750695
:1047C00010927606E0907306F090740600917506DC
:1047D0001091760660915F0170E080E090E020E744
:1047E00037E140E050E00E948E786E157F0580072B
:1047F0009107A8F48FE390E0A0E0B0E0E822F9226E
:104800000A231B239AE0E916F1040105110539F486
:104810008091520480934E0482E380930001809142
:104820007204882319F08150809372040E945F6E95
:104830000E94BA6E0E944418182F80915A049091D9
:104840005B04009729F0019790935B0480935A04CE
:10485000112389F08091620190E024EF31E0DC01C6
:10486000A29FC001A39F900DB29F900D1124909321
:104870005B0480935A0480914B0160E00E94EB132B
:10488000882339F480915A0490915B04892B09F4B0
:10489000E2C0C79A80915F04909160042091C9079B
:1048A0003091CA07821B930B60E270E00E94C178CE
:1048B0007093100860930F086115710591F0809155
:1048C000760790917707821B930B62E070E00E945D
:1048D000C1787093100860930F08309360042093A0
:1048E0005F048091C9079091CA07909377078093DE
:1048F0007607E0912008F0E0EE0FFF1FEE5EF74F25
:104900000190F081E02D812F09950E94BE6C80916D
:10491000630081FF04C0809165008F7E03C0809199
:104920006500806180936500F8948091800D90917E
:10493000810D78948F7190708230910521F00397EA
:1049400009F08BC071C08091560490915704892B57
:1049500039F487E00E944F0F9093570480935604D8
:1049600080915604909157048C01E3E0000F111FD1
:10497000EA95E1F7081B190B87E00E944F0F800FA3
:10498000911F73E0969587957A95E1F77C0100E099
:1049900010E0909357048093560420914A013327E6
:1049A00027FD3095432F532FC801B7010E948E7801
:1049B00028E030E040E050E00E94F67864E0EE0C41
:1049C000FF1C001F111F6A95D1F7E20EF31E041F92
:1049D000151F209154043091550440E050E0C80167
:1049E000B7010E94F6782093580480917507805E85
:1049F00080937507882389F580914901281768F508
:104A0000223358F18091530480934E0482E38093C3
:104A100000018091600183FF20C082E390E09093C9
:104A20005B0480935A0419C080915D018695869538
:104A30008695877090E0BC01660F771F660F771F21
:104A4000680F791F605C7A4F8FE494E045E050E096
:104A50000E94117902C0C7981DCFCB59DF4F0FB606
:104A6000F894DEBF0FBECDBFCF91DF911F910F91A4
:104A7000FF90EF90DF90CF90BF90AF909F908F907E
:104A80007F906F905F904F903F902F9008951F936D
:104A9000CF93DF939FEF9ABB1BBA81E887BB8EE76A
:104AA00088BB8EE384BB81EC85BB11BA92BB88E0E6
:104AB00082B987EF83B9109261001092620080E1A1
:104AC00080936400909365000E94806C80E487B9B5
:104AD00085E886B987E083BF82E081BF87B78360BE
:104AE00087BF8AE08EBD82E880938A0080917D0036
:104AF000806280937D00EDB7FEB7329785E502C0F6
:104B0000808331974EE0E630F40709F0C8F782E081
:104B100095E5909313088093120883E699E49093A7
:104B200015088093140889E10E94B46C78940E945F
:104B30006F7378940E940C621091470104B603FCD5
:104B40000CC00E94A6170E940B170E94A70F0E947C
:104B500056170E941A170E94FF160E94FD110E940C
:104B60002B18682F8FEE97E00E94331C809148012C
:104B70000E94B46C8091620190E024EF31E0AC01BE
:104B8000429FC001439F900D529F900D112490931E
:104B90005B0480935A0480914701181719F081E053
:104BA0000E94365D0E94582887B7806187BF2DE03C
:104BB00088E190E00FB6F894A89581BD0FBE21BDA5
:104BC0000E94F60FEC01E0916101F0E0EE0FFF1F93
:104BD000EF5FFE4F0190F081E02D09950E94BB0F21
:104BE0000E948B2180916E07833019F4A895109252
:104BF0006E070E94F60F20914304309144048C1BF1
:104C00009D0B8217930708F4C90190934404809385
:104C10004304D6CF9C01E0912008F0E0EE0FFF1F87
:104C2000EE5EF74F318320838FEBF9010995809178
:104C30004F0480934E0482E38093000108956F92A5
:104C40007F928F929F92AF92BF92DF92EF92FF92EC
:104C50000F931F93CF93DF938091750185FD04C05F
:104C6000A12C14E0B12E03C0A12CB5E0BB2EE09125
:104C70007401E595E595E595E595EE0FE85F909172
:104C8000760184E69802C0011124A8E5EA2EA2E08C
:104C9000FA2EE80EF91EEA3028F448EC5FEA4E19C5
:104CA0005F090DC08853904F2E2F30E0829FA001E6
:104CB000839F500D929F500D1124405C504ECFEEBB
:104CC000D7E0AFEEB4E06E2F70E0660F771F6C0F89
:104CD0007D1F882499248A189B08662477246E18DF
:104CE0007F0808E512E00E191F0923C028813981C9
:104CF000C501DA2CF92F2A153B051CF4C901D22E67
:104D0000F92F8D2D9F2F881599050CF4C401805A19
:104D1000964F9301281B390B420F531F1196FC929B
:104D2000EE92800F911F13969C938E93129722966A
:104D30001496C617D707D1F6EE0FAE2FB0E0AA0F24
:104D4000BB1FA151BB4FED92FC92EF5FAE2FB0E0C5
:104D5000AA0FBB1FA151BB4F4D935C93EF5FF0E0D7
:104D6000EE0FFF1FE151FB4F11821082DF91CF91B7
:104D70001F910F91FF90EF90DF90BF90AF909F90A9
:104D80008F907F906F900895A0912308B091240890
:104D9000FD018193919313967C936E9312973296B3
:104DA000F0932408E09323080895882329F060E60F
:104DB00079E080E699E004C060EB74E080EB94E079
:104DC0000E94C42608951F93182F82700E94D52632
:104DD000812F81700E94D5261F910895EF92FF9236
:104DE0000F931F93CF93DF9380917401877090E0AE
:104DF0008130910519F0029719F404C010E003C046
:104E000011E001C012E02091EF073091F00720502F
:104E10003C4F220F331F8091F1079091F207805091
:104E20009C4F880F991F892F232F37FD20E087FD86
:104E300080E0022F20310CF00FE0F82E8FE08F156C
:104E400014F44FE0F42E2F2D332727FD3095802FBB
:104E5000992787FD909509968217930714F40F2DD3
:104E60000950C02FDD27C7FDD095275F3F4F2C1776
:104E70003D071CF437EFF32EF00E8FEE94E0909385
:104E800024088093230880E797E160EB74E00E9498
:104E9000C42680E00E94E32680E699E060EB74E09F
:104EA0000E94C42680E699E060EB74E00E94C4266C
:104EB000812F0E94E3261195CE01959587959595B2
:104EC0008795E82E0E94E3261E19802F0E94E32674
:104ED000101B8F2D992787FD909595958795959512
:104EE0008795082F0E94E326101B8F2D0E94E32632
:104EF000812F8F190E94E32680E00E94D5268091A1
:104F00002308909124080297909324088093230803
:104F100080E69AEE60E070E00E94C426DF91CF91B7
:104F20001F910F91FF90EF900895882329F080E260
:104F300093E060E476E004C080E496E060E273E031
:104F40000E94C42608950F931F93082F10E0802F0E
:104F500081700E9495271F5F06951830C1F71F9139
:104F60000F9108950F931F938FEE94E09093240870
:104F7000809323088091250891E089278093250854
:104F8000882309F44FC08091EF079091F007885F64
:104F90009B4F34E0969587953A95E1F780389105D7
:104FA00010F08FE790E0182F2091F1073091F20771
:104FB00037FD0FC0C901409625E0969587952A9543
:104FC000E1F78034910510F08FE390E0082F006442
:104FD0000FC080E190E0821B930B05E096958795CA
:104FE0000A95E1F78034910510F08FE390E0082FE7
:104FF000812F0E94A327802F0E94A3270127802FA3
:1050000090E09C01B4E035952795BA95E1F7A4E0CE
:10501000880F991FAA95E1F7822B0E94A32780E1B0
:1050200097E22BC08091F3079091F40780509C4F3A
:10503000F4E096958795FA95E1F78038910510F0A0
:105040008FE790E0082F0068802F0E94A3278EE84A
:105050000E94A3278EE8082710E0C801E4E0959598
:105060008795EA95E1F774E0000F111F7A95E1F753
:10507000802B0E94A32780EB96E360EA7FE00E94EA
:10508000C426E0912308F091240811921192F09324
:105090002408E0932308EF5EF440E03FF1052CF094
:1050A0008FE496E060E00E94B9161F910F91089579
:1050B00080917401877090E08430910534F48130E0
:1050C00091054CF4892B21F00895049749F406C00A
:1050D0000E941F2608950E94EE2608950E94B2277E
:1050E00008959C0190912008E92FF0E0E45EF74FCD
:1050F000809121088083E92FEF5FE0932008E5305D
:1051000040F09093200882E696E060E00E94B91695
:10511000089580914F0480934E0482E380930001B0
:10512000F0E0EE0FFF1FEE5EF74F318320838FEB31
:10513000F90109950895E0912008EE23E9F0E15086
:10514000E093200880914F0480934E0482E3809383
:10515000000110922208F0E0DF01A45EB74F8C91AD
:1051600080932108EE0FFF1FEE5EF74F0190F08154
:10517000E02D8EEB0995089585E796E060E00E94AA
:10518000B91608958F929F92AF92BF92CF92DF92FD
:10519000EF92FF920F931F93CF93DF93182F7B0112
:1051A0004A015901C02E84FD04C074E0D72E05E0E9
:1051B00005C01F70106665E0D62E04E08D2D806658
:1051C000181761F08D2D8064181741F09091EC074D
:1051D000992379F0133611F0133459F4E70121962D
:1051E00080914F0480934E0487E380930001802FC9
:1051F0001AC0802F8066181761F0802F80641817FE
:1052000041F0992309F489C0123619F0123409F0DB
:1052100084C0E701219780914F0480934E048DE272
:10522000809300018D2D90E00E94566F882351F0ED
:10523000CC27DD27CE19DF09802F0E94DD6F8D2D51
:105240000E94DD6F8114910491F481E0A816B104ED
:1052500071F4103661F41092EC07C0E0D0E0E11474
:10526000F10411F4C1E0D0E080E60E94DD6F80918E
:105270000F0890911008C81BD90BAC16BD065CF442
:10528000812F0E94DD6F8091510480934E0487E34B
:1052900080930001E501C815D9055CF4812F0E94B7
:1052A000DD6F8091510480934E048DE28093000164
:1052B000E401CE15DF0509F1209791F4812F0E94BA
:1052C000CE6FF7FE06C08091510480934E0487E3B1
:1052D00005C08091510480934E048DE280930001BB
:1052E0008C2D83700E94365DEC16FD0614F08FEF56
:1052F00001C081E08093110802C010921108CE0114
:10530000DF91CF911F910F91FF90EF90DF90CF90A1
:10531000BF90AF909F908F900895E70193CF0F9328
:10532000772767FD7095552747FD5095332727FD53
:10533000309501E00E94C2280F9108950F937727BE
:1053400067FD7095552747FD5095332727FD30950C
:1053500002E00E94C2280F910895FF920F931F93BD
:10536000F82E162F042F80E860E0412F50E0202F08
:105370000E943D6B1A3010F485E701C08FE660E0B3
:105380004FE2202F0E9424681A3010F485E701C0F4
:105390008FE64F2D50E04F5F5F4F60E0202F0E945F
:1053A0003D6B1F910F91FF900895CF92DF92EF9286
:1053B000FF920F931F93CF93DF93F82ED62EEA011F
:1053C0004115510511F429E75CC08091210888231B
:1053D00009F03EC08091EE07882309F039C084E6C9
:1053E000F816F9F0E5E6FE1611F042E032C0662349
:1053F00061F081E090E0861B9109880F991FFA0106
:10540000E81BF90B859194911BC081E090E0821B11
:105410009109880F991FFA01E81BF90B8591949166
:105420000FC070E0822F90E001976817790764F44D
:10543000FB013196EE0FFF1FE40FF51F859194914C
:105440000E940A2680E043C1FA0185919491F8CF29
:1054500040E01092EE078D2D622F0E94AD29209121
:10546000500D2E508D2D90E0019666EF7FEF0E943B
:10547000C178CB01880F991F880F991F860F971F3E
:10548000280F89E798E0622F0E94A162011511059B
:1054900011F490E00AC0809121089E2D8E1508F429
:1054A000982FF801E90FF11D9491F0E6FF16C1F174
:1054B000FF15B8F083E4F81609F4B9C08F1540F071
:1054C000E1E2FE16E1F1F2E4FF1609F0E0C084C06B
:1054D00084E4F81609F452C0E5E4FE1609F0D7C0DA
:1054E00063C0F4E6FF1609F44EC0FF1548F082E6EB
:1054F000F81609F476C0E3E6FE1609F0C8C09BC0B2
:10550000F1E8FF16C9F08FEBF81629F0E5E6FE1674
:1055100009F0BDC04EC0109222081092210813C09D
:10552000992309F4B4C090E08091EC07882309F432
:1055300091E09093EC07ABC01092EC070DC0809106
:10554000EC07882319F01092EC07A1C08091210884
:10555000882311F0209719F40E949B2898C080910D
:105560004F0480934E0482E380930001109222083E
:105570001092210880E68093820D8DC080912208D0
:10558000891709F484C0012B09F481C08091EC07CC
:10559000882309F07CC080912208891710F48F5F5E
:1055A00015C01092220870C080912208882309F447
:1055B0006EC0012B09F46BC08091EC07882309F0C1
:1055C00066C080912208882321F0815080932208B0
:1055D0005BC09093220858C0809121088C1509F473
:1055E00056C08091EC07882309F051C080912108B2
:1055F0008C1510F080E001C08F5F0115110509F4D2
:105600006FC0982FE81608F49E2DF801E90FF11DE0
:10561000E491EF3F09F064C0EBCF809121088E1533
:1056200008F4E82E0E0D111DF801049128C0809198
:105630002108882361F18091EC07882341F580914E
:105640002108882311F48C2D01C08150011511050A
:1056500009F44FC0982FE81608F49E2DF801E90FC1
:10566000F11DE491EF3F09F044C0EBCF8091210898
:105670008E1508F4E82E0E0D111DF80104919017F7
:1056800008F4092F0093220880E68093820DCD2B29
:1056900011F456E001C057E040912108442319F469
:1056A0001092EB0713C0242F30E08091EB07281BEA
:1056B0003109852F90E08217930714F4451B04C02D
:1056C000121613061CF041504093EB0781E0DF9166
:1056D000CF911F910F91FF90EF90DF90CF900895A1
:1056E00080932108909122080115110509F095CFAA
:1056F00008C080932108909122080115110509F036
:10570000B5CF00E0BFCFCF92EF920F931F93C02E83
:1057100000E010E0EE240E94D5291F910F91EF9038
:10572000CF9008950F93062F60E040E050E020E016
:105730000E94832B0F9108950F93942F222311F42D
:1057400000E001C002E043E0949FA001112447570C
:10575000594F23E00E94E46C0F9108950F93942F0A
:10576000222311F400E001C002E043E0949FA00175
:1057700011244057594F23E00E94E46C0F91089583
:10578000DC01FB0105C09C9180818D939193415078
:105790004423C9F70895CF92DF92EF92FF920F93BF
:1057A0001F93CF93DF93182F80E060E047E157E02D
:1057B00022E00E94DF68812F6BE047E956E02CE091
:1057C00008E00E94832B882309F468C0F090210828
:1057D000FA941038C1F480E80E94DD6F89E180936B
:1057E000ED0786E08F1518F08F2D0E94937487E0E7
:1057F000F81611F40E9422748091500480934E0494
:1058000082E38093000118E0EE24CF2CDD24C7FC56
:10581000D0944091EB074E0D473019F4193370F1D5
:105820003DC0C42FD0E0CC16DD0611F020E101C050
:1058300022E1AE014F5F5F4F82E1612F02E00E94E3
:105840003C6A8091ED07882319F4CC16DD0609F037
:1058500000E0AE01440F551F4C0F5D1F440F551F54
:10586000440F551F4E53594F88E1612F2CE00E9481
:10587000E46C185FE394103461F610C08091ED077A
:10588000882329F487E0F81611F422E001C020E013
:1058900086E0612F4FEA56E00E94DF68DF91CF91EA
:1058A0001F910F91FF90EF90DF90CF9008952F926E
:1058B0003F924F925F926F927F928F929F92AF92A0
:1058C000BF92CF92DF92EF92FF920F931F93DF93DD
:1058D000CF93CDB7DEB760970FB6F894DEBF0FBE9B
:1058E000CDBF8D8780E060E044E657E022E00E9473
:1058F000DF688D856AE047E956E02CE00EE617E0A8
:105900009BE0E92EBCE0CB2E0E94D529882309F428
:10591000B4C3109121082D85203669F0213630F46A
:10592000822F8252843008F091C085C03D85303886
:1059300009F08CC045C0133001F5809133042091EB
:105940003404922F9F708C599F4F9F7064E670E0D3
:105950000E94C17884E690E0AC01649FC001659F1D
:10596000900D749F900D112480933304892F8F70B4
:10597000207F282B209334045AC0193009F066C0C8
:1059800080913A0420913B04922F9F708C599F4F35
:105990009F7064E670E00E94C17884E690E0DC01CC
:1059A0006A9FC0016B9F900D7A9F900D1124809388
:1059B0003A04892F8F70207F282B20933B0437C017
:1059C000133011F4E0E004C0193009F03FC0E1E009
:1059D0004E2F50E0FA01A3E0EE0FFF1FAA95E1F76A
:1059E000E41BF50BED5CFB4F20818181382F3F706C
:1059F000B2E024393B0718F484E992E008C0285249
:105A0000354018F080E090E002C088E295E0FA01AD
:105A100073E0EE0FFF1F7A95E1F7E41BF50BED5CE9
:105A2000FB4F80839F708181807F892B818382E0FF
:105A30000E94365D0BC08091EC07882339F014304A
:105A400029F01A3019F084E08093F00D8091EC0772
:105A5000882319F4F2E0FA8302C021E02A8368E384
:105A6000462E64E0562E46EA5DE058874F83188A3A
:105A70001F8684E090E09C878B87A3E0B0E0BA8724
:105A8000A987E2E0F0E0FE83ED8321E030E03C8393
:105A90002B83612E772467FC70943A81306E3E87A9
:105AA0008091EB074B818417C8F40B811C81081B84
:105AB000110953E0000F111F5A95E1F780E0602FA4
:105AC00049E557E020E00E94DF684F8558894F5F25
:105AD0005F4F8CE0602F20E00E943D6B8091EB07D0
