:100000000C94670D0C94880D0C94880D0C94481179
:100010000C945E110C94880D0C9474110C948A113C
:100020000C94880D0C94880D0C94880D0C94880DFC
:100030000C94880D0C94E6120C94880D0C94A91065
:100040000C94880D0C94E1110C94880D0C94880D7F
:100050000C94880D0C94880D0C94880D0C94880DCC
:100060000C94880D0C9476AC0C9400AB0C94880D19
:100070000C94880D0C94880D0C948E730C94C910FC
:100080000C94880D0C94880D0C94880D0C94880D9C
:100090000C94880D0C94880D0C94880D0C94880D8C
:1000A0000C94880D0C94880D0C94880D0C94880D7C
:1000B0000C94880D0C94880D0C94880D0C94880D6C
:1000C0000C94880D0C94880D0C94880D0C94880D5C
:1000D0000C94880D0C94880D0C94880D0C94880D4C
:1000E0000C94880D8040000000000000000000001B
:1000F0000000000000F008040484444444444444E4
:10010000444444444444444444C4040488700000C7
:100110000000000000000000000000000404FC04D7
:100120000400E050506000FE00E050506000F0100D
:1001300010E01010E000E050506000FC1000F020D3
:10014000100010E000E0100000000018242424C477
:1001500000E050506000F0201000F400E0505060CB
:10016000003050900000000000000000000080807F
:100170008080808080BF808080BF80808080000001
:1001800030484848484848484888090908F000006D
:10019000000000000000000000000000000001005E
:1001A000000000010101000100000101010081F0D7
:1001B0001819F080010000010121202021202120B8
:1001C000202020242320202020202021E121212064
:1001D0002020212121202120202021202021212117
:1001E0002081C1010000000000F8FEFFFFFF0F07A3
:1001F000070707070737478787879797075FDFDF77
:10020000DFDED88010101010100F0080403F80C03B
:10021000E0E0E060200000000000000000000000BE
:10022000000000007058484C4C474744464243FF8A
:100230000000FF4342464447474C4C48587000007A
:100240000000000000E0B0180C0406878FBFEEFE2F
:10025000F67E3C1C0C0C0C0C0C0C0C0C0C0C0C0C42
:100260000E1F396080000000000107070F0F0F0EFE
:100270001E1E1E1E1E1E0E0E0E0E0E8ECEEEFCF945
:1002800073270F1F3F7EFCF9F1F1F9FC3E1F0F07AA
:10029000030100000000000000000000000000005A
:1002A0000000000000008080000000008080407F8F
:1002B00000007F40808000000000008080C0C040BF
:1002C000C0C0808810101D171111131313131117BC
:1002D0001D10101000000000000000C00000000011
:1002E00000000000000000000000000000040C1CE2
:1002F0001C1C1C1C1E1E1E0E0E0F07070303018074
:10030000C0E0F0F87C3E1F0F07070F1F3F7EFCF890
:10031000F0E0C080000000000C7CF88080F87C0CCD
:1003200000E0F0DCCEC3FFFFC0C000030202020207
:10033000040402020202C14040FC3F7BB1E0AEA8CF
:10034000EAEEA17B7FFC4040C000000000000000FE
:100350000000000080C0E0F0F8FCFFFF0000FEF8A5
:10036000C0000000000000000000000000000000CD
:100370000000000000000000000000000C0E0F0F45
:100380000F07030100000000000000000000000152
:1003900003070F0F0F0E0C000000030F0F030000E8
:1003A0000000000000000F0F00000000000000002F
:1003B0000000000000000F3838FF9580B282FAAAD2
:1003C000FA82F29095FF38380F000000000080108C
:1003D000B074F67777F777F777F777F774F677F7FC
:1003E00077F634B0100000000000000000000000AC
:1003F00000000000000000000000000000000000FD
:100400000000000000000000000000E0000000000C
:10041000E0000000000000000000000000000000FC
:1004200000000000000000000000000000000000CC
:10043000000000000030282C242F3F3607361F0E06
:100440001F3607363F2F242C283000000000000103
:1004500000C1C0414140C1C0414041C0C140C1C1D3
:10046000C1C041C0C1000000007F11110E000E117B
:10047000110E0007180C030E1807000E15151600B4
:100480001F02010E151516000E11111F00000000AD
:100490001F11110E00014E300E01000000000E1160
:1004A000110E007F11110E000E151516001F01010F
:1004B0001E00000000131519000E11110E000F1080
:1004C000101F001F02010E1111000E15151600005D
:1004D000003F302F2F2B323F203B3B3C3F202F2F24
:1004E0003F262B2C3F000052554420454C452054BC
:1004F00048522041494C20525544205448522045EE
:100500004C452041494C2041494C20454C45205404
:100510004852205255442041494C205448522045CD
:100520004C452052554420000102030401020403FB
:100530000103020401030402010402030104030293
:100540000201030402010403020301040203040183
:100550000204010302040301030102040301040273
:100560000302010403020401030401020304020163
:100570000401020304010302040201030402030153
:100580000403010204030201010203040103020443
:10059000040203010403020100000000000001083E
:1005A0001E640101081E6401010F32960A0A1E3200
:1005B00096030102000405060770726573732061DB
:1005C0006E79204B657900414C455254004D45539E
:1005D0005341474500506C656173652072657365D2
:1005E00074207468656D005377697463686573205F
:1005F0006E6F74206F666600416C61726D7320448B
:10060000697361626C656400526573657420746817
:10061000726F74746C65005468726F74746C6520CA
:100620006E6F742069646C6500507265737320612D
:100630006E79206B657920746F20736B697000414F
:100640004C45525400454550524F4D206C6F772019
:100650006D656D005F2D2E2C00564552533A205685
:10066000312E322D67727576696E00444154453AD9
:1006700020323031312D31322D31330054494D4546
:100680003A2031343A30323A3437002053564E3A19
:10069000206672736B792D72313333310020424CF6
:1006A000443A203238300070756C73652074616292
:1006B000206F766572666C6F77006D656E7553742A
:1006C00061636B206F766572666C6F77006D656E27
:1006D00075537461636B20756E646572666C6F77B9
:1006E000002D2D2D494E56004F46464F4E2000FE00
:1006F0004B394857459B4296429D36EE35463490DD
:1007000033F132F22E682E434C454152204D495868
:100710004553205B4D454E555D0053696D706C65CA
:1007200020342D434820542D437574202020202050
:100730002020562D5461696C202020202020456CFB
:1007400065766F6E5C44656C7461654343504D2003
:1007500020202020202048656C6920536574757026
:100760002020536572766F205465737420200054E6
:10077000454D504C41544553003C3E002D2D2D59C4
:10078000656C4F726752656400416C61726D0074F4
:100790006F00472E4261720063616C004D617856B4
:1007A00000566F6C74737261772020005479706505
:1007B000004120206368616E6E656C0054454C45B5
:1007C0004D455452590000FF0000010202FF010094
:1007D0000102534146455459205357495443484513
:1007E000530000012D2D2D2D202020202020202001
:1007F0002020547261696E65722020202020202004
:10080000547261696E6572205255442020205472E2
:1008100061696E657220454C4520202054726169E3
:100820006E657220544852202020547261696E65B2
:10083000722041494C202020496E7374616E7420EF
:100840005472696D20205472696D73324F666673FD
:10085000657473200046554E43205357495443480E
:1008600045530000012D2D2D2D202020763E6F6652
:10087000732020763C6F667320207C767C3E6F660A
:10088000737C767C3C6F6673414E44202020204F61
:10089000522020202020584F522020202076313D09
:1008A0003D7632207631213D76322076313E7632E9
:1008B000202076313C7632202076313E3D76322043
:1008C00076313C3D76322000535700435553544F08
:1008D0004D205357495443484553000002435600A6
:1008E000435552564553002D2D2D494E5600434F2A
:1008F0005059205452494D205B4D454E555D004C9A
:10090000494D495453000003030303030303030346
:10091000030303030303032F3332002F3134004D4D
:10092000495845520044522F4558504F002B3D2AFC
:100930003D3A3D00536C6F772020557000536C6F2B
:10094000772020446F776E0044656C617920557084
:100950000044656C617920446F776E0041646420C7
:10096000202020204D756C7469706C795265706C14
:1009700061636520004D756C747078004F464600C9
:100980005761726E696E6700462E5068617365002C
:1009900053776974636800437572766573004F4ED0
:1009A000204F4646005472696D004F666673657449
:1009B0000057656967687400536F75726365004519
:1009C000444954204D49582000494E534552542023
:1009D0004D495820005765696768744578706F20E5
:1009E0002050686173652053777463682057686589
:1009F0006E20204375727665202020202020200064
:100A000044522F4558504F002D2D2D783E30783CC4
:100A100030004E6F2066726565206D6978657221C1
:100A2000004E6F2066726565206578706F21004505
:100A3000444954205052534554004D4F44450043BF
:100A40005552564500436865636B20202020205492
:100A500072696D73002864656661756C742900465F
:100A60004C4947485420504841534553004661641F
:100A700065204F7574004661646520496E005472AC
:100A8000696D7300537769746368004E616D65002A
:100A9000464C4947485420504841534500060003FE
:100AA000504F534E45470053686966742053656C38
:100AB000007553656300344348203643482038436B
:100AC000482031304348313243483134434831368D
:100AD00043480050504D20202053494C565F41530D
:100AE000494C565F4253494C565F43545241433040
:100AF000390050726F746F005245544131323300E7
:100B0000426565702043747200452E205472696DF1
:100B10007300452E204C696D697473004578702010
:100B20002020457846696E6546696E6520204D65D2
:100B30006469756D436F61727365005472696D20ED
:100B4000496E6300542D4578706F00542D547269BE
:100B50006D00436F756E7420446F776E436F756ED2
:100B60007420557020200054696D65722000547205
:100B700069676765720054696D6572004E616D65E5
:100B800000534554555000000901000000000000CA
:100B90000006024C6F6164696E67206D6F64656C5E
:100BA0002E2E2E004D6F76696E67206D6F64656C1A
:100BB0002E2E2E00436F7079696E67206D6F64650D
:100BC0006C2E2E2E0044454C455445204D4F444537
:100BD0004C0066726565004D4F44454C53454C00D2
:100BE0005B4D454E555D202020205B455849545DA6
:100BF000005B455849545D0012081200081C0808A3
:100C0000081C08000008220049002208000000001B
:100C100000227F2200000008220049002208000074
:100C200008220049002208000000227F2200000064
:100C30000000082200490022080000081C080808DB
:100C40001C08001B552A53BD517A51DD501250FC2F
:100C50004E205B4D454E555D205748454E20444F34
:100C60004E452000204D4F564520535449434B5389
:100C70002F504F54532000202020534554204D49DD
:100C800044504F494E5420202000205B4D454E5586
:100C90005D20544F20535441525420200043414C76
:100CA0004942524154494F4E004131413241334152
:100CB00034413541364137413800414E410054728C
:100CC000696D2D202B00204D656E75204578697467
:100CD00020446F776E202020557052696768742019
:100CE0004C656674004449414700454550524F4D9C
:100CF00020760056455253494F4E0043616C004DDB
:100D0000756C7469706C6965720063683163683210
:100D1000636833636834006F6666202B3D203A3D7C
:100D2000006D6F6465202020252073726300536C72
:100D300061766500545241494E455200000202025C
:100D40000200444154453A54494D453A0044415407
:100D50004520414E442054494D450000024D6F64EA
:100D600065005278204368616E6E656C204F726436
:100D7000004E4F204441544120416C61726D00414E
:100D80006C61726D205761726E696E67004D656DA2
:100D90006F7279205761726E696E6700446F776E6B
:100DA0004F464620557020200053776974636820B1
:100DB0005761726E696E67005468726F74746C6507
:100DC000205761726E696E670053706C61736820A2
:100DD00073637265656E004F4646004C69676874C0
:100DE000206F6666206166746572004C696768747E
:100DF0002073776974636800466C617368206F6E56
:100E00002062656570004265657020636F756E7461
:100E1000646F776E004D696E7574652062656570EC
:100E2000005468726F74746C6520726576657273B5
:100E3000650053494E474F534D5046494C54004668
:100E4000696C7465722041444300496E6163746942
:100E50007669747920616C61726D004261747465A9
:100E60007279207761726E696E6700436F6E74727B
:100E70006173740051756965744E6F4B65794E6F7F
:100E8000726D204C6F6E6720784C6F6E6700426504
:100E90006570657200524144494F20534554555086
:100EA000004E4F20444154410054783D0052783D5B
:100EB0000041203D007A3D00793D00783D004163CE
:100EC00063656C00416C743A00566F6C74733A0041
:100ED0004675656C3A0052504D3A004043005465E7
:100EE0006D70323A0040430054656D70313A0041F4
:100EF0006C743A005370643A004864673A0054785E
:100F00003D0052783D0041203D00204D41494E209A
:100F1000204750534F54484552005B4D454E555D58
:100F200020746F2072657365740046726565205386
:100F30007461636B206D696E202020206200743123
:100F4000306D732020202020202020202075730069
:100F5000746D61696E206D61782020202020206DE5
:100F60007300746D7231204A697474657220202098
:100F700020757300746D72314C6174206D696E2040
:100F8000202020757300746D72314C6174206D6186
:100F90007820202020757300535441543200544F60
:100FA00054005354250053544B0054535700544D90
:100FB00045005354415400454550524F4D20466F13
:100FC000726D617474696E6700426164204545709A
:100FD000726F6D204461746100454550524F4D2041
:100FE000436F6E76657274696E6700454570726F07
:100FF0006D204461746120457239780045457072F6
:101000006F6D204461746120763300454550524F26
:101010004D206F766572666C6F7700500850000047
:101020000000000000006F000007000700147F149C
:101030007F14242A7F2A122313086462364955221A
:10104000500005030000001C2241000041221C004A
:1010500014083E081408083E080800503000000834
:101060000808080800606000002010080402003E24
:1010700041413E0000427F400062514946004149E3
:101080004936001814127F0027454539003E49496A
:101090003200017905030036494936000649291E08
:1010A00000003636000000563600000814224114B5
:1010B00014141414412214080002015109060609EF
:1010C0000906007E0909097E7F494949363E4141AA
:1010D00041227F4141221C7F494949417F09090939
:1010E000013E4149497A7F0808087F00417F41005D
:1010F0002040413F017F081422417F404040407F13
:10110000020C027F7F0408107F3E4141413E7F096F
:101110000909063E4151215E7F09192946264949A0
:10112000493201017F01013F4040403F1F204020E4
:101130001F3F4030403F63140814630708700807DE
:101140006151494543007F414100020408102000DD
:1011500041417F0004020102044040404040000140
:1011600002040020545454787F484444383844449E
:101170004420384444487F3854545418087E0901A8
:10118000020C5252523E7F0804047800447D400015
:101190002040443D007F1028440000417F40007CF7
:1011A000041804787C0804047838444444387C14D7
:1011B000141408081414187C7C08040408485454B7
:1011C0005420043F4440203C4040207C1C204020D0
:1011D0001C3C4020403C44281028440C5050503CBB
:1011E0004464544C44000836410000007F00000075
:1011F000413608000808221C08081C220808A060C4
:10120000800000000000000000000000000000FE60
:10121000FE0000000000003E7E00007E3E000060F8
:1012200060FEFE6060FEFE606060F09898FEFE98D2
:101230009818180C1E1E0C80C0E070381878FC8EB0
:10124000C6E6763C180000000066763E1E000000F0
:10125000000000E0F0381C0E0600000000060E1C26
:1012600038F0E000006060C080F8F880C060608006
:10127000808080F8F88080808000000000000000FE
:10128000000000808080808080808080800000005E
:10129000000000000000000000000080C0E0703886
:1012A00018000000000000000000000000000071B5
:1012B00071000000000000000000000000000006B7
:1012C000067F7F06067F7F0606181819197F7F198B
:1012D000190F06181C0E070301307878301E3F7175
:1012E0006367663C3C66660000000000000000008A
:1012F000000000070F1C38706000000000607038AC
:101300001C0F070000060603011F1F01030606014C
:101310000101011F1F01010101000066763E1E0050
:101320000000000101010101010101010100003083
:1013300078783000000000181C0E07030100000040
:10134000000000F8FC0E06060EFCF80000181CFE5B
:10135000FE000000000000181C0E0686CEFC78007F
:10136000000606868686CEFC78000080C0E07038D5
:101370001CFEFE00007E7E666666E6C6860000F8FD
:10138000FC8E86868E1C180000060686C6E6763E13
:101390001E000078FCCE8686CEFC78000078FCCE5D
:1013A0008686CEFCF800003078783000000000001F
:1013B000003078783000000000000080C0E0703815
:1013C0001C0E0660606060606060606060060E1CFD
:1013D0003870E0C0800000181C0E06060686CEFCA1
:1013E0007800001F3F706060703F1F000060607FEA
:1013F0007F606000000000787C6E67636160600061
:10140000006060616161733F1E0000070706060609
:10141000067F7F00001838706060703F1F00001F5B
:101420003F716161733F1E000000007F7F0000007C
:101430000000001E3F736161733F1E0000000061E9
:1014400071391D0F0700000C1E1E0C00000000006B
:101450000066763E1E0000000000000103070E1C1F
:101460003870600606060606060606060660703830
:101470001C0E070301000000000000666703010066
:101480000078FCCE8686CEFC780000E0F0B89C8E1A
:101490008E9CB8F0E0FEFE8686868686CEFC78F8C6
:1014A000FC0E060606060E1C18FEFE0606060E1CA0
:1014B00038F0E0FEFE8686868686860606FEFE8676
:1014C00086868686860606F8FC0E068686868E9CAE
:1014D00098FEFE808080808080FEFE00000606FE72
:1014E000FE06060000000000000606FEFE0606FEE0
:1014F000FE80C0E070381C0E06FEFE0000000000FA
:10150000000000FEFE1C38F0F0381CFEFEFEFE70EF
:10151000E0C0800000FEFEF8FC0E060606060EFC8B
:10152000F8000001010101000000007F7F010101BE
:101530000101017F7F7F7F6161616161733F1E1FD8
:101540003F70606060607038187F7F6060607038E6
:101550001C0F077F7F61616161616160607F7F0156
:10156000010101010100001F3F7060616161717F35
:101570003F7F7F0101010101017F7F000060607FEB
:101580007F606000001838706060703F1F00007F4F
:101590007F0103070E1C3870607F7F6060606060B1
:1015A0006060607F7F0000010100007F7F7F7F001F
:1015B000000103070E7F7F1F3F7060606060703F17
:1015C0001FFEFE8686868686CEFC78F8FC0E060612
:1015D00006060EFCF8FEFE8686868686CEFC7878A9
:1015E000FCCE868686868E1C1806060606FEFE063D
:1015F000060606FEFE000000000000FEFEFEFE00E5
:101600000000000000FEFEFEFE000000000000FEE4
:10161000FE1E3E70E0C0C0E0703E1E7EFEC0800038
:101620000080C0FE7E0606060686C6E6763E1E00E2
:1016300000FEFE060606060000183870E0C08000B6
:10164000000000000006060606FEFE00006070387E
:101650001C0E0E1C3870600000000000000000002E
:10166000007F7F01010101010100001F3F706066E2
:101670006E3C387F677F7F0101070F1D397060184E
:10168000387161616161733F1E000000007F7F005F
:101690000000001F3F7060606060703F1F070F1CFC
:1016A000387070381C0F071F3F70703E3E70703FDF
:1016B0001F787C0E070303070E7C78000001037F70
:1016C0007F03010000787C6E67636160606060008A
:1016D000007F7F6060606000000000000001030781
:1016E0000E1C180000606060607F7F00000000003A
:1016F000000000000000006060606060606060608A
:10170000600000060E1C3870600000000060606021
:101710006060E0C080FEFE80C0E06060E0C080806D
:10172000C0E06060606060000080C0E06060E0C0B9
:1017300080FEFE80C0E060606060E0C0808080F875
:10174000FC8E86060E1C18E0F0381818181818F8C9
:10175000F8FEFE80C0E06060E0C08000006060E6EF
:10176000E600000000000000006060E6E60000FE09
:10177000FE000080C0E060000000000606FEFE00E3
:10178000000000E0E060E0C0C0E0E0C080E0E08099
:10179000C0E06060E0C08080C0E060606060E0C089
:1017A0008000000000000000000000183C7E66661B
:1017B0006666667F7F7F7F6161606060703F1F1F2C
:1017C0003F70606060607038181F3F7060606061DB
:1017D000617F7F1F3F766666666666070701017F49
:1017E0007F01010000000001036766666666763FC0
:1017F0001F7F7F0101000000007F7F000060607F8D
:101800007F606000001838706060703F1F00007FCC
:101810007F060F1F3970600000000060607F7F60EE
:101820006000007F7F0000070700007F7F7F7F014F
:1018300001000000007F7F1F3F7060606060703FAC
:101840001FE0E06060606060E0C08080C0E06060D9
:1018500060C080E0E0E0E080C0E06060E0C08080E8
:10186000C0E0606060606000006060FEFE6060007C
:10187000000000E0E0000000000000E0E0E0E00028
:101880000000000000E0E0E0E0000000000000E0F8
:10189000E060E0C080000080C0E060E0E0000000A8
:1018A000000000E0E0606060606060E0E0E0600038
:1018B0000080C0787C0E06000000000000FEFE00E4
:1018C0000000000000060E7C78C080000080808050
:1018D000801838F0E0C08080C0E0F0381880808048
:1018E000807F7F060606060607030101030706063A
:1018F0000607077F7F7F7F01010000000001016173
:101900006367666666667E3C1800001F3F70606015
:101910007038181F3F7060607038187F7F070F1C89
:10192000387070381C0F071F3F7070383870703F68
:101930001F6070391F0F0F1F3970600103676666E3
:101940006666763F1F6070787C6E676361606000DA
:101950000001031E3E70600000000000007F7F0059
:10196000000000000060703E1E0301000001010144
:1019700001181C0F0703010103070F1C18010101C7
:10198000014F4646414253525573525525454C73BB
:10199000454C25544873544825414C73414C2550BF
:1019A00031205031255032205032255033205033D1
:1019B000250063002D2D2D783E30783C307C787CDE
:1019C000663E30663C307C667C004650002D2D2DF6
:1019D00000544852525544454C45494430494431DD
:1019E00049443241494C47454154524E5357315373
:1019F000573253573353573453573553573653573A
:101A00003753573853573953574153574253574316
:101A1000004F4646004F4E20002D2D2D004D4F44C7
:101A2000454C005245544100414431414432004349
:101A3000480050504D00503120205032202050336B
:101A400020204D41582046554C4C43594331435971
:101A5000433243594333002D2D2D2D00010204083C
:101A6000102040808B1A971A9D1AA41AB11AB71A1F
:101A7000C21A9C1432465A5A4632465AECEC003C82
:101A8000649CC4003C649C0000006453696D706CED
:101A90006520342D434800542D43757400562D5451
:101AA00061696C00456C65766F6E5C44656C746151
:101AB00000654343504D0048656C6920536574755B
:101AC0007000536572766F205465737400001124A2
:101AD0001FBECFEFD1E2DEBFCDBF00E00CBF13E0F1
:101AE000A0E0B2E0E2E2F7E601E00BBF02C007903F
:101AF0000D92AA31B107D9F713E1AAE1B3E001C011
:101B00001D92AA30B107E1F70E947F270C948FB392
:101B10000C94000099E289029001112435952795D3
:101B20003595279587FD815C86FB880F880B80F9AA
:101B3000992787FD9095281B390BC901089580933B
:101B4000510688E893E170E00E94FDB267BD0895F8
:101B5000982F803201F181548A3110F48F5F0895FB
:101B6000892F81568A3120F4892F80958F590895C5
:101B7000892F80538A3010F4855E0895E4E5F6E0FD
:101B800080E02491291711F48B5D0895319622236A
:101B900011F08F5FF6CF80E00895E82F8823D9F009
:101BA00087FF07C0863E1CF080E68E1B0895E195F6
:101BB00004C08B3114F4805C0895E5321CF48E2F40
:101BC0008B5E0895E9323CF4FF27E7FDF095E15D77
:101BD000F94F8491089580E208959DE0899F9001D6
:101BE00011242A503A4FC9010895282F30E0220FBE
:101BF000331F220F331F21513B4FC901089599E034
:101C0000899F9001112421583C4FC901089595E006
:101C1000899F9001112421563B4FC90108959C01D1
:101C200040E0683008F041E070E0442371F0CB01FF
:101C30000897FC0163E0EE0FFF1F6A95E1F7E80FDC
:101C4000F91FDF01A15BBA4F0AC0FB01EE0FFF1FB6
:101C5000EE0FFF1FE60FF71FDF01A95DBA4FFD0171
:101C6000808120503C4F37FD0EC068E020303607A1
:101C700084F0442319F484E090E002C088E090E00E
:101C8000A80FB91F8C91992787FD9095582F44274D
:101C900033C0442331F0432FB9017070660F771FB2
:101CA00004C0432F4695B9017170842F90E0FD0167
:101CB000E80FF91F8181992787FD90959B01359544
:101CC0002795829FA001839F500D929F500D112454
:101CD0002081332727FD309580E092E0861B970B0B
:101CE00095958795BC01269FC001279F900D369F33
:101CF000900D1124480F591FCA0169E170E00E943C
:101D0000FDB2CB0108959C01633031F1643028F4B9
:101D1000613051F0623090F43CC0653039F165308B
:101D200008F1663061F525C0493029F497FD24C0DB
:101D3000205032400AC097FF2CC026C0493041F4E1
:101D40001816190624F120503E4F220F331F21C0D0
:101D500018161906CCF01DC097FF1BC030952195B1
:101D60003F4F17C01816190694F00EC097FF0CC00D
:101D700003C0181619065CF020E03CEF0AC067505B
:101D80000E940F0E9C0105C020E030E002C020E060
:101D900034E0C90108956F927F928F929F92AF9223
:101DA000BF92CF92DF92EF92FF920F931F933B016E
:101DB0007C0100E010E08824992464E670E080E073
:101DC00090E06619770988099909A80197010E948E
:101DD000BEB25B016C0182E390E0A0E0B0E0A80E2F
:101DE000B91ECA1EDB1EC801B7010E94BEB20E9406
:101DF000BEB2BC0188279927A40193010E94BEB2FC
:101E0000E4E09695879577956795EA95D1F7A60EC4
:101E1000B71EC81ED91EC601B50124E630E040E059
:101E200050E00E9410B3C9011F910F91FF90EF90F5
:101E3000DF90CF90BF90AF909F908F907F906F90EA
:101E40000895FF920F931F939C01AB0161157105DB
:101E500031F1FF2497FF05C0FF24F39430952195BD
:101E60003F4F57FF10C000E014E066277727641B40
:101E7000750BC801821B930B0E94CB0E9801281B87
:101E8000390BC90104C0C901BA010E94CB0EFF2061
:101E900011F49C0104C022273327281B390BC901E8
:101EA0001F910F91FF9008951F93162F0E94ED0D23
:101EB000FC01A12FB0E02481332727FD3095CD010F
:101EC000880F991F02C0359527958A95E2F72370F0
:101ED0003070AE0FBF1F8C91992787FD9095880FAA
:101EE000991F880F991F280F391FC9011F91089545
:101EF000FF920F931F93F82E162F00E0112391F0FD
:101F0000812F6F2D0E94540F21E0853F920754F0DE
:101F1000282F255F211708F02F5F0F5F122F053044
:101F200069F710E0812F1F910F91FF900895E1EB69
:101F3000F5E0E80FF11DE491F0E0EE0FFF1FE4572C
:101F4000F64F20813181C9010895ACE8B9E0ECE990
:101F5000F9E060E0862F806480937C0080917A00B5
:101F6000806480937A00208931898D919C911197AA
:101F700096958795820F931F8E7F11969C938E93D3
:101F800040815181240F351F36952795318B208B49
:101F900080917A0084FFFCCF80917A0080618093E9
:101FA0007A008091780090917900840F951F969522
:101FB0008795819391936F5F1296683059F60895D3
:101FC000ECE8F9E050E0852F806480937C0020E00D
:101FD00030E040E080917A00806480937A008091C4
:101FE0007A0084FFFCCF80917A00806180937A0030
:101FF0008091780090917900280F391F4F5F44300D
:1020000049F736952795219331935F5F5830D9F67C
:102010000895ECE8F9E020E0822F806480937C0052
:1020200080917A00806480937A0080917A0084FFA6
:10203000FCCF80917A00806180937A008091780053
:1020400090917900880F991F819391932F5F283089
:1020500019F7089580917B00877F80937B0083E44C
:1020600080937C0085E38A95F1F780917A00806403
:1020700080937A0080917A0084FFFCCF80917A006F
:10208000806180937A0060917800709179008091EE
:102090007A00806480937A0080917A0084FFFCCF7C
:1020A00080917A00806180937A002091780030914D
:1020B000790080917A00806480937A0080917A0020
:1020C00084FFFCCF80917A00806180937A004091F8
:1020D00078005091790080917A00806480937A0032
:1020E00080917A0084FFFCCF80917A008061809398
:1020F0007A008091780090917900260F371F240F85
:10210000351F280F391F220F331F30935806209395
:10211000570680917B00886080937B000895109221
:102120006E06109267061092660610926B06109269
:102130006A06109269061092680610926D06109257
:102140006C0608951092720610927406109273062F
:1021500008951F920F920FB60F9211248F938091C2
:1021600072098F5F809372098F910F900FBE0F904D
:102170001F901895409172092091B20080917209C8
:102180004817C1F7942F80E030E0282B392BC90184
:1021900008951F920F920FB60F920BB60F92112453
:1021A0002F933F934F935F936F937F938F939F935F
:1021B000AF93BF93CF93DF93EF93FF93C0919600BC
:1021C000D0919700809171008F7D809371007894F9
:1021D00080917509909176099E01281B390B3695DF
:1021E0002795C901815A9F408F5D9E4220F481E06E
:1021F000809370092EC040917009842F81508830DF
:1022000040F5C901815293408757954000F5E42F6E
:10221000F0E0EE0FFF1FE25AF64F2C5D3540809143
:102220006803992787FD90950A96BC01269FC001F7
:10223000279F900D369F900D11246AE070E00E9458
:10224000FDB2718360834F5F4093700902C01092AA
:102250007009D0937609C0937509F8948091710044
:10226000806280937100FF91EF91DF91CF91BF91D8
:10227000AF919F918F917F916F915F914F913F911E
:102280002F910F900BBE0F900FBE0F901F901895BF
:102290001F920F920FB60F9211248F9389B18C70F9
:1022A00011F08C3029F48091730981508093730967
:1022B0008F910F900FBE0F901F9018951F920F9245
:1022C0000FB60F9211248F9389B18C7011F08C305E
:1022D00029F4809173098F5F809373098F910F9018
:1022E0000FBE0F901F9018951F920F920FB60F926E
:1022F00011248F938CB1807611F0803629F480916F
:1023000074098F5F809374098F910F900FBE0F90A7
:102310001F9018951F920F920FB60F9211248F9352
:102320008CB1807611F0803629F480917409815047
:10233000809374098F910F900FBE0F901F90189586
:10234000EBE0F3E101C0319680818535E1F39F0137
:102350002A503341C9010895EF92FF920F931F93C2
:10236000062F7A010E94ED0DDC0110E0FC01E00F68
:10237000F11FC70195958795959587958083000FE7
:10238000111F83E090E0002E02C0880F991F0A946D
:10239000E2F7809514962C911497822393E0E9221A
:1023A000FF2402C0EE0CFF1C0A95E2F78E0D149676
:1023B0008C9382E00E9453621F910F91FF90EF90E7
:1023C00008951F920F920FB60F920BB60F92112421
:1023D0002F933F934F935F936F937F938F939F932D
:1023E000AF93BF93EF93FF9380E090918400992384
:1023F00019F48F5F8530C9F780914506292F98170A
:1024000008F4282F2093450620914606892F291786
:1024100008F4822F80934606E0910702F0910802AB
:1024200080819181909389008093880090938B00A4
:1024300080938A0080917809882331F080E380932B
:1024400080001092780906C080E28093800081E0CD
:10245000809378093296F0930802E093070232974E
:1024600082819381892BE1F482EF96E090930802B8
:102470008093070280917903829581708093780917
:10248000F89480916F008D7F80936F0078940E9404
:10249000F62AF89480916F00826080936F007894A0
:1024A00080917109816080937109FF91EF91BF91D3
:1024B000AF919F918F917F916F915F914F913F91DC
:1024C0002F910F900BBE0F900FBE0F901F9018957D
:1024D000DF93CF93CDB7DEB729970FB6F894DEBF61
:1024E0000FBECDBF8AE193E0BE016F5F7F4F0E94B8
:1024F000017D2B81332727FD3095432F532F7BE020
:10250000220F331F441F551F7A95D1F78C819927CD
:1025100087FD9095A92FB92FDC0199278827282BB3
:10252000392B4A2B5B2B8A81992787FD9095A92F00
:10253000B92FF5E0880F991FAA1FBB1FFA95D1F795
:10254000282B392B4A2B5B2B8981992787FD909566
:10255000A92FB92FB695A79597958795282B392B35
:102560004A2B5B2B8E81992787FD90958055904053
:10257000AA2797FDA095BA2F79E1880F991FAA1F66
:10258000BB1F7A95D1F7282B392B4A2B5B2B8D81DA
:10259000992787FD90950196AA2797FDA095BA2FB8
:1025A00065E1880F991FAA1FBB1F6A95D1F7282BD9
:1025B000392B4A2B5B2BB901CA0129960FB6F89427
:1025C000DEBF0FBECDBFCF91DF91089578941F92EB
:1025D0000F920FB60F920BB60F9211242F933F93C9
:1025E0004F935F936F937F938F939F93AF93BF931B
:1025F000CF93DF93EF93FF93F894809106028F5F60
:1026000080930602815090E083709070892B11F4C2
:102610009DE901C09CE9809170008D7F80937000DE
:102620008091B300980F9093B3007894F894C09180
:102630008400D0918500789490915106992369F097
:1026400080916006882329F49093600681E080934E
:10265000610691509093510621C030915F0633235B
:10266000B9F020916006222399F090E080916106F4
:10267000882309F491E090936106992309F428E0F6
:1026800020935106992351F0315030935F0606C0D4
:10269000109260061092610610924B0680916106BE
:1026A000882389F080914B06882311F490E004C0C0
:1026B0009091770981E0982790937709992319F4ED
:1026C00084B5806402C084B58F7B84BD0E94107580
:1026D0000E9443AA80917109826080937109F894E5
:1026E000809184009091850078948C1B9D0B909331
:1026F0004A0680934906F894809170008260809326
:1027000070007894FF91EF91DF91CF91BF91AF91DD
:102710009F918F917F916F915F914F913F912F91F9
:102720000F900BBE0F900FBE0F901F9018950F9338
:102730001F938C010E947A7382E260E04DEC55E0B9
:1027400024E00E94FA6D80E068E1A8010E94356EE5
:102750000E94D97180914C030E94CF711F910F91FB
:1027600008958091090180958F73D9F70E94DF73D6
:102770000895EF92FF920F931F938C017B010E94AB
:102780007A7382E260E04FE356E024E00E94FA6D43
:1027900080E060E2A8010E94356E80E068E2A70157
:1027A0000E94356E80E060E349E256E00E94356E9B
:1027B0000E94D97180914C030E94CF710E94B11385
:1027C0001F910F91FF90EF900895EF92FF920F935A
:1027D0001F93CF93DF93E82E882349F480914D0611
:1027E00090914E06492F441F4427441F90C19927BA
:1027F00087FD909597FF03C0909581959F4F8631F7
:1028000009F480C18A3030F490E00D960E947E7405
:10281000482F79C18A50282F30E08901000F111FFD
:10282000020F131F09561A4FD80112968C91882354
:1028300011F440E06CC1F8018281853010F420E091
:1028400007C0D80112968C91883008F468C122E044
:10285000D801EC91E150E73008F449C053C08091B1
:102860004F069091500640E08C239D23892B89F1DF
:1028700027C080914D0690914E068C2B9D2B9093F6
:102880004E0680934D06F80180810E94E513F82ED4
:10289000D80111968C910E94E513982FF80182813E
:1028A000853019F0863049F403C0FF2089F002C05A
:1028B000FF2031F4992321F40BC040E0F91649F0D0
:1028C00041E080914F06909150068C2B9D2B0AC0C1
:1028D00040E020914F0630915006CE0180959095B2
:1028E000822393239093500680934F060CC18091CE
:1028F0004C06882309F042C0F0E0EE0FFF1FEC53B6
:10290000F64F29C0E93018F4C0E0D4E039C0E03116
:1029100078F4F0E0EE0FFF1FDF01A85CBC4FE85B2E
:10292000F64FC081D1818D919C91C81BD90B09C0F4
:10293000E43150F4F0E0EE0FFF1FE85BF64FC0818A
:10294000D181CC0FDD1F1CC0E43240F4F0E0EE0F6B
:10295000FF1FE655F64FC081D18112C0E63270F4F8
:102960008E2F90E08497FC01EE0FFF1FE80FF91FF8
:10297000EE5BFF4E8081C82FD0E002C0C0E0D0E007
:10298000222309F03FC0D8018C9185324CF011967A
:102990008C91282F332727FD309523583F4F05C0B2
:1029A000F80181810E948A0D9C01D80112968C91B8
:1029B000823051F0833071F08130C1F440E02C1747
:1029C0003D070CF0A0C09EC040E0C217D3070CF03A
:1029D0009AC098C040E0CE01D7FF03C09095819582
:1029E0009F4F281739070CF08EC08CC040E0CE01F5
:1029F000D7FF03C0909581959F4F821793070CF0E6
:102A000082C080C0D8011196EC91E150E73058F4B3
:102A100080914C06882309F045C0F0E0EE0FFF1FBF
:102A2000EC53F64F2BC0E93018F4E0E0F4E03CC082
:102A3000E03180F4F0E0EE0FFF1FDF01A85CBC4F37
:102A4000E85BF64F0190F081E02D8D919C91E81BA1
:102A5000F90B0AC0E43158F4F0E0EE0FFF1FE85B19
:102A6000F64F0190F081E02DEE0FFF1F1DC0E43204
:102A700048F4F0E0EE0FFF1FE655F64F0190F081AD
:102A8000E02D12C0E63270F48E2F90E08497FC01A6
:102A9000EE0FFF1FE80FF91FEE5BFF4E8081E82F5E
:102AA000F0E002C0E0E0F0E0D80112968C918930AD
:102AB00089F08A3018F4883009F507C08A3079F037
:102AC0008B3091F08C30D1F414C040E0CE17DF078A
:102AD000D1F418C040E0CE17DF07A1F414C040E0E5
:102AE000EC17FD0784F40EC040E0CE17DF075CF45E
:102AF00009C040E0CE17DF0734F004C040E0EC1717
:102B0000FD070CF041E01E1414F081E04827842FEB
:102B1000DF91CF911F910F91FF90EF900895C1E049
:102B2000D0E002C0CC0FDD1F2A95E2F780914D0660
:102B300090914E068C239D23892B09F090CE99CE3F
:102B4000362F37953327379520E030934E06209364
:102B50004D060E94E51308950F931F93CF93DF93C3
:102B6000082F10917503110F1595812F992787FD57
:102B7000909597FF03C0909581959F4F8597F4F1AD
:102B80002091081330910913809105139091061339
:102B9000282B392B8091031390910413282B392B68
:102BA0008091071390E0282B392B8091001390E03F
:102BB000282B392B232B39F41092001317FF03C055
:102BC00081E08093001311161CF4812F845202C0FF
:102BD000812F8C5D60E00E94A015282F882361F072
:102BE00080910013882341F490E08091071388239B
:102BF00009F491E09093071320930013C0910813F8
:102C0000D09109132196D0930913C0930813E09132
:102C10000513F0910613E00FF11DF0930613E093F6
:102C20000513F89480910F109091101078942091D2
:102C3000031330910413821B930B8436910508F41F
:102C400072C12C593F4F3093041320930313CF01CB
:102C5000BE010E94E9B2062F862F90E09C012C9FB6
:102C6000C0012D9F900D3C9F900D1124E81BF90B86
:102C7000F0930613E09305131092091310920813B2
:102C8000912F915F9F3118F4109207130EC0812F7E
:102C90008C5D893450F4111614F4835301C0892FCC
:102CA00060E00E94A01580930713809164069091C4
:102CB000650601969093650680936406E09166062A
:102CC000F09167063196F0936706E093660600235D
:102CD00049F080916A0690916B06019690936B067D
:102CE00080936A0680910713882349F080916806D3
:102CF00090916906019690936906809368060695FF
:102D000040916C0650916D06400F511D50936D0619
:102D100040936C0660917603709177037093700610
:102D200060936F0680917503880F8595992787FDBD
:102D3000909597FF03C0909581959F4F882319F434
:102D400010926E0622C0813021F4CB018E1B9F0BA6
:102D500018C0803170F480FF07C0CA0154E0969516
:102D600087955A95E1F709C080916A0690916B06A4
:102D700004C080916806909169069B01281B390B5D
:102D8000C9019093700680936F0680916E06813022
:102D900051F0813018F0823011F511C08091750327
:102DA0008F77E9F019C080916F0690917006181620
:102DB0001906ACF06115710591F082E00EC08091AA
:102DC0006F0690917006855C9F4F1CF483E08093A2
:102DD0006E066115710519F481E080936E062091ED
:102DE0006F06309170068091FC129091FD1282174F
:102DF000930709F482C080916E06813009F06CC09F
:102E00008091640382FF4BC0672B09F448C02E31C8
:102E1000310541F482E080935F068091540662E3BD
:102E20000E949F0D80916F0690917006449741F427
:102E300081E080935F068091540662E30E949F0DBB
:102E400080916F06909170060A9729F4809154063C
:102E500062E30E949F0D80916F0690917006049727
:102E60002CF48091540662E30E949F0D80916403CC
:102E700083FF15C080916F06909170068E31910589
:102E800041F08431910529F08A30910511F00497C1
:102E900034F482E390E090935E0680935D06809127
:102EA000640381FF2AC08091750320916F063091E1
:102EB000700687FF07C08091760390917703821B8D
:102EC000930B01C0C9016CE370E00E94E9B2892B49
:102ED000A1F48091540604C0823079F480915506A3
:102EE00062E30E949F0D8091640383FF06C082E32A
:102EF00090E090935E0680935D0620916F0630917E
:102F000070063093FD122093FC128091750387FFA9
:102F10000AC08091760390917703821B930B909364
:102F2000700680936F06DF91CF911F910F910895E6
:102F300020917503220F2595822F992787FD909563
:102F400097FF03C0909581959F4F823091059CF12A
:102F5000213F8CF120317CF5273F94F02A3084F416
:102F6000E0916203F0E0EE0FFF1FEE0FFF1F95955B
:102F70008795E80FF91FE957FA4FE491F0E003C095
:102F8000FC01F595E7953197EE0FFF1FEC53F64FD7
:102F90000190F081E02D27FF05C080E094E08E1BBA
:102FA0009F0B03C0CF0180509C4F26E096958795DC
:102FB0002A95E1F702C080E090E00E94AC15E09114
:102FC0006203F0E0EE0FFF1FEE0FFF1FE657FA4F10
:102FD000E491F0E0EE0FFF1FEE53F64F0190F08109
:102FE000E02D8091640380FF05C080E094E08E1B9B
:102FF0009F0B03C0CF0180509C4F609101137091D3
:1030000002136F5F7F4F7093021360930113AC0143
:10301000E6E056954795EA95E1F78091FE1290918A
:10302000FF12480F591F5093FF124093FE12F8945D
:1030300080910F109091101078942091FA12309195
:10304000FB12821B930B885E934098F1F894809159
:103050000F109091101078949093FB128093FA12B5
:103060001092FF121092FE1210920213109201138E
:103070008091F0069091F10601969093F10680936D
:10308000F0062091EE063091EF06F901EA58F94F6B
:10309000CA010E94E9B260832F5F3F4F3093EF0671
:1030A0002093EE062837310520F01092EF0610929B
:1030B000EE060895EF92FF920F931F93CF93DF9345
:1030C000CBEDD5E071E0E72EF12C2881222309F128
:1030D00089818823F1F090E00197870102C0000FF9
:1030E000111F8A95E2F7822F60E00E94A0152091BF
:1030F0005E0930915F09882319F0202B312B05C020
:10310000C801809590952823392330935F09209337
:103110005E09229685E0C33FD807B9F6DF91CF91CB
:103120001F910F91FF90EF900895FF920F931F93BF
:103130008C01F62E0E947A7382E260E047EC55E043
:1031400024E00E94FA6D80E060E2A8010E94356EE2
:103150008CE168E349EB55E00E94356E0E94D9711D
:10316000FF2011F089E102C080914C030E94CF71D1
:103170008091560662E30E949F0D0E94B1138091D8
:10318000090180958F7391F480914F0360E00E9454
:10319000A015882331F480916603882311F4FF2061
:1031A00019F0409AA895EBCF4098FCCF1F910F9152
:1031B000FF9008958091610387FD07C0887329F40B
:1031C00088EF95E060E00E94951808958091610372
:1031D00086FD0AC00E940F68883C910528F485E4AA
:1031E00096E060E00E94951808950F931F938091D8
:1031F00061038670A1F187EE95E065ED75E00E94B0
:10320000B91300E0809161038670823009F401E017
:103210001EE00AC0113139F0812F8D5060E00E940C
:10322000A015801729F41F5F1631A0F31631B9F0ED
:103230008091090180958F7391F406C08091660397
:10324000882351F0409A09C080914F0360E00E94AA
:10325000A0158823B9F7F2CF40981EE0DDCF1F916B
:103260000F9108950F931F93CF93DF938091610384
:1032700080FD44C08091620390E08170907002E014
:1032800010E0081B190BF801EE0FFF1FE25EFC4F68
:10329000C181D281609687859089C81BD90B0E9415
:1032A0000910102F802F0E94970FC817D90734F5E7
:1032B00087E196E068E076E00E94B9130E94091069
:1032C000812F0E94970FC817D9072CF4809109010C
:1032D00080958F7349F00E94B11310C080916603EE
:1032E000882351F0409AEACF80914F0360E00E941A
:1032F000A0158823B9F7F2CF4098E0CFDF91CF91A6
:103300001F910F910895AF92BF92CF92DF92EF92EB
:10331000FF920F93CF93DF938091640384FD6FC07E
:1033200080914F0360E00E94A015882329F48091CA
:103330006603882309F457C0409A0E947A7380E09C
:1033400060E044EE50E020E000E00E94E26C0E9469
:10335000D97180914C030E94CF710E94B1130E94D9
:10336000A50F0F5F0032D9F7AA24BB2400E0802FFD
:103370000E94970FC92FD0E0AC0EBD1E0F5F043026
:10338000B1F7F894C0900F10D0901010789480E9A5
:1033900091E0C80ED91E1DC00E94A50FC0E0D0E06C
:1033A00000E0802F0E94970FE92EFF24CE0DDF1D35
:1033B0000F5F0430B1F78091090180958F73F9F4A4
:1033C000CA15DB05E1F411C0809166038823A9F0DA
:1033D000409AF89480910F10909110107894C8162C
:1033E000D906D1F60CC04098A8CF80914F0360E079
:1033F0000E94A015882361F7E7CF4098EACFDF91BC
:10340000CF910F91FF90EF90DF90CF90BF90AF9052
:1034100008951F93CF93DF93C8E0D6E011E0888131
:10342000882351F060E00E94A015882329F0812FA5
:10343000DF91CF911F9108951F5F2D96153079F779
:1034400010E0F5CFDF92EF92FF920F931F93CF938F
:10345000DF93F82E082F0F70065010917903177024
:10346000083008F0C0C0E02EE5940E94091A682FC9
:103470008E2D0E94780FD82E6E2D0E94540FBC0105
:10348000112389F477FF04C088279927861B970B9F
:10349000959587959595879501968132910584F04C
:1034A00080E290E00DC0212F332727FD3095215079
:1034B000304081E090E002C0880F991F2A95E2F722
:1034C000482F8091620390E08170907022E030E09C
:1034D000281B390B8E2D90E02817390739F480917D
:1034E000780383FF03C044E021E001C020E05527BA
:1034F00047FD509500FF07C0EA01C60FD71F10E037
:1035000083E89FEF04C0EB01C41BD50BF8CF0097F5
:1035100019F4222329F015C03FEF8338930749F0AF
:10352000C817D9071CF0681779074CF08D3791053B
:1035300041F08C179D072CF08617970714F4EC01C7
:1035400011E083589F4F8A3F910509F76C177D075B
:1035500024F4CE37D10544F40CC0C617D7074CF479
:103560008FEFC338D8072CF48091790386FFEB01E5
:1035700011E03EEFCC30D3071CF4CCE0DEEF06C008
:1035800081E0C53FD80714F0C4EFD1E08D2D6E2D3A
:10359000AE010E94AC11CE37D1051CF0CDE7D0E0D2
:1035A00006C03FEFC338D30714F4C3E8DFEFCE0102
:1035B00064E070E00E94FDB2EB01EC96112341F053
:1035C0008F2D0E94FF7410924B068091540607C005
:1035D000F6FE03C081E080934B06809152066C2F6B
:1035E0000E949F0DFF248F2DDF91CF911F910F918E
:1035F000FF90EF90DF9008954F925F926F927F92CD
:103600008F929F92AF92BF92CF92DF92EF92FF92F2
:103610000F931F93CF93DF933C01ACEBB9E0FC0118
:1036200098E001900D929150E1F76F3F19F40E94DC
:10363000091A682F92EFC92E94E0D92E0FEFC0E03F
:10364000D0E082E0482E512CE62EFF240894E11CA5
:10365000F11CFE01EE0FFF1FEE0FFF1FE151FB4FAC
:103660002081822F837009F4CEC026952695237081
:1036700030E0802F992787FD90952817390709F4A6
:10368000B9C08181807E99F0828180FD10C0FE01E9
:10369000EE0FFF1FEE0FFF1FE051FB4F8081829561
:1036A0008695877090E0E816F90609F0A3C0FE0140
:1036B000EE0FFF1FEE0FFF1FE051FB4F8081880FC1
:1036C000880F880F85958595859561E00E94A015E6
:1036D000882309F48FC0FE01EE0FFF1FEE0FFF1FBE
:1036E000E151FB4F8081182F169516951370E12F2D
:1036F000F0E0EE0FFF1FE454F64F0190F081E02D53
:103700008370F7FF03C080FD03C074C081FF72C0E7
:10371000012FD6018C91282F332727FD30958091DA
:10372000620390E0817090704201881A990AA12E7C
:10373000BB24A7FCB0948A149B0499F4809179036C
:1037400083FF0FC0CF0180509C4F62E070E00E9469
:10375000FDB2CB01B9010E94210F9C01220F331F42
:1037600005C0CF01B9010E94210F9C01FE01EE0F9F
:10377000FF1FEE0FFF1FE151FB4FE0818E2F807F77
:1037800069F06E2F62956F70862F90E00B970CF0AA
:103790006C5FC90140E00E94830E9C01B90188273B
:1037A00077FD8095982FFE01EE0FFF1FEE0FFF1F94
:1037B000EF50FB4F2081269530E040E050E00E9422
:1037C000BEB224E630E040E050E00E9432B38A14FA
:1037D0009B0431F48091790383FF02C02050344070
:1037E000E12FFF27E7FDF095EE0FFF1FE60DF71D18
:1037F00031832083219684E090E0C80ED91ECE301C
:10380000D10509F026CFDF91CF911F910F91FF9045
:10381000EF90DF90CF90BF90AF909F908F907F9070
:103820006F905F904F9008953F924F925F926F928A
:103830007F928F929F92AF92BF92CF92DF92EF9240
:10384000FF920F931F93CF93DF93382EEFE1CE2E8D
:10385000E3E0DE2E72EE872E77E0972E64ECA62E44
:1038600069E0B62E2401EE24C0E0D0E051E0652EE0
:10387000712CFC2E8C2F0E94970F9C01D6018D91EC
:103880009C911197281B390B121613062CF45C9689
:10389000ED91FC915D9705C0D6011E96ED91FC91CE
:1038A0001F97E436F10514F4E4E6F0E0B901882747
:1038B00077FD8095982F4AE0660F771F881F991F24
:1038C0004A95D1F79F01442737FD4095542F0E9418
:1038D00032B38901BCEF21303B071CF400E01CEF40
:1038E00006C0E4E020303E0714F000E014E08091D0
:1038F000640380FF0FC08091620390E0817090703C
:1039000022E030E0281B390BC217D30719F41095B9
:1039100001951F4FD5010D931C93C8010F964F972A
:1039200010F5C430D105BCF4E0916203F0E0EE0F75
:10393000FF1FEE0FFF1FEC0FFD1FE857FA4FE4913A
:103940008E2F90E00197F30102C0EE0FFF1F8A95C2
:10395000E2F7CF0107C0C3010C2E02C0880F991FE8
:103960000A94E2F7E82AF3E0FF1508F456C08091C4
:103970004C06882309F051C02196C3010C2E02C0C9
:10398000880F991F0A94E2F72197816020915E09C0
:1039900030915F0982239323892B09F43EC0FE01F5
:1039A000EE0FFF1FE85AFC4FF0808F2D807CA9F1AD
:1039B000EF2DEF73F0E0EE0FFF1FDF01A05BBC4FB8
:1039C000E05AF64F608171812D913C91621B730B1F
:1039D000882777FD8095982FD601DA962C9133278A
:1039E00027FD3095432F532F0E94BEB222E330E0D3
:1039F00040E050E00E9432B3F294F694F694E3E093
:103A0000FE22EF2DF0E0E130F10519F0329729F4B4
:103A100003C0020F131F01C08901F201019311932A
:103A20002F01219622E030E0C20ED31EA20EB31E5B
:103A3000C730D10509F01DCF82EE97E0632D0E94BB
:103A4000FC1A7EE2A72E78E0B72E00E010E062E0DC
:103A5000462E512C612C54E0752ED401CD90DC9073
:103A6000802F632D0E94780F602F0E94540FEC016D
:103A70008091620390E081709070F201E81BF90B75
:103A8000E017F10771F58091780383FF2AC08091D8
:103A9000640380FF03C0D095C195DF4FBE01882726
:103AA00077FD8095982F63587F4F8F4F9F4F9301DD
:103AB0002C193D09442737FD4095542F0E94BEB272
:103AC00020E038E040E050E00E9432B3B901CA0182
:103AD0006030F8E07F07F0E08F07F0E09F0741F4E7
:103AE00006C080917506882311F0C0E0D0E09E01E9
:103AF000220F331FD5012D933D935D010F5F1F4FA3
:103B0000E2E0F0E08E0E9F1E0430110509F0A5CF13
:103B10008E2DDF91CF911F910F91FF90EF90DF904D
:103B2000CF90BF90AF909F908F907F906F905F905D
:103B30004F903F9008958F929F92AF92BF92CF92F5
:103B4000DF92EF92FF920F931F93CF93DF930E9428
:103B5000091AC82EA2EEEA2EA7E0FA2E0EE218E00D
:103B6000C0E0D0E0F2E08F2E912CAA24A394BC2ECA
:103B70008091620390E0817090709401281B390B52
:103B80002C173D0751F18C2F6C2D0E94780FD82EE9
:103B9000A0924C068C2D0E94141C10924C06F80129
:103BA00080819181F70120813181820F931F62E032
:103BB00070E00E94FDB2AB01FEEF6C307F071CF499
:103BC0004CE05EEF06C021E0653F720714F044EF61
:103BD00051E08D2D6B2D0E94AC11219682E090E07A
:103BE000E80EF91E0E5F1F4FC430D10509F0BFCF9C
:103BF00082E00E9453628091530662E30E949F0D0F
:103C0000DF91CF911F910F91FF90EF90DF90CF90B8
:103C1000BF90AF909F908F9008952F923F924F92B8
:103C20005F926F927F928F929F92AF92BF92CF924C
:103C3000DF92EF92FF920F931F93DF93CF93CDB755
:103C4000DEB729970FB6F894DEBF0FBECDBF9F83B6
:103C50008E83062F862F0E94141C10917B0318233D
:103C6000212F30E080917C0890E0822793278223E7
:103C70009323892B29F08091530662E30E949F0DC4
:103C800010937C0880E094E09093F1078093F00714
:103C90009093F3078093F20780914C06882379F183
:103CA0008091620390E08170907022E030E0281BE8
:103CB000390B1092E3071092E2072130310521F011
:103CC0001092E5071092E4072230310521F010929E
:103CD000E7071092E6071092E9071092E807EAEF6B
:103CE000F7E01192119228E0EA30F207D1F746E3AB
:103CF00058E05A8349832AE038E0FA0146C06AEF67
:103D000077E040E050E0FA01E05AF64FDA01A25EB7
:103D1000BC4F80819181D2962D913C91D397821B8B
:103D2000930B880F991FDB018D939D93BD014E5F0F
:103D30005F4F4830510539F78091680990916909C2
:103D4000880F991F909303088093020880916A0955
:103D500090916B09880F991F909305088093040830
:103D600080916C0990916D09880F991F90930708B5
:103D70008093060880916E0990916F09880F991FB2
:103D80009093090880930808B2CF80819181D9016E
:103D90008D939D939D013496B8E0EE37FB07A9F70C
:103DA00080915C06882311F00E94981780E4E6E376
:103DB000F8E0DF011D928A95E9F710925D093DE375
:103DC000432E39E0532E2DEB822E28E0922E9DE7D4
:103DD000692E98E0792E1D82202E33240894211C10
:103DE000311C8D810E94FF0D6C01FC0180818F715F
:103DF00059F48FE9482E84E0582E2BEB35E03C83B4
:103E00002B8322243324AFC290E0419794F7D6014C
:103E100017969C91892F807FC1F0892F8595859574
:103E200085958595282F332727FD309518162CF476
:103E30002216330609F085C208C088279927821BFD
:103E4000930B2816390609F47CC2F601838161E0E0
:103E50000E94A015D2019C918823C1F4192F1C92B5
:103E6000F6019181892F8850823008F06AC28781DB
:103E70008E70843009F465C2993019F0198618865D
:103E800040C020E03CEF398728873BC010E09923F1
:103E900009F411E081E0D2018C93F6018181815017
:103EA000A82FB0E0FD01EE0FFF1FEE51F84F20816B
:103EB000318139872887843168F03D81831750F438
:103EC000AA0FBB1FAA0FBB1FAA5CB74F4D915C91F5
:103ED00059874887D6019C91892F807E91F09295D1
:103EE00096959770892F90E00197E1E0F0E002C08D
:103EF000EE0FFF1F8A95E2F720915D092E2B20938C
:103F00005D09D60118968C91882341F00E948A0D94
:103F1000E885F985E80FF91FF987E887D601169635
:103F20008C911697882329F415968C91882309F48F
:103F30006AC1F4016081718182819381112391F4BE
:103F400020E031E040E050E00E9432B350954095CF
:103F5000309521953F4F4F4F5F4FA884B984A20EF3
:103F6000B31E5CC0D60117968C9117978E70843063
:103F700049F5EC91EF71F0E0EE0FFF1FE85FF74FAE
:103F800060817181882777FD8095982F20E034E645
:103F900040E050E00E94BEB2F401608371838283EE
:103FA0009383D60112962C91222361F0332727FDAB
:103FB0003095432F532F0E9432B3F4012083318375
:103FC00042835383D4016D917D918D919C9120E02A
:103FD00031E040E050E00E9432B35095409530957A
:103FE00021953F4F4F4F5F4FA884B984A20EB31E57
:103FF000A114B10499F0F6018581B7FE82958F7006
:1040000090E09C0144E650E0249FC001259F900D64
:10401000349F900D1124D3018D939C93F301208143
:1040200031812115310599F080915C06882321F0BA
:104030002150304031832083D3018D919C91892B75
:1040400031F0F4016081718182819381C3C0A11438
:10405000B10409F4D8C0D60116968C91169788231E
:1040600009F4C1C080915C06882309F478C01296D7
:104070002C91222329F460E070E080E293E018C0E4
:10408000822F992787FD909597FF03C09095819582
:104090009F4F9C01442737FD4095542F60E070E00E
:1040A00080E293E00E9432B3C901DA01BC01CD0184
:1040B000F60126811A141B040CF52F70422F50E0D4
:1040C00041155105D9F1A4E6B0E04A9F90014B9FFC
:1040D000300D5A9F300D1124442737FD4095542F41
:1040E0000E9432B379018A01F40180819181A28119
:1040F000B381E80EF91E0A1F1B1F2BC022952F70DB
:10410000422F50E041155105C9F0A4E6B0E04A9FA6
:1041100090014B9F300D5A9F300D1124442737FDDD
:104120004095542F0E9432B3F401E080F180028167
:104130001381E21AF30A040B150B0BC0288539858D
:10414000C901AA2797FDA095BA2FEE24F82E092FB2
:104150001A2FD401ED92FD920D931C931397F40145
:104160006081718182819381288539857901002759
:10417000F7FC0095102F1A141B0464F420E031E0C2
:1041800040E050E00E9432B3E216F3060407150740
:1041900064F01BC020E031E040E050E00E9432B308
:1041A0002E153F054007510784F448855985CA01FB
:1041B000AA2797FDA095BA2FBA2FA92F982F882745
:1041C000F40180839183A283B383D4016D917D91A7
:1041D0008D919C9120E031E040E050E00E9432B3AC
:1041E0003987288710C0E885F985CF01AA2797FD70
:1041F000A095BA2FBA2FA92F982F8827F401808372
:104200009183A283B383D60114966C91149766238D
:1042100041F08885998511964C910E94830E99876B
:104220008887F601878180FD12C0E181EE2379F055
:10423000E53068F4F0E0EE0FFF1FE45DF74F80819A
:10424000918128853985280F391F39872887488526
:104250005985BA01882777FD8095982FD601129647
:104260002C91332727FD3095432F532F0E94BEB248
:104270009B01AC01F60187818695877090E08130C3
:10428000910571F00081029709F046C00F71E02F8F
:10429000F0E0EE0FFF1FEE0FFF1FEE5CF74F37C091
:1042A000D6010C910F7110E0000F111F000F111FAC
:1042B0000E5C174FCA01B90124E630E040E050E03F
:1042C0000E9432B3CA01B901F801208131814281D3
:1042D00053810E94BEB2D8016D937D938D939C93C0
:1042E0001397F60100810F7110E0000F111F000FEE
:1042F000111F0E5C174FD8016D917D918D919C918E
:1043000020E034E040E050E00E9432B3F801208326
:1043100031834283538315C00F71E02FF0E0EE0F1D
:10432000FF1FEE0FFF1FEE5CF74F80819181A2818E
:10433000B381820F931FA41FB51F80839183A28333
:10434000B383FD81FF5FFD830894411C511C24E071
:1043500030E0820E931E42E050E0640E751EF03293
:1043600009F03FCD46CDA981BA818D909D90AD9049
:10437000BC90C501B40124E630E040E050E00E946A
:1043800032B3E981FA812083318342835383F1017F
:10439000EE52F64FC90120839183D20113962D91DD
:1043A0003C91149711968C911197FAE08F02F001CD
:1043B0001124E851FC4FF987E8878C914AE0840288
:1043C0003001112488E19CEF680E791ECF015E2F29
:1043D000492F2E173F071CF4C901522F492F852F53
:1043E000942F8C01061517050CF483018114910498
:1043F000A104B10479F19801442737FD4095542F69
:10440000181419041A041B0464F4A885B985BD01A5
:10441000882777FD8095982F621B730B840B950B73
:104420000BC0C301AA2797FDA095BA2F281B390BF3
:104430004A0B5B0BCA01B901A50194010E94BEB2EF
:1044400020EA36E841E050E00E9432B3C901DA01C7
:104450004C015D01C80175E0959587957A95E1F766
:10446000800F911F9801232F330F330B2595820F57
:10447000931F000F012F001F110B801B910B6C016C
:10448000EE24D7FCE094FE2C8885998545E095952F
:1044900087954A95E1F7E885F9858E0F9F1FA3015F
:1044A00035E0559547953A95E1F7B301660F672FCB
:1044B000661F770B460D571D9F01232F330F330BBC
:1044C0002595820F931FEE0FEF2FEE1FFF0B8E1B14
:1044D0009F0B8C01222717FD2095322FC80CD91C69
:1044E000EA1CFB1C0C151D052E053F0514F4680184
:1044F0007901CB019595879595958795480F591F1B
:10450000461B570BCA01AA2797FDA095BA2F870112
:104510007601E816F9060A071B0714F47C018D01E1
:10452000D20112968C91882341F010950095F09459
:10453000E094E11CF11C011D111DEB81FC818081C7
:10454000882381F060E00E94A015882359F0AB8198
:10455000BC8111968C910E948A0D7C010027F7FC8A
:104560000095102FEE81FF81E20DF31DF182E082B4
:10457000E981FA813496FA83E98322E030E0220E61
:10458000331E45E050E0440E551E8B819C810296FF
:104590009C838B83E657F84009F0E5CE29960FB649
:1045A000F894DEBF0FBECDBFCF91DF911F910F9169
:1045B000FF90EF90DF90CF90BF90AF909F908F9043
:1045C0007F906F905F904F903F902F900895CF9283
:1045D000DF92EF92FF920F931F93DF93CF93CDB7AC
:1045E000DEB7A0970FB6F894DEBF0FBECDBF81E057
:1045F00080934C060E94091A682F8E010F5F1F4F8F
:10460000C8010E940D1E10924C06F801A2EAB4E007
:104610009E012F5D3F4F808191814CEF883194073F
:104620001CF488E19CEF06C043E0883E940714F038
:1046300088EE93E011969C938E9332961596E2172E
:10464000F30749F700E010E0F2E0CF2ED12CE02E86
:104650008091620390E0817090709601281B390B65
:104660002017310791F0FF248F2D6E2D0E94540FDB
:10467000855F914034F48F2D6E2D40E050E00E9414
:10468000AC11F39445E0F41679F70F5F1F4F043037
:104690001105E9F682E00E9453628091530662E3BD
:1046A0000E949F0DA0960FB6F894DEBF0FBECDBF3F
:1046B000CF91DF911F910F91FF90EF90DF90CF90FE
:1046C00008952F923F924F925F926F927F928F92B6
:1046D0009F92AF92BF92CF92DF92EF92FF920F9391
:1046E0001F93DF93CF93CDB7DEB7C556D0400FB63B
:1046F000F894DEBF0FBECDBFF89420910F1030911B
:104700001010789440E080918A0990918B092817C5
:10471000390709F041E040935C06F89480910F104E
:1047200090911010789490938B0980938A090E943D
:10473000091AA2968FAFA29730910902381709F48F
:1047400074C03F3F59F4E82FF0E0EE0FFF1FE05830
:10475000F64F8FEF9FEF9183808362C0A32FB0E06D
:104760008DE090E0A89FF001A99FF00DB89FF00D9B
:104770001124EE5FF94F808182958F7020917F091F
:10478000882351F081E090E0032E02C0880F991F2A
:104790000A94E2F7282B0FC0AA0FBB1FA058B64FF0
:1047A0001D921C9281E090E002C0880F991F3A95FB
:1047B000E2F78095282320937F09A2968FADA297D8
:1047C000482F50E08DE090E0489FF001499FF00DA8
:1047D000589FF00D1124EE5FF94F80818F7020916A
:1047E0007F09882349F081E090E002C0880F991F7B
:1047F0004A95E2F7282B12C0FA01EE0FFF1FE0588E
:10480000F64F8FEF9FEF9183808381E090E002C0AD
:10481000880F991F4A95E2F78095282320937F09F6
:10482000A2969FADA2979093090280917F09882359
:1048300009F493C0FE01B19680E4DF011D928A95D0
:10484000E9F7A0E82A2EA9E03A2E6624772443014E
:10485000EE24FF24A396EFAFA397A496FFAFA497EF
:10486000FE01EF59FF4FA696FFAFEEAFA6978091DE
:104870007F0990E00E2C02C0959587950A94E2F787
:1048800080FF41C0CE0101966E2D0E940D1ECE010B
:1048900001966E2D0E940D1ED1018D919C915C019F
:1048A000CC24DD24A3968FADA397A4969FADA497A7
:1048B0008C012E010894411C511CF201219131916F
:1048C0002F01442737FD4095542FC601B5010E94A2
:1048D000BEB2D8012D913D914D915C91260F371FAD
:1048E000481F591FF80121933193419351938F0130
:1048F000A6964EAD5FADA697E417F507F1F66A0CE4
:104900007B1C8C1C9D1C0894E11CF11C82E090E037
:10491000280E391E95E0E916F10409F0A8CF8E01A2
:104920000F5D1F4F7E010894E11CF11CE1E6CE2EC5
:10493000D12CCC0EDD1ED8016D917D918D919D9174
:104940008D01A40193010E9432B3F70121933193A9
:104950007F010C151D0579F707C0CE010196A296BF
:104960006FADA2970E940D1E20E030E0AE014F5FB8
:104970005F4FF894F901EA50F64FDA01A20FB31F26
:104980008D919C919183808378942E5F3F4F20324C
:10499000310579F78091E40F882381F48091910AA1
:1049A000882329F089E89AE00E941B6907C080915A
:1049B0009C0A882319F080E00E94596280915C066D
:1049C000882309F482C280917F09882309F475C085
:1049D00070E8E72E79E0F72E00E010E06DE0862E1B
:1049E000912C51E0A52EB12C66246A94762C40912E
:1049F0007F09842F90E0002E02C0959587950A9438
:104A0000E2F780FF50C0D701CD90DC90A296BFADF9
:104A1000A297B01709F5089DF001099DF00D189DAA
:104A2000F00D1124EE5FF94F60816F708FE892E016
:104A300070E00E94E9B29B01C601809590956817CD
:104A4000790730F42C0D3D1DF701318320832BC0F5
:104A5000D7016D927C921DC0089DF001099DF00D5B
:104A6000189DF00D1124EE5FF94F608162956F7013
:104A70008FE892E070E00E94E9B26C157D0530F499
:104A8000C61AD70AF701D182C0820DC0D7011D9284
:104A90001C92C501002E02C0880F991F0A94E2F7EC
:104AA000481B40937F090F5F1F4FE2E0F0E0EE0EDE
:104AB000FF1E0530110509F09ACF809171068823F9
:104AC000A1F090917206892F8F5F809372068436D1
:104AD00060F09356909372068091730690917406DD
:104AE000019690937406809373060E945A188091E1
:104AF000F409882319F081508093F40980916303AD
:104B0000882309F467C080915B06823308F462C091
:104B10008091760890917708A0917808B0917908F3
:104B20000196A11DB11D8093760890937708A093FC
:104B30007808B093790800E010E0FF248F2D0E94E0
:104B4000970F46E0969587954A95E1F7080F191F4C
:104B5000F394F4E0FF1691F780917A0890917B0826
:104B60000817190761F010937B0800937A081092D8
:104B70007608109277081092780810927908E090E1
:104B80007608F09077080091780810917908609184
:104B9000630370E080E090E020E737E140E050E020
:104BA0000E94BEB26E157F058007910798F48FE3CF
:104BB00090E0A0E0B0E0E822F9220A231B239AE06B
:104BC000E916F1040105110529F48091550662E307
:104BD0000E949F0D80917506882319F08150809363
:104BE000750680914F0360E00E94A01590917C09AA
:104BF000882309F446C0992351F0913009F04EC042
:104C00008091D5129091D612892B09F047C080E08F
:104C100063EA70E10E94A58090937E0980937D09EC
:104C2000892B11F08FEF0EC085ED92E16DE870E1F8
:104C300042E10E944BA190937E0980937D09892BCC
:104C400059F08EEF80937C0980917D09815080938B
:104C50005F068091520611C04091DF125091E01220
:104C60006091E1127091E21285ED92E10E9449910A
:104C700081E080937C098091540662E30E949F0D3D
:104C80000DC0913049F485ED92E10E944F8C8091E6
:104C9000540662E30E949F0D10927C090E947A7371
:104CA0000E94E2730E94221A182F80915D06909153
:104CB0005E06009729F0019790935E0680935D064B
:104CC000112389F08091660390E024EF31E0DC014C
:104CD000A29FC001A39F900DB29F900D11249093AD
:104CE0005E0680935D0680914F0360E00E94A015F0
:104CF000882339F480915D0690915E06892B09F432
:104D0000E2C0409A80916206909163062091D0099A
:104D10003091D109821B930B60E270E00E94FDB2DA
:104D20007093170A6093160A6115710591F08091CE
:104D30007A0990917B09821B930B62E070E00E94DC
:104D4000FDB27093170A6093160A3093630620939E
:104D500062068091D0099091D10990937B0980934C
:104D60007A09E091270AF0E0EE0FFF1FE75EF54FAA
:104D70000190F081E02D812F19950E94D971919BAE
:104D800002C0A49A01C0A498F89480910F10909149
:104D9000101078948F7190708230910521F00397F4
:104DA00009F093C079C08091590690915A06892BD9
:104DB00039F487E00E94970F90935A068093590622
:104DC0008091590690915A068C0123E0000F111F23
:104DD0002A95E1F7081B190B87E00E94970F800FB7
:104DE000911F03E0969587950A95E1F73C01882489
:104DF000992490935A0680935906E0905706F090B4
:104E00005806C401B30128E534E040E050E00E94B8
:104E1000BEB25B016C0120914E03332727FD309514
:104E2000432F532FC401B3010E94BEB2A60EB71E7A
:104E3000C81ED91EEE0CFF1CEE0CFF1CB70180E053
:104E400090E06A0D7B1D8C1D9D1DEE0CFF1C00E08B
:104E500010E0A80197010E9410B320935B06809197
:104E60007909805E80937909882379F580914D03D3
:104E7000281758F5223348F18091560662E30E94C4
:104E80009F0D8091640383FF20C082E390E09093A4
:104E90005E0680935D0619C08091610386958695B4
:104EA0008695877090E0BC01660F771F660F771FAD
:104EB000680F791F68567A4F82E596E045E050E02A
:104EC0000E944DB302C040981DCFCB59DF4F0FB6A3
:104ED000F894DEBF0FBECDBFCF91DF911F910F9130
:104EE000FF90EF90DF90CF90BF90AF909F908F900A
:104EF0007F906F905F904F903F902F9008950F9309
:104F00001F93DF93CF93CDB7DEB761970FB6F894B9
:104F1000DEBF0FBECDBF9FEF91B912B887EC84B949
:104F20008FE385B987B980EC88B91AB88CEF8BB953
:104F30001AE01DB985EF8EB910BA11BA80E183BBB2
:104F400094BB10920101909302011092040190937E
:104F50000501109207011092080180E880930A0170
:104F60008FE780930B010E949B7180E480937C000B
:104F700085E880937A0088E080937B0087E08093C7
:104F8000B1008CE98093B3008091700083608093BE
:104F900070008BE085BD81E084BD1093810082E8C4
:104FA0008093910080917100806280937100EDB7D1
:104FB000FEB7329785E502C08083319743E1EA303E
:104FC000F40709F0C8F782EE99E590931A0A8093E6
:104FD000190A8EEF9BE490931C0A80931B0A89E1C7
:104FE0000E94CF7178940E948AAD78940E942967BC
:104FF00010914B0304B603FC0CC00E9483190E945D
:10500000E6180E9409100E9432190E94F5180E94A9
:10501000DA180E94B1130E94091A682F86EF99E0EE
:105020000E940D1E80914C030E94CF7180916603F7
:1050300090E024EF31E0AC01429FC001439F900D0E
:10504000529F900D112490935E0680935D0680918F
:105050004B03181719F081E00E945362CE010196AC
:105060000E94227E89818C568E878B8181508D870C
:105070008C818C878E818B878F818A8788858987B1
:105080008D8181508F87CE0109960E94FA7C6093B2
:105090001A0370931B0380931C0390931D031DBA86
:1050A00084E180936A0080E68CBB80E58093690090
:1050B0008CE08CBB8CE68DBB0E94F62A8FEF9FEFB5
:1050C00090938B0080938A0080E38093800080918E
:1050D0006F00826080936F002DE088E190E00FB652
:1050E000F894A895809360000FBE209360000E9402
:1050F000BA108C01E0916503F0E0EE0FFF1FE05065
:10510000FE4F0190F081E02D19950E942A100E9417
:10511000612380917109833019F4A8951092710967
:105120000E94BA102091470630914806801B910BCF
:105130008217930708F4C9019093480680934706A5
:10514000D6CF8093510688E893E170E00E94FDB2CB
:1051500067BD08959C01E091270AF0E0EE0FFF1F64
:10516000E75EF54F318320838FEBF901199580912C
:10517000520662E30E949F0D08956F927F928F9274
:105180009F92AF92BF92DF92EF92FF920F931F9385
:10519000CF93DF938091790385FD04C0A12C14E0A7
:1051A000B12E03C0A12CB5E0BB2EE0917803E595AC
:1051B000E595E595E595EE0FE85F90917A0384E635
:1051C0009802C0011124A8E5EA2EA2E0FA2EE80E0A
:1051D000F91EEA3028F448EC5FEA4E195F090DC069
:1051E0008853904F2E2F30E0829FA001839F500D57
:1051F000929F500D1124405C504EC6EFD9E0A2EFB3
:10520000B6E06E2F70E0660F771F6C0F7D1F88244D
:1052100099248A189B08662477246E187F0808E56D
:1052200012E00E191F0923C028813981C501DA2C2B
:10523000F92F2A153B051CF4C901D22EF92F8D2D0B
:105240009F2F881599050CF4C401805A964F93013D
:10525000281B390B420F531F1196FC92EE92800FC0
:10526000911F13969C938E93129722961496C617AD
:10527000D707D1F6EE0FAE2FB0E0AA0FBB1FAE508E
:10528000B94FED92FC92EF5FAE2FB0E0AA0FBB1FBB
:10529000AE50B94F4D935C93EF5FF0E0EE0FFF1F00
:1052A000EE50F94F11821082DF91CF911F910F9133
:1052B000FF90EF90DF90BF90AF909F908F907F9086
:1052C0006F900895A0912A0AB0912B0AFD01819355
:1052D000919313967C936E9312973296F0932B0AC8
:1052E000E0932A0A0895882329F060E679E080E6B1
:1052F00099E004C060EB74E080EB94E00E946229C6
:1053000008951F93182F82700E947329812F817036
:105310000E9473291F910895EF92FF920F931F939C
:10532000CF93DF9380917803877090E0813091056F
:1053300019F0029719F404C010E003C011E001C095
:1053400012E02091F6093091F70920503C4F220FCE
:10535000331F8091F8099091F90980509C4F880F74
:10536000991F892F232F37FD20E087FD80E0022F32
:1053700020310CF00FE0F82E8FE08F1514F44FE081
:10538000F42E2F2D332727FD3095802F992787FD69
:10539000909509968217930714F40F2D0950C02F8A
:1053A000DD27C7FDD095275F3F4F2C173D071CF425
:1053B00037EFF32EF00E82EF96E090932B0A809356
:1053C0002A0A80E797E160EB74E00E94622980E09E
:1053D0000E94812980E699E060EB74E00E946229D6
:1053E00080E699E060EB74E00E946229812F0E94C0
:1053F00081291195CE019595879595958795E82EEC
:105400000E9481291E19802F0E948129101B8F2D37
:10541000992787FD90959595879595958795082F60
:105420000E948129101B8F2D0E948129812F8F19A5
:105430000E94812980E00E94732980912A0A90911C
:105440002B0A029790932B0A80932A0A80E69AEE01
:1054500060E070E00E946229DF91CF911F910F916F
:10546000FF90EF900895882329F080E293E060E4B4
:1054700076E004C080E496E060E273E00E94622976
:1054800008950F931F93082F10E0802F81700E94C2
:10549000332A1F5F06951830C1F71F910F910895A9
:1054A0000F931F9382EF96E090932B0A80932A0A22
:1054B00080912C0A91E0892780932C0A882309F493
:1054C0004FC08091F6099091F709885F9B4F34E0B7
:1054D000969587953A95E1F78038910510F08FE71A
:1054E00090E0182F2091F8093091F90937FD0FC08D
:1054F000C901409625E0969587952A95E1F7803475
:10550000910510F08FE390E0082F00640FC080E158
:1055100090E0821B930B05E0969587950A95E1F73D
:105520008034910510F08FE390E0082F812F0E94C6
:10553000412A802F0E94412A0127802F90E09C0160
:10554000B4E035952795BA95E1F7A4E0880F991F47
:10555000AA95E1F7822B0E94412A80E197E22BC0B5
:105560008091FA099091FB0980509C4FF4E0969548
:105570008795FA95E1F78038910510F08FE790E074
:10558000082F0068802F0E94412A8EE80E94412A3D
:105590008EE8082710E0C801E4E095958795EA9524
:1055A000E1F774E0000F111F7A95E1F7802B0E945C
:1055B000412A80EB96E360EA7FE00E946229E09155
:1055C0002A0AF0912B0A11921192F0932B0AE09380
:1055D0002A0AE25FF640E03FF1052CF087EA96E008
:1055E00060E00E9495181F910F91089580917803B3
:1055F000877090E08430910534F4813091054CF44B
:10560000892B21F00895049749F406C00E94BD2813
:1056100008950E948C2908950E94502A0895CF93DE
:10562000DF93EC019091270AE92FF0E0ED5DF54F53
:105630008091280A8083892F8F5F8093270A853085
:1056400040F09093270A8AEB96E060E00E9495185C
:1056500011C08091520662E30E949F0DE091270ADB
:10566000F0E0EE0FFF1FE75EF54FD183C0838FEBB5
:10567000FE011995DF91CF9108958091270A882323
:10568000E9F081508093270A8091520662E30E94DC
:105690009F0D1092290AE091270AF0E0DF01AD5D2D
:1056A000B54F8C918093280AEE0FFF1FE75EF54FF0
:1056B0000190F081E02D8EEB199508958DEC96E028
:1056C00060E00E94951808958F929F92AF92BF92CA
:1056D000CF92DF92EF92FF920F931F93CF93DF93BE
:1056E000182F7B014A015901C02E84FD04C005E03A
:1056F00074E0D72E05C01F70106604E065E0D62E5A
:105700008D2D8066181761F08D2D8064181741F07B
:105710009091F309992369F0133611F0133449F489
:10572000E70121968091520667E30E949F0D802F2A
:1057300018C0802F8066181761F0802F80641817BA
:1057400041F0992309F47FC0123619F0123409F0A0
:105750007AC0E7012197809152066DE20E949F0D69
:105760008D2D90E00E947E74882351F0CC27DD2798
:10577000CE19DF09802F0E94FF748D2D0E94FF74C7
:105780008114910491F481E0A816B10471F41036EB
:1057900061F41092F309C0E0D0E0E114F10411F4D7
:1057A000C1E0D0E080E60E94FF748091160A9091DB
:1057B000170AC81BD90BAC16BD064CF4812F0E94EA
:1057C000FF748091540667E30E949F0DE501C815A0
:1057D000D9054CF4812F0E94FF74809154066DE22C
:1057E0000E949F0DE401CE15DF05E9F0209771F4CA
:1057F000812F0E94F074F7FE04C08091540667E385
:1058000003C0809154066DE20E949F0D8C2D837021
:105810000E945362EC16FD0614F08FEF01C081E088
:105820008093180A02C01092180ACE01DF91CF911E
:105830001F910F91FF90EF90DF90CF90BF90AF90AE
:105840009F908F900895E7019BCF0F93772767FD77
:105850007095552747FD5095332727FD309501E07A
:105860000E94642B0F9108950F93772767FD709521
:10587000552747FD5095332727FD309502E00E94BC
:10588000642B0F910895FF920F931F93F82E162FFC
:10589000042F80E860E0412F50E0202F0E945870D4
:1058A0001A3010F485E701C08FE660E04FE2202F48
:1058B0000E943F6D1A3010F485E701C08FE64F2D2E
:1058C00050E04F5F5F4F60E0202F0E9458701F91A3
:1058D0000F91FF900895CF92DF92EF92FF920F9376
:1058E0001F93CF93DF93F82ED62EEA014115510571
:1058F00011F429E75CC08091280A882309F03EC092
:105900008091F509882309F039C084E6F816F9F08A
:10591000E5E6FE1611F042E032C0662361F081E058
:1059200090E0861B9109880F991FFA01E81BF90B7B
:10593000859194911BC081E090E0821B9109880FB2
:10594000991FFA01E81BF90B859194910FC070E043
:10595000822F90E001976817790764F4FB01319674
:10596000EE0FFF1FE40FF51F859194910E94AA2866
:1059700080E041C1FA0185919491F8CF40E0109206
:10598000F5098D2D622F0E94432C2091DF0F2E50A0
:105990008D2D90E0019666EF7FEF0E94FDB2CB0166
:1059A000880F991F880F991F860F971F280F89E866
:1059B0009AE0622F0E94BE670115110511F490E074
:1059C0000AC08091280A9E2D8E1508F4982FF801A0
:1059D000E90FF11D9491F0E6FF16C1F1FF15B8F043
:1059E00083E4F81609F4B7C08F1540F0E1E2FE1623
:1059F000E1F1F2E4FF1609F0DEC082C084E4F8169B
:105A000009F450C0E5E4FE1609F0D5C061C0F4E623
:105A1000FF1609F44CC0FF1548F082E6F81609F4A9
:105A200074C0E3E6FE1609F0C6C099C0F1E8FF169F
:105A3000C9F08FEBF81629F0E5E6FE1609F0BBC0B9
:105A40004CC01092290A1092280A13C0992309F415
:105A5000B2C090E08091F309882309F491E090931B
:105A6000F309A9C01092F3090DC08091F3098823AE
:105A700019F01092F3099FC08091280A882311F031
:105A8000209719F40E943D2B96C08091520662E344
:105A90000E949F0D1092290A1092280A80E6809396
:105AA00011108DC08091290A891709F484C0012B37
:105AB00009F481C08091F309882309F07CC08091AA
:105AC000290A891710F48F5F15C01092290A70C037
:105AD0008091290A882309F46EC0012B09F46BC058
