:100000000C94AA0C0C94C70C0C94C70C0C94C70C41
:100010000C94C70C0C94C70C0C94C70C0C94C70C14
:100020000C94C70C0C94C70C0C94C70C0C94C70C04
:100030000C9478100C94C70C0C94C70C0C94ED1015
:100040000C949D0F0C94C70C0C94C70C0C94C70C0B
:100050000C94C70C0C94C70C0C9461630C94C70CE3
:100060000C94C70C0C94BC0F0C94C70C0C94C70CCC
:100070000C94C70C0C94C70C0C94C70C0C94C70CB4
:100080000C94C70C0C94C70C0C94C70C8040000057
:1000900000000000000000000000000000F0080464
:1000A0000484444444444444444444444444444410
:1000B00044C4040488700000000000000000000038
:1000C000000000000404FC040400E050506000FE46
:1000D00000E050506000F01010E01010E000E05020
:1000E000506000FC1000F020100010E000E0100054
:1000F00000000018242424C400E050506000F020C8
:100100001000F400E05050600030509000000000FB
:1001100000000000000080808080808080BF8080A0
:1001200080BF808080800000304848484848484868
:100130004888090908F000000000000000000000E5
:1001400000000000000001000000000101010001AA
:1001500000000101010081F01819F0800100000188
:1001600001212020212021202020202423202020A4
:1001700020202021E12121202020212121202120B7
:1001800020202120202121212081C1010000000008
:1001900000F8FEFFFFFF0F0707070707073747872E
:1001A00087879797075FDFDFDFDED880101010109A
:1001B000100F0080403F80C0E0E0E06020000000C1
:1001C0000000000000000000000000007058484CD3
:1001D0004C474744464243FF0000FF4342464447E2
:1001E000474C4C48587000000000000000E0B01878
:1001F0000C0406878FBFEEFEF67E3C1C0C0C0C0C2C
:100200000C0C0C0C0C0C0C0C0E1F39608000000048
:10021000000107070F0F0F0E1E1E1E1E1E1E0E0EC4
:100220000E0E0E8ECEEEFCF973270F1F3F7EFCF9EB
:10023000F1F1F9FC3E1F0F07030100000000000070
:1002400000000000000000000000000000000000AE
:10025000000000008080407F00007F408080000020
:100260000000008080C0C040C0C0808810101D17F2
:1002700011111313131311171D101010000000009B
:10028000000000C0000000000000000000000000AE
:100290000000000000040C1C1C1C1C1C1E1E1E0E5A
:1002A0000E0F070703030180C0E0F0F87C3E1F0F2C
:1002B00007070F1F3F7EFCF8F0E0C0800000000041
:1002C000C020202020002020E0202000E0008040EE
:1002D0002000000302020202040402020202C140E2
:1002E00040FC3F7BB1E0AEA8EAEEA17B7FFC404042
:1002F000C0000000000000000000000080C0E0F02E
:10030000F8FCFFFF0000FEF8C00000000000000045
:1003100000000000000000000000000000000000DD
:10032000000000000C0E0F0F0F070301000000007B
:10033000000000000000000103070F0F0F0E0C006B
:1003400008090909060000000F0000000F0102045F
:1003500008000000000000000000000000000F384E
:1003600038FF9580B282FAAAFA82F29095FF383867
:100370000F00000000008010B074F67777F777F771
:1003800077F777F774F677F777F634B01000000058
:10039000000000000000000000000000000000005D
:1003A000000000000000000000000000000000004D
:1003B000000000E000000000E0000000000000007D
:1003C000000000000000000000000000000000002D
:1003D0000000000000000000000000000030282C99
:1003E000242F3F3607361F0E1F3607363F2F242C8B
:1003F000283000000000000100C1C0414140C1C0E0
:10040000414041C0C140C1C1C1C041C0C1000000A4
:10041000007F11110E000E11110E0007180C030EB3
:100420001807000E151516001F02010E15151600EF
:100430000E11111F000000001F11110E00014E309F
:100440000E01000000000E11110E007F11110E00B0
:100450000E151516001F01011E00000000131519CE
:10046000000E11110E000F10101F001F02010E11BF
:1004700011000E1515160000003F302F2F2B323FB4
:10048000203B3B3C3F202F2F3F262B2C3F00005290
:10049000554420454C45205448522041494C205257
:1004A00055442054485220454C452041494C204158
:1004B000494C20454C452054485220525544204137
:1004C000494C2054485220454C4520525544200068
:1004D00001020304010204030103020401030402F4
:1004E00001040203010403020201030402010403E4
:1004F00002030104020304010204010302040301D4
:1005000003010204030104020302010403020401C3
:1005100003040102030402010401020304010302B3
:1005200004020103040203010403010204030201A3
:100530000102030401030204040203010403020193
:1005400000000000000001081E640101081E640193
:10055000010F32960A0A1E329603010200040506B4
:1005600007707265737320616E79204B6579004165
:100570004C455254004D45535341474500506C651E
:10058000617365207265736574207468656D0053CE
:1005900077697463686573206E6F74206F66660098
:1005A000416C61726D732044697361626C656400B3
:1005B0005265736574207468726F74746C6500544E
:1005C00068726F74746C65206E6F742069646C65FA
:1005D00000507265737320616E79206B65792074A9
:1005E0006F20736B697000414C4552540045455073
:1005F000524F4D206C6F77206D656D005F2D2E2C56
:1006000000564552533A2056312E322D6772757678
:10061000696E00444154453A20323031312D313039
:100620002D32350054494D453A2032303A30383A6F
:100630003238002053564E3A206672736B792D7211
:10064000313138380020424C443A2032333900707E
:10065000756C736520746162206F766572666C6F6D
:1006600077006D656E75537461636B206F7665728C
:10067000666C6F77006D656E75537461636B207582
:100680006E646572666C6F77002D2D2D494E560095
:100690004F46464F4E2000B243F33F053D983A93F4
:1006A0003AA62DE62C502BFB29B12A6F29434C4545
:1006B0004152204D49584553205B4D454E555D00F4
:1006C00053696D706C6520342D434820542D43755B
:1006D0007420202020202020562D5461696C202079
:1006E00020202020456C65766F6E5C44656C7461DB
:1006F000654343504D2020202020202048656C6910
:100700002053657475702020536572766F20546590
:10071000737420200054454D504C415445530053B0
:1007200041464554592053574954434845530000C6
:10073000012D2D2D2D202020202020202020205470
:100740007261696E65722020202020202054726121
:10075000696E657220525544202020547261696E82
:10076000657220454C45202020547261696E657287
:1007700020544852202020547261696E65722041D5
:10078000494C202020496E7374616E742054726944
:100790006D20205472696D73324F66667365747391
:1007A000200046554E4354494F4E20535749544319
:1007B0004845530000012D2D2D2D202020763E6F21
:1007C00066732020763C6F667320207C767C3E6FBB
:1007D00066737C767C3C6F6673414E4420202020FB
:1007E0004F522020202020584F52202020207631A8
:1007F0003D3D7632207631213D76322076313E768F
:1008000032202076313C7632202076313E3D7632E1
:100810002076313C3D7632200053570043555354E7
:100820004F4D205357495443484553000002435607
:100830000043555256455300434F50592054524996
:100840004D205B4D454E555D002D2D2D494E5600DA
:100850004C494D49545300000303030303030303AE
:1008600003030303030303032F3332002F31340048
:100870004D495845520044522F4558504F002B3D8A
:100880002A3D3A3D00536C6F772020557000536C21
:100890006F772020446F776E0044656C6179205536
:1008A000700044656C617920446F776E0041646428
:1008B00020202020204D756C7469706C7952657011
:1008C0006C61636520004D756C747078004F46460E
:1008D000005761726E696E6700462E5068617365DD
:1008E0000053776974636800437572766573004FCF
:1008F0004E204F4646005472696D004F6666736520
:10090000740057656967687400536F75726365009A
:1009100045444954204D49582000494E53455254AE
:10092000204D495820005765696768744578706F95
:10093000202050686173652053777463682057687E
:10094000656E2020437572766520202020202020AF
:100950000044522F4558504F002D2D2D783E3078B1
:100960003C30004E6F2066726565206D6978657257
:1009700021004E6F2066726565206578706F2100DA
:1009800050524553455400454449542D3E0043556B
:10099000525645000900436865636B2020202020E3
:1009A0005472696D73002864656661756C74290002
:1009B000464C4947485420504841534553004661EE
:1009C0006465204F7574004661646520496E00546B
:1009D00072696D7300537769746368004E616D6569
:1009E000004544495420464C49474854205048410A
:1009F000534500060003504F534E45470053686966
:100A000066742053656C0075536563003443482059
:100A10003643482038434820313043483132434838
:100A200031344348313643480050504D2020205344
:100A3000494C565F4153494C565F4253494C565FAF
:100A4000435452414330390050726F746F00524525
:100A50005441313233004265657020437472004561
:100A60002E205472696D7300452E204C696D697497
:100A70007300457870202020457846696E65466988
:100A80006E6520204D656469756D436F6172736595
:100A9000005472696D20496E6300542D4578706F63
:100AA00000542D5472696D00436F756E7420446F4D
:100AB000776E436F756E7420557020200054696DF9
:100AC00065722000547269676765720054696D65CC
:100AD00072004E616D650053455455500000090188
:100AE00000000000000000060244454C455445202B
:100AF0004D4F44454C0066726565004D4F44454C72
:100B000053454C005B4D454E555D202020205B45F4
:100B10005849545D005B455849545D001208120065
:100B2000081C0808081C08000008220049002208C8
:100B30000000000000227F2200000008220049007F
:100B40002208000008220049002208000000227F3D
:100B500022000000000008220049002208000008CE
:100B60001C0808081C0800104AA0485D48C04747F8
:100B7000473146205B4D454E555D205748454E2038
:100B8000444F4E452000204D4F5645205354494375
:100B90004B532F504F5453200020202053455420B6
:100BA0004D4944504F494E5420202000205B4D4574
:100BB0004E555D20544F2053544152542020004341
:100BC000414C4942524154494F4E0041314132411A
:100BD000334134413541364137413800414E4100BF
:100BE0005472696D2D202B00204D656E752045785F
:100BF000697420446F776E202020557052696768B1
:100C000074204C6566740044494147004545505284
:100C10004F4D20760056455253494F4E0043616C6C
:100C2000004D756C7469706C69657200636831633E
:100C30006832636833636834006F6666202B3D203A
:100C40003A3D006D6F64652020202520737263009B
:100C5000536C61766500545241494E455200000282
:100C6000020202004D6F6465005278204368616E95
:100C70006E656C204F7264004E4F204441544120F9
:100C8000416C61726D00416C61726D205761726ED2
:100C9000696E67004D656D6F7279205761726E697C
:100CA0006E6700446F776E4F4646205570202000D7
:100CB000537769746368205761726E696E67005478
:100CC00068726F74746C65205761726E696E67002C
:100CD00053706C6173682073637265656E004F4674
:100CE00046004C69676874206F66662061667465AB
:100CF00072004C6967687420737769746368004692
:100D00006C617368206F6E20626565700042656576
:100D10007020636F756E74646F776E004D696E75C9
:100D200074652062656570005468726F74746C65D8
:100D300020726576657273650053494E474F534D77
:100D40005046494C540046696C74657220414443D6
:100D500000496E616374697669747920616C6172AF
:100D60006D0042617474657279207761726E696E8C
:100D70006700436F6E7472617374005175696574B6
:100D80004E6F4B65794E6F726D204C6F6E67207899
:100D90004C6F6E6700426565706572005241444950
:100DA0004F205345545550005B4D454E555D2074C2
:100DB0006F207265736574004672656520537461B7
:100DC000636B206D696E2020202062007431306DCD
:100DD0007320202020202020202020757300746D97
:100DE00061696E206D61782020202020206D7300C5
:100DF000746D7231204A69747465722020202075E8
:100E00007300746D72314C6174206D696E20202006
:100E100020757300746D72314C6174206D6178209F
:100E2000202020757300535441543200544F540015
:100E30005354250053544B0054535700544D450010
:100E40005354415400454550524F4D20466F726DEA
:100E5000617474696E670042616420454570726F09
:100E60006D204461746100454550524F4D20436FE1
:100E70006E76657274696E6700454570726F6D209D
:100E800044617461204572397800454570726F6D18
:100E9000204461746120763300454550524F4D2007
:100EA0006F766572666C6F77005008500000000026
:100EB000000000006F000007000700147F147F147B
:100EC000242A7F2A122313086462364955225000CF
:100ED00005030000001C2241000041221C001408F0
:100EE0003E081408083E08080050300000080808B2
:100EF000080800606000002010080402003E414124
:100F00003E0000427F400062514946004149493657
:100F1000001814127F0027454539003E4949320028
:100F2000017905030036494936000649291E0000AB
:100F300036360000005636000008142241141414FE
:100F40001414412214080002015109060609090679
:100F5000007E0909097E7F494949363E41414122C7
:100F60007F4141221C7F494949417F090909013ECE
:100F70004149497A7F0808087F00417F41002040AD
:100F8000413F017F081422417F404040407F020CD6
:100F9000027F7F0408107F3E4141413E7F090909DD
:100FA000063E4151215E7F091929462649494932A9
:100FB00001017F01013F4040403F1F2040201F3F73
:100FC0004030403F631408146307087008076151FC
:100FD000494543007F41410002040810200041417F
:100FE0007F0004020102044040404040000102042E
:100FF0000020545454787F484444383844444420B2
:10100000384444487F3854545418087E0901020C6F
:101010005252523E7F0804047800447D4000204034
:10102000443D007F1028440000417F40007C0418AC
:1010300004787C0804047838444444387C1414143C
:1010400008081414187C7C080404084854545420DC
:10105000043F4440203C4040207C1C2040201C3C5D
:101060004020403C44281028440C5050503C4464DC
:10107000544C44000836410000007F000000413617
:1010800008000808221C08081C220808A06080002C
:1010900000000000000000000000000000FEFE0054
:1010A00000000000003E7E00007E3E00006060FE0A
:1010B000FE6060FEFE606060F09898FEFE989818F2
:1010C000180C1E1E0C80C0E070381878FC8EC6E626
:1010D000763C180000000066763E1E00000000000E
:1010E00000E0F0381C0E0600000000060E1C38F070
:1010F000E000006060C080F8F880C06060808080A0
:1011000080F8F8808080800000000000000000006F
:1011100000808080808080808080800000000000CF
:1011200000000000000000000080C0E070381800DF
:1011300000000000000000000000000000717100CD
:101140000000000000000000000000000006067F14
:101150007F06067F7F0606181819197F7F19190F59
:1011600006181C0E070301307878301E3F71636744
:10117000663C3C66660000000000000000000000C5
:1011800000070F1C387060000000006070381C0FF2
:10119000070000060603011F1F01030606010101E7
:1011A000011F1F01010101000066763E1E000000C4
:1011B0000001010101010101010101000030787805
:1011C0003000000000181C0E0703010000000000A2
:1011D00000F8FC0E06060EFCF80000181CFEFE00CF
:1011E0000000000000181C0E0686CEFC78000006E9
:1011F00006868686CEFC78000080C0E070381CFE33
:10120000FE00007E7E666666E6C6860000F8FC8EFE
:1012100086868E1C180000060686C6E6763E1E00F0
:101220000078FCCE8686CEFC78000078FCCE8686E0
:10123000CEFCF8000030787830000000000000306C
:1012400078783000000000000080C0E070381C0E8C
:101250000660606060606060606060060E1C3870F0
:10126000E0C0800000181C0E06060686CEFC780042
:10127000001F3F706060703F1F000060607F7F60F4
:101280006000000000787C6E676361606000006051
:1012900060616161733F1E00000707060606067F56
:1012A0007F00001838706060703F1F00001F3F71A2
:1012B0006161733F1E000000007F7F00000000009E
:1012C000001E3F736161733F1E00000000617139B1
:1012D0001D0F0700000C1E1E0C0000000000006621
:1012E000763E1E0000000000000103070E1C38704F
:1012F00060060606060606060606066070381C0E20
:101300000703010000000000006667030100007889
:10131000FCCE8686CEFC780000E0F0B89C8E8E9CD9
:10132000B8F0E0FEFE8686868686CEFC78F8FC0E57
:10133000060606060E1C18FEFE0606060E1C38F0F3
:10134000E0FEFE8686868686860606FEFE86868603
:101350008686860606F8FC0E068686868E9C98FE95
:10136000FE808080808080FEFE00000606FEFE0675
:10137000060000000000000606FEFE0606FEFE80D7
:10138000C0E070381C0E06FEFE00000000000000E9
:1013900000FEFE1C38F0F0381CFEFEFEFE70E0C0C1
:1013A000800000FEFEF8FC0E060606060EFCF800A5
:1013B0000001010101000000007F7F010101010126
:1013C000017F7F7F7F6161616161733F1E1F3F709D
:1013D000606060607038187F7F60606070381C0FDC
:1013E000077F7F61616161616160607F7F010101F1
:1013F00001010100001F3F7060616161717F3F7FEB
:101400007F0101010101017F7F000060607F7F603B
:101410006000001838706060703F1F00007F7F011F
:1014200003070E1C3870607F7F60606060606060E2
:10143000607F7F0000010100007F7F7F7F0000014F
:1014400003070E7F7F1F3F7060606060703F1FFE6C
:10145000FE8686868686CEFC78F8FC0E0606060694
:101460000EFCF8FEFE8686868686CEFC7878FCCE5C
:10147000868686868E1C1806060606FEFE0606066C
:1014800006FEFE000000000000FEFEFEFE00000062
:10149000000000FEFEFEFE000000000000FEFE1E3A
:1014A0003E70E0C0C0E0703E1E7EFEC08000008046
:1014B000C0FE7E0606060686C6E6763E1E0000FED6
:1014C000FE060606060000183870E0C08000000026
:1014D00000000006060606FEFE00006070381C0EC6
:1014E0000E1C387060000000000000000000007F4B
:1014F0007F01010101010100001F3F7060666E3C29
:10150000387F677F7F0101070F1D397060183871C0
:1015100061616161733F1E000000007F7F00000079
:10152000001F3F7060606060703F1F070F1C3870C5
:1015300070381C0F071F3F70703E3E70703F1F7861
:101540007C0E070303070E7C78000001037F7F03F6
:10155000010000787C6E6763616060606000007FFE
:101560007F606060600000000000000103070E1C47
:10157000180000606060607F7F00000000000000D5
:10158000000000000060606060606060606060009B
:1015900000060E1C38706000000000606060606033
:1015A000E0C080FEFE80C0E06060E0C08080C0E0FF
:1015B0006060606060000080C0E06060E0C080FE4D
:1015C000FE80C0E060606060E0C0808080F8FC8EDB
:1015D00086060E1C18E0F0381818181818F8F8FECF
:1015E000FE80C0E06060E0C08000006060E6E60071
:1015F000000000000000006060E6E60000FEFE0063
:101600000080C0E060000000000606FEFE00000052
:1016100000E0E060E0C0C0E0E0C080E0E080C0E06A
:101620006060E0C08080C0E060606060E0C080001A
:10163000000000000000000000183C7E6666666640
:10164000667F7F7F7F6161606060703F1F1F3F70BA
:10165000606060607038181F3F7060606061617F1B
:101660007F1F3F766666666666070701017F7F011A
:10167000010000000001036766666666763F1F7F13
:101680007F0101000000007F7F000060607F7F60BD
:101690006000001838706060703F1F00007F7F0698
:1016A0000F1F3970600000000060607F7F60600085
:1016B000007F7F0000070700007F7F7F7F01010020
:1016C0000000007F7F1F3F7060606060703F1FE020
:1016D000E06060606060E0C08080C0E0606060C02A
:1016E00080E0E0E0E080C0E06060E0C08080C0E0DA
:1016F000606060606000006060FEFE60600000008E
:1017000000E0E0000000000000E0E0E0E000000099
:10171000000000E0E0E0E0000000000000E0E06029
:10172000E0C080000080C0E060E0E0000000000059
:1017300000E0E0606060606060E0E0E06000008029
:10174000C0787C0E06000000000000FEFE000000D5
:10175000000000060E7C78C0800000808080801829
:1017600038F0E0C08080C0E0F03818808080807F52
:101770007F0606060606070301010307060606079D
:10178000077F7F7F7F010100000000010161636727
:10179000666666667E3C1800001F3F7060607038A9
:1017A000181F3F7060607038187F7F070F1C3870FB
:1017B00070381C0F071F3F7070383870703F1F6003
:1017C00070391F0F0F1F3970600103676666666608
:1017D000763F1F6070787C6E676361606000000117
:1017E000031E3E70600000000000007F7F000000CC
:1017F00000000060703E1E0301000001010101189D
:101800001C0F0703010103070F1C18010101014F01
:101810004646414253525573525525454C73454CEB
:1018200025544873544825414C73414C2550312070
:10183000503125503220503225503320503325006E
:1018400063002D2D2D783E30783C307C787C663ED0
:1018500030663C307C667C004650002D2D2D0054B7
:101860004852525544454C45494430494431494415
:101870003241494C47454154524E535731535732E8
:1018800053573353573453573553573653573753AA
:101890005738535739535741535742535743004FC3
:1018A0004646004F4E20002D2D2D004D4F44454CF7
:1018B00000524554410043480050504D00503120E3
:1018C0002050322020503320204D41582046554C86
:1018D0004C435943314359433243594333002D2D2F
:1018E0002D2D00408008042010020112191E192419
:1018F000192B1938193E1949199C1432465A5A465F
:1019000032465AECEC003C649CC4003C649C0000F1
:10191000006453696D706C6520342D434800542D6C
:1019200043757400562D5461696C00456C65766F83
:101930006E5C44656C746100654343504D004865BE
:101940006C6920536574757000536572766F20540E
:101950006573740011241FBECFEFD0E1DEBFCDBF91
:1019600011E0A0E0B1E0E6E1F6ED02C005900D92D5
:10197000A831B107D9F71DE0A8E1B1E001C01D927F
:10198000A838B107E1F70E940E230C94096B0C9460
:10199000000099E28902900111243595279535952B
:1019A000279587FD815C86FB880F880B80F9992736
:1019B00087FD9095281B390BC9010895982F803217
:1019C00001F181548A3110F48F5F0895892F815677
:1019D0008A3120F4892F80958F590895892F80535B
:1019E0008A3010F4855E0895ECEFF5E080E02491F4
:1019F000291711F48B5D08953196222311F08F5F22
:101A0000F6CF80E00895E82F8823D9F087FF07C03C
:101A1000863E1CF080E68E1B0895E19504C08B3154
:101A200014F4805C0895E5321CF48E2F8B5E0895CB
:101A3000E9323CF4FF27E7FDF095E952FA4F849133
:101A4000089580E208959DE0899F9001112420511E
:101A50003C4FC9010895282F30E0220F331F220F79
:101A6000331F27513D4FC901089599E0899F900187
:101A7000112427583E4FC901089595E0899F900190
:101A8000112427563D4FC90108959C0140E068305C
:101A900008F041E070E0442371F0CB010897FC01AD
:101AA00063E0EE0FFF1F6A95E1F7E80FF91FDF0112
:101AB000A75BBC4F0AC0FB01EE0FFF1FEE0FFF1F1D
:101AC000E60FF71FDF01AF5DBC4FFD0180812050A5
:101AD0003C4F37FD0EC068E02030360784F04423C9
:101AE00019F484E090E002C088E090E0A80FB91FEC
:101AF0008C91992787FD9095582F442733C0442314
:101B000031F0432FB9017070660F771F04C0432F67
:101B10004695B9017170842F90E0FD01E80FF91F1F
:101B20008181992787FD90959B0135952795829F07
:101B3000A001839F500D929F500D112420813327C7
:101B400027FD309580E092E0861B970B9595879551
:101B5000BC01269FC001279F900D369F900D112438
:101B6000480F591FCA0169E170E00E947E6ACB01EB
:101B700008959C01633031F1643028F4613051F0F4
:101B8000623090F43CC0653039F1653008F1663060
:101B900061F525C0493029F497FD24C0205032401A
:101BA0000AC097FF2CC026C0493041F41816190608
:101BB00024F120503E4F220F331F21C01816190662
:101BC000CCF01DC097FF1BC0309521953F4F17C02B
:101BD0001816190694F00EC097FF0CC003C0181613
:101BE00019065CF020E03CEF0AC067500E94450DEA
:101BF0009C0105C020E030E002C020E034E0C901D3
:101C000008956F927F928F929F92AF92BF92CF92E0
:101C1000DF92EF92FF920F931F933B017C0100E054
:101C200010E08824992464E670E080E090E0661972
:101C3000770988099909A80197010E944B6A5B01FD
:101C40006C0182E390E0A0E0B0E0A80EB91ECA1ECD
:101C5000DB1EC801B7010E944B6A0E944B6ABC019F
:101C600088279927A40193010E944B6AE4E0969586
:101C7000879577956795EA95D1F7A60EB71EC81E8A
:101C8000D91EC601B50124E630E040E050E00E94D4
:101C9000916AC9011F910F91FF90EF90DF90CF9053
:101CA000BF90AF909F908F907F906F900895FF921C
:101CB0000F931F939C01AB016115710531F1FF2456
:101CC00097FF05C0FF24F394309521953F4F57FFB0
:101CD00010C000E014E066277727641B750BC8016D
:101CE000821B930B0E94010E9801281B390BC9011E
:101CF00004C0C901BA010E94010EFF2011F49C0129
:101D000004C022273327281B390BC9011F910F91CB
:101D1000FF900895E82F873050F48091650788235D
:101D2000A9F5F0E0EE0FFF1FE654F84F2BC0893005
:101D300018F4E0E0F4E02CC0803180F4F0E0EE0F25
:101D4000FF1FDF01AE5CBE4FE65CF84F0190F081F3
:101D5000E02D8D919C91E81BF90B0AC0843158F459
:101D6000F0E0EE0FFF1FE65CF84F0190F081E02DF0
:101D7000EE0FFF1F0DC0843248F4F0E0EE0FFF1F9E
:101D8000E056F84F0190F081E02D02C0E0E0F0E075
:101D9000CF0108951F93162F0E94230DFC01A12F40
:101DA000B0E02481332727FD3095CD01880F991F9E
:101DB00002C0359527958A95E2F723703070AE0FF3
:101DC000BF1F8C91992787FD9095880F991F880FC9
:101DD000991F280F391FC9011F910895E9E5F5E002
:101DE000E80FF11DE491F0E0EE0FFF1FEE58F84F01
:101DF00020813181C9010895A2E7B7E0E2E8F7E068
:101E000060E0862F806487B9369A349BFECF349A7F
:101E1000208931898D919C91119796958795820F94
:101E2000931F8E7F8D939D9340815181240F351F89
:101E300036952795318B208B84B195B1840F951FF2
:101E400096958795819391936F5F6830D1F6089549
:101E5000DF93CF93CDB7DEB760970FB6F894DEBFB0
:101E60000FBECDBFFE01319680E1DF011D928A9544
:101E7000E9F7A2E7B7E050E0852F806487B92081B9
:101E8000318140E0369A349BFECF349A84B195B1CB
:101E9000280F391F4F5F4430A9F7219331933695AE
:101EA00027952D933D935F5F583031F760960FB6BD
:101EB000F894DEBF0FBECDBFCF91DF910895E2E76A
:101EC000F7E020E0822F806487B9369A349BFECFFA
:101ED000349A84B195B1880F991F819391932F5FA4
:101EE000283081F708958EE587B98AE18A95F1F760
:101EF000369A349BFECF349A84B195B190934E04B8
:101F000080934D0408951092640410925D04109221
:101F10005C04109261041092600410925F041092AD
:101F20005E04109263041092620408951092680493
:101F300010926A041092690408951F920F920FB6CE
:101F40000F9211248F93809164078F5F80936407B1
:101F50008F910F900FBE0F901F90189540916407BE
:101F600022B7809164074817C9F7942F80E030E0CA
:101F7000282B392BC90108951F920F920FB60F928B
:101F800011242F933F934F935F936F937F938F937E
:101F90009F93AF93BF93CF93DF93EF93FF93C09142
:101FA0008000D091810080917D008F7D80937D00A5
:101FB000789480916607909167079E01281B390BE2
:101FC00036952795C901815A9F408F5D9E4220F426
:101FD00081E0809362072EC040916207842F815078
:101FE000883040F5C901815293408757954000F5EC
:101FF000E42FF0E0EE0FFF1FE05BF84F2C5D354063
:1020000080916201992787FD90950A96BC01269FD1
:10201000C001279F900D369F900D11246AE070E05B
:102020000E947E6A718360834F5F4093620702C0A3
:1020300010926207D0936707C0936607F894809167
:102040007D00806280937D00FF91EF91DF91CF91C1
:10205000BF91AF919F918F917F916F915F914F91C0
:102060003F912F910F900FBE0F901F901895E9E8A8
:10207000FDE001C0319680818535E1F39F0128584C
:102080003D40C9010895EF92FF920F931F93062FD1
:102090007A010E94230DDC0110E0FC01E00FF11F2A
:1020A000C70195958795959587958083000F111F9A
:1020B00083E090E0002E02C0880F991F0A94E2F797
:1020C000809514962C911497822393E0E922FF24A3
:1020D00002C0EE0CFF1C0A95E2F78E0D14968C934D
:1020E00082E00E94CE521F910F91FF90EF900895D1
:1020F0001F920F920FB60F9211242F933F934F937D
:102100005F936F937F938F939F93AF93BF93EF935F
:10211000FF9380E09CB5992319F48F5F8530D1F748
:1021200080913F04292F981708F4282F20933F040B
:1021300020914004892F291708F4822F80934004AE
:1021400080916A07882321F0C09A10926A0704C020
:10215000C09881E080936A07A0910801B0910901BD
:10216000FD01819191919BBD8ABDF0930901E0939E
:10217000080112968D919C911397892BC1F488EEDA
:1021800094E09093090180930801809173018295F6
:10219000817080936A07F89487B78F7E87BF7894A1
:1021A0000E941C26F89487B7806187BF789480913D
:1021B0006307816080936307FF91EF91BF91AF91B7
:1021C0009F918F917F916F915F914F913F912F914F
:1021D0000F900FBE0F901F90189578941F920F923A
:1021E0000FB60F9211242F933F934F935F936F93EA
:1021F0007F938F939F93AF93BF93CF93DF93EF938F
:10220000FF93F89487B78D7F87BF81B78E5F81BFBB
:10221000789480914504882359F080910001909131
:102220006907890F8093690787FF02C01B9A01C065
:102230001B98809107018150809307018F5F09F0FF
:1022400062C08DE480930701F894CCB5DDB5789435
:1022500090914704992369F080915604882329F4CA
:102260009093560481E080935704915090934704D3
:1022700021C0309155043323B9F020915604222314
:1022800099F090E080915704882309F491E09093AD
:102290005704992309F428E020934704992351F027
:1022A00031503093550406C01092560410925704D2
:1022B0001092460480915704882391F0809146043F
:1022C000882311F490E004C09091680781E098277A
:1022D00090936807992321F481E08093450402C01C
:1022E000109245040E94F664809163078260809397
:1022F0006307F8948CB59DB578948C1B9D0B9093D7
:10230000440480934304F89487B7826087BF78942D
:10231000FF91EF91DF91CF91BF91AF919F918F91FD
:102320007F916F915F914F913F912F910F900FBED1
:102330000F901F9018950F931F938C010E94566366
:1023400082E260E045E755E024E00E940D5E80E017
:1023500068E1A8010E94485E0E94BF618091460129
:102360000E94B5611F910F91089586B380958E7775
:10237000E1F70E94AE630895EF92FF920F931F93CF
:102380008C017B010E94566382E260E047EE55E0DB
:1023900024E00E940D5E80E060E2A8010E94485E99
:1023A00080E068E2A7010E94485E80E060E341EDC2
:1023B00055E00E94485E0E94BF61809146010E94E4
:1023C000B5610E94B5111F910F91FF90EF90089594
:1023D000AF92BF92CF92DF92EF92FF920F931F9333
:1023E000CF93DF93D82EA42E85E0841708F4F1C094
:1023F000DD2009F4F1C086E1D81609F4ECC08AEEBC
:10240000D81609F4E6C08D2D875F8331A0F42D2DF9
:10241000332727FD30951D144CF08DE090E0821B92
:10242000930B0E944D6461E06827D6C0C9010D96E8
:102430000E944D64AAC08D2D992787FD909597FF26
:1024400003C0909581959F4F56EFE52E5FEFF52ED7
:10245000E80EF91ED701AA0FBB1FAE0DBF1DAB5969
:10246000BE4FA25DBD4F8C91AE52B240882309F49D
:10247000B0C0FD01E45DFD4FC080ED01C35DDD4FE7
:10248000B880853008F4B4C0883028F400E010E04B
:1024900040E050E00AC08C2D81500E948A0E8C01D1
:1024A000888181500E948A0EAC01E701CC0FDD1FAC
:1024B000CE0DDF1DCD56DC4F2881283088F4253025
:1024C00008F049C0223031F1233020F4213009F0E6
:1024D00080C01CC0233011F1243009F07AC029C01B
:1024E0002A3009F462C02B3038F4283009F453C084
:1024F000293009F06EC054C02C3009F460C02C3073
:1025000008F458C02D3009F064C05EC01D140CF4EE
:102510004CC05AC01D140CF44DC051C020E0C8017D
:1025200017FF03C0909581959F4F4817590764F492
:102530000AC020E0C80117FF03C0909581959F4F06
:10254000841795070CF421E01D1414F4622F44C085
:1025500061E0622741C01A2D1F5F8C2D60E0412F82
:102560000E94E811082F8B2D60E0412F0E94E81196
:102570009881953031F4002361F1682F882361F14F
:102580002AC0963021F4002331F5682F25C060E081
:10259000081709F521C060E004171507E9F41BC00E
:1025A00060E004171507B9F417C060E04017510741
:1025B0009CF411C060E00417150774F40CC060E0CF
:1025C000041715074CF007C060E04017510724F0CE
:1025D00002C060E001C061E0862FDF91CF911F91C2
:1025E0000F91FF90EF90DF90CF90BF90AF90089544
:1025F0008C2D81500E948A0E8C0188810E94C90C0A
:1026000053CF0F931F93CF93DF93082F10916F0138
:10261000110F1595812F992787FD909597FF03C07E
:10262000909581959F4F85970CF43FC02091860D22
:102630003091870D8091830D9091840D282B392B3B
:102640008091810D9091820D282B392B8091850DE1
:1026500090E0282B392B80917E0D90E0282B392B90
:10266000232B39F410927E0D17FF03C081E0809375
:102670007E0D11161CF4812F845202C0812F8C5DB7
:1026800060E040E00E94E811282F882361F08091EB
:102690007E0D882341F490E08091850D882309F414
:1026A00091E09093850D20937E0DC091860DD09181
:1026B000870D2196D093870DC093860DE091830DF1
:1026C000F091840DE00FF11DF093840DE093830DE4
:1026D000F8948091740D9091750D78942091810DEE
:1026E0003091820D821B930B8436910508F44CC106
:1026F0002C593F4F3093820D2093810DCF01BE01A5
:102700000E946A6A062F862F90E09C012C9FC001D0
:102710002D9F900D3C9F900D1124E81BF90BF09319
:10272000840DE093830D1092870D1092860D912FEA
:10273000915F9F3118F41092850D0FC0812F8C5D31
:10274000893458F4111614F4835301C0892F60E0C2
:1027500040E00E94E8118093850D80915A04909189
:102760005B04019690935B0480935A0460915C042F
:1027700070915D046F5F7F4F70935D0460935C04A4
:10278000002349F080916004909161040196909338
:102790006104809360048091850D882349F08091C5
:1027A0005E0490915F04019690935F0480935E04B1
:1027B00006954091620450916304400F511D50935F
:1027C000630440936204E0917001F0917101F09311
:1027D0006604E093650480916F01880F85959927C1
:1027E00087FD909597FF03C0909581959F4F882313
:1027F00019F41092640422C0813021F4CF01861BA9
:10280000970B18C0803170F480FF07C0CA0164E0E4
:10281000969587956A95E1F709C08091600490913B
:10282000610404C080915E0490915F049F01281BA5
:10283000390BC90190936604809365048091640408
:10284000813051F0813018F0823001F510C0809154
:102850006F018F77D9F017C080916504909166045D
:10286000181619069CF0309789F082E00DC080910F
:10287000650490916604855C9F4F1CF483E080930F
:102880006404309719F481E0809364042091650416
:102890003091660480917A0D90917B0D8217930799
:1028A00009F464C090916404913009F04CC08091A7
:1028B0005E0182FF32C0309781F12E31310521F463
:1028C00082E0809355040CC02431310519F49093B3
:1028D000550406C02A30310519F0243031053CF486
:1028E00080914A048093470482E3809300018091A1
:1028F0005E0183FF12C02E31310549F024313105CC
:1029000031F02A30310519F02430310534F482E3F6
:1029100090E0909354048093530480915E0181FF72
:1029200025C080916F0187FF04C0CF01821B930BEC
:1029300001C0C9016CE370E00E946A6A892BB1F49E
:1029400080914A0404C0923089F480914B048093B2
:10295000470482E38093000180915E0183FF06C0FB
:1029600082E390E0909354048093530430937B0D62
:1029700020937A0D80916F0187FF06C0E21BF30B55
:10298000F0936604E0936504DF91CF911F910F915E
:10299000089520916F01220F2595822F992787FD99
:1029A000909597FF03C0909581959F4F8230910538
:1029B0009CF1213F8CF120317CF5273F94F02A30A7
:1029C00084F4E0915C01F0E0EE0FFF1FEE0FFF1FBB
:1029D00095958795E80FF91FE15DFA4FE491F0E0D6
:1029E00003C0FC01F595E7953197EE0FFF1FE65404
:1029F000F84F0190F081E02D27FF05C080E094E0C2
:102A00008E1B9F0B03C0CF0180509C4F26E09695F4
:102A100087952A95E1F702C080E090E00E940113BB
:102A2000E0915C01F0E0EE0FFF1FEE0FFF1FEE5C88
:102A3000FA4FE491F0E0EE0FFF1FE854F84F0190D9
:102A4000F081E02D80915E0180FF05C080E094E080
:102A50008E1B9F0B03C0CF0180509C4F60917F0D58
:102A60007091800D6F5F7F4F7093800D60937F0D2D
:102A7000AC01E6E056954795EA95E1F780917C0D2B
:102A800090917D0D480F591F50937D0D40937C0D03
:102A9000F8948091740D9091750D78942091780D33
:102AA0003091790D821B930B885E934098F1F894D6
:102AB0008091740D9091750D78949093790D809319
:102AC000780D10927D0D10927C0D1092800D109259
:102AD0007F0D8091E6049091E70401969093E704BE
:102AE0008093E6042091E4043091E504F901E4596F
:102AF000FB4FCA010E946A6A60832F5F3F4F309389
:102B0000E5042093E4042837310520F01092E50411
:102B10001092E4040895EF92FF920F931F93CF93C6
:102B2000DF93C5EDD3E071E0E72EF12C288122235D
:102B300011F189818823F9F090E00197870102C0A3
:102B4000000F111F8A95E2F7822F60E040E00E949B
:102B5000E8112091500730915107882319F0202B5C
:102B6000312B05C0C80180959095282339233093D7
:102B7000510720935007229683E0CD3ED807B1F647
:102B8000DF91CF911F910F91FF90EF900895FF92E9
:102B90000F931F938C01F62E0E94566382E260E031
:102BA0004FE655E024E00E940D5E80E060E2A8015F
:102BB0000E94485E8CE168E341E655E00E94485E71
:102BC0000E94BF61FF2011F089E102C0809146019F
:102BD0000E94B56180914C048093470482E3809306
:102BE00000010E94B51186B380958E7799F480918B
:102BF000490160E040E00E94E811882331F48091AF
:102C00006001882311F4FF2019F0C79AA895EBCF33
:102C1000C798FCCF1F910F91FF90089580915B01A1
:102C200087FD07C0887329F480EA95E060E00E9480
:102C3000C715089580915B0186FD0AC00E94B258B5
:102C4000883C910528F48DEE95E060E00E94C71560
:102C500008950F931F9380915B018670A9F18FE80F
:102C600095E06DE775E00E94BC1100E080915B018A
:102C70008670823009F401E01EE00BC0113141F092
:102C8000812F8D5060E040E00E94E811801729F408
:102C90001F5F163198F31631B9F086B380958E77A1
:102CA00099F406C080916001882359F0C79A0AC040
:102CB0008091490160E040E00E94E8118823B1F76B
:102CC000F1CFC7981EE0DCCF1F910F9108950F93AD
:102CD0001F93CF93DF9380915B0180FD44C080916F
:102CE0005C0190E08170907002E010E0081B190B0D
:102CF000F801EE0FFF1FE85EFE4FC181D2816096A2
:102D000087859089C81BD90B0E945F0F102F802FD9
:102D10000E94EE0EC817D90734F58FEB95E060EBF3
:102D200075E00E94BC110E945F0F812F0E94EE0E81
:102D3000C817D90724F486B380958E7749F00E948E
:102D4000B51111C080916001882359F0C79AEBCF6B
:102D50008091490160E040E00E94E8118823B1F7CA
:102D6000F1CFC798E0CFDF91CF911F910F910895D8
:102D7000AF92BF92CF92DF92EF92FF920F93CF93D9
:102D8000DF9380915E0184FD70C08091490160E015
:102D900040E00E94E811882329F480916001882393
:102DA00009F456C0C79A0E94566380E060E04CE880
:102DB00050E020E000E00E94F55C0E94BF6180913D
:102DC00046010E94B5610E94B5110E94FC0E0F5F82
:102DD0000032D9F700E0AA24BB24802F0E94EE0E17
:102DE000C92FD0E0AC0EBD1E0F5F0430B1F7F894D0
:102DF000C090740DD090750D789480E991E0C80E64
:102E0000D91E1CC00E94FC0E00E0C0E0D0E0802F64
:102E10000E94EE0EE92EFF24CE0DDF1D0F5F043061
:102E2000B1F786B380958E7701F5CA15DB05E9F415
:102E300011C0809160018823B1F0C79AF894809105
:102E4000740D9091750D7894C816D906D9F60DC0F9
:102E5000C798A9CF8091490160E040E00E94E81145
:102E6000882359F7E6CFC798E9CFDF91CF910F912B
:102E7000FF90EF90DF90CF90BF90AF9008951F9399
:102E8000CF93DF93C2E0D4E011E08881882359F02A
:102E900060E040E00E94E811882329F0812FDF9153
:102EA000CF911F9108951F5F2D96153071F710E097
:102EB000F5CFEF92FF920F931F93E82E162F6F3FDF
:102EC00019F40E943F17182F00E01123D9F0F12EBA
:102ED000812F6E2D0E94CA0EAC0181E0453F58073C
:102EE00094F0642F655F262F30E0812F992787FDAE
:102EF0009095281739070CF06F5F0F5F053011F0C0
:102F0000162FE3CFFF248F2D1F910F91FF90EF908D
:102F10000895DF92EF92FF920F931F93CF93DF9369
:102F2000F82E082F0F70065010917301177008309B
:102F300008F0BFC0E02EE5948E2D6FEF0E94591768
:102F4000D82E6E2D0E94CA0EBC01112389F477FF82
:102F500004C088279927861B970B9595879595958B
:102F6000879501968132910584F080E290E00DC052
:102F7000212F332727FD30952150304081E090E00C
:102F800002C0880F991F2A95E2F7482F80915C01B3
:102F900090E08170907022E030E0281B390B8E2D7C
:102FA00090E02817390739F48091720186FF03C039
:102FB00044E021E001C020E0552747FD509500FF87
:102FC00007C0EA01C60FD71F10E083E89FEF04C0D7
:102FD000EB01C41BD50BF8CF009719F4222329F07D
:102FE00015C03FEF8338930749F0C817D9071CF085
:102FF000681779074CF08D37910541F08C179D07C4
:103000002CF08617970714F4EC0111E083589F4FBA
:103010008A3F910509F76C177D0724F4CE37D10557
:1030200044F40CC0C617D7074CF48FEFC338D80749
:103030002CF48091730186FFEB0111E03EEFCC3060
:10304000D3071CF4CCE0DEEF06C081E0C53FD80713
:1030500014F0C4EFD1E08D2D6E2DAE010E9443100F
:10306000CE37D1051CF0CDE7D0E006C03FEFC33826
:10307000D30714F4C3E8DFEFCE0164E070E00E94F0
:103080007E6AEB01EC96112341F08F2D0E94D464EF
:103090001092460480914A0407C0F6FE03C081E006
:1030A000809346048091480480934704C0930001B4
:1030B000FF248F2DDF91CF911F910F91FF90EF9003
:1030C000DF9008954F925F926F927F928F929F92BE
:1030D000BF92CF92DF92EF92FF920F931F93CF9305
:1030E000DF933C01A2EBB7E0FC0188E001900D9278
:1030F0008150E1F70E943F179CEEC92E92E0D92E35
:10310000BB24BA94C0E0D0E002E0402E512CE82E5F
:10311000FF240894E11CF11CFE01EE0FFF1FEE0FCF
:10312000FF1FE751FD4F2081822F837009F4C8C033
:1031300026952695237030E08B2D992787FD909555
:103140002817390709F4B3C08181807E99F0828104
:1031500080FD10C0FE01EE0FFF1FEE0FFF1FE651B6
:10316000FD4F808182958695877090E0E816F9067C
:1031700009F09DC0FE01EE0FFF1FEE0FFF1FE6518D
:10318000FD4F8081880F880F880F859585958595DF
:1031900061E040E00E94E811882309F488C0FE0144
:1031A000EE0FFF1FEE0FFF1FE751FD4F8081B82E7E
:1031B000B694B69493E0B9220B2D112707FD109514
:1031C000F801EE0FFF1FEE54F84F0190F081E02D53
:1031D0008370F7FF03C080FD03C069C081FF67C033
:1031E000D6018C91282F332727FD309580915C01E3
:1031F00090E0817090704201881A990A80169106B9
:1032000099F48091720187FF0FC0CF0180509C4FCD
:1032100062E070E00E947E6ACB01B9010E94570E05
:103220009C01220F331F05C0CF01B9010E94570E28
:103230009C01FE01EE0FFF1FEE0FFF1FE751FD4F38
:103240006081862F807F39F062956F70C90140E000
:103250000E94B90D9C01B901882777FD8095982FB0
:10326000FE01EE0FFF1FEE0FFF1FE551FD4F208106
:10327000269530E040E050E00E944B6A24E630E0C2
:1032800040E050E00E94B36A8016910631F48091CC
:10329000720187FF02C020503440EB2DFF27E7FD6D
:1032A000F095EE0FFF1FE60DF71D31832083219669
:1032B00084E090E0C80ED91ECE30D10509F02CCFA5
:1032C000DF91CF911F910F91FF90EF90DF90CF9002
:1032D000BF909F908F907F906F905F904F900895D8
:1032E0003F924F925F926F927F928F929F92AF9296
:1032F000BF92CF92DF92EF92FF920F931F93CF93E3
:10330000DF933090650769E1C62E61E0D62E58ED57
:10331000852E55E0952E4AEBA42E47E0B42E2401CD
:10332000EE2400E010E031E0632E712CF02E802FAF
:103330000E94EE0E9C01D6018D919C911197281B45
:10334000390B121613062CF45C96ED91FC915D97E7
:1033500005C0D6011E96ED91FC911F97E436F1054C
:1033600014F4E4E6F0E0B901882777FD8095982F02
:103370002AE0660F771F881F991F2A95D1F79F01B2
:10338000442737FD4095542F0E94B36AE901BCEFF2
:1033900021303B071CF4C0E0DCEF06C0E4E0203045
:1033A0003E0714F0C0E0D4E0D501CD93DC93CE010C
:1033B0000F964F9710F504301105BCF4E0915C01B5
:1033C000F0E0EE0FFF1FEE0FFF1FE00FF11FE05DBB
:1033D000FA4FE4918E2F90E00197F30102C0EE0FB7
:1033E000FF1F8A95E2F7CF0107C0C301002E02C07C
:1033F000880F991F0A94E2F7E82AF3E0FF1508F412
:1034000056C0332009F053C00F5F1F4FC301002E79
:1034100002C0880F991F0A94E2F7015010408160A2
:10342000209150073091510782239323892B09F46F
:103430003EC0F801EE0FFF1FEE5AFE4FF0808F2DB9
:10344000807CA9F1EF2DEF73F0E0EE0FFF1FDF019D
:10345000A65BBE4FEE5AF84F608171812D913C9171
:10346000621B730B882777FD8095982FD601DA961B
:103470002C91332727FD3095432F532F0E944B6A01
:1034800022E330E040E050E00E94B36AF294F69408
:10349000F69463E0F622EF2DF0E0E130F10519F04B
:1034A000329729F403C0C20FD31F01C0E901F20112
:1034B000C193D1932F010F5F1F4F22E030E0C20E66
:1034C000D31EA20EB31E0730110509F02FCF88EDD1
:1034D00095E00E94621850E2A52E56E0B52E00E05D
:1034E00010E042E0442E512C612C34E0732ED401C4
:1034F000CD91DC91802F6FEF0E945917602F0E94B1
:10350000CA0E6C0180915C0190E081709070F201B4
:10351000E81BF90BE017F107B9F58091720186FFFE
:1035200033C080915E019601442737FD4095542FAA
:1035300080FF0CC0C050DC4FBE01882777FD80950E
:10354000982F2D573040404050400BC0B3016C1BAA
:103550007D0B882777FD8095982F23583F4F4F4F3D
:103560005F4F0E944B6A20E038E040E050E00E944C
:10357000B36AC901DA018030F8E09F07F0E0AF07D5
:10358000F0E0BF0741F406C080916B04882311F07E
:10359000CC24DD24C601880F991FD5018D939D93FE
:1035A0005D010F5F1F4FE2E0F0E08E0E9F1E0430C2
:1035B000110509F09CCF8E2DDF91CF911F910F91B6
:1035C000FF90EF90DF90CF90BF90AF909F908F9043
:1035D0007F906F905F904F903F9008959F92AF9231
:1035E000BF92CF92DF92EF92FF920F931F93CF93F0
:1035F000DF93E8EDEE2EE5E0FE2E00E216E0C0E0FF
:10360000D0E072E0A72EB12C99249394CC2E809117
:103610005C0190E0817090709501281B390B2C178C
:103620003D0749F18C2F6FEF0E945917D82E9092C9
:1036300065070E94701910926507F80180819181D9
:10364000F70120813181820F931F62E070E00E94B8
:103650007E6AAB01FEEF6C307F071CF44CE05EEF3E
:1036600006C021E0653F720714F044EF51E08D2D54
:103670006C2D0E944310219682E090E0E80EF91E26
:103680000E5F1F4FC430D10509F682E00E94CE5272
:10369000809149048093470482E380930001DF9185
:1036A000CF911F910F91FF90EF90DF90CF90BF903F
:1036B000AF909F9008952F923F924F925F926F929A
:1036C0007F928F929F92AF92BF92CF92DF92EF92B2
:1036D000FF920F931F93DF93CF93CDB7DEB7299758
:1036E0000FB6F894DEBF0FBECDBF9F838E830E94BE
:1036F0003F17182F0E947019409175014823242FFD
:1037000030E080916E0690E08227932782239323F6
:10371000892B39F0809149048093470482E3809398
:10372000000140936E0680E094E09093E70580935B
:10373000E6059093E9058093E80580916507882365
:1037400079F180915C0190E08170907022E030E02E
:10375000281B390B1092D9051092D805213031055C
:1037600021F01092DB051092DA052230310521F0AC
:103770001092DD051092DC051092DF051092DE0537
:10378000E0EFF5E01192119226E0E030F207D1F778
:1037900048E256E05A83498320E036E0FA0146C009
:1037A00060EF75E040E050E0FA01EE5AF84FDA01C0
:1037B000A85EBE4F80819181D2962D913C91D39786
:1037C000821B930B880F991FDB018D939D93BD0185
:1037D0004E5F5F4F4830510539F780915A079091FD
:1037E0005B07880F991F9093F9058093F8058091E6
:1037F0005C0790915D07880F991F9093FB0580935C
:10380000FA0580915E0790915F07880F991F90934A
:10381000FD058093FC058091600790916107880FFA
:10382000991F9093FF058093FE05B2CF808191810F
:10383000D9018D939D939D013496B6E0E836FB0740
:10384000A9F780915204882311F00E94C91480E4E2
:10385000E8E2F6E0DF011D928A95E9F710924F0742
:103860006FE2462E67E0562E5FEA852E56E0952ED3
:103870004FE6642E46E0742E1D82212E33240894D8
:10388000211C311C8D810E94350D6C01FC01808151
:103890008F7159F439E9432E32E0532E25EB33E092
:1038A0003C832B832224332494C290E0419794F7E5
:1038B000D60117969C91892F807FC1F0892F85951D
:1038C000859585958595282F332727FD30951816E2
:1038D0002CF42216330609F06AC208C088279927FB
:1038E000821B930B2816390609F461C2F601838105
:1038F00061E040E00E94E811D2019C918823C1F46C
:10390000192F1C92F6019181892F8850823008F07E
:103910004EC287818E70843009F449C2993019F003
:103920001986188640C020E03CEF398728873BC0C5
:1039300010E0992309F411E081E0D2018C93F601A3
:1039400081818150A82FB0E0FD01EE0FFF1FE852EA
:10395000FA4F2081318139872887843168F03D8191
:10396000831750F4AA0FBB1FAA0FBB1FA85DB94F46
:103970004D915C9159874887D6019C91892F807E13
:1039800091F0929596959770892F90E00197E1E0DC
:10399000F0E002C0EE0FFF1F8A95E2F720914F077B
:1039A0002E2B20934F07D60118968C91882341F037
:1039B0000E94C90CE885F985E80FF91FF987E887A7
:1039C000D60116968C911697882329F415968C911A
:1039D000882309F44EC1F401608171818281938151
:1039E000112391F420E031E040E050E00E94B36AFE
:1039F00050954095309521953F4F4F4F5F4FA8848C
:103A0000B984A20EB31E5CC0D60117968C9117978D
:103A10008E70843049F5EC91EF71F0E0EE0FFF1FEE
:103A2000E250FA4F60817181882777FD8095982F49
:103A300020E034E640E050E00E944B6AF4016083ED
:103A4000718382839383D60112962C91222361F095
:103A5000332727FD3095432F532F0E94B36AF4017B
:103A60002083318342835383D4016D917D918D9165
:103A70009C9120E031E040E050E00E94B36A509514
:103A80004095309521953F4F4F4F5F4FA884B984A3
:103A9000A20EB31EA114B10499F0F6018581B7FE00
:103AA00082958F7090E09C0144E650E0249FC00115
:103AB000259F900D349F900D1124D3018D939C93DD
:103AC000F301208131812115310551F0809152049B
:103AD000882309F4C1C02150304031832083BCC009
:103AE000A114B10409F4C5C0F6018681882309F444
:103AF000C0C080915204882309F478C02281222317
:103B000029F460E070E080E293E018C0822F9927EA
:103B100087FD909597FF03C0909581959F4F9C01DD
:103B2000442737FD4095542F60E070E080E293E039
:103B30000E94B36AC901DA01BC01CD01D601169613
:103B40002C911A141B040CF52F70422F50E04115D4
:103B50005105D9F1E4E6F0E04E9F90014F9F300D02
:103B60005E9F300D1124442737FD4095542F0E944D
:103B7000B36A79018A01F40180819181A281B381C4
:103B8000E80EF91E0A1F1B1F2BC022952F70422F13
:103B900050E041155105C9F0A4E6B0E04A9F9001FC
:103BA0004B9F300D5A9F300D1124442737FD40950F
:103BB000542F0E94B36AF401E080F18002811381E6
:103BC000E21AF30A040B150B0BC028853985C901CD
:103BD000AA2797FDA095BA2FEE24F82E092F1A2FA9
:103BE000D401ED92FD920D931C931397F401608123
:103BF0007181828193812885398579010027F7FCBD
:103C00000095102F1A141B0464F420E031E040E00A
:103C100050E00E94B36AE216F3060407150764F049
:103C20001BC020E031E040E050E00E94B36A2E1556
:103C30003F054007510784F448855985CA01AA27E2
:103C400097FDA095BA2FBA2FA92F982F8827F40196
:103C500080839183A283B383D4016D917D918D91F3
:103C60009C9120E031E040E050E00E94B36A398747
:103C70002887F6016481662339F08885998541811A
:103C80000E94B90D99878887D60117968C9117974E
:103C900080FD13C01196EC91EE2379F0E53068F4C5
:103CA000F0E0EE0FFF1FE25EF94F80819181E88521
:103CB000F985E80FF91FF987E88728853985B90163
:103CC000882777FD8095982FD60112962C9133275F
:103CD00027FD3095432F532F0E944B6A9B01AC0167
:103CE000F60187818695877090E08130910571F0AB
:103CF0000081029709F046C00F71E02FF0E0EE0F4F
:103D0000FF1FEE0FFF1FEC5DF94F37C0D6010C917E
:103D10000F7110E0000F111F000F111F0C5D194FE4
:103D2000CA01B90124E630E040E050E00E94B36AE5
:103D3000CA01B901F80120813181428153810E9479
:103D40004B6AD8016D937D938D939C931397F601E5
:103D500000810F7110E0000F111F000F111F0C5D8B
:103D6000194FD8016D917D918D919C9120E034E0A7
:103D700040E050E00E94B36AF8012083318342831F
:103D8000538315C00F71E02FF0E0EE0FFF1FEE0F11
:103D9000FF1FEC5DF94F80819181A281B381820F79
:103DA000931FA41FB51F80839183A283B383FD81DA
:103DB000FF5FFD830894411C511C24E030E0820E1B
:103DC000931E42E050E0640E751EF03209F05ACDA9
:103DD00061CDA981BA818D909D90AD90BC90C501B7
:103DE000B40124E630E040E050E00E94B36AE9818B
:103DF000FA812083318342835383F101E853F84FE2
:103E0000C90120839183D20113962D913C9114977F
:103E100011968C911197FAE08F02F0011124E8516C
:103E2000FC4FF987E8878C914AE084023001112425
:103E300088E19CEF680E791ECF015E2F492F2E1767
:103E40003F071CF4C901522F492F852F942F8C0155
:103E5000061517050CF4830181149104A104B10423
:103E600079F19801442737FD4095542F181419040F
:103E70001A041B0464F4A885B985BD01882777FD61
:103E80008095982F621B730B840B950B0BC0C3019D
:103E9000AA2797FDA095BA2F281B390B4A0B5B0B5D
:103EA000CA01B901A50194010E944B6A20EA36E8D3
:103EB00041E050E00E94B36AC901DA014C015D01A2
:103EC000C80155E0959587955A95E1F7800F911FA8
:103ED0009801232F330F330B2595820F931F000F6B
:103EE000012F001F110B801B910B6C01EE24D7FCDE
:103EF000E094FE2C8885998525E0959587952A95EF
:103F0000E1F7E885F9858E0F9F1FA30105E0559520
:103F100047950A95E1F7B301660F672F661F770B88
:103F2000460D571D9F01232F330F330B2595820F0D
:103F3000931FEE0FEF2FEE1FFF0B8E1B9F0B8C01BD
:103F4000222717FD2095322FC80CD91CEA1CFB1C18
:103F50000C151D052E053F0514F468017901CB01F0
:103F60009595879595958795480F591F461B570B33
:103F7000CA01AA2797FDA095BA2F87017601E816F6
:103F8000F9060A071B0714F47C018D01D201129671
:103F90008C91882341F010950095F094E094E11CF9
:103FA000F11C011D111DEB81FC818081882389F0AA
:103FB00060E040E00E94E811882359F0AB81BC81A9
:103FC00011968C910E94C90C7C010027F7FC00958A
:103FD000102FEE81FF81E20DF31DF182E082E98175
:103FE000FA813496FA83E98322E030E0220E331E10
:103FF00045E050E0440E551E8B819C8102969C83C7
:104000008B83E856F64009F0E4CE29960FB6F89473
:10401000DEBF0FBECDBFCF91DF911F910F91FF90FB
:10402000EF90DF90CF90BF90AF909F908F907F9058
:104030006F905F904F903F902F900895CF92DF92B6
:10404000EF92FF920F931F93DF93CF93CDB7DEB71D
:10405000A0970FB6F894DEBF0FBECDBF81E080936E
:1040600065078E010F5F1F4FC8010E945B1B1092F6
:104070006507F801ACE9B2E09E012F5D3F4F8081FA
:10408000918143E0883E94071CF088EE93E006C0DF
:104090004CEF8931940714F488E19CEF11969C93BE
:1040A0008E9332961596E217F30749F700E010E079
:1040B00082E0C82ED12CE02E80915C0190E08170CE
:1040C00090709601281B390B2017310791F0FF24BF
:1040D0008F2D6E2D0E94CA0E855F914034F48F2D76
:1040E0006E2D40E050E00E944310F39445E0F4163A
:1040F00079F70F5F1F4F04301105E9F682E00E9447
:10410000CE52809149048093470482E3809300015A
:10411000A0960FB6F894DEBF0FBECDBFCF91DF9152
:104120001F910F91FF90EF90DF90CF900895CF9265
:10413000DF92EF92FF920F931F93DF93CF93CDB750
:10414000DEB7C054D0400FB6F894DEBF0FBECDBF6F
:10415000F8942091740D3091750D789440E0809121
:104160007007909171072817390709F041E04093D3
:104170005204F8948091740D9091750D78949093F9
:104180007107809370070E943F17582F80916F0727
:10419000851739F190E02DE030E0829FF001839F98
:1041A000F00D929FF00D1124E450FC4F4081429598
:1041B0004F70852F90E0829FF001839FF00D929FBA
:1041C000F00D1124E450FC4FE081EF70E41708F487
:1041D000E42F8AE0E89FC001112480936E0750937A
:1041E0006F0780916E07882349F0DE011196ECEE8F
:1041F000F7E080E201900D928150E1F78E010F5DB2
:104200001F4FC8010E945B1B40916E07F8017E01A1
:104210000894E11CF11C0CEE17E080E2C82ED12CB2
:10422000CE0EDF1EF89480819181442381F0D70166
:104230002D913C91821B930B642F70E00E947E6A4B
:10424000260F371FD8012D933C93415003C0D8014E
:104250008D939C937894329682E090E0E80EF91E5C
:104260000E5F1F4FEC15FD05E9F640936E07809138
:10427000490D882381F480917708882329F08FE6FF
:1042800098E00E94D75907C080918108882319F0CF
:1042900080E00E94D45280915204882309F4AEC178
:1042A000809167048823A1F090916804892F8F5F23
:1042B00080936804843660F09356909368048091EC
:1042C000690490916A04019690936A04809369044A
:1042D0000E948B158091EA07882319F08150809302
:1042E000EA0780915D01882309F469C08091510437
:1042F000823308F464C08091680690916906A091A9
:104300006A06B0916B060196A11DB11D80936806E7
:1043100090936906A0936A06B0936B0600E010E0E4
:10432000FF248F2D0E94EE0EB6E096958795BA95E4
:10433000E1F7080F191FF39494E0F91691F78091B3
:104340006C0690916D060817190761F010936D06C1
:1043500000936C06109268061092690610926A0625
:1043600010926B06E0906806F090690600916A066C
:1043700010916B0660915D0170E080E090E020E7B5
:1043800037E140E050E00E944B6A6E157F058007E0
:104390009107A8F48FE390E0A0E0B0E0E822F922D2
:1043A0000A231B239AE0E916F1040105110539F4EB
:1043B00080914B048093470482E3809300018091B5
:1043C0006B04882319F0815080936B040E9456631C
:1043D0000E94B1630E948917182F80915304909115
:1043E0005404009729F00197909354048093530448
:1043F000112389F08091600190E024EF31E0DC012D
:10440000A29FC001A39F900DB29F900D1124909385
:104410005404809353048091490160E040E00E947D
:10442000E811882339F48091530490915404892B26
:1044300009F4E2C0C79A80915804909159042091E0
:10444000C6073091C707821B930B60E270E00E94A1
:104450007E6A70930D0860930C086115710591F0E8
:1044600080916C0790916D07821B930B62E070E066
:104470000E947E6A70930D0860930C083093590473
:10448000209358048091C6079091C70790936D07B9
:1044900080936C07E0911D08F0E0EE0FFF1FE15FD5
:1044A000F74F0190F081E02D812F09950E94BF61A7
:1044B0008091630081FF04C0809165008F7E03C0FE
:1044C00080916500806180936500F8948091740DFF
:1044D0009091750D78948F7190708230910521F0D4
:1044E000039709F08BC071C080914F0490915004E4
:1044F000892B39F487E00E94EE0E9093500480934C
:104500004F0480914F04909150048C01E3E0000F20
:10451000111FEA95E1F7081B190B87E00E94EE0EC8
:10452000800F911F73E0969587957A95E1F77C014E
:1045300000E010E09093500480934F0420914801D4
:10454000332727FD3095432F532FC801B7010E9411
:104550004B6A28E030E040E050E00E94B36A64E03B
:10456000EE0CFF1C001F111F6A95D1F7E20EF31E1F
:10457000041F151F20914D0430914E0440E050E07F
:10458000C801B7010E94B36A2093510480916B0760
:10459000805E80936B07882389F5809147012817F7
:1045A00068F5223358F180914C048093470482E3EC
:1045B0008093000180915E0183FF20C082E390E040
:1045C000909354048093530419C080915B018695A5
:1045D00086958695877090E0BC01660F771F660F01
:1045E000771F680F791F605C7A4F88E494E045E09C
:1045F00050E00E94CE6A02C0C7981DCFC05CDF4F5A
:104600000FB6F894DEBF0FBECDBFCF91DF911F91E3
:104610000F91FF90EF90DF90CF9008951F93CF936D
:10462000DF939FEF9ABB1BBA81E887BB8EE788BBFD
:104630008EE384BB81EC85BB11BA92BB88E082B962
:1046400087EF83B9109261001092620080E180933D
:104650006400909365000E94816180E487B985E8D9
:1046600086B987E083BF82E081BF87B7836087BF59
:104670008AE08EBD82E880938A0080917D0080620E
:1046800080937D00EDB7FEB7329785E502C0808349
:1046900031974DE0E838F40709F0C8F778948EECCC
:1046A0009EE49093100880930F0882EB93E490931C
:1046B00012088093110889E10E94B5610E94FF579A
:1046C0001091450104B603FC0CC00E94B8160E946C
:1046D0001A160E945F0F0E9467160E9429160E94F8
:1046E0000E160E94B5118CEE97E00E945B1B809124
:1046F00046010E94B5618091600190E024EF31E0B5
:10470000AC01429FC001439F900D529F900D112418
:10471000909354048093530480914501181719F025
:1047200081E00E94CE520E941C2687B7806187BF1D
:104730002DE088E190E00FB6F894A89581BD0FBEFA
:1047400021BD0E94AE0FEC01E0915F01F0E0EE0FA1
:10475000FF1FEF5FFE4F0190F081E02D09950E9451
:10476000730F0E94972080916307833019F4A895F6
:10477000109263070E94AE0F2091410430914204D1
:104780008C1B9D0B8217930708F4C9019093420478
:1047900080934104D6CF9C01E0911D08F0E0EE0F1C
:1047A000FF1FE15FF74F318320838FEBF9010995FC
:1047B000809148048093470482E380930001089528
:1047C0006F927F928F929F92AF92BF92DF92EF9201
:1047D000FF920F931F93CF93DF938091730185FD19
:1047E00004C0A12C14E0B12E03C0A12CB5E0BB2E57
:1047F000E0917201EE0FEE0FE595E595E595E595F3
:10480000E595EE0FE85F9091740184E69802C0018F
:104810001124A8E5EA2EA2E0FA2EE80EF91EEA30ED
:1048200028F448EC5FEA4E195F090DC08853904F99
:104830002E2F30E0829FA001839F500D929F500D3C
:104840001124405C504ECCEED7E0A8EEB4E06E2FC1
:1048500070E0660F771F6C0F7D1F882499248A18DB
:104860009B08662477246E187F0808E512E00E196D
:104870001F0923C028813981C501DA2CF92F2A1597
:104880003B051CF4C901D22EF92F8D2D9F2F8815C1
:1048900099050CF4C401805A964F9301281B390BDB
:1048A000420F531F1196FC92EE92800F911F1396A8
:1048B0009C938E93129722961496C617D707D1F61B
:1048C000EE0FAE2FB0E0AA0FBB1FA851BB4FED9269
:1048D000FC92EF5FAE2FB0E0AA0FBB1FA851BB4FF9
:1048E0004D935C93EF5FF0E0EE0FFF1FE851FB4F3D
:1048F00011821082DF91CF911F910F91FF90EF9065
:10490000DF90BF90AF909F908F907F906F900895B1
:10491000A0912008B0912108FD01819391931396F5
:104920007C936E9312973296F0932108E0932008BF
:104930000895882329F060E679E080E699E004C0D4
:1049400060EB74E080EB94E00E94882408951F934C
:10495000182F82700E949924812F81700E949924BF
:104960001F910895EF92FF920F931F93CF93DF93C0
:1049700080917201877090E08130910519F0029763
:1049800019F404C010E003C011E001C012E020914E
:10499000EC073091ED0720503C4F220F331F8091E0
:1049A000EE079091EF0780509C4F880F991F892F39
:1049B000232F37FD20E087FD80E0022F20310CF00F
:1049C0000FE0F82E8FE08F1514F44FE0F42E2F2D0A
:1049D000332727FD3095802F992787FD90950996DD
:1049E0008217930714F40F2D0950C02FDD27C7FD40
:1049F000D095275F3F4F2C173D071CF437EFF32E60
:104A0000F00E88EE94E0909321088093200880E7D0
:104A100097E160EB74E00E94882480E00E94A72464
:104A200080E699E060EB74E00E94882480E699E0DB
:104A300060EB74E00E948824812F0E94A7241195C6
:104A4000CE019595879595958795E82E0E94A72488
:104A50001E19802F0E94A724101B8F2D992787FDD8
:104A600090959595879595958795082F0E94A724F1
:104A7000101B8F2D0E94A724812F8F190E94A7241D
:104A800080E00E949924809120089091210802974B
:104A9000909321088093200880E69AEE60E070E011
:104AA0000E948824DF91CF911F910F91FF90EF908A
:104AB0000895882329F080E293E060E476E004C062
:104AC00080E496E060E273E00E94882408950F93EA
:104AD0001F93082F10E0802F81700E9459251F5FBF
:104AE00006951830C1F71F910F9108950F931F93EA
:104AF00088EE94E09093210880932008809122080A
:104B000091E0892780932208882309F44FC080917F
:104B1000EC079091ED07885F9B4F34E09695879561
:104B20003A95E1F78038910510F08FE790E0182F63
:104B30002091EE073091EF0737FD0FC0C901409675
:104B400025E0969587952A95E1F78034910510F038
:104B50008FE390E0082F00640FC080E190E0821B9B
:104B6000930B05E0969587950A95E1F780349105BA
:104B700010F08FE390E0082F812F0E946725802F8F
:104B80000E9467250127802F90E09C01B4E03595B5
:104B90002795BA95E1F7A4E0880F991FAA95E1F748
:104BA000822B0E94672580E197E22BC08091F0075D
:104BB0009091F10780509C4FF4E096958795FA9577
:104BC000E1F78038910510F08FE790E0082F00683A
:104BD000802F0E9467258EE80E9467258EE80827AF
:104BE00010E0C801E4E095958795EA95E1F774E057
:104BF000000F111F7A95E1F7802B0E94672580EB4B
:104C000096E360EA7FE00E948824E0912008F0911A
:104C1000210811921192F0932108E0932008E85E98
:104C2000F440E03FF1052CF08FE496E060E00E9454
:104C3000C7151F910F91089580917201877090E0C0
:104C40008430910534F4813091054CF4892B21F0A6
:104C50000895049749F406C00E94E02308950E9435
:104C6000B22408950E94762508959C0190911D0814
:104C7000E92FF0E0E75EF74F80911E088083E92F6F
:104C8000EF5FE0931D08E53040F090931D0882E649
:104C900096E060E00E94C7150895809148048093D3
:104CA000470482E380930001F0E0EE0FFF1FE15F15
:104CB000F74F318320838FEBF90109950895E09137
:104CC0001D08EE23E9F0E150E0931D0880914804AF
:104CD0008093470482E38093000110921F08F0E064
:104CE000DF01A75EB74F8C9180931E08EE0FFF1F68
:104CF000E15FF74F0190F081E02D8EEB099508956B
:104D000085E796E060E00E94C71508958F929F9214
:104D1000AF92BF92CF92DF92EF92FF920F931F93C9
:104D2000CF93DF93182F7B014A015901C02E84FDD8
:104D300004C074E0D72E05E005C01F70106665E062
:104D4000D62E04E08D2D8066181761F08D2D8064BD
:104D5000181741F09091E907992379F0133611F073
:104D6000133459F4E7012196809148048093470455
:104D700087E380930001802F1AC0802F8066181768
:104D800061F0802F8064181741F0992309F489C0DD
:104D9000123619F0123409F084C0E701219780918E
:104DA0004804809347048DE2809300018D2D90E0AC
:104DB0000E944D64882351F0CC27DD27CE19DF09EE
:104DC000802F0E94D4648D2D0E94D464811491049C
:104DD00091F481E0A816B10471F4103661F41092D8
:104DE000E907C0E0D0E0E114F10411F4C1E0D0E043
:104DF00080E60E94D46480910C0890910D08C81B35
:104E0000D90BAC16BD065CF4812F0E94D46480914E
:104E10004A048093470487E380930001E501C815A5
:104E2000D9055CF4812F0E94D46480914A04809358
:104E300047048DE280930001E401CE15DF0509F1FE
:104E4000209791F4812F0E94C564F7FE06C08091DF
:104E50004A048093470487E305C080914A04809305
:104E600047048DE2809300018C2D83700E94CE5206
:104E7000EC16FD0614F08FEF01C081E080930E0860
:104E800002C010920E08CE01DF91CF911F910F91B9
:104E9000FF90EF90DF90CF90BF90AF909F908F905A
:104EA0000895E70193CF0F93772767FD70955527F6
:104EB00047FD5095332727FD309501E00E94862657
:104EC0000F9108950F93772767FD7095552747FD3C
:104ED0005095332727FD309502E00E9486260F91DA
:104EE0000895FF920F931F93F82E162F042F80E83A
:104EF00060E0412F50E0202F0E945E601A3010F4D5
:104F000085E701C08FE660E04FE2202F0E94525DEE
:104F10001A3010F485E701C08FE64F2D50E04F5F47
:104F20005F4F60E0202F0E945E601F910F91FF9005
:104F30000895AF92BF92CF92EF920F931F93DF939A
:104F4000CF930F92CDB7DEB7982F5A014115510577
:104F500009F44AC080911E08882309F03CC0809162
:104F6000EB07882309F037C09436F1F0953611F03D
:104F700042E032C0662361F081E090E0861B910937
:104F8000880F991FFA01E81BF90B859194911BC0BA
:104F900081E090E0821B9109880F991FFA01E81BBC
:104FA000F90B859194910FC070E0822F90E00197EA
:104FB0006817790764F4FB013196EE0FFF1FE40FC9
:104FC000F51F859194910E94CB2380E023C1FA01C3
:104FD00085919491F8CF40E01092EB07862F622FD5
:104FE00099830E94712799810115110511F420E020
:104FF0000AC080911E082E2D8E1508F4282FF80166
:10500000E20FF11D2491903669F1913690F49334BA
:1050100009F4B0C0943430F4913299F1923409F02B
:10502000D9C07DC0943409F44CC0953409F0D2C085
:105030005EC0943609F44AC0953638F4923609F4C5
:1050400073C0933609F0C6C099C09138B9F09F3B40
:1050500021F0953609F0BEC04FC010921F08109283
:105060001E0813C0222309F4B5C090E08091E9071F
:10507000882309F491E09093E907ACC01092E90706
:105080000EC08091E907882319F01092E907A2C0A9
:1050900080911E08882319F0A114B10419F40E940C
:1050A0005F2698C0809148048093470482E38093F0
:1050B000000110921F0810921E0880E68093760D62
:1050C0008DC080911F08821709F484C0012B09F458
:1050D00081C08091E907882309F07CC080911F0876
:1050E000821710F48F5F15C010921F0870C0809156
:1050F0001F08882309F46EC0012B09F46BC080914E
:10510000E907882309F066C080911F08882321F0F1
:10511000815080931F085BC020931F0858C0809166
:105120001E088C1509F456C08091E907882309F000
:1051300051C080911E088C1510F080E001C08F5F77
:105140000115110509F470C0982FE81608F49E2D7A
:10515000F801E90FF11DE491EF3F09F065C0EBCFD5
:1051600080911E088E1508F4E82E0E0D111DF80111
:10517000049128C080911E08882361F18091E9077D
:10518000882341F580911E08882311F48C2D01C0DD
:1051900081500115110509F450C0982FE81608F444
:1051A0009E2DF801E90FF11DE491EF3F09F045C094
:1051B000EBCF80911E088E1508F4E82E0E0D111D00
:1051C000F8010491901708F4092F00931F0880E656
:1051D0008093760DAB2811F456E001C057E0409162
:1051E0001E08442319F41092E80713C0242F30E05E
:1051F0008091E807281B3109852F90E082179307DB
:1052000014F4451B04C0121613061CF041504093C1
:10521000E80781E00F90CF91DF911F910F91EF9000
:10522000CF90BF90AF90089580931E0890911F0873
:105230000115110509F094CF08C080931E089091C4
:105240001F080115110509F0B4CF00E0BECFCF92C1
:10525000EF920F931F93C02E00E010E0EE240E9407
:1052600099271F910F91EF90CF9008950F93062FDC
:1052700060E040E050E020E00E9427290F9108956F
:105280000F93942F222311F400E001C002E043E0C9
:10529000949FA00111244757594F23E00E94E561D4
:1052A0000F9108950F93942F222311F400E001C071
:1052B00002E043E0949FA00111244057594F23E09E
:1052C0000E94E5610F910895DC01FB0105C09C91EE
:1052D00080818D93919341504423C9F70895CF92D3
:1052E000DF92EF92FF920F931F93CF93DF93182FCC
:1052F00080E060E045E157E022E00E940D5E812FF2
:105300006AE047E956E02BE008E00E94272988235D
:1053100009F468C0F0901E08FA941038C1F480E8CF
:105320000E94D46489E18093EA0786E08F1518F023
:105330008F2D0E94506687E0F81611F40E94DF65F9
:10534000809149048093470482E38093000118E030
:10535000EE24CF2CDD24C7FCD0944091E8074E0DFD
:10536000473019F4193370F13DC0C42FD0E0CC168A
:10537000DD0611F020E101C022E1AE014F5F5F4F79
:1053800082E1612F02E00E945D5F8091EA0788233D
:1053900019F4CC16DD0609F000E0AE01440F551FEC
:1053A0004C0F5D1F440F551F440F551F4054594F5C
:1053B00088E1612F2CE00E94E561185FE3941034CE
:1053C00061F610C08091EA07882329F487E0F81677
:1053D00011F422E001C020E086E0612F4DEA56E0A2
:1053E0000E940D5EDF91CF911F910F91FF90EF9082
:1053F000DF90CF9008955F926F927F928F929F92ED
:10540000AF92BF92CF92DF92EF92FF920F931F93D2
:10541000CF93DF93882E80E060E042EA57E022E0FD
:105420000E940D5E882D68E047E956E02BE004EB12
:1054300017E0EE24E3947CE0C72E0E94992788238E
:1054400009F47FC080911E088150992458E0A52E50
:10545000682E772467FC70944EE0542E8091E80704
:10546000890D803109F46DC0C82EDD24BB24E6010E
:10547000CC0FDD1FCB52DC4F7601EE0CFF1C86ED0E
:1054800093E0E80EF91E6C147D0461F480911F080E
:105490008B1541F48091E907882309F447C011E096
:1054A00001E002C000E010E0BB2021F091E0B9165D
:1054B00081F510C086E06A2D4881202F0E9442624B
:1054C000112339F1882D68814AEE26E10E94622776
:1054D00088831FC088818823C1F0F7014081459DE2
:1054E000A00111244F5C584F8EE16A2D2EE00E94DE
:1054F000E561112371F0882DF701608140E027E01C
:105500000E946227F701808304C0002311F01092EB
:105510001F08B394F2E0BF1609F0B5CF939488E06A
:10552000A80E97E0991609F099CF0BC080910C084E
:1055300090910D08892B19F011E002E0B5CF02E03F
:10554000B2CFDF91CF911F910F91FF90EF90DF903D
:10555000CF90BF90AF909F908F907F906F905F9013
:1055600008959F92AF92BF92CF92DF92EF92FF92F7
:105570000F931F93CF93DF93982E80E060E04FE16D
:1055800057E022E00E940D5E892D69E047E956E070
:105590002BE00FE217E0EE24E394B0E1CB2E0E9463
:1055A0009927882309F470C0AA24A8E0BA2E409154
:1055B000E8074A0D403109F467C0C42EDD244F5F6F
:1055C00080E06B2D20E00E94466300E07601EE0C47
:1055D000FF1C85EB93E0E80EF91EE601CC0FDD1F02
:1055E000CA54DC4F80911E0890E001978C159D05F0
:1055F00059F480911F08801739F48091E9078823B6
:10560000C1F111E021E002C020E010E0002319F018
:10561000013021F512C084E26B2DF70140810E9418
:1056200042621123D9F0892DF70160814AEE26E10B
:105630000E946227F701808311C04881552747FDEA
:10564000509580E66B2D0E945E60112339F0892D04
:10565000688143E82DE70E94622788830F5F03304B
:1056600009F6A394F8E0BF0E87E0A81609F09FCFD3
:105670000BC080910C0890910D08892B19F011E056
:1056800022E0C4CF22E0C1CFDF91CF911F910F91D3
:10569000FF90EF90DF90CF90BF90AF909F900895D4
:1056A0008F929F92AF92BF92CF92DF92EF92FF9232
:1056B0000F931F93CF93DF93D82E80E060E04CE1EF
:1056C00058E022E00E940D5E8D2D67E047E956E02C
:1056D0002BE00CE218E0EE24E3947CE0C72E0E945D
:1056E0009927882309F465C180911E088150BB2445
:1056F00038E0F32E882E992487FC909427E0A22E80
:105700001091E8071B0D1C3009F453C1C12FD0E0E4
:105710008C169D0611F0CC2409C08091E9078823DE
:1057200019F492E0C92E02C0CC24C39480E06F2DFE
:1057300049E158E022E000E00E94E561193010F4F0
:1057400041E301C048E3410F8CE06F2D0E94095EE8
:10575000FE01EE0FFF1FEC0FFD1FED56FC4FE08129
:1057600080911F08882311F000E001C00C2DEA9DF4
:10577000A00111244A54584F88E16F2D27E00E9460
:10578000E561FE01EE0FFF1FEC0FFD1FEB59FE4F11
:10579000E25DFD4F8081EE52F240853008F4F9C0A1
:1057A00090911F08E45DFD4F883008F4FCC04081F3
:1057B0009130D1F52C2D39C020E088E46F2D0E9466
:1057C0000663FE01EE0FFF1FEC0FFD1FEE56FC4FB0
:1057D000408180911F08823011F020E001C02C2D03
:1057E000552747FD509588E76F2D0E945E60EE2497
:1057F00035C020E08EE46F2D0E944262FE01EE0F64
:10580000FF1FEC0FFD1FEE56FC4F408180911F08DB
:10581000823011F020E001C02C2D86E66F2D0E9411
:105820004262EE24E3941AC020E088E46F2D0E94C7
:105830000663FE01EE0FFF1FEC0FFD1FEE56FC4F3F
:10584000408180911F08823011F020E001C02C2D92
:1058500086E66F2D0E94066372E0E72E8091E907CD
:10586000882339F480910C0890910D08892B09F454
:1058700088C0CC2009F485C080911F088130A1F137
:10588000813020F0823009F07CC048C08E01000FCA
:10589000111F0C0F1D1F0D561C4F8D2DF80160811F
:1058A00040E02DE00E946227F8018083853018F4E3
:1058B00020E030E007C0883018F022E030E002C07D
:1058C00021E030E08E2D90E08217930709F459C053
:1058D000FE01EE0FFF1FEC0FFD1FEB59FE4FE45DC5
:1058E000FD4F119210824DC0F1E0EF1639F0EF1626
:1058F00068F082E0E81609F044C008C08E01000F8D
:10590000111F0C0F1D1F0F561C4F25C08E01000FBD
:10591000111F0C0F1D1F0F561C4F2AC0F1E0EF1670
:1059200099F0EF1620F082E0E81659F51AC08E01C2
:10593000000F111F0C0F1D1F0E561C4F8D2DF8014F
:10594000608143E82DE719C08E01000F111F0C0F75
:105950001D1F0E561C4F8D2DF80160814AEE26E169
:105960000CC08E01000F111F0C0F1D1F0E561C4F77
:105970008D2DF801608140E024E20E946227F80149
:105980008083B394F8E0FF0E87E0B81609F0B8CE34
:1059900010C0E45DFD4F408180911F08813009F007
:1059A0000BCF2C2D0ACF4081913009F022CF2C2D26
:1059B00021CFDF91CF911F910F91FF90EF90DF905A
:1059C000CF90BF90AF909F908F9008956F927F92ED
:1059D0009F92AF92BF92CF92DF92EF92FF920F937E
:1059E0001F93CF93DF93182F80E060E041E358E0EE
:1059F00022E00E940D5E812F66E047E956E02BE031
:105A000000E10E942729882309F492C000911E0812
:105A10000150103611F0143641F407FD06C0009312
:105A200029088DE99AE30E943526A8E0DA2ECC24D5
:105A3000C3949924AA24602E772467FC7094009163
:105A4000E8070A0DC02FD0E06C167D0611F010E0BB
:105A500001C012E0BB24083030F0BB24B39486E0D0
:105A60008C1528F45EC0E7E0EC1508F45AC09920C4
:105A700009F4912E80E06D2D4EE258E0212F0E9416
:105A80000D5E093010F087E101C082E1AE014F5F89
:105A90005F4F6D2D212F0E945E60BB2069F0CE010B
:105AA00008979C01F3E0220F331FFA95E1F7280FC6
:105AB000391F275B3C4F09C09E01220F331F220F65
:105AC000331F2C0F3D1F2F5D3C4FE90179010AE286
:105AD000F70141917F01552747FD5095802F6D2D8E
