:100000000C94AA0C0C94C70C0C94C70C0C94C70C41
:100010000C94C70C0C94C70C0C94C70C0C94C70C14
:100020000C94C70C0C94C70C0C94C70C0C94C70C04
:100030000C9459100C94C70C0C94C70C0C94CE1053
:100040000C947E0F0C94C70C0C94C70C0C94C70C2A
:100050000C94C70C0C94C70C0C948E620C94C70CB7
:100060000C94C70C0C949D0F0C94C70C0C94C70CEB
:100070000C94C70C0C94C70C0C94C70C0C94C70CB4
:100080000C94C70C0C94C70C0C94C70C8040000057
:1000900000000000000000000000000000F0080464
:1000A0000484444444444444444444444444444410
:1000B00044C4040488700000000000000000000038
:1000C000000000000404FC040400E050506000FE46
:1000D00000E050506000F01010E01010E000E05020
:1000E000506000FC1000F020100010E000E0100054
:1000F00000000018242424C400E050506000F020C8
:100100001000F400E05050600030509000000000FB
:1001100000000000000080808080808080BF8080A0
:1001200080BF808080800000304848484848484868
:100130004888090908F000000000000000000000E5
:1001400000000000000001000000000101010001AA
:1001500000000101010081F01819F0800100000188
:1001600001212020212021202020202423202020A4
:1001700020202021E12121202020212121202120B7
:1001800020202120202121212081C1010000000008
:1001900000F8FEFFFFFF0F0707070707073747872E
:1001A00087879797075FDFDFDFDED880101010109A
:1001B000100F0080403F80C0E0E0E06020000000C1
:1001C0000000000000000000000000007058484CD3
:1001D0004C474744464243FF0000FF4342464447E2
:1001E000474C4C48587000000000000000E0B01878
:1001F0000C0406878FBFEEFEF67E3C1C0C0C0C0C2C
:100200000C0C0C0C0C0C0C0C0E1F39608000000048
:10021000000107070F0F0F0E1E1E1E1E1E1E0E0EC4
:100220000E0E0E8ECEEEFCF973270F1F3F7EFCF9EB
:10023000F1F1F9FC3E1F0F07030100000000000070
:1002400000000000000000000000000000000000AE
:10025000000000008080407F00007F408080000020
:100260000000008080C0C040C0C0808810101D17F2
:1002700011111313131311171D101010000000009B
:10028000000000C0000000000000000000000000AE
:100290000000000000040C1C1C1C1C1C1E1E1E0E5A
:1002A0000E0F070703030180C0E0F0F87C3E1F0F2C
:1002B00007070F1F3F7EFCF8F0E0C0800000000041
:1002C000C020202020002020E0202000E0008040EE
:1002D0002000000302020202040402020202C140E2
:1002E00040FC3F7BB1E0AEA8EAEEA17B7FFC404042
:1002F000C0000000000000000000000080C0E0F02E
:10030000F8FCFFFF0000FEF8C00000000000000045
:1003100000000000000000000000000000000000DD
:10032000000000000C0E0F0F0F070301000000007B
:10033000000000000000000103070F0F0F0E0C006B
:1003400008090909060000000F0000000F0102045F
:1003500008000000000000000000000000000F384E
:1003600038FF9580B282FAAAFA82F29095FF383867
:100370000F00000000008010B074F67777F777F771
:1003800077F777F774F677F777F634B01000000058
:10039000000000000000000000000000000000005D
:1003A000000000000000000000000000000000004D
:1003B000000000E000000000E0000000000000007D
:1003C000000000000000000000000000000000002D
:1003D0000000000000000000000000000030282C99
:1003E000242F3F3607361F0E1F3607363F2F242C8B
:1003F000283000000000000100C1C0414140C1C0E0
:10040000414041C0C140C1C1C1C041C0C1000000A4
:10041000007F11110E000E11110E0007180C030EB3
:100420001807000E151516001F02010E15151600EF
:100430000E11111F000000001F11110E00014E309F
:100440000E01000000000E11110E007F11110E00B0
:100450000E151516001F01011E00000000131519CE
:10046000000E11110E000F10101F001F02010E11BF
:1004700011000E1515160000003F302F2F2B323FB4
:10048000203B3B3C3F202F2F3F262B2C3F00005290
:10049000554420454C45205448522041494C205257
:1004A00055442054485220454C452041494C204158
:1004B000494C20454C452054485220525544204137
:1004C000494C2054485220454C4520525544200068
:1004D00001020304010204030103020401030402F4
:1004E00001040203010403020201030402010403E4
:1004F00002030104020304010204010302040301D4
:1005000003010204030104020302010403020401C3
:1005100003040102030402010401020304010302B3
:1005200004020103040203010403010204030201A3
:100530000102030401030204040203010403020193
:1005400000000000000001081E640101081E640193
:10055000010F32960A0A1E329603010200040506B4
:1005600007707265737320616E79204B6579004165
:100570004C455254004D45535341474500506C651E
:10058000617365207265736574207468656D0053CE
:1005900077697463686573206E6F74206F66660098
:1005A000416C61726D732044697361626C656400B3
:1005B0005265736574207468726F74746C6500544E
:1005C00068726F74746C65206E6F742069646C65FA
:1005D00000507265737320616E79206B65792074A9
:1005E0006F20736B697000414C4552540045455073
:1005F000524F4D206C6F77206D656D005F2D2E2C56
:1006000000564552533A2056312E322D6772757678
:10061000696E00444154453A20323031312D313138
:100620002D32300054494D453A2031333A30313A79
:100630003533002053564E3A206672736B792D7213
:10064000313232340020424C443A20323539007085
:10065000756C736520746162206F766572666C6F6D
:1006600077006D656E75537461636B206F7665728C
:10067000666C6F77006D656E75537461636B207582
:100680006E646572666C6F77002D2D2D494E560095
:100690004F46464F4E2000E5422D3F3F3C87398272
:1006A000397F2DD02C3A2BE5299B2A5C29434C45D8
:1006B0004152204D49584553205B4D454E555D00F4
:1006C00053696D706C6520342D434820542D43755B
:1006D0007420202020202020562D5461696C202079
:1006E00020202020456C65766F6E5C44656C7461DB
:1006F000654343504D2020202020202048656C6910
:100700002053657475702020536572766F20546590
:10071000737420200054454D504C415445530053B0
:1007200041464554592053574954434845530000C6
:10073000012D2D2D2D202020202020202020205470
:100740007261696E65722020202020202054726121
:10075000696E657220525544202020547261696E82
:10076000657220454C45202020547261696E657287
:1007700020544852202020547261696E65722041D5
:10078000494C202020496E7374616E742054726944
:100790006D20205472696D73324F66667365747391
:1007A000200046554E4354494F4E20535749544319
:1007B0004845530000012D2D2D2D202020763E6F21
:1007C00066732020763C6F667320207C767C3E6FBB
:1007D00066737C767C3C6F6673414E4420202020FB
:1007E0004F522020202020584F52202020207631A8
:1007F0003D3D7632207631213D76322076313E768F
:1008000032202076313C7632202076313E3D7632E1
:100810002076313C3D7632200053570043555354E7
:100820004F4D205357495443484553000002435607
:1008300000435552564553002D2D2D494E56004329
:100840004F5059205452494D205B4D454E555D0047
:100850004C494D49545300000303030303030303AE
:1008600003030303030303032F3332002F31340048
:100870004D495845520044522F4558504F002B3D8A
:100880002A3D3A3D00536C6F772020557000536C21
:100890006F772020446F776E0044656C6179205536
:1008A000700044656C617920446F776E0041646428
:1008B00020202020204D756C7469706C7952657011
:1008C0006C61636520004D756C747078004F46460E
:1008D000005761726E696E6700462E5068617365DD
:1008E0000053776974636800437572766573004FCF
:1008F0004E204F4646005472696D004F6666736520
:10090000740057656967687400536F75726365009A
:1009100045444954204D49582000494E53455254AE
:10092000204D495820005765696768744578706F95
:10093000202050686173652053777463682057687E
:10094000656E2020437572766520202020202020AF
:100950000044522F4558504F002D2D2D783E3078B1
:100960003C30004E6F2066726565206D6978657257
:1009700021004E6F2066726565206578706F2100DA
:1009800045444954205052534554004D4F4445006E
:10099000435552564500436865636B202020202054
:1009A0005472696D73002864656661756C74290002
:1009B000464C4947485420504841534553004661EE
:1009C0006465204F7574004661646520496E00546B
:1009D00072696D7300537769746368004E616D6569
:1009E000004544495420464C49474854205048410A
:1009F000534500060003504F534E45470053686966
:100A000066742053656C0075536563003443482059
:100A10003643482038434820313043483132434838
:100A200031344348313643480050504D2020205344
:100A3000494C565F4153494C565F4253494C565FAF
:100A4000435452414330390050726F746F00524525
:100A50005441313233004265657020437472004561
:100A60002E205472696D7300452E204C696D697497
:100A70007300457870202020457846696E65466988
:100A80006E6520204D656469756D436F6172736595
:100A9000005472696D20496E6300542D4578706F63
:100AA00000542D5472696D00436F756E7420446F4D
:100AB000776E436F756E7420557020200054696DF9
:100AC00065722000547269676765720054696D65CC
:100AD00072004E616D650053455455500000090188
:100AE00000000000000000060244454C455445202B
:100AF0004D4F44454C0066726565004D4F44454C72
:100B000053454C005B4D454E555D202020205B45F4
:100B10005849545D005B455849545D001208120065
:100B2000081C0808081C08000008220049002208C8
:100B30000000000000227F2200000008220049007F
:100B40002208000008220049002208000000227F3D
:100B500022000000000008220049002208000008CE
:100B60001C0808081C08003A49CD478A47ED46741E
:100B7000465E45205B4D454E555D205748454E200D
:100B8000444F4E452000204D4F5645205354494375
:100B90004B532F504F5453200020202053455420B6
:100BA0004D4944504F494E5420202000205B4D4574
:100BB0004E555D20544F2053544152542020004341
:100BC000414C4942524154494F4E0041314132411A
:100BD000334134413541364137413800414E4100BF
:100BE0005472696D2D202B00204D656E752045785F
:100BF000697420446F776E202020557052696768B1
:100C000074204C6566740044494147004545505284
:100C10004F4D20760056455253494F4E0043616C6C
:100C2000004D756C7469706C69657200636831633E
:100C30006832636833636834006F6666202B3D203A
:100C40003A3D006D6F64652020202520737263009B
:100C5000536C61766500545241494E455200000282
:100C6000020202004D6F6465005278204368616E95
:100C70006E656C204F7264004E4F204441544120F9
:100C8000416C61726D00416C61726D205761726ED2
:100C9000696E67004D656D6F7279205761726E697C
:100CA0006E6700446F776E4F4646205570202000D7
:100CB000537769746368205761726E696E67005478
:100CC00068726F74746C65205761726E696E67002C
:100CD00053706C6173682073637265656E004F4674
:100CE00046004C69676874206F66662061667465AB
:100CF00072004C6967687420737769746368004692
:100D00006C617368206F6E20626565700042656576
:100D10007020636F756E74646F776E004D696E75C9
:100D200074652062656570005468726F74746C65D8
:100D300020726576657273650053494E474F534D77
:100D40005046494C540046696C74657220414443D6
:100D500000496E616374697669747920616C6172AF
:100D60006D0042617474657279207761726E696E8C
:100D70006700436F6E7472617374005175696574B6
:100D80004E6F4B65794E6F726D204C6F6E67207899
:100D90004C6F6E6700426565706572005241444950
:100DA0004F205345545550005B4D454E555D2074C2
:100DB0006F207265736574004672656520537461B7
:100DC000636B206D696E2020202062007431306DCD
:100DD0007320202020202020202020757300746D97
:100DE00061696E206D61782020202020206D7300C5
:100DF000746D7231204A69747465722020202075E8
:100E00007300746D72314C6174206D696E20202006
:100E100020757300746D72314C6174206D6178209F
:100E2000202020757300535441543200544F540015
:100E30005354250053544B0054535700544D450010
:100E40005354415400454550524F4D20466F726DEA
:100E5000617474696E670042616420454570726F09
:100E60006D204461746100454550524F4D20436FE1
:100E70006E76657274696E6700454570726F6D209D
:100E800044617461204572397800454570726F6D18
:100E9000204461746120763300454550524F4D2007
:100EA0006F766572666C6F77005008500000000026
:100EB000000000006F000007000700147F147F147B
:100EC000242A7F2A122313086462364955225000CF
:100ED00005030000001C2241000041221C001408F0
:100EE0003E081408083E08080050300000080808B2
:100EF000080800606000002010080402003E414124
:100F00003E0000427F400062514946004149493657
:100F1000001814127F0027454539003E4949320028
:100F2000017905030036494936000649291E0000AB
:100F300036360000005636000008142241141414FE
:100F40001414412214080002015109060609090679
:100F5000007E0909097E7F494949363E41414122C7
:100F60007F4141221C7F494949417F090909013ECE
:100F70004149497A7F0808087F00417F41002040AD
:100F8000413F017F081422417F404040407F020CD6
:100F9000027F7F0408107F3E4141413E7F090909DD
:100FA000063E4151215E7F091929462649494932A9
:100FB00001017F01013F4040403F1F2040201F3F73
:100FC0004030403F631408146307087008076151FC
:100FD000494543007F41410002040810200041417F
:100FE0007F0004020102044040404040000102042E
:100FF0000020545454787F484444383844444420B2
:10100000384444487F3854545418087E0901020C6F
:101010005252523E7F0804047800447D4000204034
:10102000443D007F1028440000417F40007C0418AC
:1010300004787C0804047838444444387C1414143C
:1010400008081414187C7C080404084854545420DC
:10105000043F4440203C4040207C1C2040201C3C5D
:101060004020403C44281028440C5050503C4464DC
:10107000544C44000836410000007F000000413617
:1010800008000808221C08081C220808A06080002C
:1010900000000000000000000000000000FEFE0054
:1010A00000000000003E7E00007E3E00006060FE0A
:1010B000FE6060FEFE606060F09898FEFE989818F2
:1010C000180C1E1E0C80C0E070381878FC8EC6E626
:1010D000763C180000000066763E1E00000000000E
:1010E00000E0F0381C0E0600000000060E1C38F070
:1010F000E000006060C080F8F880C06060808080A0
:1011000080F8F8808080800000000000000000006F
:1011100000808080808080808080800000000000CF
:1011200000000000000000000080C0E070381800DF
:1011300000000000000000000000000000717100CD
:101140000000000000000000000000000006067F14
:101150007F06067F7F0606181819197F7F19190F59
:1011600006181C0E070301307878301E3F71636744
:10117000663C3C66660000000000000000000000C5
:1011800000070F1C387060000000006070381C0FF2
:10119000070000060603011F1F01030606010101E7
:1011A000011F1F01010101000066763E1E000000C4
:1011B0000001010101010101010101000030787805
:1011C0003000000000181C0E0703010000000000A2
:1011D00000F8FC0E06060EFCF80000181CFEFE00CF
:1011E0000000000000181C0E0686CEFC78000006E9
:1011F00006868686CEFC78000080C0E070381CFE33
:10120000FE00007E7E666666E6C6860000F8FC8EFE
:1012100086868E1C180000060686C6E6763E1E00F0
:101220000078FCCE8686CEFC78000078FCCE8686E0
:10123000CEFCF8000030787830000000000000306C
:1012400078783000000000000080C0E070381C0E8C
:101250000660606060606060606060060E1C3870F0
:10126000E0C0800000181C0E06060686CEFC780042
:10127000001F3F706060703F1F000060607F7F60F4
:101280006000000000787C6E676361606000006051
:1012900060616161733F1E00000707060606067F56
:1012A0007F00001838706060703F1F00001F3F71A2
:1012B0006161733F1E000000007F7F00000000009E
:1012C000001E3F736161733F1E00000000617139B1
:1012D0001D0F0700000C1E1E0C0000000000006621
:1012E000763E1E0000000000000103070E1C38704F
:1012F00060060606060606060606066070381C0E20
:101300000703010000000000006667030100007889
:10131000FCCE8686CEFC780000E0F0B89C8E8E9CD9
:10132000B8F0E0FEFE8686868686CEFC78F8FC0E57
:10133000060606060E1C18FEFE0606060E1C38F0F3
:10134000E0FEFE8686868686860606FEFE86868603
:101350008686860606F8FC0E068686868E9C98FE95
:10136000FE808080808080FEFE00000606FEFE0675
:10137000060000000000000606FEFE0606FEFE80D7
:10138000C0E070381C0E06FEFE00000000000000E9
:1013900000FEFE1C38F0F0381CFEFEFEFE70E0C0C1
:1013A000800000FEFEF8FC0E060606060EFCF800A5
:1013B0000001010101000000007F7F010101010126
:1013C000017F7F7F7F6161616161733F1E1F3F709D
:1013D000606060607038187F7F60606070381C0FDC
:1013E000077F7F61616161616160607F7F010101F1
:1013F00001010100001F3F7060616161717F3F7FEB
:101400007F0101010101017F7F000060607F7F603B
:101410006000001838706060703F1F00007F7F011F
:1014200003070E1C3870607F7F60606060606060E2
:10143000607F7F0000010100007F7F7F7F0000014F
:1014400003070E7F7F1F3F7060606060703F1FFE6C
:10145000FE8686868686CEFC78F8FC0E0606060694
:101460000EFCF8FEFE8686868686CEFC7878FCCE5C
:10147000868686868E1C1806060606FEFE0606066C
:1014800006FEFE000000000000FEFEFEFE00000062
:10149000000000FEFEFEFE000000000000FEFE1E3A
:1014A0003E70E0C0C0E0703E1E7EFEC08000008046
:1014B000C0FE7E0606060686C6E6763E1E0000FED6
:1014C000FE060606060000183870E0C08000000026
:1014D00000000006060606FEFE00006070381C0EC6
:1014E0000E1C387060000000000000000000007F4B
:1014F0007F01010101010100001F3F7060666E3C29
:10150000387F677F7F0101070F1D397060183871C0
:1015100061616161733F1E000000007F7F00000079
:10152000001F3F7060606060703F1F070F1C3870C5
:1015300070381C0F071F3F70703E3E70703F1F7861
:101540007C0E070303070E7C78000001037F7F03F6
:10155000010000787C6E6763616060606000007FFE
:101560007F606060600000000000000103070E1C47
:10157000180000606060607F7F00000000000000D5
:10158000000000000060606060606060606060009B
:1015900000060E1C38706000000000606060606033
:1015A000E0C080FEFE80C0E06060E0C08080C0E0FF
:1015B0006060606060000080C0E06060E0C080FE4D
:1015C000FE80C0E060606060E0C0808080F8FC8EDB
:1015D00086060E1C18E0F0381818181818F8F8FECF
:1015E000FE80C0E06060E0C08000006060E6E60071
:1015F000000000000000006060E6E60000FEFE0063
:101600000080C0E060000000000606FEFE00000052
:1016100000E0E060E0C0C0E0E0C080E0E080C0E06A
:101620006060E0C08080C0E060606060E0C080001A
:10163000000000000000000000183C7E6666666640
:10164000667F7F7F7F6161606060703F1F1F3F70BA
:10165000606060607038181F3F7060606061617F1B
:101660007F1F3F766666666666070701017F7F011A
:10167000010000000001036766666666763F1F7F13
:101680007F0101000000007F7F000060607F7F60BD
:101690006000001838706060703F1F00007F7F0698
:1016A0000F1F3970600000000060607F7F60600085
:1016B000007F7F0000070700007F7F7F7F01010020
:1016C0000000007F7F1F3F7060606060703F1FE020
:1016D000E06060606060E0C08080C0E0606060C02A
:1016E00080E0E0E0E080C0E06060E0C08080C0E0DA
:1016F000606060606000006060FEFE60600000008E
:1017000000E0E0000000000000E0E0E0E000000099
:10171000000000E0E0E0E0000000000000E0E06029
:10172000E0C080000080C0E060E0E0000000000059
:1017300000E0E0606060606060E0E0E06000008029
:10174000C0787C0E06000000000000FEFE000000D5
:10175000000000060E7C78C0800000808080801829
:1017600038F0E0C08080C0E0F03818808080807F52
:101770007F0606060606070301010307060606079D
:10178000077F7F7F7F010100000000010161636727
:10179000666666667E3C1800001F3F7060607038A9
:1017A000181F3F7060607038187F7F070F1C3870FB
:1017B00070381C0F071F3F7070383870703F1F6003
:1017C00070391F0F0F1F3970600103676666666608
:1017D000763F1F6070787C6E676361606000000117
:1017E000031E3E70600000000000007F7F000000CC
:1017F00000000060703E1E0301000001010101189D
:101800001C0F0703010103070F1C18010101014F01
:101810004646414253525573525525454C73454CEB
:1018200025544873544825414C73414C2550312070
:10183000503125503220503225503320503325006E
:1018400063002D2D2D783E30783C307C787C663ED0
:1018500030663C307C667C004650002D2D2D0054B7
:101860004852525544454C45494430494431494415
:101870003241494C47454154524E535731535732E8
:1018800053573353573453573553573653573753AA
:101890005738535739535741535742535743004FC3
:1018A0004646004F4E20002D2D2D004D4F44454CF7
:1018B00000524554410043480050504D00503120E3
:1018C0002050322020503320204D41582046554C86
:1018D0004C435943314359433243594333002D2D2F
:1018E0002D2D00408008042010020112191E192419
:1018F000192B1938193E1949199C1432465A5A465F
:1019000032465AECEC003C649CC4003C649C0000F1
:10191000006453696D706C6520342D434800542D6C
:1019200043757400562D5461696C00456C65766F83
:101930006E5C44656C746100654343504D004865BE
:101940006C6920536574757000536572766F20540E
:101950006573740011241FBECFEFD0E1DEBFCDBF91
:1019600011E0A0E0B1E0ECE3F4ED02C005900D92CF
:10197000A631B107D9F71DE0A6E1B1E001C01D9283
:10198000AA38B107E1F70E9422230C941C6A0C9438
:10199000000099E28902900111243595279535952B
:1019A000279587FD815C86FB880F880B80F9992736
:1019B00087FD9095281B390BC9010895982F803217
:1019C00001F181548A3110F48F5F0895892F815677
:1019D0008A3120F4892F80958F590895892F80535B
:1019E0008A3010F4855E0895ECEFF5E080E02491F4
:1019F000291711F48B5D08953196222311F08F5F22
:101A0000F6CF80E00895E82F8823D9F087FF07C03C
:101A1000863E1CF080E68E1B0895E19504C08B3154
:101A200014F4805C0895E5321CF48E2F8B5E0895CB
:101A3000E9323CF4FF27E7FDF095E952FA4F849133
:101A4000089580E208959DE0899F9001112422511C
:101A50003C4FC9010895282F30E0220F331F220F79
:101A6000331F29513D4FC901089599E0899F900185
:101A7000112429583E4FC901089595E0899F90018E
:101A8000112429563D4FC90108959C0140E068305A
:101A900008F041E070E0442371F0CB010897FC01AD
:101AA00063E0EE0FFF1F6A95E1F7E80FF91FDF0112
:101AB000A95BBC4F0AC0FB01EE0FFF1FEE0FFF1F1B
:101AC000E60FF71FDF01A15EBC4FFD0180812050B2
:101AD0003C4F37FD0EC068E02030360784F04423C9
:101AE00019F484E090E002C088E090E0A80FB91FEC
:101AF0008C91992787FD9095582F442733C0442314
:101B000031F0432FB9017070660F771F04C0432F67
:101B10004695B9017170842F90E0FD01E80FF91F1F
:101B20008181992787FD90959B0135952795829F07
:101B3000A001839F500D929F500D112420813327C7
:101B400027FD309580E092E0861B970B9595879551
:101B5000BC01269FC001279F900D369F900D112438
:101B6000480F591FCA0169E170E00E949169CB01D9
:101B700008959C01633031F1643028F4613051F0F4
:101B8000623090F43CC0653039F1653008F1663060
:101B900061F525C0493029F497FD24C0205032401A
:101BA0000AC097FF2CC026C0493041F41816190608
:101BB00024F120503E4F220F331F21C01816190662
:101BC000CCF01DC097FF1BC0309521953F4F17C02B
:101BD0001816190694F00EC097FF0CC003C0181613
:101BE00019065CF020E03CEF0AC067500E94450DEA
:101BF0009C0105C020E030E002C020E034E0C901D3
:101C000008956F927F928F929F92AF92BF92CF92E0
:101C1000DF92EF92FF920F931F933B017C0100E054
:101C200010E08824992464E670E080E090E0661972
:101C3000770988099909A80197010E945E695B01EB
:101C40006C0182E390E0A0E0B0E0A80EB91ECA1ECD
:101C5000DB1EC801B7010E945E690E945E69BC017B
:101C600088279927A40193010E945E69E4E0969574
:101C7000879577956795EA95D1F7A60EB71EC81E8A
:101C8000D91EC601B50124E630E040E050E00E94D4
:101C9000A469C9011F910F91FF90EF90DF90CF9041
:101CA000BF90AF909F908F907F906F900895FF921C
:101CB0000F931F939C01AB016115710531F1FF2456
:101CC00097FF05C0FF24F394309521953F4F57FFB0
:101CD00010C000E014E066277727641B750BC8016D
:101CE000821B930B0E94010E9801281B390BC9011E
:101CF00004C0C901BA010E94010EFF2011F49C0129
:101D000004C022273327281B390BC9011F910F91CB
:101D1000FF9008951F93162F0E94230DFC01A12F01
:101D2000B0E02481332727FD3095CD01880F991F1E
:101D300002C0359527958A95E2F723703070AE0F73
:101D4000BF1F8C91992787FD9095880F991F880F49
:101D5000991F280F391FC9011F910895E9E5F5E082
:101D6000E80FF11DE491F0E0EE0FFF1FEC58F84F83
:101D700020813181C9010895A4E7B7E0E4E8F7E0E4
:101D800060E0862F806487B9369A349BFECF349A00
:101D9000208931898D919C91119796958795820F15
:101DA000931F8E7F8D939D9340815181240F351F0A
:101DB00036952795318B208B84B195B1840F951F73
:101DC00096958795819391936F5F6830D1F60895CA
:101DD000DF93CF93CDB7DEB760970FB6F894DEBF31
:101DE0000FBECDBFFE01319680E1DF011D928A95C5
:101DF000E9F7A4E7B7E050E0852F806487B9208138
:101E0000318140E0369A349BFECF349A84B195B14B
:101E1000280F391F4F5F4430A9F72193319336952E
:101E200027952D933D935F5F583031F760960FB63D
:101E3000F894DEBF0FBECDBFCF91DF910895E4E7E8
:101E4000F7E020E0822F806487B9369A349BFECF7A
:101E5000349A84B195B1880F991F819391932F5F24
:101E6000283081F708958EE587B98AE18A95F1F7E0
:101E7000369A349BFECF349A84B195B19093500436
:101E800080934F04089580914904882341F4809100
:101E90005704882321F480915904882311F084E1A8
:101EA00005C080916707882321F0815080936707E0
:101EB00008C08091630090E096958795817080932B
:101EC00068078091680708951092660410925F0475
:101ED00010925E04109263041092620410926104E6
:101EE0001092600410926504109264040895109298
:101EF0006A0410926C0410926B0408951F920F9262
:101F00000FB60F9211248F93809166078F5F809395
:101F100066078F910F900FBE0F901F9018954091FC
:101F2000660722B7809166074817C9F7942F80E0AB
:101F300030E0282B392BC90108951F920F920FB65C
:101F40000F9211242F933F934F935F936F937F933F
:101F50008F939F93AF93BF93CF93DF93EF93FF93B1
:101F6000C0918000D091810080917D008F7D809311
:101F70007D0078948091690790916A079E01281BE3
:101F8000390B36952795C901815A9F408F5D9E4236
:101F900020F481E0809364072EC040916407842F71
:101FA0008150883040F5C901815293408757954050
:101FB00000F5E42FF0E0EE0FFF1FEE5AF84F2C5D16
:101FC000354080916001992787FD90950A96BC0164
:101FD000269FC001279F900D369F900D11246AE027
:101FE00070E00E949169718360834F5F4093640742
:101FF00002C010926407D0936A07C0936907F894EF
:1020000080917D00806280937D00FF91EF91DF9150
:10201000CF91BF91AF919F918F917F916F915F9180
:102020004F913F912F910F900FBE0F901F901895D9
:10203000EBE8FDE001C0319680818535E1F39F0139
:102040002A583D40C9010895EF92FF920F931F93C4
:10205000062F7A010E94230DDC0110E0FC01E00F45
:10206000F11FC70195958795959587958083000FFA
:10207000111F83E090E0002E02C0880F991F0A9480
:10208000E2F7809514962C911497822393E0E9222D
:10209000FF2402C0EE0CFF1C0A95E2F78E0D149689
:1020A0008C9382E00E94F0511F910F91FF90EF906E
:1020B00008951F920F920FB60F9211242F933F9302
:1020C0004F935F936F937F938F939F93AF93BF9340
:1020D000EF93FF9380E09CB5992319F48F5F8530CF
:1020E000D1F780913D04292F981708F4282F2093C9
:1020F0003D0420913E04892F291708F4822F8093F4
:102100003E0480916C07882321F0C09A10926C07DE
:1021100004C0C09881E080936C07A0910701B09142
:102120000801FD01819191919BBD8ABDF093080149
:10213000E093070112968D919C911397892BC1F41E
:102140008AEE94E0909308018093070180917101D9
:102150008295817080936C07F89487B78F7E87BFD4
:1021600078940E942926F89487B7806187BF789475
:1021700080916507816080936507FF91EF91BF9122
:10218000AF919F918F917F916F915F914F913F910F
:102190002F910F900FBE0F901F90189578941F925B
:1021A0000F920FB60F9211242F933F934F935F938B
:1021B0006F937F938F939F93AF93BF93CF93DF934F
:1021C000EF93FF93F89487B78D7F87BF80910601C7
:1021D0008F5F80930601815090E083709070892B0F
:1021E00011F49DE901C09CE981B7980F91BF7894E3
:1021F000F894CCB5DDB5789490914904992369F0B1
:1022000080915804882329F49093580481E08093A6
:10221000590491509093490421C0309157043323BD
:10222000B9F020915804222399F090E0809159044C
:10223000882309F491E090935904992309F428E044
:1022400020934904992351F031503093570406C02C
:10225000109258041092590410924304809159042A
:10226000882381F080914304882311F490E004C016
:1022700090916B0781E0982790936B07992311F455
:102280001B9A01C01B980E941264809165078260AE
:1022900080936507F8948CB59DB578948C1B9D0B45
:1022A0009093420480934104F89487B7826087BF7B
:1022B0007894FF91EF91DF91CF91BF91AF919F9172
:1022C0008F917F916F915F914F913F912F910F90DF
:1022D0000FBE0F901F9018950F931F938C010E94B3
:1022E000836282E260E045E755E024E00E94295DD8
:1022F00080E068E1A8010E94645D0E94EC6080912A
:1023000044010E94E2601F910F91089586B3809569
:102310008E77E1F70E94DB620895EF92FF920F93B0
:102320001F938C017B010E94836282E260E047EE92
:1023300055E024E00E94295D80E060E2A8010E944F
:10234000645D80E068E2A7010E94645D80E060E374
:1023500041ED55E00E94645D0E94EC608091440173
:102360000E94E2600E9486111F910F91FF90EF90F2
:102370000895EF92FF920F931F93CF93DF93E82E70
:10238000882349F48091450490914604492F441FC5
:102390004427441F5FC1992787FD909597FF03C08D
:1023A000909581959F4F863109F44FC18A3030F462
:1023B00090E00D960E947A63482F48C18A50282FDA
:1023C00030E08901000F111F020F131F01571C4F2E
:1023D000D80112968C91882311F440E03BC1F8019A
:1023E0008281853010F420E007C0D80112968C91CC
:1023F000883008F437C122E0D801EC91E150E73091
:1024000008F449C052C0809147049091480440E0CC
:102410008C239D23892B89F127C0809145049091BD
:1024200046048C2B9D2B9093460480934504F80121
:1024300080810E94B911F82ED80111968C910E94CA
:10244000B911982FF8018281853019F0863049F44E
:1024500003C0FF2089F002C0FF2031F4992321F44A
:102460000BC040E0F91649F041E08091470490919B
:1024700048048C2B9D2B0AC040E0209147043091EA
:102480004804CE018095909582239323909348042D
:1024900080934704DBC080914404882391F5F0E0E9
:1024A000EE0FFF1FE454F84F29C0E93018F4C0E0E4
:1024B000D4E029C0E03178F4F0E0EE0FFF1FDF0137
:1024C000A05DBE4FE45CF84FC081D1818D919C919D
:1024D000C81BD90B09C0E43150F4F0E0EE0FFF1F28
:1024E000E45CF84FC081D181CC0FDD1F0CC0E43219
:1024F00040F4F0E0EE0FFF1FEE55F84FC081D181A0
:1025000002C0C0E0D0E0222389F5D80111968C9159
:102510000E94C90CF8012281223051F0233071F061
:102520002130C1F440E08C179D070CF08FC08DC0A6
:1025300040E0C817D9070CF089C087C040E0FE0111
:10254000D7FF03C0F095E195FF4F8E179F070CF062
:102550007DC07BC040E0FE01D7FF03C0F095E19550
:10256000FF4FE817F9070CF071C06FC0D801119642
:10257000EC91E150E73050F4809144048823A9F5B0
:10258000F0E0EE0FFF1FE454F84F2BC0E93018F4D1
:10259000E0E0F4E02CC0E03180F4F0E0EE0FFF1F4B
:1025A000DF01A05DBE4FE45CF84F0190F081E02DAB
:1025B0008D919C91E81BF90B0AC0E43158F4F0E0CE
:1025C000EE0FFF1FE45CF84F0190F081E02DEE0F5D
:1025D000FF1F0DC0E43248F4F0E0EE0FFF1FEE5590
:1025E000F84F0190F081E02D02C0E0E0F0E0D8016A
:1025F00012968C91893089F08A3018F4883009F568
:1026000007C08A3079F08B3091F08C30D1F414C04F
:1026100040E0CE17DF07D1F418C040E0CE17DF0747
:10262000A1F414C040E0EC17FD0784F40EC040E0B4
:10263000CE17DF075CF409C040E0CE17DF0734F0A7
:1026400004C040E0EC17FD070CF041E01E1414F04C
:1026500081E04827842FDF91CF911F910F91FF9048
:10266000EF900895C1E0D0E002C0CC0FDD1F2A95A5
:10267000E2F780914504909146048C239D23892B99
:1026800009F0C1CECACE362F37953327379520E0D3
:1026900030934604209345040E94B91108950F9386
:1026A0001F93CF93DF93082F10916D01110F159594
:1026B000812F992787FD909597FF03C0909581956D
:1026C0009F4F8597F4F12091880D3091890D80916D
:1026D000850D9091860D282B392B8091830D90913B
:1026E000840D282B392B8091870D90E0282B392BD6
:1026F0008091800D90E0282B392B232B39F41092F8
:10270000800D17FF03C081E08093800D11161CF42B
:10271000812F845202C0812F8C5D60E00E944313A0
:10272000282F882361F08091800D882341F490E068
:102730008091870D882309F491E09093870D209371
:10274000800DC091880DD091890D2196D093890D6F
:10275000C093880DE091850DF091860DE00FF11D7D
:10276000F093860DE093850DF8948091760D90910D
:10277000770D78942091830D3091840D821B930BFB
:102780008436910508F445C12C593F4F3093840D90
:102790002093830DCF01BE010E947D69062F862FF5
:1027A00090E09C012C9FC0012D9F900D3C9F900DAF
:1027B0001124E81BF90BF093860DE093850D109220
:1027C000890D1092880D912F915F9F3118F410920E
:1027D000870D0EC0812F8C5D893450F4111614F4CE
:1027E000835301C0892F60E00E9443138093870DBB
:1027F00080915C0490915D04019690935D048093B8
:102800005C0460915E0470915F046F5F7F4F709312
:102810005F0460935E04002349F08091620490910C
:102820006304019690936304809362048091870D02
:10283000882349F0809160049091610401969093FF
:10284000610480936004069540916404509165048E
:10285000400F511D5093650440936404E0916E0154
:10286000F0916F01F0936804E093670480916D012B
:10287000880F8595992787FD909597FF03C09095C0
:1028800081959F4F882319F41092660422C08130ED
:1028900021F4CF01861B970B18C0803170F480FFA4
:1028A00007C0CA0174E0969587957A95E1F709C04B
:1028B000809162049091630404C0809160049091BF
:1028C00061049F01281B390BC90190936804809310
:1028D000670480916604813051F0813018F08230B5
:1028E00001F510C080916D018F77D9F017C08091EC
:1028F000670490916804181619069CF0309789F0C7
:1029000082E00DC08091670490916804855C9F4FC0
:102910001CF483E080936604309719F481E080937F
:102920006604209167043091680480917C0D909139
:102930007D0D8217930709F45EC090916604913073
:1029400009F049C080915C0182FF2FC0309769F186
:102950002E31310521F482E0809357040CC02431DC
:10296000310519F49093570406C02A30310519F047
:102970002430310524F480914C04809349048091E3
:102980005C0183FF12C02E31310549F0243131053D
:1029900031F02A30310519F02430310534F482E366
:1029A00090E0909356048093550480915C0181FFE0
:1029B00022C080916D0187FF04C0CF01821B930B61
:1029C00001C0C9016CE370E00E947D69892B99F414
:1029D00080914C0404C0923071F480914D04809336
:1029E000490480915C0183FF06C082E390E09093EC
:1029F00056048093550430937D0D20937C0D809177
:102A00006D0187FF06C0E21BF30BF0936804E093AF
:102A10006704DF91CF911F910F91089520916D016F
:102A2000220F2595822F992787FD909597FF03C048
:102A3000909581959F4F823091059CF1213F8CF1BB
:102A400020317CF5273F94F02A3084F4E0915A013C
:102A5000F0E0EE0FFF1FEE0FFF1F95958795E80F33
:102A6000F91FE15DFA4FE491F0E003C0FC01F59538
:102A7000E7953197EE0FFF1FE454F84F0190F08176
:102A8000E02D27FF05C080E094E08E1B9F0B03C064
:102A9000CF0180509C4F26E0969587952A95E1F7C7
:102AA00002C080E090E00E944F13E0915A01F0E0F4
:102AB000EE0FFF1FEE0FFF1FEE5CFA4FE491F0E008
:102AC000EE0FFF1FE654F84F0190F081E02D80914A
:102AD0005C0180FF05C080E094E08E1B9F0B03C06B
:102AE000CF0180509C4F6091810D7091820D6F5F7E
:102AF0007F4F7093820D6093810DAC01E6E0569597
:102B00004795EA95E1F780917E0D90917F0D480FF2
:102B1000591F50937F0D40937E0DF8948091760D50
:102B20009091770D789420917A0D30917B0D821BD6
:102B3000930B885E934098F1F8948091760D909174
:102B4000770D789490937B0D80937A0D10927F0D82
:102B500010927E0D1092820D1092810D8091E804EA
:102B60009091E90401969093E9048093E804209100
:102B7000E6043091E704F901E259FB4FCA010E94D3
:102B80007D6960832F5F3F4F3093E7042093E60415
:102B90002837310520F01092E7041092E6040895DA
:102BA000EF92FF920F931F93CF93DF93C3EDD3E088
:102BB00071E0E72EF12C2881222309F189818823F5
:102BC000F1F090E00197870102C0000F111F8A9574
:102BD000E2F7822F60E00E94431320915207309168
:102BE0005307882319F0202B312B05C0C80180958D
:102BF0009095282339233093530720935207229628
:102C000083E0CB3ED807B9F6DF91CF911F910F91AA
:102C1000FF90EF900895FF920F931F938C01F62E73
:102C20000E94836282E260E04FE655E024E00E9469
:102C3000295D80E060E2A8010E94645D8CE168E3A8
:102C400041E655E00E94645D0E94EC60FF2011F0B7
:102C500089E102C0809144010E94E26080914E04AB
:102C6000809349040E94861186B380958E7791F4F3
:102C70008091470160E00E944313882331F48091E2
:102C80005E01882311F4FF2019F0C79AA895ECCFB4
:102C9000C798FCCF1F910F91FF9008958091590123
:102CA00087FD07C0887329F480EA95E060E00E9400
:102CB0000B1608958091590186FD0AC00E94CE57D7
:102CC000883C910528F48DEE95E060E00E940B169B
:102CD00008950F931F9380915901867099F18FE8A1
:102CE00095E06DE775E00E948D1100E0809159013B
:102CF0008670823009F401E01EE00AC0113139F01B
:102D0000812F8D5060E00E944313801729F41F5FCC
:102D10001631A0F31631B1F086B380958E7791F419
:102D200006C080915E01882351F0C79A09C0809146
:102D3000470160E00E9443138823B9F7F2CFC79898
:102D40001EE0DECF1F910F9108950F931F93CF9335
:102D5000DF938091590180FD43C080915A0190E03A
:102D60008170907002E010E0081B190BF801EE0F63
:102D7000FF1FEA5EFE4FC181D281609687859089F0
:102D8000C81BD90B0E941F0F102F802F0E94AE0E60
:102D9000C817D9072CF58FEB95E060EB75E00E9422
:102DA0008D110E941F0F812F0E94AE0EC817D907E8
:102DB00024F486B380958E7749F00E94861110C066
:102DC00080915E01882351F0C79AEBCF8091470133
:102DD00060E00E9443138823B9F7F2CFC798E1CF90
:102DE000DF91CF911F910F910895AF92BF92CF9233
:102DF000DF92EF92FF920F93CF93DF9380915C016C
:102E000084FD6EC08091470160E00E9443138823D7
:102E100029F480915E01882309F456C0C79A0E9464
:102E2000836280E060E04CE850E020E000E00E9437
:102E3000115C0E94EC60809144010E94E2600E945B
:102E400086110E94BC0E0F5F0032D9F7AA24BB2462
:102E500000E0802F0E94AE0EC92FD0E0AC0EBD1E48
:102E60000F5F0430B1F7F894C090760DD090770DD5
:102E7000789480E991E0C80ED91E1CC00E94BC0E57
:102E8000C0E0D0E000E0802F0E94AE0EE92EFF24CB
:102E9000CE0DDF1D0F5F0430B1F786B380958E77BE
:102EA000F9F4CA15DB05E1F411C080915E018823B5
:102EB000A9F0C79AF8948091760D9091770D789447
:102EC000C816D906D9F60CC0C798A9CF809147017A
:102ED00060E00E944313882361F7E7CFC798EACFE9
:102EE000DF91CF910F91FF90EF90DF90CF90BF9047
:102EF000AF9008951F93CF93DF93C0E0D4E011E02B
:102F00008881882351F060E00E944313882329F0D0
:102F1000812FDF91CF911F9108951F5F2D9615305E
:102F200079F710E0F5CFEF92FF920F931F93E82E01
:102F3000162F6F3F19F40E947A17182F00E0112303
:102F4000D9F0F12E812F6E2D0E948A0EAC0181E006
:102F5000453F580794F0642F655F262F30E0812F9E
:102F6000992787FD9095281739070CF06F5F0F5F41
:102F7000053011F0162FE3CFFF248F2D1F910F91F5
:102F8000FF90EF900895DF92EF92FF920F931F93BF
:102F9000F82E082F0F70065010917101177008302D
:102FA00008F0AAC0E02EE5948E2D6FEF0E949317D3
:102FB000D82E6E2D0E948A0EBC01112389F477FF52
:102FC00004C088279927861B970B9595879595951B
:102FD000879501968132910584F080E290E00DC0E2
:102FE000212F332727FD30952150304081E090E09C
:102FF00002C0880F991F2A95E2F7482F80915A0145
:1030000090E08170907022E030E0281B390B8E2D0B
:1030100090E02817390739F48091700183FF03C0CD
:1030200044E081E001C080E0552747FD509500FF56
:1030300006C0460F571F10E023E83FEF05C09B0175
:10304000241B350BA901F7CF2115310519F488236D
:1030500029F015C09FEF2338390749F0421753076D
:103060001CF0621773074CF02D37310541F024171F
:1030700035072CF02617370714F4A90111E023585F
:103080003F4F2A3F310501F76417750724F44E3787
:10309000510544F40CC0461757074CF42FEF433842
:1030A00052072CF48091710186FFAB0111E03EEFD5
:1030B0004C3053071CF44CE05EEF06C081E0453F06
:1030C000580714F044EF51E08D2D6E2D0E9424100E
:1030D000112341F08F2D0E940164109243048091CE
:1030E0004C0407C0F6FE03C081E080934304809146
:1030F0004B0480934904FF248F2D1F910F91FF9063
:10310000EF90DF9008954F925F926F927F928F922F
:103110009F92AF92BF92CF92DF92EF92FF920F9366
:103120001F93CF93DF933C01A4EBB7E0FC0188E051
:1031300001900D928150E1F70E947A172AEEC22E7B
:1031400022E0D22E0FEFC0E0D0E092E0492E512CC9
:10315000E82EFF240894E11CF11CFE01EE0FFF1F76
:10316000EE0FFF1FE951FD4F2081822F837009F47C
:10317000CEC026952695237030E0802F992787FDB5
:1031800090952817390709F4B9C08181807E99F09C
:10319000828180FD10C0FE01EE0FFF1FEE0FFF1FAA
:1031A000E851FD4F808182958695877090E0E81602
:1031B000F90609F0A3C0FE01EE0FFF1FEE0FFF1F7F
:1031C000E851FD4F8081880F880F880F8595859580
:1031D000859561E00E944313882309F48FC0FE01A6
:1031E000EE0FFF1FEE0FFF1FE951FD4F8081182FDB
:1031F000169516951370E12FF0E0EE0FFF1FEC54BB
:10320000F84F0190F081E02D8370F7FF03C080FD3F
:1032100003C074C081FF72C0012FD6018C91282F8A
:10322000332727FD309580915A0190E0817090708E
:103230004201881A990AA12EBB24A7FCB0948A14D3
:103240009B0499F48091710183FF0FC0CF018050DE
:103250009C4F62E070E00E949169CB01B9010E942D
:10326000570E9C01220F331F05C0CF01B9010E94E8
:10327000570E9C01FE01EE0FFF1FEE0FFF1FE951DD
:10328000FD4FE0818E2F807F69F06E2F62956F7009
:10329000862F90E00B970CF06C5FC90140E00E9414
:1032A000B90D9C01B901882777FD8095982FFE0103
:1032B000EE0FFF1FEE0FFF1FE751FD4F20812695F8
:1032C00030E040E050E00E945E6924E630E040E0FB
:1032D00050E00E94C6698A149B0431F48091710108
:1032E00083FF02C020503440E12FFF27E7FDF09517
:1032F000EE0FFF1FE60DF71D31832083219684E03A
:1033000090E0C80ED91ECE30D10509F026CFDF914E
:10331000CF911F910F91FF90EF90DF90CF90BF90D2
:10332000AF909F908F907F906F905F904F90089597
:103330004F925F926F927F928F929F92AF92BF92C5
:10334000CF92DF92EF92FF920F931F93CF93DF9371
:10335000E7E1CE2EE1E0DE2E7AED872E75E0972EA6
:103360006CEBA62E67E0B62E2401EE2400E010E000
:1033700051E0652E712CF02E802F0E94AE0E9C0124
:10338000D6018D919C911197281B390B12161306AB
:103390002CF45C96ED91FC915D9705C0D6011E96CC
:1033A000ED91FC911F97E436F10514F4E4E6F0E0AA
:1033B000B901882777FD8095982F4AE0660F771F1F
:1033C000881F991F4A95D1F79F01442737FD4095E3
:1033D000542F0E94C669E901BCEF21303B071CF461
:1033E000C0E0DCEF06C0E4E020303E0714F0C0E0AF
:1033F000D4E0D501CD93DC93CE010F964F9710F515
:1034000004301105BCF4E0915A01F0E0EE0FFF1F0B
:10341000EE0FFF1FE00FF11FE05DFA4FE4918E2FDA
:1034200090E00197F30102C0EE0FFF1F8A95E2F7CB
:10343000CF0107C0C301002E02C0880F991F0A9454
:10344000E2F7E82AF3E0FF1508F458C0809144043D
:10345000882309F053C00F5F1F4FC301002E02C025
:10346000880F991F0A94E2F7015010408160209163
:1034700052073091530782239323892B09F43EC0CE
:10348000F801EE0FFF1FE05BFE4FF0808F2D807C78
:10349000A9F1EF2DEF73F0E0EE0FFF1FDF01A85B46
:1034A000BE4FEC5AF84F608171812D913C91621BA7
:1034B000730B882777FD8095982FD601DA962C918B
:1034C000332727FD3095432F532F0E945E6922E357
:1034D00030E040E050E00E94C669F294F694F69421
:1034E00073E0F722EF2DF0E0E130F10519F03297AB
:1034F00029F403C0C20FD31F01C0E901F201C19337
:10350000D1932F010F5F1F4F22E030E0C20ED31E78
:10351000A20EB31E0730110509F02DCF8AED95E0FC
:103520000E94831862E2A62E66E0B62E00E010E04C
:1035300052E0452E512C612C44E0742ED401CD91E3
:10354000DC91802F6FEF0E949317602F0E948A0EEC
:103550006C0180915A0190E081709070F201E81B3B
:10356000F90BE017F107B9F58091700183FF33C0C3
:1035700080915C019601442737FD4095542F80FFD0
:103580000CC0C050DC4FBE01882777FD8095982F76
:103590002D573040404050400BC0B3016C1B7D0B99
:1035A000882777FD8095982F23583F4F4F4F5F4FC7
:1035B0000E945E6920E038E040E050E00E94C66969
:1035C000C901DA018030F8E09F07F0E0AF07F0E0D2
:1035D000BF0741F406C080916D04882311F0CC240C
:1035E000DD24C601880F991FD5018D939D935D0140
:1035F0000F5F1F4FE2E0F0E08E0E9F1E04301105BA
:1036000009F09CCF8E2DDF91CF911F910F91FF90EC
:10361000EF90DF90CF90BF90AF909F908F907F9072
:103620006F905F904F9008959F92AF92BF92CF920C
:10363000DF92EF92FF920F931F93CF93DF93AAED48
:10364000EA2EA5E0FA2E02E216E0C0E0D0E0F2E0B9
:10365000AF2EB12C99249394CC2E80915A0190E0F6
:10366000817090709501281B390B2C173D0749F18B
:103670008C2F6FEF0E949317D82E909244040E94D3
:10368000981910924404F80180819181F7012081FA
:103690003181820F931F62E070E00E949169AB015B
:1036A000FEEF6C307F071CF44CE05EEF06C021E0BB
:1036B000653F720714F044EF51E08D2D6C2D0E9490
:1036C0002410219682E090E0E80EF91E0E5F1F4F55
:1036D000C430D10509F682E00E94F05180914B047C
:1036E00080934904DF91CF911F910F91FF90EF904C
:1036F000DF90CF90BF90AF909F9008952F923F9210
:103700004F925F926F927F928F929F92AF92BF92F1
:10371000CF92DF92EF92FF920F931F93DF93CF939D
:10372000CDB7DEB729970FB6F894DEBF0FBECDBF79
:103730009F838E830E947A17182F0E9498194091B8
:1037400073014823242F30E08091700690E0822797
:10375000932782239323892B21F080914B0480931C
:1037600049044093700680E094E09093E9058093CB
:10377000E8059093EB058093EA0580914404882343
:1037800079F180915A0190E08170907022E030E0F0
:10379000281B390B1092DB051092DA052130310518
:1037A00021F01092DD051092DC052230310521F068
:1037B0001092DF051092DE051092E1051092E005EF
:1037C000E2EFF5E01192119226E0E230F207D1F734
:1037D0004AE256E05A83498322E036E0FA0146C0C5
:1037E00062EF75E040E050E0FA01EC5AF84FDA0180
:1037F000AA5EBE4F80819181D2962D913C91D39744
:10380000821B930B880F991FDB018D939D93BD0144
:103810004E5F5F4F4830510539F780915C079091BA
:103820005D07880F991F9093FB058093FA0580919F
:103830005E0790915F07880F991F9093FD05809315
:10384000FC058091600790916107880F991F909304
:10385000FF058093FE058091620790916307880FB2
:10386000991F9093010680930006B2CF80819181C9
:10387000D9018D939D939D013496B6E0EA36FB07FE
:10388000A9F780915404882311F00E940E1580E45A
:10389000EAE2F6E0DF011D928A95E9F710925107FE
:1038A000B1E34B2EB7E05B2EA1EB8A2EA6E09A2E59
:1038B000F1E76F2EF6E07F2E1D82212E332408942F
:1038C000211C311C8D810E94350D6C01FC01808111
:1038D0008F7159F4E7E94E2EE2E05E2E23EB33E0E0
:1038E0003C832B832224332493C290E0419794F7A6
:1038F000D60117969C91892F807FC1F0892F8595DD
:10390000859585958595282F332727FD30951816A1
:103910002CF42216330609F069C208C088279927BB
:10392000821B930B2816390609F460C2F6018381C5
:1039300061E00E944313D2019C918823C1F4192FA6
:103940001C92F6019181892F8850823008F04EC276
:1039500087818E70843009F449C2993019F0198634
:10396000188640C020E03CEF398728873BC010E034
:10397000992309F411E081E0D2018C93F601818151
:103980008150A82FB0E0FD01EE0FFF1FE652FA4F65
:103990002081318139872887843168F03D81831700
:1039A00050F4AA0FBB1FAA0FBB1FA65DB94F4D91C4
:1039B0005C9159874887D6019C91892F807E91F030
:1039C000929596959770892F90E00197E1E0F0E04D
:1039D00002C0EE0FFF1F8A95E2F7209151072E2BB0
:1039E00020935107D60118968C91882341F00E94AC
:1039F000C90CE885F985E80FF91FF987E887D60132
:103A000016968C911697882329F415968C91882305
:103A100009F44EC1F4016081718182819381112387
:103A200091F420E031E040E050E00E94C6695095FA
:103A30004095309521953F4F4F4F5F4FA884B984F3
:103A4000A20EB31E5CC0D60117968C9117978E708C
:103A5000843049F5EC91EF71F0E0EE0FFF1FE0507C
:103A6000FA4F60817181882777FD8095982F20E03B
:103A700034E640E050E00E945E69F40160837183A7
:103A800082839383D60112962C91222361F03327EF
:103A900027FD3095432F532F0E94C669F4012083E0
:103AA000318342835383D4016D917D918D919C919B
:103AB00020E031E040E050E00E94C669509540951A
:103AC000309521953F4F4F4F5F4FA884B984A20E88
:103AD000B31EA114B10499F0F6018581B7FE829559
:103AE0008F7090E09C0144E650E0249FC001259F28
:103AF000900D349F900D1124D3018D939C93F3016D
:103B0000208131812115310551F0809154048823A1
:103B100009F4C1C02150304031832083BCC0A114BE
:103B2000B10409F4C5C0F6018681882309F4C0C038
:103B300080915404882309F478C02281222329F437
:103B400060E070E080E293E018C0822F992787FD43
:103B5000909597FF03C0909581959F4F9C014427B6
:103B600037FD4095542F60E070E080E293E00E94C2
:103B7000C669C901DA01BC01CD01D60116962C91A6
:103B80001A141B040CF52F70422F50E041155105FB
:103B9000D9F1E4E6F0E04E9F90014F9F300D5E9F1B
:103BA000300D1124442737FD4095542F0E94C669DB
:103BB00079018A01F40180819181A281B381E80EAB
:103BC000F91E0A1F1B1F2BC022952F70422F50E099
:103BD00041155105C9F0A4E6B0E04A9F90014B9F02
:103BE000300D5A9F300D1124442737FD4095542F36
:103BF0000E94C669F401E080F18002811381E21A1B
:103C0000F30A040B150B0BC028853985C901AA27B7
:103C100097FDA095BA2FEE24F82E092F1A2FD40164
:103C2000ED92FD920D931C931397F40160817181C5
:103C3000828193812885398579010027F7FC0095D9
:103C4000102F1A141B0464F420E031E040E050E02F
:103C50000E94C669E216F3060407150764F01BC04C
:103C600020E031E040E050E00E94C6692E153F059B
:103C70004007510784F448855985CA01AA2797FD52
:103C8000A095BA2FBA2FA92F982F8827F4018083E7
:103C90009183A283B383D4016D917D918D919C9189
:103CA00020E031E040E050E00E94C6693987288773
:103CB000F6016481662339F08885998541810E94E7
:103CC000B90D99878887D60117968C91179780FD33
:103CD00013C01196EC91EE2379F0E53068F4F0E032
:103CE000EE0FFF1FE05EF94F80819181E885F98535
:103CF000E80FF91FF987E88728853985B9018827F2
:103D000077FD8095982FD60112962C91332727FDA9
:103D10003095432F532F0E945E699B01AC01F60141
:103D200087818695877090E08130910571F00081E0
:103D3000029709F046C00F71E02FF0E0EE0FFF1F71
:103D4000EE0FFF1FEA5DF94F37C0D6010C910F71DE
:103D500010E0000F111F000F111F0A5D194FCA015B
:103D6000B90124E630E040E050E00E94C669CA0193
:103D7000B901F80120813181428153810E945E693D
:103D8000D8016D937D938D939C931397F6010081D9
:103D90000F7110E0000F111F000F111F0A5D194F66
:103DA000D8016D917D918D919C9120E034E040E0AF
:103DB00050E00E94C669F801208331834283538317
:103DC00015C00F71E02FF0E0EE0FFF1FEE0FFF1F89
:103DD000EA5DF94F80819181A281B381820F931FA7
:103DE000A41FB51F80839183A283B383FD81FF5FEE
:103DF000FD830894411C511C24E030E0820E931E88
:103E000042E050E0640E751EF03209F05BCD62CDE9
:103E1000A981BA818D909D90AD90BC90C501B401EF
:103E200024E630E040E050E00E94C669E981FA8172
:103E30002083318342835383F101E653F84FC90154
:103E400020839183D20113962D913C911497119662
:103E50008C911197FAE08F02F0011124E851FC4F88
:103E6000F987E8878C914AE084023001112488E1C7
:103E70009CEF680E791ECF015E2F492F2E173F074A
:103E80001CF4C901522F492F852F942F8C01061540
:103E900017050CF4830181149104A104B10479F194
:103EA0009801442737FD4095542F181419041A041B
:103EB0001B0464F4A885B985BD01882777FD80952A
:103EC000982F621B730B840B950B0BC0C301AA27A1
:103ED00097FDA095BA2F281B390B4A0B5B0BCA0123
:103EE000B901A50194010E945E6920EA36E841E02B
:103EF00050E00E94C669C901DA014C015D01C801A8
:103F000075E0959587957A95E1F7800F911F980157
:103F1000232F330F330B2595820F931F000F012F93
:103F2000001F110B801B910B6C01EE24D7FCE09459
:103F3000FE2C8885998545E0959587954A95E1F70A
:103F4000E885F9858E0F9F1FA30135E055954795AC
:103F50003A95E1F7B301660F672F661F770B460DA1
:103F6000571D9F01232F330F330B2595820F931F6E
:103F7000EE0FEF2FEE1FFF0B8E1B9F0B8C012227E6
:103F800017FD2095322FC80CD91CEA1CFB1C0C1500
:103F90001D052E053F0514F468017901CB019595A7
:103FA000879595958795480F591F461B570BCA0152
:103FB000AA2797FDA095BA2F87017601E816F90682
:103FC0000A071B0714F47C018D01D20112968C9113
:103FD000882341F010950095F094E094E11CF11CC9
:103FE000011D111DEB81FC818081882381F060E03F
:103FF0000E944313882359F0AB81BC8111968C91A8
:104000000E94C90C7C010027F7FC0095102FEE815F
:10401000FF81E20DF31DF182E082E981FA8134969D
:10402000FA83E98322E030E0220E331E45E050E0BF
:10403000440E551E8B819C8102969C838B83EA568D
:10404000F64009F0E5CE29960FB6F894DEBF0FBE14
:10405000CDBFCF91DF911F910F91FF90EF90DF9037
:10406000CF90BF90AF909F908F907F906F905F9018
:104070004F903F902F900895CF92DF92EF92FF9252
:104080000F931F93DF93CF93CDB7DEB7A0970FB6F3
:10409000F894DEBF0FBECDBF81E0809344048E0153
:1040A0000F5F1F4FC8010E947E1B10924404F8014D
:1040B000AAE9B2E09E012F5D3F4F8081918143E0EC
:1040C000883E94071CF088EE93E006C04CEF8931DF
:1040D000940714F488E19CEF11969C938E9332968A
:1040E0001596E217F30749F700E010E0F2E0CF2E53
:1040F000D12CE02E80915A0190E081709070960151
:10410000281B390B2017310791F0FF248F2D6E2DBE
:104110000E948A0E855F914034F48F2D6E2D40E011
:1041200050E00E942410F39445E0F41679F70F5FF5
:104130001F4F04301105E9F682E00E94F051809192
:104140004B0480934904A0960FB6F894DEBF0FBECF
:10415000CDBFCF91DF911F910F91FF90EF90DF9036
:10416000CF900895CF92DF92EF92FF920F931F931B
:10417000DF93CF93CDB7DEB7C054D0400FB6F894DD
:10418000DEBF0FBECDBFF8942091760D3091770D34
:10419000789440E08091720790917307281739074F
:1041A00009F041E040935404F8948091760D909189
:1041B000770D789490937307809372070E947A1713
:1041C000582F80917107851739F190E02DE030E08C
:1041D000829FF001839FF00D929FF00D1124E65015
:1041E000FC4F408142954F70852F90E0829FF001F7
:1041F000839FF00D929FF00D1124E650FC4FE0815B
:10420000EF70E41708F4E42F8AE0E89FC00111245E
:10421000809370075093710780917007882349F04D
:10422000DE011196EEEEF7E080E201900D928150F2
:10423000E1F78E010F5D1F4FC8010E947E1B409168
:104240007007F8017E010894E11CF11C0EEE17E0E6
:1042500050E2C52ED12CCE0EDF1EF89480819181C4
:10426000442381F0D7012D913C91821B930B642F45
:1042700070E00E949169260F371FD8012D933C935F
:10428000415003C0D8018D939C937894329682E07C
:1042900090E0E80EF91E0E5F1F4FEC15FD05E9F6E4
:1042A0004093700780914B0D882381F480917908A9
:1042B000882329F081E798E00E94F35807C0809195
:1042C0008308882319F080E00E94F65180915404FD
:1042D000882309F4A7C1809169048823A1F09091F3
:1042E0006A04892F8F5F80936A04843660F0935646
:1042F00090936A0480916B0490916C040196909362
:104300006C0480936B040E94D0158091EC07882385
:1043100019F081508093EC0780915B01882309F4A8
:1043200066C080915304823308F461C080916A06AC
:1043300090916B06A0916C06B0916D060196A11D3F
:10434000B11D80936A0690936B06A0936C06B093A0
:104350006D0600E010E0FF248F2D0E94AE0E46E0B7
:10436000969587954A95E1F7080F191FF39494E005
:10437000F91691F780916E0690916F06081719074C
:1043800061F010936F0600936E0610926A06109209
:104390006B0610926C0610926D06E0906A06F09023
:1043A0006B0600916C0610916D0660915B0170E0E8
:1043B00080E090E020E737E140E050E00E945E6955
:1043C0006E157F058007910790F48FE390E0A0E0E1
:1043D000B0E0E822F9220A231B239AE0E916F1044F
:1043E0000105110521F480914D04809349048091C9
:1043F0006D04882319F0815080936D040E948362BC
:104400000E94DE620E94C317182F8091550490917C
:104410005604009729F00197909356048093550411
:10442000112389F080915E0190E024EF31E0DC01FE
:10443000A29FC001A39F900DB29F900D1124909355
:104440005604809355048091470160E00E94431315
:10445000882339F48091550490915604892B09F4EE
:10446000DFC0C79A80915A0490915B042091C807DD
:104470003091C907821B930B60E270E00E94916942
:1044800070930F0860930E086115710591F080918B
:104490006E0790916F07821B930B62E070E00E94A1
:1044A000916970930F0860930E0830935B0420931A
:1044B0005A048091C8079091C90790936F07809321
:1044C0006E07E0911F08F0E0EE0FFF1FEF5EF74F61
:1044D0000190F081E02D812F09950E94EC600E94EF
:1044E000430F882321F0809165008F7E03C0809167
:1044F0006500806180936500F8948091760D9091BD
:10450000770D78948F7190708230910521F0039728
:1045100009F088C06EC08091510490915204892B9B
:1045200039F487E00E94AE0E9093520480935104B8
:1045300080915104909152048C0123E0000F111FCF
:104540002A95E1F7081B190B87E00E94AE0E800F39
:10455000911F13E0969587951A95E1F77C0100E08D
:1045600010E0909352048093510420914601332728
:1045700027FD3095432F532FC801B7010E945E6974
:1045800028E030E040E050E00E94C669B4E0EE0C64
:10459000FF1C001F111FBA95D1F7E20EF31E041F76
:1045A000151F20914F043091500440E050E0C801A5
:1045B000B7010E94C6692093530480916D07805E05
:1045C00080936D07882371F580914501281750F578
:1045D000223340F180914E048093490480915C0124
:1045E00083FF20C082E390E09093560480935504AB
:1045F00019C080915901869586958695877090E0BF
:10460000BC01660F771F660F771F680F791F605C0C
:104610007A4F8AE494E045E050E00E94E16902C0EC
:10462000C79820CFC05CDF4F0FB6F894DEBF0FBE37
:10463000CDBFCF91DF911F910F91FF90EF90DF9051
:10464000CF9008951F93CF93DF939FEF9ABB1BBA30
:1046500081E887BB8EE788BB8EE384BB81EC85BB9A
:1046600011BA92BB88E082B987EF83B910926100DA
:104670001092620080E180936400909365000E9434
:10468000AE6080E487B985E886B987E083BF8CE9AE
:1046900081BF87B7836087BF8AE08EBD82E8809341
:1046A0008A0080917D00806280937D00EDB7FEB727
:1046B000329785E502C0808331974DE0EA38F407F0
:1046C00009F0C8F7789488EF9DE4909312088093DE
:1046D000110885EE92E4909314088093130889E101
:1046E0000E94E2600E941B571091430104B603FC34
:1046F0000CC00E94F5160E945A160E941F0F0E94BD
:10470000A5160E9469160E944E160E9486118EEE12
:1047100097E00E947E1B809144010E94E26080919C
:104720005E0190E024EF31E0AC01429FC001439F65
:10473000900D529F900D1124909356048093550430
:1047400080914301181719F081E00E94F0510E94F6
:10475000292687B7806187BF2DE088E190E00FB6FA
:10476000F894A89581BD0FBE21BD0E948F0FEC016A
:10477000E0915D01F0E0EE0FFF1FE050FF4F019070
:10478000F081E02D09950E94330F0E94B2208091A4
:104790006507833019F4A895109265070E948F0F62
:1047A00020913F04309140048C1B9D0B821793078E
:1047B00008F4C9019093400480933F04D6CFFC01D4
:1047C000A0911F08B0E0AA0FBB1FAF5EB74FED93DB
:1047D000FC938FEB099580914A04809349040895D6
:1047E0006F927F928F929F92AF92BF92DF92EF92E1
:1047F000FF920F931F93CF93DF938091710185FDFB
:1048000004C0A12C14E0B12E03C0A12CB5E0BB2E36
:10481000E0917001E595E595E595E595EE0FE85F8A
:104820009091720184E69802C0011124A8E5EA2E55
:10483000A2E0FA2EE80EF91EEA3028F448EC5FEA0E
:104840004E195F090DC08853904F2E2F30E0829F84
:10485000A001839F500D929F500D1124405C504E3B
:10486000CEEED7E0AAEEB4E06E2F70E0660F771FB1
:104870006C0F7D1F882499248A189B08662477244E
:104880006E187F0808E512E00E191F0923C0288161
:104890003981C501DA2CF92F2A153B051CF4C90111
:1048A000D22EF92F8D2D9F2F881599050CF4C40158
:1048B000805A964F9301281B390B420F531F1196B4
:1048C000FC92EE92800F911F13969C938E931297F9
:1048D00022961496C617D707D1F6EE0FAE2FB0E08A
:1048E000AA0FBB1FA651BB4FED92FC92EF5FAE2FFC
:1048F000B0E0AA0FBB1FA651BB4F4D935C93EF5F77
:10490000F0E0EE0FFF1FE651FB4F11821082DF91A6
:10491000CF911F910F91FF90EF90DF90BF90AF90DC
:104920009F908F907F906F900895A0912208B091F2
:104930002308FD018193919313967C936E931297B4
:104940003296F0932308E09322080895882329F0F3
:1049500060E679E080E699E004C060EB74E080EB0B
:1049600094E00E94952408951F93182F82700E944E
:10497000A624812F81700E94A6241F910895EF9292
:10498000FF920F931F93CF93DF93809170018770F5
:1049900090E08130910519F0029719F404C010E0FD
:1049A00003C011E001C012E02091EE073091EF0743
:1049B00020503C4F220F331F8091F0079091F10758
:1049C00080509C4F880F991F892F232F37FD20E09F
:1049D00087FD80E0022F20310CF00FE0F82E8FE0F1
:1049E0008F1514F44FE0F42E2F2D332727FD30952B
:1049F000802F992787FD909509968217930714F4C5
:104A00000F2D0950C02FDD27C7FDD095275F3F4FE1
:104A10002C173D071CF437EFF32EF00E8AEE94E0CE
:104A2000909323088093220880E797E160EB74E07D
:104A30000E94952480E00E94B42480E699E060EB17
:104A400074E00E94952480E699E060EB74E00E9497
:104A50009524812F0E94B4241195CE0195958795B8
:104A600095958795E82E0E94B4241E19802F0E94E8
:104A7000B424101B8F2D992787FD909595958795C8
:104A800095958795082F0E94B424101B8F2D0E94A6
:104A9000B424812F8F190E94B42480E00E94A624A0
:104AA0008091220890912308029790932308809385
:104AB000220880E69AEE60E070E00E949524DF9183
:104AC000CF911F910F91FF90EF900895882329F0C7
:104AD00080E293E060E476E004C080E496E060E287
:104AE00073E00E94952408950F931F93082F10E000
:104AF000802F81700E9466251F5F06951830C1F7D0
:104B00001F910F9108950F931F938AEE94E0909355
:104B10002308809322088091240891E089278093BC
:104B20002408882309F44FC08091EE079091EF0785
:104B3000885F9B4F34E0969587953A95E1F78038EA
:104B4000910510F08FE790E0182F2091F007309139
:104B5000F10737FD0FC0C901409625E0969587956E
:104B60002A95E1F78034910510F08FE390E0082F4B
:104B700000640FC080E190E0821B930B05E09695E6
:104B800087950A95E1F78034910510F08FE390E066
:104B9000082F812F0E947425802F0E9474250127E1
:104BA000802F90E09C01B4E035952795BA95E1F708
:104BB000A4E0880F991FAA95E1F7822B0E94742523
:104BC00080E197E22BC08091F2079091F30780502B
:104BD0009C4FF4E096958795FA95E1F7803891051A
:104BE00010F08FE790E0082F0068802F0E94742556
:104BF0008EE80E9474258EE8082710E0C801E4E0E2
:104C000095958795EA95E1F774E0000F111F7A9565
:104C1000E1F7802B0E94742580EB96E360EA7FE049
:104C20000E949524E0912208F0912308119211929C
:104C3000F0932308E0932208EA5EF440E03FF10598
:104C40002CF08FE496E060E00E940B161F910F910C
:104C5000089580917001877090E08430910534F45C
:104C6000813091054CF4892B21F00895049749F483
:104C700006C00E94F02308950E94BF2408950E9458
:104C8000832508959C0190911F08E92FF0E0E55ECF
:104C9000F74F809120088083E92FEF5FE0931F0892
:104CA000E53040F090931F0882E696E060E00E94B5
:104CB0000B16089580914A0480934904F0E0EE0FAA
:104CC000FF1FEF5EF74F318320838FEBF9010995CA
:104CD0000895E0911F08EE23D1F0E150E0931F0802
:104CE00080914A048093490410922108F0E0DF018A
:104CF000A55EB74F8C9180932008EE0FFF1FEF5EEB
:104D0000F74F0190F081E02D8EEB0995089585E72E
:104D100096E060E00E940B1608958F929F92AF92EA
:104D2000BF92CF92DF92EF92FF920F931F93CF9398
:104D3000DF93182F7B014A015901C02E84FD04C066
:104D400074E0D72E05E005C01F70106665E0D62E12
:104D500004E08D2D8066181761F08D2D8064181782
:104D600041F09091EB07992361F0133611F0133461
:104D700041F4E701219680914A0480934904802FF1
:104D800017C0802F8066181761F0802F8064181775
:104D900041F0992309F475C0123619F0123409F064
:104DA00070C0E701219780914A04809349048D2DBA
:104DB00090E00E947A63882351F0CC27DD27CE193A
:104DC000DF09802F0E9401648D2D0E9401648114EF
:104DD000910491F481E0A816B10471F4103661F4E5
:104DE0001092EB07C0E0D0E0E114F10411F4C1E04F
:104DF000D0E080E60E94016480910E0890910F0837
:104E0000C81BD90BAC16BD0644F4812F0E94016467
:104E100080914C0480934904E501C815D90544F4F8
:104E2000812F0E94016480914C0480934904E40125
:104E3000CE15DF05B1F0209739F4812F0E94F2637F
:104E400080914A04809349048C2D83700E94F05114
:104E5000EC16FD0614F08FEF01C081E0809310087E
:104E600002C010921008CE01DF91CF911F910F91D7
:104E7000FF90EF90DF90CF90BF90AF909F908F907A
:104E80000895E701A4CF0F93772767FD7095552705
:104E900047FD5095332727FD309501E00E948D2670
:104EA0000F9108950F93772767FD7095552747FD5C
:104EB0005095332727FD309502E00E948D260F91F3
:104EC0000895FF920F931F93F82E162F042F80E85A
:104ED00060E0412F50E0202F0E947A5F1A3010F4DA
:104EE00085E701C08FE660E04FE2202F0E946E5CF4
:104EF0001A3010F485E701C08FE64F2D50E04F5F68
:104F00005F4F60E0202F0E947A5F1F910F91FF900A
:104F10000895AF92BF92CF92EF920F931F93DF93BA
:104F2000CF930F92CDB7DEB7982F5A014115510597
:104F300009F44AC080912008882309F03CC0809180
:104F4000ED07882309F037C09436F1F0953611F05B
:104F500042E032C0662361F081E090E0861B910957
:104F6000880F991FFA01E81BF90B859194911BC0DA
:104F700081E090E0821B9109880F991FFA01E81BDC
:104F8000F90B859194910FC070E0822F90E001970A
:104F90006817790764F4FB013196EE0FFF1FE40FE9
:104FA000F51F859194910E94DF2380E020C1FA01D2
:104FB00085919491F8CF40E01092ED07862F622FF3
:104FC00099830E94612799810115110511F420E050
:104FD0000AC0809120082E2D8E1508F4282FF80184
:104FE000E20FF11D2491903669F1913690F49334DB
:104FF00009F4ADC0943430F4913299F1923409F04F
:10500000D6C07AC0943409F449C0953409F0CFC0B1
:105010005BC0943609F447C0953638F4923609F4EB
:1050200070C0933609F0C3C096C09138B9F09F3B69
:1050300021F0953609F0BBC04CC0109221081092A7
:10504000200813C0222309F4B2C090E08091EB073E
:10505000882309F491E09093EB07A9C01092EB0725
:105060000EC08091EB07882319F01092EB079FC0C8
:1050700080912008882319F0A114B10419F40E942A
:10508000692695C080914A048093490410922108B2
:105090001092200880E68093780D8DC080912108C1
:1050A000821709F484C0012B09F481C08091EB07B9
:1050B000882309F07CC080912108821710F48F5F4B
:1050C00015C01092210870C080912108882309F42E
:1050D0006EC0012B09F46BC08091EB07882309F0A7
:1050E00066C080912108882321F081508093210897
:1050F0005BC02093210858C0809120088C1509F4CA
:1051000056C08091EB07882309F051C08091200898
:105110008C1510F080E001C08F5F0115110509F4B6
:1051200070C0982FE81608F49E2DF801E90FF11DC4
:10513000E491EF3F09F065C0EBCF809120088E1518
:1051400008F4E82E0E0D111DF801049128C080917D
:105150002008882361F18091EB07882341F5809135
:105160002008882311F48C2D01C0815001151105F0
:1051700009F450C0982FE81608F49E2DF801E90FA5
:10518000F11DE491EF3F09F045C0EBCF809120087D
:105190008E1508F4E82E0E0D111DF80104919017DC
:1051A00008F4092F0093210880E68093780DAB283E
:1051B00011F456E001C057E040912008442319F44F
:1051C0001092EA0713C0242F30E08091EA07281BD1
:1051D0003109852F90E08217930714F4451B04C012
:1051E000121613061CF041504093EA0781E00F901D
:1051F000CF91DF911F910F91EF90CF90BF90AF9023
:10520000089580932008909121080115110509F057
:1052100094CF08C0809320089091210801151105B2
:1052200009F0B4CF00E0BECFCF92EF920F931F935F
:10523000C02E00E010E0EE240E9489271F910F91FC
:10524000EF90CF9008950F93062F60E040E050E07C
:1052500020E00E9414290F9108950F93942F222388
:1052600011F400E001C002E043E0949FA00111248A
:105270004757594F23E00E9412610F9108950F93F1
:10528000942F222311F400E001C002E043E0949F38
:10529000A00111244057594F23E00E9412610F9141
:1052A0000895DC01FB0105C09C9180818D93919351
:1052B00041504423C9F70895CF92DF92EF92FF92B5
:1052C0000F931F93CF93DF93182F80E060E045E1A9
:1052D00057E022E00E94295D812F6AE047E956E00D
:1052E0002BE008E00E941429882309F465C0F0909F
:1052F0002008FA941038A9F480E80E94016489E13A
:105300008093EC0786E08F1518F08F2D0E9463655F
:1053100087E0F81611F40E94F26480914B048093A8
:10532000490418E0EE24CF2CDD24C7FCD094409132
:10533000EA074E0D473019F4193370F13DC0C42F00
:10534000D0E0CC16DD0611F020E101C022E1AE0173
:105350004F5F5F4F82E1612F02E00E94795E809192
:10536000EC07882319F4CC16DD0609F000E0AE0145
:10537000440F551F4C0F5D1F440F551F440F551F01
:105380004054594F88E1612F2CE00E941261185F50
:10539000E394103461F610C08091EC07882329F45F
:1053A00087E0F81611F422E001C020E086E0612FCA
:1053B0004DEA56E00E94295DDF91CF911F910F9138
:1053C000FF90EF90DF90CF9008955F926F927F9261
:1053D0008F929F92AF92BF92CF92DF92EF92FF9205
:1053E0000F931F93CF93DF93882E80E060E042EA13
:1053F00057E022E00E94295D882D68E047E956E0E9
:105400002BE004EB17E0EE24E3947CE0C72E0E942F
:105410008927882309F47FC080912008815099242E
:1054200058E0A52E682E772467FC70944EE0542E29
:105430008091EA07890D803109F46DC0C82EDD2402
:10544000BB24E601CC0FDD1FCD52DC4F7601EE0C04
:10545000FF1C84ED93E0E80EF91E6C147D0461F4EA
:10546000809121088B1541F48091EB07882309F482
:1054700047C011E001E002C000E010E0BB2021F0D5
:1054800091E0B91681F510C086E06A2D4881202F81
:105490000E946F61112339F1882D68814AEE26E15F
:1054A0000E94522788831FC088818823C1F0F7019A
:1054B0004081459DA00111244F5C584F8EE16A2D1B
:1054C0002EE00E941261112371F0882DF701608196
:1054D00040E027E00E945227F701808304C00023A8
:1054E00011F010922108B394F2E0BF1609F0B5CF85
:1054F000939488E0A80E97E0991609F099CF0BC015
:1055000080910E0890910F08892B19F011E002E0AC
:10551000B5CF02E0B2CFDF91CF911F910F91FF90F5
:10552000EF90DF90CF90BF90AF909F908F907F9043
:105530006F905F9008959F92AF92BF92CF92DF924B
:10554000EF92FF920F931F93CF93DF93982E80E0FB
:1055500060E04FE157E022E00E94295D892D69E07B
:1055600047E956E02BE00FE217E0EE24E394B0E1C8
:10557000CB2E0E948927882309F470C0AA24A8E0B2
:10558000BA2E4091EA074A0D403109F467C0C42E93
:10559000DD244F5F80E06B2D20E00E94736200E00D
:1055A0007601EE0CFF1C83EB93E0E80EF91EE6019A
:1055B000CC0FDD1FCC54DC4F8091200890E0019788
:1055C0008C159D0559F480912108801739F480913C
:1055D000EB078823C1F111E021E002C020E010E0D8
:1055E000002319F0013021F512C084E26B2DF70180
:1055F00040810E946F611123D9F0892DF7016081EC
:105600004AEE26E10E945227F701808311C04881AB
:10561000552747FD509580E66B2D0E947A5F112338
:1056200039F0892D688143E82DE70E94522788834D
:105630000F5F033009F6A394F8E0BF0E87E0A816C9
:1056400009F09FCF0BC080910E0890910F08892B15
:1056500019F011E022E0C4CF22E0C1CFDF91CF9159
:105660001F910F91FF90EF90DF90CF90BF90AF9080
:105670009F9008958F929F92AF92BF92CF92DF92A8
:10568000EF92FF920F931F93CF93DF93D82E80E07A
:1056900060E04CE158E022E00E94295D8D2D67E03A
:1056A00047E956E02BE00CE218E0EE24E3947CE0BE
:1056B000C72E0E948927882309F465C1809120089C
:1056C0008150BB2438E0F32E882E992487FC9094D7
:1056D00027E0A22E1091EA071B0D1C3009F453C1DC
:1056E000C12FD0E08C169D0611F0CC2409C080910A
:1056F000EB07882319F492E0C92E02C0CC24C3948E
:1057000080E06F2D49E158E022E000E00E94126144
:10571000193010F441E301C048E3410F8CE06F2DD4
:105720000E94255DFE01EE0FFF1FEC0FFD1FEF56DF
:10573000FC4FE08180912108882311F000E001C036
:105740000C2DEA9DA00111244A54584F87E16F2D7A
:1057500027E00E941261FE01EE0FFF1FEC0FFD1FFC
:10576000ED59FE4FE25DFD4F8081EE52F2408530F3
:1057700008F4F9C090912108E45DFD4F883008F4E9
:10578000FCC040819130D1F52C2D39C020E088E457
:105790006F2D0E943362FE01EE0FFF1FEC0FFD1F05
:1057A000E057FC4F408180912108823011F020E0C9
:1057B00001C02C2D552747FD509588E76F2D0E947D
:1057C0007A5FEE2435C020E08EE46F2D0E946F6179
:1057D000FE01EE0FFF1FEC0FFD1FE057FC4F408155
:1057E00080912108823011F020E001C02C2D86E646
:1057F0006F2D0E946F61EE24E3941AC020E088E4CC
:105800006F2D0E943362FE01EE0FFF1FEC0FFD1F94
:10581000E057FC4F408180912108823011F020E058
:1058200001C02C2D86E66F2D0E94336272E0E72EB8
:105830008091EB07882339F480910E0890910F082E
:10584000892B09F488C0CC2009F485C080912108F7
:105850008130A1F1813020F0823009F07CC048C055
:105860008E01000F111F0C0F1D1F0F561C4F8D2D89
:10587000F801608140E02DE00E945227F80180830A
:10588000853018F420E030E007C0883018F022E0BE
:1058900030E002C021E030E08E2D90E082179307C7
:1058A00009F459C0FE01EE0FFF1FEC0FFD1FED596B
:1058B000FE4FE45DFD4F119210824DC0F1E0EF16F6
:1058C00039F0EF1668F082E0E81609F044C008C02D
:1058D0008E01000F111F0C0F1D1F01571C4F25C0FB
:1058E0008E01000F111F0C0F1D1F01571C4F2AC0E6
:1058F000F1E0EF1699F0EF1620F082E0E81659F586
:105900001AC08E01000F111F0C0F1D1F00571C4FD6
:105910008D2DF801608143E82DE719C08E01000F3D
:10592000111F0C0F1D1F00571C4F8D2DF80160819A
:105930004AEE26E10CC08E01000F111F0C0F1D1F37
:1059400000571C4F8D2DF801608140E024E20E9439
:105950005227F8018083B394F8E0FF0E87E0B81671
:1059600009F0B8CE10C0E45DFD4F40818091210860
:10597000813009F00BCF2C2D0ACF4081913009F0F6
:1059800022CF2C2D21CFDF91CF911F910F91FF902E
:10599000EF90DF90CF90BF90AF909F908F90089541
:1059A0008F929F92AF92BF92CF92DF92EF92FF922F
:1059B0000F931F93CF93DF93182F80E060E041E3B4
:1059C00058E022E00E94295D812F66E047E956E019
:1059D0002BE000E10E941429882309F483C0009180
:1059E00020080150103611F0143641F407FD06C0AE
:1059F00000932B0887EC9AE30E94422618E0AA2421
:105A0000DD24D394BB24802E992487FC909420918C
:105A1000EA072B0DC22FD0E08C169D0611F000E096
:105A200001C002E0CC24283030F0CC24C39486E0BE
:105A30008D1528F450C0E7E0ED1508F44CC0AA20FD
:105A400009F4A02E2F5F80E0612F4EE258E00E9403
:105A50005D60CC2069F0CE0108979C01F3E0220F35
:105A6000331FFA95E1F7280F391F295B3C4F09C016
:105A70009E01220F331F220F331F2C0F3D1F215E6B
:105A80003C4FE90179010CE2F70141917F01552773
:105A900047FD5095802F612F20E00E947A5F0B5EBA
:105AA000053991F7185FD394CC2081F00CE24D8139
:105AB000552747FD5095802F612F20E00E947A5F87
:105AC00021960B5E003899F7185FD394B394F7E0F2
:105AD000BF1609F09CCFAA2029F48091EA078F5FB6
