:100000000C94CF0C0C94F00C0C94F00C0C94F00CA1
:100010000C94F00C0C94F00C0C94F00C0C94F00C70
:100020000C94F00C0C94F00C0C94F00C0C94F00C60
:100030000C94F00C0C9452100C94F00C0C94170EC1
:100040000C94F00C0C94410F0C94F00C0C94F00CEC
:100050000C94F00C0C94F00C0C94F00C0C94F00C30
:100060000C94F00C0C94EE6C0C94D16A0C94F00C83
:100070000C94F00C0C94F00C0C94F00C0C94370EC7
:100080000C94F00C0C94F00C0C94F00C0C94F00C00
:100090000C94F00C0C94F00C0C94F00C0C94F00CF0
:1000A0000C94F00C0C94F00C0C94F00C0C94F00CE0
:1000B0000C94F00C0C94F00C0C94F00C0C94F00CD0
:1000C0000C94F00C0C94F00C0C94F00C804000009C
:1000D00000000000000000000000000000F0080424
:1000E00004844444444444444444444444444444D0
:1000F00044C40404887000000000000000000000F8
:1001000000000000000000000000000000000000EF
:1001100000000000000000000000000000000000DF
:1001200000000000000000000000000000000000CF
:1001300000000000000000000000000000000000BF
:1001400000000000000000000000000000000000AF
:1001500000000000000080808080808080BF808060
:1001600080BF808080800000304848484848484828
:100170004888090908F00000000101017F01010120
:100180000100007F49494949414140007F404040CA
:10019000404040007F49494949414140007F0106B4
:1001A0000C10100C06017F00007F4949494941416C
:1001B000400101017F0101010100007F09090909D6
:1001C00019294E000103060C780C060301000000FB
:1001D00000F8FEFFFFFF0F070707070707374787EE
:1001E00087879797075FDFDFDFDED880101010105A
:1001F000100F0080403F80C0E0E0E0602000000081
:1002000000000000000000000000000000000000EE
:10021000000000000000000000000060D0909090FE
:100220009090000000F09090909010100000F090DE
:100230009090909090E00000F0000000F09090907E
:100240009010100060D090909090900000000000FE
:10025000000107070F0F0F0E1E1E1E1E1E1E0E0E84
:100260000E0E0E8ECEEEFCF973270F1F3F7EFCF9AB
:10027000F1F1F9FC3E1F0F07030100000000000030
:10028000000000000000000000000000000000006E
:10029000000000000000000000000002060404044A
:1002A0000404030000070404040404040400070019
:1002B000000000010204000007000000070404041D
:1002C00004040404020604040404040300000000FF
:1002D0000000000000040C1C1C1C1C1C1E1E1E0E1A
:1002E0000E0F070703030180C0E0F0F87C3E1F0FEC
:1002F00007070F1F3F7EFCF8F0E0C0800000000001
:1003000000000000000000007E4A4A4A4A4A7C0081
:1003100002060C7008040202000000001C22414189
:100320004949493A1800007E12121212324C00005C
:100330003E40404040403E00020C186060300C02DD
:10034000007E00007E020C1830407E00000000009D
:1003500000E0101010E00000C080408000008040ED
:1003600040800000CC8E4F8F0F070301000000601B
:10037000909010000000804143870F0FCF0E0CC0FB
:100380000000C08040C0000080404040000080402D
:10039000408000000000000000000000000000009D
:1003A000000000000000000000000000000000004D
:1003B000000000000000000000000000000000003D
:1003C000000000000000000000000000000000002D
:1003D00000070808080700003F0408070000070995
:1003E000C94940408F00000F0000000000000008D5
:1003F0000808090600000708080700000708040F9E
:1004000000000F000000004007080808000007096E
:100410000909000000C8000008C000080000000032
:1004200000000000000000000000000000000000CC
:100430000000C0000000C00000000000000000003C
:1004400000000000000000C00000000000000000EC
:10045000000000000000200000200000200000003C
:100460003F0404040300001E21211E0007380E0E65
:100470003807001E25252600003F0201030000006A
:10048000000000000001013F00003F02013E0000AB
:10049000000000000000033C030000001E21211E9C
:1004A00000001F20103F003F020103000000000079
:1004B00000003F0202023F00001925151E20003FE8
:1004C00002013E001E21123F000022252911005288
:1004D000554420454C45205448522041494C205217
:1004E00055442054485220454C452041494C204118
:1004F000494C20454C4520544852205255442041F7
:10050000494C2054485220454C4520525544200027
:1005100000000000000001081E640101081E6401C3
:10052000010F32960A0A1E329603010200040506E4
:1005300007707265737320616E79204B6579004195
:100540004C455254004D455353414745004C4F4193
:1005500044494E4700506C65617365207265736550
:1005600074207468656D00537769746368657320DF
:100570006E6F74206F666600416C61726D7320440B
:10058000697361626C656400526573657420746898
:10059000726F74746C65005468726F74746C65204B
:1005A0006E6F742069646C650050726573732061AE
:1005B0006E79206B657920746F20736B69700041D0
:1005C0004C45525400454550524F4D206C6F77209A
:1005D0006D656D004F464641425352557352552545
:1005E000454C73454C25544873544825414C734140
:1005F0004C25503120503125503220503225503377
:100600002050332500544852525544454C454944E6
:100610003049443149443241494C47454154524E96
:100620005357315357325357335357345357355326
:1006300057365357375357385357395357415357F2
:1006400042535743004F4646004F4E20002D2D2D5C
:10065000002D2D2D2043483120434832204348337C
:100660002043483420434835204348362043483708
:1006700020434838204348392043483130434831EB
:1006800031434831324348313343483134434831B0
:100690003543483136434831374348313843483190
:1006A000394348323043483231434832324348328A
:1006B0003343483234434832354348323643483274
:1006C0003743483238434832394348333000503199
:1006D000202050322020503320204D4158204655B4
:1006E0004C4C43594331435943324359433350509F
:1006F0004D3150504D3250504D3350504D3450507C
:100700004D3550504D3650504D3750504D38434870
:100710003120434832204348332043483420434863
:100720003520434836204348372043483820434843
:10073000392043483130434831314348313243480E
:1007400031334348313443483135434831364144ED
:10075000312041443220002D2D2D2D00564552537D
:100760003A2056312E322D67727576696E004441FB
:1007700054453A20323031312D30372D3035005448
:10078000494D453A2031383A30363A31320020531B
:10079000564E3A206672736B792D723638350020CA
:1007A000424C443A203334390070756C73652074C0
:1007B0006162206F766572666C6F77006D656E752D
:1007C000537461636B206F766572666C6F77006D32
:1007D000656E75537461636B20756E646572666CCB
:1007E0006F77002D2D2D494E56004F46464F4E2017
:1007F00000FA462742B33C773A9B32CD3125300A86
:100800002E302AA429434C454152204D4958455386
:10081000205B4D454E555D0054454D504C4154456F
:1008200053003C3E002D2D2D59656C4F726752656B
:100830006400416C61726D004261720043616C69D9
:100840006200762D004D6178004120206368616E62
:100850006E656C0054454C454D455452590000FF9F
:100860000100010202FF01000102534146455459B3
:100870002053574954434845530000022D2D2D2D38
:10088000202020763E6F66732020763C6F667320B2
:10089000207C767C3E6F66737C767C3C6F66734111
:1008A0004E44202020204F522020202020584F52FC
:1008B0002020202076313D3D7632207631213D7654
:1008C000322076313E7632202076313C763220203E
:1008D00076313E3D76322076313C3D7632200053F3
:1008E0005700435553544F4D20535749544348459F
:1008F0005300000243560043555256455300434FA0
:100900005059205452494D205B4D454E555D002DA8
:100910002D2D494E56004C494D49545300000303B8
:100920000303030303030303030303030303002D70
:100930002D2D783E30783C307C787C663E30663CAD
:10094000307C667C63312063322063332063342043
:100950006335206336206337206338206339206392
:100960003130633131633132633133633134633178
:1009700035633136002B2A52004D49584552004408
:10098000454C455445204D4958205B4D454E555DDD
:1009900000536C6F772020557000536C6F772020C8
:1009A000446F776E0044656C617920557000446532
:1009B0006C617920446F776E0041646420202020B0
:1009C000204D756C7469706C795265706C616365EB
:1009D00020004D756C747078004F46460057617268
:1009E0006E696E6700537769746368002D2D2D78EA
:1009F0003E30783C307C787C663E30663C307C66AD
:100A00007C633120633220633320633420633520DC
:100A100063362063372063382063392063313063C5
:100A200031316331326331336331346331356331B2
:100A30003600437572766573004F4E204F46460070
:100A40005472696D004F6666736574005765696717
:100A5000687400536F757263650045444954204DB6
:100A600049582000494E53455254204D49582000C2
:100A700050524553455400454449542D3E0043557A
:100A80005256450009005072657373205B45584902
:100A9000545D20746F2061626F7274004D61782024
:100AA0006D69786572732072656163683A200065CC
:100AB000787020202520207377312073773200450D
:100AC00058504F2F44520000034452204869676831
:100AD000004452204C6F77004452204D696400441A
:100AE00072537732004472537731005765696768F3
:100AF00074004578706F004558504F2F44520000E5
:100B000044454C455445204D4F44454C2020205BE6
:100B10004D454E555D00547261696E657200452EFB
:100B2000204C696D69747300504F534E4547005314
:100B3000686966742053656C0075536563003443BF
:100B4000482036434820384348203130434831322A
:100B5000434831344348313643480050504D2020FB
:100B60002053494C565F4153494C565F4253494CC0
:100B7000565F435452414330390050726F746F00D6
:100B800052455441313233004265657020437472DE
:100B9000005472696D2053770045787020202045FD
:100BA0007846696E6546696E6520204D6564697595
:100BB0006D436F61727365005472696D20496E6395
:100BC00000542D4578706F00542D5472696D0043A8
:100BD0006F756E7420446F776E436F756E74205519
:100BE0007020200054696D65722000547269676737
:100BF00065720054696D6572004E616D6500534504
:100C000054555000000901000000000000060200D9
:100C10005B4D454E555D20205B455849545D00595C
:100C2000455320202020204E4F0044454C4554453C
:100C3000204D4F44454C00204142434445464748DF
:100C4000494A4B4C4D4E4F5051525354555657589C
:100C5000595A303132333435363738395F2D2E001A
:100C60004475706C69636174696E67206D6F64654B
:100C70006C0066726565004D4F44454C53454C0011
:100C800012081200081C0808081C080000082200AE
:100C9000490022080000000000227F220000000816
:100CA0002200490022080000082200490022080012
:100CB0000000227F220000000000082200490022DC
:100CC000080000081C0808081C08006B4E714CC87E
:100CD0004A834AF4495D4921483C202020203E00B7
:100CE0005365744D6964205365745370616E446F2D
:100CF0006E652020200043414C4942524154494FE7
:100D00004E00413141324133413441354136413762
:100D1000413800414E41005472696D2D202B002056
:100D20004D656E75204578697420446F776E20207C
:100D30002055705269676874204C65667400444998
:100D4000414700454550524F4D207600564552537D
:100D5000494F4E0043616C004D756C7469706C694D
:100D600065720063683163683263683363683400B6
:100D70006F6666202B3D203A3D006D6F6465202034
:100D80002025207372632020737700536C61766591
:100D900000545241494E45520000030303030044EE
:100DA0004154453A54494D453A0044415445204147
:100DB0004E442054494D450000024D6F6465005279
:100DC000455441005278204368616E6E656C204F37
:100DD0007264004E4F204441544120416C61726D59
:100DE00000416C61726D205761726E696E67004DD3
:100DF000656D6F7279205761726E696E6700446F1E
:100E0000776E4F46462055702020005377697463F3
:100E100068205761726E696E67005468726F7474EF
:100E20006C65205761726E696E670053706C6173F8
:100E3000682073637265656E004F4646004C6967B3
:100E40006874206F6666206166746572004C69671D
:100E500068742073776974636800466C61736820F6
:100E60006F6E2062656570004265657020636F7506
:100E70006E74646F776E004D696E7574652062657F
:100E80006570005468726F74746C65207265766565
:100E90007273650053494E474F534D5046494C5469
:100EA0000046696C7465722041444300496E616379
:100EB00074697669747920616C61726D0042617445
:100EC00074657279207761726E696E6700436F6E28
:100ED00074726173740051756965744E6F4B6579F6
:100EE0004E6F726D204C6F6E6720784C6F6E67008E
:100EF00042656570657200524144494F2053455424
:100F00005550004E4F20444154410054783D00520A
:100F1000783D0041203D0054783D0052783D00412D
:100F2000203D0020202054546D00457870457846BF
:100F3000466E654D6564437273005B4D454E555D6D
:100F400020746F20726573657400537461636B2045
:100F500020202020202020202062007431306D735A
:100F600020202020202020202020757300746D6117
:100F7000696E206D61782020202020206D73007420
:100F80006D7231204A697474657220202020757357
:100F900000746D72314C6174206D696E20202020C8
:100FA000757300746D72314C6174206D617820200E
:100FB0002020757300535441543200544F54005351
:100FC00054250053544B0054535700544D4500537F
:100FD00054415400454550524F4D206F766572661E
:100FE0006C6F7700454550524F4D206F76657266A5
:100FF0006C6F770067656E777269746520657272D1
:101000006F7200454550524F4D20466F726D6174AE
:1010100074696E670042616420454570726F6D208F
:1010200044617461004D4F44454C20202020200035
:1010300050085000000000000000006F0000070092
:101040000700147F147F14242A7F2A1223130864B4
:101050006236495522500005030000001C22410061
:101060000041221C0014083E081408083E0808002D
:1010700050300000080808080800606000002010D8
:10108000080402003E41413E0000427F40006251A0
:1010900049460041494936001814127F002745454A
:1010A00039003E4949320001790503003649493685
:1010B000000649291E0000363600000056360000A2
:1010C00008142241141414141441221408000201BB
:1010D00051090606090906007E0909097E7F49496A
:1010E00049363E414141227F4141221C7F494949C5
:1010F000417F090909013E4149497A7F0808087F73
:1011000000417F41002040413F017F081422417F80
:10111000404040407F020C027F7F0408107F3E4128
:1011200041413E7F090909063E4151215E7F09196F
:101130002946264949493201017F01013F4040408B
:101140003F1F2040201F3F4030403F63140814637E
:1011500007087008076151494543007F414100027B
:10116000040810200041417F0004020102044040B5
:10117000404040000102040020545454787F484409
:1011800044383844444420384444487F3854545404
:1011900018087E0901020C5252523E7F080404785E
:1011A00000447D40002040443D007F102844000062
:1011B000417F40007C041804787C0804047838449B
:1011C0004444387C14141408081414187C7C080453
:1011D00004084854545420043F4440203C404020DC
:1011E0007C1C2040201C3C4020403C4428102844CB
:1011F0000C5050503C4464544C44000836410000AC
:10120000007F000000413608000808221C08081C66
:10121000220808A06080000000000000000000001C
:1012200000000000FFFF0000000000001F3F000062
:101230003F1F00003030FFFF3030FFFF303030788C
:10124000CCCCFFFFCCCC8C0C060F0F86C0E07038E6
:101250001C0C3CFEC7E3F33B1E0C00000000333BBC
:101260001F0F000000000000F0F81C0E0703000034
:10127000000003070E1CF8F000003030E0C0FCFC5A
:10128000C0E03030C0C0C0C0FCFCC0C0C0C0000066
:101290000000000000000000C0C0C0C0C0C0C0C04E
:1012A000C0C000000000000000000000000000803E
:1012B000C0E070381C0C00000000000000000000BE
:1012C00000000000383800000000000000000000AE
:1012D0000000000003033F3F03033F3F03030C0CE8
:1012E0000C0C3F3F0C0C07030C0E07030100183CCD
:1012F0003C180F1F383133331E1E333300000000FB
:10130000000000000000000003070E1C3830000041
:10131000000030381C0E07030000030301000F0F0C
:1013200000010303000000000F0F00000000000098
:10133000333B1F0F00000000000000000000000011
:1013400000000000183C3C18000000000C0E0703D1
:101350000100000000000000FCFE07030307FEFC84
:1013600000000C0EFFFF0000000000000C0E0783C1
:10137000C3E77E3C00000303C3C3C3E7FE3C000099
:10138000C0E070381C0EFFFF00003F3F3333337363
:10139000E3C30000FCFEC7C3C3C78E0C00000303F9
:1013A000C3E3733B1F0F00003CFEE7C3C3E7FE3CF3
:1013B00000003C7EE7C3C3E7FEFC0000183C3C187D
:1013C000000000000000183C3C1800000000000075
:1013D000C0E0F0381C0E0703303030303030303091
:1013E000303003070E1C38F0E0C000000C0E07037D
:1013F0000383C3E77E3C00000F1F383030381F0FD7
:10140000000030303F3F3030000000003C3E3733BA
:101410003130303000003030303030391F0F0000B4
:101420000303030303033F3F00000C1C3830303834
:101430001F0F00000F1F383030391F0F0000000051
:101440003F3F0000000000000F1F393030391F0FF0
:101450000000000030381C0E07030000060F0F06C6
:10146000000000000000333B1F0F000000000000E0
:10147000000103070E1C38300303030303030303B7
:10148000030330381C0E07030100000000000000B9
:101490003333010000003C7EE7C3C3E77E3C00001D
:1014A000F0F8DCCEC7C7CEDCF8F0FFFFC3C3C3C380
:1014B000C3E7FE3CFCFE0703030303070E0CFFFF1C
:1014C000030303070E1CF8F0FFFFC3C3C3C3C3C36A
:1014D0000303FFFFC3C3C3C3C3C30303FCFE07036C
:1014E000C3C3C3C7CECCFFFFC0C0C0C0C0C0FFFFD6
:1014F00000000303FFFF03030000000000000303DC
:10150000FFFF0303FFFFC0E0F0381C0E0703FFFFDF
:101510000000000000000000FFFF0E1CF8F81C0E89
:10152000FFFFFFFF3870E0C08000FFFFFCFE0703F5
:1015300003030307FEFC00000000000000000000A1
:101540003F3F0000000000003F3F3F3F3030303061
:1015500030391F0F0F1F3830303030381C0C3F3FF0
:10156000303030381C0E07033F3F303030303030E1
:1015700030303F3F00000000000000000F1F3830F7
:10158000303030383F1F3F3F0000000000003F3F39
:10159000000030303F3F303000000C1C3830303815
:1015A0001F0F00003F3F000103070E1C38303F3F74
:1015B00030303030303030303F3F0000000000002D
:1015C0003F3F3F3F0000000103073F3F0F1F383000
:1015D000303030381F0FFFFFC3C3C3C3C3E77E3CA7
:1015E000FCFE070303030307FEFCFFFFC3C3C3C3E3
:1015F000C3E77E3C3C7EE7C3C3C3C3C78E0C030373
:101600000303FFFF03030303FFFF000000000000CC
:10161000FFFFFFFF000000000000FFFFFFFF0000D2
:1016200000000000FFFF0F1F38F0E0E0F0381F0F50
:101630003F7FE0C08080C0E07F3F03030383C3E3BC
:10164000733B1F0F0000FFFF0303030300000C1C8C
:101650003870E0C080000000000003030303FFFFB8
:10166000000030381C0E07070E1C38300000000048
:101670000000000000003F3F0000000000000000EC
:101680000F1F383033371E1C3F333F3F0000030726
:101690000E1C38300C1C3830303030391F0F000031
:1016A00000003F3F000000000F1F3830303030385E
:1016B0001F0F03070E1C38381C0E07030F1F383886
:1016C0001F1F38381F0F3C3E0703010103073E3C34
:1016D000000000013F3F010000003C3E3733313045
:1016E0003030303000003F3F3030303000000000FC
:1016F0000000000103070E0C0000303030303F3F87
:101700000000000000000000000000003030303019
:10171000303030303030000003070E1C383000000D
:101720000000303030303070E0C0FFFFC0E070307B
:101730003070E0C0C0E07030303030300000C0E0C9
:1017400070303070E0C0FFFFC0E07030303030707B
:10175000E0C0C0C0FCFEC7C303070E0CF0F89C0C31
:101760000C0C0C0CFCFCFFFFC0E070303070E0C0D3
:1017700000003030F3F300000000000000003030C3
:10178000F3F30000FFFF0080C0E0703000000000B5
:101790000303FFFF00000000F0F03070E0E0707025
:1017A000E0C0F0F0C0E070303070E0C0C0E07030F9
:1017B00030303070E0C00000000000000000000089
:1017C0000C1E3F33333333333F3F3F3F30303030F5
:1017D00030381F0F0F1F3830303030381C0C0F1FBF
:1017E0003830303030303F3F0F1F3B3333333333EB
:1017F000030300003F3F00000000000000013333FE
:101800003333333B1F0F3F3F0000000000003F3FDA
:10181000000030303F3F303000000C1C3830303892
:101820001F0F00003F3F03070F1C3830000000006F
:1018300030303F3F303000003F3F000003030000E6
:101840003F3F3F3F0000000000003F3F0F1F383088
:10185000303030381F0FF0F03030303030F0E0C032
:10186000C0E0F0303030E0C0F0F0F0F0C0E07030B8
:101870003070E0C0C0E0F030303030300000303048
:10188000FFFF303000000000F0F00000000000001A
:10189000F0F0F0F0000000000000F0F0F0F00000C8
:1018A00000000000F0F03070E0C08080C0E07030D8
:1018B000F0F0800000000000F0F03030303030B048
:1018C000F0F070300000C0E03C3E07030000000074
:1018D0000000FFFF00000000000003073E3CE0C0E6
:1018E0000000C0C0C0C00C1CF8F0E0C0C0E0F0F8C0
:1018F0001C0CC0C0C0C03F3F03030303030301002F
:1019000000010303030303033F3F3F3F00000000C8
:1019100000000000303133333333333F1E0C0000FE
:101920000F1F383030381C0C0F1F383030381C0C6B
:101930003F3F03070E1C38381C0E07030F1F3838B3
:101940001C1C38381F0F30381C0F07070F1C38308D
:10195000000133333333333B1F0F30383C3E3733D2
:1019600031303030000000010F1F3830000000001F
:1019700000003F3F00000000000030381F0F010052
:101980000000000000000C0E070301000001030727
:101990000E0C0000000040800804201002011124F9
:1019A0001FBECFEFD1E2DEBFCDBF00E00CBF14E021
:1019B000A0E0B2E0E2EAF5E401E00BBF02C007906C
:1019C0000D92AA31B107D9F711E1AAE1B4E001C043
:1019D0001D92AE3DB107E1F70E9459170C94CFA2BA
:1019E0000C9400008093070788E893E170E00E9460
:1019F0003DA267BD089599E0899F90011124205868
:101A00003B4FC901089595E0899F9001112420560C
:101A10003A4FC901089585E096E00895873038F47B
:101A2000E82FF0E0EE0FFF1FE657F84F2EC0893089
:101A300018F4E0E0F4E03EC08D3088F4E82FF0E0E8
:101A4000EE0FFF1FDF01A25CBB4FE65EF84F019077
:101A5000F081E02D8D919C91E81BF90B0BC0813139
:101A600060F4E82FF0E0EE0FFF1FE65EF84F019004
:101A7000F081E02DEE0FFF1F1DC0813250F4E82FE2
:101A8000F0E0EE0FFF1FEA58F84F0190F081E02DD3
:101A900011C0833218F0E0E0F0E00CC090E08197D4
:101AA000FC01EE0FFF1FE80FF91FEB54FE4E808183
:101AB000E82FF0E0CF010895E82FF0E0E75DFA4F5E
:101AC000E491F0E0EE0FFF1FE65BF84F8FB7F8945C
:101AD0000190F081E02D87FF01C07894CF01089537
:101AE000AAE4B7E0EAE5F7E060E0862F806480933F
:101AF0007C0080917A00806480937A0080917A00E3
:101B000084FFFCCF80917A00806180937A002089E5
:101B100031898D919C91119796958795820F931F8E
:101B20008E7F8D939D9340815181240F351F369573
:101B30002795318B208B8091780090917900840FCC
:101B4000951F96958795819391936F5F683069F69D
:101B50000895DF93CF93CDB7DEB760970FB6F894B3
:101B6000DEBF0FBECDBFFE01319680E1DF011D92C9
:101B70008A95E9F7AAE4B7E050E022C060937C00C0
:101B800080917A00806480937A0080917A0084FF4B
:101B9000FCCF80917A00806180937A0080917800F8
:101BA00090917900280F391F4F5F443039F7219306
:101BB0003193369527952D933D935F5F583031F0E3
:101BC0002081318140E0652F6064D8CF60960FB6E8
:101BD000F894DEBF0FBECDBFCF91DF910895EAE448
:101BE000F7E020E0822F806480937C0080917A006F
:101BF000806480937A0080917A0084FFFCCF80918A
:101C00007A00806180937A008091780090917900C9
:101C1000880F991F819391932F5F283019F70895AA
:101C20001092290710922B0710922A0708951F92ED
:101C30000F920FB60F9211248F9380913E078F5F02
:101C400080933E078F910F900FBE0F901F901895B5
:101C500040913E072091B20080913E074817C1F79E
:101C6000942F80E030E0282B392BC9010895789417
:101C70001F920F920FB60F920BB60F9211242F9353
:101C80003F934F935F936F937F938F939F93AF9304
:101C9000BF93CF93DF93EF93FF93C0919600D091C2
:101CA0009700F894809171008F7D809371007894F3
:101CB00080914107909142079E01281B390B369570
:101CC0002795C901815A9F408F5D9E4220F481E093
:101CD00080933C072EC040913C07842F8150883070
:101CE00040F5C901815293408757954000F5E42F94
:101CF000F0E0EE0FFF1FE65DF84F2C5D3540809160
:101D00006804992787FD90950A96BC01269FC0011B
:101D1000279F900D369F900D11246AE070E00E947D
:101D20003DA2718360834F5F40933C0702C01092D5
:101D30003C07D0934207C0934107F894809171000B
:101D40008062809371007894FF91EF91DF91CF9141
:101D5000BF91AF919F918F917F916F915F914F91C3
:101D60003F912F910F900BBE0F900FBE0F901F90C1
:101D70001895EFEDF1E101C0319680818535E1F3F1
:101D80009F012E5D3141C9010895EF92FF920F939B
:101D90001F93DF93CF93CDB7DEB7C054D0400FB6BB
:101DA000F894DEBF0FBECDBF7E010894E11CF11C8C
:101DB000C70163E00E9461208E010F5D1F4FC801C3
:101DC00061E00E946120E2EAF5E0B701780101815B
:101DD00012818081DB014D915C91D7012D913C9165
:101DE000882321F0CA01821B930B03C0C901841B05
:101DF000950B800F911FB3E0883E9B071CF088EE87
:101E000093E006C02CEF8931920714F488E19CEF2F
:101E10009283818335966E5F7F4F82E090E0E80E7B
:101E2000F91E95E0E23FF90791F68091620490E097
:101E30008170907022E030E0281B390B11AE213008
:101E4000310511F010922C062230310511F010925C
:101E50002D0610922E0682E00E9478598091090783
:101E600062E30E94F20CC05CDF4F0FB6F894DEBF55
:101E70000FBECDBFCF91DF911F910F91FF90EF90DB
:101E800008951F920F920FB60F920BB60F92112466
:101E90002F933F934F935F936F937F938F939F9372
:101EA000AF93BF93EF93FF9390E0809184008A30CB
:101EB00008F070C09F5F923309F46CC0F6CF289A87
:101EC0001092440704C0289881E0809344078091D1
:101ED0000007909101079C012417350708F49A0127
:101EE0003093010720930007809100029091010236
:101EF0009C014217530708F49A0130930102209382
:101F00000002A0910902B0910A02FD018191919114
:101F10009093890080938800F0930A02E09309026D
:101F200012968D919C911397892BE1F482E698E0AB
:101F300090930A02809309028091790482958170BE
:101F400080934407F89480916F008D7F80936F0099
:101F500078940E94481DF89480916F00826080936D
:101F60006F00789480913D07816080933D07FF91D9
:101F7000EF91BF91AF919F918F917F916F915F9101
:101F80004F913F912F910F900BBE0F900FBE0F906E
:101F90001F901895409184005091850080914407CE
:101FA000882309F08CCF8FCFDF93CF93CDB7DEB7E7
:101FB00029970FB6F894DEBF0FBECDBF8AE194E03B
:101FC000BE016F5F7F4F0E94A1742B81332727FDD5
:101FD0003095432F532F7BE0220F331F441F551F93
:101FE0007A95D1F78C81992787FD9095A92FB92FE4
:101FF000DC0199278827282B392B4A2B5B2B8A81D8
:10200000992787FD9095A92FB92FF5E0880F991F83
:10201000AA1FBB1FFA95D1F7282B392B4A2B5B2B14
:102020008981992787FD9095A92FB92FB695A795F6
:1020300097958795282B392B4A2B5B2B8E819927D7
:1020400087FD909580559040AA2797FDA095BA2FBF
:1020500079E1880F991FAA1FBB1F7A95D1F7282B0A
:10206000392B4A2B5B2B8D81992787FD9095019603
:10207000AA2797FDA095BA2F65E1880F991FAA1F7F
:10208000BB1F6A95D1F7282B392B4A2B5B2BB90143
:10209000CA0129960FB6F894DEBF0FBECDBFCF910F
:1020A000DF91089578941F920F920FB60F920BB69E
:1020B0000F9211242F933F934F935F936F937F93CE
:1020C0008F939F93AF93BF93CF93DF93EF93FF9340
:1020D000F894809108028F5F80930802815090E00D
:1020E00083709070892B11F49DE901C09CE9809167
:1020F00070008D7F809370008091B300980F909353
:10210000B3007894F894C0918400D09185007894BD
:1021100090910707992369F080911907882329F482
:102120009093190781E080931A07915090930707C5
:1021300021C0309118073323B9F0209119072223C9
:1021400099F090E080911A07882309F491E0909328
:102150001A07992309F428E020930707992351F0DF
:1021600031503093180706C01092190710921A07C1
:102170001092060780911A07882389F0809106073C
:10218000882311F490E004C09091430781E09827E0
:1021900090934307992319F484B5806402C084B5F1
:1021A0008F7B84BD0E94B5640E94E6A180913D07AB
:1021B000826080933D07F89480918400909185001F
:1021C00078948C1B9D0B9093050780930407F894DB
:1021D000809170008260809370007894FF91EF91FD
:1021E000DF91CF91BF91AF919F918F917F916F912F
:1021F0005F914F913F912F910F900BBE0F900FBEAB
:102200000F901F9018958F929F92AF92BF92CF928E
:10221000DF92EF92FF920F931F93CF93DF93B82E2D
:10222000942E85E0841708F412C1BB2009F412C172
:1022300096E1B91609F40DC1AAEEBA1609F407C160
:102240002B2D332727FD3095C90137FF04C0882780
:102250009927821B930B8A3084F41B144CF08DE079
:1022600090E0821B930B0E94106461E06827F2C02B
:10227000C9010D960E941064C6C0C82EDD24C7FC9B
:10228000D094E6EFFFEFCE0EDF1EF601EE0FFF1F3C
:10229000EC0DFD1DE559FB4FEE5BFD4F8081E254D7
:1022A000F240882309F4D3C0A0E4EA2EA2E0FA2E7B
:1022B000EE0EFF1ED701AC90EF01CF5BDD4F8880A3
:1022C000853008F4D5C0883028F400E010E040E004
:1022D00050E029C08A2D81500E940E0D8C0188810A
:1022E00081500E940E0DAC011EC08881482F5527D9
:1022F00047FD509543585F4F16C0988189E2980278
:1023000090011124359527953595279597FD915C7A
:1023100096FB990F990B90F9892F992787FD909536
:10232000A901481B590BE601CC0FDD1FCC0DDD1DAB
:10233000C355D94F2881283088F4253008F049C08A
:10234000223031F1233020F4213009F080C01CC04C
:10235000233011F1243009F07AC029C02A3009F461
:1023600062C02B3038F4283009F453C0293009F00A
:102370006EC054C02C3009F460C02C3008F458C032
:102380002D3009F064C05EC01B140CF44CC05AC060
:102390001B140CF44DC051C020E0C80117FF03C04E
:1023A000909581959F4F4817590764F40AC020E023
:1023B000C80117FF03C0909581959F4F841795071B
:1023C0000CF421E01B1414F4622F44C061E0622776
:1023D00041C0192D1F5F8A2D60E0412F0E9403111B
:1023E000082F882D60E0412F0E94031198819530BD
:1023F00031F4002361F1682F882361F12AC09630FF
:1024000021F4002331F5682F25C060E0081709F595
:1024100021C060E004171507E9F41BC060E0041751
:102420001507B9F417C060E0401751079CF411C0BC
:1024300060E00417150774F40CC060E0041715077A
:102440004CF007C060E04017510724F002C060E084
:1024500001C061E0862FDF91CF911F910F91FF9016
:10246000EF90DF90CF90BF90AF909F908F900895A6
:102470008A2D81500E940E0D8C01F70180818232DD
:102480000CF033CF3ACFEF92FF921F93CF93DF93AD
:10249000182F682F6F706650209179042295220FB3
:1024A000207E2595259525952595259522306CF03E
:1024B000332727FD30952150304081E090E002C065
:1024C000880F991F2A95E2F7282F683008F0A3C0DB
:1024D000962F9595222311F0422F15C0E92FF0E099
:1024E000E55DF94F8081482F552747FD509557FFEF
:1024F00003C0509541955F4F242F47FD2D5F422F1C
:10250000459545954F5FA92FB0E02091620430E0DA
:102510002170307082E090E0821B930B8A179B073A
:1025200039F48091780486FF03C044E051E001C093
:1025300050E0242F332727FD3095FD01E559FB4F4F
:1025400060FF0AC0E054FE4F8081C82FDD27C7FD21
:10255000D095C20FD31F09C0E054FE4F8081C82F11
:10256000DD27C7FDD095C21BD30B209779F07E01E4
:102570009F2D9095991F9927991F20E0FD01E55DFA
:10258000F94F808187FF21E0921791F0552381F464
:10259000FD01E55DF94F8081882351F01082812F84
:1025A0000E9493641092060780910A076CE330C082
:1025B000CE0184589F4F893F9105A0F4A55DB94F86
:1025C000CC9382E00E94785916FF03C081E080938B
:1025D0000607CE0164E070E00E943DA2645C809139
:1025E000080716C01C161D0614F083E801C08DE70D
:1025F000A55DB94F8C9382E00E947859109206072E
:10260000CE0164E070E00E943DA2645C80910A0704
:102610000E94F20C10E0812FDF91CF911F91FF906B
:10262000EF900895EF92FF920F931F93F8942091EB
:10263000871130918811789440E0809148079091FB
:1026400049072817390709F041E040931507F89426
:102650008091871190918811789490934907809385
:1026600048078BEB97E060E00E946120809115079E
:10267000882309F41BC1809128078823A1F0909139
:102680002907892F8F5F80932907843660F093563E
:102690009093290780912A0790912B070196909398
:1026A0002B0780932A0780E00E948B590E94416388
:1026B0000E9474630E944312E82E80911607909145
:1026C0001707009729F00197909317078093160733
:1026D000EE2089F08091660490E024EF31E0AC01B7
:1026E000429FC001439F900D529F900D11249093E3
:1026F00017078093160780914F0460E040E00E9426
:102700000311882339F48091160790911707892BBC
:1027100009F4CAC0409A209196073091970780919A
:102720000E0790910F07821B930B60E270E00E94EE
:102730003DA270931107609310076115710591F028
:102740008091460790914707821B930B62E070E0EF
:102750000E943DA2709311076093100730930F07FA
:1027600020930E073093470720934607E091E50733
:10277000F0E0EE0FFF1FE552F84F0190F081E02DE1
:102780008E2D19950E941B63919B02C0A49801C0D5
:10279000A49AF894809187119091881178948F7100
:1027A00090708230910521F0039709F07FC065C0D9
:1027B0008091120790911307892B39F487E00E94CA
:1027C0005C0D9093130780931207809112079091EC
:1027D00013077C0133E0EE0CFF1C3A95E1F7E81A91
:1027E000F90A00E010E087E00E945C0DA0E0B0E094
:1027F0008E0D9F1DA01FB11F23E0B695A79597953D
:1028000087952A95D1F79C0190931307809312071F
:1028100080914E04992787FD9095880F991F880F06
:10282000991F280F391F84E290E0AC01249FC0015A
:10283000259F900D349F900D112496959093140729
:1028400080914507805E80934507882379F58091C4
:102850004D04981758F5923348F180910C0762E3C4
:102860000E94F20C8091640483FF20C082E390E018
:10287000909317078093160719C08091610486957D
:1028800086958695877090E0BC01660F771F660F6E
:10289000771F680F791F605F7A4F88E097E045E007
:1028A00050E00E948DA202C0409835CF1F910F9139
:1028B000FF90EF9008958F929F92AF92BF92CF9228
:1028C000DF92EF92FF920F931F93CF93DF93182F16
:1028D0007B014A015901C02E84FD04C064E0D62E5C
:1028E00005E005C01F70106655E0D52E04E08D2D63
:1028F0008066181761F08D2D8064181741F0909153
:10290000B907992369F0133611F0133449F4E7013C
:1029100021968091080767E30E94F20C802F18C06F
:10292000802F8066181761F0802F8064181741F09F
:10293000992309F47AC0123619F0123409F075C0DF
:10294000E7012197809108076DE20E94F20C8D2D1E
:1029500090E00E941064882351F0CC27DD27CE1927
:10296000DF09802F0E9493648D2D0E94936481144F
:10297000910491F481E0A816B10471F4103661F469
:102980001092B907C0E0D0E0E114F10411F4C1E005
:10299000D0E080E60E949364809110079091110727
:1029A000C81BD90BAC16BD064CF4812F0E94936452
:1029B00080910A0767E30E94F20CE501C815D9056A
:1029C0004CF4812F0E94936480910A076DE20E946B
:1029D000F20CE401CE15DF05C1F0209771F4812FD0
:1029E0000E948464F7FE04C080910A0767E303C075
:1029F00080910A076DE20E94F20C8C2D87700E9474
:102A0000785981E080930D0702C010920D07CE0126
:102A1000DF91CF911F910F91FF90EF90DF90CF90BA
:102A2000BF90AF909F908F900895E701A0CF0F9334
:102A3000772767FD7095552747FD5095332727FD6C
:102A4000309501E00E945B140F9108950F93772752
:102A500067FD7095552747FD5095332727FD309525
:102A600002E00E945B140F9108950F931F938C0155
:102A70000E94416382E260E045E455E024E00E9468
:102A8000D66080E068E1A8010E9410610E941B638B
:102A900080914C040E9411631F910F91089583B19E
:102AA00080958E77E1F70E9471630895FF920F93EE
:102AB0001F938C01F62E0E94416382E260E04FE397
:102AC00055E024E00E94D66080E068E1A8010E9401
:102AD00010618CE168E341E355E00E9410610E94BF
:102AE0001B63FF2011F089E102C080914C040E9419
:102AF000116380910C0762E30E94F20C0E944F1553
:102B000083B180958E7791F480914F0460E040E02E
:102B10000E940311882331F480916604882311F404
:102B2000FF2011F0409AECCF4098EACF1F910F910F
:102B3000FF9008958091610487FD07C0887329F490
:102B400088E795E060E00E94561508958091610441
:102B500086FD0AC00E94295C883C910528F485EC1A
:102B600095E060E00E94561508951F93CF93DF9380
:102B700083B180958E7721E030E0682F70E0422F9E
:102B8000CB01022E02C0959587950A94E2F780FD4D
:102B900006C04F5F2F5F3F4F2830310581F7142F5C
:102BA00011501630A8F5812F0E94015A882381F117
:102BB00010934B04812F0E94315B81E00E94785971
:102BC0000E94416386E160E04DE455E024E00E940C
:102BD000D660CBE6D4E01AE0812F68E1499124E089
:102BE0000E94E95F155F1837B9F70E941B63809157
:102BF0004C040E94116380914F04882321F480913A
:102C00006604882311F0409A01C040980E944F1535
:102C1000DF91CF911F910895EF92FF920F931F9331
:102C20008C017B010E94416382E260E04FEB55E042
:102C300024E00E94D66080E060E2A8010E9410615A
:102C400080E068E2A7010E94106180E060E349EA49
:102C500055E00E9410610E941B6380914C040E9409
:102C600011630E944F151F910F91FF90EF900895EF
:102C70000F931F93809161048670A9F187E695E018
:102C800065E575E00E940C1600E080916104867095
:102C9000823009F401E01EE00BC0113141F0812FB8
:102CA0008D5060E040E00E940311801729F41F5FFF
:102CB000163198F31631B9F083B180958E7799F477
:102CC00006C080916604882359F0409A0AC080911A
:102CD0004F0460E040E00E9403118823B1F7F1CF78
:102CE00040981EE0DCCF1F910F9108950F931F9322
:102CF000CF93DF938091610480FD4FC08091620487
:102D000090E08170907002E010E0081B190BF80150
:102D1000EE0FFF1FE25EFB4F27853089C181D28114
:102D20006096C90168E070E00E943DA2C60FD71FFF
:102D3000C21BD30B0E94EF0D102F802F0E945C0D41
:102D4000C817D90754F583B180958E7731F513C034
:102D50000E94EF0D812F0E945C0DC817D907ECF47B
:102D600083B180958E77C9F40DC080916604882365
:102D700091F0409AEDCF87E995E068E875E00E9410
:102D80000C16E6CF80914F0460E040E00E940311F2
:102D9000882379F7EACF4098DBCFDF91CF911F915D
:102DA0000F910895AF92BF92CF92DF92EF92FF9270
:102DB0000F93CF93DF938091640484FD70C0809162
:102DC0004F0460E040E00E940311882329F48091C1
:102DD0006604882309F456C0409A0E94416380E04B
:102DE00060E04CEC50E020E000E00E948C5F0E942C
:102DF0001B6380914C040E9411630E944F150E9436
:102E0000700D0F5F0032D9F7AA24BB2400E0802F99
:102E10000E945C0DC92FD0E0AC0EBD1E0F5F0430C8
:102E2000B1F7F894C0908711D0908811789480E918
:102E300091E0C80ED91E1CC00E94700DC0E0D0E009
:102E400000E0802F0E945C0DE92EFF24CE0DDF1DD7
:102E50000F5F0430B1F783B180958E7701F5CA1505
:102E6000DB05E9F411C0809166048823B1F0409A33
:102E7000F89480918711909188117894C816D9069A
:102E8000D9F60DC04098A9CF80914F0460E040E092
:102E90000E940311882359F7E6CF4098E9CFDF91CC
:102EA000CF910F91FF90EF90DF90CF90BF90AF90B8
:102EB00008950F931F93DF93CF93CDB7DEB761973C
:102EC0000FB6F894DEBF0FBECDBF9FEF91B912B819
:102ED00087E984B98EE185B98FE387B980EC88B939
:102EE0008FE08AB99BB988E08DB987EF8EB910BAA7
:102EF00011BA80E183BB94BB0E94DD620E94896DA0
:102F000080E480937C0085E880937A0087E080935A
:102F1000B1008CE98093B30080917000836080934E
:102F200070008BE085BD81E084BD8AE080938100E4
:102F300082EC809391008091710080628093710097
:102F400078948FE792E59093DC078093DB0789E123
:102F50000E9411630E94505B10914B040E94B515B2
:102F60000E94D2160E94A6150E94EF0D0E947616AE
:102F70000E9438160E949A150E944F150E94481D03
:102F80002DE088E190E00FB6F894A895809360005A
:102F90000FBE209360008BEB97E060E00E94612001
:102FA0008AEF96E40E94611D81E00E94881D809155
:102FB0004C040E9411638091660490E024EF31E09C
:102FC000AC01429FC001439F900D529F900D112470
:102FD000909317078093160780914B04181719F0E8
:102FE00081E00E94785980916F00826080936F0029
:102FF000CE0101960E94C57589818C568E878B8182
:1030000081508D878C818C878E818B878F818A8779
:10301000888589878D8181508F87CE0109960E948E
:103020009A7460931A0470931B0480931C04909309
:103030001D040E94280E8C01E0916504F0E0EE0F63
:10304000FF1FEE5FFD4F0190F081E02D19950E946A
:10305000121380913D07833019F4A89510923D0713
:103060000E94280E2091020730910307801B910BCC
:103070008217930708F4C90190930307809302070E
:10308000D8CF0F931F93062F122F20620E94BD628C
:1030900017FD07C080915C11602F46E7212F0E9429
:1030A000E95F1F910F910895242F4091140750E07C
:1030B0000E94411808950F93222329F450E0202FF5
:1030C0000E94411804C050E0202F0E94BD620F9161
:1030D0000895EF92FF920F931F93082FF62E142F4F
:1030E000E22E442329F0463139F04A3E81F408C0EB
:1030F0008A5F4DE456E007C08A5F49E456E003C0AA
:103100008A5F45E456E02E2D0E94D66021C0441F00
:103110004427441F405E0E94E95F0E940B0D602F10
:103120006A5F212F332727FD309537FF03C0309585
:1031300021953F4F43E02402A00111244350504009
:10314000480F591F862F6F2D23E00E2D0E94A4607B
:103150001F910F91FF90EF900895DF92EF92FF92F1
:103160000F931F93F82EE62ED42E10917504110F95
:103170001595812F992787FD909597FF03C090950E
:1031800081959F4F80319CF443E08402A00111247B
:103190004C525A4F8F2D6E2D23E00D2D0E94A460AE
:1031A0001F3F4CF58F2D86506E2D41E221C0853298
:1031B00074F411161CF4412F4F5002C0412F415F8F
:1031C0008F2D86506E2D2D2D0E94691814C011165A
:1031D0001CF4412F445202C0412F4C5D8F2D86506C
:1031E0006E2D2D2D0E9469188F2D8E5E6E2D4DE651
:1031F0002D2D0E94E95F1F910F91FF90EF90DF90BE
:1032000008950F93022F50E0440F551F440F551F90
:103210004F5A594F24E00E94A4600F9108950F93D4
:10322000782F342F022F442319F447E557E023C0A9
:103230004530B8F48091620490E0880F991F880FA0
:10324000991F41E050E0481B590B431B5109440FA3
:10325000551F440F551F509541955F4F41535B4F8C
:1032600009C0423258F450E0440F551F440F551F17
:103270004654594F872F24E00E94A4600F9108956F
:10328000AF92BF92DF92EF92FF920F931F93CF9373
:10329000DF93F82ED62E5A01122FE02E202F212355
:1032A0004AE30E94E95F812F90E0EC01C470D07086
:1032B00012FD02C02F2D02C02F2D2E5FC5016CE321
:1032C00070E00E943DA2AB011061822F6D2D212F75
:1032D00002E00E94D061CD2B11F421E101C02CE16C
:1032E000C5016CE370E00E943DA2AC0180E1E82AD8
:1032F000822F8F0D6D2D2E2D02E00E94D061DF9167
:10330000CF911F910F91FF90EF90DF90BF90AF9002
:10331000089599E2890290011124359527953595F4
:10332000279587FD815C86FB880F880B80F999279C
:1033300087FD9095281B390BC901089580930707D5
:1033400088E893E170E00E943DA267BD0895E09196
:10335000E507F0E0EE0FFF1FE352F84F8081918107
:1033600008959C01E091E507F0E0EE0FFF1FE552A4
:10337000F84F918380838FEBF901199580910807AD
:1033800062E30E94F20C08956F927F928F929F9257
:10339000AF92BF92CF92DF92EF92FF920F931F9363
:1033A0003B017C0100E010E08824992464E670E091
:1033B00080E090E06619770988099909A8019701CA
:1033C0000E94FEA15B016C0182E390E0A0E0B0E00E
:1033D000A80EB91ECA1EDB1EC801B7010E94FEA1BD
:1033E0000E94FEA1BC0188279927A40193010E9495
:1033F000FEA154E096958795779567955A95D1F7F4
:10340000A60EB71EC81ED91EC601B50124E630E0BF
:1034100040E050E00E9450A2C9011F910F91FF901F
:10342000EF90DF90CF90BF90AF909F908F907F9064
:103430006F900895FF920F931F939C01AB0161154C
:10344000710531F1FF2497FF05C0FF24F3943095F7
:1034500021953F4F57FF10C000E014E06627772703
:10346000641B750BC801821B930B0E94C419980141
:10347000281B390BC90104C0C901BA010E94C41933
:10348000FF2011F49C0104C022273327281B390B8D
:10349000C9011F910F91FF90089510922507109276
:1034A0001E0710921D0710922207109221071092FA
:1034B000200710921F0710922407109223070895E7
:1034C000AF92BF92CF92DF92EF92FF920F931F9332
:1034D000CF93DF935B016C0100E010E8C0E0D0E81F
:1034E000EE24FF249E0140E050E0CA01B9010E9491
:1034F000FEA1A616B706C806D90610F4C027D12724
:10350000169507950894E11CF11C80E1E816F1047A
:1035100061F4CE01DF91CF911F910F91FF90EF9059
:10352000DF90CF90BF90AF900895C02BD12BDACF12
:103530009C0140E0683008F041E070E0442371F005
:10354000CB010897FC0163E0EE0FFF1F6A95E1F7DE
:10355000E80FF91FDF01AD59B94F0AC0FB01EE0FAB
:10356000FF1FEE0FFF1FE60FF71FDF01A55CB94F2E
:10357000FD01808120503C4F37FD0EC068E02030B7
:10358000360784F0442319F484E090E002C088E018
:1035900090E0A80FB91F8C91992787FD9095582F1F
:1035A000442733C0442331F0432FB9017070660FB4
:1035B000771F04C0432F4695B9017170842F90E0A6
:1035C000FD01E80FF91F8181992787FD90959B01E7
:1035D00035952795829FA001839F500D929F500D96
:1035E00011242081332727FD309580E092E0861B4F
:1035F000970B95958795BC01269FC001279F900D3D
:10360000369F900D1124480F591FCA0169E170E0DF
:103610000E943DA2CB0108956F927F928F929F925C
:10362000AF92BF92DF92EF92FF920F931F93CF93CF
:10363000DF938091790485FD04C0A12C44E0B42E71
:1036400003C0A12C35E0B32EE0917804EE0FEE0F0D
:10365000E595E595E595E595E595EE0FE85F9091A3
:103660007A0484E69802C001112428E5E22E22E0C3
:10367000F22EE80EF91EEA3028F448EC5FEA4E1903
:103680005F090DC08853904F2E2F30E0829FA0011C
:10369000839F500D929F500D1124405C504ECBEBF8
:1036A000D7E0A2E6B8E06E2F70E0660F771F6C0FD0
:1036B0007D1F882499248A189B08662477246E1815
:1036C0007F0808E512E00E191F0923C028813981FF
:1036D000C501DA2CF92F2A153B051CF4C901D22E9D
:1036E000F92F8D2D9F2F881599050CF4C401805A50
:1036F000964F9301281B390B420F531F1196FC92D2
:10370000EE92800F911F13969C938E9312972296A0
:103710001496C617D707D1F6EE0FAE2FB0E0AA0F5A
:10372000BB1FAE59B74FED92FC92EF5FAE2FB0E0EA
:10373000AA0FBB1FAE59B74F4D935C93EF5FF0E0FC
:10374000EE0FFF1FEE59F74F11821082DF91CF91DC
:103750001F910F91FF90EF90DF90BF90AF909F90DF
:103760008F907F906F900895A091BC0AB091BD0A90
:10377000FD018193919313967C936E9312973296E9
:10378000F093BD0AE093BC0A0895882329F060E60F
:1037900079E080E699E004C060EB74E080EB94E0AF
:1037A0000E94B41B08951F93182F82700E94C51B9E
:1037B000812F81700E94C51B1F910895EF92FF9287
:1037C0000F931F93CF93DF9380917804877090E0DD
:1037D0008130910519F0029719F404C010E003C07C
:1037E00011E001C012E02091BB073091BC072050CE
:1037F0003C4F220F331F8091BD079091BE07805030
:103800009C4F880F991F892F232F37FD20E087FDBC
:1038100080E0022F20310CF00FE0F82E8FE08F15A2
:1038200014F4EFE0FE2E2F2D332727FD3095802F47
:10383000992787FD909509968217930714F40F2D09
:103840000950C02FDD27C7FDD095275F3F4F2C17AC
:103850003D071CF477EFF72EF00E82E698E0909388
:10386000BD0A8093BC0A80E797E160EB74E00E9498
:10387000B41B80E00E94D31B80E699E060EB74E00B
:103880000E94B41B80E699E060EB74E00E94B41BD8
:10389000812F0E94D31B1195CE0195958795959503
:1038A0008795E82E0E94D31B1E19802F0E94D31BE0
:1038B000101B8F2D992787FD909595958795959548
:1038C0008795082F0E94D31B101B8F2D0E94D31B9E
:1038D000812F8F190E94D31B80E00E94C51B80910D
:1038E000BC0A9091BD0A02979093BD0A8093BC0ACE
:1038F00080E69AEE60E070E00E94B41BDF91CF9109
:103900001F910F91FF90EF900895882329F080E296
:1039100093E060E476E004C080E496E060E273E067
:103920000E94B41B08950F931F93082F10E0802F5F
:1039300081700E94851C1F5F06951830C1F71F918A
:103940000F9108950F931F9382E698E09093BD0A1C
:103950008093BC0A8091BE0A91E089278093BE0AB9
:10396000882309F44FC08091BB079091BC07885F02
:103970009B4FE4E096958795EA95E1F780389105AD
:1039800010F08FE790E0182F2091BD073091BE070F
:1039900037FD0FC0C901409675E0969587957A95D9
:1039A000E1F78034910510F08FE390E0082F006478
:1039B0000FC080E190E0821B930B65E096958795A0
:1039C0006A95E1F78034910510F08FE390E0082FBD
:1039D000812F0E94931C802F0E94931C0127802F0F
:1039E00090E09C0154E0359527955A95E1F744E025
:1039F000880F991F4A95E1F7822B0E94931C80E162
:103A000097E22BC08091BF079091C00780509C4FD8
:103A100034E0969587953A95E1F78038910510F056
:103A20008FE790E0082F0068802F0E94931C8EE89B
:103A30000E94931C8EE8082710E0C80124E09595A9
:103A400087952A95E1F7B4E0000F111FBA95E1F7C9
:103A5000802B0E94931C80EB96E360EA7FE00E943B
:103A6000B41BE091BC0AF091BD0A11921192F0933F
:103A7000BD0AE093BC0AE256F840E03FF1052CF0A5
:103A800089EA97E060E00E9456151F910F91089512
:103A900080917804877090E08430910534F481300F
:103AA00091054CF4892B21F00895049749F406C040
:103AB0000E940C1B08950E94DE1B08950E94A21C08
:103AC0000895CF93DF93EC019091E507892F8F5FE5
:103AD0008093E507853040F09093E5078CEB97E005
:103AE00060E00E94561511C08091080762E30E94B1
:103AF000F20CE091E507F0E0EE0FFF1FE552F84F02
:103B0000D183C0838FEBFE011995DF91CF9108958A
:103B10009091E5079923D1F0882311F080E002C04D
:103B2000892F81508093E5078091080762E30E9406
:103B3000F20CE091E507F0E0EE0FFF1FE552F84FC1
:103B40000190F081E02D8EEB199508958FEC97E0B0
:103B500060E00E9456150895FF920F931F93CF9334
:103B6000DF93082F10917504110F1595812F992758
:103B700087FD909597FF03C0909581959F4FF82EF4
:103B800024E228170CF03FC02091CB0A3091CC0AD8
:103B90008091C90A9091CA0A282B392B8091CD0AAD
:103BA0009091CE0A282B392B8091C80A90E0282BBF
:103BB000392B8091C50A90E0282B392B232B39F41F
:103BC0001092C50A17FF03C081E08093C50A111641
:103BD0001CF4812F845202C0812F8C5D60E040E094
:103BE0000E940311282F882361F08091C50A882341
:103BF00041F490E08091C80A882309F491E0909301
:103C0000C80A2093C50AC091CB0AD091CC0A21964C
:103C1000D093CC0AC093CB0AE091C90AF091CA0AAA
:103C2000E00FF11DF093CA0AE093C90AF89480915D
:103C300087119091881178942091CD0A3091CE0A05
:103C4000821B930B8436910508F473C12C593F4FA6
:103C50003093CE0A2093CD0ACF01BE010E9429A243
:103C6000062F862F90E09C012C9FC0012D9F900D68
:103C70003C9F900D1124E81BF90BF093CA0AE093C6
:103C8000C90A1092CC0A1092CB0A3FE03F151CF0F3
:103C90001092C80A10C084E28F156CF011161CF443
:103CA000812F8F5002C0812F815F60E040E00E9431
:103CB00003118093C80A80911B0790911C070196FD
:103CC00090931C0780931B07E0911D07F0911E073E
:103CD0003196F0931E07E0931D07002349F0809171
:103CE0002107909122070196909322078093210744
:103CF0008091C80A882349F080911F07909120077E
:103D000001969093200780931F0706954091230703
:103D100050912407400F511D5093240740932307CF
:103D2000609176047091770470932707609326075B
:103D300080917504880F8595992787FD909597FF49
:103D400003C0909581959F4F882319F41092250701
:103D500022C0813021F4CB018E1B9F0B18C0803113
:103D600070F480FF07C0CA0114E0969587951A95F4
:103D7000E1F709C0809121079091220704C080914A
:103D80001F07909120079B01281B390BC9019093B5
:103D900027078093260780912507813051F08130D5
:103DA00018F0823011F511C0809175048F77E9F019
:103DB00019C0809126079091270718161906ACF0B4
:103DC0006115710591F082E00EC0809126079091F7
:103DD0002707855C9F4F1CF483E0809325076115BE
:103DE000710519F481E08093250720912607309111
:103DF00027078091C60A9091C70A8217930709F492
:103E000082C080912507813009F06CC080916404E4
:103E100082FF4BC0672B09F448C02E31310541F4B5
:103E200082E08093180780910A0762E30E94F20CF7
:103E30008091260790912707449741F481E0809371
:103E4000180780910A0762E30E94F20C809126070E
:103E5000909127070A9729F480910A0762E30E944C
:103E6000F20C809126079091270704972CF48091FB
:103E70000A0762E30E94F20C8091640483FF15C07C
:103E800080912607909127078E31910541F084316A
:103E9000910529F08A30910511F0049734F482E3FA
:103EA00090E090931707809316078091640481FF38
:103EB0002AC080917504209126073091270787FF3B
:103EC00007C08091760490917704821B930B01C008
:103ED000C9016CE370E00E9429A2892BA1F48091B2
:103EE0000A0704C0823079F480910B0762E30E94D4
:103EF000F20C8091640483FF06C082E390E090930B
:103F000017078093160720912607309127073093D3
:103F1000C70A2093C60A8091750487FF0AC0809162
:103F2000760490917704821B930B909327078093DC
:103F30002607DF91CF911F910F91FF900895209157
:103F40007504220F2595822F992787FD909597FF5D
:103F500003C0909581959F4F982F8230A4F18031B6
:103F600094F585959A309CF4E82FFF27E7FDF095AE
:103F70008091620490E0880F991F880F991FE80FC5
:103F8000F91FE65FFD4F8081E82FF0E004C0E82FC5
:103F9000FF27E7FDF0953197EE0FFF1FE657F84F2B
:103FA0000190F081E02D27FF05C080E094E08E1B9A
:103FB0009F0B03C0CF0180509C4F56E0969587958C
:103FC0005A95E1F702C080E090E00E94AC1DE091BC
:103FD0006204F0E0EE0FFF1FEE0FFF1FE35FFD4FE7
:103FE000E081F0E0EE0FFF1FE857F84F0190F081FD
:103FF000E02D8091640480FF05C080E094E08E1B7A
:104000009F0B03C0CF0180509C4F26E0969587956B
:104010002A95E1F76091C10A7091C20A6F5F7F4FE4
:104020007093C20A6093C10A4091BF0A5091C00ABE
:10403000480F591F5093C00A4093BF0AF8948091CB
:1040400087119091881178942091C30A3091C40A05
:10405000821B930B885E934098F1F89480918711AE
:104060009091881178949093C40A8093C30A109217
:10407000C00A1092BF0A1092C20A1092C10A80911F
:1040800060089091610801969093610880936008A0
:1040900020915E0830915F08F901EA51F84FCA019A
:1040A0000E9429A260832F5F3F4F30935F082093C7
:1040B0005E082837310520F010925F0810925E08E4
:1040C00008952F923F924F925F926F927F928F92BC
:1040D0009F92AF92BF92CF92DF92EF92FF920F9397
:1040E0001F93DF93CF93CDB7DEB763970FB6F894E6
:1040F000DEBF0FBECDBF9A8B898B6B8B809115076E
:10410000882309F472C08091BA07882319F081507E
:104110008093BA0780916304882309F466C0809174
:104120001407823308F461C08091D4099091D509B5
:10413000A091D609B091D7090196A11DB11D809318
:10414000D4099093D509A093D609B093D709E2E595
:10415000F9E020E030E08191919160E870E00E9408
:104160003DA2260F371F49E0EA35F407A1F78091F9
:10417000D8099091D9092817390761F03093D909E6
:104180002093D8091092D4091092D5091092D6091B
:104190001092D709E090D409F090D5090091D60982
:1041A0001091D7096091630470E080E090E020E70F
:1041B00037E140E050E00E94FEA16E157F058007C8
:1041C000910798F46FE370E080E090E0E622F72238
:1041D000082319237AE0E716F1040105110529F4F3
:1041E00080910B0762E30E94F20C1FE1612E14E044
:1041F000712EBCEF4B2EB5E05B2E188ACC24DD244B
:10420000882499248B89282E332491E02922332471
:104210001C2D8C2D0E945C0D9C01D3018D919C91D5
:104220001197281B390B121613062CF45C96ED918E
:10423000FC915D9705C0D3011E96ED91FC911F97EF
:10424000E436F10514F4E4E6F0E0B901882777FDDF
:104250008095982FAAE0660F771F881F991FAA954F
:10426000D1F79F01442737FD4095542F0E9472A239
:104270007901BCEF21303B0724F4E12C6CEFF62EE2
:1042800007C0E4E020303E071CF0E12C54E0F52E9E
:10429000F401E657F84FF182E082C7010F964F977D
:1042A00030F5F4E0CF16D104BCF4E0916204F0E004
:1042B000EE0FFF1FEE0FFF1FEC0DFD1DE55FFD4F25
:1042C000808190E0019721E030E002C0220F331F8F
:1042D0008A95E2F7C90108C081E090E00C2C02C089
:1042E000880F991F0A94E2F73889382B388B1430DD
:1042F00008F06BC1222009F05EC08091790483FF31
:104300005AC08601000F111F085A1B4FD801119681
:104310008C911197807C09F44EC08C918595859580
:10432000859561E040E00E940311882309F443C0B1
:10433000D801EC91E770F0E0EE0FFF1FDF01A05B0A
:10434000BB4FE45DF84F808191812D913C91821BA0
:10435000930B62E070E00E943DA2F601EE0FFF1F9A
:10436000E75AFB4F4081842F880F880F85958595EC
:10437000992787FD9095FC016E9FC0016F9F900D5E
:104380007E9F900D11246FE170E00E943DA2CB0151
:10439000880F991F880F991F42954695469543703F
:1043A00050E04130510529F04230510521F47C01A3
:1043B00002C0E80EF91ED2018C9160E040E00E943C
:1043C0000311882311F400E00BC0F201818160E049
:1043D00040E00E940311882311F002E001C001E0D7
:1043E0008091620490E08170907012E0A12EB12C57
:1043F000A81AB90AAC14BD0461F58091780487FF4E
:1044000028C0C70180509C4F62E070E00E943DA22E
:10441000CB01E02FF0E0EE0FFF1FEE0FFF1FA60114
:10442000440F551F9A0173E0220F331F7A95E1F76D
:10443000241B350BE20FF31FE051FA4F6081772701
:1044400067FD70950E941A1ADC01AA0FBB1F10E0CD
:1044500026C010E01E141F040CF011E0802F90E025
:104460009601220F331FF90143E0EE0FFF1F4A951B
:10447000E1F7E21BF30B880F991F880F991FE80FD4
:10448000F91FE559FB4FE10FF11DEB57FE4F60811E
:10449000772767FD7095C7010E941A1ADC01E02F8B
:1044A000F0E0EE0FFF1FEE0FFF1F9601220F331FEC
:1044B000C90103E0880F991F0A95E1F7821B930B4E
:1044C000E80FF91FE559FB4FE10FF11DE957FE4FCA
:1044D0006081772767FD70956C597F4F882777FD3E
:1044E0008095982F9D01442737FD4095542F0E94B9
:1044F000FEA124E630E040E050E00E9472A2790183
:10450000AC14BD0409F050C08091780487FF06C543
:1045100020E03CEFE20EF31E01C580916404F5013A
:10452000E559FB4F80FF1AC040E054E0E40EF51E51
:10453000B701882777FD8095982FA0E0BCEFEA0EA1
:10454000FB1EE054FE4F2081332727FD3095432F7B
:10455000532F2D5730404040504014C060E074E06D
:104560006E197F09882777FD8095982FE054FE4FBC
:104570002081332727FD3095432F532F23583F4F5A
:104580004F4F5F4F0E94FEA120E038E040E050E036
:104590000E9472A2C901DA018030E8E09E07E0E0E3
:1045A000AE07E0E0BE0739F4F601E55DF94F808122
:1045B000992787FD9095880F991FE1E0F0E0EC0FB7
:1045C000FD1FE80DF91D91838083F401EE5AF64F2B
:1045D000F182E0820894C11CD11C22E030E0620E1E
:1045E000731E820E931E4EE050E0440E551E57E09F
:1045F000C516D10409F00CCE10917C0468891623ED
:10460000212F30E08091DA0990E0822793278223DE
:104610009323892B29F08091090762E30E94F20C11
:104620001093DA0980E094E0909361098093600927
:1046300090936309809362097B8971FF26C0809102
:10464000620490E08170907022E030E0281B390B0A
:10465000A2E5B9E0FE01319680E090E02817390725
:1046600029F011961C921E921182108201961296C8
:1046700032968430910591F7E4E6F9E011921192B7
:1046800089E0E437F807D1F745C064E679E040E017
:1046900050E0FA01E45DF84FDA01A25EBB4F808181
:1046A0009181D2962D913C91D397821B930B880FC9
:1046B000991FDB018D939D93BD014E5F5F4F483085
:1046C000510539F78091340790913507880F991F6C
:1046D00090936D0980936C0980913607909137070C
:1046E000880F991F90936F0980936E098091380706
:1046F00090913907880F991F9093710980937009E1
:1047000080913A0790913B07880F991F9093730906
:1047100080937209E4E9F9E0FA87E987A4E7B9E050
:10472000808191818D939D93349629E0E43DF20739
:10473000B9F780911507882311F00E949F1F80E42C
:10474000E4E9F9E0DF011D928A95E9F71092BB0ACE
:10475000BBE92B2EBAE03B2EABE16A2EAAE07A2E03
:10476000FBED4F2EF9E05F2E1F868F850E94FB0C1C
:104770005C01FC0180818F7059F4E0EA2E2EE5E0A7
:104780003E2E2FEC36E03C872B871E861D86A9C265
:10479000D50113968C9161E040E00E940311F10174
:1047A00090818823D1F4192F1082D50111969C9104
:1047B0001197892F8850823008F081C217968C910A
:1047C0008E70843009F47BC2993019F0CC24DD243A
:1047D0003CC0C12C7CEFD72E38C010E0992309F4DF
:1047E00011E081E0F1018083D50111968C91815017
:1047F000A82FB0E0FD01EE0FFF1FEE5AF64FC0806C
:10480000D180813158F0EF858E1740F4AA0FBB1F7D
:10481000AA0FBB1FAC56B64FCD90DC90D5011796B2
:104820009C91892F807F89F092959F70892F90E0CD
:104830000197E1E0F0E002C0EE0FFF1F8A95E2F77A
:104840002091BB0A2E2B2093BB0AD50118968C9180
:10485000882321F00E948919C80ED91EF50186818E
:10486000882321F48581882309F444C1D3016D9103
:104870007D918D919C91112389F420E031E040E0FD
:1048800050E00E9472A250954095309521953F4F7F
:104890004F4F5F4F4601820E931E5BC0F50187812B
:1048A0008E70843051F5E081EF70F0E0EE0FFF1F65
:1048B000EE58F64F60817181882777FD8095982F9B
:1048C00020E034E640E050E00E94FEA1D3016D9369
:1048D0007D938D939C931397F5012281222369F098
:1048E000332727FD3095432F532F0E9472A2D30107
:1048F0002D933D934D935C931397F30160817181E8
:104900008281938120E031E040E050E00E9472A279
:1049100050954095309521953F4F4F4F5F4F460141
:10492000820E931E81149104A1F0D50115968C91ED
:1049300097FE82958F7090E0FC0124E630E0E29FC4
:10494000C001E39F900DF29F900D1124D2018D9331
:104950009C93F201208131812115310551F0809124
:104960001507882309F4BAC02150304031832083D1
:10497000B5C08114910409F4BDC0F5018681882376
:1049800009F4B8C080911507882309F475C0228105
:10499000222329F460E070E080E293E017C033271F
:1049A00027FD309537FF03C0309521953F4F3327C2
:1049B00027FD3095432F532F60E070E080E293E0B5
:1049C0000E9472A2C901DA01BC01CD01D50116967F
:1049D0002C91181419040CF52F70422F50E041153A
:1049E0005105D9F1E4E6F0E04E9F90014F9F300D64
:1049F0005E9F300D1124442737FD4095542F0E94AF
:104A000072A279018A01F30180819181A281B3812F
:104A1000E80EF91E0A1F1B1F29C022952F70422F76
:104A200050E041155105C9F0A4E6B0E04A9F90015D
:104A30004B9F300D5A9F300D1124442737FD409570
:104A4000542F0E9472A2F301E080F1800281138151
:104A5000E21AF30A040B150B09C0C601AA2797FD39
:104A6000A095BA2FEE24F82E092F1A2FD301ED921C
:104A7000FD920D931C931397F301608171818281E4
:104A8000938176010027F7FC0095102F1814190464
:104A900064F420E031E040E050E00E9472A2E216AF
:104AA000F3060407150764F019C020E031E040E088
:104AB00050E00E9472A22E153F054007510774F482
:104AC000C601AA2797FDA095BA2FBA2FA92F982F14
:104AD0008827F30180839183A283B383D3016D91EF
:104AE0007D918D919C9120E031E040E050E00E946A
:104AF00072A26901F5016481633071F1643028F4B8
:104B0000613051F06230A8F448C0653081F1653001
:104B100050F16630B1F52EC0D50111968C918930D7
:104B200029F4D7FC2AC0E0E0FEEF0DC0D7FE35C067
:104B30002EC0D50111968C91893051F41C141D049E
:104B40004CF1E0E0F2E0CE0EDF1ECC0CDD1C25C007
:104B50001C141D04E4F021C0D7FE1FC0D094C194E2
:104B6000D108D3941AC01C141D04A4F010C0D7FEA1
:104B70000EC003C01C141D046CF0C12C0CEFD02E11
:104B80000CC06750C6010E94981A6C0106C0CC2464
:104B9000DD2403C0C12C14E0D12ED50117968C91D1
:104BA000179780FD14C01196EC91EE2381F0E5304B
:104BB00070F4F0E03197EE0FFF1F21E030E02C0F92
:104BC0003D1FE20FF31F80819181C80ED91EB601EF
:104BD000882777FD8095982FD50112962C91332741
:104BE00027FD3095432F532F0E94FEA19B01AC015E
:104BF000F50187818695877090E08130910571F08D
:104C00000081029709F046C00F70E02FF0E0EE0F30
:104C1000FF1FEE0FFF1FE057F64F37C0D5010C9175
:104C20000F7010E0000F111F000F111F0057164FDB
:104C3000CA01B90124E630E040E050E00E9472A2CF
:104C4000CA01B901F80120813181428153810E945A
:104C5000FEA1D8016D937D938D939C931397F501DD
:104C600000810F7010E0000F111F000F111F00577F
:104C7000164FD8016D917D918D919C9120E034E08B
:104C800040E050E00E9472A2F80120833183428309
:104C9000538315C00F70E02FF0E0EE0FFF1FEE0FF3
:104CA000FF1FE057F64F80819181A281B381820F6F
:104CB000931FA41FB51F80839183A283B383FF85B5
:104CC000FF5FFF870894211C311C24E030E0620E56
:104CD000731E42E050E0440E551EF03209F045CDFF
:104CE0004CCDA985BA858D909D90AD90BC90C501A5
:104CF000B40124E630E040E050E00E9472A2E98571
:104D0000FA852083318342835383ED85FE85E856FF
:104D1000F84FC90120839183D10113962D913C91C5
:104D2000149711968C91BAE08B0230011124E8EEB1
:104D3000F3E06E0E7F1ED1018C91BAE08B02200150
:104D40001124E8E1FCEF4E0E5F1EC301562D492FE2
:104D5000261537051CF4C901522F492F852F942F92
:104D60008C01041515050CF4820181149104A10431
:104D7000B10469F19801442737FD4095542F181468
:104D800019041A041B0454F4B301882777FD809595
:104D9000982F621B730B840B950B0BC0C201AA27C3
:104DA00097FDA095BA2F281B390B4A0B5B0BCA0144
:104DB000B901A50194010E94FEA120EA36E841E074
:104DC00050E00E9472A2C901DA014C015D01C801E4
:104DD00055E0959587955A95E1F7800F911F9801B9
:104DE000232F330F330B2595820F931F000F012FB5
:104DF000001F110B801B910B6C01EE24D7FCE0947B
:104E0000FE2CC30105E0959587950A95E1F7860D7F
:104E1000971DA20115E0559547951A95E1F7B20146
:104E2000660F672F661F770B440D551D9301232FC7
:104E3000330F330B2595820F931F660C672C661C6E
:104E40007708861997098C01222717FD2095322FA4
:104E5000C80CD91CEA1CFB1C0C151D052E053F05B2
:104E600014F468017901461B570B75956795759584
:104E70006795460F571FCA01AA2797FDA095BA2F1D
:104E800087017601E816F9060A071B0714F47C016E
:104E90008D01D10112968C91882341F010950095D7
:104EA000F094E094E11CF11C011D111DEB85FC85C3
:104EB0008081882389F060E040E00E94031188230C
:104EC00059F0AB85BC8511968C910E9489197C01A3
:104ED0000027F7FC0095102FF894E989FA892D85B1
:104EE0003E85E20FF31FF182E082789449855A856E
:104EF0004C5F5F4F5A8749872E5F3F4F3E872D8714
:104F000065E070E0260E371E8B859C8502969C8797
:104F10008B87445D594009F0E4CE03C086FDFDCA8D
:104F200043CB63960FB6F894DEBF0FBECDBFCF91D3
:104F3000DF911F910F91FF90EF90DF90CF90BF9086
:104F4000AF909F908F907F906F905F904F903F9029
:104F50002F900895FF920F931F93F82E162F042F72
:104F600080E860E0412F50E0202F0E94BD621A309F
:104F700010F485E701C08FE660E04FE2202F0E9429
:104F8000E95F1A3010F485E701C08FE64F2D50E03D
:104F90004F5F5F4F60E0202F0E94BD621F910F9115
:104FA000FF9008958F929F92AF92CF92DF92EF92EF
:104FB000FF920F931F93CF93DF93EC01162FD42E04
:104FC00049012115310571F18881882311F040E0F4
:104FD00025C0643681F0653601F54423F1F081E0A7
:104FE00090E0841B9109880F991FF401E81BF90BCD
:104FF0008591949110C0242F30E0802F90E001978C
:105000002817390754F4F9013196EE0FFF1FE80D08
:10501000F91D859194910E94B11941E08D2D602F69
:105020000E94AA27E114F10411F490E009C08881DC
:105030009C2D8C1508F4982FF701E90FF11D949120
:10504000103659F1113690F4133409F49FC014341A
:1050500030F4113289F1123409F0C3C06FC0143436
:1050600009F446C0153409F0BCC055C0143609F423
:1050700043C0153638F4123609F464C0133609F00B
:10508000B0C087C01138A9F01F3B21F0153609F0D8
:10509000A8C045C01982188213C0992309F4A1C081
:1050A00090E08091B907882309F491E09093B907C3
:1050B00098C01092B9070DC08091B907882319F0E4
:1050C0001092B9078EC08881882319F08114910449
:1050D00021F480E00E94881D84C08091080762E36B
:1050E0000E94F20C1982188280E6809389117DC09B
:1050F0008981891709F475C0EF2809F472C080917D
:10510000B907882309F06DC08981891710F48F5F72
:1051100064C0198263C08981882309F462C0EF28C2
:1051200009F45FC08091B907882309F05AC08981CA
:10513000882311F0815051C0998350C088818A150D
:1051400009F44FC08091B907882309F04AC08881CB
:105150008A1510F080E001C08F5FE114F10409F4BA
:105160005FC0982FC81608F49C2DF701E90FF11DB8
:10517000E491EF3F09F054C0EBCF88818C1508F41F
:10518000C82EEC0CF11CF701849124C0888188237F
:1051900041F18091B907882321F58881882311F492
:1051A0008A2D01C08150E114F10409F440C0982F08
:1051B000C81608F49C2DF701E90FF11DE491EF3FAB
:1051C000B1F5ECCF88818C1508F4C82EEC0CF11CDD
:1051D000F7018491981708F4892F898380E68093DA
:1051E0008911892811F456E001C057E04881442311
:1051F00019F41092B80722C0242F30E08091B8072C
:10520000281B3109852F90E08217930714F4451B62
:1052100004C01216130694F041504093B8070EC014
:1052200088839981E114F10409F0A7CF05C0888330
:105230009981E114F10431F680E0CFCFDF91CF9175
:105240001F910F91FF90EF90DF90CF90AF909F90C4
:105250008F900895AF92CF92EF92FF920F93AE2C62
:10526000EE24FF24CC240E94D2270F91FF90EF90D0
:10527000CF90AF900895EF920F93E42E40E020E09E
:1052800030E000E00E942A290F91EF9008950F93DB
:10529000982F83E0489FA00111244D51584F00E002
:1052A000211101E0892F23E00E94A4600F9108954D
:1052B0000F93982F83E0489FA00111244651584F27
:1052C00000E0211101E0892F23E00E94A4600F91EA
:1052D00008958093070788E893E170E00E943DA25B
:1052E00067BD0895282FE7E3FCE080E094919217D2
:1052F00031F03196992311F08F5FF8CF80E0089557
:10530000883210F080E20895E82FF0E0E95CF34F76
:105310008491089590E020E030E0F90183E0EE0F01
:10532000FF1F8A95E1F7E20FF31FE058FB4F8081E2
:105330008F708150803108F49F5F2F5F3F4F203284
:10534000310559F7892F0895CF92DF92EF92FF929E
:105350000F931F93CF93DF93182F80E060E048E115
:1053600058E021E00E94D66086EF9BE0612F49E083
:1053700021EF37E00AE058E0E52E0E942A29E0906C
:10538000F60BEA941038B9F480E80E94936489E13E
:105390008093BA0788E0E81619F40E94296606C0CF
:1053A00086E08E1518F08E2D0E9497668091090771
:1053B00062E30E94F20C18E0FF24CE2CDD24C7FC2F
:1053C000D0944091B8074F0D473019F4193370F15C
:1053D0003EC0C42FD0E0CC16DD0611F020E101C0A4
:1053E00021E1AE014F5F5F4F82E1612F02E00E9439
:1053F000D0618091BA07882329F4CC16DD0611F418
:1054000021E101C020E1AE0194E0440F551F9A95BF
:10541000E1F74C1B5D0B455E5D4F88E1612F0E94FB
:10542000D660185FF394103461F611C08091BA070A
:10543000882311F020E005C020E087E0E81609F499
:1054400021E086E0612F45E058E00E94D660DF91C0
:10545000CF911F910F91FF90EF90DF90CF90089523
:105460002F923F924F925F926F927F928F929F9274
:10547000AF92BF92CF92DF92EF92FF920F931F9362
:10548000DF93CF93CDB7DEB764970FB6F894DEBF46
:105490000FBECDBF8E8780E060E044E558E021E09C
:1054A0000E94D66088EF9BE06E8548E021EF37E0F0
:1054B0000AE0EEE5EE2EE8E0FE2E7BE0C72E5CE093
:1054C000A52E0E94D2279091F80B2091F90B2D87E1
:1054D0008E858252843038F48091B907882319F080
:1054E00084E08093CE118091B907882319F431E0CC
:1054F000398302C042E0498322EF822E26E0922EB9
:1055000065EB71E17F836E831C8A1B8AA4E0B0E0A7
:10551000BB87AA87E3E0F0E0F987E88722E030E084
:105520003D832C8341E050E05B834A83492E552420
:1055300047FC50945981506C598B698160646A8B27
:105540008091B8077A818717C8F40A811B81081BEC
:10555000110983E0000F111F8A95E1F780E0602FA9
:1055600049E458E020E00E94D6604B895C894F5F97
:105570005F4F8CE0602F20E00E94BD628091B807F1
:105580009C81891708F08EC06C817D81681B710930
:10559000B3E0660F771FBA95E1F7162F84E045E474
:1055A00058E020E00E94D660D4014C91EB89FC8940
:1055B000A3E0EE0FFF1FAA95E1F72B893C89E21BC0
:1055C000F30BED50F94F20812F706C817D814616D1
:1055D000570629F47D85772311F4098901C000EC71
:1055E00080E3612F0E945B1880915C11EB89FC893C
:1055F00073E0EE0FFF1F7A95E1F7AB89BC89EA1BD8
:10560000FB0BED50F94F40814F70EC81FD814E1640
:105610005F0629F4FD85F13011F4098101C000E035
:1056200050E04E5B574F612F21E00E94A4602C8117
:105630003D8142165306B1F58091B907882331F4B4
:105640008091100790911107892B61F13D853323DB
:1056500071F4D4016C918E8570E040E050E02FEF42
:1056600030E002E00E945B14F40180831BC00B89D0
:105670001C8963E0000F111F6A95E1F72B893C89B3
:10568000021B130B0D50194FD8016C916F708E8552
:1056900040E021E00E9426158F70F8019081907FF4
:1056A000982B90838091B807F8858F1708F06FC00A
:1056B00068857985681B710953E0660F771F5A95D5
:1056C000E1F7162F84E04CE358E020E00E94D6601A
:1056D000AE81BF813C91EB89FC8943E0EE0FFF1F57
:1056E0004A95E1F74B895C89E41BF50BED50F94FC6
:1056F0008081982F9595959595959595D4012C91A8
:10570000E82FEF70488559854416550611F000E4DE
:1057100001C00A89892F992787FD9095830F911DD4
:1057200030E0BC01629FC001639F900D729F900D9D
:1057300011246FEF70E00E943DA2462F80E3612F9D
:105740002E2F0E945B188885998548165906F9F412
:105750000B891C8923E0000F111F2A95E1F7AB8903
:10576000BC890A1B1B0B0D50194FF8016081659510
:105770006595659565958E8541E82FE70E9426150C
:105780008295807FD8019C919F70982B9C93FA847E
:105790008091B8078F1508F0C9C06A857B85681BA2
:1057A000710993E0660F771F9A95E1F7162F84E051
:1057B00048E358E00E941061F4012581EB89FC89DF
:1057C00083E0EE0FFF1F8A95E1F74B895C89E41BAC
:1057D000F50BED50F94F8081982F959595959595FE
:1057E0009595D4014C91E82FEF706A857B8546161C
:1057F000570629F47D85772311F40A8901C000E456
:10580000892F992787FD9095332727FD3095820FA3
:10581000931F242F30E0DC01A29FC001A39F900DB5
:10582000B29F900D11246FEF70E00E943DA2462FB1
:1058300080E3612F2E2F0E945B18F4013681EB89E3
:10584000FC8903E0EE0FFF1F0A95E1F74B895C89A5
:10585000E41BF50BED50F94F8081982F95959595A8
:1058600095959595D4012C91E82FEF704A855B852D
:105870004416550629F45D85513011F40A8901C09A
:1058800000E4892F992787FD9095830F911D30E0C3
:10589000BC01629FC001639F900D729F900D112407
:1058A0006FEF70E00E943DA2462F8EE4612F2E2FF5
:1058B0000E945B188A859B8548165906B9F59D8517
:1058C000992309F089C18091B907882331F4809127
:1058D000100790911107892B49F1D40115966C910D
:1058E000772767FD70958E8540E050E02FEF30E020
:1058F00002E00E945B14F401858318C08091B9070F
:10590000882331F48091100790911107892B71F051
:10591000D40116966C918E8570E040E050E02FEF38
:1059200030E002E00E945B14F4018683F394FC866D
:105930008B899C89B3E0880F991FBA95E1F72B8971
:105940003C89821B930BA4EF2A2EA6E03A2E280E48
:10595000391ECC24DD24F6EFEF2EF6E0FF2EE80E04
:10596000F91EAC014D50594F588B4F878091B807A5
:105970005C85851708F0F6C0A52EBB24B501681B11
:105980007109E3E0660F771FEA95E1F7162F84E0CF
:1059900042E358E020E00E94D660D7018C918F70DE
:1059A0003601660C771C4A145B0429F4BD85BB23C1
:1059B00011F4098101C000E090E0062C02C0959529
:1059C00087950A94E2F783709070AC01440F551FDD
:1059D000480F591F4B5D574F80E3612F23E00E9412
:1059E000A460F7014081429543704A145B0429F496
:1059F000FD85F13011F4098101C000E050E00C2C6C
:105A000002C0559547950A94E2F7417050704E5D7B
:105A1000574F8EE4612F21E00E94A460D1019C9138
:105A2000F4018081AF85B8892C912F704A145B04F2
:105A300029F4BD85B23011F4098101C000E0899FCD
:105A4000C00111246FEF70E00E9429A2462F86E664
:105A5000612F0E945B184A145B0409F083C0809197
:105A6000B907882339F48091100790911107892B89
:105A700009F478C0ED85E13089F1E13020F0E230C1
:105A800009F070C062C0D7011C911F70612F70E0D7
:105A9000062C02C0759567950A94E2F763708E85AF
:105AA00070E040E050E023E030E002E00E945B1450
:105AB000062C02C0880F991F0A94E2F723E030E019
:105AC00002C0220F331F6A94E2F720952123280F8A
:105AD0002F70F7018081807F822B43C0D7011C91FA
