:100000000C94BB0C0C94D80C0C94D80C0C94D80CFD
:100010000C94D80C0C94D80C0C94D80C0C94D80CD0
:100020000C94D80C0C94D80C0C94D80C0C94D80CC0
:100030000C94140F0C94D80C0C94D80C0C949A0FAC
:100040000C94F00D0C94D80C0C94E96A0C94D968BB
:100050000C94D80C0C94D80C0C94D80C0C94D80C90
:100060000C94D80C0C940F0E0C94D80C0C94D80C47
:100070000C94D80C0C94D80C0C94D80C0C94D80C70
:100080000C94D80C0C94D80C0C94D80C8040000024
:1000900000000000000000000000000000F0080464
:1000A0000484444444444444444444444444444410
:1000B00044C4040488700000000000000000000038
:1000C0000000000000000000000000000000000030
:1000D0000000000000000000000000000000000020
:1000E0000000000000000000000000000000000010
:1000F0000000000000000000000000000000000000
:1001000000000000000000000000000000000000EF
:1001100000000000000080808080808080BF8080A0
:1001200080BF808080800000304848484848484868
:100130004888090908F00000000101017F01010160
:100140000100007F49494949414140007F4040400A
:10015000404040007F49494949414140007F0106F4
:100160000C10100C06017F00007F494949494141AC
:10017000400101017F0101010100007F0909090916
:1001800019294E000103060C780C0603010000003B
:1001900000F8FEFFFFFF0F0707070707073747872E
:1001A00087879797075FDFDFDFDED880101010109A
:1001B000100F0080403F80C0E0E0E06020000000C1
:1001C000000000000000000000000000000000002F
:1001D000000000000000000000000060D09090903F
:1001E0009090000000F09090909010100000F0901F
:1001F0009090909090E00000F0000000F0909090BF
:100200009010100060D0909090909000000000003E
:10021000000107070F0F0F0E1E1E1E1E1E1E0E0EC4
:100220000E0E0E8ECEEEFCF973270F1F3F7EFCF9EB
:10023000F1F1F9FC3E1F0F07030100000000000070
:1002400000000000000000000000000000000000AE
:10025000000000000000000000000002060404048A
:100260000404030000070404040404040400070059
:10027000000000010204000007000000070404045D
:10028000040404040206040404040403000000003F
:100290000000000000040C1C1C1C1C1C1E1E1E0E5A
:1002A0000E0F070703030180C0E0F0F87C3E1F0F2C
:1002B00007070F1F3F7EFCF8F0E0C0800000000041
:1002C00000000000000000007E4A4A4A4A4A7C00C2
:1002D00002060C7008040202000000001C224141CA
:1002E0004949493A1800007E12121212324C00009D
:1002F0003E40404040403E00020C186060300C021E
:10030000007E00007E020C1830407E0000000000DD
:1003100000E0101010E00000C0804080000080402D
:1003200040800000CC8E4F8F0F070301000000605B
:10033000909010000000804143870F0FCF0E0CC03B
:100340000000C08040C0000080404040000080406D
:1003500040800000000000000000000000000000DD
:10036000000000000000000000000000000000008D
:10037000000000000000000000000000000000007D
:10038000000000000000000000000000000000006D
:1003900000070808080700003F04080700000709D5
:1003A000C94940408F00000F000000000000000815
:1003B0000808090600000708080700000708040FDE
:1003C00000000F00000000400708080800000709AF
:1003D0000909000000C8000008C000080000000073
:1003E000000000000000000000000000000000000D
:1003F0000000C0000000C00000000000000000007D
:1004000000000000000000C000000000000000002C
:10041000000000000000200000200000200000007C
:100420003F0404040300001E21211E0007380E0EA5
:100430003807001E25252600003F020103000000AA
:10044000000000000001013F00003F02013E0000EB
:10045000000000000000033C030000001E21211EDC
:1004600000001F20103F003F0201030000000000B9
:1004700000003F0202023F00001925151E20003F28
:1004800002013E001E21123F0000222529110052C8
:10049000554420454C45205448522041494C205257
:1004A00055442054485220454C452041494C204158
:1004B000494C20454C452054485220525544204137
:1004C000494C2054485220454C4520525544200068
:1004D00000000000000001081E640101081E640104
:1004E000010F32960A0A1E32960301020004050625
:1004F00007707265737320616E79204B65790041D6
:100500004C455254004D455353414745004C4F41D3
:1005100044494E4700506C65617365207265736590
:1005200074207468656D005377697463686573201F
:100530006E6F74206F666600416C61726D7320444B
:10054000697361626C6564005265736574207468D8
:10055000726F74746C65005468726F74746C65208B
:100560006E6F742069646C650050726573732061EE
:100570006E79206B657920746F20736B6970004110
:100580004C45525400454550524F4D206C6F7720DA
:100590006D656D004F464641425352557352552585
:1005A000454C73454C25544873544825414C734180
:1005B0004C255031205031255032205032255033B7
:1005C0002050332500544852525544454C45494427
:1005D0003049443149443241494C47454154524ED7
:1005E0005357315357325357335357345357355367
:1005F0005736535737535738535739535741535733
:1006000042535743004F4646004F4E20002D2D2D9C
:10061000002D2D2D204348312043483220434833BC
:100620002043483420434835204348362043483748
:10063000204348382043483920434831304348312B
:1006400031434831324348313343483134434831F0
:1006500035434831364348313743483138434831D0
:1006600039434832304348323143483232434832CA
:1006700033434832344348323543483236434832B4
:1006800037434832384348323943483330005031D9
:10069000202050322020503320204D4158204655F4
:1006A0004C4C4359433143594332435943335050DF
:1006B0004D3150504D3250504D3350504D345050BC
:1006C0004D3550504D3650504D3750504D384348B1
:1006D00031204348322043483320434834204348A4
:1006E0003520434836204348372043483820434884
:1006F000392043483130434831314348313243484F
:10070000313343483134434831354348313641442D
:10071000312041443220002D2D2D2D0056455253BD
:100720003A2056312E322D67727576696E0044413B
:1007300054453A20323031312D30372D3035005488
:10074000494D453A2031383A30363A32320020535A
:10075000564E3A206672736B792D7236383500200A
:10076000424C443A203335320070756C7365207406
:100770006162206F766572666C6F77006D656E756D
:10078000537461636B206F766572666C6F77006D72
:10079000656E75537461636B20756E646572666C0B
:1007A0006F77002D2D2D494E56004F46464F4E2057
:1007B000008745B640423B06392B315D30B52E9A55
:1007C0002CC0283528434C454152204D49584553AB
:1007D000205B4D454E555D0054454D504C415445B0
:1007E00053003C3E002D2D2D59656C4F72675265AC
:1007F0006400416C61726D004261720043616C691A
:100800006200762D004D6178004120206368616EA2
:100810006E656C0054454C454D455452590000FFDF
:100820000100010202FF01000102534146455459F3
:100830002053574954434845530000022D2D2D2D78
:10084000202020763E6F66732020763C6F667320F2
:10085000207C767C3E6F66737C767C3C6F66734151
:100860004E44202020204F522020202020584F523C
:100870002020202076313D3D7632207631213D7694
:10088000322076313E7632202076313C763220207E
:1008900076313E3D76322076313C3D763220005333
:1008A0005700435553544F4D2053574954434845DF
:1008B0005300000243560043555256455300434FE0
:1008C0005059205452494D205B4D454E555D002DE9
:1008D0002D2D494E56004C494D49545300000303F9
:1008E0000303030303030303030303030303002DB1
:1008F0002D2D783E30783C307C787C663E30663CEE
:10090000307C667C63312063322063332063342083
:1009100063352063362063372063382063392063D2
:1009200031306331316331326331336331346331B8
:1009300035633136002B2A52004D49584552004448
:10094000454C455445204D4958205B4D454E555D1D
:1009500000536C6F772020557000536C6F77202008
:10096000446F776E0044656C617920557000446572
:100970006C617920446F776E0041646420202020F0
:10098000204D756C7469706C795265706C6163652B
:1009900020004D756C747078004F464600576172A8
:1009A0006E696E6700537769746368002D2D2D782A
:1009B0003E30783C307C787C663E30663C307C66ED
:1009C0007C6331206332206333206334206335201D
:1009D0006336206337206338206339206331306306
:1009E00031316331326331336331346331356331F3
:1009F0003600437572766573004F4E204F464600B1
:100A00005472696D004F6666736574005765696757
:100A1000687400536F757263650045444954204DF6
:100A200049582000494E53455254204D4958200002
:100A300050524553455400454449542D3E004355BA
:100A40005256450009005072657373205B45584942
:100A5000545D20746F2061626F7274004D61782064
:100A60006D69786572732072656163683A2000650C
:100A7000787020202520207377312073773200454D
:100A800058504F2F44520000034452204869676871
:100A9000004452204C6F77004452204D696400445A
:100AA0007253773200447253773100576569676833
:100AB00074004578706F004558504F2F4452000025
:100AC00044454C455445204D4F44454C2020205B27
:100AD0004D454E555D00547261696E657200452E3C
:100AE000204C696D69747300504F534E4547005355
:100AF000686966742053656C007553656300344300
:100B0000482036434820384348203130434831326A
:100B1000434831344348313643480050504D20203B
:100B20002053494C565F4153494C565F4253494C00
:100B3000565F435452414330390050726F746F0016
:100B4000524554413132330042656570204374721E
:100B5000005472696D20537700457870202020453D
:100B60007846696E6546696E6520204D65646975D5
:100B70006D436F61727365005472696D20496E63D5
:100B800000542D4578706F00542D5472696D0043E8
:100B90006F756E7420446F776E436F756E74205559
:100BA0007020200054696D65722000547269676777
:100BB00065720054696D6572004E616D6500534544
:100BC000545550000009010000000000000602001A
:100BD0005B4D454E555D20205B455849545D00599D
:100BE000455320202020204E4F0044454C4554457D
:100BF000204D4F44454C0020414243444546474820
:100C0000494A4B4C4D4E4F505152535455565758DC
:100C1000595A303132333435363738395F2D2E005A
:100C20004475706C69636174696E67206D6F64658B
:100C30006C0066726565004D4F44454C53454C0051
:100C400012081200081C0808081C080000082200EE
:100C5000490022080000000000227F220000000856
:100C60002200490022080000082200490022080052
:100C70000000227F2200000000000822004900221C
:100C8000080000081C0808081C0800F14A4749022F
:100C9000497348DC47A1463C202020203E00536594
:100CA000744D6964205365745370616E446F6E6552
:100CB0002020200043414C4942524154494F4E00AC
:100CC0004131413241334134413541364137413878
:100CD00000414E41005472696D2D202B00204D655E
:100CE0006E75204578697420446F776E20202055FA
:100CF000705269676874204C6566740044494147C6
:100D000000454550524F4D20760056455253494FAD
:100D10004E0043616C004D756C7469706C6965724E
:100D200000636831636832636833636834006F66F8
:100D300066202B3D203A3D006D6F64652020202504
:100D4000207372632020737700536C6176650054C2
:100D50005241494E4552000003030303004D6F64A6
:100D6000650052455441005278204368616E6E65BB
:100D70006C204F7264004E4F204441544120416C1E
:100D800061726D00416C61726D205761726E696EA7
:100D900067004D656D6F7279205761726E696E677D
:100DA00000446F776E4F46462055702020005377E1
:100DB00069746368205761726E696E670054687267
:100DC0006F74746C65205761726E696E6700537042
:100DD0006C6173682073637265656E004F464600F0
:100DE0004C69676874206F6666206166746572007E
:100DF0004C696768742073776974636800466C6136
:100E00007368206F6E2062656570004265657020B2
:100E1000636F756E74646F776E004D696E7574657F
:100E20002062656570005468726F74746C6520721E
:100E30006576657273650053494E474F534D504672
:100E4000494C540046696C74657220414443004922
:100E50006E616374697669747920616C61726D008A
:100E600042617474657279207761726E696E670091
:100E7000436F6E74726173740051756965744E6F5F
:100E80004B65794E6F726D204C6F6E6720784C6F9A
:100E90006E670042656570657200524144494F209B
:100EA0005345545550004E4F20444154410054780E
:100EB0003D0052783D0041203D0054783D0052787D
:100EC0003D0041203D0020202054546D00457870A5
:100ED000457846466E654D6564437273005B4D45CB
:100EE0004E555D20746F2072657365740053746194
:100EF000636B2020202020202020202062007431DD
:100F0000306D7320202020202020202020757300A9
:100F1000746D61696E206D61782020202020206D25
:100F20007300746D7231204A6974746572202020D8
:100F300020757300746D72314C6174206D696E2080
:100F4000202020757300746D72314C6174206D61C6
:100F50007820202020757300535441543200544FA0
:100F600054005354250053544B0054535700544DD0
:100F700045005354415400454550524F4D206F7623
:100F80006572666C6F7700454550524F4D206F7605
:100F90006572666C6F770067656E7772697465203D
:100FA0006572726F7200454550524F4D20466F7208
:100FB0006D617474696E67004261642045457072AA
:100FC0006F6D2044617461004D4F44454C202020DA
:100FD000202000454550524F4D20436F6E7665727C
:100FE00074696E6700454570726F6D20446174616D
:100FF000204572397820763400454570726F6D2037
:1010000044617461207633005008500000000000F5
:101010000000006F000007000700147F147F1424F5
:101020002A7F2A122313086462364955225000058C
:10103000030000001C2241000041221C0014083E55
:10104000081408083E080800503000000808080886
:101050000800606000002010080402003E41413E8C
:101060000000427F40006251494600414949360034
:101070001814127F0027454539003E4949320001C6
:101080007905030036494936000649291E00003615
:1010900036000000563600000814224114141414BF
:1010A000144122140800020151090606090906002C
:1010B0007E0909097E7F494949363E414141227FE7
:1010C0004141221C7F494949417F090909013E41AB
:1010D00049497A7F0808087F00417F41002040414C
:1010E0003F017F081422417F404040407F020C02B4
:1010F0007F7F0408107F3E4141413E7F0909090678
:101100003E4151215E7F091929462649494932014C
:10111000017F01013F4040403F1F2040201F3F40D2
:1011200030403F6314081463070870080761514991
:101130004543007F41410002040810200041417FE7
:10114000000402010204404040404000010204004B
:1011500020545454787F4844443838444444203818
:101160004444487F3854545418087E0901020C52F4
:1011700052523E7F0804047800447D4000204044E1
:101180003D007F1028440000417F40007C0418048B
:10119000787C0804047838444444387C14141408D7
:1011A000081414187C7C080404084854545420047F
:1011B0003F4440203C4040207C1C2040201C3C40C0
:1011C00020403C44281028440C5050503C44645467
:1011D0004C44000836410000007F00000041360802
:1011E000000808221C08081C220808A060800000D3
:1011F000000000000000000000000000FFFF0000F1
:10120000000000001F3F00003F1F00003030FFFFC4
:101210003030FFFF30303078CCCCFFFFCCCC8C0CA2
:10122000060F0F86C0E070381C0C3CFEC7E3F33B92
:101230001E0C00000000333B1F0F000000000000E8
:10124000F0F81C0E07030000000003070E1CF8F066
:1012500000003030E0C0FCFCC0E03030C0C0C0C096
:10126000FCFCC0C0C0C00000000000000000000086
:10127000C0C0C0C0C0C0C0C0C0C0000000000000EE
:101280000000000000000080C0E070381C0C00006E
:1012900000000000000000000000000038380000DE
:1012A00000000000000000000000000003033F3FBA
:1012B00003033F3F03030C0C0C0C3F3F0C0C0703D4
:1012C0000C0E07030100183C3C180F1F3831333354
:1012D0001E1E33330000000000000000000000006C
:1012E00003070E1C38300000000030381C0E0703C6
:1012F0000000030301000F0F0001030300000000C2
:101300000F0F000000000000333B1F0F0000000023
:10131000000000000000000000000000183C3C1825
:10132000000000000C0E0703010000000000000098
:10133000FCFE07030307FEFC00000C0EFFFF00008D
:10134000000000000C0E0783C3E77E3C000003038F
:10135000C3C3C3E7FE3C0000C0E070381C0EFFFFB3
:1013600000003F3F33333373E3C30000FCFEC7C3C9
:10137000C3C78E0C00000303C3E3733B1F0F0000C1
:101380003CFEE7C3C3E7FE3C00003C7EE7C3C3E787
:10139000FEFC0000183C3C18000000000000183C57
:1013A0003C18000000000000C0E0F0381C0E0703ED
:1013B0003030303030303030303003070E1C38F0F1
:1013C000E0C000000C0E07030383C3E77E3C00006F
:1013D0000F1F383030381F0F000030303F3F3030A3
:1013E000000000003C3E37333130303000003030F8
:1013F000303030391F0F00000303030303033F3F66
:1014000000000C1C383030381F0F00000F1F383020
:1014100030391F0F000000003F3F000000000000B7
:101420000F1F393030391F0F0000000030381C0EFC
:1014300007030000060F0F06000000000000333B0A
:101440001F0F000000000000000103070E1C3830D1
:101450000303030303030303030330381C0E0703D2
:1014600001000000000000003333010000003C7E5A
:10147000E7C3C3E77E3C0000F0F8DCCEC7C7CEDC94
:10148000F8F0FFFFC3C3C3C3C3E7FE3CFCFE070382
:10149000030303070E0CFFFF030303070E1CF8F002
:1014A000FFFFC3C3C3C3C3C30303FFFFC3C3C3C39C
:1014B000C3C30303FCFE0703C3C3C3C7CECCFFFFF4
:1014C000C0C0C0C0C0C0FFFF00000303FFFF030394
:1014D0000000000000000303FFFF0303FFFFC0E064
:1014E000F0381C0E0703FFFF0000000000000000A2
:1014F000FFFF0E1CF8F81C0EFFFFFFFF3870E0C066
:101500008000FFFFFCFE070303030307FEFC00004F
:1015100000000000000000003F3F0000000000004D
:101520003F3F3F3F3030303030391F0F0F1F3830D2
:10153000303030381C0C3F3F303030381C0E070341
:101540003F3F30303030303030303F3F000000001F
:10155000000000000F1F3830303030383F1F3F3F51
:101560000000000000003F3F000030303F3F3030BF
:1015700000000C1C383030381F0F00003F3F0001C6
:1015800003070E1C38303F3F3030303030303030C1
:101590003F3F0000000000003F3F3F3F00000001D0
:1015A00003073F3F0F1F3830303030381F0FFFFF29
:1015B000C3C3C3C3C3E77E3CFCFE070303030307A7
:1015C000FEFCFFFFC3C3C3C3C3E77E3C3C7EE7C34F
:1015D000C3C3C3C78E0C03030303FFFF030303034B
:1015E000FFFF000000000000FFFFFFFF0000000001
:1015F0000000FFFFFFFF000000000000FFFF0F1FC3
:1016000038F0E0E0F0381F0F3F7FE0C08080C0E09E
:101610007F3F03030383C3E3733B1F0F0000FFFF00
:101620000303030300000C1C3870E0C080000000BE
:10163000000003030303FFFF000030381C0E070700
:101640000E1C3830000000000000000000003F3F8A
:1016500000000000000000000F1F383033371E1C50
:101660003F333F3F000003070E1C38300C1C38305E
:10167000303030391F0F000000003F3F00000000F5
:101680000F1F3830303030381F0F03070E1C38382A
:101690001C0E07030F1F38381F1F38381F0F3C3E22
:1016A0000703010103073E3C000000013F3F01002A
:1016B00000003C3E373331303030303000003F3FA7
:1016C00030303030000000000000000103070E0C35
:1016D0000000303030303F3F0000000000000000CC
:1016E000000000003030303030303030303000001A
:1016F00003070E1C383000000000303030303070EE
:10170000E0C0FFFFC0E070303070E0C0C0E070307B
:10171000303030300000C0E070303070E0C0FFFF8B
:10172000C0E0703030303070E0C0C0C0FCFEC7C3D5
:1017300003070E0CF0F89C0C0C0C0C0CFCFCFFFFCF
:10174000C0E070303070E0C000003030F3F30000D3
:101750000000000000003030F3F30000FFFF0080C5
:10176000C0E07030000000000303FFFF0000000035
:10177000F0F03070E0E07070E0C0F0F0C0E0703089
:101780003070E0C0C0E0703030303070E0C0000039
:1017900000000000000000000C1E3F3333333333E1
:1017A0003F3F3F3F3030303030381F0F0F1F383051
:1017B000303030381C0C0F1F3830303030303F3F65
:1017C0000F1F3B3333333333030300003F3F00002D
:1017D00000000000000133333333333B1F0F3F3F22
:1017E0000000000000003F3F000030303F3F30303D
:1017F00000000C1C383030381F0F00003F3F03073B
:101800000F1C38300000000030303F3F3030000007
:101810003F3F0000030300003F3F3F3F0000000048
:1018200000003F3F0F1F3830303030381F0FF0F0CE
:101830003030303030F0E0C0C0E0F0303030E0C068
:10184000F0F0F0F0C0E070303070E0C0C0E0F03098
:101850003030303000003030FFFF3030000000000A
:10186000F0F0000000000000F0F0F0F000000000D8
:101870000000F0F0F0F0000000000000F0F0307028
:10188000E0C08080C0E07030F0F080000000000018
:10189000F0F03030303030B0F0F070300000C0E0A8
:1018A0003C3E0703000000000000FFFF00000000B6
:1018B000000003073E3CE0C00000C0C0C0C00C1CDC
:1018C000F8F0E0C0C0E0F0F81C0CC0C0C0C03F3F62
:1018D00003030303030301000001030303030303E2
:1018E0003F3F3F3F00000000000000003031333335
:1018F0003333333F1E0C00000F1F383030381C0CC0
:101900000F1F383030381C0C3F3F03070E1C38388F
:101910001C0E07030F1F38381C1C38381F0F3038B7
:101920001C0F07070F1C3830000133333333333BB0
:101930001F0F30383C3E373331303030000000016B
:101940000F1F38300000000000003F3F0000000083
:10195000000030381F0F01000000000000000C0ED6
:1019600007030100000103070E0C00000000408087
:1019700008042010020111241FBECFEFD0E1DEBF0A
:10198000CDBF12E0A0E0B1E0EAEBF8ED02C00590B7
:101990000D92A637B107D9F710E1A6E7B2E001C072
:1019A0001D92A032B107E1F70E9470160C945B6C97
:1019B0000C94000099E0899F9001112428523D4F1A
:1019C000C901089595E0899F9001112428503C4F4A
:1019D000C901089585EC95E00895873038F4E82F23
:1019E000F0E0EE0FFF1FEC51FA4F2EC0893018F4D3
:1019F000E0E0F4E03EC08D3088F4E82FF0E0EE0F38
:101A0000FF1FDF01AA56BD4FEE58FA4F0190F0813B
:101A1000E02D8D919C91E81BF90B0BC0813160F496
:101A2000E82FF0E0EE0FFF1FEE58FA4F0190F08123
:101A3000E02DEE0FFF1F1DC0813250F4E82FF0E0C3
:101A4000EE0FFF1FE053FA4F0190F081E02D11C01F
:101A5000833218F0E0E0F0E00CC090E08197FC01E8
:101A6000EE0FFF1FE80FF91FED5FFF4E8081E82F9B
:101A7000F0E0CF010895E82FF0E0E751FB4FE4914B
:101A8000F0E0EE0FFF1FEC55FA4F8FB7F89401907E
:101A9000F081E02D87FF01C07894CF010895A4EA7A
:101AA000B5E0E4EBF5E060E0862F806487B9369A14
:101AB000349BFECF349A208931898D919C91119766
:101AC00096958795820F931F8E7F8D939D9340816E
:101AD0005181240F351F36952795318B208B84B18A
:101AE00095B1840F951F96958795819391936F5F1C
:101AF0006830D1F60895DF93CF93CDB7DEB7609706
:101B00000FB6F894DEBF0FBECDBFFE01319680E167
:101B1000DF011D928A95E9F7A4EAB5E050E015C00F
:101B200067B9369A349BFECF349A84B195B1280FA9
:101B3000391F4F5F4430A1F7219331933695279594
:101B40002D933D935F5F583031F02081318140E02B
:101B5000652F6064E5CF60960FB6F894DEBF0FBEC8
:101B6000CDBFCF91DF910895E4EAF5E020E0822F28
:101B7000806487B9369A349BFECF349A84B195B18C
:101B8000880F991F819391932F5F283081F70895D3
:101B900080915F05882341F480917005882321F4AA
:101BA00080917205882311F084E105C08091990528
:101BB000882321F081508093990508C080916300AB
:101BC00090E096958795817080939A0580919A050B
:101BD0000895109281051092830510928205089550
:101BE0001F920F920FB60F9211248F93809196053A
:101BF0008F5F809396058F910F900FBE0F901F906F
:101C000018954091960522B7809196054817C9F717
:101C1000942F80E030E0282B392BC9010895789467
:101C20001F920F920FB60F9211242F933F934F9351
:101C30005F936F937F938F939F93AF93BF93CF9354
:101C4000DF93EF93FF93C0918000D0918100F894CF
:101C500080917D008F7D80937D00789480919B059D
:101C600090919C059E01281B390B36952795C9013B
:101C7000815A9F408F5D9E4220F481E080939405BD
:101C80002EC040919405842F8150883040F5C901C1
:101C9000815293408757954000F5E42FF0E0EE0F16
:101CA000FF1FEE57FA4F2C5D35408091C0029927F7
:101CB00087FD90950A96BC01269FC001279F900D35
:101CC000369F900D11246AE070E00E94C96B718309
:101CD00060834F5F4093940502C010929405D093A7
:101CE0009C05C0939B05F89480917D008062809351
:101CF0007D007894FF91EF91DF91CF91BF91AF91EB
:101D00009F918F917F916F915F914F913F912F9113
:101D10000F900FBE0F901F901895E1E2F0E101C007
:101D2000319680818535E1F39F0120523041C90110
:101D30000895EF92FF920F931F93DF93CF93CDB748
:101D4000DEB7C054D0400FB6F894DEBF0FBECDBF93
:101D50007E010894E11CF11CC70163E00E94FD1E96
:101D60008E010F5D1F4FC80161E00E94FD1EEAEF6A
:101D7000F3E0B7017801018112818081DB014D918F
:101D80005C91D7012D913C91882321F0CA01821BDF
:101D9000930B03C0C901841B950B800F911FB3E007
:101DA000883E9B071CF088EE93E006C02CEF89313B
:101DB000920714F488E19CEF9283818335966E5FDD
:101DC0007F4F82E090E0E80EF91E94E0EA34F907D4
:101DD00091F68091BA0290E08170907022E030E03C
:101DE000281B390B11AE2130310511F010928404FB
:101DF0002230310511F0109285041092860482E0A1
:101E00000E94F2558091610580935F05C05CDF4FB1
:101E10000FB6F894DEBF0FBECDBFCF91DF911F91FB
:101E20000F91FF90EF9008951F920F920FB60F92AF
:101E300011242F933F934F935F936F937F938F93CF
:101E40009F93AF93BF93EF93FF9390E08CB58A304D
:101E500008F068C09F5F923309F464C0F7CFC09A5E
:101E600010929E0504C0C09881E080939E058091E9
:101E70005805909159059C012417350708F49A01DB
:101E800030935905209358058091000190910101EC
:101E90009C014217530708F49A01309301012093E3
:101EA0000001A0910901B0910A01FD018191919178
:101EB0009BBD8ABDF0930A01E093090112968D91B2
:101EC0009C911397892BC1F48CEB96E090930A01B7
:101ED000809309018091D1028295817080939E0543
:101EE000F89487B78F7E87BF78940E941E1CF89461
:101EF00087B7806187BF78948091950581608093D2
:101F00009505FF91EF91BF91AF919F918F917F9137
:101F10006F915F914F913F912F910F900FBE0F9056
:101F20001F9018954CB55DB580919E05882309F0EA
:101F300096CF99CF78941F920F920FB60F921124DB
:101F40002F933F934F935F936F937F938F939F93C1
:101F5000AF93BF93CF93DF93EF93FF93F894809168
:101F600008018F5F80930801815090E0837090702A
:101F7000892B11F49DE901C09CE987B78D7F87BF4C
:101F800081B7980F91BF7894F894CCB5DDB578946B
:101F900090915F05992369F080917105882329F458
:101FA0009093710581E080937205915090935F0545
:101FB00021C0309170053323B9F02091710522239F
:101FC00099F090E080917205882309F491E0909354
:101FD0007205992309F428E020935F05992351F0B5
:101FE00031503093700506C0109271051092720541
:101FF00010925E0580917205882381F080915E05C4
:10200000882311F490E004C090919D0581E0982709
:1020100090939D05992311F41B9A01C01B980E946F
:10202000236380919505826080939505F8948CB523
:102030009DB578948C1B9D0B90935D0580935C05FA
:10204000F89487B7826087BF7894FF91EF91DF9112
:10205000CF91BF91AF919F918F917F916F915F9140
:102060004F913F912F910F900FBE0F901F90189599
:102070008F929F92AF92BF92CF92DF92EF92FF9298
:102080000F931F93CF93DF93B82E942E85E0841780
:1020900008F412C1BB2009F412C196E1B91609F483
:1020A0000DC1AAEEBA1609F407C12B2D332727FD5F
:1020B0003095C90137FF04C088279927821B930BED
:1020C0008A3084F41B144CF08DE090E0821B930B5B
:1020D0000E947A6261E06827F2C0C9010D960E94F1
:1020E0007A62C6C0C82EDD24C7FCD094E6EFFFEFAD
:1020F000CE0EDF1EF601EE0FFF1FEC0DFD1DED53A2
:10210000FD4FEE5BFD4F8081E254F240882309F4DD
:10211000D3C050E4E52E52E0F52EEE0EFF1ED7019F
:10212000AC90EF01CF5BDD4F8880853008F4D5C0DF
:10213000883028F400E010E040E050E029C08A2D0B
:1021400081500E94ED0C8C01888181500E94ED0C21
:10215000AC011EC08881482F552747FD5095435834
:102160005F4F16C0988189E298029001112435953D
:1021700027953595279597FD915C96FB990F990BBF
:1021800090F9892F992787FD9095A901481B590B34
:10219000E601CC0FDD1FCC0DDD1DCB5FDA4F2881B2
:1021A000283088F4253008F049C0223031F123303E
:1021B00020F4213009F080C01CC0233011F12430FC
:1021C00009F07AC029C02A3009F462C02B3038F4F3
:1021D000283009F453C0293009F06EC054C02C30A7
:1021E00009F460C02C3008F458C02D3009F064C0E8
:1021F0005EC01B140CF44CC05AC01B140CF44DC030
:1022000051C020E0C80117FF03C0909581959F4FF2
:102210004817590764F40AC020E0C80117FF03C03B
:10222000909581959F4F841795070CF421E01B141E
:1022300014F4622F44C061E0622741C0192D1F5F72
:102240008A2D60E0412F0E943810082F882D60E011
:10225000412F0E9438109881953031F4002361F1AC
:10226000682F882361F12AC0963021F4002331F5CC
:10227000682F25C060E0081709F521C060E0041749
:102280001507E9F41BC060E004171507B9F417C07F
:1022900060E0401751079CF411C060E00417150777
:1022A00074F40CC060E0041715074CF007C060E040
:1022B0004017510724F002C060E001C061E0862FA2
:1022C000DF91CF911F910F91FF90EF90DF90CF9012
:1022D000BF90AF909F908F9008958A2D81500E945B
:1022E000ED0C8C01F701808182320CF033CF3ACFB4
:1022F0001F93182F682F6F7066502091D10222957E
:10230000220F207E2595259525952595259522300A
:102310006CF0332727FD30952150304081E090E06C
:1023200002C0880F991F2A95E2F7282F683008F01D
:1023300092C0962F9595222311F0422F15C0E92FB8
:10234000F0E0ED57FB4F8081482F552747FD509512
:1023500057FF03C0509541955F4F242F47FD2D5FD8
:10236000422F459545954F5FA92FB0E02091BA02C5
:1023700030E02170307082E090E0821B930B8A176E
:102380009B0739F48091D00286FF03C044E071E0DE
:1023900001C070E0242F332727FD3095FD01ED5358
:1023A000FD4F60FF0AC0E054FE4F8081482F552743
:1023B00047FD5095420F531F09C0E054FE4F8081E6
:1023C000482F552747FD5095421B530B411551058A
:1023D00071F0952F9095991F9927991F20E0FD0185
:1023E000ED57FB4F808187FF21E0921769F077233B
:1023F00059F4FD01ED57FB4F8081882329F01082AD
:10240000812F0E94016320C0CA0184589F4F893FD9
:10241000910570F4AD57BB4F4C9382E00E94F2558A
:1024200016FF03C081E080935E058091600510C0B7
:102430001416150614F083E801C08DE7AD57BB4FA5
:102440008C9382E00E94F25510925E0580916205A5
:1024500080935F0510E0812F1F910895EF92FF9206
:102460000F931F93F8942091D60F3091D70F789443
:1024700040E08091A2059091A3052817390709F043
:1024800041E040936D05F8948091D60F9091D70F5D
:1024900078949093A3058093A20585E196E060E08F
:1024A0000E94FD1E80916D05882309F422C1809150
:1024B00080058823A1F090918105892F8F5F8093FB
:1024C0008105843660F09356909381058091820552
:1024D000909183050196909383058093820580E017
:1024E0000E9405560E94B4610E94DE610E9478112C
:1024F000E82E80916E0590916F05009729F0019765
:1025000090936F0580936E05EE2089F08091BE0256
:1025100090E024EF31E0AC01429FC001439F900D59
:10252000529F900D112490936F0580936E058091BA
:10253000A70260E040E00E943810882339F48091BF
:102540006E0590916F05892B09F4D1C0C79A20912F
:10255000F0053091F1058091660590916705821B29
:10256000930B60E270E00E94C96B70936905609301
:1025700068056115710591F08091A0059091A10504
:10258000821B930B62E070E00E94C96B7093690537
:102590006093680530936705209366053093A10525
:1025A0002093A005E0913F06F0E0EE0FFF1FEB5CEB
:1025B000F94F0190F081E02D8E2D09950E948E61DA
:1025C0000E94C80D882321F0809165008F7E03C092
:1025D00080916500806180936500F8948091D60FAA
:1025E0009091D70F78948F7190708230910521F07F
:1025F000039709F07EC064C080916A0590916B05D5
:10260000892B39F487E00E943B0D90936B058093F2
:102610006A0580916A0590916B057C0103E0EE0CE0
:10262000FF1C0A95E1F7E81AF90A00E010E087E0DC
:102630000E943B0DA0E0B0E08E0D9F1DA01FB11FBA
:1026400013E0B695A795979587951A95D1F79C01B4
:1026500090936B0580936A058091A602992787FD68
:102660009095880F991F880F991F280F391F84E2B2
:1026700090E0AC01249FC001259F900D349F900DE8
:102680001124969590936C0580919F05805E8093B0
:102690009F05882371F58091A502981750F5923314
:1026A00040F18091640580935F058091BC0283FFB7
:1026B00020C082E390E090936F0580936E0519C06F
:1026C0008091B902869586958695877090E0BC01C9
:1026D000660F771F660F771F680F791F60537B4F58
:1026E00080E695E045E050E00E94196C02C0C79872
:1026F0002ECF1F910F91FF90EF9008958F929F9290
:10270000AF92BF92CF92DF92EF92FF920F931F93FF
:10271000CF93DF93182F7B014A015901C02E84FD0E
:1027200004C024E0D22E05E005C01F70106695E0BD
:10273000D92E04E08D2D8066181761F08D2D8064F0
:10274000181741F090911306992361F0133611F098
:10275000133441F4E70121968091600580935F0571
:10276000802F17C0802F8066181761F0802F80643B
:10277000181741F0992309F470C0123619F0123479
:1027800009F06BC0E70121978091600580935F0598
:102790008D2D90E00E947A62882351F0CC27DD27AE
:1027A000CE19DF09802F0E9401638D2D0E940163E5
:1027B0008114910491F481E0A816B10471F41036EB
:1027C00061F410921306C0E0D0E0E114F10411F4BA
:1027D000C1E0D0E080E60E9401638091680590919D
:1027E0006905C81BD90BAC16BD0644F4812F0E94A5
:1027F00001638091620580935F05E501C815D905E5
:1028000044F4812F0E9401638091620580935F05EB
:10281000E401CE15DF0589F0209739F4812F0E945D
:10282000F2628091600580935F058C2D87700E9415
:10283000F25581E08093650502C010926505CE01D6
:10284000DF91CF911F910F91FF90EF90DF90CF908C
:10285000BF90AF909F908F900895E701A9CF0F93FD
:10286000772767FD7095552747FD5095332727FD3E
:10287000309501E00E947E130F9108950F93772702
:1028800067FD7095552747FD5095332727FD3095F7
:1028900002E00E947E130F9108950F931F938C0105
:1028A0000E94B46182E260E045E055E024E00E94CD
:1028B000495F80E068E1A8010E94835F0E948E6109
:1028C0008091A4020E9484611F910F91089586B3A4
:1028D00080958E77E1F70E94DB610895FF920F9358
:1028E0001F938C01F62E0E94B46182E260E04FEFEC
:1028F00054E024E00E94495F80E068E1A8010E9462
:10290000835F8CE168E341EF54E00E94835F0E94A3
:102910008E61FF2011F089E102C08091A4020E9423
:1029200084618091640580935F050E94671486B37B
:1029300080958E7791F48091A70260E040E00E943C
:102940003810882331F48091BE02882311F4FF20CF
:1029500011F0C79AECCFC798EACF1F910F91FF9063
:1029600008958091B90287FD07C0887329F488E330
:1029700095E060E00E946E1408958091B90286FD92
:102980000AC00E949B5A883C910528F485E895E08E
:1029900060E00E946E1408951F93CF93DF9386B377
:1029A00080958E7721E030E0682F70E0422FCB01D8
:1029B000022E02C0959587950A94E2F780FD06C025
:1029C0004F5F2F5F3F4F2830310581F7142F115093
:1029D0001630A8F5812F0E947B56882381F1109331
:1029E000A302812F0E94815781E00E94F2550E942C
:1029F000B46186E160E04DE055E024E00E94495F6B
:102A0000C3ECD2E01AE0812F68E1499124E00E94F2
:102A10005C5E155F1837B9F70E948E618091A40241
:102A20000E9484618091A702882321F48091BE02D4
:102A3000882311F0C79A01C0C7980E946714DF91DC
:102A4000CF911F910895EF92FF920F931F938C01E6
:102A50007B010E94B46182E260E04FE755E024E030
:102A60000E94495F80E060E2A8010E94835F80E0ED
:102A700068E2A7010E94835F80E060E349E655E0D9
:102A80000E94835F0E948E618091A4020E948461F3
:102A90000E9467141F910F91FF90EF9008950F937C
:102AA0001F938091B9028670A9F187E295E065E1F4
:102AB00075E00E94231500E08091B9028670823093
:102AC00009F401E01EE00BC0113141F0812F8D505F
:102AD00060E040E00E943810801729F41F5F163133
:102AE00098F31631B9F086B380958E7799F406C0C5
:102AF0008091BE02882359F0C79A0AC08091A7022C
:102B000060E040E00E9438108823B1F7F1CFC79809
:102B10001EE0DCCF1F910F9108950F931F93CF9369
:102B2000DF938091B90280FD4FC08091BA0290E09E
:102B30008170907002E010E0081B190BF801EE0F95
:102B4000FF1FEA58FD4F27853089C181D2816096E9
:102B5000C90168E070E00E94C96BC60FD71FC21B95
:102B6000D30B0E94B40D102F802F0E943B0DC8176D
:102B7000D90754F586B380958E7731F513C00E943E
:102B8000B40D812F0E943B0DC817D907ECF486B312
:102B900080958E77C9F40DC08091BE02882391F094
:102BA000C79AEDCF87E595E068E475E00E942315AC
:102BB000E6CF8091A70260E040E00E9438108823B1
:102BC00079F7EACFC798DBCFDF91CF911F910F91B3
:102BD0000895AF92BF92CF92DF92EF92FF920F9340
:102BE000CF93DF938091BC0284FD70C08091A702D7
:102BF00060E040E00E943810882329F48091BE02F2
:102C0000882309F456C0C79A0E94B46180E060E04E
:102C10004CE850E020E000E00E94FF5D0E948E61E1
:102C20008091A4020E9484610E9467140E944F0D4B
:102C30000F5F0032D9F7AA24BB2400E0802F0E9446
:102C40003B0DC92FD0E0AC0EBD1E0F5F0430B1F7B5
:102C5000F894C090D60FD090D70F789480E991E087
:102C6000C80ED91E1CC00E944F0DC0E0D0E000E08D
:102C7000802F0E943B0DE92EFF24CE0DDF1D0F5F3C
:102C80000430B1F786B380958E7701F5CA15DB0560
:102C9000E9F411C08091BE028823B1F0C79AF8947C
:102CA0008091D60F9091D70F7894C816D906D9F68F
:102CB0000DC0C798A9CF8091A70260E040E00E94B4
:102CC0003810882359F7E6CFC798E9CFDF91CF9125
:102CD0000F91FF90EF90DF90CF90BF90AF9008954D
:102CE0001F93CF93DF939FEF9ABB1BBA81E887BBFB
:102CF0008EE788BB8EE384BB81EC85BB11BA92BBA7
:102D000088E082B987EF83B9109261001092620067
:102D100080E180936400909365000E9450610E945E
:102D2000766B80E487B985E886B987E083BF8CE954
:102D300081BF87B7836087BF8AE08EBD82E88093BA
:102D40008A0080917D00806280937D0078948CEF72
:102D50009EE4909336068093350689E10E94846153
:102D60000E94C2591091A3020E94CC140E94E9153E
:102D70000E94BD140E94B40D0E948D150E944F1533
:102D80000E94B1140E9467140E941E1C2DE088E16D
:102D900090E00FB6F894A89581BD0FBE21BD85E1E6
:102DA00096E060E00E94FD1E87E895E40E94371CD3
:102DB00081E00E94571C8091A4020E94846180914E
:102DC000BE0290E024EF31E0AC01429FC001439F7E
:102DD000900D529F900D112490936F0580936E0576
:102DE0008091A302181719F081E00E94F25587B76D
:102DF000806187BF0E94010EEC01E091BD02F0E00E
:102E0000EE0FFF1FEE5FFE4F0190F081E02D099560
:102E10000E942E1280919505833019F4A895109286
:102E200095050E94010E20915A0530915B058C1B7F
:102E30009D0B8217930708F4C90190935B0580935B
:102E40005A05D8CF0F931F93062F122F20620E948E
:102E5000306117FD07C08091AB0F602F46E7212F2F
:102E60000E945C5E1F910F910895242F40916C0584
:102E700050E00E94221708950F93222329F450E076
:102E8000202F0E94221704C050E0202F0E943061A2
:102E90000F910895EF92FF920F931F93082FF62E34
:102EA000142FE22E442329F0463139F04A3E81F4B2
:102EB00008C08A5F4DE056E007C08A5F49E056E0EF
:102EC00003C08A5F45E056E02E2D0E94495F21C075
:102ED000441F4427441F405E0E945C5E0E94EA0C2F
:102EE000602F6A5F212F332727FD309537FF03C0FE
:102EF000309521953F4F43E02402A0011124435017
:102F00005040480F591F862F6F2D23E00E2D0E9431
:102F1000175F1F910F91FF90EF900895DF92EF924E
:102F2000FF920F931F93F82EE62ED42E1091CD0210
:102F3000110F1595812F992787FD909597FF03C055
:102F4000909581959F4F80319CF443E08402A001CD
:102F500011244C565A4F8F2D6E2D23E00D2D0E94BB
:102F6000175F1F3F4CF58F2D86506E2D41E221C01B
:102F7000853274F411161CF4412F4F5002C0412FBA
:102F8000415F8F2D86506E2D2D2D0E944A1714C043
:102F900011161CF4412F445202C0412F4C5D8F2D5D
:102FA00086506E2D2D2D0E944A178F2D8E5E6E2D10
:102FB0004DE62D2D0E945C5E1F910F91FF90EF90CA
:102FC000DF9008950F93022F50E0440F551F440FD8
:102FD000551F4F5E594F24E00E94175F0F910895CF
:102FE0000F93782F342F022F442319F447E157E031
:102FF00023C04530B8F48091BA0290E0880F991F41
:10300000880F991F41E050E0481B590B431B5109A1
:10301000440F551F440F551F509541955F4F415721
:103020005B4F09C0423258F450E0440F551F440F23
:10303000551F4658594F872F24E00E94175F0F9164
:103040000895AF92BF92DF92EF92FF920F931F937A
:10305000CF93DF93F82ED62E5A01122FE02E202F79
:1030600021234AE30E945C5E812F90E0EC01C47052
:10307000D07012FD02C02F2D02C02F2D2E5FC50172
:103080006CE370E00E94C96BAB011061822F6D2D63
:10309000212F02E00E944360CD2B11F421E101C0F9
:1030A0002CE1C5016CE370E00E94C96BAC0180E1CA
:1030B000E82A822F8F0D6D2D2E2D02E00E94436095
:1030C000DF91CF911F910F91FF90EF90DF90BF9014
:1030D000AF90089599E289029001112435952795C2
:1030E0003595279587FD815C86FB880F880B80F9D5
:1030F000992787FD9095281B390BC9010895E09108
:103100003F06F0E0EE0FFF1FE95CF94F80819181EF
:103110000895FC01A0913F06B0E0AA0FBB1FAB5C75
:10312000B94F8D939C938FEB0995809160058093A7
:103130005F0508956F927F928F929F92AF92BF9298
:10314000CF92DF92EF92FF920F931F933B017C018E
:1031500000E010E08824992464E670E080E090E0CC
:103160006619770988099909A80197010E94966B49
:103170005B016C0182E390E0A0E0B0E0A80EB91E14
:10318000CA1EDB1EC801B7010E94966B0E94966B97
:10319000BC0188279927A40193010E94966B44E003
:1031A00096958795779567954A95D1F7A60EB71EA0
:1031B000C81ED91EC601B50124E630E040E050E04B
:1031C0000E94DC6BC9011F910F91FF90EF90DF907F
:1031D000CF90BF90AF909F908F907F906F90089509
:1031E000FF920F931F939C01AB016115710531F1A3
:1031F000FF2497FF05C0FF24F394309521953F4F9E
:1032000057FF10C000E014E066277727641B750B9A
:10321000C801821B930B0E949A189801281B390B36
:10322000C90104C0C901BA010E949A18FF2011F413
:103230009C0104C022273327281B390BC9011F9189
:103240000F91FF90089510927D05109276051092CF
:10325000750510927A0510927905109278051092F2
:10326000770510927C0510927B050895AF92BF926E
:10327000CF92DF92EF92FF920F931F93CF93DF9342
:103280005B016C0100E010E8C0E0D0E8EE24FF2410
:103290009E0140E050E0CA01B9010E94966BA6165B
:1032A000B706C806D90610F4C027D127169507958A
:1032B0000894E11CF11C80E1E816F10461F4CE01F0
:1032C000DF91CF911F910F91FF90EF90DF90CF9002
:1032D000BF90AF900895C02BD12BDACF9C0140E076
:1032E000683008F041E070E0442371F0CB010897AA
:1032F000FC0163E0EE0FFF1F6A95E1F7E80FF91F8D
:10330000DF01A554BB4F0AC0FB01EE0FFF1FEE0FFC
:10331000FF1FE60FF71FDF01AD56BB4FFD01808198
:1033200020503C4F37FD0EC068E02030360784F057
:10333000442319F484E090E002C088E090E0A80FF4
:10334000B91F8C91992787FD9095582F442733C03A
:10335000442331F0432FB9017070660F771F04C00A
:10336000432F4695B9017170842F90E0FD01E80F5D
:10337000F91F8181992787FD90959B0135952795A8
:10338000829FA001839F500D929F500D1124208198
:10339000332727FD309580E092E0861B970B9595AB
:1033A0008795BC01269FC001279F900D369F900DE9
:1033B0001124480F591FCA0169E170E00E94C96BCE
:1033C000CB0108956F927F928F929F92AF92BF929E
:1033D000DF92EF92FF920F931F93CF93DF93809131
:1033E000D10285FD04C0A12C44E0B42E03C0A12C61
:1033F00035E0B32EE091D002EE0FEE0FE595E595A6
:10340000E595E595E595EE0FE85F9091D20284E6AB
:103410009802C001112428E5E22E22E0F22EE80EE7
:10342000F91EEA3028F448EC5FEA4E195F090DC036
:103430008853904F2E2F30E0829FA001839F500D24
:10344000929F500D1124405C504EC5E1D6E0ACEB8C
:10345000B6E06E2F70E0660F771F6C0F7D1F88241B
:1034600099248A189B08662477246E187F0808E53B
:1034700012E00E191F0923C028813981C501DA2CF9
:10348000F92F2A153B051CF4C901D22EF92F8D2DD9
:103490009F2F881599050CF4C401805A964F93010B
:1034A000281B390B420F531F1196FC92EE92800F8E
:1034B000911F13969C938E93129722961496C6177B
:1034C000D707D1F6EE0FAE2FB0E0AA0FBB1FA45462
:1034D000B94FED92FC92EF5FAE2FB0E0AA0FBB1F89
:1034E000A454B94F4D935C93EF5FF0E0EE0FFF1FD4
:1034F000E454F94F11821082DF91CF911F910F9107
:10350000FF90EF90DF90BF90AF909F908F907F9053
:103510006F900895A0911609B0911709FD0181934C
:10352000919313967C936E9312973296F0931709AA
:10353000E09316090895882329F060E679E080E693
:1035400099E004C060EB74E080EB94E00E948A1A7A
:1035500008951F93182F82700E949B1A812F8170EB
:103560000E949B1A1F910895EF92FF920F931F9351
:10357000CF93DF938091D002877090E081309105E6
:1035800019F0029719F404C010E003C011E001C063
:1035900012E0209115063091160620503C4F220F64
:1035A000331F809117069091180680509C4F880F0A
:1035B000991F892F232F37FD20E087FD80E0022F00
:1035C00020310CF00FE0F82E8FE08F1514F4EFE0AF
:1035D000FE2E2F2D332727FD3095802F992787FD2D
:1035E000909509968217930714F40F2D0950C02F58
:1035F000DD27C7FDD095275F3F4F2C173D071CF4F3
:1036000077EFF72EF00E8CEB96E0909317098093EE
:10361000160980E797E160EB74E00E948A1A80E067
:103620000E94A91A80E699E060EB74E00E948A1A71
:1036300080E699E060EB74E00E948A1A812F0E9474
:10364000A91A1195CE019595879595958795E82EA0
:103650000E94A91A1E19802F0E94A91A101B8F2DD3
:10366000992787FD90959595879595958795082F2E
:103670000E94A91A101B8F2D0E94A91A812F8F1941
:103680000E94A91A80E00E949B1A809116099091CD
:1036900017090297909317098093160980E69AEE0E
:1036A00060E070E00E948A1ADF91CF911F910F9124
:1036B000FF90EF900895882329F080E293E060E482
:1036C00076E004C080E496E060E273E00E948A1A2B
:1036D00008950F931F93082F10E0802F81700E9490
:1036E0005B1B1F5F06951830C1F71F910F9108955E
:1036F0000F931F938CEB96E0909317098093160914
:103700008091180991E0892780931809882309F48A
:103710004FC08091150690911606885F9B4FE4E09C
:1037200096958795EA95E1F78038910510F08FE737
:1037300090E0182F209117063091180637FD0FC022
:10374000C901409675E0969587957A95E1F78034A2
:10375000910510F08FE390E0082F00640FC080E126
:1037600090E0821B930B65E0969587956A95E1F74B
:103770008034910510F08FE390E0082F812F0E9494
:10378000691B802F0E94691B0127802F90E09C01FC
:1037900054E0359527955A95E1F744E0880F991F35
:1037A0004A95E1F7822B0E94691B80E197E22BC0CA
:1037B0008091190690911A0680509C4F34E096959E
:1037C00087953A95E1F78038910510F08FE790E002
:1037D000082F0068802F0E94691B8EE80E94691BD9
:1037E0008EE8082710E0C80124E0959587952A9572
:1037F000E1F7B4E0000F111FBA95E1F7802B0E94AA
:10380000691B80EB96E360EA7FE00E948A1AE091F0
:103810001609F091170911921192F0931709E0938C
:103820001609EC5BF640E03FF1052CF089E697E0E5
:1038300060E00E946E141F910F9108958091D00254
:10384000877090E08430910534F4813091054CF418
:10385000892B21F00895049749F406C00E94E219CB
:1038600008950E94B41A08950E94781B08959C013F
:1038700080913F06E82FEF5FE0933F06E53040F090
:1038800080933F068CE797E060E00E946E140895F5
:103890008091600580935F05F0E0EE0FFF1FEB5C09
:1038A000F94F318320838FEBF90109950895E09159
:1038B0003F06EE23B1F0882311F0E0E001C0E150B3
:1038C000E0933F068091600580935F05F0E0EE0F86
:1038D000FF1FEB5CF94F0190F081E02D8EEB099515
:1038E00008958FE897E060E00E946E140895FF92BB
:1038F0000F931F93CF93DF93082F1091CD02110FD9
:103900001595812F992787FD909597FF03C0909576
:1039100081959F4FF82E24E228170CF03FC020918C
:103920002509309126098091230990912409282B9B
:10393000392B8091270990912809282B392B8091C8
:10394000220990E0282B392B80911F0990E0282B29
:10395000392B232B39F410921F0917FF03C081E084
:1039600080931F0911161CF4812F845202C0812FED
:103970008C5D60E040E00E943810282F882361F0C1
:1039800080911F09882341F490E0809122098823C7
:1039900009F491E09093220920931F09C091250911
:1039A000D09126092196D0932609C0932509E0914C
:1039B0002309F0912409E00FF11DF0932409E0930D
:1039C0002309F8948091D60F9091D70F7894209185
:1039D000270930912809821B930B8436910508F43E
:1039E00044C12C593F4F3093280920932709CF0118
:1039F000BE010E94B56B062F862F90E09C012C9F84
:103A0000C0012D9F900D3C9F900D1124E81BF90BD8
:103A1000F0932409E09323091092260910922509B6
:103A20003FE03F151CF01092220910C084E28F1570
:103A30006CF011161CF4812F8F5002C0812F815F12
:103A400060E040E00E943810809322098091730565
:103A5000909174050196909374058093730560911D
:103A60007505709176056F5F7F4F70937605609353
:103A70007505002349F08091790590917A050196AA
:103A800090937A058093790580912209882349F0E3
:103A900080917705909178050196909378058093B1
:103AA0007705069540917B0550917C05400F511D8F
:103AB00050937C0540937B05E091CE02F091CF02BC
:103AC000F0937F05E0937E058091CD02880F859568
:103AD000992787FD909597FF03C0909581959F4FFB
:103AE000882319F410927D0522C0813021F4CF0182
:103AF000861B970B18C0803170F480FF07C0CA0185
:103B000014E0969587951A95E1F709C0809179059B
:103B100090917A0504C080917705909178059F0176
:103B2000281B390BC90190937F0580937E058091F6
:103B30007D05813051F0813018F0823001F510C0E0
:103B40008091CD028F77D9F017C080917E0590913A
:103B50007F05181619069CF0309789F082E00DC099
:103B600080917E0590917F05855C9F4F1CF483E0DA
:103B700080937D05309719F481E080937D05209135
:103B80007E0530917F05809120099091210982174F
:103B9000930709F45CC080917D05813009F047C02E
:103BA0004091BC0242FF2BC0309749F12E313105C4
:103BB00011F482E003C02431310519F480937005BB
:103BC00006C02A30310519F02430310524F48091E3
:103BD000620580935F0543FF12C02E31310549F025
:103BE0002431310531F02A30310519F02430310506
:103BF00034F482E390E090936F0580936E0541FF6B
:103C000026C08091CD0287FF04C0CF01821B930B99
:103C100001C0C9016CE370E00E94B56B892BB9F457
:103C20008091620580935F0543FF11C00AC0823016
:103C300071F48091630580935F058091BC0283FFDE
:103C400006C082E390E090936F0580936E053093F9
:103C50002109209320098091CD0287FF06C0E21B35
:103C6000F30BF0937F05E0937E05DF91CF911F91D9
:103C70000F91FF9008952091CD02220F2595822F5C
:103C8000992787FD909597FF03C0909581959F4F49
:103C9000982F8230A4F1803194F585959A309CF468
:103CA000E82FFF27E7FDF0958091BA0290E0880F9A
:103CB000991F880F991FE80FF91FE65FFE4F80815B
:103CC000E82FF0E004C0E82FFF27E7FDF0953197DB
:103CD000EE0FFF1FEC51FA4F0190F081E02D27FF0E
:103CE00005C080E094E08E1B9F0B03C0CF01805085
:103CF0009C4F56E0969587955A95E1F702C080E073
:103D000090E00E94771CE091BA02F0E0EE0FFF1FF6
:103D1000EE0FFF1FE35FFE4FE081F0E0EE0FFF1FAD
:103D2000EE51FA4F0190F081E02D8091BC0280FFAE
:103D300005C080E094E08E1B9F0B03C0CF01805034
:103D40009C4F26E0969587952A95E1F760911B098F
:103D500070911C096F5F7F4F70931C0960931B0962
:103D60004091190950911A09480F591F50931A0987
:103D700040931909F8948091D60F9091D70F7894B9
:103D800020911D0930911E09821B930B885E934080
:103D900098F1F8948091D60F9091D70F78949093E2
:103DA0001E0980931D0910921A0910921909109288
:103DB0001C0910921B098091BA069091BB060196CE
:103DC0009093BB068093BA062091B8063091B9064D
:103DD000F901E05CF94FCA010E94B56B60832F5F67
:103DE0003F4F3093B9062093B8062837310520F0AD
:103DF0001092B9061092B80608952F923F924F92F2
:103E00005F926F927F928F929F92AF92BF92CF926A
:103E1000DF92EF92FF920F931F93DF93CF93CDB773
:103E2000DEB763970FB6F894DEBF0FBECDBF9A8B97
:103E3000898B6B8B80916D05882309F471C080910B
:103E40001406882319F08150809314068091BB02D8
:103E5000882309F465C080916C05823308F460C042
:103E600080912E0890912F08A0913008B0913108D0
:103E70000196A11DB11D80932E0890932F08A09349
:103E80003008B0933108ECEAF7E020E030E08191AF
:103E9000919160E870E00E94C96B260F371F47E0E0
:103EA000E43BF407A1F7809132089091330828177A
:103EB000390761F0309333082093320810922E08AE
:103EC00010922F081092300810923108E0902E08BE
:103ED000F0902F0800913008109131086091BB02DA
:103EE00070E080E090E020E737E140E050E00E94A1
:103EF000966B6E157F058007910790F46FE370E075
:103F000080E090E0E622F722082319237AE0E71602
:103F1000F1040105110521F48091630580935F058B
:103F200017E7612E12E0712EB4E54B2EB4E05B2E44
:103F3000188ACC24DD24882499248B89282E3324C4
:103F400091E0292233241C2D8C2D0E943B0D9C01D5
:103F5000D3018D919C911197281B390B12161306D2
:103F60002CF45C96ED91FC915D9705C0D3011E96F3
:103F7000ED91FC911F97E436F10514F4E4E6F0E0CE
:103F8000B901882777FD8095982FAAE0660F771FE3
:103F9000881F991FAA95D1F79F01442737FD4095A7
:103FA000542F0E94FE6B7901BCEF21303B0724F4B3
:103FB000E12C6CEFF62E07C0E4E020303E071CF049
:103FC000E12C54E0F52EF401EC51FA4FF182E0823D
:103FD000C7010F964F9730F5F4E0CF16D104BCF42B
:103FE000E091BA02F0E0EE0FFF1FEE0FFF1FEC0DA5
:103FF000FD1DE55FFE4F808190E0019721E030E0FC
:1040000002C0220F331F8A95E2F7C90108C081E080
:1040100090E00C2C02C0880F991F0A94E2F73889AF
:10402000382B388B143008F06BC1222009F05EC0A9
:104030008091D10283FF5AC08601000F111F0055E5
:104040001D4FD80111968C911197807C09F44EC0B8
:104050008C9185958595859561E040E00E943810AA
:10406000882309F443C0D801EC91E770F0E0EE0F2B
:10407000FF1FDF01A855BD4FEC57FA4F808191819A
:104080002D913C91821B930B62E070E00E94C96B02
:10409000F601EE0FFF1FEF54FD4F4081842F880F74
:1040A000880F85958595992787FD9095FC016E9FD2
:1040B000C0016F9F900D7E9F900D11246FE170E005
:1040C0000E94C96BCB01880F991F880F991F4295D9
:1040D00046954695437050E04130510529F04230F5
:1040E000510521F47C0102C0E80EF91ED2018C9129
:1040F00060E040E00E943810882311F400E00BC01B
:10410000F201818160E040E00E943810882311F0C4
:1041100002E001C001E08091BA0290E081709070ED
:1041200012E0A12EB12CA81AB90AAC14BD0461F595
:104130008091D00287FF28C0C70180509C4F62E069
:1041400070E00E94C96BCB01E02FF0E0EE0FFF1F83
:10415000EE0FFF1FA601440F551F9A0173E0220FB7
:10416000331F7A95E1F7241B350BE20FF31FE85B51
:10417000FB4F6081772767FD70950E94F018DC0186
:10418000AA0FBB1F10E026C010E01E141F040CF085
:1041900011E0802F90E09601220F331FF90143E0D8
:1041A000EE0FFF1F4A95E1F7E21BF30B880F991FF3
:1041B000880F991FE80FF91FED53FD4FE10FF11D17
:1041C000EB57FE4F6081772767FD7095C7010E940E
:1041D000F018DC01E02FF0E0EE0FFF1FEE0FFF1FE5
:1041E0009601220F331FC90103E0880F991F0A951A
:1041F000E1F7821B930BE80FF91FED53FD4FE10F21
:10420000F11DE957FE4F6081772767FD70956C5966
:104210007F4F882777FD8095982F9D01442737FD94
:104220004095542F0E94966B24E630E040E050E029
:104230000E94FE6B7901AC14BD0409F050C080915E
:10424000D00287FF06C520E03CEFE20EF31E01C559
:104250008091BC02F501ED53FD4F80FF1AC040E094
:1042600054E0E40EF51EB701882777FD8095982F5E
:10427000A0E0BCEFEA0EFB1EE054FE4F2081332786
:1042800027FD3095432F532F2D573040404050404D
:1042900014C060E074E06E197F09882777FD80956F
:1042A000982FE054FE4F2081332727FD3095432F70
:1042B000532F23583F4F4F4F5F4F0E94966B20E084
:1042C00038E040E050E00E94FE6BC901DA01803026
:1042D000E8E09E07E0E0AE07E0E0BE0739F4F60153
:1042E000ED57FB4F8081992787FD9095880F991F87
:1042F000E1E0F0E0EC0FFD1FE80DF91D91838083F4
:10430000F401E455F84FF182E0820894C11CD11CFD
:1043100022E030E0620E731E820E931E4EE050E0EB
:10432000440E551E57E0C516D10409F00CCE40913D
:10433000D40268894623242F30E08091340890E02D
:104340008227932782239323892B21F08091610573
:1043500080935F054093340880E094E09093BB071E
:104360008093BA079093BD078093BC077B8971FF48
:1043700026C08091BA0290E08170907022E030E017
:10438000281B390BACEAB7E0FE01319680E090E0E3
:104390002817390729F011961C921E92118210825B
:1043A0000196129632968430910591F7EEEBF7E084
:1043B0001192119287E0EE3CF807D1F745C06EEB01
:1043C00077E040E050E0FA01EC57FA4FDA01AA58E2
:1043D000BD4F80819181D2962D913C91D397821BC4
:1043E000930B880F991FDB018D939D93BD014E5F49
:1043F0005F4F4830510539F780918C0590918D05BC
:10440000880F991F9093C7078093C60780918E05E8
:1044100090918F05880F991F9093C9078093C807C3
:104420008091900590919105880F991F9093CB07EB
:104430008093CA078091920590919305880F991FE8
:104440009093CD078093CC07EEEEF7E0FA87E987EB
:10445000AEECB7E0808191818D939D93349628E0F6
:10446000EE32F207B9F780916D05882311F00E94B2
:104470003B1E80E4EEEEF7E0DF011D928A95E9F73E
:1044800010921509B5EF2B2EB8E03B2EA5E76A2E4A
:10449000A8E07A2EF5E34F2EF8E05F2E1F868F8579
:1044A0000E94DA0C5C01FC0180818F7059F4E8EF06
:1044B0002E2EE3E03E2E27E235E03C872B871E863A
:1044C0001D86A9C2D50113968C9161E040E00E943F
:1044D0003810F10190818823D1F4192F1082D50171
:1044E00011969C911197892F8850823008F081C2D3
:1044F00017968C918E70843009F47BC2993019F034
:10450000CC24DD243CC0C12C7CEFD72E38C010E079
:10451000992309F411E081E0F1018083D50111961E
:104520008C918150A82FB0E0FD01EE0FFF1FE455E4
:10453000F84FC080D180813158F0EF858E1740F45C
:10454000AA0FBB1FAA0FBB1FA251B84FCD90DC9082
:10455000D50117969C91892F807F89F092959F7045
:10456000892F90E00197E1E0F0E002C0EE0FFF1F1D
:104570008A95E2F7209115092E2B20931509D50174
:1045800018968C91882321F00E946A18C80ED91EB3
:10459000F5018681882321F48581882309F444C1AB
:1045A000D3016D917D918D919C91112389F420E02F
:1045B00031E040E050E00E94FE6B50954095309510
:1045C00021953F4F4F4F5F4F4601820E931E5BC0B8
:1045D000F50187818E70843051F5E081EF70F0E055
:1045E000EE0FFF1FE453F84F60817181882777FD3C
:1045F0008095982F20E034E640E050E00E94966BD2
:10460000D3016D937D938D939C931397F501228134
:10461000222369F0332727FD3095432F532F0E9423
:10462000FE6BD3012D933D934D935C931397F30150
:10463000608171818281938120E031E040E050E02F
:104640000E94FE6B50954095309521953F4F4F4FFE
:104650005F4F4601820E931E81149104A1F0D50193
:1046600015968C9197FE82958F7090E0FC0124E660
:1046700030E0E29FC001E39F900DF29F900D112466
:10468000D2018D939C93F201208131812115310556
:1046900051F080916D05882309F4BAC02150304053
:1046A00031832083B5C08114910409F4BDC0F501A4
:1046B0008681882309F4B8C080916D05882309F4A8
:1046C00075C02281222329F460E070E080E293E04B
:1046D00017C0332727FD309537FF03C0309521954C
:1046E0003F4F332727FD3095432F532F60E070E075
:1046F00080E293E00E94FE6BC901DA01BC01CD01AA
:10470000D50116962C91181419040CF52F70422F10
:1047100050E041155105D9F1E4E6F0E04E9F9001DB
:104720004F9F300D5E9F300D1124442737FD40957B
:10473000542F0E94FE6B79018A01F30180819181DF
:10474000A281B381E80EF91E0A1F1B1F29C0229502
:104750002F70422F50E041155105C9F0A4E6B0E09A
:104760004A9F90014B9F300D5A9F300D11244427D2
:1047700037FD4095542F0E94FE6BF301E080F180DD
:1047800002811381E21AF30A040B150B09C0C6015A
:10479000AA2797FDA095BA2FEE24F82E092F1A2FDD
:1047A000D301ED92FD920D931C931397F301608159
:1047B00071818281938176010027F7FC0095102F8B
:1047C0001814190464F420E031E040E050E00E9445
:1047D000FE6BE216F3060407150764F019C020E02B
:1047E00031E040E050E00E94FE6B2E153F0540078F
:1047F000510774F4C601AA2797FDA095BA2FBA2FC6
:10480000A92F982F8827F30180839183A283B383F4
:10481000D3016D917D918D919C9120E031E040E03C
:1048200050E00E94FE6B6901F5016481633071F113
:10483000643028F4613051F06230A8F448C065302B
:1048400081F1653050F16630B1F52EC0D501119679
:104850008C91893029F4D7FC2AC0E0E0FEEF0DC02E
:10486000D7FE35C02EC0D50111968C91893051F4F8
:104870001C141D044CF1E0E0F2E0CE0EDF1ECC0C67
:10488000DD1C25C01C141D04E4F021C0D7FE1FC090
:10489000D094C194D108D3941AC01C141D04A4F060
:1048A00010C0D7FE0EC003C01C141D046CF0C12C38
:1048B0000CEFD02E0CC06750C6010E946E196C011F
:1048C00006C0CC24DD2403C0C12C14E0D12ED501B8
:1048D00017968C91179780FD14C01196EC91EE23DA
:1048E00081F0E53070F4F0E03197EE0FFF1F21E02A
:1048F00030E02C0F3D1FE20FF31F80819181C80E25
:10490000D91EB601882777FD8095982FD50112967C
:104910002C91332727FD3095432F532F0E94966B00
:104920009B01AC01F50187818695877090E081300D
:10493000910571F00081029709F046C00F70E02FD9
:10494000F0E0EE0FFF1FEE0FFF1FE651F84F37C0EC
:10495000D5010C910F7010E0000F111F000F111FF7
:104960000651184FCA01B90124E630E040E050E09A
:104970000E94FE6BCA01B901F80120813181428198
:1049800053810E94966BD8016D937D938D939C9378
:104990001397F50100810F7010E0000F111F000F39
:1049A000111F0651184FD8016D917D918D919C91E9
:1049B00020E034E040E050E00E94FE6BF8012083EC
:1049C00031834283538315C00F70E02FF0E0EE0F68
:1049D000FF1FEE0FFF1FE651F84F80819181A281EA
:1049E000B381820F931FA41FB51F80839183A2837D
:1049F000B383FF85FF5FFF870894211C311C24E0EF
:104A000030E0620E731E42E050E0440E551EF0325C
:104A100009F045CD4CCDA985BA858D909D90AD907E
:104A2000BC90C501B40124E630E040E050E00E94B3
:104A3000FE6BE985FA852083318342835383ED85BC
:104A4000FE85EE50FA4FC90120839183D101139660
:104A50002D913C91149711968C91BAE08B02300104
:104A60001124E8EEF3E06E0E7F1ED1018C91BAE0C6
:104A70008B0220011124E8E1FCEF4E0E5F1EC30102
:104A8000562D492F261537051CF4C901522F492FE1
:104A9000852F942F8C01041515050CF482018114C7
:104AA0009104A104B10469F19801442737FD4095B0
:104AB000542F181419041A041B0454F4B301882742
:104AC00077FD8095982F621B730B840B950B0BC0A1
:104AD000C201AA2797FDA095BA2F281B390B4A0BB4
:104AE0005B0BCA01B901A50194010E94966B20EAF3
:104AF00036E841E050E00E94FE6BC901DA014C014A
:104B00005D01C80155E0959587955A95E1F7800FAD
:104B1000911F9801232F330F330B2595820F931F7D
:104B2000000F012F001F110B801B910B6C01EE2455
:104B3000D7FCE094FE2CC30105E0959587950A9576
:104B4000E1F7860D971DA20115E0559547951A9539
:104B5000E1F7B201660F672F661F770B440D551DF5
:104B60009301232F330F330B2595820F931F660C70
:104B7000672C661C7708861997098C01222717FD78
:104B80002095322FC80CD91CEA1CFB1C0C151D05E6
:104B90002E053F0514F468017901CB0195958795A1
:104BA00095958795480F591F461B570BCA01AA2791
:104BB00097FDA095BA2F87017601E816F9060A0736
:104BC0001B0714F47C018D01D10112968C9188236E
:104BD00041F010950095F094E094E11CF11C011D4A
:104BE000111DEB85FC858081882389F060E040E021
:104BF0000E943810882359F0AB85BC8511968C91A2
:104C00000E946A187C010027F7FC0095102FF89489
:104C1000E989FA892D853E85E20FF31FF182E08252
:104C2000789449855A854C5F5F4F5A8749872E5F34
:104C30003F4F3E872D8765E070E0260E371E8B853F
:104C40009C8502969C878B874E52584009F0E3CE94
:104C500003C086FDFDCA43CB63960FB6F894DEBF52
:104C60000FBECDBFCF91DF911F910F91FF90EF90BD
:104C7000DF90CF90BF90AF909F908F907F906F907C
:104C80005F904F903F902F900895FF920F931F9346
:104C9000F82E162F042F80E860E0412F50E0202FDF
:104CA0000E9430611A3010F485E701C08FE660E0A1
:104CB0004FE2202F0E945C5E1A3010F485E701C09D
:104CC0008FE64F2D50E04F5F5F4F60E0202F0E9436
:104CD00030611F910F91FF9008958F929F92AF9234
:104CE000CF92DF92EF92FF920F931F93CF93DF93B8
:104CF000EC01162FD42E49012115310571F188815F
:104D0000882311F040E025C0643681F0653601F556
:104D10004423F1F081E090E0841B9109880F991FF2
:104D2000F401E81BF90B8591949110C0242F30E019
:104D3000802F90E001972817390754F4F901319634
:104D4000EE0FFF1FE80DF91D859194910E948918BF
:104D500041E08D2D602F0E944526E114F10411F4ED
:104D600090E009C088819C2D8C1508F4982FF701DC
:104D7000E90FF11D9491103659F1113690F4133466
:104D800009F49EC0143430F4113289F1123409F060
:104D9000C2C06EC0143409F445C0153409F0BBC05C
:104DA00054C0143609F442C0153638F4123609F4EA
:104DB00063C0133609F0AFC086C01138A9F01F3B9D
:104DC00021F0153609F0A7C044C01982188213C01B
:104DD000992309F4A0C090E080911306882309F478
:104DE00091E09093130697C0109213060DC0809126
:104DF0001306882319F0109213068DC0888188232A
:104E000019F08114910421F480E00E94571C83C0A2
:104E10008091600580935F051982188280E68093F7
:104E2000D80F7DC08981891709F475C0EF2809F46E
:104E300072C080911306882309F06DC0898189179B
:104E400010F48F5F64C0198263C08981882309F4DC
:104E500062C0EF2809F45FC080911306882309F02F
:104E60005AC08981882311F0815051C0998350C064
:104E700088818A1509F44FC080911306882309F0B0
:104E80004AC088818A1510F080E001C08F5FE1146C
:104E9000F10409F45FC0982FC81608F49C2DF7019F
:104EA000E90FF11DE491EF3F09F054C0EBCF888189
:104EB0008C1508F4C82EEC0CF11CF701849124C069
:104EC0008881882341F180911306882321F5888108
:104ED000882311F48A2D01C08150E114F10409F4F2
:104EE00040C0982FC81608F49C2DF701E90FF11D5A
:104EF000E491EF3FB1F5ECCF88818C1508F4C82E12
:104F0000EC0CF11CF7018491981708F4892F898320
:104F100080E68093D80F892811F456E001C057E04D
:104F20004881442319F41092120622C0242F30E045
:104F300080911206281B3109852F90E08217930774
:104F400014F4451B04C01216130694F0415040930C
:104F500012060EC088839981E114F10409F0A7CFED
:104F600005C088839981E114F10431F680E0CFCF48
:104F7000DF91CF911F910F91FF90EF90DF90CF9035
:104F8000AF909F908F900895AF92CF92EF92FF9243
:104F90000F93AE2CEE24FF24CC240E946D260F919B
:104FA000FF90EF90CF90AF900895EF920F93E42E83
:104FB00040E020E030E000E00E94C4270F91EF9035
:104FC00008950F93982F83E0489FA00111244D5519
:104FD000584F00E0211101E0892F23E00E94175F64
:104FE0000F9108950F93982F83E0489FA0011124FB
:104FF0004655584F00E0211101E0892F23E00E941F
:10500000175F0F910895282FE7EFFBE080E0949160
:10501000921731F03196992311F08F5FF8CF80E02D
:105020000895883210F080E20895E82FF0E0E9500A
:10503000F44F8491089590E020E030E0F90183E09E
:10504000EE0FFF1F8A95E1F7E20FF31FE852FD4FC5
:1050500080818F708150803108F49F5F2F5F3F4FB8
:105060002032310559F7892F0895CF92DF92EF92C0
:10507000FF920F931F93CF93DF93182F80E060E090
:1050800048ED57E021E00E94495F80E59AE0612FFA
:1050900049E021EB37E00AE058E0E52E0E94C42702
:1050A000E090500AEA941038B1F480E80E9401635D
:1050B00089E18093140688E0E81619F40E943164AF
:1050C00006C086E08E1518F08E2D0E949F64809198
:1050D000610580935F0518E0FF24CE2CDD24C7FC1A
:1050E000D094409112064F0D473019F4193370F1E6
:1050F0003EC0C42FD0E0CC16DD0611F020E101C087
:1051000021E1AE014F5F5F4F82E1612F02E00E941B
:10511000436080911406882329F4CC16DD0611F42F
:1051200021E101C020E1AE0194E0440F551F9A95A2
:10513000E1F74C1B5D0B455E5E4F88E1612F0E94DD
:10514000495F185FF394103461F611C08091140622
:10515000882311F020E005C020E087E0E81609F47C
:1051600021E086E0612F45EC57E00E94495FDF9126
:10517000CF911F910F91FF90EF90DF90CF90089506
:105180002F923F924F925F926F927F928F929F9257
:10519000AF92BF92CF92DF92EF92FF920F931F9345
:1051A000DF93CF93CDB7DEB764970FB6F894DEBF29
:1051B0000FBECDBF8E8780E060E044E158E021E083
:1051C0000E94495F82E59AE06E8548E021EB37E076
:1051D0000AE0EEE1EE2EE8E0FE2E7BE0C72E5CE07A
:1051E000A52E0E946D269091520A2091530A2D8778
:1051F0008E858252843038F480911306882319F00A
:1052000084E080931C1080911306882319F431E008
:105210003C8702C042E04C872AE4822E25E0922E91
:1052200063E070E17E836D831C8A1B8AA4E0B0E09A
:10523000BA87A987E3E0F0E0F887EF8322E030E067
:105240003C832B8341E050E05A834983492E552407
:1052500047FC50945C85506C598B6C8560646A8BFC
:105260008091120679818717C8F409811A81081B79
:10527000110983E0000F111F8A95E1F780E0602F8C
:1052800049E058E020E00E94495F4B895C894F5F0C
:105290005F4F8CE0602F20E00E9430618091120609
:1052A0009B81891708F08EC06B817C81681B710916
:1052B000B3E0660F771FBA95E1F7162F84E045E05B
:1052C00058E020E00E94495FD4014C91EB89FC89B1
:1052D000A3E0EE0FFF1FAA95E1F72B893C89E21BA3
:1052E000F30BE55BFA4F20812F706B817C814616B2
:1052F000570629F47D85772311F4098901C000EC54
:1053000080E3612F0E943C178091AB0FEB89FC89F1
:1053100073E0EE0FFF1F7A95E1F7AB89BC89EA1BBA
:10532000FB0BE55BFA4F40814F70EB81FC814E1621
:105330005F0629F4FD85F13011F40C8501C000E011
:1053400050E04E5F574F612F21E00E94175F2B8185
:105350003C8142165306B1F580911306882331F43F
:105360008091680590916905892B61F13D85332312
:1053700071F4D4016C918E8570E040E050E02FEF25
:1053800030E002E00E947E13F40180831BC00B8991
:105390001C8963E0000F111F6A95E1F72B893C8996
:1053A000021B130B055B1A4FD8016C916F708E8531
:1053B00040E021E00E943E148F70F8019081907FC0
:1053C000982B908380911206FF818F1708F06FC091
:1053D0006F817885681B710953E0660F771F5A95B6
:1053E000E1F7162F84E04CEF57E020E00E94495F80
:1053F000AD81BE813C91EB89FC8943E0EE0FFF1F3C
:105400004A95E1F74B895C89E41BF50BE55BFA4FA4
:105410008081982F9595959595959595D4012C918A
:10542000E82FEF704F8158854416550611F000E4BF
:1054300001C00A89892F992787FD9095830F911DB7
:1054400030E0BC01629FC001639F900D729F900D80
:1054500011246FEF70E00E94C96B462F80E3612F2B
:105460002E2F0E943C178F81988548165906F9F413
:105470000B891C8923E0000F111F2A95E1F7AB89E6
:10548000BC890A1B1B0B055B1A4FF80160816595EF
:105490006595659565958E8541E82FE70E943E14D8
:1054A0008295807FD8019C919F70982B9C93F98462
:1054B000809112068F1508F0C9C069857A85681B2E
:1054C000710993E0660F771F9A95E1F7162F84E034
:1054D00048EF57E00E94835FF4012581EB89FC8946
:1054E00083E0EE0FFF1F8A95E1F74B895C89E41B8F
:1054F000F50BE55BFA4F8081982F959595959595DD
:105500009595D4014C91E82FEF7069857A85461600
:10551000570629F47D85772311F40A8901C000E438
:10552000892F992787FD9095332727FD3095820F86
:10553000931F242F30E0DC01A29FC001A39F900D98
:10554000B29F900D11246FEF70E00E94C96B462F3F
:1055500080E3612F2E2F0E943C17F4013681EB89E6
:10556000FC8903E0EE0FFF1F0A95E1F74B895C8988
:10557000E41BF50BE55BFA4F8081982F9595959587
:1055800095959595D4012C91E82FEF7049855A8512
:105590004416550629F45D85513011F40A8901C07D
:1055A00000E4892F992787FD9095830F911D30E0A6
:1055B000BC01629FC001639F900D729F900D1124EA
:1055C0006FEF70E00E94C96B462F8EE4612F2E2F83
:1055D0000E943C1789859A8548165906B9F59D851C
:1055E000992309F089C180911306882331F48091B1
:1055F000680590916905892B49F1D40115966C9144
:10560000772767FD70958E8540E050E02FEF30E002
:1056100002E00E947E13F401858318C08091130676
:10562000882331F48091680590916905892B71F088
:10563000D40116966C918E8570E040E050E02FEF1B
:1056400030E002E00E947E13F4018683F394FB862F
:105650008B899C89B3E0880F991FBA95E1F72B8954
:105660003C89821B930BACE42A2EA5E03A2E280E2F
:10567000391ECC24DD24FEE4EF2EF5E0FF2EE80EEB
:10568000F91EAC01455B5A4F588B4F87809112062B
:105690005B85851708F0F6C0A52EBB24B501681BF5
:1056A0007109E3E0660F771FEA95E1F7162F84E0B2
:1056B00042EF57E020E00E94495FD7018C918F7044
:1056C0003601660C771C4A145B0429F4BD85BB23A4
:1056D00011F40C8501C000E090E0062C02C0959505
:1056E00087950A94E2F783709070AC01440F551FC0
:1056F000480F591F4B51584F80E3612F23E00E9400
:10570000175FF7014081429543704A145B0429F406
:10571000FD85F13011F40C8501C000E050E00C2C47
:1057200002C0559547950A94E2F7417050704E516A
:10573000584F8EE4612F21E00E94175FD1019C91A8
:10574000F4018081AF85B8892C912F704A145B04D5
:1057500029F4BD85B23011F40C8501C000E0899FA9
:10576000C00111246FEF70E00E94B56B462F86E6F2
:10577000612F0E943C174A145B0409F083C080919A
:105780001306882339F48091680590916905892B67
:1057900009F478C0ED85E13089F1E13020F0E230A4
:1057A00009F070C062C0D7011C911F70612F70E0BA
:1057B000062C02C0759567950A94E2F763708E8592
:1057C00070E040E050E023E030E002E00E947E1311
:1057D000062C02C0880F991F0A94E2F723E030E0FC
:1057E00002C0220F331F6A94E2F720952123280F6D
:1057F0002F70F7018081807F822B43C0D7011C91DD
:1058000012951370612F70E00C2C02C0759567958E
:105810000A94E2F761708E8570E040E050E021E08C
:1058200030E002E00E947E130C2C02C0880F991F0A
:105830000A94E2F721E030E00C2C02C0220F331F63
:105840000A94E2F720952123280F23702295207FC8
:10585000F70180818F7C822B80838091650588236E
:1058600089F084E080931C100DC0D1016C918E856D
:1058700070E040E050E02FEF30E002E00E947E1345
:10588000F1018083FB85FF5FFB870894C11CD11C5D
:105890000894211C311C22E0C216D10409F0F6CE76
:1058A0004B895C894F5F5F4F5C8B4B8B67E070E08F
:1058B000860E971E89859A8506969A878987AF8175
:1058C000B8851696B887AF83ED81FE813396FE8347
:1058D000ED832B813C812A5F3F4F3C832B834981A1
:1058E0005A814A5F5F4F5A8349836B897C89623052
:1058F000710509F0B5CC05C07D85713009F48ECEF7
:10590000A5CE64960FB6F894DEBF0FBECDBFCF9183
:10591000DF911F910F91FF90EF90DF90CF90BF909C
:10592000AF909F908F907F906F905F904F903F903F
:105930002F9008956F927F928F929F92AF92BF9215
:10594000CF92DF92EF92FF920F931F93CF93DF934B
:10595000982E80E060E04AE258E021E00E94495F32
:1059600084E59AE0692D47E021EB37E00AE05AE34D
:10597000E52E58E0F52ECC24C39410E1A12E0E9410
:105980006D268091540A81508090550ABB24B8E05E
:10599000AB2E682E772467FC7094409112064B0D55
:1059A000403109F46CC0C42EDD244F5F80E06A2DC5
:1059B00020E00E94E21710E07601EE0CFF1C87E267
:1059C00095E0E80EF91EE601CC0FDD1FC85DDA4F49
:1059D0006C147D0451F4811641F4809113068823E0
:1059E00011F401E003C002E001C000E0112319F04E
:1059F0001130D1F51DC08EE16A2DF7014081202FB5
:105A00000E944A17002381F180911306882331F404
:105A10008091680590916905892B31F1892DF701F5
:105A200060814AEE26E10E943E14F70180831CC08B
:105A30004881552747FD509580E66A2D202F0E940A
:105A40003061002389F080911306882331F480911E
:105A5000680590916905892B39F0892D688143E8A3
:105A60002DE70E943E1488831F5F133009F0B0CFEA
:105A7000B394F8E0AF0E87E0B81609F08ECFDF914F
:105A8000CF911F910F91FF90EF90DF90CF90BF903B
:105A9000AF909F908F907F906F9008956F927F92BC
:105AA0008F929F92AF92BF92CF92DF92EF92FF922E
:105AB0000F931F93DF93CF93CDB7DEB7682E862F5A
:105AC000742E122F302F6E2D0A2D222329F04423FD
:105AD00009F436C122E035C120E0033609F041C0A7
